:100000000C945E060C9422270C9496060C9496068B
:100010000C9496060C9496060C9496060C949606F0
:100020000C9496060C9496060C941F300C94F130A8
:100030000C9480290C9496060C9496060C949606C3
:100040000C9496060C9496060C9496060C949606C0
:100050000C9496060C94252A0C9496060C949606FD
:100060000C9496060C9496060C9496060C949606A0
:100070000C9496060C9496060C9496060C94960690
:100080000C9496060C9496060C9496060C94960680
:100090000C9496060C9496060C9496060C94960670
:1000A0000C9496060C9496060C9496064A0B4A0BF2
:1000B000760B760BDE0BFC0BE30CE30C070C6F0CE2
:1000C000800C800C031F061F261F371F3F1F4A1F6F
:1000D000901F901F901F901F901F4D1F501F551F66
:1000E000621F6F1F721F761F831F59318031783254
:1000F00080317832CC31EF317832463255322900B6
:1001000014001A00080015001700E0000400160093
:10011000070009000A00E1001D001B00060019008D
:10012000050003512B00E300E20002512C001C00EB
:1001300018000C00120013002A000B000D000E0026
:100140000F00330034001100100036003700380073
:1001500028002C0001512B004C00460003510100E7
:100160001E001F0020002100220001003500380081
:100170002F0026022D000100350238022F02000058
:100180002D02010001000100010001000100230017
:10019000240025002600270001002E002702300041
:1001A0003100000001002E02000030023102010087
:1001B0000100010001000100010001000100010037
:1001C000000000004B0000000000010000004A0099
:1001D0004E004D00000001000000500900004F09D2
:1001E0000000010001000100010001000100000009
:1001F000000052000000000001000000500051000B
:100200004F000000010000002B0300002B01000044
:100210000100010001000100010001000100005C7B
:1002200000003A003B003C000000010000003D00DF
:100230003E003F00000001000000AA000000A900ED
:1002400000000100010001000100010001000000A8
:100250004000410042000000005C000043004400F8
:100260004500000001000000AC00AE00AB00000043
:1002700001000100010001000100010001004445EE
:100280004255473A2064697361626C65642E0A00C6
:1002900044454255473A20656E61626C65642E0A9A
:1002A0000000000000000000002A2B2800000000D1
:1002B0000000000000000000000000002900000015
:1002C000002C1E3420212224342627252E362D37BB
:1002D00038271E1F202122232425263333362E378C
:1002E000381F0405060708090A0B0C0D0E0F101124
:1002F00012131415161718191A1B1C1D2F31302331
:100300002D350405060708090A0B0C0D0E0F1011F8
:1003100012131415161718191A1B1C1D2F313035FE
:100320004C00000000000000000000000000000081
:1003300000000000000000000000000000000000BD
:1003400000000000007E0F00D4FFFFFFC700000088
:10035000780A0025303258006C65645F7461736BF5
:100360003A20004F6E6573686F743A206163746958
:1003700076653A2025640A000A0025303862003A82
:10038000200025303258000A722F6320303132337A
:10039000343536370A0054617267657420636F6EB6
:1003A0006E65637465640D0A00546172676574203C
:1003B000646973636F6E6E65637465642C20746822
:1003C000726F74746C696E6720636F6E6E656374B0
:1003D000696F6E20617474656D7074730D0A0046E8
:1003E00061696C656420746F2065786563757465F8
:1003F0002025730A00290A002575002F00257500A5
:100400005D2800256400200025640020002564008C
:1004100020002564007C0025303258006D6F757314
:10042000656B6579205B62746E7C7820792076201C
:10043000685D287265702F61636C293A205B00311A
:100440003A0964656C6179282A31306D73293A2044
:1004500025750A323A09696E74657276616C286D89
:1004600073293A2025750A333A096D61785F7370F4
:100470006565643A2025750A343A0974696D655FCB
:10048000746F5F6D61783A2025750A353A0977688F
:1004900065656C5F6D61785F73706565643A202592
:1004A000750A363A09776865656C5F74696D655FD2
:1004B000746F5F6D61783A2025750A00703A097093
:1004C00072696E742076616C7565730A643A09739B
:1004D00065742064656661756C74730A75703A0999
:1004E0002B310A646E3A092D310A6C743A092B31AA
:1004F000300A72743A092D31300A4553432F713A4C
:1005000009717569740A0A7370656564203D206419
:10051000656C7461202A206D61785F737065656415
:10052000202A2028726570656174202F2074696DFF
:10053000655F746F5F6D6178290A77686572652001
:1005400064656C74613A20637572736F723D2564E3
:100550002C20776865656C3D25640A5365652068C5
:100560007474703A2F2F656E2E77696B69706564AD
:1005700069612E6F72672F77696B692F4D6F757385
:10058000655F6B6579730A004D3E20004D25753A15
:1005900025733E20003F0A003D2025750A003F0AD2
:1005A0000064656661756C74730A0025750A003F06
:1005B0000A000A092D2056616C756573202D0A000A
:1005C000710A000A092D204D6F7573656B657920DE
:1005D0002D0A003F00433E20004C25640A000A0912
:1005E0002D20537461747573202D0A686F73745FC6
:1005F0006B6579626F6172645F6C65647328293A18
:1006000020253032580A6B6579626F6172645F70C1
:10061000726F746F636F6C3A20253032580A6B65C5
:1006200079626F6172645F69646C653A202530326B
:10063000580A74696D65725F726561643332282986
:100640003A202530386C580A000A092D2056657268
:1006500073696F6E202D0A5649443A203078413133
:10066000303328616930332044657369676E2053E5
:10067000747564696F29205049443A2030783030CD
:100680003134284F726269745829205645523A20F5
:100690003078303030310A4255494C443A202028D5
:1006A0004A756C2031342032303232290A4F50548E
:1006B000494F4E533A204C554641204D4F555345D6
:1006C0004B45592045585452414B455920434F4EB4
:1006D000534F4C4520434F4D4D414E44203430390B
:1006E000360A4743433A20352E342E3020415652A5
:1006F0002D4C4942433A20322E302E302041565262
:100700005F415243483A20617672350A000A092D4A
:1007100020436F6E736F6C65202D0A4553432F7114
:100720003A09717569740A6D3A096D6F7573656B75
:1007300065790A000A092D204D61676963202D0A39
:10074000443A094465627567204D65737361676556
:1007500020546F67676C650A583A094D6174726975
:1007600078204465627567204D6F646520546F671B
:10077000676C65202D2053686F77206B65797072E8
:10078000657373657320696E206D6174726978207A
:10079000677269640A4B3A094B6579626F617264EA
:1007A00020446562756720546F67676C65202D2053
:1007B00053686F77206B657970726573732072650B
:1007C000706F72740A4D3A094465627567204D6F07
:1007D00075736520546F67676C650A563A095665EC
:1007E0007273696F6E0A533A095374617475730AB0
:1007F000433A09416374697661746520436F6E738F
:100800006F6C65204D6F64650A46312D4631303A74
:100810000953776974636820746F204C617965723D
:1008200020302D392028463130203D204C30290AF7
:10083000302D393A0953776974636820746F204CFE
:100840006179657220302D390A47524156453A097F
:1008500053776974636820746F204C6179657220E6
:10086000302028616C7465726E617465290A423AA1
:10087000094A756D7020746F20426F6F746C6F61E0
:100880006465720A4553433A094A756D7020746F66
:1008900020426F6F746C6F616465722028616C74A4
:1008A00065726E617465290A453A095072696E7401
:1008B00020454550524F4D2053657474696E6773DF
:1008C0000A4253504143453A09436C6561722045E1
:1008D0004550524F4D0A006B65796D61705F636FD3
:1008E0006E6669672E7261773A20253032580A2E7B
:1008F000737761705F636F6E74726F6C5F6361704A
:10090000736C6F636B3A2025750A2E636170736C8C
:100910006F636B5F746F5F636F6E74726F6C3A209E
:1009200025750A2E737761705F6C63746C5F6C67FA
:1009300075693A2025750A2E737761705F7263744A
:100940006C5F726775693A2025750A2E737761703E
:100950005F6C616C745F6C6775693A2025750A2E4F
:10096000737761705F72616C745F726775693A204A
:1009700025750A2E6E6F5F6775693A2025750A2EF8
:10098000737761705F67726176655F6573633A2044
:1009900025750A2E737761705F6261636B736C619A
:1009A00073685F6261636B73706163653A2025757C
:1009B0000A2E6E6B726F3A2025750A0064656275A7
:1009C000675F636F6E6669672E7261773A202530C4
:1009D00032580A2E656E61626C653A2025750A2EC2
:1009E0006D61747269783A2025750A2E6B6579629B
:1009F0006F6172643A2025750A2E6D6F7573653AC2
:100A00002025750A006565636F6E6669673A0A643A
:100A1000656661756C745F6C617965723A202575E5
:100A20000A003F000A6D6F7573653A206F66660AAB
:100A3000000A6D6F7573653A206F6E0A000A6B6568
:100A400079626F6172643A206F66660A000A6B65AC
:100A500079626F6172643A206F6E0A000A6D617488
:100A60007269783A206F66660A000A6D617472696D
:100A7000783A206F6E0A000A64656275673A206FE3
:100A800066660A000A64656275673A206F6E0A003E
:100A90000A0A4A756D70696E6720746F20626F6F05
:100AA000746C6F616465722E2E2E2000433E200010
:100AB000436C656172696E6720454550524F4D0A1F
:100AC000000A002530325820006B6579626F617230
:100AD000645F7265706F72743A20005B735D005BD7
:100AE000575D005B535D005B525D005B445D005BE6
:100AF000435D000E034F00720062006900740058ED
:100B0000000000260361006900300033002000442B
:100B10000065007300690067006E002000530074D8
:100B2000007500640069006F0000000403090409F7
:100B3000027B00040100A0FA090400000103010186
:100B4000000921110100012240000705810308006E
:100B50000109040100020300000009211101000144
:100B6000222200070582032000010705030320005D
:100B70000109040200010300000009211101000124
:100B8000227B0007058403200001090403000203FF
:100B90000000000921110100012222000705850340
:100BA00020000107050503200001120100020000DA
:100BB000000803A114000100010200010631FF0931
:100BC00074A1010975150026FF00952075088102A2
:100BD0000976150026FF00952075089102C0066071
:100BE000FF0961A1010962150026FF009520750823
:100BF00081020963150026FF00952075089102C047
:100C000005010902A10185020901A10005091901D7
:100C10002908150025019508750181020501093093
:100C200009311581257F95027508810609381581DE
:100C3000257F950175088106050C0A380215812566
:100C40007F950175088106C0C005010980A1018555
:100C50000319012AB700150126B700950175108107
:100C600000C0050C0901A101850419012AA0021583
:100C70000126A002950175108100C005010906A199
:100C800001050719E029E71500250195087501817F
:100C9000029501750881010507190029FF15002635
:100CA000FF009506750881000508190129059505BD
:100CB00075019102950175039101C00011241FBEB9
:100CC000CFEFDAE0DEBFCDBF04B603FE18C08091DF
:100CD000210390912203A0912303B0912403873034
:100CE000904BA740B04B59F410922103109222036D
:100CF0001092230310922403E0E0F8E3099512E038
:100D0000A0E0B1E0E4E0F7E602C005900D92A23366
:100D1000B107D9F723E0A2E3B2E001C01D92A132EE
:100D2000B207E1F70E942D1B0C9480330C94000055
:100D3000FF93EF93E0913202F0913302309709F084
:100D40000995EF91FF910895FC018591803011F094
:100D5000EFDFFBCF0895FF27E0E230E247FF0CC052
:100D6000419597FF09C0EDE260957095809590954B
:100D7000611D711D811D911D27FF02C0219530E36A
:100D800050E2AA27660F771F881F991FAA1FA41772
:100D900010F0A41B63955A95A9F7AA3008F0A95F33
:100DA000A05DAF93F395611571058105910541F73C
:100DB000ED3211F4EF93F395F21718F43F93F39596
:100DC000FBCF8F91B5DFFA95E1F70895E991F9919D
:100DD0008591803021F0853219F0AADFF9CF08958E
:100DE00020E0E89455915532C1F3503311F46894E2
:100DF00055915A3348F4505390F3220F022E220F8C
:100E0000220F200D250FF4CF0EF421958991999191
:100E1000533619F3533729F1533559F1BC0188275B
:100E20009927E8945C3621F48991999168945591B9
:100E3000543639F446EF7EF077FF0DC08FEF9FEF09
:100E40000AC055374AE039F0583540E121F05236B2
:100E500042E009F00895FF93EF937DDFEF91FF915A
:100E6000B7CFFF93EF93FC0181918030B9F360DF3E
:100E7000FBCFFF93EF9368DFF1CFDF93CF93CDB735
:100E8000DEB72596A3DFCF91DF91089581E0089525
:100E900081E008950E944807089508950E944D0733
:100EA0000895A5E0B0E0E7E5F7E00C94EC32498363
:100EB0005A833091350289819A81311114C0662399
:100EC00059F0222349F00E948E0E182F682F898135
:100ED0009A810E946A0E03C00E947C0E182F6981BD
:100EE0007A81812F04C00E948E0E69817A810E94CE
:100EF000EB242596E3E00C940833FC01262F408177
:100F000051816281738184810E945107089581E03B
:100F10000895CF93DF93EC0160E00E947D07BE014E
:100F20000E944E07DF91CF910895E1E0F0E0DF01EC
:100F300002C0AA0FBB1F6A95E2F7BD01DF0102C024
:100F4000AA0FBB1F4A95E2F7AD01462B01C0EE0F79
:100F50002A95EAF7942F9823491302C08E2B0895FF
:100F6000E0958E230895242F462F682F8091480204
:100F70000E9495070E94C90D08950E941D170895AB
:100F80000E941717089508950E94660D0E94C307D6
:100F90002FEF84E39CE0215080409040E1F700C0B7
:100FA000000008950E94C4070E944B2A08950E94E1
:100FB000C4070E946F2A08950F931F93CF93DF9366
:100FC0008C0161E00E947D07EC01B8010E94B21E15
:100FD000882379F1B801CE010E944A07882349F19C
:100FE000B801CE010E943726882319F1B801CE013D
:100FF0000E94B31F8823E9F0B801CE010E949D250D
:101000008823B9F0F8018281882309F43FC0CA35EA
:101010008DE5D807B1F178F4C130FCE5DF07A1F028
:10102000CE3D8CE5D80729F1C115DC4579F50E9444
:10103000D207C0E02FC0CC35FDE5DF07F9F020F185
:10104000C73ADD45C1F022C08091A602C82FC095E5
:10105000C170C0FB80F98093A602CC2329F080E9FF
:1010600092E00E94A406E5CF8EE792E00E94A406DB
:1010700011C00E9497130E94D707DBCF0E94CE12A7
:1010800005C00E94D81202C00E94DC12C8010E9452
:101090004607C82F8C2FDF91CF911F910F91089594
:1010A0000E9459290E94470908950E944B090E94F5
:1010B00062290895A0E0B0E0E0E6F8E00C94E832A0
:1010C000E82FF0E0EF55FD4FD490282F2695269578
:1010D000269530E0F901EF5BFC4F0491877010E03A
:1010E000082E02C0159507950A94E2F701701127A2
:1010F000F901EF5CFC4FE490F12C082E02C0F5944E
:10110000E7940A94E2F791E0E922FF24F901EF5D08
:10111000FC4FC491D0E002C0D595C7958A95E2F7FF
:10112000C170DD270115110519F081EE0E94C80973
:10113000E114F10419F086EE0E94C8098D2D0E9479
:10114000F90AE114F10419F086EE0E94760A0115FD
:10115000110519F081EE0E94760ACD2B19F08CE270
:101160000E94F90ACDB7DEB7E7E00C940433EF92A2
:10117000FF920F931F93CF93DF93EC01162F0AE09A
:101180008881882309F455C0813009F043C08981E2
:10119000813041F47E0182E0E80EF11C8A810E94D8
:1011A000F90A09C0823049F47E01E2E0EE0EF11C3A
:1011B0008A810E94C809E7012FC0833041F47E0173
:1011C000F2E0EF0EF11C8A810E94760AF4CF84309F
:1011D00011F0219621C02A81229680E090E030E033
:1011E000205331092A30310558F4089FA001099F86
:1011F000500D1124C901840F951F21962881EFCF2E
:10120000009751F0EFE9FFE03197F1F700C00000DF
:101210000197F6CF0E945A082196812F882309F45E
:10122000AFCFEFE9FFE03197F1F700C00000815048
:10123000F5CFCDB7DEB7E6E00C94053360E00E9451
:10124000B70808958295982F937344E0949F900176
:1012500011248C7C86958695282B822F8575880F86
:101260002A7A2695822B089508950E9434090895BC
:1012700081E008950E94380908950895CF93C82FFA
:101280000E9435098C2F0E943A09CF91089580E081
:101290000E943E0908950E944D280E943E0908952B
:1012A000CF930E944D28C82F80913402C81739F17E
:1012B000C09334028091A60282FF1EC080FF04C04A
:1012C00088E593E00E94A4068091A60280FF0CC0EE
:1012D0001F92CF9383E593E09F938F930E943D07E6
:1012E0000F900F900F900F908091A60280FF04C086
:1012F00081E593E00E94A4068C2F0E943E09CF91C5
:101300000895ABE0B0E0E7E8F9E00C94ED324F83EC
:10131000588769877A878B8761110E9402129E0124
:101320002F5F3F4F86E0F90111928A95E9F785E03A
:10133000FE013796D90101900D928A95E1F78981D6
:101340009A814C815D81452B31F09F3F31F491E0D2
:101350008F3F19F403C091E001C090E090FF09C0F5
:1013600049815A816B817C818D819E810E942E11E1
:1013700005C0C9010E9487078111F2CF2B96E2E0D8
:101380000C940933FC01808191810E94BB0E089569
:10139000CF93882309F4A8C0C82F8238C1F40E94D3
:1013A0004D2881FDA1C069E3809100019091010168
:1013B0000E941E290E9426122FEF81EE94E02150F8
:1013C00080409040E1F700C0000069E319C0833815
:1013D00001F50E944D2880FD87C063E580910001E2
:1013E000909101010E941E290E9426122FEF81EE8A
:1013F00094E0215080409040E1F700C0000063E598
:1014000080910001909101010E9421290E942612E1
:101410006BC08438C1F40E944D2882FD65C067E42A
:1014200080910001909101010E941E290E942612C4
:101430002FEF81EE94E0215080409040E1F700C012
:10144000000067E4DDCF8CEF8C0F813AF8F48C2F2D
:101450000E94CE23811148C06C2F80910001909191
:1014600001010E94E828882349F06C2F8091000137
:10147000909101010E9421290E9426126C2F8091D7
:101480000001909101010E941E29C0CF80E28C0FC3
:10149000883048F4C77081E001C0880FCA95EAF728
:1014A0000E94E511B3CFEBE5EC0FE33040F4F0E040
:1014B000EE58FE4F808190E00E94B02815C0E8E50C
:1014C000EC0FE73150F4F0E0EE0FFF1FEC5BFE4F46
:1014D000808191810E94C62807C0C03F28F08C2FD0
:1014E0000E94B21B0E94841CCF910895882309F4A6
:1014F00067C0823879F40E944D2881FF61C069E39A
:1015000080910001909101010E941E290E942612E3
:1015100069E310C08338B9F40E944D2880FF50C0A1
:1015200063E580910001909101010E941E290E94B3
:10153000261263E580910001909101010E9421290A
:101540000E9426120895843879F40E944D2882FF63
:1015500037C067E480910001909101010E941E292B
:101560000E94261267E4E6CF9CEF980F913A10F4A0
:10157000682FE0CF90E2980F983050F4877091E098
:1015800001C0990F8A95EAF7892F0E94EB11D8CFF5
:101590009BE5980F933028F480E090E00E94B028FB
:1015A000089598E5980F973128F480E090E00E9424
:1015B000C6280895803F20F00E940D1C0E94841CC4
:1015C00008951F93CF93DF93182FEB010E94C80952
:1015D000209741F08FE99FE00197F1F700C00000EC
:1015E0002197F6CF812F0E94760ADF91CF911F912C
:1015F0000895893319F060E070E002C060E570E0A2
:101600000E94E10A0895882321F00E94E5110E94BA
:1016100026120895882321F00E94EB110E942612C1
:101620000895A0E0B0E0E7E1FBE00C94E7327C0134
:10163000162FC72FFC01D281058102950F700E94E1
:10164000DB118823B9F0DD23A9F08C2F807F803453
:1016500021F080E2810F883068F08091FD0282FFE6
:1016600009C082E00E9488120E94DB1191E0D82E0E
:10167000D92601C0D12CCC2EC2948FE0C8228C2D4B
:1016800090E08C30910508F09EC1FC01EA5AFF4FB2
:101690000C94D0328C2F807FCF70882311F0C295AC
:1016A000C07FDD2399F0CC2309F479C180E2810F5A
:1016B000883010F0111104C08C2F0E94E51103C076
:1016C0008C2F0E94F5110E94261269C1812F0E9461
:1016D000760ACC2309F477C180E2810F883038F193
:1016E000112329F18C2F0E94FB1124C08C2F807FA5
:1016F000CF70803211F0C295C07F112319F01130E4
:10170000A1F13DC08091FD0282FD17C0DD2349F0AB
:10171000CC2329F08C2F0E94E5110E94261280E034
:101720003FC180E00E94760ACC2309F44CC18C2F83
:101730000E94EB110E94261246C1DD2371F00023A6
:1017400041F0013031F40E9405128C2B0E940F12DF
:101750003AC10E9405128C2B1DC0002319F00130E4
:1017600009F431C10E941C1225C0DD2321F006308E
:1017700008F029C10EC0053008F025C11BC0DD23CB
:1017800061F0002331F0F701858180FF08C18F707F
:1017900085838C2F0E94030B16C1002359F0193347
:1017A00009F00EC1FFEF27EE83E0F15020408040AA
:1017B000E1F704C18C2F0E940A0B05C18C2F86957E
:1017C0008695837019F0813061F0FDC0DD2321F032
:1017D000812F9C2F937002C080E090E00E94B0287F
:1017E000FAC0DD2321F0812F9C2F937002C080E08E
:1017F00090E00E94C628EFC0812FDD2319F00E94DF
:10180000B21B02C00E940D1C0E94841CE4C08C2FDD
:10181000837079F5D111DBC0412F42954695477011
:10182000440F440F212F2F70042E01C0220F0A9461
:10183000EAF714FF08C08FE090E001C0880F4A95D6
:10184000EAF7809501C080E0C695C695C370822BEB
:10185000C23049F058F4C13019F00E94BA0DB7C037
:101860000E94B40DB4C00E94C00DB1C00E94B10D61
:10187000AEC0DD2319F08C2F817001C086958823BE
:1018800009F4A5C0412F429546954770440F440F77
:10189000212F2F70042E01C0220F0A94EAF714FFA3
:1018A00008C08FE090E001C0880F4A95EAF7809564
:1018B00001C080E0C695C695C370822BC23049F046
:1018C00058F4C13019F00E94080E81C00E94020E27
:1018D0007EC00E940E0E7BC00E94C90D78C0CF70E2
:1018E000DD2339F08C2F0E94DD0D812F0E94030B28
:1018F0006EC0812F0E940A0B8C2F0E94E90D67C0D9
:10190000123F21F128F4103F41F0113FC1F043C0D4
:10191000133F19F1143F79F03EC0DD2341F005304B
:1019200008F051C08C2F8F710E94F60D4CC006300C
:1019300008F049C0F7CF8091FD0282FD18C0DD2379
:1019400039F08C2F8F710E94DD0D3DC0DD23C9F36E
:101950008C2F8F710E94E90D36C0DD2329F08C2F6A
:101960008F710E94D40D2FC00E94D00D2CC0DD239A
:1019700049F0CF718C2F0E94DD0D63E08C2F0E9407
:101980006A1221C081E00E9488120230E0F082E0F9
:101990000E94881218C0DD2331F0002391F2812FBC
:1019A0000E94C80910C0002399F2193349F49FEF2F
:1019B000E7EEF3E09150E040F040E1F700C00000B6
:1019C000812F0E94760A88EF8C0D843020F40E94CB
:1019D0004D280E943E09DD2089F00E94D71180FD2C
:1019E0000DC0F70112820E94D1110E94DD0DC701C6
:1019F0000E941B0D0E94D1110E94E90DCDB7DEB7E8
:101A0000E8E00C9403330F931F93CF93DF93EC0123
:101A1000688179818A810E94C60E8C010E94140E11
:101A20000E94A20DB801CE010E94110BDF91CF914F
:101A30001F910F910895CF93DF93EC0198818981D5
:101A40002B813C81232B31F08F3F31F481E09F3F8C
:101A500019F403C081E001C080E080FD1AC0CE010E
:101A60000E94DC0781110FC00E94DB11882389F0DE
:101A70008A81882371F08091FD0282FF0AC082E092
:101A80000E94881206C0CE010E94030DCE010E9462
:101A90008907DF91CF91089580E090E00E94B028FF
:101AA00080E090E00E94C6280E9402120E94261246
:101AB0000E94251D0E94841C089580910001909130
:101AC00001010E9424290E944C0D08950E94F211E8
:101AD0000E945D0D089592959F70963079F010F4F4
:101AE000925001C09A50923068F4803F69F018F427
:101AF000883E40F409C0843F29F406C0883E20F0A7
:101B0000813F11F080E0089581E00895FC0180811B
:101B100091810E94BB0E0E946B0D0895A5E0B0E07C
:101B2000E4E9FDE00C94ED322596E2E00C940933F3
:101B3000A6E0B0E0EEE9FDE00C94ED322696E2E09E
:101B40000C940933089508950E94A30D08950E94EE
:101B5000A40D08950E94A70D809349020E944C0D88
:101B600008950E94AA0D089590914902892B0E9420
:101B7000AA0D08959091490289230E94AA0D089503
:101B80009091490289270E94AA0D08950E94A30DF1
:101B900008950E94C60D809348020E944C0D08953E
:101BA00080E00E94C90D089591E001C0990F8A95C7
:101BB000EAF7892F0E94C90D089521E030E001C0A5
:101BC000220F8A95EAF780914802822B0E94C90D64
:101BD000089521E030E001C0220F8A95EAF72095B0
:101BE0008091480282230E94C90D089521E030E0CF
:101BF00001C0220F8A95EAF78091480282270E944D
:101C0000C90D089590914802892B0E94C90D08952D
:101C10009091480289230E94C90D0895909148022D
:101C200089270E94C90D08950895962F9770A1E005
:101C300001C0AA0F9A95EAF793E0769567959A9571
:101C4000E1F7FB01EE0FFF1F6E0F7F1FFA01E60F9A
:101C5000F71F40E050E0682F70E090819B01042E58
:101C600002C0369527950A94E2F72170219529271D
:101C70002A23292721934F5F5F4F4330510569F78E
:101C800008959B01782F777043E0969587954A9544
:101C9000E1F7FC01EE0FFF1F8E0F9F1FF901E80F08
:101CA000F91F40E050E080E0219130E0072E02C0B3
:101CB000369527950A94E2F721703327042E01C048
:101CC000220F0A94EAF7822B4F5F5F4F4330510592
:101CD00059F70895282F983070F4863060F4862FD5
:101CE000622F70E026E0929F600D711D112446E383
:101CF00052E00E94150E0895983070F4863060F41A
:101D0000292F90E066E372E036E0239F800D911D5D
:101D100011240E94410E089580E00895CF92DF9231
:101D2000FF920F931F93CF93DF936C0100914802B2
:101D300080914902082BC7E0D0E010E0C8010C2ECA
:101D400002C0959587950A94E2F780FD04C021971B
:101D5000A8F7F12C07C0FC2EB6018C2F0E9473153A
:101D60000197A9F38F2DDF91CF911F910F91FF90D4
:101D7000DF90CF900895CF93DF93EC010E948E0EF9
:101D8000BE010E947315DF91CF9108951F93CF93E9
:101D9000DF93EB0190913502992321F0CB010E9452
:101DA000BB0E13C0882349F0CB010E948E0E182F62
:101DB000682FCE010E946A0E04C0CB010E947C0EE7
:101DC000182FBE01812F0E947315DF91CF911F91B3
:101DD00008951F93CF93DF93C0914A0216E080913C
:101DE0004B02C81799F0D0E01C9FF0011D9FF00D29
:101DF0001124E45BFD4F40815181628173818481B4
:101E000095810E94980D2196C770E9CFDF91CF91FF
:101E10001F91089540917C0250917D0260917E0255
:101E200070917F0280918002909181020E94980DB2
:101E300008950F931F93CF93DF9380918102829532
:101E40008F7009F05AC080917E02882309F455C032
:101E500080914A0210914B0260917C0270917D0248
:101E6000C0917F02D091800291E06F3F09F090E035
:101E7000292F06E0811709F440C0209721F07F3F09
:101E800021F030E003C031E001C0322F90E030FD9E
:101E900031C0089FF001099FF00D1124DF01A45B00
:101EA000BD4F11963C911197371324C03C913613C6
:101EB00021C012963C91129731111CC013964D917E
:101EC0005C9114974C1B5D0B483C510598F4809134
:101ED00081028F70806180938102EF5AFD4F808173
:101EE0008F70806180838CE792E00E941B0D0E94BE
:101EF000E90E03C001968770BDCFDF91CF911F918E
:101F00000F910895A1E1B0E0E8E8FFE00C94E4321D
:101F10008C0185E0F801DE011D9601900D928A95F5
:101F2000E1F7F801E28090917C0260917D022091BE
:101F30007F02309180022115310531F06F3F31F47D
:101F400081E09F3F19F403C081E001C080E0F82FD9
:101F5000F1709F2E80FD40C1F80140815181A38026
:101F6000B4808CE7C82E82E0D82EF0907E02F50176
:101F7000E21BF30BFF2009F4DAC080918102E83CF8
:101F8000F10508F096C0282F207F09F053C05613A2
:101F900013C0491311C0FE2CE1100EC08F70806178
:101FA000809381020E940A0FC6010E941B0D80913E
:101FB0008102F80185834DC1A114B10431F05F3F66
:101FC00031F481E04F3F19F403C081E001C080E0AB
:101FD00080FD03C081E08E2502C080E090E0F82FF4
:101FE000F170FF2E80FF1CC080914A0220914B02AD
:101FF00036E0821709F40BC190E0389FF001399F59
:10200000F00D1124E45BFD4F6181561306C0608121
:10201000461303C06281E61203C001968770E9CFC0
:10202000FE2CEE2009F415C180918102816080931D
:10203000810254C0561306C0491304C0E11002C007
:10204000F80199C0C8010E94860D882361F1EE2035
:1020500051F120918102822F82958F7090E002973A
:1020600074F080917C0290917D0298878F8319860D
:10207000BB86AA862C87CE0107960E941B0D86E0A0
:10208000F801ACE7B2E001900D928A95E1F70E9469
:10209000190F0E940A0F0AC0561711F1C8010E94B9
:1020A000860D81112CC0C8010E941B0DFF24F394E2
:1020B000D0C0282F207F81F77A2DB98AA88A6E2D6B
:1020C00089890E948E0D8CE792E00E941B0D86E0AC
:1020D000F60111928A95E9F70E940A0FF12CB9C016
:1020E0004913DCCFE110DACFF8018583C8010E94E3
:1020F0001B0D86E0F60111928A95E9F7AAC0EE2041
:1021000091F220918102822F82958F7090E0029748
:102110000CF4B5CF80917C0290917D029A838983E3
:102120001B82BD82AC822E83CE010196A6CFE83CF5
:10213000F10508F044C0FE2CEE2009F4B4CF56138C
:1021400030C049132EC02091810220FD21C0822F72
:1021500082958F70482F50E041155105C9F0F80164
:1021600025834F30510541F08F5F982F9295907FD6
:10217000822F8F70892B8583C8010E941B0D86E0FA
:10218000F801ACE7B2E001900D928A95E1F73CC00E
:1021900086E0F801ACE7B2E001900D928A95E1F794
:1021A00058C0C8010E94860D811169CF80918102BB
:1021B000816080938102C8010E941B0D4AC07A2D64
:1021C000B98AA88A6E2D89890E948E0D86E0F60153
:1021D00011928A95E9F718C0EE2009F464CFC8017E
:1021E0000E94860DF82E882309F45DCF86E0F80161
:1021F000ACE7B2E001900D928A95E1F78CE792E0AE
:102200000E94C2090E94190F0E940A0F22C04D8726
:102210005E878D859E850E94BB0E292F22952F708B
:10222000223028F49F7039F0811105C00BC0243092
:1022300028F49F7049F4805E883020F0C8010E9425
:102240001B0D9F2CF92C05C0F8019581907F99F703
:10225000F9CF8F2D6196EBE00C940033ACE0B0E049
:10226000E4E3F1E10C94EC324F83588769877A8775
:102270008B879C87CE0107960E94820F8823D1F01E
:102280009F8188852A853B85232B31F08F3F31F450
:1022900081E09F3F19F403C081E001C080E080FD30
:1022A00047C04F81588569857A858B859C850E94BA
:1022B000980D3EC086E0FE013796DE011196019032
:1022C0000D928A95E1F7FF81E8856A857B85611526
:1022D000710531F0EF3F31F481E0FF3F19F403C0A5
:1022E00081E001C080E080FD23C020914B0230E0FE
:1022F000C90101968770992740914A0250E08417DE
:102300009507F1F1F983EA837D836C8396E0929FD0
:10231000D001939FB00D1124A45BBD4FFE013196F7
:1023200001900D929A95E1F780934B020E94E90E7D
:1023300016E080914A0290914B02891771F1189F23
:10234000C0011124845B9D4F0E94820F882329F1D4
:10235000E0914A021E9FF0011124E45BFD4F408191
:10236000518162817381848195810E94980D809151
:102370004A0290E001968770992780934A02D9CF4C
:102380000E94660D10924B0210924A02ECE7F2E0B6
:1023900086E0DF011D928A95E9F72C96E3E00C9424
:1023A000083380918A028595859585950895809159
:1023B0008A028770089590918A02977081E009F4EB
:1023C00080E0089580919502089590919502892B5F
:1023D000809395020895809590919502892380932A
:1023E0009502089510929502089590919402892B78
:1023F000809394020895809590919402892380930C
:102400009402089510929402089580918B02089589
:1024100008950E94081208950E940912089590914B
:10242000FD0292FF08C090918B02981721F08093D3
:102430008B020E940C12089580918B02882329F050
:1024400010928B0280E00E940C120895CF93DF93CC
:10245000E0910001F0910101809195028083E0916B
:102460000001F0910101908180919402892B808379
:1024700080918B02882381F0E0910001F0910101AD
:102480009081892B808380910001909101010E94AD
:10249000DC2881110E941C12C0910001D091010121
:1024A00048E050E062E872E0CE010E942833892BB8
:1024B00059F088E0FE01A2E8B2E001900D928A9501
:1024C000E1F7CE010E946128DF91CF9108950E942B
:1024D000081208959091FD0292FF11C098E0899F23
:1024E00090011124262B20938A020E94DD0D8091F9
:1024F0008A028595859585950E94671208950E94A8
:10250000DD0D089510928A0280E00E9467120895FE
:1025100020918A028095822380938A02982F977057
:1025200099F430E0482F082E000C550B241735077E
:1025300059F09091FD0292FF07C08595859585958C
:102540000E94E90D0E9482120895CF939091FD029E
:1025500092FB222720F92817F9F0C82F892FC0FBFA
:1025600082F98093FD028091FC029091FD020E940D
:102570000E1382E00E9488128091A60280FF0CC098
:102580001F92CF9383E693E09F938F930E943D0722
:102590000F900F900F900F90CF9108958091FD02B2
:1025A00082FB882780F991E089270E94A51208956F
:1025B00081E00E94A512089580E00E94A51208956E
:1025C0006FEF7FEF80E090E00E946A33089580E033
:1025D00090E00E944633883E9E4F19F40E94471EA9
:1025E000089580E0089582E090E00E943E330895CF
:1025F00083E090E00E943E330895CF9384E090E022
:102600000E943E33C82F82E290E00E943E332C2F7E
:1026100030E0A901582BCA01CF910895CF93C92F5B
:10262000682F84E090E00E944C336C2F82E290E0AF
:102630000E944C33CF910895AB01BC018FE090E034
:102640000E945E330895AB01BC0183E190E00E94DB
:102650005E33089560E070E0CB010E94231308957B
:1026600060E070E0CB010E941C130E942A130895C1
:1026700068EE7EEF80E090E00E946A3360E082E0E6
:1026800090E00E944C3360E083E090E00E944C3385
:102690001092490260E084E090E00E944C3364E0D4
:1026A00082E290E00E944C3360E085E090E00E947E
:1026B0004C3360E086E090E00E944C336FEF87E09F
:1026C00090E00E944C3340E050E0BA0188E090E096
:1026D0000E945E3360E08DE090E00E944C3340E069
:1026E00050E0BA0188E190E00E945E3360E087E14B
:1026F00090E00E944C3340E050E0BA018CE190E061
:102700000E945E3360E070E080E290E00E946A33F5
:1027100040E050E0BA0188E190E00E945E3380E042
:102720000E94601E0E94951E0E94301308950E9410
:1027300038130895682F8EE090E00E944C3308957E
:102740000E94EE296093A2027093A3028093A402D8
:102750009093A50260939E0270939F028093A002C3
:102760009093A10208950E94E818089508950E9488
:10277000B61308950E94B61308950E94BA130895DF
:102780000E94B61308950E94C01308950E94B613C4
:10279000089587E89CE20E9443280E94C6130E9485
:1027A000C31308950E94B7130E94B61308950E94A0
:1027B000A9160E943D0908950E94D9290E944F162A
:1027C0000E94A51E0E940B190E9413180E94D71385
:1027D0000E949B1F0E9415190E94BD130895AAE034
:1027E000B0E0E5EFF3E10C94E3320E946718982E15
:1027F00081110E94A01386E9A82E82E0B82E00E085
:1028000010E0802E802F0E94C416D82EF501C190B2
:102810005F01C826B1F40F5F1F4F0830110589F71B
:102820008FEF89838A831B820E94E2298160782F3F
:102830009D838C8349815A816B818D810E9481099E
:102840002FC08091A60281FD0E94CA16E12CFF24B0
:10285000F3948C2D8F21F1F00E94B313882399F00B
:10286000EE828F82DF2081E009F480E088870E9479
:10287000E2298160782F9A8789874E815F816885F8
:102880008A850E948109F801EA56FD4F8081F82669
:10289000F08206C0E394FF0CF6E0EF12DACFBBCF74
:1028A00081E0911001C080E02A96ECE00C94FF32A8
:1028B0000E94EF130E94E8180E94471D0E945009D1
:1028C0000895CF93DF930E947815EC01811521E5DF
:1028D000920708F045C0811530E5930708F094C0D1
:1028E000883E910528F5803E910508F0F8C0883AA9
:1028F000910570F4853A910508F07CC0813091050E
:1029000009F475C008F4E8C0049708F0E8C0E4C012
:102910008F3B910508F0E0C0C85AD0E0CC0FDD1F16
:10292000CB58DE4F0990D881C02DCE019464D8C019
:10293000811540E2940758F4811551E0950708F09D
:10294000CEC0803F910508F4C7C09065C9C0C115CD
:1029500080E4D80708F4C0C0DF70CE01906AC0C020
:10296000811525E59207A8F4811534E5930708F051
:1029700095C0811543E5940708F07BC0811552E5A9
:10298000950708F061C0D82FCC27CE01816F906ADF
:10299000A7C0C11589E5D807A0F4C11528E5D2075D
:1029A00008F082C0C11536E5D30708F095C08C2F1A
:1029B0000E940C168F7190E0D82FCC27CE01906228
:1029C0008FC0C1154AE5D40708F474C0CE019056F3
:1029D0008115904208F080C08D2F8F710E940C16D7
:1029E000DD27D0628F71AE01582BCA0179C081E01A
:1029F00090E076C0C55AD0E0CD55DE4F8881C82F13
:102A0000D0E0CE0190646CC074E0969587957A957D
:102A1000E1F7282F23703C2F337081E090E002C053
:102A2000880F991F3A95E2F79C68AC01522B9A01E6
:102A30009C2F9F709695969550E2959FE0011124EA
:102A4000C9018C2B9D2B4CC08370992721E030E06D
:102A500002C0220F331F8A95E2F79C2F9695969518
:102A600080E2989FE0011124C22BD32BCE019C68F9
:102A700037C08370992721E030E002C0220F331F56
:102A80008A95E2F79C2F9695969540E2949FE001F7
:102A90001124C22BD32BCE019A6822C0D82FCC2769
:102AA000CE01846F906A1CC0DC2FCC27CE01806FD2
:102AB000906A16C08C2F8F700E940C1694E0D695E9
:102AC000C7959A95E1F7CF70D0E0DC2FCC27D0697D
:102AD0009E01282BC90104C080E090E001C0CE0116
:102AE000DF91CF9108950E94EB240E946114089514
:102AF0008238910569F1B0F48133910509F46DC014
:102B000048F48932910509F463C08A32910509F4C9
:102B100069C008958533910509F455C0893391053D
:102B2000B9F00895833E910569F138F4803E91052E
:102B3000B1F0823E910509F10895863E9105A9F113
:102B4000873E9105B9F1843E910509F064C023C028
:102B50002091FC0220FD4FC021FD4DC008958091C1
:102B6000FC0280FD44C08091FD0280FF44C0809142
:102B7000FC0284FD42C083EE4DC08091FC0282FFC6
:102B800038C0F5CF8091FC0282FD33C08091FD02F8
:102B900080FD31C0ECCF8091FD0281FF32C0809179
:102BA000FC0284FD2AC087EE35C08091FC0283FFC1
:102BB00026C0F5CF8091FC0283FD21C08091FD02EB
:102BC00081FD1FC0ECCF8091FC0285FD1CC01DC0A3
:102BD0008091FC0285FD19C016C08091FC0286FD23
:102BE00016C017C08091FC0286FD13C010C089E397
:102BF00011C082EE0FC080EE0DC080E00BC086EEEB
:102C000009C084EE07C089E205C085E303C08AE2FB
:102C100001C081E390E008959091FC0292FF0DC005
:102C2000282F2871283019F4877F846006C0282F48
:102C30002471243011F48B7F886093FF0DC0282FFE
:102C40002871283119F4877E846106C0282F2471E9
:102C5000243111F48B7E88612091FD0220FF0DC08C
:102C6000382F3871383019F4877F816006C0382FCB
:102C70003171313011F48E7F886021FF0DC0282F13
:102C80002871283119F4877E816106C0282F2171AF
:102C9000213111F48E7E886194FD877E0895109213
:102CA000F8021092F9021092FA021092FB020895B3
:102CB000CF92DF92EF92FF926B017C010E94E818A5
:102CC00081110EC00E94EE29C61AD70AE80AF90A35
:102CD000C092F802D092F902E092FA02F092FB025E
:102CE000FF90EF90DF90CF9008950F931F930E9475
:102CF000E818882319F00E94EE290EC00E94EE29E0
:102D00000091F8021091F9022091FA023091FB0231
:102D1000600F711F821F931F1F910F9108950E94D2
:102D2000E01208950E9467188FE39CE90197F1F77C
:102D300000C000000E94671880E00E94C41680FF57
:102D400004C00E948F160E944B2A08950E9492167A
:102D500008950E94E712811102C00E9497130E94F9
:102D6000F3128093A6020E94FD129093FD028093BD
:102D7000FC020E94A6160E94F8120E94B10D8091DA
:102D800048020E94C60D0895E82FF0E0E95FFC4F6D
:102D900080810895A0E0B0E0E0EDF6E10C94E73228
:102DA00087E893E00E94A40687E0E82E83E0F82EEF
:102DB000C0E0D0E092E8C92E93E0D92E0AE713E0F4
:102DC000DF93CF93DF92CF920E943D078FE793E08E
:102DD0000E94A406F70181917F010E9422091F929F
:102DE0008F931F930F930E943D0788E793E00E9403
:102DF000A40621968DB79EB708960FB6F8949EBF8D
:102E00000FBE8DBFC830D105D9F6CDB7DEB7E8E02B
:102E10000C94033380EA8A95F1F7089500C0089571
:102E20000E940A17089508950E94131708950E949A
:102E3000141708950E94131708950E941A170895F1
:102E40000E9413170895A4E0B0E0E9E2F7E10C94C2
:102E5000EB320E94E81860910F038823E9F1198290
:102E60001A821B821C82862F90E08E010F5F1F4FFB
:102E7000B801895F9C4F0E942319882389F08091B3
:102E8000FE0290E044E050E0B801895F9C4F0E9450
:102E9000283321E02093A702892B69F410E019C0A0
:102EA0008091A7028823D1F384E0F80111928A95DA
:102EB000E9F71092A702E091FE02F0E0E95FFC4F13
:102EC00089819A81AB81BC8180839183A283B38302
:102ED00011E00E94C0070DC070E0695F7C4F8091D7
:102EE000FE0290E0895F9C4F0E94BE190E9420174D
:102EF00010E0812F2496E4E00C940733F894E82F37
:102F0000E295EF70F0E031A1282F2F7081E090E082
:102F100001C0880F2A95EAF7982F9095932391A3E3
:102F200092A1892B82A3789408950F931F93CF9336
:102F3000DF93C8E0D1E089918F3F11F00E947E17A6
:102F400081E0CC30D807B9F7C2E0D1E008E011E069
:102F500089918F3F11F00E947E170C171D07C1F752
:102F6000DF91CF911F910F910895A0E0B0E0EBEBBE
:102F7000F7E10C94E7328C01C62FD0E0CE01885FD8
:102F80009E4F7C01FC0190819F3F09F447C0D62EE3
:102F9000F894E92FE295EF70F0E081A19F7021E0B5
:102FA00030E001C0220F9A95EAF7822B81A382A11B
:102FB0002095282322A378940E940E17E2E0F1E0E6
:102FC00048E051E031E0C12C21912F3F89F0A22F40
:102FD000A295AF70B0E090968C9190E02F7002C0F7
:102FE000959587952A95E2F780FD02C0832F01C051
:102FF00080E0C82A330F4E175F0731F7F701808151
:103000008F3F11F00E947E1761E0C11001C060E0A7
:103010008D2D0E941017C00FD11FC882CDB7DEB70B
:10302000E8E00C940333A6E0B0E0E9E1F8E10C94A9
:10303000ED3280910C01811124C030913A01209130
:103040003B0190913C0180913D0130930801209318
:10305000090190930A0180930B0186E0EEE3F1E011
:10306000DE01119601900D928A95E1F7FE013196ED
:10307000A2E0B1E0CE01079621912D938E179F0714
:10308000D9F780910C01811102C094E001C090E059
:1030900090930F0384E0891B8093FE020E94951792
:1030A00088E0E7E0F3E0DF01982F1D929A95E9F7B9
:1030B000EFEFF2E0DF011D928A95E9F784E00E94CC
:1030C000AB180E94BD072696E2E00C940933A8E0F5
:1030D000B0E0EDE6F8E10C94E9328E010F5F1F4F8E
:1030E00088E0F80111928A95E9F7F12C6F2DC8015B
:1030F0000E94B517F394F4E0FF12F8CF48E050E0D7
:10310000B8018FEF92E00E9428337C0121E0892BE7
:1031100009F420E0E114F10441F088E0F801AFEF98
:10312000B2E001900D928A95E1F760910F0370E093
:10313000695F7C4F44E08FEF92E00E94AC18E1148D
:10314000F10419F40E94231702C081E090E0289650
:10315000E6E00C9405330895FF920F931F93CF93ED
:10316000DF938C01F62ED72FC42F222349F081E064
:103170008093AA020E94E2299093A9028093A80258
:103180008091AA028823C1F08091A8029091A9029F
:103190000E94FA29059780F0EF2DFD2FD8014C2FC2
:1031A00050E0CD01801B910B841795071CF48D9185
:1031B0008193F7CF1092AA02CDB7DEB7E5E00C9469
:1031C000063355985D9889B185FB882780F9089565
:1031D000CF938091AD02811116C0CAEF0E94AA322E
:1031E00081110AC08FE39CE90197F1F700C000004C
:1031F000C150A1F782E001C081E08093AD0282302E
:1032000011F40E94A53281E09091AD02913009F055
:1032100080E0CF9108950E94E11880930C010E94F4
:10322000E81881110E946D1908950E94E818811113
:1032300002C00E947019089581E09091AE029A3008
:1032400008F080E00895EF92FF920F931F93CF93C1
:103250008C017B01C091AE02CA3038F4B701C801BD
:103260000E94BB19811126C00AC08091AB029091C7
:10327000AC020E94FA29843F914080F719C08091E6
:10328000AE028F3F19F08F5F8093AE028091AE0245
:103290008A30E0F00E94E2299093AC028093AB0266
:1032A0008091A60280FF04C089EA93E00E94A406F0
:1032B00080E00DC0CA3040F08091A60280FF04C0BB
:1032C00086E993E00E94A4061092AE0281E0CF91BD
:1032D0001F910F91FF90EF9008950E94DD260895B1
:1032E0000E94E0260895A0E0B0E0E9E7F9E10C943F
:1032F000E8327901C82F880FDD0B41155105A9F07F
:10330000FE0193E0EE0FFF1F9A95E1F7E35FFE4F9A
:103310008181928181559D4F208130E04217530772
:1033200008F49A01A9010E943533CE010E94C827F2
:10333000D82E8823D1F001151105B9F083E0CC0F08
:10334000DD1F8A95E1F7FE01E35FFE4F438150E008
:103350000417150708F4A801C35FDE4F6C817D8157
:1033600061557D4FC7010E9435338D2DCDB7DEB736
:10337000E7E00C9404330E94CE1A08950E94E91AE3
:103380000895A4E0B0E0E7ECF9E10C94EB32609131
:10339000C4027091C5028091C6029091C7020E943A
:1033A000092A643671058105910528F10E94751678
:1033B000DC01CB010296A11DB11D89839A83AB83E9
:1033C000BC8300E010E020E030E044E050E0BE01CB
:1033D0006F5F7F4F82E00E947319182F882361F07E
:1033E0000E94EE296093C4027093C5028093C602C6
:1033F0009093C70201C011E0812F2496E4E00C9461
:103400000733A0E0B0E0E7E0FAE10C94E3327C019E
:103410005B01942E852E69010E941C19811103C045
:1034200001E010E002C00AE010E0C1E0D0E0B50128
:10343000C701F6010995811129C021960C171D07B6
:103440008CF0CC9F9001CD9F300D300D112480E089
:1034500090E045E34A95F1F70000019628173907F7
:10346000C1F7E5CF9091A602892F817090FF0FC020
:103470008F929F928FED93E09F938F930E943D07D1
:103480000F900F900F900F9080E001C081E0CDB7BA
:10349000DEB7ECE00C94FF32A5E0B0E0E2E5FAE143
:1034A0000C94E5325B01E090A601F090A70101E0E9
:1034B00010E09E012B5F3F4F40E050E060E070E085
:1034C00080E00E947319182F882309F43EC0670119
:1034D0008FEFC81AD80A6091C0027091C102809122
:1034E000C2029091C3020E94092A643671058105C7
:1034F000910518F104E010E09E012F5F3F4F40E07E
:1035000050E060E070E081E00E947319182F64E0E1
:1035100070E0C6010E949C1F91E02D81281390E06D
:10352000192351F10E94EE296093C0027093C102E9
:103530008093C2029093C30211C064E070E0C601A0
:103540000E949C1F9D818913D5CFF70181819281B3
:10355000A381B48189839A83AB83BC83112361F0F7
:1035600089819A81AB81BC818093BC029093BD021A
:10357000A093BE02B093BF028091BC029091BD02A5
:10358000A091BE02B091BF02F50180839183A28316
:10359000B383812F2596EAE00C9401330F931F9398
:1035A000CF93DF93EC018B012CE43AE148EA51E040
:1035B0000E94011A882341F021EC39E145EB51E0EA
:1035C000B801CE010E94011ADF91CF911F910F9196
:1035D00008950F931F93CF93DF93C091A601D091CD
:1035E000A701CE01019624E0FB01DC0101900D92C0
:1035F0002A95E1F764E070E00E949C1F88836D814A
:103600007E818F8198850091B8021091B902209136
:10361000BA023091BB02601771078207930751F01D
:103620006093B8027093B9028093BA029093BB0280
:103630000E945816DF91CF911F910F9108950E941B
:10364000042D0E94DC130E94112D08950E94162D56
:103650000E9458140E94342D08950E9479290E94D6
:10366000EA2C0E94C9130E941F1B0E94261B0E9465
:10367000D213FBCF8091CE0280FF06C060912A0159
:1036800070E0660F771F26C081FF04C060912A0199
:1036900084E005C082FF07C060912A0188E0689F2E
:1036A000B001112417C09091CD029923D1F06091FF
:1036B0002901961788F720912A0188E0289F900118
:1036C0001124929FA001939F500D112470E0CA0114
:1036D0000E94BC326038710540F46115710519F41F
:1036E00006C068E070E0862F08958FE7089581E0B6
:1036F00008958091CE0280FF08C06091260170E09D
:10370000759567957595679521C081FF06C0609195
:10371000260170E07595679519C082FF04C060911D
:10372000260170E010C09091CC02992399F060912D
:1037300025019617A0F780912601899FC0011124C9
:1037400070E00E94BC326038710540F4611571056B
:1037500019F406C061E070E0862F08958FE70895A0
:1037600081E00895803F21F40E943A1B819504C0B6
:10377000813F29F40E943A1B8093D2020895823F30
:1037800021F40E943A1B819504C0833F29F40E94D2
:103790003A1B8093D1020895893F19F40E94791B46
:1037A00005C08A3F31F40E94791B81958093D30232
:1037B00008958B3F21F40E94791B819504C08C3FB2
:1037C00029F40E94791B8093D40208959CE0980FFD
:1037D000953078F421E030E0A90102C0440F551F74
:1037E0009A95E2F7CA019091D002892B8093D0027A
:1037F00008958D3F21F48091CE0281600BC08E3FF1
:1038000021F48091CE02826005C08F3F29F480911F
:10381000CE0284608093CE020895803F39F4909167
:10382000D20297FF35C01092D20259C0813F29F4CD
:103830009091D2021916BCF32BC09091D102823F15
:1038400029F497FF25C01092D10249C0833F19F493
:103850001916CCF31DC09091D302893F29F4191693
:10386000BCF41092D3023BC08A3F19F497FF10C0FA
:10387000F8CF8B3F39F49091D40297FF09C0109292
:10388000D4022DC08C3F21F49091D4021916BCF3C0
:103890009CE0980F953080F421E030E0A90102C04F
:1038A000440F551F9A95E2F7CA0180959091D00276
:1038B00089238093D00213C08D3F21F48091CE02E2
:1038C0008E7F0BC08E3F21F48091CE028D7F05C08C
:1038D0008F3F29F48091CE028B7F8093CE0280911E
:1038E000D102811106C08091D202811102C01092D2
:1038F000CD028091D302811106C08091D402811142
:1039000002C01092CC0208958091A60283FF7EC06F
:103910008CE194E00E94A4068091D0021F928F93C4
:1039200087E194E09F938F930E943D0785E194E0A7
:103930000E94A4068091D102282F082E000C330B80
:103940003F938F9382E194E09F938F930E943D0772
:1039500080E194E00E94A4068091D202282F082ED4
:10396000000C330B3F938F938DE094E09F938F93E4
:103970000E943D078BE094E00E94A4068091D30250
:10398000282F082E000C330B3F938F9388E094E090
:103990009F938F930E943D0786E094E00E94A406C7
:1039A0008091D402282F082E000C330B3F938F9365
:1039B00083E094E09F938F930E943D0780E094E022
:1039C0000E94A4068091CD021F928F938DEF93E009
:1039D0009F938F930E943D078BEF93E00E94A40674
:1039E0008091CE021F928F9388EF93E09F938F93E5
:1039F0000E943D0785EF93E00E94A4068DB79EB715
:103A00004C960FB6F8949EBF0FBE8DBF0E94E22960
:103A10002091D102211104C02091D202222321F051
:103A20009093CB028093CA022091D302211104C04B
:103A30002091D402222321F09093C9028093C802DE
:103A40008FEC92E00E94A2280895EFECF2E086E06D
:103A5000DF011D928A95E9F71092CD021092CC02F7
:103A60001092CE020895FC01828181110DC08381E4
:103A700081110AC08481811107C091E08581811183
:103A800001C090E0892F01C081E081700895A6E017
:103A9000B0E0EDE4FDE10C94EC3286E0EFECF2E016
:103AA000DE01119601900D928A95E1F71092D102F4
:103AB0001092D2021092D3021092D4028B81811103
:103AC00004C08C81882309F45FC08091CA02909160
:103AD000CB020E94FA29AC019091CD02992339F0D2
:103AE00020912B0130E02417350758F04DC020916C
:103AF0002C018AE0289F900111242417350718F023
:103B000043C09F3F19F09F5F9093CD021B8111230B
:103B100061F00E943A1B111614F09FEF01C091E072
:103B2000989F902D11249093D1021C81112361F054
:103B30000E943A1B111614F09FEF01C091E0989F6C
:103B4000902D11249093D2023091D1023323E1F0D1
:103B50002091D2022223C1F045EB3403C00111248D
:103B6000992319F09093D10203C081E08093D10290
:103B700035EB2303C0011124992319F09093D2024D
:103B800003C081E08093D2028D81811104C08E81B7
:103B9000882309F45FC08091C8029091C9020E94F5
:103BA000FA29AC019091CC02992339F02091270198
:103BB00030E02417350758F04DC0209128018AE0E5
:103BC000289F900111242417350718F043C09F3F08
:103BD00019F09F5F9093CC021D81112361F00E9428
:103BE000791B111614F09FEF01C091E0989F902D62
:103BF00011249093D3021E81112361F00E94791B3E
:103C0000111614F09FEF01C091E0989F902D1124A0
:103C10009093D4023091D3023323E1F02091D40267
:103C20002223C1F045EB3403C0011124992319F07C
:103C30009093D30203C081E08093D30235EB23033A
:103C4000C0011124992319F09093D40203C081E09C
:103C50008093D402BE016F5F7F4F8FEC92E00E9491
:103C60002B29811105C08FEC92E00E94331D811138
:103C70000E94841C86E0FE013196AFECB2E0019018
:103C80000D928A95E1F72696E3E00C94083383E2DF
:103C900090E00E943E33823281F484E290E00E9400
:103CA0003E33873051F485E290E00E943E3391E04C
:103CB000843109F090E0892F01C080E0817008957F
:103CC000CF93C82F811102C06FEF01C062E283E27F
:103CD00090E00E944C33C11102C06FEF01C067E059
:103CE00084E290E00E944C33C11102C06FEF01C02A
:103CF00064E185E290E00E944C33CF9108950895ED
:103D000086E290E00E943E33682F70E080E090E011
:103D100008950895CF93C62F0E94891E6C2F86E2C6
:103D200090E00E944C33CF91089580E00E94601E85
:103D300060E070E0CB010E948A1E0E9474240E9401
:103D4000422581E00E94601E08950E947F1E0E940D
:103D5000801E0E94891E0E94471E811102C00E947F
:103D6000951E0895CF93FB01C281CC23E9F09C01FD
:103D700022513F452031310520F482510E945225C5
:103D80000CC08031FFE59F0751F481E00E94DD0DFA
:103D900043E062E081E00E94B307C0E018C08131D7
:103DA0009F45A9F482E0F2CF8031EFE59E0711F440
:103DB00081E004C081319F4549F482E00E94E90D11
:103DC00043E062E081E00E94B30701C0C1E08C2FB4
:103DD000CF9108952FEFFC0120830895EF92FF9279
:103DE0000F931F93CF93DF93EC01062FE8818E2F63
:103DF00090E0FC013197E331F10508F091C0EE59F4
:103E0000FF4F0C94D032198289E04DC089818230F5
:103E100039F0833061F0813029F50E94EE2902C02B
:103E20000E94801E9A838B837C836D837BC07E017E
:103E300082E0E80EF11C10E0812F0E94C416F70109
:103E400081937F011F5F1830B9F76CC08981823080
:103E500049F46A817B818C819D810E94D6320E94C7
:103E60008A1E60C0602FCE010E94EA1E5BC04B819B
:103E70006A8189810E9438249C838D8353C02C8160
:103E80003D813227232732274B816A8189810E9415
:103E9000592448C00E94742445C00E94F92424C0BB
:103EA0000E94FB2499838A833DC06B8170E08981E5
:103EB0009A81AE014C5F5F4F9827892798270E940F
:103EC000FE2430C06B8170E089819A81AE014C5F25
:103ED0005F4F9827892798270E94212523C00E9499
:103EE000422520C00E94252489831CC06B8170E07C
:103EF00089819A81AE014C5F5F4F98278927982767
:103F00000E94A9240FC06B8170E089819A81AE0163
:103F10004C5F5F4F9827892798270E94CB2402C0C7
:103F20008FEF8883602FCE010E94FD2ACDB7DEB7C8
:103F3000E6E00C9405330895FC01680F791F8FEFBC
:103F400091E3E617F70771F02191822728E030E02E
:103F500087FF03C0880F892701C0880F21503109CE
:103F6000B9F7EFCF0895CF93DF93EC01FB01828186
:103F7000882309F43CC1C330FDE5DF0760F4CA3F84
:103F80009CE5D90788F49E0122503C452431310537
:103F900008F02EC109C0C136EDE5DE0729F0C53AAB
:103FA000FDE5DF0709F024C10E94FD129093FD0298
:103FB0008093FC02C1318CE5D80709F4C6C008F033
:103FC00042C0C930ECE5DE0709F49BC000F5C530FE
:103FD0008CE5D80709F485C078F4C330ECE5DE073A
:103FE00009F478C008F07AC0C230DC4509F0F5C0A9
:103FF0008091FC028160EFC0C7309CE5D90709F4CD
:1040000078C008F07AC08091FC028061E4C0CD30B5
:10401000FCE5DF0709F487C058F4CB309CE5D907ED
:1040200009F479C008F07BC08091FC0288606FC001
:10403000CF30FCE5DF0709F480C008F082C0809132
:10404000FC02877FC8C0CD3F9CE5D90709F471C049
:1040500000F5C531FCE5DF0709F485C068F4C3311C
:104060009CE5D90709F475C008F095C00E94660D5B
:104070008091FC028F77AFC0CB3FFCE5DF07A9F151
:1040800008F054C0CA3FDC4509F0A7C08091FD028A
:1040900040C0C130EDE5DE0709F489C058F4CF3FD8
:1040A0008CE5D80709F45AC008F069C08091FD0278
:1040B00082602FC0C136EDE5DE0709F47CC0C53A49
:1040C000FDE5DF0709F481C0C230DD4509F085C098
:1040D00080E06EC08091FC0282607DC08091FC0215
:1040E00016C08091FC02886076C08091FD028260DB
:1040F0004FC08091FC0280626EC08091FC0280649F
:104100006AC00E94660D8091FC02806864C0846071
:1041100062C081603DC08091FC028E7F5CC0809156
:10412000FC028D7F58C08091FC0216C08091FD0278
:1041300018C08091FD028D7F2BC08091FC028F7E84
:104140004AC08091FC028F7D46C08091FC028F7B2B
:1041500042C08091FC02877F8B7F3DC08091FD0231
:104160008D7F8E7F15C08091FC0282FB222720F973
:1041700091E0922790FB82F990FB83F92CC080910B
:10418000FD02982F909591708E7F892B90FB81F97D
:104190008093FD0222C00E94660D8091FC0287FB85
:1041A000222720F991E0922790FB87F914C081E043
:1041B0000E949A1312C08091FC0284FB222720F9EE
:1041C00091E0922790FB84F906C08091FC02982F21
:1041D000909590FB80F98093FC028091FC02909175
:1041E000FD020E940E130E94660D80E001C081E076
:1041F000DF91CF910895809125011F928F93809137
:1042000026011F928F93809129011F928F93809195
:104210002A011F928F9380912B011F928F9380917F
:104220002C011F928F938FE394E09F938F930E94B2
:104230003D078DB79EB70E960FB6F8949EBF0FBE82
:104240008DBF0895883220F58E3108F068C08B301C
:1042500091F1C0F4873009F0BEC081E080932C0159
:1042600084E180932B018AE080932A018EE1809380
:10427000290188E08093260188E28093250181EA64
:1042800095E0C6C0833109F443C0843169F1A3C00D
:104290008F3409F49EC028F4893231F1883359F003
:1042A0009AC0813531F008F4D4C0823509F4A7C032
:1042B00092C08FEFA5C083EC95E00E94A4060E94F7
:1042C000FB201F9281E08F931F9288E08F938CEBED
:1042D00094E09F938F930E943D070F900F900F9053
:1042E0000F900F900F9096C080EC95E00E94A4066E
:1042F0008091D902882309F4AAC01092D9021092A1
:10430000D8021092D7021092D6021092D502B1C0F4
:1043100082EB95E00E94A4060E94FB207BC08D5199
:104320008093D902833031F170F48130D1F0823042
:1043300009F03FC08BE291E09093D8028093D702BE
:104340008DEC91E01FC0853059F108F1863089F578
:1043500085E291E09093D8028093D70288E092E0C2
:1043600011C08CE291E09093D8028093D70284EC44
:1043700091E008C08AE291E09093D8028093D7023E
:1043800089ED91E09093D6028093D50218C089E21E
:1043900091E09093D8028093D70286EE91E0F2CF1D
:1043A00086E291E09093D8028093D70285EF91E066
:1043B000E9CF1092D9028FEA95E00E94A40680917D
:1043C000D902882309F455C01F928F938BEA95E098
:1043D0000DC08AE015C08EE995E01AC097FF47C06E
:1043E000108280811F928F9388E995E09F938F932D
:1043F0000E943D070F900F900F900F900BC081E02F
:10440000E091D702F091D802309729F585E995E03F
:104410000E94A4062091D902222359F18091D5024D
:104420009091D602009711F480EC91E09F938F93C6
:104430001F922F938CE895E09F938F930E943D07E6
:104440000F900F900F900F900F900F9016C080E07C
:10445000089586EFD5CF2081082E000C990B820F8E
:10446000911D8F3F910509F00CF4B8CF8FEF808339
:10447000B8CF88E895E00E94A40681E00895CF9324
:10448000C82F1F928F9389ED95E09F938F930E9481
:104490003D0781E001C0880FCA95EAF70E94B10D7F
:1044A0000E94660D0F900F900F900F90CF9108957E
:1044B000EF92FF920F931F93CF93DF938B3109F409
:1044C000EDC008F08EC08B3009F4B1C008F078C0A0
:1044D000863009F4AFC020F4853009F4BDC04EC168
:1044E000873009F4C0C0883009F048C10E94F81232
:1044F0001F928F9385E09AE09F938F930E943D07D0
:104500000E94F31283FB992790F91F929F9382FBDD
:10451000992790F91F929F9381FB992790F91F92F9
:104520009F93982F91701F929F931F928F938CEB64
:1045300099E09F938F930E943D070E94FD1287FB95
:10454000222720F91F922F9386FB222720F91F9202
:104550002F9385FB222720F91F922F9384FB22277C
:1045600020F91F922F9383FB222720F91F922F936C
:1045700082FB222720F91F922F9391FB222720F9FB
:104580001F922F93292F21701F922F9381FB222797
:1045900020F91F922F93282F21701F922F939F9302
:1045A0008F9387ED98E09F938F930E943D078DB77F
:1045B0009EB788960FB6F8949EBF0FBE8DBF35C0CC
:1045C000803109F495C020F48E3009F47BC0D6C048
:1045D000863109F4A8C0893109F0D0C089E496E099
:1045E00084C08A32E1F060F4873209F4C3C028F451
:1045F0008E3108F4C3C08D51BEC0893269F1BEC08E
:10460000833448F48A3308F0B3C0853309F4B2C068
:10461000883369F0B3C0833409F4ACC0AFC080EB19
:104620009AE00E94A4060E949713C1E0ACC084E304
:1046300097E05BC08091A602817F8E7F8093A60267
:104640008DE097E00E94A4068CEA9AE00E94A406FE
:1046500081E08093DA02E9CF80E99AE00E94A40623
:104660000E94D207E2CF8091A602C82FC095C170E8
:10467000C0FB80F98093A602CC2329F084E89AE05D
:104680000E94A40680C087E79AE00E94A406809159
:10469000A602897F877F8093A602C7CF9091A6024A
:1046A00091FBCC27C0F981E0C827892FC0FB81F995
:1046B0008093A602CC2319F08AE69AE029C08CE503
:1046C0009AE013C09091A60292FBCC27C0F981E03A
:1046D000C827892FC0FB82F98093A602CC2319F04A
:1046E0008DE49AE015C08DE39AE00E94A4069DCF68
:1046F0009091A60293FBCC27C0F981E0C827892FAF
:10470000C0FB83F98093A602CC2351F081E39AE0A9
:104710000E94A4068091A60281608093A60233C005
:1047200084E29AE0E2CF0E94EE29162F072FF82E9E
:10473000E92ED091F702C09139010E944D28EF92E5
:10474000FF920F931F931F92DF931F92CF931F929D
:104750008F938EED95E09F938F930E943D078DB7C9
:104760009EB70C960FB6F8949EBF0FBE8DBF5DCF5F
:10477000895301C080E00E943F2257CF82E29AE035
:104780000E94A406C0E08C2FCDB7DEB7E6E00C9403
:10479000053380E008950E94C9230895CF93C82F60
:1047A0008091DA02813071F040F0823009F045C02A
:1047B0008C2F0E94222181E046C00E94E2118232A9
:1047C000F1F504C00E94E211823261F48C2F0E9444
:1047D000CB23811104C08C2F0E9458222CC081E071
:1047E00090E029C08C2F0E94C923811123C0C431BD
:1047F000C9F058F4CB3069F0C031B9F482E080934D
:10480000DA0288E30E94222115C0C93259F0C83368
:1048100061F48DE097E00E94A40685ED95E00E948A
:10482000A40608C01092DA020CC083ED95E00E9445
:10483000A40607C081E0817006C01092DA0280E011
:1048400002C080E0F8CFCF91089584E0089550E051
:10485000440F551F2CE0629F400D511D11249A01F9
:1048600060E6869F200D311D1124C90187960895A9
:104870000F931F93CF93DF938430A0F4683090F4AC
:10488000463080F40E9427248C010E943E3390E041
:10489000D82FCC27C80101960E943E339E01282BB9
:1048A000C90102C080E090E0DF91CF911F910F918C
:1048B00008950F931F93CF93DF93843080F4683073
:1048C00070F4463060F4E9010E9427248C016D2FBA
:1048D0000E944C336C2FC80101960E944C33DF912B
:1048E000CF911F910F910895A0E0B0E0EAE7F4E2C4
:1048F0000C94E532A12CE12CF12CB12C00E010E05D
:10490000C0E0D0E06701C00ED11EFE01EE0FFF1F18
:10491000EC0DFD1DE250FF4F259134914C2F6B2D76
:104920008A2D0E9459242196C630D10571F7045F63
:104930001F4FB39488E0B812E3CF80E6E80EF11C75
:10494000A39484E0A812D9CFCDB7DEB7EAE00C94E7
:104950000133EF92FF920F931F93CF93DF93EA01FE
:104960007A01E60EF71E8C01C8018796CE15DF0589
:1049700069F0003821E0120720F40E943E3388835A
:1049800001C0188221960F5F1F4FEECFCDB7DEB763
:10499000E6E00C940533EF92FF920F931F93CF93B1
:1049A000DF93EA017A01E60EF71E8C01C8018796B3
:1049B000CE15DF0559F0003821E0120718F46881A0
:1049C0000E944C3321960F5F1F4FF0CFCDB7DEB75B
:1049D000E6E00C940533843048F4783038F46630DF
:1049E00028F4462F672F0E943824089580E090E035
:1049F000089580E1089589E592E00895EF92FF928D
:104A00000F931F93CF93DF93EA017A01E60EF71E0F
:104A10008C01C80189559E4FCE15DF0569F0093517
:104A200022E0120720F40E943E33888301C01882DE
:104A300021960F5F1F4FEDCFCDB7DEB7E6E00C94A8
:104A40000533EF92FF920F931F93CF93DF93EA0109
:104A50007A01E60EF71E8C01C80189559E4FCE15CE
:104A6000DF0559F0093522E0120718F468810E9429
:104A70004C3321960F5F1F4FEFCFCDB7DEB7E6E087
:104A80000C940533CF93DF93C7EAD1E060E0CE0109
:104A90000E944C332196C11584E0D807B9F7DF9105
:104AA000CF910895A4E0B0E0E8E5F5E20C94E83297
:104AB000F82E8FE08F15E8F18FEF93E00E943E33E0
:104AC000811137C007EA11E0FF2069F0011584E089
:104AD000180779F1C8010E943E33811101C0FA9490
:104AE0000F5F1F4FF1CF19821A821B821C82DD24B7
:104AF000D39478018FEFE81AF80AC8010E943E3378
:104B000089831A828823A9F09FEF980F933058F475
:104B10008A83D9820E5F1F4FC7010E943E338B8369
:104B2000882339F07801CE0101960E941E09870181
:104B3000E0CF2496E7E00C940433CF93DF938631E3
:104B40009C4541F5EB010E94E211982F8A8120914A
:104B5000000130910101882379F09A7A81E009F40B
:104B600080E08093DB02911102C069E201C065E33D
:104B7000C9010E941E290AC08091DB02811102C076
:104B800069E201C065E3C9010E9421290E94261241
:104B900080E001C081E0DF91CF9108950F931F93D2
:104BA000CF93DF93C42FD22FFC0182818823B1F0F1
:104BB0004093DE020E94E2299093DD028093DC02A2
:104BC00080E28C0F883008F04DC0C77081E001C0D2
:104BD000880FCA95EAF70E94030B44C08091DE0259
:104BE000481330C08091DC029091DD020E94FA29C6
:104BF000883C910538F510E21D0FCD17B9F080E221
:104C00008C0F883040F4C77081E001C0880FCA95CE
:104C1000EAF70E940A0B183010F581E09D2F97707B
:104C200001C0880F9A95EAF70E94030B802F0E941B
:104C3000F90A1830B8F4D77081E001C0880FDA950E
:104C4000EAF70AC080E28C0F883060F4C77081E018
:104C500001C0880FCA95EAF70E940A0B03C0802F93
:104C60000E94F90ADF91CF911F910F9108950F9340
:104C70009C01CB01233F4CE5340731F188F4283DFA
:104C8000FCE53F07D9F0293D4CE5340779F1273D94
:104C90003C45A9F506E221EE41EE67ED7CE52BC02F
:104CA000253FFCE53F07E1F0A8F0263F3C4539F5FC
:104CB00007E225EE46EE66EF7CE51DC007E225EE35
:104CC00045EE68ED7CE517C006E221EE40EE63EFAD
:104CD0007CE511C007E225EE44EE64EF7CE50BC0F5
:104CE00006E221EE42EE65EF7CE505C008E221E038
:104CF00045EE69ED7CE50E94CE2580E008C0FC0110
:104D00008281882319F01092DE0201C081E00F91A8
:104D100008958EE1489B02C08150E1F7489BFECF89
:104D20000895589880E28A95F1F7589A0895FC0101
:104D30002AE02A95F1F728E090E080E031E040E1B8
:104D40004A95F1F7880F489B02C08160932700C005
:104D5000000040E14A95F1F7215089F720E12A95BA
:104D6000F1F729B100C0000030E13A95F1F7217068
:104D700092272081920F90830895A1E0B0E0E3ECA8
:104D8000F6E20C94E93219828C017C01E60EF11CEA
:104D90000E151F0551F00E948926CE0101960E9432
:104DA0009726F80181938F01F3CF81E099819111CA
:104DB00080E02196E6E00C940533509A589A0895C5
:104DC0005098589AE89AE9E6F0E080818C7F8083D9
:104DD0000895615091E001C0990F6A95EAF720E0CB
:104DE00031E0992361F0492F482319F0589A23277D
:104DF00001C0589840E24A95F1F79695F2CF2223E8
:104E000011F0589A01C0589880E28A95F1F75898A5
:104E10000895FF920F931F93CF93DF93EC018C01C2
:104E2000060F111DC017D10741F0F9900E9491267D
:104E300068E08F2D0E94E926F5CFCDB7DEB7E5E01B
:104E40000C9406331F920F920FB60F9211240F93FA
:104E50001F932F933F934F935F936F937F938F9302
:104E60009F93AF93BF93EF93FF93CF93DF931F92E3
:104E7000CDB7DEB719820E948926CE0101960E9425
:104E80009726082F069506950695902F969595706E
:104E9000202F2570920F292F237096959695920FAB
:104EA000877089135FC0898181115CC0043008F06C
:104EB00059C080E18A95F1F7589A509A82E08A9514
:104EC000F1F700C0589888E0089F80011124D801AC
:104ED000A35FBE4F1696ED91FC9117973097A9F0FE
:104EE0006091A6017091A70114962D913C911597A0
:104EF000260F371F11968D919C911297680F791F7D
:104F000013964C9113978C910995F801E35FFE4F2E
:104F10006381662351F08091A6019091A7012481BD
:104F20003581820F931F0E9409270E94912680E1FC
:104F30008A95F1F758985098589A80E18A95F1F738
:104F4000F801E35FFE4F6081662351F08091A60176
:104F50009091A70121813281820F931F0E94BD266B
:104F60000E9489260F90DF91CF91FF91EF91BF9121
:104F7000AF919F918F917F916F915F914F913F91F1
:104F80002F911F910F910F900FBE0F901F901895AA
:104F90000F931F93CF93DF93843091050CF06DC076
:104FA000EC01F894509A589885E08A95F1F7000042
:104FB0009C2F969595702C2F2570920F892F8370BA
:104FC0009695969523E0CC0FDD1F2A95E1F7980F73
:104FD0008E01092B0E94912684E08A95F1F700C08A
:104FE00068E0802F0E94E92680E18A95F1F75098C9
:104FF000589A489902C000C0FCCF87E090E0489BD7
:1050000008C0019721F4509A589A789436C000C08D
:10501000F6CFFE01E35FFE4F6381662381F080914E
:10502000A6019091A70124813581820F931F0E94D0
:10503000BD26811104C0509A589A78941FC00E94CE
:10504000892680E28A95F1F75898509A80E18A95EE
:10505000F1F7C35FDE4F6881662351F08091A601AE
:105060009091A70129813A81820F931F0E940927FD
:105070000E949126789481E001C080E0DF91CF9179
:105080001F910F91089590933302809332020895F7
:105090009093E5028093E40208950E94E81881113C
:1050A00003C08091DF020895E091E402F091E502EF
:1050B000309729F00190F081E02D0995089580E066
:1050C0000895EF92FF920F931F93CF93DF93E09198
:1050D000E402F091E502309781F18C010280F381C6
:1050E000E02D09958091A60282FF27C080FF04C0B1
:1050F00089EC9AE00E94A406E80118E083ECE82E0F
:105100008AE0F82E8091A60280FF0BC088811F9252
:105110008F93FF92EF920E943D070F900F900F9098
:105120000F90115021961111EDCF8091A60280FFB2
:1051300004C081EC9AE00E94A406CDB7DEB7E6E099
:105140000C940533E091E402F091E502309739F0D8
:1051500022E0DC012C930480F581E02D099508956F
:105160002091E2023091E3022817390771F0909301
:10517000E3028093E202E091E402F091E5023097CD
:1051800021F00680F781E02D099508952091E00235
:105190003091E1022817390771F09093E102809372
:1051A000E002E091E402F091E502309721F0008402
:1051B000F185E02D09950895FC01329697E080E095
:1051C000915029F021912223D9F38F5FF9CF0895CF
:1051D000662349F0FC01329608962191621729F066
:1051E000E817F907D1F780E0089581E008959C0160
:1051F000FC0132969FEF80E04191461789F09F3F76
:1052000019F4411101C0982F8F5F8630A9F79F3F95
:1052100039F0F901E90FF11D97FDFA9562830895C0
:1052200008959C012A5F3F4FFC014281461301C053
:105230001282019682179307B9F708950E94F72802
:1052400008950E9411290895029626E0FC0111920A
:105250002A95E9F7089546E050E00E94283321E0BE
:10526000892B09F420E0822F089508950E943529A2
:10527000089583E08093E6020E9436290895811103
:1052800002C081E001C082E08093E6020E943629DC
:1052900008950E943F29089581E08093E6020E94CC
:1052A000362908950E944C29089508950E94552991
:1052B00008950E94562908950E94552908950E9434
:1052C000552908950E9455290895CF930E945F297A
:1052D0000E9467180E945C29C0E08C2F0E94C416AF
:1052E000811104C0CF5FC830C1F701C081E0CF9108
:1052F000089585B7806885BF85B7806885BF0895A4
:105300001F920F920FB60F9211248F939F93AF931A
:10531000BF938091E702811113C080911003909197
:105320001103A0911203B09113034196A11DB11D69
:105330008093100390931103A0931203B09313036F
:10534000BF91AF919F918F910F900FBE0F901F90C3
:10535000189580911803843031F10E945008109202
:10536000E70220E488E190E00FB6F894A8958093D6
:1053700060000FBE2093600083B7817F846083BF8D
:1053800083B7816083BF7894889583B78E7F83BF0E
:105390000FB6F894A89580916000886180936000B2
:1053A000109260000FBE08950E94660D0E9455087D
:1053B000089582E084BD93E095BD9AEF97BD8093F8
:1053C0006E0008952FB7F894809110039091110307
:1053D000A0911203B09113032FBF08952FB7F89433
:1053E0006091100370911103809112039091130347
:1053F0002FBF08959C014FB7F894809110039091AE
:105400001103A0911203B09113034FBF821B930BA2
:105410000895CF92DF92EF92FF922FB7F894C09049
:105420001003D0901103E0901203F09013032FBFEC
:10543000A7019601261B370B480B590BCA01B9016E
:10544000FF90EF90DF90CF90089578941F920F9285
:105450000FB60F9211248F939F93AF93BF938091B8
:10546000100390911103A0911203B09113030196C0
:10547000A11DB11D8093100390931103A0931203FB
:10548000B0931303BF91AF919F918F910F900FBE77
:105490000F901F90189581E08093E00080E2809348
:1054A000D8001092C9008FE19EE40197F1F700C087
:1054B000000087E090EBDC018093210390932203AE
:1054C000A0932303B09324039CE088E10FB6F894E3
:1054D000A895809360000FBE90936000FFCF9CE082
:1054E00088E10FB6F894A895809360000FBE909362
:1054F0006000FFCF8091F6020895089524E0209384
:10550000E9002FEF3091E800215035FD06C035ED60
:105510003A95F1F700002111F5CF2091E80025FF21
:105520000BC040E050E066E070E00E94D32D809117
:10553000E8008E778093E8000895CF93DF9321E011
:105540002093E9002FEF3091E800215035FD06C08F
:1055500035ED3A95F1F700002111F5CF2091E800E3
:1055600025FF14C0EC0140E050E068E070E00E94CC
:10557000D32D8091E8008E778093E80088E0FE01CB
:10558000AEEEB2E001900D928A95E1F7DF91CF91F6
:1055900008958093EA027093EC026093EB0280918D
:1055A00018038430F9F48093E9008FEF9091E800BC
:1055B000815095FD06C095ED9A95F1F70000811197
:1055C000F5CF8091E80085FF0DC040E050E063E03A
:1055D00070E08AEE92E00E94D32D8091E8008E77F1
:1055E0008093E8000895BC0184E00E94C92A0895D0
:1055F000BC0183E00E94C92A0895CF93603219F557
:10560000209118032430F9F4C091E900CF70309153
:10561000EC00232F217030FD20E8C22B22E02093E4
:10562000E9002091E80020FF0BC040E050E060E27C
:1056300070E00E94D32D8091E8008E778093E8007F
:10564000CF70C093E900CF9108958FEE9AE00E9449
:10565000A40680911703811109C00E94A32F0E9404
:1056600000308091E20084608093E20008958BEE28
:105670009AE00E94A40610921703089587EE9AE01C
:105680000E94A4060E945229089583EE9AE00E9487
:10569000A4066091140381E0611101C080E00E94C2
:1056A000392908958FED9AE00E94A406909118037D
:1056B00081E0943009F080E0609114030E943F295A
:1056C00008952091E9022F5F822F62E30E94B03299
:1056D000992319F02093E90208951092E90280912C
:1056E000ED02882371F180911803843041F5809197
:1056F000E9008F702091EC00922F917020FD90E8CE
:10570000892B95E09093E9009091EB0090FF14C0F5
:105710009091EE0097FF10C09091E80095FF03C0B4
:105720001092F100F9CF9091E80090FF05C09091A0
:10573000E8009E779093E8008F708093E9001092C4
:10574000ED02089542E061EC81E00E941C2F42E2EC
:1057500061EC84E00E941C2F42E261EC82E00E9436
:105760001C2F42E260EC83E00E941C2F42E261ECBD
:1057700085E00E941C2F9091180381E0943009F07D
:1057800080E0609114030E944929089580911A03D2
:10579000833009F463C030F4813071F0823009F451
:1057A0009DC008958A3009F489C08B3009F46EC019
:1057B000893009F0ABC020C080911903813A09F00B
:1057C000A5C08091E800877F8093E80080911D0349
:1057D00090911E03892B21F468E08EEE92E003C0C5
:1057E00060E080E090E070E00E945D2E8091E80033
:1057F0008B778093E800089580911903813209F036
:1058000085C080911D0390911E03009719F00297A7
:1058100009F07CC08091E800877F8093E800809148
:10582000E80082FD05C0809118038111F8CF6EC099
:105830002091F3008091F20090E0922B029731F4D6
:105840008091F100813011F0863021F48091F100D7
:105850008093F6028091E8008B7754C08091190301
:10586000813A09F053C080911D0390911E03892B4A
:1058700009F04CC08091E800877F8093E800809118
:10588000E80080FFFCCF8091390137C08091190377
:105890008132E1F580911D0390911E03892BB1F5B2
:1058A0008091E800877F8093E8000E94512F8091CB
:1058B0001B03809339010E94660D0895809119039E
:1058C000813221F58091E800877F8093E8000E9473
:1058D000512F80911C038093F70208958091190342
:1058E000813AA1F48091E800877F8093E80080915D
:1058F000E80080FFFCCF8091F7028093F100809157
:10590000E8008E778093E8000E94512F08959FB79A
:10591000F8941092ED029FBF90911803943009F013
:1059200057C09091E9009F703091EC00232F2170B7
:1059300030FD20E8922B25E02093E9002091EB0038
:1059400020FF43C02091EE0027FF3FC02091E802D6
:10595000222321F02091E80025FF37C01092E802B1
:1059600026E03091E80035FD15C030911803343041
:1059700061F53091EB0035FD28C0215021F481E024
:105980008093E80222C0EFE9FFE03197F1F700C011
:105990000000E7CF8093F1008091E80085FD0AC008
:1059A0008091E80080FFFCCF8091E8008E778093A3
:1059B000E80006C08FB7F89421E02093ED028FBF76
:1059C0009F709093E90080E008959F709093E900A4
:1059D0008FEF089584B7877F84BF0FB6F894A8959A
:1059E00080916000886180936000109260000FBE1B
:1059F00090E080E80FB6F894809361009093610086
:105A00000FBE0E944C2908950E94A32F0E940030CF
:105A1000E2EEF0E080818460808378940E948A3294
:105A200008958DE291E00E9448280895809118031E
:105A30008530C9F48BED9AE00E94A406809118038A
:105A4000853079F40E94A929809116038823B1F347
:105A50000E946529882391F30E94BD2D0E94660D46
:105A6000EDCF0E94D4290895A0E2B0E0EAE3FDE280
:105A70000C94ED3280911803843011F583E080930B
:105A8000E9008091E80082FF1BC08091E80085FF5B
:105A90000AC040E050E060E270E0CE0101960E9452
:105AA000182E91E001C090E08091E8008B77809300
:105AB000E800992329F060E2CE0101960E94EE1ED3
:105AC000A096E2E00C9409330E94672D0895292FD7
:105AD000332723303105C9F060F42130310581F0DE
