:100000000C9472050C94AA050C94AA050C94AA05EC
:100010000C94AA050C94AA050C94AA050C94AA05A4
:100020000C94AA050C94AA050C94D8260C94AA2723
:100030000C94E7200C94AA050C94AA050C94AA052C
:100040000C94AA050C94AA050C94AA050C94AA0574
:100050000C94AA050C9470210C94AA050C94AA0582
:100060000C94AA050C94AA050C94AA050C94AA0554
:100070000C94AA050C94AA050C94AA050C94AA0544
:100080000C94AA050C94AA050C94AA050C94AA0534
:100090000C94AA050C94AA050C94AA050C94AA0524
:1000A0000C94AA050C94AA050C94AA056C096C0979
:1000B00098099809000A1E0A360B360B290AC20A4B
:1000C000D30AD30A0A1DF81C111D831CBE1DBE1DB8
:1000D000F51CBE1DBE1D3E1DBE1D521D9E1DBE1D1E
:1000E000BE1DBE1DBE1D721DBE1DBE1D6F1DBE1DD3
:1000F0002A1DBE1DBE1DB81DB81DB81DB81DB81DDA
:10010000B81DB81DB81DB81DBA1DBE1D0A1DED1CB9
:10011000BE1DBE1DBE1DBE1DBE1DBE1DBE1DBE1D07
:10012000BE1DBE1DBA1DBE1DBE1DF51CBE1DB61DCD
:10013000B61DB61DB61DB61DB61DB61DB61DB61D27
:10014000BA1D122839283129392831298528A828AB
:100150003129FF280E292400250026000000000078
:100160000000000000000000000000000000444506
:100170004255473A2064697361626C65642E0A00D7
:1001800044454255473A20656E61626C65642E0AAB
:10019000000A0025303258006C65645F7461736B2F
:1001A0003A20004F6E6573686F743A20616374691A
:1001B00076653A2025640A000A0025303862003A44
:1001C000200025303258000A722F6320303132333C
:1001D000343536370A00290A002575002F002575A9
:1001E000005D2800256400200025640020002564AF
:1001F0000020002564007C0025303258006D6F75AA
:1002000073656B6579205B62746E7C7820792076EB
:1002100020685D287265702F61636C293A205B004D
:10022000313A0964656C6179282A31306D73293A55
:100230002025750A323A09696E74657276616C28F8
:100240006D73293A2025750A333A096D61785F7319
:10025000706565643A2025750A343A0974696D65DC
:100260005F746F5F6D61783A2025750A353A0977BA
:100270006865656C5F6D61785F73706565643A2071
:1002800025750A363A09776865656C5F74696D652E
:100290005F746F5F6D61783A2025750A00703A09C6
:1002A0007072696E742076616C7565730A643A09C0
:1002B0007365742064656661756C74730A75703A51
:1002C000092B310A646E3A092D310A6C743A092BF4
:1002D00031300A72743A092D31300A4553432F7177
:1002E0003A09717569740A0A7370656564203D2066
:1002F00064656C7461202A206D61785F7370656538
:1003000064202A2028726570656174202F2074692A
:100310006D655F746F5F6D6178290A7768657265D6
:100320002064656C74613A20637572736F723D2549
:10033000642C20776865656C3D25640A53656520EB
:10034000687474703A2F2F656E2E77696B697065CB
:100350006469612E6F72672F77696B692F4D6F75B6
:1003600073655F6B6579730A004D3E20004D2575FE
:100370003A25733E20003F0A003D2025750A003FC4
:100380000A0064656661756C74730A0025750A005D
:100390003F0A000A092D2056616C756573202D0AED
:1003A00000710A000A092D204D6F7573656B657920
:1003B000202D0A003F00433E20004C25640A000A1D
:1003C000092D20537461747573202D0A686F73743E
:1003D0005F6B6579626F6172645F6C656473282915
:1003E0003A20253032580A6B6579626F6172645F1A
:1003F00070726F746F636F6C3A20253032580A6BDD
:100400006579626F6172645F69646C653A2025305A
:1004100032580A6B65796D61705F636F6E666967EC
:100420002E6E6B726F3A20253032580A74696D65F2
:10043000725F72656164333228293A202530386C46
:10044000580A000A092D2056657273696F6E202DB7
:100450000A5649443A203078464545442841747349
:10046000657429205049443A203078363036302897
:1004700041543329205645523A20307830303031BB
:100480000A4255494C443A2020284A756C203134A0
:100490002032303232290A4F5054494F4E533A20BD
:1004A0004C554641204D4F5553454B4559204558D5
:1004B0005452414B455920434F4E534F4C452043D6
:1004C0004F4D4D414E44204E4B524F203430393623
:1004D0000A4743433A20352E342E30204156522DC0
:1004E0004C4942433A20322E302E30204156525F42
:1004F000415243483A20617672350A000A092D209C
:10050000436F6E736F6C65202D0A4553432F713A0C
:1005100009717569740A6D3A096D6F7573656B655C
:10052000790A000A092D204D61676963202D0A446C
:100530003A094465627567204D657373616765208C
:10054000546F67676C650A583A094D61747269782F
:10055000204465627567204D6F646520546F67673E
:100560006C65202D2053686F77206B6579707265FC
:100570007373657320696E206D617472697820678A
:100580007269640A4B3A094B6579626F6172642043
:10059000446562756720546F67676C65202D205332
:1005A000686F77206B657970726573732072657000
:1005B0006F72740A4D3A094465627567204D6F7514
:1005C000736520546F67676C650A563A0956657201
:1005D00073696F6E0A533A095374617475730A43F1
:1005E0003A09416374697661746520436F6E736F75
:1005F0006C65204D6F64650A46312D4631303A09ED
:1006000053776974636820746F204C617965722038
:10061000302D392028463130203D204C30290A30F9
:100620002D393A0953776974636820746F204C61DF
:1006300079657220302D390A47524156453A09539F
:10064000776974636820746F204C6179657220301B
:100650002028616C7465726E617465290A423A09DA
:100660004A756D7020746F20426F6F746C6F616497
:1006700065720A4553433A094A756D7020746F20BC
:10068000426F6F746C6F616465722028616C746571
:10069000726E617465290A453A095072696E742058
:1006A000454550524F4D2053657474696E67730A07
:1006B0004253504143453A09436C656172204545B8
:1006C00050524F4D0A4E3A094E4B524F20546F67CD
:1006D000676C650A006B65796D61705F636F6E664C
:1006E00069672E7261773A20253032580A2E737767
:1006F00061705F636F6E74726F6C5F636170736C57
:100700006F636B3A2025750A2E636170736C6F639B
:100710006B5F746F5F636F6E74726F6C3A202575D8
:100720000A2E737761705F6C63746C5F6C677569B8
:100730003A2025750A2E737761705F7263746C5F5F
:10074000726775693A2025750A2E737761705F6C40
:10075000616C745F6C6775693A2025750A2E737732
:1007600061705F72616C745F726775693A2025759C
:100770000A2E6E6F5F6775693A2025750A2E7377AA
:1007800061705F67726176655F6573633A20257596
:100790000A2E737761705F6261636B736C6173685B
:1007A0005F6261636B73706163653A2025750A2E21
:1007B0006E6B726F3A2025750A0064656275675F1B
:1007C000636F6E6669672E7261773A202530325802
:1007D0000A2E656E61626C653A2025750A2E6D6180
:1007E000747269783A2025750A2E6B6579626F619B
:1007F00072643A2025750A2E6D6F7573653A20254F
:10080000750A006565636F6E6669673A0A646566B6
:1008100061756C745F6C617965723A2025750A00A8
:100820003F004E4B524F3A206F66660A004E4B52C5
:100830004F3A206F6E0A000A6D6F7573653A206F2C
:1008400066660A000A6D6F7573653A206F6E0A005E
:100850000A6B6579626F6172643A206F66660A009E
:100860000A6B6579626F6172643A206F6E0A000AE2
:100870006D61747269783A206F66660A000A6D616C
:10088000747269783A206F6E0A000A64656275674F
:100890003A206F66660A000A64656275673A206FDF
:1008A0006E0A000A0A4A756D70696E6720746F20BF
:1008B000626F6F746C6F616465722E2E2E20004320
:1008C0003E2000436C656172696E67204545505259
:1008D0004F4D0A000A002530325820006B657962BE
:1008E0006F6172645F7265706F72743A2000646544
:1008F0006C5F6B65795F6269743A2063616E27741F
:100900002064656C3A20253032580A006164645FC7
:100910006B65795F6269743A2063616E2774206148
:1009200064643A20253032580A005B735D005B57DF
:100930005D005B535D005B525D005B445D005B43AB
:100940005D00080341005400330000000C03410027
:1009500074007300650074000000040309040902B8
:100960005B00030100A0FA0904000001030101007B
:10097000092111010001224000070581030800013F
:1009800009040100010300000009211101000122F6
:10099000B6000705820320000109040200020300DB
:1009A0000000092111010001222200070583032014
:1009B00000010705030320000112010002000000EE
:1009C00008EDFE60600100010200010631FF0974BC
:1009D000A1010975150026FF0095207508810209FF
:1009E00076150026FF00952075089102C0050109C3
:1009F00002A10185020901A10005091901290815B3
:100A0000002501950875018102050109300931159C
:100A100081257F95027508810609381581257F9506
:100A20000175088106050C0A38021581257F95019C
:100A300075088106C0C005010980A101850319015F
:100A40002AB700150126B700950175108100C00571
:100A50000C0901A101850419012AA002150126A093
:100A600002950175108100C005010906A1018506E6
:100A7000050719E029E71500250195087501810290
:100A80000507190029EF1500250195F07501810270
:100A90000508190129059505750191029501750350
:100AA0009101C005010906A101050719E029E71513
:100AB00000250195087501810295017508810105E0
:100AC00007190029FF150026FF009506750881000B
:100AD0000508190129059505750191029501750310
:100AE0009101C00011241FBECFEFDAE0DEBFCDBF01
:100AF00004B603FE18C08091DE029091DF02A0913F
:100B0000E002B091E1028730904BA740B04B59F41E
:100B10001092DE021092DF021092E0021092E102C7
:100B2000E0E0F8E3099511E0A0E0B1E0E0E4F4E5ED
:100B300002C005900D92A83EB107D9F722E0A8EEB9
:100B4000B1E001C01D92AE3DB207E1F70E94AA16C6
:100B50000C941E2A0C940000FF93EF93E091E8019F
:100B6000F091E901309709F00995EF91FF9108950F
:100B7000FC018591803011F0EFDFFBCF0895FF2756
:100B8000E0E230E247FF0CC0419597FF09C0EDE27B
:100B90006095709580959095611D711D811D911DC9
:100BA00027FF02C0219530E350E2AA27660F771F86
:100BB000881F991FAA1FA41710F0A41B63955A95AC
:100BC000A9F7AA3008F0A95FA05DAF93F39561156E
:100BD00071058105910541F7ED3211F4EF93F3951D
:100BE000F21718F43F93F395FBCF8F91B5DFFA9589
:100BF000E1F70895E991F9918591803021F08532EE
:100C000019F0AADFF9CF089520E0E8945591553204
:100C1000C1F3503311F4689455915A3348F450534A
:100C200090F3220F022E220F220F200D250FF4CF5A
:100C30000EF4219589919991533619F3533729F17F
:100C4000533559F1BC0188279927E8945C3621F483
:100C50008991999168945591543639F446EF7EF014
:100C600077FF0DC08FEF9FEF0AC055374AE039F08C
:100C7000583540E121F0523642E009F00895FF93E3
:100C8000EF937DDFEF91FF91B7CFFF93EF93FC01DF
:100C900081918030B9F360DFFBCFFF93EF9368DF82
:100CA000F1CFDF93CF93CDB7DEB72596A3DFCF91FA
:100CB000DF91089581E0089581E008950E945C0627
:100CC000089508950E9461060895A5E0B0E0EBE65E
:100CD000F6E00C94932949835A833091EB01898182
:100CE0009A81311114C0662359F0222349F00E94E1
:100CF000850D182F682F89819A810E946C0D03C081
:100D00000E94790D182F69817A81812F04C00E9479
:100D1000850D69817A810E945D142596E3E00C942B
:100D2000AF29FC01262F408151816281738184812A
:100D30000E946506089581E00895CF93DF93EC014A
:100D400060E00E949106BE010E946206DF91CF9191
:100D500008950E94D01508950E94CA150895089517
:100D60000E94B90B0E94AF062FEF84E39CE0215054
:100D700080409040E1F700C0000008950E94B00656
:100D80000E94962108950E94B0060E94BA210895FB
:100D90000F931F93CF93DF938C0161E00E94910624
:100DA000EC01B8010E945E06882309F45CC0B8011A
:100DB000CE010E94BF1E882309F455C0B801CE01A0
:100DC0000E94C419882309F44EC0B801CE010E94C4
:100DD000251E882309F447C0F80182818823F1F198
:100DE000CB358DE5D807A9F170F4C130FCE5DF07FC
:100DF00099F0CF3D8CE5D80721F1C115DC4571F59F
:100E00000E94BE0630C0CD35FDE5DF07F9F020F1C8
:100E1000C83ADD45C1F022C080917E02C82FC0953E
:100E2000C170C0FB80F980937E02CC2329F080E85A
:100E300091E00E94B80517C08EE691E00E94B805C7
:100E400013C00E949B120E94C3060DC00E94D211C3
:100E500005C00E94DC1102C00E94E011C8010E947E
:100E60005A06C82F01C0C0E08C2FDF91CF911F918F
:100E70000F9108950E94C5200E94690708950E945D
:100E80006D070E94CE2008958295982F937344E0B9
:100E9000949F900111248C7C86958695282B822F17
:100EA0008575880F2A7A2695822B089508950E94C9
:100EB0005607089581E008950E945A0708950895FD
:100EC000CF93C82F0E9457078C2F0E945C07CF91A9
:100ED000089580E00E94600708950E941B1F0E94F1
:100EE00060070895CF930E941B1FC82F8091EA01CD
:100EF000C81739F1C093EA0180917E0282FF1EC0BB
:100F000080FF04C088E991E00E94B80580917E02CC
:100F100080FF0CC01F92CF9383E991E09F938F9342
:100F20000E9451060F900F900F900F9080917E02BB
:100F300080FF04C081E991E00E94B8058C2F0E94D7
:100F40006007CF910895ABE0B0E0E9EAF7E00C94D8
:100F500094294F83588769877A878B8761110E940C
:100F600006119E012F5F3F4F86E0F90111928A958D
:100F7000E9F785E0FE013796D90101900D928A9537
:100F8000E1F789819A814C815D81452B31F09F3F4A
:100F900031F491E08F3F19F403C091E001C090E07B
:100FA00090FF09C049815A816B817C818D819E812E
:100FB0000E94321005C0C9010E949B068111F2CF28
:100FC0002B96E2E00C94B029FC01808191810E9473
:100FD000BF0D0895CF93882309F4A8C0C82F823885
:100FE000C1F40E941B1F81FDA1C069E38091000133
:100FF000909101010E9469200E942A112FEF81EE39
:1010000094E0215080409040E1F700C0000069E387
:1010100019C0833801F50E941B1F80FD87C063E55E
:1010200080910001909101010E9469200E942A1183
:101030002FEF81EE94E0215080409040E1F700C016
:10104000000063E580910001909101010E947720EA
:101050000E942A116BC08438C1F40E941B1F82FDBC
:1010600065C067E480910001909101010E946920B0
:101070000E942A112FEF81EE94E021508040904091
:10108000E1F700C0000067E4DDCF8CEF8C0F813A00
:10109000F8F48C2F0E94CE1D811148C06C2F8091D6
:1010A0000001909101010E94C71F882349F06C2F15
:1010B00080910001909101010E9477200E942A11E5
:1010C0006C2F80910001909101010E946920C0CF96
:1010D00080E28C0F883048F4C77081E001C0880F2F
:1010E000CA95EAF70E94E910B3CFEBE5EC0FE330C5
:1010F00040F4F0E0EB5BFE4F808190E00E94851FA2
:1011000015C0E8E5EC0FE73150F4F0E0EE0FFF1FFB
:10111000E95EFE4F808191810E949B1F07C0CD3EFA
:1011200028F08C2F0E942F170E940118CF9108954C
:10113000882309F467C0823879F40E941B1F81FF5D
:1011400061C069E380910001909101010E946920D2
:101150000E942A1169E310C08338B9F40E941B1F52
:1011600080FF50C063E580910001909101010E94D1
:1011700069200E942A1163E580910001909101018C
:101180000E9477200E942A110895843879F40E94E1
:101190001B1F82FF37C067E480910001909101011D
:1011A0000E9469200E942A1167E4E6CF9CEF980F05
:1011B000913A10F4682FE0CF90E2980F983050F4F5
:1011C000877091E001C0990F8A95EAF7892F0E94F4
:1011D000EF10D8CF9BE5980F933028F480E090E093
:1011E0000E94851F089598E5980F973128F480E0B4
:1011F00090E00E949B1F08958D3E20F00E948A1768
:101200000E94011808951F93CF93DF93182FEB01CD
:101210000E94EA07209741F08FE99FE00197F1F7DC
:1012200000C000002197F6CF812F0E949808DF911F
:10123000CF911F910895893319F060E070E002C0EA
:1012400060E570E00E9403090895882321F00E9460
:10125000E9100E942A110895882321F00E94EF10BE
:101260000E942A110895A0E0B0E0E9E3F9E00C94AF
:101270008E297C01D62FC72FFC0112810581029592
:101280000F700E94DF108823B9F01123A9F08C2F72
:10129000807F803421F080E28D0F883068F080916B
:1012A000CA0282FF09C082E00E948C110E94DF10F6
:1012B00091E0D82ED92601C0D12CCC2EC2948FE03B
:1012C000C8228C2D90E08C30910508F0CFC1FC0134
:1012D000EA5AFF4F0C947E298C2F807FCF70882391
:1012E00011F0C295C07F112399F0CC2309F4AAC153
:1012F00080E28D0F883010F0D11104C08C2F0E9435
:10130000E91003C08C2F0E94F9100E942A119AC183
:101310008D2F0E949808CC2309F4A8C180E28D0F7C
:10132000883038F1DD2329F18C2F0E94FF1024C072
:101330008C2F807FCF70803211F0C295C07FDD236B
:1013400019F0D130A1F13DC08091CA0282FD17C0D1
:10135000112349F0CC2329F08C2F0E94E9100E9420
:101360002A1180E070C180E00E949808CC2309F423
:101370007DC18C2F0E94EF100E942A1177C111238A
:1013800071F0002341F0013031F40E9409118C2BDF
:101390000E9413116BC10E9409118C2B1DC00023E8
:1013A00019F0013009F462C10E94201125C01123F7
:1013B00021F0063008F05AC10EC0053008F056C1C1
:1013C0001BC0112361F0002331F0F701858180FFFC
:1013D00039C18F7085838C2F0E94250947C1002356
:1013E00059F0D93309F03FC1FFEF07EE13E0F15098
:1013F00000401040E1F735C18C2F0E942C0936C106
:101400008C2F86958695837019F0813061F02EC1FE
:10141000112321F08D2F9C2F937002C080E090E06B
:101420000E94851F2BC1112321F08D2F9C2F9370BB
:1014300002C080E090E00E949B1F20C18D2F1123ED
:1014400019F00E942F1702C00E948A170E940118EB
:1014500015C18C2F837009F047C011110BC12D2FBE
:10146000229526952770220F220F6D2F6F70862FE1
:1014700090E0A0E0B0E0022E04C0880F991FAA1FE0
:10148000BB1F0A94D2F7D4FF10C04FE050E060E0D9
:1014900070E004C0440F551F661F771F2A95D2F7CE
:1014A000409550956095709503C040E050E0BA01BA
:1014B000C695C695C3708A019B01082B192B2A2B50
:1014C0003B2BC901B801C23049F058F4C13019F0C2
:1014D0000E94200CCFC00E940D0CCCC00E94330C87
:1014E000C9C00E940A0CC6C0112319F08C2F81704C
:1014F00001C08695882309F4BDC02D2F229526951D
:101500002770220F220F6D2F6F70862F90E0A0E0C2
:10151000B0E0022E04C0880F991FAA1FBB1F0A94B7
:10152000D2F7D4FF10C04FE050E060E070E004C09C
:10153000440F551F661F771F2A95D2F74095509587
:101540006095709503C040E050E0BA01C695C6951D
:10155000C3708A019B01082B192B2A2B3B2BC90135
:10156000B801C23049F058F4C13019F00E94EF0CB4
:1015700081C00E94DC0C7EC00E94020D7BC00E94D4
:10158000490C78C0CF70112339F08C2F0E94720C57
:101590008D2F0E9425096EC08D2F0E942C098C2F43
:1015A0000E94940C67C0D23F21F128F4D03F41F053
:1015B000D13FC1F043C0D33F19F1D43F79F03EC0D1
:1015C000112341F0053008F051C08C2F8F710E941B
:1015D000BA0C4CC0063008F049C0F7CF8091CA025F
:1015E00082FD18C0112339F08C2F8F710E94720C6C
:1015F0003DC01123C9F38C2F8F710E94940C36C00B
:10160000112329F08C2F8F710E945C0C2FC00E9437
:10161000560C2CC0112349F0CF718C2F0E94720CF4
:1016200063E08C2F0E946E1121C081E00E948C111A
:101630000230E0F082E00E948C1118C0112331F0DA
:10164000002391F28D2F0E94EA0710C0002399F227
:10165000D93349F41FEF27EE33E0115020403040DA
:10166000E1F700C000008D2F0E94980888EF8C0DD4
:10167000843020F40E941B1F0E946007DD2089F047
:101680000E94DB1080FD0DC0F70112820E94D51070
:101690000E94720CC7010E946E0B0E94D5100E941E
:1016A000940CCDB7DEB7E8E00C94AA290F931F93F2
:1016B000CF93DF93EC01688179818A810E94CA0D02
:1016C0008C010E94150D0E94F50BB801CE010E94FD
:1016D0003309DF91CF911F910F910895CF93DF933D
:1016E000EC01988189812B813C81232B31F08F3F44
:1016F00031F481E09F3F19F403C081E001C080E034
:1017000080FD1AC0CE010E94C80681110FC00E9440
:10171000DF10882389F08A81882371F08091CA02C2
:1017200082FF0AC082E00E948C1106C0CE010E9496
:10173000560BCE010E949D06DF91CF91089580E067
:1017400090E00E94851F80E090E00E949B1F0E9415
:1017500006110E942A110E94A2180E9401180895E1
:1017600080910001909101010E9485200E949F0BB1
:1017700008950E94F6100E94B00B089592959F70F4
:10178000963079F010F4925001C09A50923068F47B
:10179000803F69F018F4883E40F409C0843F29F482
:1017A00006C0883E20F0813F11F080E0089581E07E
:1017B0000895FC01808191810E94BF0D0E94BE0BA3
:1017C0000895A5E0B0E0E7EEFBE00C94942925969F
:1017D000E2E00C94B029A6E0B0E0E1EFFBE00C946D
:1017E00094292696E2E00C94B029089508950E9469
:1017F000F60B08950E94F70B08950E94FA0B609370
:10180000F5017093F6018093F7019093F8010E941F
:101810009F0B08950E94FD0B08950F931F93009155
:10182000F5011091F6012091F7013091F801602B3C
:10183000712B822B932B0E94FD0B1F910F9108950A
:101840000F931F930091F5011091F6012091F7017C
:101850003091F80160237123822393230E94FD0BB2
:101860001F910F9108950F931F930091F50110910F
:10187000F6012091F7013091F80160277127822746
:1018800093270E94FD0B1F910F9108950E94F60B64
:1018900008950E94460C6093F1017093F2018093C9
:1018A000F3019093F4010E949F0B089560E070E0B3
:1018B000CB010E94490C08950F931F9341E050E023
:1018C00060E070E08A019B0104C0000F111F221F1D
:1018D000331F8A95D2F7C901B8010E94490C1F91A4
:1018E0000F9108950F931F9341E050E060E070E086
:1018F00004C0440F551F661F771F8A95D2F7809149
:10190000F1019091F201A091F301B091F4018A01EB
:101910009B01082B192B2A2B3B2BC901B8010E94D4
:10192000490C1F910F9108950F931F9341E050E0D0
:1019300060E070E004C0440F551F661F771F8A9552
:10194000D2F740955095609570958091F1019091F6
:10195000F201A091F301B091F4018A019B010823E7
:1019600019232A233B23C901B8010E94490C1F9166
:101970000F9108950F931F9341E050E060E070E0F5
:1019800004C0440F551F661F771F8A95D2F78091B8
:10199000F1019091F201A091F301B091F4018A015B
:1019A0009B01082719272A273B27C901B8010E9454
:1019B000490C1F910F9108950F931F930091F1010E
:1019C0001091F2012091F3013091F401602B712B01
:1019D000822B932B0E94490C1F910F9108950F9316
:1019E0001F930091F1011091F2012091F3013091C8
:1019F000F40160237123822393230E94490C1F91D9
:101A00000F9108950F931F930091F1011091F2012E
:101A10002091F3013091F4016027712782279327E9
:101A20000E94490C1F910F9108950895962F977069
:101A3000A1E001C0AA0F9A95EAF793E07695679521
:101A40009A95E1F795E0969F9001979F300D1124AC
:101A5000FA01E20FF31F40E050E0682F70E0908140
:101A60009B01042E02C0369527950A94E2F7217057
:101A7000219529272A23292721934F5F5F4F45303E
:101A8000510569F70895FB01782F777023E096954B
:101A900087952A95E1F745E0489F9001499F300DD1
:101AA0001124E20FF31F40E050E080E0219130E08C
:101AB000072E02C0369527950A94E2F72170332746
:101AC000042E01C0220F0A94EAF7822B4F5F5F4F6A
:101AD0004530510559F70895282F911109C08330D9
:101AE00038F4862F622F70E04CEE51E00E94160D04
:101AF0000895911108C0833030F46CEE71E090E0ED
:101B00000E94430D089580E00895A0E0B0E0EBE866
:101B1000FDE00C948D298C01C090F101D090F20170
:101B2000E090F301F090F4018091F5019091F601BD
:101B3000A091F701B091F801C82AD92AEA2AFB2A14
:101B4000CFE1D0E0D701C6010C2E04C0B695A79511
:101B5000979587950A94D2F780FD04C0219790F756
:101B6000B12C07C0BC2EB8018C2F0E9473140197B2
:101B7000A9F38B2DCDB7DEB7E9E00C94A929CF935B
:101B8000DF93EC010E94850DBE010E947314DF916A
:101B9000CF9108951F93CF93DF93EB019091EB01C9
:101BA000992321F0CB010E94BF0D13C0882349F077
:101BB000CB010E94850D182F682FCE010E946C0D5D
:101BC00004C0CB010E94790D182FBE01812F0E9405
:101BD0007314DF91CF911F9108951F93CF93DF93DB
:101BE000C091F90116E08091FA01C81799F0D0E090
:101BF0001C9FF0011D9FF00D1124E550FE4F408108
:101C0000518162817381848195810E94EB0B2196C1
:101C1000C770E9CFDF91CF911F91089540912B02BA
:101C200050912C0260912D0270912E0280912F0212
:101C3000909130020E94EB0B08950F931F93CF9366
:101C4000DF938091300282958F7009F05AC08091A5
:101C50002D02882309F455C08091F9011091FA01F1
:101C600060912B0270912C02C0912E02D0912F0214
:101C700091E06F3F09F090E0292F06E0811709F409
:101C800040C0209721F07F3F21F030E003C031E0D9
:101C900001C0322F90E030FD31C0089FF001099F54
:101CA000F00D1124DF01A550BE4F11963C91119704
:101CB000371324C03C91361321C012963C911297E1
:101CC00031111CC013964D915C9114974C1B5D0B08
:101CD000483C510598F4809130028F708061809368
:101CE0003002E050FE4F80818F70806180838BE2F4
:101CF00092E00E946E0B0E94ED0D03C0019687706A
:101D0000BDCFDF91CF911F910F910895A1E1B0E078
:101D1000ECE8FEE00C948B298C0185E0F801DE01F3
:101D20001D9601900D928A95E1F7F801E28090915D
:101D30002B0260912C0220912E0230912F0221154E
:101D4000310531F06F3F31F481E09F3F19F403C05A
:101D500081E001C080E0F82FF1709F2E80FD40C12E
:101D6000F80140815181A380B4808BE2C82E82E0CB
:101D7000D82EF0902D02F501E21BF30BFF2009F4A1
:101D8000DAC080913002E83CF10508F096C0282FB7
:101D9000207F09F053C0561313C0491311C0FE2C05
:101DA000E1100EC08F708061809330020E940E0E91
:101DB000C6010E946E0B80913002F80185834DC1EF
:101DC000A114B10431F05F3F31F481E04F3F19F4C9
:101DD00003C081E001C080E080FD03C081E08E256A
:101DE00002C080E090E0F82FF170FF2E80FF1CC051
:101DF0008091F9012091FA0136E0821709F40BC1B4
:101E000090E0389FF001399FF00D1124E550FE4F0E
:101E10006181561306C06081461303C06281E612D9
:101E200003C001968770E9CFFE2CEE2009F415C19E
:101E30008091300281608093300254C0561306C0F6
:101E4000491304C0E11002C0F80199C0C8010E9402
:101E5000D90B882361F1EE2051F120913002822FBD
:101E600082958F7090E0029774F080912B02909190
:101E70002C0298878F831986BB86AA862C87CE0171
:101E800007960E946E0B86E0F801ABE2B2E001908B
:101E90000D928A95E1F70E941D0E0E940E0E0AC057
:101EA000561711F1C8010E94D90B81112CC0C8012D
:101EB0000E946E0BFF24F394D0C0282F207F81F75F
:101EC0007A2DB98AA88A6E2D89890E94E10B8BE24E
:101ED00092E00E946E0B86E0F60111928A95E9F776
:101EE0000E940E0EF12CB9C04913DCCFE110DACFFD
:101EF000F8018583C8010E946E0B86E0F6011192FD
:101F00008A95E9F7AAC0EE2091F220913002822F43
:101F100082958F7090E002970CF4B5CF80912B02E0
:101F200090912C029A8389831B82BD82AC822E837E
:101F3000CE010196A6CFE83CF10508F044C0FE2C86
:101F4000EE2009F4B4CF561330C049132EC02091AF
:101F5000300220FD21C0822F82958F70482F50E0E3
:101F600041155105C9F0F80125834F30510541F065
:101F70008F5F982F9295907F822F8F70892B85830A
:101F8000C8010E946E0B86E0F801ABE2B2E001905E
:101F90000D928A95E1F73CC086E0F801ABE2B2E031
:101FA00001900D928A95E1F758C0C8010E94D90BA3
:101FB000811169CF80913002816080933002C80125
:101FC0000E946E0B4AC07A2DB98AA88A6E2D898923
:101FD0000E94E10B86E0F60111928A95E9F718C09C
:101FE000EE2009F464CFC8010E94D90BF82E882393
:101FF00009F45DCF86E0F801ABE2B2E001900D920A
:102000008A95E1F78BE292E00E94E4070E941D0EA0
:102010000E940E0E22C04D875E878D859E850E9490
:10202000BF0D292F22952F70223028F49F7039F090
:10203000811105C00BC0243028F49F7049F4805EE4
:10204000883020F0C8010E946E0B9F2CF92C05C02F
:10205000F8019581907F99F7F9CF8F2D6196EBE08C
:102060000C94A729ACE0B0E0E8E3F0E10C949329EC
:102070004F83588769877A878B879C87CE0107961D
:102080000E94860E8823D1F09F8188852A853B8512
:10209000232B31F08F3F31F481E09F3F19F403C0CF
:1020A00081E001C080E080FD47C04F81588569858F
:1020B0007A858B859C850E94EB0B3EC086E0FE01F5
:1020C0003796DE01119601900D928A95E1F7FF8116
:1020D000E8856A857B856115710531F0EF3F31F444
:1020E00081E0FF3F19F403C081E001C080E080FD82
:1020F00023C02091FA0130E0C90101968770992729
:102100004091F90150E084179507F1F1F983EA83D2
:102110007D836C8396E0929FD001939FB00D112434
:10212000A550BE4FFE01319601900D929A95E1F7B0
:102130008093FA010E94ED0D16E08091F9019091D3
:10214000FA01891771F1189FC001112485509E4F23
:102150000E94860E882329F1E091F9011E9FF0016B
:102160001124E550FE4F4081518162817381848149
:1021700095810E94EB0B8091F90190E001968770A8
:1021800099278093F901D9CF0E94B90B1092FA01D7
:102190001092F901EBE2F2E086E0DF011D928A95F0
:1021A000E9F72C96E3E00C94AF29809151028595D4
:1021B0008595859508958091510287700895909135
:1021C0005102977081E009F480E0089580917402D3
:1021D000089590917402892B8093740208958095DC
:1021E000909174028923809374020895109274026E
:1021F000089590917302892B8093730208958095BE
:102200009091730289238093730208951092730250
:10221000089580915202089508950E940C11089526
:102220000E940D1108959091CA0292FF08C09091EA
:102230005202981721F0809352020E9410110895C3
:1022400080915202882329F01092520280E00E946D
:1022500010110895CF93DF93E0910001F0910101F7
:10226000809174028083E0910001F09101019081DE
:1022700080917302892B808380915202882381F0A0
:10228000E0910001F09101019081892B8083809180
:102290000001909101010E94B11F81110E94201143
:1022A000C0910001D091010140E250E061E372E091
:1022B000CE010E94CF29892B59F080E2FE01A1E3D3
:1022C000B2E001900D928A95E1F7CE010E94281F9D
:1022D000DF91CF9108950E940C1108959091CA0248
:1022E00092FF11C098E0899F90011124262B209322
:1022F00051020E94720C80915102859585958595B9
:102300000E946B1108950E94720C08951092510260
:1023100080E00E946B1108952091510280958223E4
:1023200080935102982F977099F430E0482F082E2F
:10233000000C550B2417350759F09091CA0292FFF3
:1023400007C08595859585950E94940C0E948611FD
:102350000895CF939091CA0292FB222720F9281763
:10236000F9F0C82F892FC0FB82F98093CA028091AF
:10237000C9029091CA020E94111282E00E948C113F
:1023800080917E0280FF0CC01F92CF9383EA91E080
:102390009F938F930E9451060F900F900F900F9074
:1023A000CF9108958091CA0282FB882780F991E03D
:1023B00089270E94A911089581E00E94A91108951A
:1023C00080E00E94A91108956FEF7FEF80E090E018
:1023D0000E94082A089580E090E00E94E42921E00C
:1023E000883E9E4F09F020E0822F089582E090E021
:1023F0000E94DC29089583E090E00E94DC29089582
:10240000CF9384E090E00E94DC29C82F82E290E024
:102410000E94DC292C2F30E0A901582BCA01CF9152
:102420000895CF93C92F682F84E090E00E94EA2995
:102430006C2F82E290E00E94EA29CF910895AB01CF
:10244000BC018FE090E00E94FC290895AB01BC0123
:1024500083E190E00E94FC29089560E070E0CB01E8
:102460000E942612089560E070E0CB010E941F12C6
:102470000E942D12089568EE7EEF80E090E00E94A9
:10248000082A60E082E090E00E94EA2960E083E0B0
:1024900090E00E94EA291092F5011092F601109244
:1024A000F7011092F80160E084E090E00E94EA29D0
:1024B00064E082E290E00E94EA2960E085E090E03A
:1024C0000E94EA2960E086E090E00E94EA296FEF2E
:1024D00087E090E00E94EA2940E050E0BA0188E0FD
:1024E00090E00E94FC2960E08DE090E00E94EA29E3
:1024F00040E050E0BA0188E190E00E94FC2960E0F1
:1025000087E190E00E94EA2940E050E0BA018CE1C6
:1025100090E00E94FC2960E070E080E290E00E9480
:10252000082A40E050E0BA0188E190E00E94FC29CE
:102530000E94331208950E943B120895682F8EE086
:1025400090E00E94EA2908950E94552160937A0242
:1025500070937B0280937C0290937D02609376025D
:10256000709377028093780290937902089581E0C6
:1025700008950E94B712089508950E94BC1208950C
:102580000E94BC1208950E94C01208950E94BC12BD
:1025900008950E94C61208950E94BC12089584EB0B
:1025A00093E20E94111F0E94CC120E94C91208954A
:1025B0000E94BD120E94BC1208950E9469150E94DB
:1025C0005F0708950E9440210E9435160E94DD1287
:1025D0000E94C3120895AAE0B0E0E1EFF2E10C948A
:1025E0008F290E944116D82E81110E94A41280E0EA
:1025F0000E948E15F82EE0907502E82689F48FEF80
:1026000089838A831B820E9449218160782F9D8360
:102610008C8349815A816B818D810E94A3072CC0D4
:1026200080917E0281FD0E94941500E011E08E2DC4
:102630008123E9F00E94B912882399F00E831F824A
:10264000F12281E009F480E088870E9449218160BD
:10265000782F9A8789874E815F8168858A850E9455
:10266000A3078091750218271093750205C00F5FAC
:10267000110F0330E1F6C3CF81E0D11001C080E03B
:102680002A96E7E00C94AB290E94EB120E94C41832
:102690000E9472070895CF93DF930E947814EC0193
:1026A000811521E5920708F045C0811530E59307B3
:1026B00008F094C0883E910528F5803E910508F009
:1026C000F8C0883A910570F4853A910508F07CC00D
:1026D0008130910509F475C008F4E8C0049708F04A
:1026E000E8C0E4C08F3B910508F0E0C0C85AD0E0D4
:1026F000CC0FDD1FC85BDE4F0990D881C02DCE0105
:102700009464D8C0811540E2940758F4811551E0D3
:10271000950708F0CEC08D3E910508F4C7C09065BE
:10272000C9C0C11580E4D80708F4C0C0DF70CE016D
:10273000906AC0C0811525E59207A8F4811534E59B
:10274000930708F095C0811543E5940708F07BC016
:10275000811552E5950708F061C0D82FCC27CE012E
:10276000816F906AA7C0C11589E5D807A0F4C1158B
:1027700028E5D20708F082C0C11536E5D30708F076
:1027800095C08C2F0E940C158F7190E0D82FCC270C
:10279000CE0190628FC0C1154AE5D40708F474C019
:1027A000CE0190568115904208F080C08D2F8F7118
:1027B0000E940C15DD27D0628F71AE01582BCA0123
:1027C00079C081E090E076C0C55AD0E0CA58DE4FAB
:1027D0008881C82FD0E0CE0190646CC074E09695DB
:1027E00087957A95E1F7282F23703C2F337081E08D
:1027F00090E002C0880F991F3A95E2F79C68AC01FF
:10280000522B9A019C2F9F709695969550E2959F1A
:10281000E0011124C9018C2B9D2B4CC0837099279A
:1028200021E030E002C0220F331F8A95E2F79C2F8F
:102830009695969580E2989FE0011124C22BD32BA8
:10284000CE019C6837C08370992721E030E002C038
:10285000220F331F8A95E2F79C2F9695969540E2BA
:10286000949FE0011124C22BD32BCE019A6822C081
:10287000D82FCC27CE01846F906A1CC0DC2FCC27C8
:10288000CE01806F906A16C08C2F8F700E940C153D
:1028900094E0D695C7959A95E1F7CF70D0E0DC2FFC
:1028A000CC27D0699E01282BC90104C080E090E0AC
:1028B00001C0CE01DF91CF910895711111C0633035
:1028C00078F490E0FC01EE0FFF1FE80FF91FE60F10
:1028D000F11DEE0FFF1FEA5AFE4F85919491089566
:1028E00080E090E008950E945D140E944B130895CB
:1028F0008238910569F1B0F48133910509F46DC016
:1029000048F48932910509F463C08A32910509F4CB
:1029100069C008958533910509F455C0893391053F
:10292000B9F00895833E910569F138F4803E910530
:10293000B1F0823E910509F10895863E9105A9F115
:10294000873E9105B9F1843E910509F064C023C02A
:102950002091C90220FD4FC021FD4DC008958091F6
:10296000C90280FD44C08091CA0280FF44C08091AA
:10297000C90284FD42C083EE4DC08091C90282FF2E
:1029800038C0F5CF8091C90282FD33C08091CA0260
:1029900080FD31C0ECCF8091CA0281FF32C08091AE
:1029A000C90284FD2AC087EE35C08091C90283FF29
:1029B00026C0F5CF8091C90283FD21C08091CA0253
:1029C00081FD1FC0ECCF8091C90285FD1CC01DC0D8
:1029D0008091C90285FD19C016C08091C90286FD8B
:1029E00016C017C08091C90286FD13C010C089E3CC
:1029F00011C082EE0FC080EE0DC080E00BC086EEED
:102A000009C084EE07C089E205C085E303C08AE2FD
:102A100001C081E390E008959091C90292FF0DC03A
:102A2000282F2871283019F4877F846006C0282F4A
:102A30002471243011F48B7F886093FF0DC0282F00
:102A40002871283119F4877E846106C0282F2471EB
:102A5000243111F48B7E88612091CA0220FF0DC0C1
:102A6000382F3871383019F4877F816006C0382FCD
:102A70003171313011F48E7F886021FF0DC0282F15
:102A80002871283119F4877E816106C0282F2171B1
:102A9000213111F48E7E886194FD877E08950E9415
:102AA000E41108950E9441168FE39CE90197F1F724
:102AB00000C000000E94411680E00E948E1580FF39
:102AC00004C00E944F150E94962108950E9452153D
:102AD00008950E94EB11811102C00E949B120E9476
:102AE000F61180937E020E9400129093CA02809396
:102AF000C9020E9466150E94FB11682F70E080E0F9
:102B000090E00E940A0C6091F1017091F2018091B5
:102B1000F3019091F4010E94460C0895E82FF0E033
:102B2000E453FD4F8081089587EC91E00E94B80541
:102B30001F921F9282EC91E09F938F930E94510607
:102B40008FEB91E00E94B8058091CC020E9444076F
:102B50001F928F938AEB91E09F938F930E9451066F
:102B600088EB91E00E94B8058DB79EB708960FB626
:102B7000F8949EBF0FBE8DBF089580EA8A95F1F745
:102B8000089500C008950E94BD15089508950E94FB
:102B9000C61508950E94C71508950E94C615089588
:102BA0000E94CD150895F894E82FE295EF70F0E0BB
:102BB00031A1282F2F7081E090E001C0880F2A9565
:102BC000EAF7982F9095932391A392A1892B82A342
:102BD0007894089582E90E94D31586E30E94D31564
:102BE00085E30E94D31584E30E94D31508950F93C3
:102BF0001F93CF93DF938C01D62FF894529A5A9853
:102C000078940E94C115E9E7F1E031E0C0E021913C
:102C10002F3F89F0A22FA295AF70B0E090968C91D3
:102C200090E02F7002C0959587952A95E2F780FD78
:102C300002C0832F01C080E0C82B330F81E0EC3746
:102C4000F80729F782E90E94D31561E0C11101C09C
:102C500060E08D2F0E94C315F801ED0FF11DC083B8
:102C6000DF91CF911F910F9108950E94EA15109264
:102C7000CC021092CB0281E00E9466160E94A90647
:102C80000895A1E0B0E0E7E4F6E10C9493291982FD
:102C900060E0CE0101960E94F7159091CB028981E8
:102CA00011E0981301C010E098138093CB02212FFC
:102CB00041E06CEC72E08BEC92E00E9467160E949F
:102CC000AC06812F2196E3E00C94AF290895FF9282
:102CD0000F931F93CF93DF938C01F62ED72FC42F22
:102CE000222349F081E0809381020E944921909340
:102CF000800280937F02809181028823C1F08091BD
:102D00007F02909180020E946121059780F0EF2D53
:102D1000FD2FD8014C2F50E0CD01801B910B841763
:102D200095071CF48D918193F7CF10928102CDB756
:102D3000DEB7E5E00C94AD290E9431240E94E21236
:102D40000E943E2408950E9443240E9444130E943E
:102D5000612408950E94E0200E9417240E94CF124F
:102D60000E949C160E94A3160E94D812FBCF80914D
:102D7000880280FF06C06091070170E0660F771F30
:102D800026C081FF04C06091070184E005C082FF76
:102D900007C06091070188E0689FB001112417C047
:102DA000909187029923D1F060910601961788F7D8
:102DB0002091070188E0289F90011124929FA00193
:102DC000939F500D112470E0CA010E946A29603857
:102DD000710540F46115710519F406C068E070E0F2
:102DE000862F08958FE7089581E0089580918802E5
:102DF00080FF08C06091030170E075956795759537
:102E0000679521C081FF06C06091030170E0759550
:102E1000679519C082FF04C06091030170E010C083
:102E200090918602992399F0609102019617A0F77C
:102E300080910301899FC001112470E00E946A29DA
:102E40006038710540F46115710519F406C061E040
:102E500070E0862F08958FE7089581E008958D3EF4
:102E600021F40E94B716819504C08E3E29F40E9479
:102E7000B71680938C0208958F3E21F40E94B716F6
:102E8000819504C0803F29F40E94B71680938B027D
:102E90000895893F19F40E94F61605C08A3F31F45F
:102EA0000E94F616819580938D0208958B3F21F440
:102EB0000E94F616819504C08C3F29F40E94F616F4
:102EC00080938E0208959FE0980F983078F421E067
:102ED00030E0A90102C0440F551F9A95E2F7CA01DC
:102EE00090918A02892B80938A0208958D3F21F464
:102EF0008091880281600BC08E3F21F4809188020E
:102F0000826005C08F3F29F480918802846080939D
:102F1000880208958D3E39F490918C0297FF35C058
:102F200010928C0259C08E3E29F490918C02191691
:102F3000BCF32BC090918B028F3E29F497FF25C0E4
:102F400010928B0249C0803F19F41916CCF31DC0B2
:102F500090918D02893F29F41916BCF410928D02CC
:102F60003BC08A3F19F497FF10C0F8CF8B3F39F46C
:102F700090918E0297FF09C010928E022DC08C3F57
:102F800021F490918E021916BCF39FE0980F9830AF
:102F900080F421E030E0A90102C0440F551F9A954A
:102FA000E2F7CA01809590918A02892380938A0270
:102FB00013C08D3F21F4809188028E7F0BC08E3F1D
:102FC00021F4809188028D7F05C08F3F29F4809184
:102FD00088028B7F8093880280918B02811106C0CA
:102FE00080918C02811102C01092870280918D0223
:102FF000811106C080918E02811102C0109286025A
:10300000089580917E0283FF7EC08DEF91E00E9443
:10301000B80580918A021F928F9388EF91E09F9369
:103020008F930E94510686EF91E00E94B80580912F
:103030008B02282F082E000C330B3F938F9383EFC6
:1030400091E09F938F930E94510681EF91E00E943F
:10305000B80580918C02282F082E000C330B3F936B
:103060008F938EEE91E09F938F930E9451068CEE8A
:1030700091E00E94B80580918D02282F082E000C47
:10308000330B3F938F9389EE91E09F938F930E9430
:10309000510687EE91E00E94B80580918E02282F9C
:1030A000082E000C330B3F938F9384EE91E09F9397
:1030B0008F930E94510681EE91E00E94B8058091A5
:1030C00087021F928F938EED91E09F938F930E94C2
:1030D00051068CED91E00E94B805809188021F9204
:1030E0008F9389ED91E09F938F930E94510686ED17
:1030F00091E00E94B8058DB79EB74C960FB6F89434
:103100009EBF0FBE8DBF0E94492120918B022111CD
:1031100004C020918C02222321F090938502809399
:10312000840220918D02211104C020918E0222235D
:1031300021F0909383028093820289E892E00E94BA
:10314000771F0895E9E8F2E086E0DF011D928A9595
:10315000E9F7109287021092860210928802089571
:10316000FC01828181110DC0838181110AC084819B
:10317000811107C091E08581811101C090E0892F04
:1031800001C081E081700895A6E0B0E0EAECF8E1CA
:103190000C94932986E0E9E8F2E0DE0111960190B3
:1031A0000D928A95E1F710928B0210928C02109288
:1031B0008D0210928E028B81811104C08C81882334
:1031C00009F45FC080918402909185020E94612180
:1031D000AC0190918702992339F02091080130E0E9
:1031E0002417350758F04DC0209109018AE0289F27
:1031F000900111242417350718F043C09F3F19F0A0
:103200009F5F909387021B81112361F00E94B71684
:10321000111614F09FEF01C091E0989F902D11249A
:1032200090938B021C81112361F00E94B716111636
:1032300014F09FEF01C091E0989F902D112490937E
:103240008C0230918B023323E1F020918C022223F7
:10325000C1F045EB3403C0011124992319F0909378
:103260008B0203C081E080938B0235EB2303C00106
:103270001124992319F090938C0203C081E080936C
:103280008C028D81811104C08E81882309F45FC076
:1032900080918202909183020E946121AC01909101
:1032A0008602992339F02091040130E02417350774
:1032B00058F04DC0209105018AE0289F900111240B
:1032C0002417350718F043C09F3F19F09F5F909374
:1032D00086021D81112361F00E94F616111614F06A
:1032E0009FEF01C091E0989F902D112490938D0243
:1032F0001E81112361F00E94F616111614F09FEF43
:1033000001C091E0989F902D112490938E023091EE
:103310008D023323E1F020918E022223C1F045EB90
:103320003403C0011124992319F090938D0203C036
:1033300081E080938D0235EB2303C0011124992392
:1033400019F090938E0203C081E080938E02BE013B
:103350006F5F7F4F89E892E00E949720811105C03E
:1033600089E892E00E94B01881110E94011886E05D
:10337000FE013196A9E8B2E001900D928A95E1F73D
:103380002696E3E00C94AF29CF93DF93EC01FB0189
:103390008281882309F43CC1C430FDE5DF0760F475
:1033A000CB3F9CE5D90788F49E0122503C4524314F
:1033B000310508F02EC109C0C236EDE5DE0729F05F
:1033C000C63AFDE5DF0709F024C10E940012909380
:1033D000CA028093C902C1318CE5D80709F4C6C07E
:1033E00008F042C0C930ECE5DE0709F49BC000F5E7
:1033F000C5308CE5D80709F485C078F4C330ECE516
:10340000DE0709F478C008F07AC0C230DC4509F064
:10341000F5C08091C9028160EFC0C7309CE5D90733
:1034200009F478C008F07AC08091C9028061E4C0D4
:10343000CD30FCE5DF0709F487C058F4CB309CE5BC
:10344000D90709F479C008F07BC08091C90288606F
:103450006FC0CF30FCE5DF0709F480C008F082C000
:103460008091C902877FC8C0CE3F9CE5D90709F487
:1034700071C000F5C531FCE5DF0709F485C068F4CB
:10348000C3319CE5D90709F475C008F095C00E94C6
:10349000B90B8091C9028F77AFC0CC3FFCE5DF0745
:1034A000A9F108F054C0CB3FDC4509F0A7C08091DA
:1034B000CA0240C0C230EDE5DE0709F489C058F405
:1034C000C1158DE5D80709F45AC008F069C080918C
:1034D000CA0282602FC0C236EDE5DE0709F47CC067
:1034E000C63AFDE5DF0709F481C0C330DD4509F0C8
:1034F00085C080E06EC08091C90282607DC08091ED
:10350000C90216C08091C902886076C08091CA0243
:1035100082604FC08091C90280626EC08091C902F2
:1035200080646AC00E94B90B8091C902806864C03F
:10353000846062C081603DC08091C9028E7F5CC0A2
:103540008091C9028D7F58C08091C90216C08091B8
:10355000CA0218C08091CA028D7F2BC08091C90217
:103560008F7E4AC08091C9028F7D46C08091C9027A
:103570008F7B42C08091C902877F8B7F3DC0809145
:10358000CA028D7F8E7F15C08091C90282FB2227DF
:1035900020F991E0922790FB82F990FB83F92CC0EF
:1035A0008091CA02982F909591708E7F892B90FB05
:1035B00081F98093CA0222C00E94B90B8091C9028E
:1035C00087FB222720F991E0922790FB87F914C00E
:1035D00081E00E949E1212C08091C90284FB2227C2
:1035E00020F991E0922790FB84F906C08091C902EE
:1035F000982F909590FB80F98093C9028091C90221
:103600009091CA020E9411120E94B90B80E001C081
:1036100081E0DF91CF910895809102011F928F93F5
:10362000809103011F928F93809106011F928F93C7
:10363000809107011F928F93809108011F928F93B1
:10364000809109011F928F9380E292E09F938F9364
:103650000E9451068DB79EB70E960FB6F8949EBF86
:103660000FBE8DBF0895883220F58E3108F068C0F6
:103670008B3091F1C0F4873009F0BEC081E08093B7
:10368000090184E1809308018AE0809307018EE1BB
:103690008093060188E08093030188E28093020111
:1036A00082E893E0C6C0833109F443C0843169F1F4
:1036B000A3C08F3409F49EC028F4893231F18833D5
:1036C00059F09AC0813531F008F4D4C0823509F43C
:1036D000A7C092C08FEFA5C084EA93E00E94B8050E
:1036E0000E940C1B1F9281E08F931F9288E08F93A2
:1036F0008DE992E09F938F930E9451060F900F9057
:103700000F900F900F900F9096C081EA93E00E9467
:10371000B80580919302882309F4AAC010929302FD
:1037200010929202109291021092900210928F02C7
:10373000B1C083E993E00E94B8050E940C1B7BC0D6
:103740008D5180939302833031F170F48130D1F048
:10375000823009F03FC088E091E09093920280931C
:10376000910289E891E01FC0853059F108F1863057
:1037700089F582E091E0909392028093910284EC2B
:1037800091E011C089E091E09093920280939102C0
:1037900080E891E008C087E091E0909392028093E6
:1037A000910285E991E09093900280938F0218C076
:1037B00086E091E0909392028093910282EA91E0F8
:1037C000F2CF83E091E0909392028093910281EB9B
:1037D00091E0E9CF1092930280E993E00E94B8054E
:1037E00080919302882309F455C01F928F938CE82F
:1037F00093E00DC08AE015C08FE793E01AC097FFF1
:1038000047C0108280811F928F9389E793E09F9336
:103810008F930E9451060F900F900F900F900BC046
:1038200081E0E0919102F0919202309729F586E7CC
:1038300093E00E94B80520919302222359F18091D0
:103840008F0290919002009711F48CE791E09F9382
:103850008F931F922F938DE693E09F938F930E94F7
:1038600051060F900F900F900F900F900F9016C071
:1038700080E0089586EFD5CF2081082E000C990BAB
:10388000820F911D8F3F910509F00CF4B8CF8FEF97
:103890008083B8CF89E693E00E94B80581E008955F
:1038A000CF93C82F1F928F938AEB93E09F938F93B0
:1038B0000E94510681E090E0A0E0B0E0BC01CD01A3
:1038C00004C0660F771F881F991FCA95D2F70E9400
:1038D0000A0C0E94B90B0F900F900F900F90CF9190
:1038E0000895A0E0B0E0E7E7FCE10C948F29482FB1
:1038F00050E0FA013597EF33F10508F03FC1EE597A
:10390000FF4F0C947E290E94FB111F928F9383E03E
:1039100098E09F938F930E9451060E94F61183FBBB
:10392000992790F91F929F9382FB992790F91F92F4
:103930009F9381FB992790F91F929F93982F9170E5
:103940001F929F931F928F938AEB97E09F938F9381
:103950000E9451060E94001287FB222720F91F9225
:103960002F9386FB222720F91F922F9385FB222776
:1039700020F91F922F9384FB222720F91F922F9367
:1039800083FB222720F91F922F9382FB222720F905
:103990001F922F9391FB222720F91F922F93292FFB
:1039A00021701F922F9381FB222720F91F922F93C2
:1039B000282F21701F922F939F938F9385ED96E070
:1039C0009F938F930E9451068DB79EB788960FB62E
:1039D000F8949EBF0FBE8DBF06C083EC98E00E9496
:1039E000B8050E949B12C1E0CEC083E295E074C08E
:1039F00080917E02817F8E7F80937E028CEF94E0A7
:103A00000E94B8058FEB98E00E94B80581E0809392
:103A10009402E9CF83EA98E00E94B8050E94BE06AE
:103A2000E2CF80917E02C82FC095C170C0FB80F9A3
:103A300080937E02CC2319F087E998E091C08AE850
:103A400098E00E94B80580917E02897F877F8093ED
:103A50007E02C9CF90917E0291FBCC27C0F981E014
:103A6000C827892FC0FB81F980937E02CC2319F0EF
:103A70008DE798E027C08FE698E02EC090917E02F7
:103A800092FBCC27C0F981E0C827892FC0FB82F9BF
:103A900080937E02CC2319F080E698E013C080E585
:103AA00098E01AC090917E0293FBCC27C0F981E088
:103AB000C827892FC0FB83F980937E02CC2351F065
:103AC00084E498E00E94B80580917E028160809332
:103AD0007E0259C087E398E00E94B80584CF83E452
:103AE00094E0FACF0E945521062FF72EE82ED92E0A
:103AF000C091C902C7FBCC27C0F91091C802D09170
:103B000016010E941B1FDF92EF92FF920F931F92EC
:103B1000CF931F921F931F92DF931F928F938FEB70
:103B200093E09F938F930E9451068DB79EB70E9698
:103B30000FB6F8949EBF0FBE8DBF55CF0E94B90B34
:103B40009091C90297FBCC27C0F981E0C827892F43
:103B5000C0FB87F98093C902CC2329F08DE298E05D
:103B60000E94B80510C082E298E0B6CF895303C026
:103B70008D5101C080E00E94501C35CF80E298E05A
:103B80000E94B805C0E08C2FCDB7DEB7E7E00C94FB
:103B9000AB2980E008950E94C91D0895CF93C82FD6
:103BA00080919402813071F040F0823009F045C07C
:103BB0008C2F0E94331B81E046C00E94E6108232A7
:103BC000F1F504C00E94E610823261F48C2F0E944D
:103BD000CB1D811104C08C2F0E94711C2CC081E070
:103BE00090E029C08C2F0E94C91D811123C0C431CF
:103BF000C9F058F4CB3069F0C031B9F482E0809359
:103C0000940288E30E94331B15C0C93259F0C833AF
:103C100061F48CEF94E00E94B80586EB93E00E947B
:103C2000B80508C0109294020CC084EB93E00E9487
:103C3000B80507C081E0817006C01092940280E050
:103C400002C080E0F8CFCF910895CF93DF93863103
:103C50009C4541F5EB010E94E610982F8A81209146
:103C6000000130910101882379F09A7A81E009F40A
:103C700080E080939502911102C069E201C065E382
:103C8000C9010E9469200AC080919502811102C079
:103C900069E201C065E3C9010E9477200E942A11F0
:103CA00080E001C081E0DF91CF9108950F931F93D1
:103CB000CF93DF93C42FD22FFC0182818823B1F0F0
:103CC000409398020E944921909397028093960214
:103CD00080E28C0F883008F04DC0C77081E001C0D1
:103CE000880FCA95EAF70E94250944C0809198027E
:103CF000481330C080919602909197020E946121F2
:103D0000883C910538F510E21D0FCD17B9F080E21F
:103D10008C0F883040F4C77081E001C0880FCA95CD
:103D2000EAF70E942C09183010F581E09D2F97705A
:103D300001C0880F9A95EAF70E942509802F0E94FA
:103D40001B091830B8F4D77081E001C0880FDA95EC
:103D5000EAF70AC080E28C0F883060F4C77081E017
:103D600001C0880FCA95EAF70E942C0903C0802F72
:103D70000E941B09DF91CF911F910F9108950F931E
:103D80009C01CB01243F4CE5340731F188F4293DF7
:103D9000FCE53F07D9F02A3D4CE5340779F1283D91
:103DA0003C45A9F506E221EE41EE68ED7CE52BC02D
:103DB000263FFCE53F07E1F0A8F0273F3C4539F5F9
:103DC00007E225EE46EE67EF7CE51DC007E225EE33
:103DD00045EE69ED7CE517C006E221EE40EE64EFAA
:103DE0007CE511C007E225EE44EE65EF7CE50BC0F3
:103DF00006E221EE42EE66EF7CE505C008E221E036
:103E000045EE6AED7CE50E94561E80E008C0FC018C
:103E10008281882319F01092980201C081E00F91ED
:103E200008959093E9018093E801089590939E028C
:103E300080939D020895E0919D02F0919E0230973B
:103E400029F00190F081E02D0995089580E0089512
:103E5000EF92FF921F93CF93DF93FC01A0919D02FD
:103E6000B0919E021097E9F180911601882341F0EC
:103E70008091C90287FF04C08081818386E08083AE
:103E8000EF011296ED91FC911397CE010995809167
:103E90007E0282FF26C080FF04C08CED98E00E9465
:103EA000B80518E086EDE82E88E0F82E80917E02B5
:103EB00080FF0BC088811F928F93FF92EF920E9428
:103EC00051060F900F900F900F90115021961111E5
:103ED000EDCF80917E0280FF04C084ED98E00E94C7
:103EE000B805DF91CF911F91FF90EF900895E09179
:103EF0009D02F0919E02309739F022E0DC012C9374
:103F00000480F581E02D0995089520919B02309160
:103F10009C022817390771F090939C0280939B02B2
:103F2000E0919D02F0919E02309721F00680F7818A
:103F3000E02D099508952091990230919A02281751
:103F4000390771F090939A0280939902E0919D0253
:103F5000F0919E02309721F00084F185E02D0995C3
:103F60000895FC01329680911601882331F08091EA
:103F7000C90287FF02C09EE101C096E080E0915037
:103F800028F021912223D9F38F5FF9CF089566237A
:103F900051F1209116012223E9F02091C90227FF57
:103FA00019C0462F4695469546954E31E0F4677008
:103FB00021E030E002C0220F331F6A95E2F7FC01D6
:103FC000E40FF11D828190E02823392381E0232B27
:103FD00069F409C0FC01329608962191621729F014
:103FE000E817F907D1F780E0089581E008959C0172
:103FF000FC0132969FEF80E04191461789F09F3F88
:1040000019F4411101C0982F8F5F8630A9F79F3FA7
:1040100039F0F901E90FF11D97FDFA9562830895D2
:1040200008959C012A5F3F4FFC014281461301C065
:104030001282019682179307B9F70895262F2695C5
:10404000269526952E3170F4FC01E20FF11D677064
:1040500021E030E001C0220F6A95EAF78281282B27
:104060002283089580917E0280FF0CC01F926F937F
:104070008CE099E09F938F930E9451060F900F90D0
:104080000F900F900895262F2695269526952E3170
:1040900078F4FC01E20FF11D677021E030E001C00F
:1040A000220F6A95EAF720958281282322830895BA
:1040B00080917E0280FF0CC01F926F938EEE98E07D
:1040C0009F938F930E9451060F900F900F900F9027
:1040D000089520911601222339F02091C90227FF6B
:1040E00003C00E941E2008950E94F71F089520918A
:1040F0001601222339F02091C90227FF03C00E9434
:10410000432008950E941120089520911601FC017A
:104110003296222331F08091C90287FF02C08EE1DE
:1041200001C086E0DF011D928A95E9F7089546E017
:1041300050E00E94CF2921E0892B09F420E0822F52
:10414000089508950E94A120089583E080939F021E
:104150000E94A2200895811102C081E001C082E086
:1041600080939F020E94A22008950E94AB20089590
:1041700081E080939F020E94A22008950E94B820AF
:10418000089508950E94C12008950E94C2200895B4
:104190000E94C12008950E94C12008950E94C1205C
:1041A00008950E94CB200E9441160E94C82080E002
:1041B0000E948E1591E0811101C090E0892F089531
:1041C00085B7806885BF85B7806885BF08951F92D1
:1041D0000F920FB60F9211248F939F93AF93BF93BB
:1041E0008091A002811113C08091CD029091CE02E6
:1041F000A091CF02B091D0024196A11DB11D809334
:10420000CD029093CE02A093CF02B093D002BF9183
:10421000AF919F918F910F900FBE0F901F901895A7
:104220008091D502843031F10E943A071092A002A9
:1042300020E488E190E00FB6F894A89580936000A0
:104240000FBE2093600083B7817F846083BF83B7F4
:10425000816083BF7894889583B78E7F83BF0FB6C4
:10426000F894A89580916000886180936000109216
:1042700060000FBE08950E94B90B0E943F07089589
:1042800082E084BD93E095BD9AEF97BD80936E0068
:1042900008952FB7F8948091CD029091CE02A0910D
:1042A000CF02B091D0022FBF08952FB7F89460913C
:1042B000CD027091CE028091CF029091D0022FBF9B
:1042C00008959C014FB7F8948091CD029091CE0251
:1042D000A091CF02B091D0024FBF821B930B0895E3
:1042E00078941F920F920FB60F9211248F939F9381
:1042F000AF93BF938091CD029091CE02A091CF0257
:10430000B091D0020196A11DB11D8093CD02909372
:10431000CE02A093CF02B093D002BF91AF919F91F4
:104320008F910F900FBE0F901F90189581E0809392
:10433000E00080E28093D8001092C9008FE19EE4F3
:104340000197F1F700C0000087E090EBDC0180935B
:10435000DE029093DF02A093E002B093E1029CE0C2
:1043600088E10FB6F894A895809360000FBE9093F3
:104370006000FFCF9CE088E10FB6F894A895809389
:1043800060000FBE90936000FFCF8091C702089538
:10439000089522E02093E9002FEF3091E8002150AA
:1043A00035FD06C035ED3A95F1F700002111F5CF46
:1043B0002091E80025FF0BC040E050E066E070E08F
:1043C0000E94D1248091E8008E778093E8000895C0
:1043D000CF93DF9320911601222339F02091C90257
:1043E00027FF03C060E222E002C068E021E02093E2
:1043F000E9002FEF3091E800215035FD06C035ED82
:104400003A95F1F700002111F5CF2091E80025FF42
:104410001DC0EC0180911601811105C040E050E003
:1044200068E070E003C070E040E050E0CE010E9420
:10443000D1248091E8008E778093E80080E2FE012D
:10444000A7EAB2E001900D928A95E1F7DF91CF9152
:1044500008958093A3027093A5026093A4028091B3
:10446000D502843001F582E08093E9008FEF9091CE
:10447000E800815095FD06C095ED9A95F1F7000092
:104480008111F5CF8091E80085FF0DC040E050E03C
:1044900063E070E083EA92E00E94D1248091E8001A
:1044A0008E778093E8000895BC0184E00E94292261
:1044B0000895BC0183E00E94292208958EE399E0CB
:1044C0000E94B8058091D402811109C00E945C2627
:1044D0000E94B9268091E20084608093E2000895F2
:1044E0008AE399E00E94B8051092D402089586E309
:1044F00099E00E94B8050E94BE20089582E399E0E9
:104500000E94B8056091D10281E0611101C080E094
:104510000E94A52008958EE299E00E94B80590912E
:10452000D50281E0943009F080E06091D1020E94D0
:10453000AB2008952091A2022F5F822F62E30E9498
:104540005E29992319F02093A20208951092A202E5
:104550008091A602882371F18091D502843041F5C3
:104560008091E9008F702091EC00922F917020FDD6
:1045700090E8892B93E09093E9009091EB0090FFF5
:1045800014C09091EE0097FF10C09091E80095FF45
:1045900003C01092F100F9CF9091E80090FF05C0A0
:1045A0009091E8009E779093E8008F708093E900E7
:1045B0001092A602089542E061EC81E00E94D525A8
:1045C00042E261EC82E00E94D52542E261EC83E0A8
:1045D0000E94D5259091D50281E0943009F080E0C9
:1045E0006091D1020E94B52008958091D702833056
:1045F00009F461C030F4813071F0823009F49BC05D
:1046000008958A3009F487C08B3009F46CC0893072
:1046100009F0A9C020C08091D602813A09F0A3C058
:104620008091E800877F8093E8008091DA02909182
:10463000DB02892B21F460E287EA92E003C060E0AC
:1046400080E090E070E00E9416258091E8008B7772
:104650008093E80008958091D602813209F083C0EA
:104660008091DA029091DB02029708F07CC0809181
:10467000E800877F8093E8008091E80082FD05C014
:104680008091D5028111F8CF6EC02091F300809106
:10469000F20090E0922B029731F48091F10081308A
:1046A00011F0863021F48091F1008093C70280914F
:1046B000E8008B7754C08091D602813A09F053C04C
:1046C0008091DA029091DB02892B09F04CC0809135
:1046D000E800877F8093E8008091E80080FFFCCFAE
:1046E0008091160137C08091D6028132E1F5809128
:1046F000DA029091DB02892BB1F58091E800877F87
:104700008093E8000E940A268091D80280931601C7
:104710000E94B90B08958091D602813221F58091D3
:10472000E800877F8093E8000E940A268091D902E2
:104730008093C80208958091D602813AA1F48091B5
:10474000E800877F8093E8008091E80080FFFCCF3D
:104750008091C8028093F1008091E8008E77809369
:10476000E8000E940A2608959FB7F8941092A602C6
:104770009FBF9091D502943009F057C09091E90005
:104780009F703091EC00232F217030FD20E8922B98
:1047900023E02093E9002091EB0020FF43C020910B
:1047A000EE0027FF3FC02091A102222321F020919B
:1047B000E80025FF37C01092A10226E03091E80002
:1047C00035FD15C03091D502343061F53091EB00E4
:1047D00035FD28C0215021F481E08093A10222C040
:1047E000EFE9FFE03197F1F700C00000E7CF8093D9
:1047F000F1008091E80085FD0AC08091E80080FF0B
:10480000FCCF8091E8008E778093E80006C08FB7D8
:10481000F89421E02093A6028FBF9F709093E90047
:1048200080E008959F709093E9008FEF089584B71A
:10483000877F84BF0FB6F894A89580916000886147
:1048400080936000109260000FBE90E080E80FB689
:10485000F89480936100909361000FBE0E94B8208D
:1048600008950E945C260E94B926E2EEF0E0808165
:104870008460808378940E94432908958AE091E0BF
:104880000E94161F08958091D5028530C9F48AE2EE
:1048900099E00E94B8058091D502853079F40E9494
:1048A00010218091D3028823B1F30E94D120882364
:1048B00091F30E94BB240E94B90BEDCF0E943B21D3
:1048C000089508950E9465240895292F33272330E1
:1048D0003105C9F060F42130310581F02230310515
:1048E00009F041C08BE590E02EE539E040C021326F
:1048F0003105E1F02232310531F135C082E190E03D
:1049000029EB39E034C099278130910549F028F02E
:10491000029749F5E2E4F9E005C0EAE5F9E002C0F2
:10492000ECE4F9E0849190E09F0121C063307105CF
:10493000D0F4660F771FFB01EE51FE4F20813181CD
:1049400089E090E014C06330710568F4FB01EE0F5C
:10495000FF1FE452FE4F20813181FB01E752FE4FE1
:10496000808190E004C080E090E020E030E0FA0137
:1049700031832083089580E189BD82E189BD09B436
:1049800000FEFDCF8091D8008F7D8093D80080916C
:10499000E00082608093E0008091E00081FDFCCF28
:1049A0000895A0E0B0E0E7EDF4E20C948E29EC016C
:1049B0008B017A010E942926811133C0E114F10490
:1049C00039F0F70180819181081B190BC80FD91F9D
:1049D000C12CD12C0115110519F18091E80085FD3C
:1049E00016C08091E8008E778093E800E114F1040E
:1049F00049F0F70180819181C80ED91ED182C08211
:104A000085E00FC00E942926882321F30AC08991DE
:104A10008093F10001501109FFEFCF1ADF0ADACFBE
:104A200080E0CDB7DEB7E8E00C94AA292091DC0243
:104A30003091DD022617370748F06115710539F40A
:104A40002091E8002E772093E80001C0B901FC0115
:104A500020E06115710579F18091D5028823F1F18B
:104A60008530F1F18091E80083FD3CC08091E80041
:104A700082FD2EC08091E80080FFEBCF2091F300F3
:104A80008091F20090E0922B6115710551F0883011
:104A9000910538F421912093F1006150710901963C
:104AA000F3CF21E0089709F020E08091E8008E77AD
:104AB0008093E800CECF2111CFCF0AC08091D502DC
:104AC000882361F0853061F08091E80083FD0AC0A1
:104AD0008091E80082FFF2CF80E0089582E008959F
:104AE00083E0089581E008952091DC023091DD0299
:104AF0002617370748F06115710539F42091E80051
:104B00002E772093E80001C0B901FC0120E0611577
:104B1000710591F18091D502882309F440C0853058
:104B200009F43FC08091E80083FD3DC08091E8001A
:104B300082FD2FC08091E80080FFE9CF2091F30033
:104B40008091F20090E0922B6115710559F0883048
:104B5000910540F424912093F10031966150710940
:104B60000196F2CF21E0089709F020E08091E8005B
:104B70008E778093E800CBCF2111CCCF0AC08091F3
:104B8000D502882361F0853061F08091E80083FDD3
:104B90000AC08091E80082FFF2CF80E0089582E0B1
:104BA000089583E0089581E00895982F973068F57F
:104BB0009093E900981739F07091EC002091ED0086
:104BC0005091F00003C0242F762F50E021FD02C049
:104BD0009F5FECCF3091EB003E7F3093EB00309144
:104BE000ED003D7F3093ED003091EB00316030936C
:104BF000EB007093EC002093ED005093F0002091B7
:104C0000EE0027FDE5CF80E008958F708093E900E6
:104C100081E008958091D60287FF11C08091E8005D
:104C200082FD05C08091D5028111F8CF11C080911D
:104C3000E8008B770BC08091D502882349F08091E2
:104C4000E80080FFF8CF8091E8008E778093E8003D
:104C500008952091E4003091E50095E64091EC0044
:104C6000842F817040FF23C08091E80080FD1DC02B
:104C70008091D502882399F0853099F08091EB00DE
:104C800085FD11C04091E4005091E50024173507DF
:104C900029F3915011F09A01E1CF84E0089582E068
:104CA000089583E0089581E0089580E0089540919B
:104CB000E80042FFDDCF08950E94CB260E94D32654
:104CC000E0EEF0E0808181608083E8EDF0E08081BB
:104CD0008F77808319BCA7EDB0E08C918E7F8C9389
:104CE00080818F7E80831092D40208950F931F934A
:104CF000CF93DF930E94CB260E94D326C8EDD0E04D
:104D000088818F77888388818068888388818F7D78
:104D1000888319BC1092D5021092D1021092D3024E
:104D20001092D20200EE10E0F80180818B7F808328
:104D300088818160888342E060E080E00E94D52520
:104D4000E1EEF0E080818E7F8083E2EEF0E0808112
:104D500081608083808188608083F80180818E7F7C
:104D60008083888180618883DF91CF911F910F912B
:104D70000895E8EDF0E080818F7E8083E7EDF0E03C
:104D800080818160808384E082BF81E08093D4024F
:104D90000E9476260895E8EDF0E080818E7F808382
:104DA0001092E20008951092DA001092E100089546
:104DB0001F920F920FB60F9211242F933F934F9390
:104DC0005F936F937F938F939F93AF93BF93EF9373
:104DD000FF938091E10082FF0BC08091E20082FF8F
:104DE00007C08091E1008B7F8093E1000E949A22AE
:104DF0008091DA0080FF1FC08091D80080FF1BC027
:104E00008091DA008E7F8093DA008091D90080FF54
:104E10000DC080E189BD82E189BD09B400FEFDCFEE
:104E200081E08093D5020E945E2205C019BC1092D9
:104E3000D5020E9470228091E10080FF19C080910C
:104E4000E20080FF15C08091E2008E7F8093E20037
:104E50008091E20080618093E2008091D8008062BE
:104E60008093D80019BC85E08093D5020E947E22F1
:104E70008091E10084FF30C08091E20084FF2CC06B
:104E800080E189BD82E189BD09B400FEFDCF80913A
:104E9000D8008F7D8093D8008091E1008F7E809331
:104EA000E1008091E2008F7E8093E2008091E20039
:104EB00081608093E2008091D102882311F084E028
:104EC00007C08091E30087FD02C081E001C083E05C
:104ED0008093D5020E948B228091E10083FF29C03C
:104EE0008091E20083FF25C08091E100877F80935D
:104EF000E10082E08093D5021092D1028091E1001E
:104F00008E7F8093E1008091E2008E7F8093E200AB
:104F10008091E20080618093E20042E060E080E006
:104F20000E94D5258091F00088608093F0000E9457
:104F30007722FF91EF91BF91AF919F918F917F91D8
:104F40006F915F914F913F912F910F900FBE0F90F6
:104F50001F9018951F920F920FB60F9211242F9346
:104F60003F934F935F936F937F938F939F93AF93F1
:104F7000BF93CF93DF93EF93FF93C091E900CF707E
:104F80008091EC00D82FD17080FDD0E81092E9001C
:104F90008091F000877F8093F00078940E94EE2744
:104FA0001092E9008091F00088608093F000CD2B92
:104FB000CF70C093E900FF91EF91DF91CF91BF9146
:104FC000AF919F918F917F916F915F914F913F91A1
:104FD0002F910F900FBE0F901F901895AAE2B0E08E
:104FE000E4EFF7E20C949329E6EDF2E08091F10012
:104FF000819322E0EE3DF207C9F70E94F5228091ED
:10500000E80083FF2EC18091D6029091D702492FEC
:1050100050E04A30510508F024C1FA01EF55FF4F26
:105020000C947E29803821F0823809F01AC108C01A
:105030008091D2029091D302992389F082600FC0AF
:105040008091DA028F70873008F00BC18093E900FD
:105050008091EB0085FB882780F91092E900909100
:10506000E800977F9093E8008093F1001092F100A0
:10507000D1C0282F2D7F09F0F4C0882319F0823089
:1050800061F0EFC08091D802813009F0EAC093301E
:1050900009F080E08093D3022EC08091D802811164
:1050A0002AC08091DA028F702FEF280F263008F087
:1050B000D8C08093E9002091EB0020FF1CC0933002
:1050C00021F48091EB00806214C09091EB0090611C
:1050D0009093EB0021E030E0A90102C0440F551F7E
:1050E0008A95E2F74093EA001092EA008091EB0083
:1050F00088608093EB001092E9008091E800877F40
:105100008093E8000E940A26ACC08111AAC01091C9
:10511000D8021F778091E3008078812B8093E30091
:105120008091E800877F8093E8000E940A268091A2
:10513000E80080FFFCCF8091E30080688093E3006B
:10514000111102C082E001C083E08093D50289C0C2
:105150008058823008F085C08091D8029091D902A1
:105160008C3D53E0950779F583E08A838AE2898351
:105170004FB7F894DE01139620E03EE051E2E32FB2
:10518000F0E050935700E49120FF03C0E295EF70E8
:105190003F5FEF708E2F90E0EA3010F0C79601C0AD
:1051A000C0968D939D932F5F243149F74FBF809117
:1051B000E800877F8093E8006AE270E0CE01019604
:1051C0000E94162516C06091DA027091DB02AE01D2
:1051D0004F5F5F4F0E946224BC01892B09F441C0DC
:1051E0009091E800977F9093E80089819A810E94CE
:1051F00074258091E8008B778093E80032C0803876
:1052000081F58091E800877F8093E8008091D1024A
:105210008093F1008091E8008E7772CF811121C0D8
:105220008091D8029091D90299270297D4F4809165
:10523000E800877F8093E8008091D8028093D102B4
:105240000E940A268091D102811106C08091E3005C
:1052500087FD02C081E001C084E08093D5020E94F6
:10526000DB228091E80083FF0AC08091E800877FFD
:105270008093E8008091EB0080628093EB00AA9617
:10528000E3E00C94AF29CF938091D5028823A1F05D
:10529000C091E900CF709091EC00892F817090FD52
:1052A00080E8C82B1092E9008091E80083FD0E94FD
:1052B000EE27CF70C093E900CF910895991B79E054
:1052C00004C0991F961708F0961B881F7A95C9F796
:1052D0008095089597FB072E16F4009407D077FD6C
:1052E00009D00E94BB2907FC05D03EF4909581951A
:1052F0009F4F0895709561957F4F0895EE0FFF1FA2
:105300000590F491E02D09942F923F924F925F9275
:105310006F927F928F929F92AF92BF92CF92DF92C5
:10532000EF92FF920F931F93CF93DF93CDB7DEB72A
:10533000CA1BDB0B0FB6F894DEBF0FBECDBF0994BE
:105340002A88398848885F846E847D848C849B8415
:10535000AA84B984C884DF80EE80FD800C811B8123
:10536000AA81B981CE0FD11D0FB6F894DEBF0FBE52
:10537000CDBFED010895AA1BBB1B51E107C0AA1FB9
:10538000BB1FA617B70710F0A61BB70B881F991FE6
:105390005A95A9F780959095BC01CD010895FB0120
:1053A000DC0104C08D910190801921F441505040DE
:1053B000C8F7881B990B0895F999FECF92BD81BD5E
:1053C000F89A992780B50895A8E1B0E042E050E04E
:1053D0000C94102A262FF999FECF92BD81BDF89A20
:1053E000019700B4021639F01FBA20BD0FB6F89429
:1053F000FA9AF99A0FBE08950396272F0E94EB2977
:105400000E94EA29252F0E94EB29242F0C94EB29D6
:105410000196272F0E94EB290C94EA29DC01CB018D
:10542000FC01F999FECF06C0F2BDE1BDF89A3196B4
:1054300000B40D9241505040B8F70895F894FFCF52
:105440005302280850011E0A1401C521E821C92170
:1054500059225422C82101E200E900EA00B500B651
:1054600000B700CD008301CC008A01920194012194
:1054700002230224022502260227022A02B300B4D4
:10548000006F007000818283E200E900EA00B5004D
:10549000B600B700CD008301CC008A0192019401CF
:1054A0002102230224022502260227022A02B30037
:1054B000B4006F0070008182833635343F3F3F0077
:1054C0006D6B5F64656C6179006D6B5F696E7465AF
:1054D0007276616C006D6B5F6D61785F737065658E
:1054E00064006D6B5F74696D655F746F5F6D61788B
:1054F000006D6B5F776865656C5F6D61785F737079
:10550000656564006D6B5F776865656C5F74696D78
:10551000655F746F5F6D61780040B622A30AED0984
:08552000CB0970098909A209F9
:00000001FF
