:100000000C9420030C9458030C9458030C9458033C
:100010000C9458030C9458030C9458030C945803F4
:100020000C9458030C9458030C9451150C9493148D
:100030000C94E2170C9458030C9458030C94580336
:100040000C9458030C9458030C9458030C945803C4
:100050000C9458030C9495170C9458030C94580363
:100060000C9458030C9458030C9458030C945803A4
:100070000C9458030C9458030C9458030C94580394
:100080000C9458030C9458030C9458030C94580384
:100090000C9458030C9458030C9458030C94580374
:1000A0000C9458030C9458030C9458031408170824
:1000B0003A0847084E0859085C089E08C0086309BA
:1000C0006309CB08CD08D108F7081A091D092009D2
:1000D0004309270E270E5A0E5A0ED10EEF0E0210AC
:1000E0000210FA0E6E0F7F0F7F0FAB12D2127B142D
:1000F000D2127B141E1341137B14361446141E0FA8
:100100000500047F3F1F643214643214783C1E1EC5
:10011000140A0500000000000000000000000000BC
:1001200000000000000000000000000000000000CF
:10013000000000000000007E0F00D4FFFFFFC7009A
:1001400000007800000000000000002A2B280000BA
:100150000000000000000000000000000000290076
:100160000000002C1E3420212224342627252E3680
:100170002D3738271E1F20212223242526333336EE
:100180002E37381F0405060708090A0B0C0D0E0F41
:10019000101112131415161718191A1B1C1D2F31C4
:1001A00030232D350405060708090A0B0C0D0E0F28
:1001B000101112131415161718191A1B1C1D2F31A4
:1001C00030354C05010902A10185020901A1000594
:1001D00009190129081500250195087501810205F5
:1001E00001093009311581257F95027508810609BD
:1001F000381581257F950175088106050C0A38029E
:100200001581257F950175088106C0C0050109800B
:10021000A101850319012AB700150126B700950130
:1002200075108100C0050C0901A101850419012A7E
:10023000A002150126A002950175108100C00501DC
:100240000906A1018506050719E029E71500250122
:100250009508750181020507190029EF1500250190
:1002600095F07501810205081901290595057501AB
:100270009102950175039101C00660FF0961A1011A
:100280000962150026FF0095207508810209631593
:100290000026FF00952075089102C005010906A1FE
:1002A00001050719E029E715002501950875018169
:1002B000029501750881010507190029FF1500261F
:1002C000FF009506750881000508190129059505A7
:1002D00075019102950175039101C009025B00034C
:1002E0000100A0FA09040000010301010009211125
:1002F00001000122400007058103080001090401F3
:100300000002030000000921110100012222000760
:1003100005820320000107050303200001090402F0
:1003200000010300000009211101000122B60007AD
:1003300005840320000112010002000000085BF3A5
:10034000B1FA0100010200011803470065006E00C8
:10035000650073006900730052006500760032008A
:100360000000120363007500730074006F006D00DD
:100370004D004B00000004030904222325262829F0
:100380002A2C2D2F3032333536383A3B3D3E404211
:10039000434547494A4C4E5051535557595A5C5E54
:1003A0006062646668696B6D6F71737577797B7D68
:1003B0007F81838587898A8C8E90929496989A9C67
:1003C0009E9FA1A3A5A7A8AAACAEAFB1B3B4B6B87F
:1003D000B9BBBCBEBFC1C2C3C5C6C7C9CACBCCCDE1
:1003E000CED0D1D2D2D3D4D5D6D7D7D8D9D9DADABC
:1003F000DBDBDBDCDCDCDCDCDDDDDDDDDCDCDCDC3C
:10040000DCDBDBDBDADAD9D9D8D7D7D6D5D4D3D26F
:10041000D2D1D0CECDCCCBCAC9C7C6C5C3C2C1BF4D
:10042000BEBCBBB9B8B6B4B3B1AFAEACAAA8A7A5B1
:10043000A3A19F9E9C9A98969492908E8C8A89876D
:100440008583817F7D7B79777573716F6D6B69684B
:10045000666462605E5C5A5957555351504E4C4A1F
:100460004947454342403E3D3B3A383635333230CA
:100470002F2D2C2A292826252322015154005500EE
:1004800056005F00600061004B005C005D005E0094
:10049000570059005A005B004E0062002C006300B8
:1004A0005800AA00A900AA00A9000100C25CC35C10
:1004B00001000100010001000100C95CCA5CCB5CC5
:1004C000CC5C0100010001000100C55CC65C0100BC
:1004D0000100010001000100010001000100010014
:1004E0000100010001000100010001000100010004
:1004F00001000100010001000100010001000100F4
:1005000001000100010001000100010001000100E3
:1005100001000100010001000100010001000100D3
:1005200001000100010001000100010001000100C3
:1005300001000100010001000100000101010101B1
:10054000010101010202020202020202020303038C
:10055000030303030304040404040404050505055C
:10056000050606060606070707070708080808091C
:100570000909090A0A0A0B0B0B0C0C0C0D0D0D0EC8
:100580000E0E0F0F0F10101111111212131314145D
:10059000151516161717181819191A1A1B1B1C1DD2
:1005A0001D1E1E1F2020212222232424252626272B
:1005B0002829292A2B2C2D2D2E2F3031323233345D
:1005C00035363738393A3B3C3D3E3F404142434463
:1005D00045464748494A4C4D4E4F50515354555645
:1005E00058595A5B5D5E5F616264656668696B6CF1
:1005F0006D6F7072737577787A7B7D7E808283856C
:1006000087888A8C8E8F91939596989A9C9EA0A2AB
:10061000A3A5A7A9ABADAFB1B3B5B7BABCBEC0C2B5
:10062000C4C6C9CBCDCFD1D4D6D8DBDDDFE2E4E779
:10063000E9EBEEF0F3F5F8FAFDFFFFAA7F55400075
:1006400011241FBECFEFDAE0DEBFCDBF04B603FE3C
:1006500018C080912D0390912E03A0912F03B0918B
:1006600030038730904BA740B04B59F410922D03C4
:1006700010922E0310922F0310923003E0E0F8E363
:10068000099511E0A0E0B1E0EAE1F4E502C00590CF
:100690000D92AC3BB107D9F723E0ACEBB1E001C060
:1006A0001D92AD32B207E1F70E945A030C940B2A57
:1006B0000C940000AAE2B0E0E0E6F3E00C94BA2962
:1006C00085B7806885BF85B7806885BF84B7877F19
:1006D00084BF0FB6F894A8958091600088618093DC
:1006E0006000109260000FBE90E080E80FB6F894B2
:1006F00080936100909361000FBE87E79CE1909327
:10070000BD018093BC010E94D7140E94F614809111
:10071000E20084608093E200789480910002882354
:10072000A1F01091E9001F709091EC00892F817069
:1007300090FD80E8182B1092E9008091E80083FD7D
:100740000E94C8111F701093E90082E084BD93E0FD
:1007500095BD9AEF97BD80936E000E94E6198111B6
:1007600002C00E94D61903E311E0F9E3EF2EF1E095
:10077000FF2ED8018D918D018F3F11F00E94BC1C7E
:10078000E016F106B1F709E311E0EDE3EE2EE1E04A
:10079000FE2EF80181918F018F3F11F00E94BC1C49
:1007A000E016F106B1F786E0E4EDF1E0DF01C82ED6
:1007B0001D92CA94E9F7EEEBF1E0DF011D928A95F4
:1007C000E9F70E94E51F811102C00E94F11F82E03B
:1007D00090E00E94B1288093C5010E94D41F90939D
:1007E0008D0280938C020E94D31CEFE3FCE93197C9
:1007F000F1F700C000000E94D31C8091D40180FF5B
:1008000008C06FEF7FEF80E090E00E94E3280E9435
:10081000711783E090E00E94B1280E94F02380913C
:10082000C401811133C00E94E51F811104C00E94E0
:10083000F11F0E94472588E090E00E94B92860934C
:10084000790270937A0280937B0290937C026E7F90
:1008500071F40E94472588E090E00E94B9286093D7
:10086000790270937A0280937B0290937C020E94BB
:10087000F62410920C028091790280FF04C060E09F
:1008800086950E94A82681E08093C40182E080932F
:10089000D001AFE4B1E04DE451E08A019D0161E097
:1008A00070E0F90181919F01E82FE295EF70F0E08F
:1008B000F1A08F706B0102C0CC0CDD1C8A95E2F7B1
:1008C000C6019C2D90959F2191A392A1892B82A373
:1008D000F80181918F01E82FE295EF70F0E0F1A02F
:1008E0008F706B0102C0CC0CDD1C8A95E2F7C6014B
:1008F0009C2D90959F2191A392A1892B82A381E0A9
:100900002135380771F6EFE8F1E03197F1F700C0D3
:1009100000007091D00101ED11E060E0671751F126
:100920002D91822F82958F7090E0FC0180A190E044
:100930002F7002C0959587952A95E2F78170FA018C
:100940009191AF01292F22952F7030E0F90120A15C
:1009500030E09F7002C0359527959A95E2F720FF09
:1009600002C092E001C090E0892BF80181938F01D1
:100970006F5FD4CF84E091E09093840280938302F0
:1009800038E1632E712C40E4342E50E1452E60E1B5
:10099000562E72E0C72ED12C8E010F5F1F4F809113
:1009A0000002853009F040C022E1F22E8091000261
:1009B000853009F035C080910002843009F1109231
:1009C00087020FB6F894A895609260000FBE30922F
:1009D000600083B7817F846083BF83B7816083BFFA
:1009E0007894889583B78E7F83BF0FB6F894A895C7
:1009F00080916000886180936000109260000FBE5B
:100A00008091FF01882391F20E94D31CE4EDF1E074
:100A10008191811182C421E0EA3DF207C9F7C6CF76
:100A20000E94F5230E9494180E94D31C81110E94F9
:100A3000CA17E4EDF1E0A6ECB1E0E12CF12C3E2D7B
:100A400021919D91922721F180E0BB24B394492FFD
:100A50004B21D1F089A33AA32B2181E009F480E056
:100A60008BA30E94D6178160782F9DA38CA349A1E8
:100A70005AA16BA18DA10E94CC09F701EA53FE4F48
:100A80008081B826B0821BC08F5FBB0C8430F9F622
:100A90003FEFE31AF30A46E0E416F10481F68FEF24
:100AA0008EA38FA318A60E94D6178160782F9AA7CD
:100AB00089A74EA15FA168A58AA50E94CC09809153
:100AC0000C02882309F4AAC080910B02E0917902FC
:100AD000E695E81BE0932903823059F4F0E0E15FEA
:100AE000FE4FE491EE2EF12C93E3A92E97E1B92E5F
:100AF00070C0863059F4F0E0E45FFE4FE491EE2ED2
:100B0000F12C83E2A82E87E1B82E63C0893061F40E
:100B1000E695F0E0E75FFE4FE491EE2EF12CBDE4A8
:100B2000AB2EBCE1BB2E55C08F3061F4E695F0E0F2
:100B3000EA5FFE4FE491EE2EF12CA8EEAA2EABE177
:100B4000BA2E47C0853159F4F0E0ED5FFE4FE491D5
:100B5000EE2EF12CFAE9AF2EFBE1BF2E3AC0883120
:100B6000F9F0833249F4E1E0F1E0E590F490E9EE48
:100B7000AE2EE6E1BE2E2DC08432D1F0853209F5CD
:100B80008E2F63E00E945C29E92FF0E0E250FF4FD6
:100B9000E491EE2EF12C71E5A72E7AE1B72E19C063
:100BA00058E2E52EF12C6FE1A62E6BE1B62E11C0B6
:100BB00034EFE32EFF24F39447EEA42E4AE1B42E43
:100BC00008C090EDE92E97E0F92E28E8A22E26E144
:100BD000B22E80912A03882361F010922A030E948A
:100BE000D617909328038093270310922C0310921A
:100BF0002B030E94D617E0912703F09128038E1B48
:100C00009F0B8F3F9F4750F4EE0EFF1EF09228037C
:100C1000E092270387E293E0F5010995912C212CBE
:100C2000882483948091D001981608F0C0C0A92C24
:100C3000B12CF501E15BFE4F8081E82FE295EF706A
:100C4000F0E0E0A1F0E08F7002C0F595E7958A959D
:100C5000E2F7E170D501A35BBE4F2C91A22FA295C4
:100C6000AF70B0E090968C9190E02F7002C0959597
:100C700087952A95E2F780FF02C092E001C090E0DC
:100C80008E2F892BD501AF52BE4FEC912E2F2370A2
:100C900030E0482F082E000C550B2417350709F4B7
:100CA00084C0EE0FEE0FE82BEC93EF70F0E0E35C06
:100CB000FE4F950122533E4F79019081D9018C91CD
:100CC000890F8C9382308CF1F501E453FE4F8081C3
:100CD0008F5F8083911013C080921C010E94D617F1
:100CE0008160782F90931E0180931D0140911A011D
:100CF00050911B0160911C0180911E0112C08092D5
:100D000012010E94D6178160782F9093140180936E
:100D100013014091100150911101609112018091D5
:100D200014010E94CC0921E001C020E0F70180817C
:100D30008F3F84F5F501E453FE4F8081815080831D
:100D4000911013C0809221010E94D6178160782FE4
:100D5000909323018093220140911F015091200123
:100D6000609121018091230112C0809217010E949D
:100D7000D6178160782F90931901809318014091C4
:100D800015015091160160911701809119010E947F
:100D9000CC0921E0D7018C91082E000C990BB601EB
:100DA0000E948A29F7018083222A93943BCF211045
:100DB0000E94CA1786E0E1E2F3E0D80101900D92AB
:100DC0008A95E1F7109223031092240310922503D1
:100DD000109226038B81811104C08C81882309F431
:100DE00053C080911F03909120030E94BB179C0168
:100DF00090911B03992309F4AFC22531310508F402
:100E000043C09F3F19F09F5F90931B03FB80FF201F
:100E100061F00E94DA271F1414F491E001C09FEFE3
:100E2000899F802D112480932303FC80FF2061F093
:100E30000E94DA271F1414F491E001C09FEF899FEC
:100E4000802D112480932403309123033323E1F078
:100E5000209124032223C1F045EB3403C001112467
:100E6000992319F09093230303C081E08093230317
:100E700035EB2303C0011124992319F09093240327
:100E800003C081E0809324038D81811104C08E8191
:100E9000882309F453C080911D0390911E030E9482
:100EA000BB179C0190911A03992309F45AC221356A
:100EB000310508F443C09F3F19F09F5F90931A03D8
:100EC000FD80FF2061F00E94B8271F1414F491E008
:100ED00001C09FEF899F802D112480932503FE8000
:100EE000FF2061F00E94B8271F1414F491E001C0A4
:100EF0009FEF899F802D1124809326033091250335
:100F00003323E1F0209126032223C1F045EB340383
:100F1000C0011124992319F09093250303C081E0A7
:100F20008093250335EB2303C0011124992319F085
:100F30009093260303C081E08093260346E050E0AF
:100F4000B80181E293E00E94FE29892BA9F48091E7
:100F5000230381110FC08091240381110BC0809164
:100F60002503811107C081E090912603911103C0F0
:100F700080E001C081E080FD0E94172786E0F80133
:100F8000A1E2B3E001900D928A95E1F70E949418D6
:100F90009091D30189138093D30180910002843012
:100FA00009F0FDCC83E08093E9008091E80082FFA6
:100FB000F6CC8091E80085FF21C00E94281681119F
:100FC0001BC080E2A82EB12C780109C08091F100ED
:100FD000D7018D937D01B1E0AB1AB10869F0809122
:100FE000E80085FDF3CF8091E8008B778093E800DF
:100FF0000E942816882399F391E001C090E0809127
:10100000E8008B778093E800992309F4C8CCE98144
:101010008E2F90E0FC013197E331F10508F053C1C8
:10102000EA5AFF4F0C949E291A8289E0A7C08A8150
:10103000823009F488C1833051F0813009F043C116
:101040000E94CA179B838C837D836E833EC18091EF
:10105000D4018B838091D5018C838091D6018D83BF
:101060008091D7018E838091D8018F838091D9019F
:1010700088872BC18A81823009F025C16B817C81F0
:101080008D819E810E94A4290E94B2191EC14C81AB
:101090006B818A810E9476199D835CC12D813E817E
:1010A0003227232732274C816B818A810E941A19AB
:1010B0000CC10E94411909C18A818138B1F050F4F4
:1010C000803809F002C120E04B8160917B02809161
:1010D0007A0231C0823859F1833809F0F6C020E035
:1010E00040917C026C818B8126C060E08B810E94E4
:1010F000A8269B8180917902911111C08E7F8093E7
:10110000790210920C02EFEFF0E722E0E150F0409C
:101110002040E1F700C000000E941A1AD6C081608A
:101120008093790260E086950E94A826CEC08B81CC
:1011300080937D02CAC00E94E725C7C08A8181389A
:1011400099F030F4803809F0C0C080917C0216C05C
:10115000823891F0833809F0B8C080917A028B838D
:1011600080917B028C83B1C08091790280FF02C0A4
:10117000869504C080E002C080917D028B83A5C06B
:101180006091790270917A0280917B0290917C0249
:101190000E9410259AC05A8298C083E08A8389E110
:1011A000EDCFEA80FB80FE24EF24FE248C80912C7E
:1011B0005801C70189519F4F9501201B310B2815FC
:1011C000390508F082C039E1E31633E0F30630F464
:1011D0000E94B128D50114968C9302C0F5011482A7
:1011E000FFEFEF1AFF0A2FEFA21AB20AE2CFEA804E
:1011F000FB80FE24EF24FE248C80912C5801C70133
:1012000089519F4F9501201B310B2815390508F096
:101210005CC039E1E31633E0F30628F4D5011496F7
:101220006C910E94C528BFEFEB1AFB0AEFEFAE1AD4
:10123000BE0AE5CF0E940A1948C084E08A8345C0EF
:10124000EA80FB80FE24EF24FE248C80912C580140
:10125000C70187969501201B310B28153905A8F584
:10126000F0ECEF16F10430F40E94B128D501149689
:101270008C9302C0F5011482FFEFEF1AFF0A2FEFE3
:10128000A21AB20AE5CFEA80FB80FE24EF24FE24F6
:101290008C80912C5801C70187969501201B310B3A
:1012A0002815390590F430ECE316F10428F4D50143
:1012B00014966C910E94C528BFEFEB1AFB0AEFEF62
:1012C000AE1ABE0AE8CF8FEF898380910002843086
:1012D00009F065CB8091E9008F702091EC00922F8E
:1012E000917020FD90E8F92EF82A82E08093E900C1
:1012F0008091E80080FF0CC040E050E060E270E0C8
:10130000C8010E945B168091E8008E778093E80008
:101310008F2D8F708093E90042CB49BCF9BC09B492
:1013200000FEFDCF8091D8008F7D8093D800809102
:10133000E00082608093E0008091E00081FDFCCFBE
:101340000E94F52333CB86E290E00E94B1281B82F5
:101350001C821D828E83B9CF2B30310508F053CD0E
:1013600093CD2B30310508F0A8CDE8CD0E94F523B0
:101370002FEF84E39CE0215080409040E1F700C0D3
:1013800000009CE088E10FB6F894A8958093600077
:101390000FBE90936000FFCFA7E1B0E0E2EDF9E06F
:1013A0000C94C9294B8B5C8B6D8B7E8B8F8B611161
:1013B00010920A0386E09E01235F3F4FD901E82F78
:1013C0001D92EA95E9F795E0FE017396D901019027
:1013D0000D929A95E1F79C894E895F897B897D877B
:1013E0009E876F87598B488BF901DE011796019014
:1013F0000D928A95E1F7CE0107960E94E2218111B4
:101400003EC086E0FE013796DE01119601900D92F6
:101410008A95E1F7FF81E8856A857B85611571050D
:1014200031F0EF3F31F481E0FF3F19F403C081E078
:1014300001C080E080FD23C02091B70230E0C901E7
:101440000196877099274091E80250E0841795072C
:1014500079F1F983EA837D836C8396E0929FD001D2
:10146000939FB00D1124A854BD4FFE0131960190F9
:101470000D929A95E1F78093B7020E94F72016E04B
:101480008091E8029091B7028917F9F0189FC00186
:10149000112488549D4F0E94E2218823B1F080914D
:1014A000E80290E00196877099278093E802E8CFE0
:1014B0000E94F5231092B7021092E802E1EBF2E0ED
:1014C00086E0DF011D928A95E9F76796E3E00C94C8
:1014D000E529A9E0B0E0EFE6FAE00C94BB29FC01B5
:1014E0008081918123813481232B31F09F3F31F41E
:1014F00091E08F3F19F403C091E001C090E090FDAE
:101500007AC67F0185E0DE01119601900D928A95E1
:10151000E1F7F701228189819A81222349F00E9413
:101520008621182F682F89819A810E949D2303C0EC
:101530000E946923182F69817A81812F0E94A41942
:101540008C01F7018281882309F4F4C098012251AB
:101550003F452031310508F009C18FEF93E00E942B
:10156000B1288111F1C0025137EE832E912C002356
:1015700079F08114F4E09F0609F4E6C0C4010E94EA
:10158000B128811101C001502FEF821A920AEFCFCA
:101590001E821F8218861986442443942AE0322E24
:1015A00084010F5F1F4FC4010E94B1288E831F82E8
:1015B000882309F4C9C09FEF980F933060F48F839C
:1015C0004E8232E0830E911CC8010E94B1288887A8
:1015D000811102C0B9C048018E010A5F1F4FF80196
:1015E00020812223E9F2213009F04CC08181813031
:1015F00049F46801F2E0CF0ED11CF80182810E940B
:10160000C8240AC0823051F46801F2E0CF0ED11C28
:10161000F80182810E945124860189C0833049F4F7
:101620006801F2E0CF0ED11CF80182810E941C24D7
:10163000F3CF843019F00F5F1F4F79C0F80122817A
:101640000E5F1F4F80E090E030E0205331092A30D8
:10165000310568F4389EA001399E500D1124C9014E
:10166000840F951F0F5F1F4FF8012081EDCF00976A
:1016700009F45DC0EFE9FFE03197F1F700C0000029
:101680000197F5CFE22FF0E0ED5BFE4F5490822FF3
:1016900086958695869590E0FC01ED5CFE4F649002
:1016A0002770712C022E02C0759467940A94E2F799
:1016B000F1E06F227724FC01ED5DFE4FA490B12C88
:1016C000022E02C0B594A7940A94E2F731E0A32257
:1016D000BB24FC01ED5EFE4FC490D12C02C0D5941A
:1016E000C7942A95E2F781E0C822DD2461147104D1
:1016F00019F081EE0E945124A114B10419F086EE74
:101700000E945124852D0E94C824A114B10419F00F
:1017100086EE0E941C246114710419F081EE0E946F
:101720001C24C114D10419F08CE20E94C8240F5F5C
:101730001F4F55CF00313FE5130709F082C481E008
:101740000E94D7230E94BC118091E902877009F49E
:1017500052C5F7018281882309F44DC580918D021D
:1017600082FF49C582E00E94BE2045C50031FFE5E9
:101770001F0711F481E005C001312FE5120721F4A4
:1017800082E00E94E423DECF033FFCE51F0749F41B
:1017900006E221EE40EE63EF7CE5C7010E94A1184E
:1017A000D3CF043F2CE5120708F069C1083D3CE5A2
:1017B000130731F407E225EE45EE68ED7CE5EDCF49
:1017C000093D9CE5190731F408E221E045EE69ED99
:1017D0007CE5E3CF073DECE51E0731F406E221EEA0
:1017E00041EE67ED7CE5D9CF882309F47DC11092E5
:1017F000800203309DE5190758F40A3FECE51E0707
:1018000080F4C80182509C45449708F057C109C034
:101810000136FDE51F0729F0053A2DE5120709F00D
:101820004DC10E94D41F90938D0280938C02013190
:101830003CE5130709F4C9C008F043C009309CE532
:10184000190709F49EC008F50530FCE51F0709F4E7
:1018500088C080F403303CE5130709F47BC008F02E
:101860007DC002309CE5190709F0F9C080918C0217
:101870008160F3C00730ECE51E0709F47AC008F078
:101880007CC080918C028061E8C00D302CE512078D
:1018900009F489C058F40B308CE5180709F47BC0B3
:1018A00008F07DC080918C02886071C00F30ECE53B
:1018B0001E0709F482C008F084C080918C02877FE3
:1018C000CCC00D3F2CE5120709F473C008F50531B3
:1018D0008CE5180709F487C068F40331ECE51E07AE
:1018E00009F477C008F097C00E94F52380918C021C
:1018F0008F77B3C00B3F2CE51207B9F108F056C043
:101900000A3F8CE5180709F0AAC080918D0241C0FA
:1019100001309DE5190709F48AC058F40F3FFCE532
:101920001F0709F45BC008F06AC080918D028260D5
:1019300030C001363DE5130709F47FC0053A8DE557
:10194000180709F484C002309DE5190709F087C023
:1019500060E06EC080918C0282607FC080918C02BA
:1019600016C080918C02886078C080918D02826060
:101970004FC080918C02806270C080918C02806424
:101980006CC00E94F52380918C02806866C08460E0
:1019900064C081603DC080918C028E7F5EC080916A
:1019A0008C028D7F5AC080918C0216C080918D026E
:1019B00018C080918D028D7F2BC080918C028F7E0C
:1019C0004CC080918C028F7D48C080918C028F7BAF
:1019D00044C080918C02877F8B7F3FC080918D02B5
:1019E0008D7F8E7F15C080918C0282FB222720F98B
:1019F00091E0922790FB82F990FB83F92EC08091B1
:101A00008D02982F909591708E7F892B90FB81F994
:101A100080938D0224C00E94F52380918C0287FB65
:101A2000222720F991E0922790FB87F916C061E008
:101A30008EE090E00E94C52812C080918C0284FB49
:101A4000222720F991E0922790FB84F906C080912B
:101A50008C02982F909590FB80F980938C02609176
:101A60008C0210918D0284E090E00E94C528612FC5
:101A700082E290E00E94C5280E94F52365CE053FD2
:101A8000FCE51F0731F406E221EE42EE65EF7CE54E
:101A900084CE053F2CE5120730F407E225EE44EE34
:101AA00064EF7CE57ACE063F3CE5130709F09CCE57
:101AB00007E225EE46EE66EF7CE56FCE06318CE55B
:101AC000180721F580910B038A7A91E009F490E0E0
:101AD0009093DA01882311F065E301C069E281E99E
:101AE00092E00E9433180FC00631ECE51E0709F0A2
:101AF00044C08091DA01882309F4AAC265E381E930
:101B000092E00E940B180E9469201ECE0A353DE526
:101B1000130769F158F401159CE5190781F00E3D92
:101B20001C4509F047C00E94F11F17C00C35FDE5A8
:101B30001F07A9F0F0F0073A1D4579F03BC00E945D
:101B4000F5238FEF94E3ECE081509040E040E1F723
:101B500000C000000E947117F7CD0E94B609809165
:101B60008D0282FB882780F991E0892703C081E0FC
:101B700001C080E00E94DB201DC080910B038272B7
:101B80000C3CECE51E0709F415C308F096C2063CB0
:101B90002CE5120709F4FAC208F06BC2033C9CE57D
:101BA000190709F4E9C208F055C2023CFCE51F0719
:101BB00009F4BDC2F701828100811181882349F0B7
:101BC000C8010E948621D82E682FC8010E949D233B
:101BD00004C0C8010E946923D82EB8018D2D0E942F
:101BE000A4190E943A1EB82E192F982EF7010281CF
:101BF000A580A2949FE0A9228091E9028770B9F0A4
:101C00000023A9F0812F807F803421F080E28B0DAA
:101C1000883068F080918D0282FF09C082E00E94C6
:101C2000BE208091E9028770DD24D3948111D12CEC
:101C3000C12EC2948FE0C8228C2D90E08C3091058B
:101C400008F0E0C1FC01E759FF4F0C949E29812F59
:101C5000807F1F70882311F01295107F0023B9F048
:101C6000112309F4B8C180E28B0D883010F0911077
:101C700006C080910B03182B10930B0305C08091B5
:101C80000A03182B10930A030E946920A4C18B2D0C
:101C90000E941C24112309F4B5C180E28B0D883009
:101CA00080F1992071F1109580910A031823109307
:101CB0000A032AC0812F807F1F70803211F0129595
:101CC000107F8B2D992021F0F1E09F16D9F149C0AA
:101CD00080918D0282FD1BC0002369F0112339F031
:101CE00080910B03182B10930B030E94692080E056
:101CF0000E94512487C180E00E941C24112309F412
:101D000081C1812F0E9462200E9469207BC1002333
:101D100081F080910C03AA2051F021E0A21207C0AB
:101D2000182B181709F46EC110930C036BC1812B8B
:101D300010C0AA2021F031E0A31609F463C10E946B
:101D40005C202BC0002341F085E08A1508F45AC1BD
:101D5000812F0E94122456C194E09A1508F452C1B2
:101D60001CC0002349F0AA2099F3F701858180FF68
:101D700032C18F708583ECCFAA2079F0893341F48A
:101D8000FFEF27EE33E0F15020403040E1F735C15E
:101D90008FE39CE90197F1F730C1812F0E940B245A
:101DA00031C1812F86958695837019F0813061F05D
:101DB00029C1002321F08B2D912F937002C080E068
:101DC00090E00E947E1824C1002321F08B2D912FDA
:101DD000937002C080E090E00E94681819C18B2DBA
:101DE000002319F00E94FA2702C00E9441270E9496
:101DF00017270EC1812F8370A9F5011107C14B2D43
:101E0000429546954770440F440F8B2D8F7090E09C
:101E10009C01042E01C0220F0A94EAF7B4FE08C008
:101E20008FE090E001C0880F4A95EAF7809501C0E5
:101E300080E0169516951370123069F088F4909131
:101E40000D03113019F0822B892302C0922B892BAC
:101E50000E94F023DBC0822B90910D038927F8CFDD
:101E6000822BF6CF002319F0812F817001C0869557
:101E7000882309F4CBC04B2D429546954770440FFB
:101E8000440F8B2D8F7090E09C01042E01C0220F17
:101E90000A94EAF7B4FE08C08FE090E001C0880F12
:101EA0004A95EAF7809501C080E016951695137063
:101EB000123059F078F490910A02113019F0822B07
:101EC000892309C0922B892B06C0822B90910A028C
:101ED000892701C0822B0E94D22398C01F70002343
:101EE00039F0812F0E94E4238B2D0E9412248EC092
:101EF0008B2D0E940B24812F0E94D72387C08B2D0E
:101F000092EF991681F1991538F0E0EF9E1659F08D
:101F1000F1EF9F1619F15BC023EF921659F134EFE0
:101F20009316C1F054C0002381F084E08A1508F4B0
:101F300069C01F7181E090E0012E01C0880F0A94F2
:101F4000EAF790910A02892720C095E09A1508F4D3
:101F500059C0EFCF80918D0282FD1AC0002329F075
:101F6000812F8F7127C00023D9F3812F8F710E9499
:101F7000D72348C0002341F01F7181E0012E01C02A
:101F8000880F0A94EAF701C080E00E94D2233AC089
:101F9000002399F01F71812F0E94E42380918D020C
:101FA00082FF07C0E8E01E9FC00111248360809378
:101FB000E902812F0E94E42325C081E00E94BE2017
:101FC000F1E0FA15F8F482E00E94BE201BC0002365
:101FD00021F0AA2029F28B2D8BCEAA2031F2893351
:101FE00041F42FEF37EE83E0215030408040E1F79D
:101FF00004C0EFE3FCE93197F1F700C000008B2D3E
:102000000E941C2488EF8C0D843010F40E949418D8
:10201000DD2009F4F0C08091E90280FDECC0F701F9
:1020200012828595859585950E94E423C7010E94BB
:10203000690A8091E9028595859585950E94D72347
:10204000DAC001319FE5190709F09ECB82E078CB19
:1020500069E255CD043C2CE5120709F492C0053C19
:102060003CE5130709F0A6CD44E956E26EE976E2B5
:10207000A5C0093C9CE5190709F492C078F4073C17
:10208000FCE51F0709F487C0083C2CE5120709F09E
:1020900091CD47E856E26AE776E290C00A3C3CE51B
:1020A000130709F482C00B3C9CE5190709F082CDA7
:1020B00043E255E265E375E281C0013DECE51E07B0
:1020C00009F488C0A0F40E3C2CE5120709F47CC08A
:1020D00008F477C00F3C8CE5180709F478C0003D80
:1020E0009CE5190709F066CD6EE089E081C0043DEA
:1020F000ECE51E0709F474C068F4023D2CE51207F4
:1021000009F46BC0033D3CE5130709F053CD61E0D2
:1021100088E16BC0053D8CE5180709F464C00D35F6
:102120009DE5190709F046CD6AE285E261C080911C
:10213000790280FF1BC08E7F8093790260917902C3
:1021400070917A0280917B0290917C020E9410250E
:1021500010920C02EFEFF0E722E0E150F040204057
:10216000E1F700C000000E941A1AEECA8160809355
:10217000790261E0869539C04AEE56E264EF76E274
:102180001DC044EF56E26AEE76E218C04EE956E210
:1021900064E976E213C04AE756E267E876E20EC0E9
:1021A00040E656E26DE676E209C04DE656E260E6AC
:1021B00076E204C045E355E263E275E20E94131A39
:1021C000C3CA61E081E011C065E082E011C068E04F
:1021D00086E00EC064E18FE00BC067E185E108C0D6
:1021E00062E289E105C061E083E20E94A826ACCAF0
:1021F0000E94FF19A9CA2996E1E10C94D729809180
:10220000020287FF11C08091E80082FD05C0809125
:1022100000028111F8CF11C08091E8008B770BC0CC
:1022200080910002882349F08091E80080FFF8CF78
:102230008091E8008E778093E8000895982F97307A
:1022400068F59093E900981739F07091EC002091AF
:10225000ED005091F00003C0242F762F50E021FDB7
:1022600002C09F5FECCF3091EB003E7F3093EB00DC
:102270003091ED003D7F3093ED003091EB00316007
:102280003093EB007093EC002093ED005093F0003E
:102290002091EE0027FDE5CF80E008958F708093B8
:1022A000E90081E008952091080230910902261783
:1022B000370748F06115710539F42091E8002E7751
:1022C0002093E80001C0B901FC0120E0611571050F
:1022D00079F1809100028823F1F18530F1F180914C
:1022E000E80083FD3CC08091E80082FD2EC0809113
:1022F000E80080FFEBCF2091F3008091F20090E0A6
:10230000922B6115710551F08830910538F42191B7
:102310002093F100615071090196F3CF21E00897F5
:1023200009F020E08091E8008E778093E800CECF1E
:102330002111CFCF0AC080910002882361F085303F
:1023400061F08091E80083FD0AC08091E80082FF7F
:10235000F2CF80E0089582E0089583E0089581E05F
:1023600008950895BC0184E00E9447170895BC01B8
:1023700083E00E944717089580910A02982F967073
:10238000963011F4886001C0877F0E94D22308959F
:10239000AAE2B0E0EEECF1E10C94C929E2E0F2E04F
:1023A0008AE092E02091F10021938E179F07D1F7E8
:1023B00080910302833009F463C030F4813071F0FE
:1023C000823009F49DC0B4C08A3009F489C08B30D2
:1023D00009F46EC0893009F0ABC020C080910202C0
:1023E000813A09F0A5C08091E800877F8093E800DA
:1023F0008091060290910702892B21F460E28EED14
:1024000091E003C060E080E090E070E00E94531132
:102410008091E8008B778093E8008AC08091020267
:10242000813209F085C080910602909107020097E1
:1024300019F0029709F07CC08091E800877F8093B3
:10244000E8008091E80082FD05C0809100028111C2
:10245000F8CF6EC02091F3008091F20090E0922BB3
:10246000029731F48091F100813011F0863021F42F
:102470008091F1008093DD018091E8008B7754C05A
:1024800080910202813A09F053C080910602909136
:102490000702892B09F04CC08091E800877F809368
:1024A000E8008091E80080FFFCCF8091240137C0D4
:1024B000809102028132E1F580910602909107023B
:1024C000892BB1F58091E800877F8093E8000E9416
:1024D000FF1080910402809324010E94F52328C0FC
:1024E00080910202813221F58091E800877F8093FC
:1024F000E8000E94FF10809105028093DC0118C063
:1025000080910202813AA1F48091E800877F809354
:10251000E8008091E80080FFFCCF8091DC0180938F
:10252000F1008091E8008E778093E8000E94FF1010
:102530008091E80083FFDFC1809102029091030245
:10254000492F50E04A30510508F0D5C1FA01EB5847
:10255000FF4F0C949E29803821F0823809F0CBC1BE
:1025600008C08091FE019091FF01992389F082605B
:102570000FC0809106028F70873008F0BCC1809335
:10258000E9008091EB0085FB882780F91092E90033
:102590009091E800977F9093E8008093F10010926B
:1025A000F10070C1282F2D7F09F0A5C1882319F0F3
:1025B000823061F0A0C180910402813009F09BC19A
:1025C000933009F080E08093FF012EC080910402D7
:1025D00081112AC0809106028F702FEF280F2630BC
:1025E00008F089C18093E9002091EB0020FF1CC016
:1025F000933021F48091EB00806214C09091EB0045
:1026000090619093EB0021E030E0A90102C0440FFB
:10261000551F8A95E2F74093EA001092EA008091F4
:10262000EB0088608093EB001092E9008091E80055
:10263000877F8093E8000E94FF105DC181115BC11C
:10264000109104021F778091E3008078812B8093A2
:10265000E3008091E800877F8093E8000E94FF10EC
:102660008091E80080FFFCCF8091E3008068809338
:10267000E300111102C082E001C083E080930002F8
:102680003AC18058823008F036C12091040230915E
:1026900005022C3D53E0350779F583E08A838AE211
:1026A00089834FB7F894DE01139620E03EE051E2B3
:1026B000E32FF0E050935700E49120FF03C0E29530
:1026C000EF703F5FEF708E2F90E0EA3010F0C7960A
:1026D00001C0C0968D939D932F5F243149F74FBF62
:1026E0008091E800877F8093E8006AE270E0CE0185
:1026F00001960E945311B4C0809106029091070286
:10270000432F552743305105A9F068F44130510556
:1027100009F400C14230510509F0EDC08BE590E0AD
:10272000EBEDF2E04BC04132510529F14232510547
:1027300089F1E1C0C901992781309105A1F058F0D4
:10274000029709F0D8C0E8E4F3E0E4918E2F90E01E
:10275000E8E4F3E030C0E6E7F3E0E4918E2F90E0A8
:10276000E6E7F3E028C0E2E6F3E0E4918E2F90E0A4
:10277000E2E6F3E020C08330910508F0BCC0880F8A
:10278000991FFC01E65AFE4F0190F081E02D89E08F
:1027900090E014C08330910508F0ADC0FC01EE0F4D
:1027A000FF1FEC5AFE4F0190F081E02DDC01AF5A83
:1027B000BE4F8C9190E0009709F49DC02091E800F5
:1027C000277F2093E8002091080230910902281702
:1027D000390708F4C90140E0009789F1209100020F
:1027E000222309F43DC02530D9F12091E80023FDD2
:1027F00037C02091E80022FD2FC02091E80020FF83
:10280000EBCF4091F3002091F20030E0342B0097A1
:1028100059F02830310540F444914093F10031964D
:1028200001972F5F3F4FF3CF41E02830310509F08A
:1028300040E02091E8002E772093E800CDCF4111B1
:10284000CDCF0AC080910002882351F0853041F03D
:102850008091E80083FD04C08091E80082FFF2CF00
:102860008091E8008B778093E80045C0803809F0BC
:1028700042C08091E800877F8093E8008091010248
:102880008093F1008091E8008E77D3CE811133C020
:1028900080910402909105029927029764F5809136
:1028A000E800877F8093E8001091040210930102F2
:1028B0000E94FF10111106C08091E30087FD02C045
:1028C00081E001C084E08093000242E061EC81E09D
:1028D0000E941E1142E261EC84E00E941E1142E25D
:1028E00061EC82E00E941E1142E260EC83E00E94F3
:1028F0001E11809100028091E80083FF10C080913A
:10290000E800877F8093E8008091EB0080628093ED
:10291000EB0005C082E190E0E6E3F3E04FCFAA963A
:10292000E3E00C94E5291F920F920FB60F92112449
:102930002F933F934F935F936F937F938F939F93C7
:10294000AF93BF93CF93DF93EF93FF93C091E900D1
:10295000CF708091EC00D82FD17080FDD0E810921C
:10296000E9008091F000877F8093F00078940E94C6
:10297000C8111092E9008091F00088608093F00007
:10298000CD2BCF70C093E900FF91EF91DF91CF91F4
:10299000BF91AF919F918F917F916F915F914F9177
:1029A0003F912F910F900FBE0F901F901895E8ED5B
:1029B000F0E080818E7F80831092E2001092DA0036
:1029C0001092E100A0EEB0E08C9181608C93808148
:1029D0008F77808319BCA7EDB0E08C918E7F8C93AC
:1029E00080818F7E80831092DB010895A0E0B0E0AB
:1029F000ECEFF4E10C94C429C8EDD0E088818F7E1F
:102A00008883E7EDF0E080818160808384E082BF8D
:102A100081E08093DB0188818E7F888302EE10E065
:102A2000F80110821092DA0081EEC82ED12CF60146
:102A3000108288818F7788838881806888838881E5
:102A40008F7D888319BC10920002109201021092AF
:102A5000FF011092FE0190EEE92EF12CF70180812A
:102A60008B7F808388818160888342E060E080E0A2
:102A70000E941E11F60180818E7F8083F801808183
:102A800081608083808188608083F70180818E7F70
:102A90008083888180618883CDB7DEB7E8E00C94BD
:102AA000E0291F920F920FB60F9211242F933F939C
:102AB0004F935F936F937F938F939F93AF93BF9346
:102AC000EF93FF938091E10082FF09C08091E200C3
:102AD00082FF05C08091E1008B7F8093E1008091AF
:102AE000DA0080FF2AC08091D80080FF26C0809144
:102AF000DA008E7F8093DA008091D90080FF18C0C1
:102B000080E189BD82E189BD09B400FEFDCF81E08D
:102B1000809300028091DB0181110FC00E94D714C5
:102B20000E94F6148091E20084608093E20005C068
:102B300019BC109200021092DB018091E10080FF2D
:102B400017C08091E20080FF13C08091E2008E7F69
:102B50008093E2008091E20080618093E2008091A6
:102B6000D80080628093D80019BC85E08093000271
:102B70008091E10084FF30C08091E20084FF2CC08E
:102B800080E189BD82E189BD09B400FEFDCF80915D
:102B9000D8008F7D8093D8008091E1008F7E809354
:102BA000E1008091E2008F7E8093E2008091E2005C
:102BB00081608093E20080910102882311F084E01B
:102BC00007C08091E30087FD02C081E001C083E07F
:102BD00080930002809100028091E10083FF27C072
:102BE0008091E20083FF23C08091E100877F809382
:102BF000E10082E080930002109201028091E100E6
:102C00008E7F8093E1008091E2008E7F8093E200CE
:102C10008091E20080618093E20042E060E080E029
:102C20000E941E118091F00088608093F000FF9157
:102C3000EF91BF91AF919F918F917F916F915F9134
:102C40004F913F912F910F900FBE0F901F901895AD
:102C50002091E4003091E50095E64091EC00842F4E
:102C6000817040FF23C08091E80080FD1DC08091ED
:102C70000002882399F0853099F08091EB0085FD62
:102C800011C04091E4005091E5002417350729F365
:102C9000915011F09A01E1CF84E0089582E0089507
:102CA00083E0089581E0089580E008954091E80070
:102CB00042FFDDCF0895EF92FF920F931F93CF93C2
:102CC000DF937C018B010E942816811119C0E70156
:102CD00001151105A1F08091E80085FD0AC08091E1
:102CE000E8008E778093E8000E942816882381F3FD
:102CF00007C089918093F10001501109E9CF80E06C
:102D0000CDB7DEB7E6E00C94E2298091DD010895AD
:102D1000089524E02093E9002FEF3091E80021503E
:102D200035FD06C035ED3A95F1F700002111F5CFDC
:102D30002091E80025FF0BC040E050E066E070E025
:102D40000E945B168091E8008E778093E8000895DA
:102D5000CF93DF9320912401222339F020918C021C
:102D600027FF03C060E224E002C068E021E0209376
:102D7000E9002FEF3091E800215035FD06C035ED18
:102D80003A95F1F700002111F5CF2091E80025FFD9
:102D90001DC0EC0180912401811105C040E050E08C
:102DA00068E070E003C070E040E050E0CE010E94B7
:102DB0005B168091E8008E778093E80080E2FE0148
:102DC000AEEDB1E001900D928A95E1F7DF91CF91E0
:102DD0000895A3E0B0E0EFEEF6E10C94C8298C0171
:102DE0008091100281110AC09E012F5F3F4F40E881
:102DF0006FEF0E9458258A8180931002F801848128
:102E0000813051F028F0823061F4409110020AC004
:102E10008091100240E007C06091100240E080E025
:102E200003C040E080E060E00E94E524F801848176
:102E300090E0019663E070E00E948A2984832396E3
:102E4000E4E00C94E429CF93DF93EC01E9E7F2E0AE
:102E5000438162818C810E94FF268C818F5F8C83ED
:102E6000DF91CF910895CF93DF93EC01EC81F0E0F7
:102E7000E658FC4F4491E9E7F2E0628181810E94CB
:102E8000FF268C818F5F8C83DF91CF910895809393
:102E90008E027093900260938F02809100028430C2
:102EA000F9F48093E9008FEF9091E800815095FD4F
:102EB00006C095ED9A95F1F700008111F5CF80914C
:102EC000E80085FF0DC040E050E063E070E08EE870
:102ED00092E00E945B168091E8008E778093E80074
:102EE000089581E08093E00080E28093D800109202
:102EF000C9008FE19EE40197F1F700C0000087E070
:102F000090EBDC0180932D0390932E03A0932F036D
:102F1000B09330039CE088E10FB6F894A8958093B5
:102F200060000FBE90936000FFCF78941F920F92C5
:102F30000FB60F9211248F939F93AF93BF938091FD
:102F4000880290918902A0918A02B0918B02019629
:102F5000A11DB11D8093880290938902A0938A02DB
:102F6000B0938B02BF91AF919F918F910F900FBE45
:102F70000F901F9018959C014FB7F894809188028C
:102F800090918902A0918A02B0918B024FBF821B5F
:102F9000930B08952FB7F89460918802709189027D
:102FA00080918A0290918B022FBF08952FB7F894D9
:102FB0008091880290918902A0918A02B0918B023F
:102FC0002FBF08951F920F920FB60F9211248F9367
:102FD0009F93AF93BF9380918702811113C080911B
:102FE000880290918902A0918A02B0918B02419649
:102FF000A11DB11D8093880290938902A0938A023B
:10300000B0938B02BF91AF919F918F910F900FBEA4
:103010000F901F901895209124012223C9F0209130
:103020008C0227FF15C0262F2695269526952E3132
:10303000C8F4FC01E20FF11D677081E090E001C06F
:10304000880F6A95EAF78095928189238283089593
:10305000FC0106962281621301C012823196E817A4
:10306000F907C1F70895209124012223C1F020918E
:103070008C0227FF14C0262F2695269526952E31E3
:1030800030F5FC01E20FF11D677081E090E001C0B6
:10309000880F6A95EAF79281892B82830895FC0153
:1030A00032962FEF30E04191641789F02F3F19F4E9
:1030B000411101C0232F3F5F3630A9F72F3F39F070
:1030C000FC01E20FF11D27FDFA9562830895089532
:1030D00020918502309186022817390771F090936C
:1030E000860280938502E0918302F09184023097FA
:1030F00021F00084F185E02D099508952091810249
:10310000309182022817390771F0909382028093E0
:103110008102E0918302F0918402309721F00680D1
:10312000F781E02D09950895E0918302F0918402E2
:10313000309729F00190F081E02D0995089580E005
:1031400008950F931F93CF93DF93C42FD22FFC01C9
:1031500082818823B1F0409380020E94D617909319
:103160007F0280937E0280E28C0F883008F04DC091
:10317000C77081E001C0880FCA95EAF70E94122447
:1031800044C080918002481330C080917E029091AB
:103190007F020E94BB17883C910538F510E21D0F95
:1031A000CD17B9F080E28C0F883040F4C77081E011
:1031B00001C0880FCA95EAF70E940B24183010F559
:1031C00081E09D2F977001C0880F9A95EAF70E94C1
:1031D0001224802F0E94C8241830B8F4D77081E0E0
:1031E00001C0880FDA95EAF70AC080E28C0F8830B8
:1031F00060F4C77081E001C0880FCA95EAF70E94A9
:103200000B2403C0802F0E94C824DF91CF911F910F
:103210000F910895CF93DF93C7EED0E060E0CE0129
:103220000E94C5282196C11584E0D807B9F7DF911F
:10323000CF9108951F93CF93DF93962F8430E8F4B6
:103240006630D8F44430C8F4632F122FC42FD0E076
:10325000CC0FDD1F28E0929FC00DD11D112490E3FB
:10326000899FC00DD11D1124CE0187960E94C528CB
:10327000612FCE0188960E94C528DF91CF911F91C2
:103280000895A0E0B0E0E7E4F9E10C94C229A12C94
:10329000E12CF12CB12C00E010E0C0E0D0E067019F
:1032A000C00ED11EF601EC0FFD1FEE0FFF1FE658FA
:1032B000FB4F259134914C2F6B2D8A2D0E941A19AA
:1032C0002196C430D10571F70C5F1F4FB39486E08F
:1032D000B812E3CF88E1E80EF11CA39484E0A812B1
:1032E000D9CFCDB7DEB7EAE00C94DE290F931F9358
:1032F000CF93DF93843008F56630F8F44430E8F477
:10330000C42FD0E0CC0FDD1F28E0629FC00DD11D7F
:10331000112430E3839FC00DD11D1124CE01879667
:103320000E94B12890E0182F0027CE0188960E94B5
:10333000B1289801282BC90102C080E090E0DF91FC
:10334000CF911F910F910895843048F4763038F46E
:10335000643028F4462F672F0E947619089580E084
:1033600090E0089586E290E00E94C5280895CF93EA
:10337000C82F811102C06FEF01C062E283E290E0CA
:103380000E94C528C11102C06FEF01C067E084E24E
:1033900090E00E94C528C11102C06FEF01C064E136
:1033A00085E290E00E94C528CF91089580E00E94B8
:1033B000B71960E070E0CB010E94B2190E94411978
:1033C0000E940A1981E00E94B719089583E290E0F3
:1033D0000E94B128823281F484E290E00E94B128F8
:1033E000873051F485E290E00E94B12891E0843169
:1033F00009F090E0892F01C080E0817008959091DC
:10340000790290FF04C09695981748F003C0811187
:1034100006C090E0961718F40E94F426089561E023
:103420000E94A8260895882311F0FA0101C0FB012B
:10343000099508958091790280FF0AC06E9A8EB135
:103440008F7B9EB190642FB7F894E1E1F2E00CC05D
:10345000E1E1F2E088E392E0118210821282339679
:103460008E179F07C9F7EACF32E0E833F30789F0F8
:10347000319148E09EB9000000C037FF8EB9330F8C
:10348000000000C000C000C08EB900C04A9591F78E
:10349000EBCF2FBF8FE594E00197F1F700C000005C
:1034A0000895A0E0B0E0E7E5FAE10C94C129FC0141
:1034B000A280948081E08483EAE7F3E0B490E9EFAE
:1034C000F3E0E491C8E3D2E0F1E1EF2EF2E0FF2E69
:1034D000CC24CA94D12CEB190E2F10E022E02A152F
:1034E00030F080917A02888380917B0289839110E9
:1034F00003C01B821A8255C08B818823F9F081504A
:103500008B832FEF829FC00111246C8170E00E9499
:103510007629FB01FF27E658FC4F8491E82FEB1931
:103520002FEFE29FC0011124B8010E9476298091FB
:103530007C02689FB00111247A8333C00E94A128C5
:1035400020917C022695215830E0A901440F551F97
:10355000322F2227240F351F232F3327821793075B
:1035600004F582E08A1588F40E94A128B6010E9421
:103570008A2988830E94A12820917B022695622FA8
:1035800070E00E948A29280F29831A8280917C0288
:10359000843120F0893C18F088EC01C084E18C83F0
:1035A0008B8397014A81698188810E9458252596DD
:1035B00023E0E20EF11C82E0C937D80709F08ECF74
:1035C0000E941A1ACDB7DEB7EBE00C94DD29EF921A
:1035D000FF920F931F93CF93DF938C01C1E1D2E051
:1035E000E12CF12CF8018481F6E0EF16F1041CF4D3
:1035F000882339F002C0811104C09E0140917C02F1
:1036000002C09E0140E060917B0280917A020E949C
:1036100058258FEFE81AF80A23969DE0E916F10481
:1036200009F70E941A1AF801848190E001968170CE
:1036300099278483CDB7DEB7E6E00C94E229A0E0B9
:10364000B0E0E5E2FBE10C94C029EC014C81042FD1
:1036500010E09801D8010E944D299B01AC010E9405
:1036600018296B017C01E0E2F0E0E01BF10BA5E51D
:10367000B0E09B01AC010E9418294B015C019F0145
:10368000DF010E94AB299B01AC010E9423299B0111
:10369000AC012C0D3D1D4E1D5F1DC501B4010E94E6
:1036A0002B29822FF22E99E2921728F093E0299F7E
:1036B000900111240DC025E530E0281B3109C90116
:1036C000880F991F280F391F37FF02C02F5F3F4F08
:1036D00035952795122F109591E1C92E92E0D92E9C
:1036E00000E085E5E82EEF1801FD02C08E2D01C037
:1036F0008F2D9601412F60917B020E9458250F5F0C
:1037000083E0C80ED11C0D3079F70E941A1A8C8103
:10371000811102C091E003C0803219F49FEF9093B1
:10372000270190912701890F8C83CDB7DEB7ECE09C
:103730000C94DC290F931F93CF93DF93C1E1D2E068
:10374000FE01118210821282339682E0E833F8077C
:10375000C1F700E010E080910F02082E000C990BD9
:103760000817190794F080912601082E000C990B78
:103770008017910754F09E0140917C0260917B027A
:1037800080917A020E94582503C0198218821A82F9
:103790000F5F1F4F23960D301105E9F60E941A1A8C
:1037A0008091250190910F02980F90930F02209124
:1037B0002601280F20932601121614F49C301CF0C9
:1037C000819580932501DF91CF911F910F910895ED
:1037D000A0E0B0E0EEEEFBE10C94C329FC01828195
:1037E00080FF03C0DD24DA9402C0DD24D39401E11C
:1037F00012E0C0E0D0E02DE0B22EF801118210827C
:10380000128294E0E92EF12CC12C80910E028C0DD5
:103810008E302CF06B2D0E946829892F02C087FD05
:10382000835F082E000C990BC817D90791F480917B
:103830007C028E9DA0018F9D500D112455954795BA
:1038400055954795980160917B0280917A020E947C
:103850005825CD0CF1E0EF1AF108B9F621960D5F6D
:103860001F4FCD30D10549F60E941A1A80910E02E1
:1038700091E0D91206C0811102C08CE007C08150CE
:1038800005C090E00196BE010E948A2980930E0235
:10389000CDB7DEB7E9E00C94DF29EF92FF921F93DA
:1038A000CF93DF93EC0181E1E82E82E0F82E10E067
:1038B0008C81970140917C0260917B02810F0E9474
:1038C00058251D5E83E0E80EF11C173F89F70E9422
:1038D0001A1A9A818C8190FF02C08F5F01C08150BB
:1038E0008C83DF91CF911F91FF90EF90089580E03E
:1038F000089590918C0292FF0DC0282F28712830D6
:1039000019F4877F846006C0282F2471243011F4B5
:103910008B7F886093FF0DC0282F2871283119F400
:10392000877E846106C0282F2471243111F48B7E98
:10393000886120918D0220FF0DC0382F38713830FA
:1039400019F4877F816006C0382F3171313011F44E
:103950008E7F886021FF0DC0282F2871283119F42F
:10396000877E816106C0282F2171213111F48E7E5E
:10397000886194FD877E0895F894E82FE295EF70B2
:10398000F0E031A1282F2F7081E090E001C0880F76
:103990002A95EAF7982F9095932391A392A1892BCA
:1039A00082A378940895A6E0B0E0E9EDFCE10C94E0
:1039B000BF29AE014F5F5F4F7A0186E0FA01119295
:1039C0008A95E9F703E311E06A0189E3A82E81E013
:1039D000B82E88248394912CF80180818F3F09F4BC
:1039E00041C0F894E82FE295EF70F0E021A18F70CC
:1039F000A40102C0440F551F8A95E2F7CA01922F15
:103A0000982B91A392A18095892382A3789400C0DA
:103A1000E9E3F1E0712C31E021912F3F89F0A22FF1
:103A2000A295AF70B0E090968C9190E02F7002C09C
:103A3000959587952A95E2F780FD02C0832F01C0F6
:103A400080E0782A330F51E0ED33F50729F7F801CC
:103A500080818F3F11F00E94BC1CF0EAFA95F1F7CB
:103A6000F60170820F5F1F4FFFEFCF1ADF0AA0161B
:103A7000B10609F0B1CF46E050E0B7018EEB91E01E
:103A80000E94FE2911E0009709F410E0892B89F0CB
:103A900086E0F701AEEBB1E001900D928A95E1F777
:103AA00081E0809310030E94D61790930F038093B8
:103AB0000E03809110038823A1F080910E03909152
:103AC0000F030E94BB17059760F0EEEBF1E0A4ED49
:103AD000B1E081918D9341E0E43CF407D1F710927D
:103AE000100320911A0180911B0190911C014091BB
:103AF0001D0150911E01452B31F08F3F31F481E0C3
:103B00002F3F19F403C081E001C080E080FD02C0B6
:103B1000892F02C080E090E080FF14C010921C0149
:103B20000E94D6178160782F90931E0180931D010B
:103B300040911A0150911B0160911C0180911E015E
:103B40000E94CC0920911F018091200190912101B8
:103B50004091220150912301452B31F08F3F31F4E8
:103B600081E02F3F19F403C081E001C080E080FDB7
:103B700002C0892F02C080E090E080FF14C0109244
:103B800021010E94D6178160782F909323018093A2
:103B9000220140911F0150912001609121018091EB
:103BA00023010E94CC092091100180911101909174
:103BB00012014091130150911401452B31F08F3FB8
:103BC00031F481E02F3F19F403C081E001C080E0AF
:103BD00080FD02C0892F02C080E090E080FF14C009
:103BE000109212010E94D6178160782F90931401D1
:103BF00080931301409110015091110160911201C5
:103C0000809114010E94CC09209115018091160128
:103C1000909117014091180150911901452B31F0F5
:103C20008F3F31F481E02F3F19F403C081E001C0E0
:103C300080E080FD02C0892F02C080E090E080FF1C
:103C400014C0109217010E94D6178160782F9093AC
:103C5000190180931801409115015091160160914E
:103C60001701809119010E94CC09812F2696EDE061
:103C70000C94DB29CF93DF938238910569F1B0F47E
:103C80008133910509F46FC048F48932910509F434
:103C900065C08A32910509F46BC08AC085339105ED
:103CA00009F457C089339105B9F082C0833E91056C
:103CB00071F138F4803E9105B1F0823E910511F129
:103CC00077C0863E9105B9F1873E9105C9F1843EE2
:103CD000910509F06DC024C020918C0220FD53C0D5
:103CE00021FD51C065C080918C0280FD46C080914D
:103CF0008D0280FF48C080918C0284FD50C183EE0C
:103D000090E04FC180918C0282FF3AC0F4CF809145
:103D10008C0282FD35C080918D0280FD34C0EBCFD6
:103D200080918D0281FF35C080918C0284FD37C166
:103D300087EE90E036C180918C0283FF27C0F4CFDC
:103D400080918C0283FD22C080918D0281FD21C073
:103D5000EBCF80918C0285FD1FC021C080918C0229
:103D600085FD1DC019C080918C0286FD1BC01DC041
:103D700080918C0286FD19C015C089E390E011C1C5
:103D800082EE90E00EC180EE90E00BC186EE90E0F6
:103D900008C184EE90E005C189E290E002C185E3AC
:103DA00090E0FFC08AE290E0FCC081E390E0F9C0BF
:103DB000811531E5930708F069C0811540E5940746
:103DC000F0F09C0174E0369527957A95E1F7922FF3
:103DD0009370482F437021E030E002C0220F331F60
:103DE0004A95E2F73C68392B982F9F7096959695E7
:103DF00040E2949FC0011124822B932BD2C0883EB5
:103E0000910568F5803E910508F0CBC0883A910590
:103E1000B8F4853A910548F0855AE82FF0E0E05A69
:103E2000FE4F808190E09064BCC08130910509F420
:103E3000B3C008F4B4C08430910508F4B0C0B1C078
:103E40008F3B910508F0ABC0885AE82FF0E0EE0FE9
:103E5000FF1FED59FE4F808191819464A2C08115AE
:103E600020E2920758F4811531E0930708F099C0D9
:103E7000803F910508F493C0906593C0811540E49C
:103E8000940708F48CC09F70906A8BC0811525E55B
:103E9000920708F042C0811534E5930728F0982F67
:103EA0008827846F906A7DC0811543E59407B0F040
:103EB0009C012370332741E050E002C0440F551F9E
:103EC0002A95E2F7282F2695269580E2289F9001D3
:103ED0001124CA01822B932B9A6863C0811522E5B5
:103EE000920728F4982F8827816F906A5AC09C0106
:103EF0002370332741E050E002C0440F551F2A953C
:103F0000E2F7282F2695269580E2289F900111241C
:103F1000CA01822B932B9C6844C0EC01811539E5C2
:103F20009307A8F48115984528F09C2F8827806F67
:103F3000906A37C0C11586E5D80788F58C2F0E9496
:103F4000791C8F7190E0982F882790622AC0811584
:103F50002AE5920790F48C2F8F700E94791C94E0D0
:103F6000D695C7959A95E1F7CF70D0E0DC2FCC2796
:103F7000D0699E01282BC90114C09056811590422A
:103F800070F48D2F8F710E94791C282F2F71CE0114
:103F900099279062922B05C081E090E002C080E0FA
:103FA00090E0DF91CF910895CF9384E090E00E945C
:103FB000B128C82F82E290E00E94B1282C2F30E077
:103FC000A901582BCA01CF91089580E090E00E948A
:103FD000BF28883E9E4F19F40E94E619089580E09C
:103FE000089568EE7EEF80E090E00E94E32860E0B4
:103FF00082E090E00E94C52860E083E090E00E94AB
:10400000C52810920D0360E084E090E00E94C5286E
:1040100064E082E290E00E94C52860E085E090E0E4
:104020000E94C52860E086E090E00E94C5286FEFFE
:1040300087E090E00E94C52840E050E0BA0188E0A7
:1040400090E00E94D72860E08DE090E00E94C528B3
:1040500040E050E0BA0188E190E00E94D72860E09B
:1040600087E190E00E94C52840E050E0BA018CE171
:1040700090E00E94D72860E070E080E290E00E942B
:10408000E32840E050E0BA0188E190E00E94D728A0
:1040900080E00E94B7190E94D61940E050E0BA01B2
:1040A0008FE090E00E94D72840E050E0BA0183E121
:1040B00090E00E94D728089580910C0381111092FE
:1040C0000C030895809590910B03892380930B0333
:1040D000089590910B0380910A03982B909391027D
:1040E00080910C038823D9F0892B809391028091D1
:1040F0002401882331F080918C0287FF02C08EE179
:1041000001C086E0E3E9F2E090E0815028F02191DF
:104110002223D9F39F5FF9CF91110E945C2040E2E6
:1041200050E06AEE72E081E992E00E94FE29892B5C
:1041300021F180E2E1E9F2E0AAEEB2E001900D9215
:104140008A95E1F7E0918302F09184023097A9F01B
:1041500080912401882359F080918C0287FF07C049
:10416000809191028093920286E080939102028076
:10417000F381E02D81E992E0099508952091E9020B
:10418000809582238093E902982F977099F430E00C
:10419000482F082E000C550B2417350759F0909125
:1041A0008D0292FF07C08595859585950E94D7233E
:1041B0001092E9020895CF93C0918D02C2FB992716
:1041C00090F9981791F080FBC2F9C0938D0260912D
:1041D0008C0284E090E00E94C5286C2F82E290E07F
:1041E0000E94C52882E00E94BE20CF910895809150
:1041F000E8029091B702891719F08F5F8770FBCFA3
:1042000008950F931F93CF93DF938091B602829509
:104210008F7009F05AC08091B302882309F455C009
:104220008091E8021091B7026091B1027091B202E0
:10423000C091B402D091B50291E06F3F09F090E0D7
:10424000292F06E0811709F440C0209721F07F3F15
:1042500021F030E003C031E001C0322F90E030FDAA
:1042600031C0089FF001099FF00D1124DF01A8540F
:10427000BD4F11963C911197371324C03C913613D2
:1042800021C012963C91129731111CC013964D918A
:104290005C9114974C1B5D0B483C510598F4809140
:1042A000B6028F7080618093B602E354FD4F808127
:1042B0008F708061808381EB92E00E94690A0E9486
:1042C000F72003C001968770BDCFDF91CF911F917A
:1042D0000F91089580E090E00E947E1880E090E0C9
:1042E0000E94681810920A030E946920E1E2F3E03C
:1042F00086E0DF011D928A95E9F710921B03109268
:104300001A0310921C030E9417270895CF92DF9280
:10431000FF920F931F93CF93DF936C0100910A02DA
:1043200080910D03082BC7E0D0E010E0C8010C2EEF
:1043300002C0959587950A94E2F780FD04C0219705
:10434000A8F7F12C09C0FC2EB6018C2F0E94A419ED
:104350000E943A1E019799F38F2DDF91CF911F9103
:104360000F91FF90DF90CF900895CF93DF93EC01F2
:104370000E948621BE010E94A4190E943A1EDF916C
:10438000CF910895FC01808191810E94B521929581
:104390009F70963079F010F4925001C09A5092308C
:1043A00068F4803F69F018F4883E40F409C0843F07
:1043B00029F406C0883E20F0813F11F080E0089586
:1043C00081E00895A1E1B0E0E8EEF1E20C94C129AA
:1043D0008C0185E0F801DE011D9601900D928A9511
:1043E000E1F7F801E2809091B1026091B202409150
:1043F000B4025091B5024115510531F06F3F31F4CF
:1044000081E09F3F19F403C081E001C080E0F82FF4
:10441000F1709F2E80FD1BC1F80130812181C38086
:10442000D48081EBA82E82E0B82EF090B302F60182
:10443000E41BF50BFF2009F4C7C08091B602E83CED
:10444000F10508F092C0482F407F09F051C0621377
:1044500011C093130FC0FE2CE1100CC08F7080614F
:104460008093B602C5010E94690A8091B602F801E4
:1044700085832AC1C114D10431F02F3F31F481E08A
:104480003F3F19F403C081E001C080E080FD03C01C
:1044900081E08E2502C080E090E0F82FF170FF2EC1
:1044A00080FF1CC08091E8024091B70256E084175B
:1044B00009F4E8C090E0589FF001599FF00D1124D5
:1044C000E854FD4F6181261306C06081631303C069
:1044D0006281E61203C001968770E9CFFE2CEE20C0
:1044E00009F4F2C08091B60281608093B60249C09F
:1044F000621306C0931304C0E11002C0F80186C025
:10450000C8010E94C221882351F1EE2041F120917F
:10451000B602822F82958F7090E0029774F080919E
:10452000B1029091B20298878F831986DB86CA8682
:104530002C87CE0107960E94690A86E0F801A1EB5C
:10454000B2E001900D928A95E1F70E9401210AC024
:104550006217C9F0C8010E94C22181111EC0C801A2
:104560000E94690AFF24F394AFC0482F407F81F76F
:1045700081EB92E00E94690A86E0F50111928A952A
:10458000E9F7F12CA1C09313E5CFE110E3CFF801D7
:104590008583C8010E94690A54C0EE2001F320916E
:1045A000B602822F82958F7090E0029734F280914C
:1045B000B1029091B2029A8389831B82DD82CC8200
:1045C0002E83CE010196B7CFE83CF105D0F5FE2C45
:1045D000EE2029F2621327C0931325C02091B60262
:1045E00020FD18C0822F82958F70482F50E0411512
:1045F000510581F0F80125834F30510541F08F5F5F
:10460000982F9295907F822F8F70892B8583C80178
:104610000E94690A86E0F801A1EBB2E001900D92D8
:104620008A95E1F751C0C8010E94C221811185CF4E
:104630008091B60281608093B602C8010E94690A27
:1046400043C086E0F50111928A95E9F73DC0EE205E
:1046500009F485CFC8010E94C221F82E882309F4ED
:104660007ECF86E0F801A1EBB2E001900D928A9531
:10467000E1F78091B1029091B2020E94B5210E94AF
:10468000012122C03D872E878D859E850E94B52100
:10469000292F22952F70223028F49F7039F0811134
:1046A00005C00BC0243028F49F7049F4805E883028
:1046B00020F0C8010E94690A9F2CF92C05C0F8015E
:1046C0009581907F99F7F9CF8F2D6196EBE00C944F
:1046D000DD29292F963078F5843068F590E034E0B4
:1046E000239F800D911D1124682F677023E09695FC
:1046F00087952A95E1F7FC01EE0FFF1FE80FF91FE0
:10470000EF5EFC4F40E050E080E0219130E0062E6B
:1047100002C0369527950A94E2F721703327042EBC
:1047200001C0220F0A94EAF7822B4F5F5F4F43309C
:10473000510559F7089580E00895292F963088F59E
:10474000843078F590E034E0239F800D911D112492
:10475000282F277051E001C0550F2A95EAF723E072
:10476000969587952A95E1F7FC01EE0FFF1FE80F5C
:10477000F91FEF5EFC4F20E030E070E04081CB019C
:10478000022E02C0969587950A94E2F78170819572
:1047900084278523842781932F5F3F4F2330310562
:1047A00069F7089580930A020E946A21089521E022
:1047B00030E001C0220F8A95EAF7209580910A0225
:1047C00082230E94D223089521E030E001C0220F0D
:1047D0008A95EAF780910A02822B0E94D2230895DB
:1047E00080930D030E946A21089510920B0380911B
:1047F0002401882331F080918C0287FF02C08EE172
:1048000001C086E0E3E9F2E0DF011D928A95E9F755
:104810000E946A210895882321F00E9462200E944C
:1048200069200895882339F090910B03892B809398
:104830000B030E9469200895882391F19CEF980F43
:10484000913A30F4682F81E992E00E940B180DC074
:1048500090E2980F983060F4877091E001C0990F52
:104860008A95EAF7892F0E9462200E9469200895A4
:104870009BE5980F933028F480E090E00E947E182A
:10488000089598E5980F973128F480E090E00E9411
:1048900068180895803F20F00E9441270E94172742
:1048A0000895CF93882309F471C0C82F8CEF8C0F23
:1048B000813AC0F5809124018823E1F080918C0237
:1048C00087FF18C0EC2FE695E695E695F0E0EF56E9
:1048D000FD4F8281282F30E04C2F477081E090E01F
:1048E00002C0880F991F4A95E2F782239323892BF0
:1048F00061F412C0E3E9F2E089E992E02191C21784
:1049000021F08E179F07D1F707C06C2F81E992E045
:104910000E940B180E9469206C2F81E992E00E948E
:10492000331810C080E28C0F883078F4C77081E0B3
:1049300090E001C0880FCA95EAF790910B03892B8C
:1049400080930B030E94692021C0EBE5EC0FE3305C
:1049500040F4F0E0E05AFE4F808190E00E947E1823
:1049600015C0E8E5EC0FE73150F4F0E0EE0FFF1F63
:10497000ED59FE4F808191810E94681807C0C03FA9
:1049800028F08C2F0E94FA270E941727CF910895B4
:104990001F93CF93DF93182F893319F0CAE0D0E02B
:1049A00002C0C0E5D0E0812F0E9451248FE99FE032
:1049B0000197F1F700C000002197C1F7812F0E94F5
:1049C0001C24DF91CF911F9108959091790290FF5F
:1049D0000CC0E1E1F2E0818360834283339692E090
:1049E000E833F907C1F70E941A1A089580917902F5
:1049F000282F269530E02115310519F48170826049
:104A000005C02B32310524F08170846580937902D2
:104A100080917C02813818F080E880937C020895B0
:104A2000CF92DF92EF92FF926B017C010E94F624FD
:104A3000B701A60188E090E00E94D728FF90EF9090
:104A4000DF90CF90089580917D02882319F08150E6
:104A500080937D026091790270917A0280917B024D
:104A600090917C020E941025089580917D028330F0
:104A700018F48F5F80937D026091790270917A02C1
:104A800080917B0290917C020E9410250895E9E7B5
:104A9000F2E08BE1808311828FEF828380E8838351
:104AA000148260817181828193810E941025089512
:104AB000A0E0B0E0EEE5F5E20C94C229E82EF62E77
:104AC000E901413808F040E8E42FF0E0F11006C0B9
:104AD000E65CFA4FE4914E2F2E2F71C00F2D10E09F
:104AE000E65CFA4F4491F42FC42ED12C26E0E29ECE
:104AF000C00111242FEF30E0B9010E9476295BEA52
:104B00005603C001579F900D11248E0D911D8E0DDF
:104B1000911D582F550F580FD901A01BB10BAC9DFB
:104B2000C001AD9D900DBC9D900D1124E92FF59E07
:104B3000D0011124AB2FBB277901EA1AFB0AEC9CA8
:104B4000D001ED9CB00DFC9CB00D11245901A51AAB
:104B5000B108A09E7001A19EF00CB09EF00C112433
:104B6000EF2CFF242E193F092C9D80012D9D100D47
:104B70003C9D100D1124212F6230710591F048F4F5
:104B800061157105E1F061307105B9F4242F4B2FE7
:104B900016C06430710569F040F06630710579F037
:104BA0000CC0242F492FE12F0AC0492FEF2F2B2FA4
:104BB00006C0292FE42F412F02C0292FEB2F498354
:104BC0002883EA83CDB7DEB7EAE00C94DE29A3E0C0
:104BD000B0E0EDEEF5E20C94BD29F82E762EE42E31
:104BE000622E9091790290FF67C0E92FE695AE2F73
:104BF000B0E0AF56BE4F8C9180930B029E7F9230F7
:104C000061F49E012F5F3F4F8F2D0E9458254B81ED
:104C100069818A810E94E5243DC0823019F4E090C8
:104C20007C0238C0863019F4F0907A0233C08930A3
:104C3000D9F3893179F5E9518E2F8170582EE69597
:104C4000F0E0E65CF94FE4910E2F10E081E1C82E10
:104C500082E0D82EA12CB12C9DE0892E912CC5018B
:104C6000B4010E9476298F2D511002C0860F01C019
:104C7000861B96014E2D672D0E945825A00EB11E51
:104C800083E0C80ED11C88E3C81682E0D80639F745
:104C90000E941A1AF0927A0270927B02E0927C02D1
:104CA000662051F06091790270917A0280917B02C6
:104CB00090917C020E9410252396EFE00C94D92954
:104CC000E9E7F2E0438128E0421B08F440E021E0FC
:104CD000628181810E94E7250895E9E7F2E043813E
:104CE00028E0420F08F44FEF21E0628181810E94A9
:104CF000E7250895E9E7F2E0628128E0621B08F405
:104D000060E021E0438181810E94E7250895E9E781
:104D1000F2E0628128E0620F08F46FEF21E0438146
:104D200081810E94E7250895E9E7F2E0818121E091
:104D30004381628188500E94E7250895E9E7F2E007
:104D4000818121E043816281885F0E94E725089587
:104D50009091790290FF3DC09170811102C09260E4
:104D600006C08B3210F0946502C0880F982B909388
:104D70007902662351F06091790270917A028091F4
:104D80007B0290917C020E941025609179026695C9
:104D900070E04BE050E088E291E00E94F129892B1D
:104DA00019F010920C0209C081E080930C020E945D
:104DB000D617909328038093270381E080932A03DA
:104DC00020E040917C0260917B0280917A020E94F7
:104DD000E7250895809179028695815009F48AE249
:104DE00061E00E94A82608958091790286958F5FE0
:104DF0008B3208F081E061E00E94A8260895A3E0CC
:104E0000B0E0E5E0F7E20C94CA299091790290FFB6
:104E10000AC09E012F5F3F4F0E9458254B81698138
:104E20008A810E94E5242396E2E00C94E6290E9400
:104E3000D61720912303211104C02091240322239B
:104E400021F09093200380931F03209125032111CB
:104E500004C020912603222321F090931E03809307
:104E60001D03E0918302F0918402309749F082E0C3
:104E7000809321030480F581E02D81E293E0099580
:104E80000895803F39F49091240397FF35C0109224
:104E9000240359C0813F29F4909124031916BCF3CF
:104EA0002BC090912303823F29F497FF25C01092D5
:104EB000230349C0833F19F41916CCF31DC0909108
:104EC0002503893F29F41916BCF4109225033BC031
:104ED0008A3F19F497FF10C0F8CF8B3F39F49091B7
:104EE000260397FF09C0109226032DC08C3F21F4A2
:104EF000909126031916BCF39CE0980F953080F42E
:104F000021E030E0A90102C0440F551F9A95E2F755
:104F1000CA0180959091220389238093220313C0B4
:104F20008D3F21F480911C038E7F0BC08E3F21F4B6
:104F300080911C038D7F05C08F3F29F480911C0355
:104F40008B7F80931C0380912303811106C0809185
:104F50002403811102C010921B038091250381114B
:104F600006C080912603811102C010921A03089591
:104F700080911C0380FD16C081FD16C082FD18C003
:104F800080911A03882391F0883290F428E0829F60
:104F9000C001112468E270E00E948A29862F672BE5
:104FA00029F007C082E0089584E0089581E0089523
:104FB00088E0089580911C0380FD14C081FD14C019
:104FC00082FD16C080911B03882381F08E3180F40E
:104FD00020E5829FC00111246EE170E00E948A29C1
:104FE000862F089584E1089588E2089588E0089561
:104FF00080E50895803F21F40E94DA27819504C05E
:10500000813F29F40E94DA27809324030895823F88
:1050100021F40E94DA27819504C0833F29F40E947D
:10502000DA27809323030895893F19F40E94B82753
:1050300005C08A3F31F40E94B827819580932503EB
:1050400008958B3F21F40E94B827819504C08C3FBE
:1050500029F40E94B8278093260308959CE0980FB6
:10506000953078F421E030E0A90102C0440F551FCB
:105070009A95E2F7CA0190912203892B809322032B
:1050800008958D3F21F480911C0381600BC08E3FF9
:1050900021F480911C03826005C08F3F29F4809128
:1050A0001C03846080931C0308958F929F92AF929B
:1050B000BF92CF92DF92EF92FF92CF93DF93EC01FA
:1050C000688179818A819B816115710581059105CE
:1050D00021F464E279ED8BE597E02DE133EF41E0D7
:1050E00050E00E94F92849015A019B01AC01A7EA4E
:1050F000B1E40E9418296B017C01ACEEB4EFA5016C
:1051000094010E942629DC01CB018C0D9D1DAE1D52
:10511000BF1DB7FF03C00197A109B04888839983D9
:10512000AA83BB839F77DF91CF91FF90EF90DF90B1
:10513000CF90BF90AF909F908F9008950E94552878
:10514000089580E091E00E9455280895A0E0B0E025
:105150008093000190930101A0930201B093030199
:105160000895F999FECF92BD81BDF89A992780B52F
:105170000895A6E1B0E044E050E00C94EB28A8E1EB
:10518000B0E042E050E00C94EB28262FF999FECFD6
:1051900092BD81BDF89A019700B4021639F01FBA8A
:1051A00020BD0FB6F894FA9AF99A0FBE08950396A7
:1051B000272F0E94C6280E94C528252F0E94C62896
:1051C000242F0C94C6280196272F0E94C6280C94E1
:1051D000C528DC01CB01FC01F999FECF06C0F2BD68
:1051E000E1BDF89A319600B40D9241505040B8F7A5
:1051F0000895052E97FB1EF400940E94102957FD78
:1052000007D00E942B2907FC03D04EF40C941029E0
:1052100050954095309521953F4F4F4F5F4F0895E2
:1052200090958095709561957F4F8F4F9F4F089512
:105230000E944D29A59F900DB49F900DA49F800DB5
:10524000911D11240895B7FF0C9418290E94182964
:10525000821B930B0895A1E21A2EAA1BBB1BFD0112
:105260000DC0AA1FBB1FEE1FFF1FA217B307E40745
:10527000F50720F0A21BB30BE40BF50B661F771F9D
:10528000881F991F1A9469F760957095809590957D
:105290009B01AC01BD01CF010895A29FB001B39F56
:1052A000C001A39F700D811D1124911DB29F700D2F
:1052B000811D1124911D0895991B79E004C0991F47
:1052C000961708F0961B881F7A95C9F78095089560
:1052D00087FB082E062687FD819567FD61950E9454
:1052E0005C290EF4919507FC81950895AA1BBB1BC0
:1052F00051E107C0AA1FBB1FA617B70710F0A61BD6
:10530000B70B881F991F5A95A9F780959095BC01F6
:10531000CD01089597FB072E16F4009407D077FD72
:1053200009D00E94762907FC05D03EF4909581951E
:105330009F4F0895709561957F4F0895EE0FFF1F61
:105340000590F491E02D099469279627692778271D
:105350008727782708950E944D29332312F48A1B4A
:105360009B0B0C94B5290E944D29B7FF0895821B11
:10537000930B08952F923F924F925F926F927F927C
:105380008F929F92AF92BF92CF92DF92EF92FF9255
:105390000F931F93CF93DF93CDB7DEB7CA1BDB0B01
:1053A0000FB6F894DEBF0FBECDBF09942A883988A6
:1053B00048885F846E847D848C849B84AA84B984AD
:1053C000C884DF80EE80FD800C811B81AA81B981B9
:1053D000CE0FD11D0FB6F894DEBF0FBECDBFED01CD
:1053E0000895FC014150504030F001900616D1F76D
:1053F0003197CF010895882799270895FB01DC0193
:1054000004C08D910190801921F441505040C8F79B
:0A541000881B990B0895F894FFCF54
:10541A00010000008516A8168916B711B211B1113C
:10542A00020500000003050000000005000000015D
:10543A00050000000101020101191A1B1C1D1E1F93
:10544A00202122F06766363530F4F5973400FF01E3
:10545A0000010000FFFF0000010001FF00F791F6C4
:10546A00924022B69B027902C301ED02060326038B
:10547A00818283E200E900EA00B500B600B700CDF8
:10548A00008301CC008A01920194012102230224A3
:10549A00022502260227022A02B300B4006F007016
:1054AA0000000102020202060606090909090909A1
:1054BA000F0F0F0F0F0F151515181919191919199B
:0C54CA001919191923242525252525254D
:00000001FF
