:100000000C9404070C943C070C943C070C943C079C
:100010000C943C070C943C070C943C070C943C0754
:100020000C943C070C943C070C94C91D0C940B1DBC
:100030000C9453260C943C070C943C070C943C07FE
:100040000C943C070C943C070C943C070C943C0724
:100050000C943C070C9406260C943C070C943C072B
:100060000C943C070C943C070C943C070C943C0704
:100070000C943C070C943C070C943C070C943C07F4
:100080000C943C070C943C070C943C070C943C07E4
:100090000C943C070C943C070C943C070C943C07D4
:1000A0000C943C070C943C070C943C076E0C6E0CB3
:1000B000A10CA10C140D320D400E400E3D0DB10DE2
:1000C000C20DC20DBE12C112E212EF12F6120113DE
:1000D000041315132C13CC13CC133113331338130F
:1000E0005E13811384138713AB131D1B441BF31C76
:1000F000441BF31C901BB31BF31CA91CB91C000070
:1001000000000000000000000000000000000000EF
:1001100000000000000000000000000000000000DF
:1001200000007E0F00D4FFFFFFC700000078000032
:100130000000000000002A2B280000000000000042
:1001400000000000000000000029000000002C1E3C
:100150003420212224342627252E362D3738271EF9
:100160001F202122232425263333362E37381F041F
:1001700005060708090A0B0C0D0E0F1011121314B7
:1001800015161718191A1B1C1D2F3130232D350475
:1001900005060708090A0B0C0D0E0F101112131497
:1001A00015161718191A1B1C1D2F3130354C62619A
:1001B000636B6C69676874206465637265617365FD
:1001C0003A2025750A006261636B6C696768742068
:1001D000696E6372656173653A2025750A00626114
:1001E000636B6C696768742064697361626C650A2B
:1001F000006261636B6C6967687420656E61626C34
:10020000650A006261636B6C6967687420746F676C
:10021000676C653A2025750A006261636B6C6967DB
:10022000687420737465703A2025750A004445424D
:1002300055473A2064697361626C65642E0A004414
:10024000454255473A20656E61626C65642E0A002E
:100250005B735D000A002530313662003A200025CC
:10026000303258000A722F63203031323334353641
:100270003738394142434445460A000A00253032A6
:1002800058006C65645F7461736B3A20004F6E6553
:1002900073686F743A206163746976653A202564E7
:1002A0000A000A002530325820006B6579626F61C0
:1002B00072645F7265706F72743A20000631FF09D4
:1002C00074A1010975150026FF00952075088102AB
:1002D0000976150026FF00952075089102C00501DA
:1002E0000902A10185020901A100050919012908D6
:1002F00015002501950875018102050109300931B4
:100300001581257F95027508810609381581257F9D
:10031000950175088106050C0A38021581257F951F
:100320000175088106C0C005010980A10185031976
:10033000012AB700150126B700950175108100C08C
:10034000050C0901A101850419012AA00215012645
:10035000A002950175108100C00660FF0961A1012E
:100360000962150026FF00952075088102096315B2
:100370000026FF00952075089102C005010906A11D
:1003800001050719E029E715002501950875018188
:10039000029501750881010507190029FF1500263E
:1003A000FF009506750881000508190129059505C6
:1003B00075019102950175039101C05B435D005B7E
:1003C000445D005B535D005B575D005B525D00095F
:1003D000027B00040100A0FA0904000001030101EE
:1003E00000092111010001224000070581030800D6
:1003F00001090401000203000000092111010001AC
:1004000022220007058203200001070503032000C4
:10041000010904020001030000000921110100018B
:10042000227B000705840320000109040300020366
:1004300000000009211101000122220007058503A7
:100440002000010705050320000112010002000041
:10045000000850424C4D01000102000122034400FB
:100460006F0072006F003600370020004D007500ED
:100470006C0074006900200050004300420000003E
:1004800020034200610063006B00700072006F0087
:1004900070002000530074007500640069006F0054
:1004A000000004030904290A002575002F002575A2
:1004B000005D2800256400200025640020002564DC
:1004C0000020002564007C0025303258006D6F75D7
:1004D00073656B6579205B62746E7C782079207619
:1004E00020685D287265702F61636C293A205B007B
:1004F0006261636B6C696768745F636F6E6669677E
:100500002E7261773A20253032580A2E656E61626C
:100510006C653A2025750A2E6C6576656C3A202547
:10052000750A006B65796D61705F636F6E666967F0
:100530002E7261773A20253032580A2E7377617017
:100540005F636F6E74726F6C5F636170736C6F6307
:100550006B3A2025750A2E636170736C6F636B5F55
:10056000746F5F636F6E74726F6C3A2025750A2E1C
:10057000737761705F6C63746C5F6C6775693A2048
:1005800025750A2E737761705F7263746C5F726792
:1005900075693A2025750A2E737761705F6C616CFE
:1005A000745F6C6775693A2025750A2E73776170E0
:1005B0005F72616C745F726775693A2025750A2EE7
:1005C0006E6F5F6775693A2025750A2E73776170C3
:1005D0005F67726176655F6573633A2025750A2EE1
:1005E000737761705F6261636B736C6173685F6284
:1005F00061636B73706163653A2025750A2E6E6BBB
:10060000726F3A2025750A0064656275675F636FD3
:100610006E6669672E7261773A20253032580A2E4D
:10062000656E61626C653A2025750A2E6D61747283
:1006300069783A2025750A2E6B6579626F6172645C
:100640003A2025750A2E6D6F7573653A2025750A57
:10065000006565636F6E6669673A0A646566617511
:100660006C745F6C617965723A2025750A000A091D
:100670002D204D61676963202D0A443A0944656263
:100680007567204D65737361676520546F67676C8C
:10069000650A583A094D617472697820446562753B
:1006A00067204D6F646520546F67676C65202D204F
:1006B00053686F77206B657970726573736573200B
:1006C000696E206D617472697820677269640A4B83
:1006D0003A094B6579626F6172642044656275679F
:1006E00020546F67676C65202D2053686F77206BEF
:1006F00065797072657373207265706F72740A4DDC
:100700003A094465627567204D6F75736520546FB3
:1007100067676C650A563A0956657273696F6E0AA7
:10072000533A095374617475730A433A0941637407
:10073000697661746520436F6E736F6C65204D6FD1
:1007400064650A46312D4631303A0953776974633E
:100750006820746F204C6179657220302D39202813
:10076000463130203D204C30290A302D393A09538A
:10077000776974636820746F204C617965722030EA
:100780002D390A47524156453A09537769746368CF
:1007900020746F204C6179657220302028616C7460
:1007A00065726E617465290A423A094A756D702056
:1007B000746F20426F6F746C6F616465720A455389
:1007C000433A094A756D7020746F20426F6F746CE4
:1007D0006F616465722028616C7465726E61746506
:1007E000290A453A095072696E7420454550524FA6
:1007F0004D2053657474696E67730A4253504143C8
:10080000453A09436C65617220454550524F4D0A87
:10081000000A092D20436F6E736F6C65202D0A4509
:1008200053432F713A09717569740A6D3A096D6FF6
:100830007573656B65790A000A092D205665727318
:10084000696F6E202D0A5649443A2030783432358B
:1008500030284261636B70726F70205374756469E5
:100860006F29205049443A20307834443443284496
:100870006F726F3637204D756C7469205043422972
:10088000205645523A203078303030310A425549AE
:100890004C443A2020284A756C20313420323032C2
:1008A00032290A4F5054494F4E533A204C55464135
:1008B000204D4F5553454B45592045585452414BB7
:1008C000455920434F4E534F4C4520434F4D4D41CA
:1008D0004E44204C544F20343039360A4743433A73
:1008E00020352E342E30204156522D4C4942433A69
:1008F00020322E302E30204156525F415243483A2A
:1009000020617672350A000A092D205374617475CE
:1009100073202D0A686F73745F6B6579626F617203
:10092000645F6C65647328293A20253032580A6B5D
:100930006579626F6172645F70726F746F636F6C00
:100940003A20253032580A6B6579626F6172645FB4
:1009500069646C653A20253032580A74696D657295
:100960005F72656164333228293A202530386C582B
:100970000A003F000A6D6F7573653A206F66660A5C
:10098000000A6D6F7573653A206F6E0A000A6B6519
:1009900079626F6172643A206F66660A000A6B655D
:1009A00079626F6172643A206F6E0A000A6D617439
:1009B0007269783A206F66660A000A6D617472691E
:1009C000783A206F6E0A000A64656275673A206F94
:1009D00066660A000A64656275673A206F6E0A00EF
:1009E0000A0A4A756D70696E6720746F20626F6FB6
:1009F000746C6F616465722E2E2E2000433E2000C1
:100A0000436C656172696E6720454550524F4D0ACF
:100A100000313A0964656C6179282A31306D732997
:100A20003A2025750A323A09696E74657276616CEE
:100A3000286D73293A2025750A333A096D61785F6C
:100A400073706565643A2025750A343A0974696DD6
:100A5000655F746F5F6D61783A2025750A353A09D4
:100A6000776865656C5F6D61785F73706565643A22
:100A70002025750A363A09776865656C5F74696D7B
:100A8000655F746F5F6D61783A2025750A00703A72
:100A9000097072696E742076616C7565730A643AC8
:100AA000097365742064656661756C74730A75708A
:100AB0003A092B310A646E3A092D310A6C743A09ED
:100AC0002B31300A72743A092D31300A4553432FC5
:100AD000713A09717569740A0A7370656564203D1D
:100AE0002064656C7461202A206D61785F73706585
:100AF0006564202A2028726570656174202F207437
:100B0000696D655F746F5F6D6178290A77686572DA
:100B1000652064656C74613A20637572736F723D11
:100B200025642C20776865656C3D25640A536565EE
:100B300020687474703A2F2F656E2E77696B697018
:100B4000656469612E6F72672F77696B692F4D6FCE
:100B50007573655F6B6579730A004D3E20004D2506
:100B6000753A25733E20003F0A003D2025750A0096
:100B70003F0A0064656661756C74730A0025750A26
:100B8000003F0A000A092D2056616C756573202DFF
:100B90000A00710A000A092D204D6F7573656B6597
:100BA00079202D0A004C25640A0029001E001F0030
:100BB0002000210022002300240025002600270019
:100BC0002D002E002A0049002B0014001A000800F6
:100BD000150017001C0018000C00120013002F0055
:100BE000300031004C0039000400160007000900F5
:100BF0000A000B000D000E000F003300340000004F
:100C000028004B00E10000001D001B000600190039
:100C1000050011001000360037003800E5005200D2
:100C20004E00E000E300E20000002C0000000000A5
:100C300000000000E60001510000500051004F008C
:100C400035003A003B003C003D003E003F004000C4
:100C50004100420043004400450001000100BF5C28
:100C6000C05CBD5CBE5C005C0100010001000100D5
:100C7000010001000100010001000100010001006C
:100C8000010001000100010001000100010001005C
:100C9000010001000000010001000100000001004E
:100CA000010001000100010001000100010001003C
:100CB000010001000100010001000100010000002D
:100CC0000100000000000000000001000100000021
:100CD000010001000100010001000100010001000C
:100CE00001000100010001000100010001000100FC
:100CF00001000100010001000100010001000100EC
:100D000001000100010001000100010001000100DB
:100D100001000100010001000100010001000100CB
:100D200001000100010001000100000001000100BC
:100D300001000000010001000100010001000100AC
:100D4000010001000100010001000100010001009B
:100D50000100010000000100000000000000000090
:100D6000010001000000010001000100010001007C
:100D7000010001000100010001000100010001006B
:100D8000010001000100010001000100010001005B
:100D9000010001000100010001000100010001004B
:100DA000010001000100010001000100010001003B
:100DB000010001000100010001000100010001002B
:100DC000000001000100010000000100010001001D
:100DD000010001000100010001000100010001000B
:100DE00001000100010001000100000001000000FD
:100DF00000000000000001000100000001000100EF
:100E000001003F00433E200011241FBECFEFDAE077
:100E1000DEBFCDBF04B603FE18C080919D02909145
:100E20009E02A0919F02B091A0028730904BA740F4
:100E3000B04B59F410929D0210929E0210929F02A4
:100E40001092A002E0E0F8E3099511E0A0E0B1E023
:100E5000EAE7F8E502C005900D92AA3CB107D9F780
:100E600022E0AAECB1E001C01D92AD39B207E1F772
:100E70000E94750F0C943B2C0C940000FF93EF9391
:100E8000E091CA01F091CB01309709F00995EF91FB
:100E9000FF910895FC018591803011F0EFDFFBCFC9
:100EA0000895FF27E0E230E247FF0CC0419597FF2D
:100EB00009C0EDE26095709580959095611D711D5A
:100EC000811D911D27FF02C0219530E350E2AA2722
:100ED000660F771F881F991FAA1FA41710F0A41B65
:100EE00063955A95A9F7AA3008F0A95FA05DAF9362
:100EF000F395611571058105910541F7ED3211F406
:100F0000EF93F395F21718F43F93F395FBCF8F917E
:100F1000B5DFFA95E1F70895E991F991859180306F
:100F200021F0853219F0AADFF9CF089520E0E89486
:100F300055915532C1F3503311F4689455915A3399
:100F400048F4505390F3220F022E220F220F200D4F
:100F5000250FF4CF0EF4219589919991533619F309
:100F6000533729F1533559F1BC0188279927E89463
:100F70005C3621F48991999168945591543639F4ED
:100F800046EF7EF077FF0DC08FEF9FEF0AC0553719
:100F90004AE039F0583540E121F0523642E009F09C
:100FA0000895FF93EF937DDFEF91FF91B7CFFF930C
:100FB000EF93FC0181918030B9F360DFFBCFFF93A9
:100FC000EF9368DFF1CFDF93CF93CDB7DEB72596F0
:100FD000A3DFCF91DF9108950E940D2A2FEF84E3C4
:100FE0009CE0215080409040E1F700C000009CE070
:100FF00088E10FB6F894A895809360000FBE909397
:101000006000FFCFA7E1B0E0E8E0F8E00C94062C28
:101010004B8B5C8B6D8B7E8B8F8B611110923702AB
:1010200086E09E01235F3F4FD901E82F1D92EA958C
:10103000E9F795E0FE017396D90101900D929A951A
:10104000E1F79C894E895F897B897D879E876F87C1
:10105000598B488BF901DE01179601900D928A9504
:10106000E1F7CE0107960E94A81881113EC086E0E4
:10107000FE013796DE01119601900D928A95E1F7F7
:10108000FF81E8856A857B856115710531F0EF3F49
:1010900031F481E0FF3F19F403C081E001C080E03A
:1010A00080FD23C02091FC0130E0C90101968770CA
:1010B000992740912D0250E08417950779F1F98323
:1010C000EA837D836C8396E0929FD001939FB00D5D
:1010D0001124A350BE4FFE01319601900D929A95B6
:1010E000E1F78093FC010E94281816E080912D0200
:1010F0009091FC018917F9F0189FC00111248350C9
:101100009E4F0E94A8188823B1F080912D0290E094
:1011100001968770992780932D02E8CF0E940D2AAF
:101120001092FC0110922D02E6EFF1E086E0DF0163
:101130001D928A95E9F76796E3E00C94222C81FDD5
:1011400002C0769A089576980895A9E0B0E0EBEA97
:10115000F8E00C94F82BFC0180819181238134818B
:10116000232B31F09F3F31F491E08F3F19F403C0FE
:1011700091E001C090E090FDA2C67F0185E0DE0114
:10118000119601900D928A95E1F7F70122818981EC
:101190009A81222349F00E943229182F682F8981D1
:1011A0009A810E94952903C00E946129182F6981A4
:1011B0007A81812F0E94D2278C01F70182818823B6
:1011C00009F4F5C0980122513F452031310508F05E
:1011D00078C58FEF93E00E94282B8111F1C0025156
:1011E0003FE7832E32E0932E002379F08114F4E060
:1011F0009F0609F4E5C0C4010E94282B811101C09B
:1012000001502FEF821A920AEFCF1E821F8218869A
:101210001986442443942AE0322E84010F5F1F4F25
:10122000C4010E94282B8E831F82882309F4C8C022
:101230009FEF980F933060F48F834E8232E0830EDD
:10124000911CC8010E94282B8887811102C0B8C058
:1012500048018E010A5F1F4FF80120812223E9F225
:10126000213009F04CC08181813049F46801F2E0FD
:10127000CF0ED11CF80182810E94092B0AC0823056
:1012800051F46801F2E0CF0ED11CF80182810E9476
:10129000652A860189C0833049F46801F2E0CF0EE7
:1012A000D11CF80182810E942A2AF3CF843019F0E0
:1012B0000F5F1F4F79C0F80122810E5F1F4F80E042
:1012C00090E030E0205331092A30310568F4389E2F
:1012D000A001399E500D1124C901840F951F0F5F85
:1012E0001F4FF8012081EDCF009709F45DC0EFE9B1
:1012F000FFE03197F1F700C000000197F5CFE22F32
:10130000F0E0E25DFE4F5490822F8695869586959B
:1013100090E0FC01E25EFE4F64902770712C022E7B
:1013200002C0759467940A94E2F7F1E06F22772483
:10133000FC01E25FFE4FA490B12C022E02C0B594D6
:10134000A7940A94E2F731E0A322BB24FC01E25007
:10135000FF4FC490D12C02C0D594C7942A95E2F7D0
:1013600081E0C822DD246114710419F081EE0E942D
:10137000652AA114B10419F086EE0E94652A852D14
:101380000E94092BA114B10419F086EE0E942A2AAA
:101390006114710419F081EE0E942A2AC114D1044B
:1013A00019F08CE20E94092B0F5F1F4F55CF0031BF
:1013B000FFE51F07B9F481E00E94CF290E942F1A90
:1013C00080912E02877009F47AC5F7018281882303
:1013D00009F475C58091D80182FF71C582E00E9431
:1013E000DC176DC501312FE51207A9F482E0E4CFC7
:1013F0000D3B3CE5130709F473C408F4D3C40F3B59
:101400002CE5120709F4E1C408F493C4003C9CE500
:10141000190709F421C5033FFCE51F0799F406E20B
:1014200021EE40EE63EF7CE509C0073DECE51E07C9
:1014300011F506E221EE41EE67ED7CE5C7010E9461
:10144000CF26BECF043F2CE5120708F05FC1083D50
:101450003CE5130731F407E225EE45EE68ED7CE547
:10146000EDCF093D9CE5190701F708E221E045EEC3
:1014700069ED7CE5E3CF882309F47DC110926F020A
:1014800003309DE5190758F40A3FECE51E0780F488
:10149000C80182509C45449708F057C109C00136E5
:1014A000FDE51F0729F0053A2DE5120709F04DC1AA
:1014B0000E94D2169093D8018093D70101313CE568
:1014C000130709F4C9C008F043C009309CE51907A7
:1014D00009F49EC008F50530FCE51F0709F488C033
:1014E00080F403303CE5130709F47BC008F07DC0AD
:1014F00002309CE5190709F0F9C08091D70181609D
:10150000F3C00730ECE51E0709F47AC008F07CC090
:101510008091D7018061E8C00D302CE5120709F4F5
:1015200089C058F40B308CE5180709F47BC008F02B
:101530007DC08091D701886071C00F30ECE51E0737
:1015400009F482C008F084C08091D701877FCCC0A5
:101550000D3F2CE5120709F473C008F505318CE541
:10156000180709F487C068F40331ECE51E0709F495
:1015700077C008F097C00E940D2A8091D7018F771D
:10158000B3C00B3F2CE51207B9F108F056C00A3F73
:101590008CE5180709F0AAC08091D80141C001303C
:1015A0009DE5190709F48AC058F40F3FFCE51F07B1
:1015B00009F45BC008F06AC08091D801826030C035
:1015C00001363DE5130709F47FC0053A8DE518079C
:1015D00009F484C002309DE5190709F087C060E076
:1015E0006EC08091D70182607FC08091D70116C004
:1015F0008091D701886078C08091D80182604FC007
:101600008091D701806270C08091D70180646CC0E6
:101610000E940D2A8091D701806866C0846064C0F2
:1016200081603DC08091D7018E7F5EC08091D701DF
:101630008D7F5AC08091D70116C08091D80118C003
:101640008091D8018D7F2BC08091D7018F7E4CC0B7
:101650008091D7018F7D48C08091D7018F7B44C096
:101660008091D701877F8B7F3FC08091D8018D7F8C
:101670008E7F15C08091D70182FB222720F991E04F
:10168000922790FB82F990FB83F92EC08091D801BC
:10169000982F909591708E7F892B90FB81F9809384
:1016A000D80124C00E940D2A8091D70187FB2227F0
:1016B00020F991E0922790FB87F916C061E08EE057
:1016C00090E00E94362B12C08091D70184FB222724
:1016D00020F991E0922790FB84F906C08091D70110
:1016E000982F909590FB80F98093D7016091D70156
:1016F0001091D80184E090E00E94362B612F82E2A5
:1017000090E00E94362B0E940D2A5ACE053FFCE540
:101710001F0731F406E221EE42EE65EF7CE58ECE46
:10172000053F2CE5120730F407E225EE44EE64EFA6
:101730007CE584CE063F3CE5130709F09CCE07E22A
:1017400025EE46EE66EF7CE579CE06318CE518078E
:1017500059F5809138028A7A91E009F490E09093EB
:10176000CC01882311F065E301C069E28EEE91E0BF
:101770000E947C2616C006312CE5120709F061C0D4
:101780008091CC01882309F498C385E3EEEEF1E063
:101790009281891301C01282319621E0E43FF20761
:1017A000B9F70E9467170CCE0A353DE5130709F417
:1017B00043C0D0F401309CE51907F9F00E3DECE58B
:1017C0001E0771F10115FCE51F07D9F50E940D2ACE
:1017D0009FEFE4E3FCE09150E040F040E1F700C00F
:1017E00000000E94E225ECCD0C352DE51207E1F05A
:1017F00028F1073A1D45B1F024C080916702982F67
:101800009095917090FB80F980936702992319F06D
:101810008FE392E002C08DE292E00E944A07D0CDB1
:101820000E94EF160E94EC078091D80182FB882766
:1018300080F991E0892703C081E001C080E00E9427
:10184000F917F701828100811181882349F0C801CD
:101850000E943229D82E682FC8010E94952904C001
:10186000C8010E946129D82EB8018D2D0E94D2276F
:101870000E943815B82E192F982EF7010281A580E5
:10188000A2949FE0A92280912E028770B9F00023D4
:10189000A9F0812F807F803421F080E28B0D883089
:1018A00068F08091D80182FF09C082E00E94DC17B5
:1018B00080912E028770DD24D3948111D12CC12E0A
:1018C000C2948FE0C8228C2D90E08C30910508F0F6
:1018D000D7C1FC01EA5AFF4F0C94D02B812F807F97
:1018E0001F70882311F01295107F0023B9F0112387
:1018F00009F4B4C180E28B0D883010F0911006C05D
:1019000080913802182B1093380205C0809137025D
:10191000182B109337020E946717A0C18B2D0E94CD
:101920002A2A112309F4ACC180E28B0D883080F1A2
:10193000992071F110958091370218231093370286
:101940002AC0812F807F1F70803211F01295107F86
:101950008B2D992021F0F1E09F16D9F149C080919B
:10196000D80182FD1BC0002369F0112339F080915A
:101970003802182B109338020E94671780E00E94EB
:10198000652A7EC180E00E942A2A112309F478C1C9
:10199000812F0E9460170E94671772C1002381F097
:1019A00080913902AA2051F021E0A21207C0182B21
:1019B000181709F465C11093390262C1812B10C058
:1019C000AA2021F031E0A31609F45AC10E945A1747
:1019D00027C0002341F085E08A1508F451C1812F0A
:1019E0000E94202A4DC194E09A1508F449C118C0FC
:1019F000002349F0AA2099F3F701858180FF2EC1C9
:101A00008F708583ECCFAA2059F0893309F035C156
:101A1000FFEF27EE33E0F15020403040E1F72BC1DB
:101A2000812F0E94192A2CC1812F8695869583705B
:101A300019F0813061F024C1002321F08B2D912F0A
:101A4000937002C080E090E00E94AC2621C1002388
:101A500021F08B2D912F937002C080E090E00E94C6
:101A6000962616C18B2D002319F00E94EF2302C089
:101A70000E9400230E9454220BC1812F8370A9F57C
:101A8000011102C14B2D429546954770440F440FFA
:101A90008B2D8F7090E09C01042E01C0220F0A94C0
:101AA000EAF7B4FE08C08FE090E001C0880F4A95C5
:101AB000EAF7809501C080E01695169513701230F4
:101AC00069F088F490913A02113019F0822B892341
:101AD00002C0922B892B0E94E829D6C0822B9091BC
:101AE0003A028927F8CF822BF6CF002319F0812FF5
:101AF000817001C08695882309F4C6C04B2D42959C
:101B000046954770440F440F8B2D8F7090E09C01D9
:101B1000042E01C0220F0A94EAF7B4FE08C08FE039
:101B200090E001C0880F4A95EAF7809501C080E0F7
:101B3000169516951370123059F078F4909157025B
:101B4000113019F0822B892309C0922B892B06C0F2
:101B5000822B90915702892701C0822B0E94CA29AB
:101B600093C01F70002339F0812F0E94DC298B2D38
:101B70000E94202A89C08B2D0E94192A812F0E9441
:101B8000CF2982C08B2D92EF991681F1991538F0EB
:101B9000E0EF9E1659F0F1EF9F1619F15BC023EFAD
:101BA000921659F134EF9316C1F054C0002381F01E
:101BB00084E08A1508F464C01F7181E090E0012E72
:101BC00001C0880F0A94EAF790915702892720C034
:101BD00095E09A1508F454C0EFCF8091D80182FDAA
:101BE0001AC0002329F0812F8F7127C00023D9F359
:101BF000812F8F710E94CF2943C0002341F01F71B4
:101C000081E0012E01C0880F0A94EAF701C080E04C
:101C10000E94CA2935C0002399F01F71812F0E94AC
:101C2000DC298091D80182FF07C0E8E01E9FC00137
:101C30001124836080932E02812F0E94DC2920C012
:101C400081E00E94DC17F1E0FA15D0F482E00E94F6
:101C5000DC1716C0002321F0AA2029F28B2D8FCE8D
:101C6000AA2031F2893349F42FEF37EE83E0215077
:101C700030408040E1F700C000008B2D0E942A2AEE
:101C800088EF8C0D843020F40E94C2260E949F08A9
:101C9000DD2009F414C180912E0280FD10C1F701EE
:101CA00012828595859585950E94DC29C7010E9441
:101CB000A50880912E028595859585950E94CF294E
:101CC000FEC00031EFE51E0711F481E006C00131CE
:101CD000FFE51F0709F08CCB82E00E94DC296ECB68
:101CE00080916502982F969596959695A1F0915EB4
:101CF000990F990F990F8770892B80936502887FC0
:101D000091E009F490E08091650290FB80F9809366
:101D100065020E9408228091670280FF3BC080918B
:101D200065028695869586951F928F938EEA91E03F
:101D300029C020916502822F869586958695482F29
:101D400050E04730510554F48F5F982F990F990F49
:101D5000990F822F8770892B80936502809165028D
:101D60008160809365020E9408228091670280FF53
:101D700011C0809165028695869586951F928F93F6
:101D800086EC91E09F938F930E94E3070F900F9052
:101D90000F900F90809165028695869586950E949A
:101DA00063210ECB0B3BECE51E0711F487E006C068
:101DB0000C3BFCE51F0709F02ECB80E00E940E22B1
:101DC000809165020E940822FBCA10916502117081
:101DD0008091670280FF0CC01F921F9383E092E006
:101DE0009F938F930E94E3070F900F900F900F9097
:101DF000809165021123A9F080FFE2CA8E7F809353
:101E000065020E9408228091670280FF08C08EED63
:101E100091E09F938F930E94E3070F900F9080E0D3
:101E2000BECF80FDCDCA816080936502813019F4F8
:101E300089E080936502809165020E94082280916A
:101E4000670280FFA7CF81EF91E09F938F930E945D
:101E5000E3070F900F909ECF90916502892F869592
:101E6000869586958F5F8F71883040F4880F880F34
:101E7000880F9770892B8093650203C097709093A9
:101E8000650280916502887F91E009F490E080917D
:101E9000650290FB80F9809365020E940822809180
:101EA000670280FF77CF809165028695869586953B
:101EB0001F928F9389E192E065CF89E267CC2996E2
:101EC000E1E10C94142C8295982F937344E0949F35
:101ED000900111248C7C86958695282B822F857500
:101EE000880F2A7A2695822B0895ADE2B0E0EBE7C1
:101EF000FFE00C94F72B85B7806885BF85B78068B5
:101F000085BF84B7877F84BF0FB6F894A89580916A
:101F10006000886180936000109260000FBE90E0C6
:101F200080E80FB6F89480936100909361000FBE33
:101F30008EE494E29093CB018093CA010E944F1DDE
:101F40000E946E1D8091E20084608093E20078948C
:101F500080914D028823A1F01091E9001F709091AB
:101F6000EC00892F817090FD80E8182B1092E90019
:101F70008091E80083FD0E943B1A1F701093E900D6
:101F800082E084BD93E095BD9AEF97BD80936E008B
:101F90000E944A21811102C00E943A2103E111E00E
:101FA000F8E1EF2EF1E0FF2ED8018D918D018F3FEA
:101FB00011F00E945D14E016F106B1F708E111E09E
:101FC000E7E2EE2EE1E0FE2EF80181918F018F3FD6
:101FD00011F00E945D14E016F106B1F78AE0E4EE1C
:101FE000F1E0DF01282F1D922A95E9F7EDECF1E0F1
:101FF000DF011D928A95E9F70E94E316811102C064
:102000000E94EF1682E090E00E94282B80936702E6
:102010000E94D2169093D8018093D7010E94741425
:10202000BFEFE6E7F1E0B150E040F040E1F700C07B
:1020300000000E9474148091E40180FF08C06FEFDB
:102040007FEF80E090E00E94542B0E94E22583E025
:1020500090E00E94282B0E94E8296E9A769A279A8F
:102060002F988AE08093800089E1809381008FEF30
:102070009FEF90938700809386000E9428220E9401
:10208000282280E091E09093730280937202809105
:102090004D02853009F054C080E592E00E944A0765
:1020A00000E112E180914D02853009F041C080913C
:1020B0004D02843051F180E00E94632180E00E9453
:1020C0009F081092760228E130E040E40FB6F894C1
:1020D000A895209360000FBE4093600083B7817F76
:1020E000846083BF83B7816083BF7894889583B70A
:1020F0008E7F83BF0FB6F894A895809160008861A9
:1021000080936000109260000FBE80914C02882383
:1021100009F4C8CF0E947414E4EEF1E0819191912A
:10212000892B09F063C351E0EE3EF507B9F7BACF4A
:102130000E940D2A0E9428220E94C2260E949F0807
:102140000E94741481110E943B2674EEC72E71E028
:10215000D72E89ED91E09CA78BA7260100E010E027
:102160000DA7D201AD90BD902D01EBA5FCA561900E
:102170007190FCA7EBA76A247B2461147104B1F46D
:102180000F5F1F4F0530110559F78FEF8EA38FA3F7
:1021900018A60E9447268160782F9AA789A74EA18A
:1021A0005FA168A58AA50E94020878C08091670295
:1021B00081FD05C080E0EE24E394F12C49C084E663
:1021C00092E00E944A0754EE852E51E0952EE12CB4
:1021D000F12CFF92EF922FE532E03F932F930E9474
:1021E000E3078CE592E00E944A07D4018C91119696
:1021F0002C90B2E08B0E911C0E94630F382E822D22
:102200000E94630F232D30E0322F2227F901E82BA3
:10221000CF019F938F9326E532E03F932F930E9447
:10222000E30784E592E00E944A075FEFE51AF50AAA
:102230000FB6F894DEBF0FBECDBF95E0E916F104EE
:1022400041F6B8CF8F5FEE0CFF1C8F3009F498CFAA
:1022500093012E213F21232BA9F389A3ADA5AAA386
:10226000AE20BF2081E0AB2809F480E08BA30E9460
:1022700047268160782F9DA38CA349A15AA16BA109
:102280008DA10E940208000F111FF801E752FE4FB6
:1022900080819181E826F926F182E08286E0EFE5EF
:1022A000F2E08E010F5F1F4FD80101900D928A95C9
:1022B000E1F7109261021092620210926302109292
:1022C00064028B81811104C08C81882309F45FC072
:1022D00080915D0290915E020E942C26AC0190914B
:1022E0005A02992339F02091110130E02417350763
:1022F00058F04DC020911201BAE02B9F900111249B
:102300002417350718F043C09F3F19F09F5F909343
:102310005A02FB80FF2061F00E94B0231F1414F4C6
:1023200091E001C09FEF899F802D1124809361026D
:10233000FC80FF2061F00E94B0231F1414F491E090
:1023400001C09FEF899F802D1124809362023091FC
:1023500061023323E1F0209162022223C1F045EBB8
:102360003403C0011124992319F09093610203C032
:1023700081E08093610255EB2503C001112499236C
:1023800019F09093620203C081E0809362028D8114
:10239000811104C08E81882309F453C080915B02AF
:1023A00090915C020E942C269C01909158029923E6
:1023B00009F43BC22135310508F443C09F3F19F0B1
:1023C0009F5F90935802FD80FF2061F00E94772369
:1023D0001F1414F491E001C09FEF899F802D1124F8
:1023E00080936302FE80FF2061F00E9477231F1418
:1023F00014F491E001C09FEF899F802D11248093F8
:102400006402309163023323E1F0209164022223BD
:10241000C1F045EB3403C0011124992319F09093C6
:10242000630203C081E08093630255EB2503C00182
:102430001124992319F09093640203C081E08093E2
:10244000640246E050E0B8018FE592E00E942E2C35
:10245000892BA9F48091610281110FC080916202E1
:1024600081110BC080916302811107C081E09091BE
:102470006402911103C080E001C081E080FD0E94F0
:10248000542286E0F801AFE5B2E001900D928A9502
:10249000E1F70E94C226F82E8091E301F81639F187
:1024A000F092E3018091670282FF1EC080FF04C0AA
:1024B00082E892E00E944A078091670280FF0CC088
:1024C0001F92FF928DE792E09F938F930E94E30704
:1024D0000F900F900F900F908091670280FF04C0C3
:1024E0008BE792E00E944A078F2D0E949F088091FF
:1024F0004D02843009F0CBCD83E08093E9008091D8
:10250000E80082FFC4CD8091E80085FF21C00E94D1
:10251000F41E81111BC080E2E82EF12C580109C085
:102520008091F100D5018D935D01B1E0EB1AF108C6
:1025300069F08091E80085FDF3CF8091E8008B770A
:102540008093E8000E94F41E882399F391E001C073
:1025500090E08091E8008B778093E800992309F45C
:1025600096CDE9818E2F90E0FC013197E331F105A2
:1025700008F012C1EE59FF4F0C94D02B1A8289E05B
:1025800075C08A81823009F447C1833051F08130AF
:1025900009F002C10E943B269B838C837D836E835E
:1025A000FDC0F801CE010B96D6012C9111963C91FD
:1025B000B2E0CB0ED11C3283238332968E179F0755
:1025C00099F7ECC08A81823009F0E6C06B817C818A
:1025D0008D819E810E94D62B0E941621DFC04C81E6
:1025E0006B818A810E94A4279D831DC12D813E811C
:1025F0003227232732274C816B818A810E9448270A
:10260000CDC00E946F27CAC08A81893009F0C6C038
:102610008B81E7E08E9FC00111246FEF70E00E9474
:10262000862B862F0E940E22B9C08A81893029F01C
:102630008A3009F0B3C01B82B1C0809165028695D3
:1026400086958695FFEF8F9FC001112467E070E0AB
:102650000E94862B6B83A2C0809165020E94082293
:102660009DC080E152C081E08A8381E88B8396C05F
:10267000EA80FB80FE24EF24FE24AC80B12C6801AC
:10268000C70181589D4F9601201B310B2A153B0530
:1026900008F084C021E8E21621E0F20630F40E943E
:1026A000282BD60114968C9302C0F6011482FFEFFA
:1026B000EF1AFF0A2FEFC21AD20AE2CFEA80FB809C
:1026C000FE24EF24FE24AC80B12C6801C7018158A0
:1026D0009D4F9601201B310B2A153B0508F05EC06B
:1026E00031E8E31631E0F30628F4D60114966C9134
:1026F0000E94362BBFEFEB1AFB0AEFEFCE1ADE0A71
:10270000E5CF0E9438274AC084E08A8347C0EA8028
:10271000FB80FE24EF24FE24AC80B12C6801C701AD
:1027200087969601201B310B2A153B05B8F5F8E575
:10273000EF16F2E0FF0630F40E94282BD601149623
:102740008C9302C0F6011482FFEFEF1AFF0A2FEFFD
:10275000C21AD20AE4CFEA80FB80FE24EF24FE24D2
:10276000AC80B12C6801C70187969601201B310B04
:102770002A153B0598F438E5E31632E0F30628F411
:10278000D60114966C910E94362BBFEFEB1AFB0A10
:10279000EFEFCE1ADE0AE7CF8FEF898380914D02EB
:1027A000843009F074CC8091E9008F702091EC00A6
:1027B000922F917020FD90E8F92EF82A82E0809304
:1027C000E9008091E80080FF0CC040E050E060E24A
:1027D00070E0C8010E94271F8091E8008E778093E7
:1027E000E8008F2D8F708093E90051CC09BD19BD91
:1027F00009B400FEFDCF8091D8008F7D8093D80072
:102800008091E00082608093E0008091E00081FD93
:10281000FCCF0E940D2A46CC86E290E00E94282B35
:102820001B821C821D828E83B9CF2B30310508F0AC
:10283000C7CD07CE9091D70192FF0DC0282F2871E8
:10284000283019F4877F846006C0282F2471243033
:1028500011F48B7F886093FF0DC0282F28712831D9
:1028600019F4877E846106C0282F2471243111F465
:102870008B7E88612091D80120FF0DC0382F3871E0
:10288000383019F4877F816006C0382F31713130BC
:1028900011F48E7F886021FF0DC0282F2871283108
:1028A00019F4877E816106C0282F2171213111F42E
:1028B0008E7E886194FD877E0895F894E82FE295D6
:1028C000EF70F0E031A1282F2F7081E090E001C07F
:1028D000880F2A95EAF7982F9095932391A392A1B8
:1028E000892B82A378940895AAE0B0E0EAE7F4E1A6
:1028F0000C94FD2BAE014F5F5F4F7A018AE0FA0125
:1029000011928A95E9F703E111E06A01AA24A394E0
:10291000B12CF80180818F3F09F447C0F894E82F6B
:10292000E295EF70F0E021A18F70A50102C0440F85
:10293000551F8A95E2F7CA01922F982B91A392A175
:102940008095892382A3789400C0E8E1F1E021E03A
:1029500030E0812C912C41914F3F89F0A42FA2951A
:10296000AF70B0E090968C9190E04F7002C095955A
:1029700087954A95E2F780FD02C0C90102C080E058
:1029800090E0882A992A220F331F51E0E732F50799
:1029900011F7F80180818F3F11F00E945D14F0EA79
:1029A000FA95F1F7F601918280820F5F1F4FF2E0F6
:1029B000CF0ED11C41E00831140709F0AACF4AE03C
:1029C00050E0B7018DEC91E00E942E2C11E00097B1
:1029D00009F410E0892B89F08AE0F701ADECB1E051
:1029E00001900D928A95E1F781E080933D020E946B
:1029F000472690933C0280933B0280913D028823BE
:102A000091F180913B0290913C020E942C26059707
:102A100050F18091CD019091CE019093E50180938A
:102A2000E4018091CF019091D0019093E7018093D0
:102A3000E6018091D1019091D2019093E9018093B8
:102A4000E8018091D3019091D4019093EB018093A0
:102A5000EA018091D5019091D6019093ED01809388
:102A6000EC0110923D02812F2A96ECE00C94192C77
:102A7000CF93DF938238910569F1B0F481339105EA
:102A800009F46FC048F48932910509F465C08A32AF
:102A9000910509F46BC08AC08533910509F457C0CC
:102AA00089339105B9F082C0833E910571F138F404
:102AB000803E9105B1F0823E910511F177C0863ECE
:102AC0009105B9F1873E9105C9F1843E910509F060
:102AD0006DC024C02091D70120FD53C021FD51C0FD
:102AE00065C08091D70180FD46C08091D80180FFEC
:102AF00048C08091D70184FD50C183EE90E04FC162
:102B00008091D70182FF3AC0F4CF8091D70182FD36
:102B100035C08091D80180FD34C0EBCF8091D801C1
:102B200081FF35C08091D70184FD37C187EE90E0E9
:102B300036C18091D70183FF27C0F4CF8091D701A0
:102B400083FD22C08091D80181FD21C0EBCF80910F
:102B5000D70185FD1FC021C08091D70185FD1DC013
:102B600019C08091D70186FD1BC01DC08091D7017F
:102B700086FD19C015C089E390E011C182EE90E096
:102B80000EC180EE90E00BC186EE90E008C184EEAD
:102B900090E005C189E290E002C185E390E0FFC0CA
:102BA0008AE290E0FCC081E390E0F9C0811531E554
:102BB000930708F069C0811540E59407F0F09C0187
:102BC00074E0369527957A95E1F7922F9370482F08
:102BD000437021E030E002C0220F331F4A95E2F734
:102BE0003C68392B982F9F709695969540E2949F5C
:102BF000C0011124822B932BD2C0883E910568F529
:102C0000803E910508F0CBC0883A9105B8F4853A2A
:102C1000910548F0855AE82FF0E0E95DFE4F80818C
:102C200090E09064BCC08130910509F4B3C008F411
:102C3000B4C08430910508F4B0C0B1C08F3B910599
:102C400008F0ABC0885AE82FF0E0EE0FFF1FE65DFA
:102C5000FE4F808191819464A2C0811520E2920789
:102C600058F4811531E0930708F099C0803F910531
:102C700008F493C0906593C0811540E4940708F46C
:102C80008CC09F70906A8BC0811525E5920708F073
:102C900042C0811534E5930728F0982F8827846F68
:102CA000906A7DC0811543E59407B0F09C012370C4
:102CB000332741E050E002C0440F551F2A95E2F748
:102CC000282F2695269580E2289F90011124CA017D
:102CD000822B932B9A6863C0811522E5920728F412
:102CE000982F8827816F906A5AC09C0123703327E0
:102CF00041E050E002C0440F551F2A95E2F7282F0B
:102D00002695269580E2289F90011124CA01822BE6
:102D1000932B9C6844C0EC01811539E59307A8F416
:102D20008115984528F09C2F8827806F906A37C0BE
:102D3000C11586E5D80788F58C2F0E941A148F716B
:102D400090E0982F882790622AC081152AE5920783
:102D500090F48C2F8F700E941A1494E0D695C7952A
:102D60009A95E1F7CF70D0E0DC2FCC27D0699E0197
:102D7000282BC90114C090568115904270F48D2FF4
:102D80008F710E941A14282F2F71CE0199279062FB
:102D9000922B05C081E090E002C080E090E0DF91DE
:102DA000CF910895CF9384E090E00E94282BC82F04
:102DB00082E290E00E94282B2C2F30E0A901582BB2
:102DC000CA01CF91089580E090E00E94302B883EA8
:102DD0009E4F19F40E944A21089580E0089568EEFC
:102DE0007EEF80E090E00E94542B60E082E090E073
:102DF0000E94362B60E083E090E00E94362B109218
:102E00003A0260E084E090E00E94362B64E082E2C7
:102E100090E00E94362B60E085E090E00E94362B27
:102E200060E086E090E00E94362B6FEF87E090E054
:102E30000E94362B40E050E0BA0188E090E00E940A
:102E4000482B60E08DE090E00E94362B40E050E09F
:102E5000BA0188E190E00E94482B60E087E190E0B1
:102E60000E94362B40E050E0BA018CE190E00E94D5
:102E7000482B60E070E080E290E00E94542B40E03C
:102E800050E0BA0188E190E00E94482B80E00E9467
:102E90001B210E943A2140E050E0BA018FE090E00F
:102EA0000E94482B40E050E0BA0183E190E00E948C
:102EB000482B0895809139028111109239020895AA
:102EC0008095909138028923809338020895EF927B
:102ED000FF920F931F93CF93909138028091370206
:102EE000982B9093EE0180913902882389F0892BE9
:102EF0008093EE01E0EFF1E097E080E0915029F05F
:102F000021912223D9F38F5FF9CF81110E945A17A3
:102F100048E050E06FE272E08EEE91E00E942E2CCD
:102F2000892B09F443C088E0EEEEF1E0AFE2B2E0B5
:102F300001900D928A95E1F7E0917202F09173028F
:102F40003097A1F10280F381E02D8EEE91E009959A
:102F50008091670282FF2AC080FF04C08AEA92E063
:102F60000E944A070EEE11E0C8E084EAE82E82E0F3
:102F7000F82E8091670280FF0CC0F80180811F92BB
:102F80008F93FF92EF920E94E3070F900F900F90A4
:102F90000F90C1500F5F1F4FC111EBCF809167029F
:102FA00080FF04C082EA92E00E944A07CF911F91FD
:102FB0000F91FF90EF90089520912E02809582232B
:102FC00080932E02982F977099F430E0482F082EA6
:102FD000000C550B2417350759F09091D80192FF3A
:102FE00007C08595859585950E94CF2910922E0260
:102FF0000895CF93DF93C091D801C2FB992790F930
:10300000981719F1D82F80FBC2F9C093D8016091AD
:10301000D70184E090E00E94362B6C2F82E290E092
:103020000E94362B82E00E94DC178091670280FFAD
:103030000CC01F92DF938DE892E09F938F930E94C4
:10304000E3070F900F900F900F90DF91CF910895AD
:1030500080912D029091FC01891719F08F5F877084
:10306000FBCF08950F931F93CF93DF938091FB01C4
:1030700082958F7009F05AC08091F801882309F475
:1030800055C080912D021091FC016091F601709164
:10309000F701C091F901D091FA0191E06F3F09F079
:1030A00090E0292F06E0811709F440C0209721F015
:1030B0007F3F21F030E003C031E001C0322F90E0CB
:1030C00030FD31C0089FF001099FF00D1124DF0190
:1030D000A350BE4F11963C911197371324C03C91D9
:1030E000361321C012963C91129731111CC01396D1
:1030F0004D915C9114974C1B5D0B483C510598F425
:103100008091FB018F7080618093FB01EE5FFD4F2A
:1031100080818F708061808386EF91E00E94A50896
:103120000E94281803C001968770BDCFDF91CF9110
:103130001F910F910895CF93DF93EC010E943229E4
:10314000BE010E94D2270E943815DF91CF910895C9
:10315000A1E1B0E0EEEAF8E10C94FE2B8C0185E0F1
:10316000F801DE011D9601900D928A95E1F7F801B4
:10317000E2809091F6016091F7014091F901509140
:10318000FA014115510531F06F3F31F481E09F3F65
:1031900019F403C081E001C080E0F82FF1709F2E88
:1031A00080FD1BC1F80130812181C380D48086EF6E
:1031B000A82E81E0B82EF090F801F601E41BF50B83
:1031C000FF2009F4C7C08091FB01E83CF10508F03D
:1031D00092C0482F407F09F051C0621311C0931371
:1031E0000FC0FE2CE1100CC08F7080618093FB013A
:1031F000C5010E94A5088091FB01F80185832AC1C1
:10320000C114D10431F02F3F31F481E03F3F19F474
:1032100003C081E001C080E080FD03C081E08E2515
:1032200002C080E090E0F82FF170FF2E80FF1CC0FC
:1032300080912D024091FC0156E0841709F4E8C00A
:1032400090E0589FF001599FF00D1124E350FE4F7C
:103250006181261306C06081631303C06281E61298
:1032600003C001968770E9CFFE2CEE2009F4F2C06E
:103270008091FB0181608093FB0149C0621306C00D
:10328000931304C0E11002C0F80186C0C8010E9477
:10329000ED29882351F1EE2041F12091FB01822F8D
:1032A00082958F7090E0029774F08091F601909172
:1032B000F70198878F831986DB86CA862C87CE0113
:1032C00007960E94A50886E0F801A6EFB1E00190FC
:1032D0000D928A95E1F70E9432180AC06217C9F070
:1032E000C8010E94ED2981111EC0C8010E94A508D5
:1032F000FF24F394AFC0482F407F81F786EF91E021
:103300000E94A50886E0F50111928A95E9F7F12C53
:10331000A1C09313E5CFE110E3CFF8018583C80185
:103320000E94A50854C0EE2001F32091FB01822FDA
:1033300082958F7090E0029734F28091F60190911F
:10334000F7019A8389831B82DD82CC822E83CE0192
:103350000196B7CFE83CF105D0F5FE2CEE2029F21E
:10336000621327C0931325C02091FB0120FD18C0D4
:10337000822F82958F70482F50E04115510581F0C2
:10338000F80125834F30510541F08F5F982F9295BA
:10339000907F822F8F70892B8583C8010E94A5089A
:1033A00086E0F801A6EFB1E001900D928A95E1F771
:1033B00051C0C8010E94ED29811185CF8091FB0188
:1033C00081608093FB01C8010E94A50843C086E08C
:1033D000F50111928A95E9F73DC0EE2009F485CFF9
:1033E000C8010E94ED29F82E882309F47ECF86E0DB
:1033F000F801A6EFB1E001900D928A95E1F7809176
:10340000F6019091F7010E949B180E94321822C089
:103410003D872E878D859E850E949B18292F22959A
:103420002F70223028F49F7039F0811105C00BC035
:10343000243028F49F7049F4805E883020F0C80161
:103440000E94A5089F2CF92C05C0F8019581907F5A
:1034500099F7F9CF8F2D6196EBE00C941A2C80919F
:103460005702982F9670963011F4886001C0877FBC
:103470000E94CA290895AAE2B0E0E1E4FAE10C94BE
:10348000062CEFE4F2E08091F100819342E0E73511
:10349000F407C9F780915002833009F463C030F417
:1034A000813071F0823009F49DC0B4C08A3009F4D3
:1034B00089C08B3009F46EC0893009F0ABC020C0E0
:1034C00080914F02813A09F0A5C08091E800877F82
:1034D0008093E8008091530290915402892B21F44B
:1034E00068E083E492E003C060E080E090E070E098
:1034F0000E9484258091E8008B778093E8008AC041
:1035000080914F02813209F085C0809153029091E1
:103510005402009719F0029709F07CC08091E800EE
:10352000877F8093E8008091E80082FD05C080914C
:103530004D028111F8CF6EC02091F3008091F2000E
:1035400090E0922B029731F48091F100813011F0DC
:10355000863021F48091F100809342028091E8004E
:103560008B7754C080914F02813A09F053C080910B
:10357000530290915402892B09F04CC08091E800CD
:10358000877F8093E8008091E80080FFFCCF8091E6
:103590000C0137C080914F028132E1F580915302D6
:1035A00090915402892BB1F58091E800877F809338
:1035B000E8000E9430258091510280930C010E9406
:1035C0000D2A28C080914F02813221F58091E800B8
:1035D000877F8093E8000E9430258091520280937B
:1035E000410218C080914F02813AA1F48091E80015
:1035F000877F8093E8008091E80080FFFCCF809176
:1036000041028093F1008091E8008E778093E8007A
:103610000E9430258091E80083FFE5C180914F0230
:1036200090915002492F50E04A30510508F0DBC11B
:10363000FA01EB58FF4F0C94D02B803821F08238E0
:1036400009F0D1C108C080914B0290914C0299239E
:1036500089F082600FC0809153028F70873008F02C
:10366000C2C18093E9008091EB0085FB882780F937
:103670001092E9009091E800977F9093E800809382
:10368000F1001092F10071C1282F2D7F09F0ABC11C
:10369000882319F0823061F0A6C1809151028130F7
:1036A00009F0A1C1933009F080E080934C022EC054
:1036B0008091510281112AC0809153028F702FEFA7
:1036C000280F263008F08FC18093E9002091EB008D
:1036D00020FF1CC0933021F48091EB00806214C065
:1036E0009091EB0090619093EB0021E030E0A90114
:1036F00002C0440F551F8A95E2F74093EA001092EA
:10370000EA008091EB0088608093EB001092E90062
:103710008091E800877F8093E8000E94302563C194
:10372000811161C1109151021F778091E30080786F
:10373000812B8093E3008091E800877F8093E800ED
:103740000E9430258091E80080FFFCCF8091E3004B
:1037500080688093E300111102C082E001C083E021
:1037600080934D0240C18058823008F03CC12091C6
:103770005102309152022C3D53E0350779F583E038
:103780008A838AE289834FB7F894DE01139620E09A
:103790003EE051E2E32FF0E050935700E49120FF28
:1037A00003C0E295EF703F5FEF708E2F90E0EA303C
:1037B00010F0C79601C0C0968D939D932F5F243162
:1037C00049F74FBF8091E800877F8093E8006AE265
:1037D00070E0CE0101960E948425B5C0809153020D
:1037E00090915402432F552743305105A9F068F4B6
:1037F0004130510509F406C14230510509F0F3C0CA
:103800008BE790E0EFECF3E04BC04132510529F13A
:103810004232510589F1E7C0C901992781309105EC
:10382000A1F058F0029709F0DEC0ECE5F4E0E49175
:103830008E2F90E0ECE5F4E030C0E2EAF4E0E491B1
:103840008E2F90E0E2EAF4E028C0E0E8F4E0E491B2
:103850008E2F90E0E0E8F4E020C08430910508F07D
:10386000C2C0880F991FFC01EC59FE4F0190F081F6
:10387000E02D89E090E014C08430910508F0B3C0D9
:10388000FC01EE0FFF1FE45AFE4F0190F081E02D86
:10389000DC01A85ABE4F8C9190E0009709F4A3C0B8
:1038A0002091E800277F2093E80020915502309175
:1038B00056028217930708F49C0140E02115310558
:1038C00089F180914D02882309F43DC08530D9F1FA
:1038D0008091E80083FD37C08091E80082FD2FC011
:1038E0008091E80080FFEACF4091F3008091F200E0
:1038F00090E0942B2115310559F08830910540F462
:1039000044914093F1003196215031090196F2CF54
:1039100041E0089709F040E08091E8008E778093BD
:10392000E800CCCF4111CDCF0AC080914D02882351
:1039300051F0853041F08091E80083FD04C0809112
:10394000E80082FFF2CF8091E8008B778093E80057
:103950004AC0803809F047C08091E800877F809393
:10396000E80080914E028093F1008091E8008E770C
:10397000D2CE811138C08091510290915202992784
:1039800002978CF58091E800877F8093E800109182
:10399000510210934E020E943025111106C08091F1
:1039A000E30087FD02C081E001C084E080934D0206
:1039B00042E061EC81E00E944F2542E261EC84E04C
:1039C0000E944F2542E261EC82E00E944F2542E2D4
:1039D00060EC83E00E944F2542E261EC85E00E94AA
:1039E0004F2580914D028091E80083FF10C08091A7
:1039F000E800877F8093E8008091EB0080628093ED
:103A0000EB0005C082E190E0EAE4F4E049CFAA9639
:103A1000E3E00C94222C1F920F920FB60F92112408
:103A20002F933F934F935F936F937F938F939F93C6
:103A3000AF93BF93CF93DF93EF93FF93C091E900D0
:103A4000CF708091EC00D82FD17080FDD0E810921B
:103A5000E9008091F000877F8093F00078940E94C5
:103A60003B1A1092E9008091F00088608093F0008A
:103A7000CD2BCF70C093E900FF91EF91DF91CF91F3
:103A8000BF91AF919F918F917F916F915F914F9176
:103A90003F912F910F900FBE0F901F901895E8ED5A
:103AA000F0E080818E7F80831092E2001092DA0035
:103AB0001092E100A0EEB0E08C9181608C93808147
:103AC0008F77808319BCA7EDB0E08C918E7F8C93AB
:103AD00080818F7E8083109240020895A0E0B0E044
:103AE000E4E7FDE10C94012CC8EDD0E088818F7EE5
:103AF0008883E7EDF0E080818160808384E082BF8D
:103B000081E08093400288818E7F888302EE10E0FE
:103B1000F80110821092DA0081EEC82ED12CF60145
:103B2000108288818F7788838881806888838881E4
:103B30008F7D888319BC10924D0210924E02109214
:103B40004C0210924B0290EEE92EF12CF70180818D
:103B50008B7F808388818160888342E060E080E0A1
:103B60000E944F25F60180818E7F8083F80180813D
:103B700081608083808188608083F70180818E7F6F
:103B80008083888180618883CDB7DEB7E8E00C94BC
:103B90001D2C1F920F920FB60F9211242F933F935B
:103BA0004F935F936F937F938F939F93AF93BF9345
:103BB000EF93FF938091E10082FF49C08091E20082
:103BC00082FF45C08091E1008B7F8093E1002091CE
:103BD0003F022F5F822F62E30E947A2B992319F014
:103BE00020933F0234C010923F0280913E0288230E
:103BF00071F180914D02843041F58091E9008F7020
:103C00002091EC00922F917020FD90E8892B95E097
:103C10009093E9009091EB0090FF14C09091EE001A
:103C200097FF10C09091E80095FF03C01092F1003B
:103C3000F9CF9091E80090FF05C09091E8009E7741
:103C40009093E8008F708093E90010923E0280917B
:103C5000DA0080FF32C08091D80080FF2EC08091B2
:103C6000DA008E7F8093DA008091D90080FF1CC03B
:103C700080E189BD82E189BD09B400FEFDCF81E00C
:103C800080934D028BEB93E00E944A0780914002A3
:103C9000811113C00E944F1D0E946E1D8091E20091
:103CA00084608093E20009C019BC10924D028FEB32
:103CB00093E00E944A07109240028091E10080FF49
:103CC0001BC08091E20080FF17C08091E2008E7FD0
:103CD0008093E2008091E20080618093E200809115
:103CE000D80080628093D80019BC85E080934D0293
:103CF00083EC93E00E944A078091E10084FF34C086
:103D00008091E20084FF30C080E189BD82E189BDFD
:103D100009B400FEFDCF8091D8008F7D8093D8003C
:103D20008091E1008F7E8093E1008091E2008F7EA0
:103D30008093E2008091E20081608093E2008091B4
:103D40004E02882311F084E007C08091E30087FDD4
:103D500002C081E001C083E080934D0287EC93E0D4
:103D60000E944A0780914D028091E10083FF2BC0A1
:103D70008091E20083FF27C08091E100877F8093DC
:103D8000E10082E080934D0210924E028091E100AA
:103D90008E7F8093E1008091E2008E7F8093E2002D
:103DA0008091E20080618093E20042E060E080E088
:103DB0000E944F258091F00088608093F0008BEC8A
:103DC00093E00E944A07FF91EF91BF91AF919F91BD
:103DD0008F917F916F915F914F913F912F910F90B4
:103DE0000FBE0F901F9018952091E4003091E500D0
:103DF00095E64091EC00842F817040FF23C08091B4
:103E0000E80080FD1DC080914D02882399F0853027
:103E100099F08091EB0085FD11C04091E400509134
:103E2000E5002417350729F3915011F09A01E1CFED
:103E300084E0089582E0089583E0089581E0089584
:103E400080E008954091E80042FFDDCF0895EF92B1
:103E5000FF920F931F93CF93DF937C018B010E94FE
:103E6000F41E811119C0E70101151105A1F080911F
:103E7000E80085FD0AC08091E8008E778093E80015
:103E80000E94F41E882381F307C089918093F1007A
:103E900001501109E9CF80E0CDB7DEB7E6E00C9420
:103EA0001F2C80910D011F928F9380910E011F9204
:103EB0008F9380910F011F928F93809110011F9219
:103EC0008F93809111011F928F93809112011F9205
:103ED0008F9381E19AE09F938F930E94E3078DB7C0
:103EE0009EB70E960FB6F8949EBF0FBE8DBF089575
:103EF000EF92FF920F931F93CF93DF938B3109F4CF
:103F00001AC108F0B0C08B3009F4D3C008F09AC0D1
:103F1000863009F4D1C020F4853009F4DFC07BC1BC
:103F2000873009F4EDC0883009F075C183E090E076
:103F30000E94282B1F928F9381E596E09F938F9389
:103F40000E94E30782E090E00E94282B83FB9927E0
:103F500090F91F929F9382FB992790F91F929F934C
:103F600081FB992790F91F929F93982F91701F9230
:103F70009F931F928F9388E096E09F938F930E9468
:103F8000E3070E94D21687FB222720F91F922F9366
:103F900086FB222720F91F922F9385FB222720F9E9
:103FA0001F922F9384FB222720F91F922F9383FBCC
:103FB000222720F91F922F9382FB222720F91F929C
:103FC0002F9391FB222720F91F922F93292F2170E5
:103FD0001F922F9381FB222720F91F922F93282FC6
:103FE00021701F922F939F938F9383E295E09F936D
:103FF0008F930E94E3078DB79EB788960FB6F8940B
:104000009EBF0FBE8DBF86E090E00E94282B982FA8
:104010009695969596951F929F93982F91701F92C3
:104020009F931F928F9380EF94E09F938F930E94B2
:10403000E3078DB79EB708960FB6F8949EBF0FBEE4
:104040008DBF35C0803109F49EC020F48E3009F454
:1040500086C0E1C0863109F4B3C0893109F0DBC004
:1040600088E398E0AAC08A32E1F060F4873209F46C
:10407000CEC028F48E3108F4CEC08D51C9C089322B
:1040800069F1C9C0833448F48A3308F0BEC085336F
:1040900009F4BDC0883369F0BEC0833409F4B7C0E9
:1040A000BAC080E09AE00E944A070E94EF16C1E081
:1040B000B7C08EE696E081C080916702817F8E7FD7
:1040C0008093670281E198E00E944A078CEF99E0B3
:1040D0000E944A0781E080936602E9CF80EE99E072
:1040E0000E944A070E940D2A9FEF24E38CE0915022
:1040F00020408040E1F700C000000E94E225D7CFB9
:1041000080916702C82FC095C170C0FB80F9809371
:104110006702CC2329F084ED99E00E944A0780C011
:1041200087EC99E00E944A0780916702897F877F28
:1041300080936702BCCF9091670291FBCC27C0F9B6
:1041400081E0C827892FC0FB81F980936702CC23C7
:1041500019F08AEB99E027C08CEA99E02EC0909183
:10416000670292FBCC27C0F981E0C827892FC0FBEA
:1041700082F980936702CC2319F08DE999E013C08E
:104180008DE899E01AC09091670293FBCC27C0F9A3
:1041900081E0C827892FC0FB83F980936702CC2375
:1041A00051F081E899E00E944A078091670281609E
:1041B0008093670235C084E799E00E944A0777CF71
:1041C0000E943B26162F072FF82EE92ED091410290
:1041D000C0910C010E94C226EF92FF920F931F9391
:1041E0001F92DF931F92CF931F928F9387E099E0E6
:1041F0009F938F930E94E3078DB79EB70C960FB6DF
:10420000F8949EBF0FBE8DBF52CF895301C080E08E
:104210000E94E0274CCF82E799E00E944A07C0E065
:104220008C2FCDB7DEB7E6E00C941F2C86E290E031
:104230000E94362B0895CF93C82F811102C06FEFD3
:1042400001C062E283E290E00E94362BC11102C0FD
:104250006FEF01C067E084E290E00E94362BC1114D
:1042600002C06FEF01C064E185E290E00E94362B4E
:10427000CF91089580E00E941B2160E070E0CB01A7
:104280000E9416210E946F270E94382781E00E9419
:104290001B21089583E290E00E94282B823281F452
:1042A00084E290E00E94282B873051F485E290E070
:1042B0000E94282B91E0843109F090E0892F01C001
:1042C00080E081700895A0E0B0E0E9E6F1E20C94AE
:1042D000FD2B883048F4811108C090918000977FB1
:1042E000909380002F9806C087E09091800098609E
:1042F00090938000A0918600B0918700282F30E035
:104300000E94DD2B27E030E040E050E00E94AE2B21
:104310000027122F232F342F012F122F232F332763
:1043200080918600909187006CE070E00E94862B5F
:104330006017710730F0C80169E070E00E94862BB9
:104340005EC08091860090918700E0908600F0909A
:104350008700E0918600F0918700C6E0D0E0BE01C2
:104360000E94862B060F171F211D311D4801590180
:1043700085E0880C991CAA1CBB1C8A95D1F7C70143
:10438000BE010E94862B6F01E12CF12CA701960142
:10439000260F371F411D511DC501B4010E94AE2BD0
:1043A00069017A01E0918600F0918700CA01B901A4
:1043B0000E946A2B9B01AC01DF010E94EC2B9B0148
:1043C000AC01C701B6010E946A2BDC01CB012FE0D2
:1043D000B695A795979587952A95D1F70091860070
:1043E0001091870020E030E0081719072A073B07E3
:1043F00028F46091860070918700CB01BC01709316
:104400008D0060938C00CDB7DEB7ECE00C94192CD6
:10441000682F86E090E00E94362B0895883008F0DF
:1044200087E0909165029770282F220F220F220FAC
:10443000922B90936502987F21E009F420E09091FF
:10444000650220FB90F9909365020E946321089514
:104450000E94E31681110AC00E94EF168091650246
:1044600084708963809365020E94082286E090E050
:104470000E94282B80936502282F26952695269545
:1044800030E02830310524F087708863809365021E
:104490008091650280FF04C086958695869501C04F
:1044A00080E00E94632108958091670283FF7EC0AF
:1044B0008DEC94E00E944A07809160021F928F93D6
:1044C00088EC94E09F938F930E94E30786EC94E03E
:1044D0000E944A0780916102282F082E000C330B9E
:1044E0003F938F9383EC94E09F938F930E94E30715
:1044F00081EC94E00E944A0780916202282F082EE6
:10450000000C330B3F938F938EEB94E09F938F932C
:104510000E94E3078CEB94E00E944A0780916302BB
:10452000282F082E000C330B3F938F9389EB94E0D8
:104530009F938F930E94E30787EB94E00E944A07C2
:1045400080916402282F082E000C330B3F938F9329
:1045500084EB94E09F938F930E94E30781EB94E0B8
:104560000E944A0780915A021F928F938EEA94E02C
:104570009F938F930E94E3078CEA94E00E944A077E
:10458000809159021F928F9389EA94E09F938F93B1
:104590000E94E30786EA94E00E944A078DB79EB71F
:1045A0004C960FB6F8949EBF0FBE8DBF0E94472653
:1045B00020916102211104C020916202222321F086
:1045C00090935E0280935D0220916302211104C0EA
:1045D00020916402222321F090935C0280935B027D
:1045E000E0917202F0917302309749F082E080937B
:1045F0005F020480F581E02D8FE592E00995089532
:10460000803F39F49091620297FF35C010926202A8
:1046100059C0813F29F4909162021916BCF32BC056
:1046200090916102823F29F497FF25C010926102A8
:1046300049C0833F19F41916CCF31DC09091630251
:10464000893F29F41916BCF4109263023BC08A3FDB
:1046500019F497FF10C0F8CF8B3F39F490916402A2
:1046600097FF09C0109264022DC08C3F21F49091F5
:1046700064021916BCF39CE0980F953080F421E099
:1046800030E0A90102C0440F551F9A95E2F7CA0114
:1046900080959091600289238093600213C08D3FC2
:1046A00021F4809159028E7F0BC08E3F21F48091BE
:1046B00059028D7F05C08F3F29F4809159028B7F6D
:1046C0008093590280916102811106C0809162023B
:1046D000811102C010925A0280916302811106C0BA
:1046E00080916402811102C0109258020895809155
:1046F000590280FF08C060910E0170E075956795C2
:104700007595679521C081FF06C060910E0170E02C
:104710007595679519C082FF04C060910E0170E025
:1047200010C090915802992399F060910D0196174D
:10473000A0F780910E01899FC001112470E00E94B2
:104740009A2B6038710540F46115710519F406C0A3
:1047500061E070E0862F08958FE7089581E0089565
:104760008091590280FF06C06091100170E0660FD1
:10477000771F26C081FF04C06091100184E005C04E
:1047800082FF07C06091100188E0689FB00111248A
:1047900017C090915A029923D1F060910F0196179A
:1047A00088F72091100188E0289F90011124929FA2
:1047B000A001939F500D112470E0CA010E949A2B12
:1047C0006038710540F46115710519F406C068E0A0
:1047D00070E0862F08958FE7089581E00895803F67
:1047E00021F40E94B023819504C0813F29F40E94E6
:1047F000B023809362020895823F21F40E94B02387
:10480000819504C0833F29F40E94B0238093610204
:104810000895893F19F40E94772305C08A3F31F437
:104820000E94772381958093630208958B3F21F442
:104830000E947723819504C08C3F29F40E9477233E
:104840008093640208959CE0980F953078F421E0FD
:1048500030E0A90102C0440F551F9A95E2F7CA0142
:1048600090916002892B8093600208958D3F21F41E
:104870008091590281600BC08E3F21F480915902D2
:10488000826005C08F3F29F4809159028460809333
:104890005902089508958091420208959FB7F894AF
:1048A00010923E029FBF90914D02943009F057C084
:1048B0009091E9009F703091EC00232F217030FD22
:1048C00020E8922B25E02093E9002091EB0020FFC7
:1048D00043C02091EE0027FF3FC020917E0222239B
:1048E00021F02091E80025FF37C010927E0226E0DB
:1048F0003091E80035FD15C030914D02343061F53E
:104900003091EB0035FD28C0215021F481E08093E7
:104910007E0222C0EFE9FFE03197F1F700C000000E
:10492000E7CF8093F1008091E80085FD0AC0809177
:10493000E80080FFFCCF8091E8008E778093E8004C
:1049400006C08FB7F89421E020933E028FBF9F707E
:104950009093E90080E008959F709093E9008FEFB5
:10496000089580937B0270937D0260937C02809116
:104970004D028430F9F48093E9008FEF9091E800C4
:10498000815095FD06C095ED9A95F1F700008111D3
:10499000F5CF8091E80085FF0DC040E050E063E076
:1049A00070E08BE792E00E94271F8091E8008E77ED
:1049B0008093E8000895BC0184E00E94B12408952A
:1049C000BC0183E00E94B124089524E02093E90013
:1049D0002FEF3091E800215035FD06C035ED3A95B6
:1049E000F1F700002111F5CF2091E80025FF0BC061
:1049F00040E050E066E070E00E94271F8091E800F0
:104A00008E778093E8000895CF93DF9321E0209381
:104A1000E9002FEF3091E800215035FD06C035ED5B
:104A20003A95F1F700002111F5CF2091E80025FF1C
:104A300014C0EC0140E050E068E070E00E94271FE5
:104A40008091E8008E778093E80088E0FE01A3E47F
:104A5000B2E001900D928A95E1F7DF91CF91089530
:104A600080914F0287FF11C08091E80082FD05C050
:104A700080914D028111F8CF11C08091E8008B77B1
:104A80000BC080914D02882349F08091E80080FF9F
:104A9000F8CF8091E8008E778093E8000895982FF2
:104AA000973068F59093E900981739F07091EC0011
:104AB0002091ED005091F00003C0242F762F50E09C
:104AC00021FD02C09F5FECCF3091EB003E7F309321
:104AD000EB003091ED003D7F3093ED003091EB0025
:104AE00031603093EB007093EC002093ED00509315
:104AF000F0002091EE0027FDE5CF80E008958F7053
:104B00008093E90081E0089520915502309156028A
:104B10002617370748F06115710539F42091E80030
:104B20002E772093E80001C0B901FC0120E0611557
:104B3000710579F180914D028823F1F18530F1F111
:104B40008091E80083FD3CC08091E80082FD2EC08A
:104B50008091E80080FFEBCF2091F3008091F2007C
:104B600090E0922B6115710551F08830910538F471
:104B700021912093F100615071090196F3CF21E05A
:104B8000089709F020E08091E8008E778093E80094
:104B9000CECF2111CFCF0AC080914D02882361F082
:104BA000853061F08091E80083FD0AC08091E800C3
:104BB00082FFF2CF80E0089582E0089583E00895B7
:104BC00081E0089581E08093E00080E28093D80046
:104BD0001092C9008FE19EE40197F1F700C0000038
:104BE00087E090EBDC0180939D0290939E02A0935E
:104BF0009F02B093A0029CE088E10FB6F894A895BC
:104C0000809360000FBE90936000FFCF78941F9256
:104C10000F920FB60F9211248F939F93AF93BF9370
:104C20008091770290917802A0917902B0917A02F6
:104C30000196A11DB11D8093770290937802A093F5
:104C40007902B0937A02BF91AF919F918F910F90AB
:104C50000FBE0F901F9018959C014FB7F89480914C
:104C6000770290917802A0917902B0917A024FBFB9
:104C7000821B930B08952FB7F8946091770270917F
:104C800078028091790290917A022FBF08952FB710
:104C9000F8948091770290917802A0917902B09176
:104CA0007A022FBF08951F920F920FB60F92112410
:104CB0008F939F93AF93BF9380917602811113C01E
:104CC0008091770290917802A0917902B0917A0256
:104CD0004196A11DB11D8093770290937802A09315
:104CE0007902B0937A02BF91AF919F918F910F900B
:104CF0000FBE0F901F9018959C01FC0132969FEFFC
:104D000080E04191461789F09F3F19F4411101C09D
:104D1000982F8F5F8630A9F79F3F39F0F901E90F8F
:104D2000F11D97FDFA95628308950895209174020C
:104D3000309175022817390771F0909375028093AE
:104D40007402E0917202F0917302309721F00084B6
:104D5000F185E02D0995089520917002309171023E
:104D60002817390771F09093710280937002E091D7
:104D70007202F0917302309721F00680F781E02DE6
:104D800009950895E0917202F0917302309729F02D
:104D90000190F081E02D0995089580E008950F932A
:104DA0001F93CF93DF93C42FD22FFC0182818823DE
:104DB000B1F040936F020E94472690936E02809359
:104DC0006D0280E28C0F883008F04DC0C77081E022
:104DD00001C0880FCA95EAF70E94202A44C080913A
:104DE0006F02481330C080916D0290916E020E9454
:104DF0002C26883C910538F510E21D0FCD17B9F02F
:104E000080E28C0F883040F4C77081E001C0880FC9
:104E1000CA95EAF70E94192A183010F581E09D2FF3
:104E2000977001C0880F9A95EAF70E94202A802F78
:104E30000E94092B1830B8F4D77081E001C0880FA8
:104E4000DA95EAF70AC080E28C0F883060F4C77008
:104E500081E001C0880FCA95EAF70E94192A03C0B1
:104E6000802F0E94092BDF91CF911F910F91089500
:104E7000CF93DF93CFE7D2E060E0CE010E94362BE4
:104E80002196C11584E0D807B9F7DF91CF91089535
:104E90001F93CF93DF93962F8430E8F46530D8F4D6
:104EA0004F30C8F4632F122FC42FD0E0CC0FDD1F7A
:104EB0002EE1929FC00DD11D112496E9899FC00D4E
:104EC000D11D1124CE0187960E94362B612FCE0171
:104ED00088960E94362BDF91CF911F910895A0E014
:104EE000B0E0E5E7F7E20C94FF2BA12CE12CF12CCC
:104EF000B12C00E010E0C0E0D0E06701C00ED11E90
:104F0000FE01EE0FFF1FEC0DFD1DE655F44F259140
:104F100034914C2F6B2D8A2D0E9448272196CF303B
:104F2000D10571F7025E1F4FB39485E0B812E3CF4D
:104F300086E9E80EF11CA39484E0A812D9CFCDB77E
:104F4000DEB7EAE00C941B2C0F931F93CF93DF93F3
:104F5000843008F56530F8F44F30E8F4C42FD0E021
:104F6000CC0FDD1F2EE1629FC00DD11D112436E94B
:104F7000839FC00DD11D1124CE0187960E94282B3E
:104F800090E0182F0027CE0188960E94282B9801C8
:104F9000282BC90102C080E090E0DF91CF911F91E2
:104FA0000F910895843048F4753038F46F3028F448
:104FB000462F672F0E94A427089580E090E008956F
:104FC000CF93C82F1F928F9385EA9BE09F938F9377
:104FD0000E94E30781E001C0880FCA95EAF70E94AA
:104FE000E8290E940D2A0F900F900F900F90CF91FB
:104FF0000895883220F58E3108F068C08B3091F129
:10500000C0F4873009F0BEC081E08093120184E1D2
:10501000809311018AE0809310018EE180930F014B
:1050200088E080930E0188E280930D0183E79BE086
:10503000C6C0833109F443C0843169F1A3C08F3401
:1050400009F49EC028F4893231F1883359F09AC0AE
:10505000813531F008F4D4C0823509F4A7C092C07C
:105060008FEFA5C085E99BE00E944A070E94511F6F
:105070001F9281E08F931F9288E08F938EE89AE0D1
:105080009F938F930E94E3070F900F900F900F90C4
:105090000F900F9096C082E99BE00E944A07809192
:1050A0006C02882309F4AAC010926C0210926B0261
:1050B00010926A021092690210926802B1C084E8EC
:1050C0009BE00E944A070E94511F7BC08D51809334
:1050D0006C02833031F170F48130D1F0823009F00C
:1050E0003FC081E191E090936B0280936A0289E76F
:1050F00091E01FC0853059F108F1863089F58DE0C7
:1051000091E090936B0280936A0284EB91E011C06E
:1051100082E191E090936B0280936A0280E791E0D4
:1051200008C080E191E090936B0280936A0285E869
:1051300091E0909369028093680218C08FE091E03B
:1051400090936B0280936A0282E991E0F2CF8EE045
:1051500091E090936B0280936A0281EA91E0E9CF3B
:1051600010926C0281E89BE00E944A0780916C02D9
:10517000882309F455C01F928F938DE79BE00DC0E3
:105180008AE015C080E79BE01AC097FF47C01082F5
:1051900080811F928F938AE69BE09F938F930E945A
:1051A000E3070F900F900F900F900BC081E0E091FC
:1051B0006A02F0916B02309729F587E69BE00E9426
:1051C0004A0720916C02222359F180916802909144
:1051D0006902009711F48CE691E09F938F931F92E0
:1051E0002F938EE59BE09F938F930E94E3070F9090
:1051F0000F900F900F900F900F9016C080E00895C1
:1052000086EFD5CF2081082E000C990B820F911DBF
:105210008F3F910509F00CF4B8CF8FEF8083B8CFA2
:105220008AE59BE00E944A0781E0089580E090E0D3
:105230000E94AC2680E090E00E94962610923702F1
:105240000E946717EFE5F2E086E0DF011D928A9584
:10525000E9F710925A0210925802109259020E94D5
:1052600054220895CF92DF92FF920F931F93CF9312
:10527000DF936C010091570280913A02082BC7E03E
:10528000D0E010E0C8010C2E02C0959587950A94D5
:10529000E2F780FD04C02197A8F7F12C09C0FC2E8D
:1052A000B6018C2F0E94D2270E943815019799F3DE
:1052B0008F2DDF91CF911F910F91FF90DF90CF90B5
:1052C0000895292F953078F58F3068F590E03FE00C
:1052D000239F800D911D1124682F677023E0969500
:1052E00087952A95E1F7FC01EE0FFF1FE80FF91FE4
:1052F000E158FD4F40E050E080E0219130E0062E83
:1053000002C0369527950A94E2F721703327042EC0
:1053100001C0220F0A94EAF7822B4F5F5F4F4330A0
:10532000510559F7089580E00895292F953088F5A3
:105330008F3078F590E03FE0239F800D911D112480
:10534000282F277051E001C0550F2A95EAF723E076
:10535000969587952A95E1F7FC01EE0FFF1FE80F60
:10536000F91FE158FD4F20E030E070E04081CB01B3
:10537000022E02C0969587950A94E2F78170819576
:1053800084278523842781932F5F3F4F2330310566
:1053900069F70895809357020E941629089521E025
:1053A00030E001C0220F8A95EAF7209580915702DC
:1053B00082230E94CA29089521E030E001C0220F13
:1053C0008A95EAF780915702822B0E94CA29089594
:1053D00080933A020E9416290895FC0180819181F0
:1053E0000E949B1892959F70963079F010F492501D
:1053F00001C09A50923068F4803F69F018F4883EFA
:1054000040F409C0843F29F406C0883E20F0813F63
:1054100011F080E0089581E008951092380286E04E
:10542000E0EFF1E0DF011D928A95E9F70E9416296D
:105430000895882321F00E9460170E94671708953D
:10544000882339F090913802892B809338020E948A
:10545000671708958823C1F19CEF980F913A60F483
:10546000EEEEF1E09281891301C01282319691E053
:10547000E43FF907B9F70DC090E2980F983060F457
:10548000877091E001C0990F8A95EAF7892F0E94F1
:1054900060170E94671708959BE5980F933028F4D2
:1054A00080E090E00E94AC26089598E5980F97312F
:1054B00028F480E090E00E9496260895803F20F036
:1054C0000E9400230E9454220895CF93882309F458
:1054D0009EC0C82F8CEF8C0F813A08F043C080919A
:1054E0006602813081F030F08230A1F58C2F0E946D
:1054F000F9278DC080913802823209F06AC08C2F62
:105500000E94781F2CC0809138028232C1F3C431CE
:10551000C9F058F4CB3069F0C031B9F482E080931F
:10552000660288E30E94F92752C0C93259F0C83395
:1055300061F481E198E00E944A0784E09EE00E94C5
:105540004A0745C01092660208C082E09EE00E94B1
:105550004A0703C0109266023CC080E0817081114E
:1055600056C037C080E28C0F883078F4C77081E075
:1055700090E001C0880FCA95EAF790913802892B14
:10558000809338020E94671742C0EBE5EC0FE330CE
:1055900040F4F0E0E95DFE4F808190E00E94AC268F
:1055A00036C0E8E5EC0FE73150F4F0E0EE0FFF1FF6
:1055B000E65DFE4F808191810E94962628C0C03F03
:1055C00030F18C2F0E94EF230E94542220C081E0F2
:1055D000C5CFE0EFF1E086EF91E02191C21721F015
:1055E0008E179F07D1F70DC0EEEEF1E08281C81350
:1055F00001C01282319681E0E43FF807B9F70E94BA
:1056000067176C2F8EEE91E00E947C26BBCFCF9166
:1056100008951F93CF93DF93182F893319F0C0E0BB
:10562000D0E002C0C0E5D0E0812F0E94652A20971B
:1056300041F08FE99FE00197F1F700C0000021974A
:10564000F6CF812F0E942A2ADF91CF911F910895D2
:10565000F999FECF92BD81BDF89A992780B508953A
:10566000A8E1B0E042E050E00C945C2B262FF999C1
:10567000FECF92BD81BDF89A019700B4021639F0B1
:105680001FBA20BD0FB6F894FA9AF99A0FBE089582
:105690000396272F0E94372B0E94362B252F0E941E
:1056A000372B242F0C94372B0196272F0E94372B52
:1056B0000C94362BDC01CB01FC01F999FECF06C01E
:1056C000F2BDE1BDF89A319600B40D9241505040C0
:1056D000B8F70895DB018F939F930E94EC2BBF9145
:1056E000AF91A29F800D911DA39F900DB29F900D31
:1056F00011240895991B79E004C0991F961708F0AA
:10570000961B881F7A95C9F780950895AA1BBB1B25
:1057100051E107C0AA1FBB1FA617B70710F0A61BB1
:10572000B70B881F991F5A95A9F780959095BC01D2
:10573000CD01089597FB072E16F4009407D077FD4E
:1057400009D00E94862B07FC05D03EF490958195E8
:105750009F4F0895709561957F4F0895A1E21A2E8D
:10576000AA1BBB1BFD010DC0AA1FBB1FEE1FFF1F05
:10577000A217B307E407F50720F0A21BB30BE40B55
:10578000F50B661F771F881F991F1A9469F760959C
:105790007095809590959B01AC01BD01CF01089556
:1057A000EE0FFF1F0590F491E02D099469279627CD
:1057B00069277827872778270895A29FB001B39F8C
:1057C000C001A39F700D811D1124911DB29F700D0A
:1057D000811D1124911D08950E94DD2BA59F900D20
:1057E000B49F900DA49F800D911D112408952F92B8
:1057F0003F924F925F926F927F928F929F92AF9261
:10580000BF92CF92DF92EF92FF920F931F93CF93AD
:10581000DF93CDB7DEB7CA1BDB0B0FB6F894DEBF44
:105820000FBECDBF09942A88398848885F846E846A
:105830007D848C849B84AA84B984C884DF80EE80B4
:10584000FD800C811B81AA81B981CE0FD11D0FB6BD
:10585000F894DEBF0FBECDBFED010895FB01DC0162
:1058600004C08D910190801921F441505040C8F737
:0A587000881B990B0895F894FFCFF0
:10587A004B240425E524E024DB244A240128081EBD
:10588A000A14019091929395303132339496973459
:10589A0035366667F5F6F7818283E200E900EA00A9
:1058AA00B500B600B700CD008301CC008A01920191
:1058BA0094012102230224022502260227022A0237
:1058CA00B300B4006F00700040227B227B035903AF
:1058DA00DE02BC02E103FA031A0433043F3F3F002D
:1058EA006D6B5F64656C6179006D6B5F696E746581
:1058FA007276616C006D6B5F6D61785F7370656560
:10590A0064006D6B5F74696D655F746F5F6D61785C
:10591A00006D6B5F776865656C5F6D61785F73704A
:10592A00656564006D6B5F776865656C5F74696D4A
:0A593A00655F746F5F6D6178000017
:00000001FF
