:100000000C945E030C9496030C9496030C94960344
:100010000C9496030C9496030C9496030C949603FC
:100020000C9496030C9496030C948B250C945D26EB
:100030000C94F31E0C9496030C9496030C94960364
:100040000C9496030C9496030C9496030C949603CC
:100050000C9496030C947C1F0C9496030C949603BA
:100060000C9496030C9496030C9496030C949603AC
:100070000C9496030C9496030C9496030C9496039C
:100080000C9496030C9496030C9496030C9496038C
:100090000C9496030C9496030C9496030C9496037C
:1000A0000C9496030C9496030C949603450845080B
:1000B00071087108D908F708DE09DE0902096A0922
:1000C0007B097B09D418D718F718081910191B19C0
:1000D000611961196119611961191E19211926190E
:1000E00033194019431947195419C526EC26E4273A
:1000F000EC26E42738275B27E427B227C127E60050
:10010000100036000E000F00120027002D00E7003F
:10011000370038003300340013002F002E00035145
:10012000E100035128003100300035002A00E300CF
:10013000E100E00004002B00140029001E00E30091
:1001400064001D0016001A0008001F002000E200D5
:100150001B000700090015001700210022002C00D9
:10016000060019000A001C001800230024000000EB
:10017000050011000B000D000C00250026000100F9
:1001800001004D004A004B004700430044000100BD
:100190004E00510050004F00480052004500010041
:1001A0000100010001004C00480049004C00010022
:1001B00001000100AA003900010035003A000100E9
:1001C00001000100A900010001003B003C0001000A
:1001D0000100A800B000010001003D003E00010048
:1001E000010001000100010001003F00400000008B
:1001F0000100010001000100010041004200010076
:1002000001000100010001000100010001000100E6
:1002100001000100010001000100010001000100D6
:1002200001000100010001000100010001000100C6
:1002300001000100010001000100010001000100B6
:1002400001000100010001000100010001000100A6
:100250000100010001000100010001000100010096
:100260000100010001000100010001000100000087
:100270000100010001000100010001000100010076
:100280000100010001000100010001000100010066
:100290000100010001000100010001000100010056
:1002A0000100010001000100010001000100010046
:1002B0000100010001000100010001000100010036
:1002C0000100010001000100010001000100010026
:1002D0000100010001000100010001000100010016
:1002E0000100010001000100010001000100000007
:1002F000010001000100010001000100010044456E
:100300004255473A2064697361626C65642E0A0045
:1003100044454255473A20656E61626C65642E0A19
:100320000000000000000000002A2B280000000050
:100330000000000000000000000000002900000094
:10034000002C1E3420212224342627252E362D373A
:1003500038271E1F202122232425263333362E370B
:10036000381F0405060708090A0B0C0D0E0F1011A3
:1003700012131415161718191A1B1C1D2F313023B0
:100380002D350405060708090A0B0C0D0E0F101178
:1003900012131415161718191A1B1C1D2F3130357E
:1003A0004C00000000000000000000000000000001
:1003B000000000000000000000000000000000003D
:1003C00000000000007E0F00D4FFFFFFC700000008
:1003D000780A0025303258006C65645F7461736B75
:1003E0003A20004F6E6573686F743A2061637469D8
:1003F00076653A2025640A000A0025303862003A02
:10040000200025303258000A722F632030313233F9
:10041000343536370A00290A002575002F00257566
:10042000005D28002564002000256400200025646C
:100430000020002564007C0025303258006D6F7567
:1004400073656B6579205B62746E7C7820792076A9
:1004500020685D287265702F61636C293A205B000B
:100460000A002530325820006B6579626F61726432
:100470005F7265706F72743A200064656C5F6B65C3
:10048000795F6269743A2063616E27742064656CD9
:100490003A20253032580A006164645F6B65795FE9
:1004A0006269743A2063616E2774206164643A2043
:1004B000253032580A005B735D005B575D005B536B
:1004C0005D005B525D005B445D005B435D000E03BD
:1004D000470053004B005400300030000000100370
:1004E0004B00610070004300610076006500000071
:1004F0000403090409027B00040100A0FA090400B6
:10050000000103010100092111010001224000073F
:10051000058103080001090401000203000000092D
:10052000211101000122220007058203200001079A
:100530000503032000010904020001030000000973
:10054000211101000122B6000705840320000109E2
:10055000040300020300000009211101000122220E
:10056000000705850320000107050503200001128F
:1005700001000200000008434B616001000102001D
:10058000010631FF0974A1010975150026FF0095C8
:1005900020750881020976150026FF009520750850
:1005A0009102C00660FF0961A1010962150026FFE2
:1005B000009520750881020963150026FF0095202B
:1005C00075089102C005010902A10185020901A176
:1005D00000050919012908150025019508750181F3
:1005E000020501093009311581257F9502750881C1
:1005F0000609381581257F950175088106050C0AC5
:1006000038021581257F950175088106C0C0050156
:100610000980A101850319012AB700150126B70039
:10062000950175108100C0050C0901A1018504190F
:10063000012AA002150126A002950175108100C0B3
:1006400005010906A1018506050719E029E715003E
:1006500025019508750181020507190029EF15008C
:10066000250195F0750181020508190129059505F7
:1006700075019102950175039101C005010906A15B
:1006800001050719E029E715002501950875018185
:10069000029501750881010507190029FF1500263B
:1006A000FF009506750881000508190129059505C3
:1006B00075019102950175039101C00011241FBEBF
:1006C000CFEFDAE0DEBFCDBF04B603FE18C08091E5
:1006D000B0029091B102A091B202B091B302873002
:1006E000904BA740B04B59F41092B0021092B10257
:1006F0001092B2021092B302E0E0F8E3099511E023
:10070000A0E0B1E0E4EBF1E502C005900D92AE3956
:10071000B107D9F722E0AEE9B1E001C01D92A03BDC
:10072000B207E1F70E94FE140C94D8280C94000044
:10073000FF93EF93E0919E01F0919F01309709F0B4
:100740000995EF91FF910895FC018591803011F09A
:10075000EFDFFBCF0895FF27E0E230E247FF0CC058
:10076000419597FF09C0EDE2609570958095909551
:10077000611D711D811D911D27FF02C0219530E370
:1007800050E2AA27660F771F881F991FAA1FA41778
:1007900010F0A41B63955A95A9F7AA3008F0A95F39
:1007A000A05DAF93F395611571058105910541F742
:1007B000ED3211F4EF93F395F21718F43F93F3959C
:1007C000FBCF8F91B5DFFA95E1F70895E991F991A3
:1007D0008591803021F0853219F0AADFF9CF089594
:1007E00020E0E89455915532C1F3503311F46894E8
:1007F00055915A3348F4505390F3220F022E220F92
:10080000220F200D250FF4CF0EF421958991999197
:10081000533619F3533729F1533559F1BC01882761
:100820009927E8945C3621F48991999168945591BF
:10083000543639F446EF7EF077FF0DC08FEF9FEF0F
:100840000AC055374AE039F0583540E121F05236B8
:1008500042E009F00895FF93EF937DDFEF91FF9160
:10086000B7CFFF93EF93FC0181918030B9F360DF44
:10087000FBCFFF93EF9368DFF1CFDF93CF93CDB73B
:10088000DEB72596A3DFCF91DF91089581E008952B
:1008900081E008950E944804089508950E944D043F
:1008A0000895A5E0B0E0E7E5F4E00C944D28498315
:1008B0005A833091A10189819A81311114C0662334
:1008C00059F0222349F00E94890B182F682F898143
:1008D0009A810E94650B03C00E94770B182F6981D3
:1008E0007A81812F04C00E94890B69817A810E94DC
:1008F0007A1B2596E3E00C946928FC01262F4081A1
:1009000051816281738184810E945104089581E044
:100910000895CF93DF93EC0160E00E947D04BE0157
:100920000E944E04DF91CF910895E1E0F0E0DF01F5
:1009300002C0AA0FBB1F6A95E2F7BD01DF0102C02A
:10094000AA0FBB1F4A95E2F7AD01462B01C0EE0F7F
:100950002A95EAF7942F9823491302C08E2B089505
:10096000E0958E230895242F462F682F8091BA0199
:100970000E9495040E94C40A08950E94D01308950D
:100980000E94CA13089508950E94610A0E94C30438
:100990002FEF84E39CE0215080409040E1F700C0BD
:1009A000000008950E94C4040E94A21F08950E949E
:1009B000C4040E94C61F08950F931F93CF93DF9323
:1009C0008C0161E00E947D04EC01B8010E94831853
:1009D000882379F1B801CE010E944A04882349F1A5
:1009E000B801CE010E94C61C882319F1B801CE01BE
:1009F0000E946C198823E9F0B801CE010E942C1CDA
:100A00008823B9F0F8018281882309F43FC0CA35F0
:100A10008DE5D807B1F178F4C130FCE5DF07A1F02E
:100A2000CE3D8CE5D80729F1C115DC4579F50E944A
:100A3000D204C0E02FC0CC35FDE5DF07F9F020F18E
:100A4000C73ADD45C1F022C080914802C82FC09549
:100A5000C170C0FB80F980934802CC2329F080E16B
:100A600093E00E94A403E5CF8EEF92E00E94A403DE
:100A700011C00E9492100E94D704DBCF0E94C90FC0
:100A800005C00E94D30F02C00E94D70FC8010E9468
:100A90004604C82F8C2FDF91CF911F910F9108959D
:100AA0000E94CC1E0E94470608950E944B060E9499
:100AB000D51E0895A0E0B0E0E0E6F5E00C944928EA
:100AC000E82FF0E0EF5DFC4FD490282F2695269577
:100AD000269530E0F901EF53FC4F0491877010E048
:100AE000082E02C0159507950A94E2F701701127A8
:100AF000F901EF54FC4FE490F12C082E02C0F5945C
:100B0000E7940A94E2F791E0E922FF24F901EF5516
:100B1000FC4FC491D0E002C0D595C7958A95E2F705
:100B2000C170DD270115110519F081EE0E94C8067C
:100B3000E114F10419F086EE0E94C8068D2D0E9482
:100B4000F407E114F10419F086EE0E947107011513
:100B5000110519F081EE0E947107CD2B19F08CE27E
:100B60000E94F407CDB7DEB7E7E00C946528EF925A
:100B7000FF920F931F93CF93DF93EC01162F0AE0A0
:100B80008881882309F455C0813009F043C08981E8
:100B9000813041F47E0182E0E80EF11C8A810E94DE
:100BA000F40709C0823049F47E01E2E0EE0EF11C48
:100BB0008A810E94C806E7012FC0833041F47E017C
:100BC000F2E0EF0EF11C8A810E947107F4CF8430AD
:100BD00011F0219621C02A81229680E090E030E039
:100BE000205331092A30310558F4089FA001099F8C
:100BF000500D1124C901840F951F21962881EFCF34
:100C0000009751F0EFE9FFE03197F1F700C00000E5
:100C10000197F6CF0E945A052196812F882309F467
:100C2000AFCFEFE9FFE03197F1F700C0000081504E
:100C3000F5CFCDB7DEB7E6E00C94662860E00E9401
:100C4000B70508958295982F937344E0949F90017F
:100C500011248C7C86958695282B822F8575880F8C
:100C60002A7A2695822B089508950E9434060895C5
:100C700081E008950E94380608950895CF93C82F03
:100C80000E9435068C2F0E943A06CF91089580E08D
:100C90000E943E0608950E94221D0E943E0608956D
:100CA000CF930E94221DC82F8091A001C81739F14F
:100CB000C093A0018091480282FF1EC080FF04C043
:100CC00088ED93E00E94A4038091480280FF0CC04D
:100CD0001F92CF9383ED93E09F938F930E943D04E7
:100CE0000F900F900F900F908091480280FF04C0EA
:100CF00081ED93E00E94A4038C2F0E943E06CF91C9
:100D00000895ABE0B0E0E7E8F6E00C944E284F839E
:100D1000588769877A878B8761110E94FD0E9E0133
:100D20002F5F3F4F86E0F90111928A95E9F785E040
:100D3000FE013796D90101900D928A95E1F78981DC
:100D40009A814C815D81452B31F09F3F31F491E0D8
:100D50008F3F19F403C091E001C090E090FF09C0FB
:100D600049815A816B817C818D819E810E94290EEF
:100D700005C0C9010E9487048111F2CF2B96E2E0E1
:100D80000C946A28FC01808191810E94B60B089521
:100D9000CF93882309F4A3C0C82F8238C1F40E94DE
:100DA000221D81FD9CC069E38091000190910101A9
:100DB0000E94701E0E94210F2FEF81EE94E02150BF
:100DC00080409040E1F700C0000069E319C083381B
:100DD00001F50E94221D80FD82C063E58091000123
:100DE000909101010E94701E0E94210F2FEF81EE51
:100DF00094E0215080409040E1F700C0000063E59E
:100E000080910001909101010E947E1E0E94210F9D
:100E100066C08438C1F40E94221D82FD60C067E470
:100E200080910001909101010E94701E0E94210F8B
:100E30002FEF81EE94E0215080409040E1F700C018
:100E4000000067E4DDCF8CEF8C0F813AD0F46C2F7B
:100E500080910001909101010E94CE1D882349F0EC
:100E60006C2F80910001909101010E947E1E0E94D2
:100E7000210F6C2F80910001909101010E94701E42
:100E8000C5CF80E28C0F883048F4C77081E001C084
:100E9000880FCA95EAF70E94E00EB8CFEBE5EC0F99
:100EA000E33040F4F0E0EB5BFE4F808190E00E9485
:100EB0008C1D15C0E8E5EC0FE73150F4F0E0EE0FC3
:100EC000FF1FE95EFE4F808191810E94A21D07C035
:100ED000C03F28F08C2F0E9483150E945516CF9199
:100EE0000895882309F467C0823879F40E94221D8E
:100EF00081FF61C069E380910001909101010E942E
:100F0000701E0E94210F69E310C08338B9F40E945B
:100F1000221D80FF50C063E5809100019091010186
:100F20000E94701E0E94210F63E580910001909144
:100F300001010E947E1E0E94210F0895843879F4D9
:100F40000E94221D82FF37C067E4809100019091CA
:100F500001010E94701E0E94210F67E4E6CF9CEF02
:100F6000980F913A10F4682FE0CF90E2980F9830E4
:100F700050F4877091E001C0990F8A95EAF7892FA4
:100F80000E94E60ED8CF9BE5980F933028F480E0BE
:100F900090E00E948C1D089598E5980F973128F4F1
:100FA00080E090E00E94A21D0895803F20F00E9402
:100FB000DE150E94551608951F93CF93DF93182FC7
:100FC000EB010E94C806209741F08FE99FE001974E
:100FD000F1F700C000002197F6CF812F0E94710722
:100FE000DF91CF911F910895893319F060E070E08F
:100FF00002C060E570E00E94DC070895882321F0BC
:101000000E94E00E0E94210F0895882321F00E9483
:10101000E60E0E94210F0895A0E0B0E0E2E1F8E0C2
:101020000C9448287C01162FC72FFC01D281058122
:1010300002950F700E94D60E8823B9F0DD23A9F027
:101040008C2F807F803421F080E2810F883068F01F
:1010500080918E0282FF09C082E00E94830F0E946D
:10106000D60E91E0D82ED92601C0D12CCC2EC29418
:101070008FE0C8228C2D90E08C30910508F09EC145
:10108000FC01EA5AFF4F0C9431288C2F807FCF70DF
:10109000882311F0C295C07FDD2399F0CC2309F499
:1010A00079C180E2810F883010F0111104C08C2FBB
:1010B0000E94E00E03C08C2F0E94F00E0E94210FB0
:1010C00069C1812F0E947107CC2309F477C180E2A6
:1010D000810F883038F1112329F18C2F0E94F60EF0
:1010E00024C08C2F807FCF70803211F0C295C07FDA
:1010F000112319F01130A1F13DC080918E0282FDC3
:1011000017C0DD2349F0CC2329F08C2F0E94E00E7C
:101110000E94210F80E03FC180E00E947107CC2334
:1011200009F44CC18C2F0E94E60E0E94210F46C18B
:10113000DD2371F0002341F0013031F40E94000FF3
:101140008C2B0E940A0F3AC10E94000F8C2B1DC0ED
:10115000002319F0013009F431C10E94170F25C096
:10116000DD2321F0063008F029C10EC0053008F05B
:1011700025C11BC0DD2361F0002331F0F70185811B
:1011800080FF08C18F7085838C2F0E94FE0716C1D7
:10119000002359F0193309F00EC1FFEF27EE83E069
:1011A000F15020408040E1F704C18C2F0E940508D7
:1011B00005C18C2F86958695837019F0813061F07A
:1011C000FDC0DD2321F0812F9C2F937002C080E0B1
:1011D00090E00E948C1DFAC0DD2321F0812F9C2F0E
:1011E000937002C080E090E00E94A21DEFC0812FAA
:1011F000DD2319F00E94831502C00E94DE150E94B3
:101200005516E4C08C2F837079F5D111DBC0412FC6
:10121000429546954770440F440F212F2F70042E9E
:1012200001C0220F0A94EAF714FF08C08FE090E093
:1012300001C0880F4A95EAF7809501C080E0C69505
:10124000C695C370822BC23049F058F4C13019F0F2
:101250000E94B50AB7C00E94AF0AB4C00E94BB0A80
:10126000B1C00E94AC0AAEC0DD2319F08C2F817092
:1012700001C08695882309F4A5C0412F4295469563
:101280004770440F440F212F2F70042E01C0220FEE
:101290000A94EAF714FF08C08FE090E001C0880FBD
:1012A0004A95EAF7809501C080E0C695C695C3705F
:1012B000822BC23049F058F4C13019F00E94030B60
:1012C00081C00E94FD0A7EC00E94090B7BC00E9463
:1012D000C40A78C0CF70DD2339F08C2F0E94D80A61
:1012E000812F0E94FE076EC0812F0E9405088C2F5F
:1012F0000E94E40A67C0123F21F128F4103F41F038
:10130000113FC1F043C0133F19F1143F79F03EC0C3
:10131000DD2341F0053008F051C08C2F8F710E9401
:10132000F10A4CC0063008F049C0F7CF80918E0218
:1013300082FD18C0DD2339F08C2F8F710E94D80AEE
:101340003DC0DD23C9F38C2F8F710E94E40A36C0A3
:10135000DD2329F08C2F8F710E94CF0A2FC00E94AD
:10136000CB0A2CC0DD2349F0CF718C2F0E94D80A04
:1013700063E08C2F0E94650F21C081E00E94830FE3
:101380000230E0F082E00E94830F18C0DD2331F0CC
:10139000002391F2812F0E94C80610C0002399F209
:1013A000193349F49FEFE7EEF3E09150E040F0404D
:1013B000E1F700C00000812F0E94710788EF8C0DBB
:1013C000843020F40E94221D0E943E06DD2089F018
:1013D0000E94D20E80FD0DC0F70112820E94CC0E39
:1013E0000E94D80AC7010E94160A0E94CC0E0E94D1
:1013F000E40ACDB7DEB7E8E00C9464280F931F939E
:10140000CF93DF93EC01688179818A810E94C10BBF
:101410008C010E940F0B0E949D0AB801CE010E9410
:101420000C08DF91CF911F910F910895CF93DF9317
:10143000EC01988189812B813C81232B31F08F3FF6
:1014400031F481E09F3F19F403C081E001C080E0E6
:1014500080FD1AC0CE010E94DC0481110FC00E94E1
:10146000D60E882389F08A81882371F080918E02BC
:1014700082FF0AC082E00E94830F06C0CE010E9454
:10148000FE09CE010E948904DF91CF91089580E08A
:1014900090E00E948C1D80E090E00E94A21D0E94BE
:1014A000FD0E0E94210F0E94F6160E945516089507
:1014B00080910001909101010E948C1E0E94470AB8
:1014C00008950E94ED0E0E94580A089592959F700B
:1014D000963079F010F4925001C09A50923068F42E
:1014E000803F69F018F4883E40F409C0843F29F435
:1014F00006C0883E20F0813F11F080E0089581E031
:101500000895FC01808191810E94B60B0E94660AB9
:101510000895A5E0B0E0EFE8FAE00C944E28259697
:10152000E2E00C946A28A6E0B0E0E9E9FAE00C9465
:101530004E282696E2E00C946A28089508950E94A9
:101540009E0A08950E949F0A08950E94A20A80930D
:10155000BB010E94470A08950E94A50A0895909130
:10156000BB01892B0E94A50A08959091BB01892394
:101570000E94A50A08959091BB0189270E94A50A9F
:1015800008950E949E0A08950E94C10A8093BA019C
:101590000E94470A089580E00E94C40A089591E0DD
:1015A00001C0990F8A95EAF7892F0E94C40A08950D
:1015B00021E030E001C0220F8A95EAF78091BA015C
:1015C000822B0E94C40A089521E030E001C0220F5E
:1015D0008A95EAF720958091BA0182230E94C40A75
:1015E000089521E030E001C0220F8A95EAF780914A
:1015F000BA0182270E94C40A08959091BA01892BEA
:101600000E94C40A08959091BA0189230E94C40AD5
:1016100008959091BA0189270E94C40A08950895F7
:10162000962F9770A1E001C0AA0F9A95EAF793E070
:10163000769567959A95E1F7FB01EE0FFF1F6E0F08
:101640007F1FFA01E60FF71F40E050E0682F70E0BF
:1016500090819B01042E02C0369527950A94E2F7EB
:101660002170219529272A23292721934F5F5F4F36
:101670004330510569F708959B01782F777043E057
:10168000969587954A95E1F7FC01EE0FFF1F8E0FA7
:101690009F1FF901E80FF91F40E050E080E0219121
:1016A00030E0072E02C0369527950A94E2F72170A4
:1016B0003327042E01C0220F0A94EAF7822B4F5FD2
:1016C0005F4F4330510559F70895282F983070F433
:1016D000883060F4862F622F70E028E0929F600DC2
:1016E000711D112442EA51E00E94100B08959830B8
:1016F00070F4883060F4292F90E062EA71E038E0FD
:10170000239F800D911D11240E943C0B089580E0C1
:101710000895CF92DF92FF920F931F93CF93DF93A1
:101720006C010091BA018091BB01082BC7E0D0E0A9
:1017300010E0C8010C2E02C0959587950A94E2F737
:1017400080FD04C02197A8F7F12C07C0FC2EB6013C
:101750008C2F0E9466120197A9F38F2DDF91CF91F4
:101760001F910F91FF90DF90CF900895CF93DF935B
:10177000EC010E94890BBE010E946612DF91CF919D
:1017800008951F93CF93DF93EB019091A1019923CB
:1017900021F0CB010E94B60B13C0882349F0CB0186
:1017A0000E94890B182F682FCE010E94650B04C080
:1017B000CB010E94770B182FBE01812F0E94661269
:1017C000DF91CF911F9108951F93CF93DF93C09125
:1017D000BC0116E08091BD01C81799F0D0E01C9FB4
:1017E000F0011D9FF00D1124E254FE4F4081518104
:1017F00062817381848195810E94930A2196C770CA
:10180000E9CFDF91CF911F9108954091EE01509162
:10181000EF016091F0017091F1018091F2019091DE
:10182000F3010E94930A08950F931F93CF93DF93C0
:101830008091F30182958F7009F05AC08091F00178
:10184000882309F455C08091BC011091BD016091BD
:10185000EE017091EF01C091F101D091F20191E0A0
:101860006F3F09F090E0292F06E0811709F440C08E
:10187000209721F07F3F21F030E003C031E001C02C
:10188000322F90E030FD31C0089FF001099FF00D2C
:101890001124DF01A254BE4F11963C9111973713CA
:1018A00024C03C91361321C012963C9112973111FD
:1018B0001CC013964D915C9114974C1B5D0B483CDA
:1018C000510598F48091F3018F7080618093F3014A
:1018D000ED53FE4F80818F70806180838EEE91E0AA
:1018E0000E94160A0E94E40B03C001968770BDCFC8
:1018F000DF91CF911F910F910895A1E1B0E0E3E84E
:10190000FCE00C9445288C0185E0F801DE011D9671
:1019100001900D928A95E1F7F801E2809091EE0135
:101920006091EF012091F1013091F2012115310513
:1019300031F06F3F31F481E09F3F19F403C081E043
:1019400001C080E0F82FF1709F2E80FD40C1F801AA
:1019500040815181A380B4808EEEC82E81E0D82EC4
:10196000F090F001F501E21BF30BFF2009F4DAC05F
:101970008091F301E83CF10508F096C0282F207F04
:1019800009F053C0561313C0491311C0FE2CE110C7
:101990000EC08F7080618093F3010E94050CC60118
:1019A0000E94160A8091F301F80185834DC1A114AC
:1019B000B10431F05F3F31F481E04F3F19F403C0CF
:1019C00081E001C080E080FD03C081E08E2502C07F
:1019D00080E090E0F82FF170FF2E80FF1CC0809116
:1019E000BC012091BD0136E0821709F40BC190E0E3
:1019F000389FF001399FF00D1124E254FE4F6181B0
:101A0000561306C06081461303C06281E61203C00C
:101A100001968770E9CFFE2CEE2009F415C1809164
:101A2000F30181608093F30154C0561306C049133B
:101A300004C0E11002C0F80199C0C8010E94810AE7
:101A4000882361F1EE2051F12091F301822F8295DC
:101A50008F7090E0029774F08091EE019091EF0109
:101A600098878F831986BB86AA862C87CE01079616
:101A70000E94160A86E0F801AEEEB1E001900D92E8
:101A80008A95E1F70E94140C0E94050C0AC05617B3
:101A900011F1C8010E94810A81112CC0C8010E9465
:101AA000160AFF24F394D0C0282F207F81F77A2DC7
:101AB000B98AA88A6E2D89890E94890A8EEE91E0E2
:101AC0000E94160A86E0F60111928A95E9F70E94B3
:101AD000050CF12CB9C04913DCCFE110DACFF801C5
:101AE0008583C8010E94160A86E0F60111928A9544
:101AF000E9F7AAC0EE2091F22091F301822F82959E
:101B00008F7090E002970CF4B5CF8091EE01909128
:101B1000EF019A8389831B82BD82AC822E83CE0122
:101B20000196A6CFE83CF10508F044C0FE2CEE205B
:101B300009F4B4CF561330C049132EC02091F301DD
:101B400020FD21C0822F82958F70482F50E04115D3
:101B50005105C9F0F80125834F30510541F08F5FE1
:101B6000982F9295907F822F8F70892B8583C80143
:101B70000E94160A86E0F801AEEEB1E001900D92E7
:101B80008A95E1F73CC086E0F801AEEEB1E0019045
:101B90000D928A95E1F758C0C8010E94810A81110F
:101BA00069CF8091F30181608093F301C8010E94A5
:101BB000160A4AC07A2DB98AA88A6E2D89890E9490
:101BC000890A86E0F60111928A95E9F718C0EE209D
:101BD00009F464CFC8010E94810AF82E882309F411
:101BE0005DCF86E0F801AEEEB1E001900D928A95EE
:101BF000E1F78EEE91E00E94C2060E94140C0E9452
:101C0000050C22C04D875E878D859E850E94B60B90
:101C1000292F22952F70223028F49F7039F08111DE
:101C200005C00BC0243028F49F7049F4805E8830D2
:101C300020F0C8010E94160A9F2CF92C05C0F8015B
:101C40009581907F99F7F9CF8F2D6196EBE00C94F9
:101C50006128ACE0B0E0EFE2FEE00C944D284F8349
:101C6000588769877A878B879C87CE0107960E9461
:101C70007D0C8823D1F09F8188852A853B85232B85
:101C800031F08F3F31F481E09F3F19F403C081E0D0
:101C900001C080E080FD47C04F81588569857A8505
:101CA0008B859C850E94930A3EC086E0FE01379694
:101CB000DE01119601900D928A95E1F7FF81E8858A
:101CC0006A857B856115710531F0EF3F31F481E064
:101CD000FF3F19F403C081E001C080E080FD23C014
:101CE0002091BD0130E0C90101968770992740918C
:101CF000BC0150E084179507F1F1F983EA837D83F5
:101D00006C8396E0929FD001939FB00D1124A25452
:101D1000BE4FFE01319601900D929A95E1F78093A6
:101D2000BD010E94E40B16E08091BC019091BD01C1
:101D3000891771F1189FC001112482549E4F0E948F
:101D40007D0C882329F1E091BC011E9FF001112434
:101D5000E254FE4F4081518162817381848195817B
:101D60000E94930A8091BC0190E0019687709927A8
:101D70008093BC01D9CF0E94610A1092BD011092DC
:101D8000BC01EEEEF1E086E0DF011D928A95E9F7F5
:101D90002C96E3E00C946928809114028595859532
:101DA000859508958091140287700895909114028A
:101DB000977081E009F480E00895809137020895DA
:101DC00090913702892B80933702089580959091E6
:101DD00037028923809337020895109237020895BD
:101DE00090913602892B80933602089580959091C8
:101DF00036028923809336020895109236020895A0
:101E000080911502089508950E94030F08950E947D
:101E1000040F089590918E0292FF08C090911502D0
:101E2000981721F0809315020E94070F0895809162
:101E30001502882329F01092150280E00E94070FF6
:101E40000895CF93DF93E0910001F091010180911B
:101E500037028083E0910001F0910101908180912F
:101E60003602892B808380911502882381F0E091CE
:101E70000001F09101019081892B80838091000104
:101E8000909101010E94B81D81110E94170FC0910D
:101E90000001D091010140E250E064EF71E0CE0119
:101EA0000E948928892B59F080E2FE01A4EFB1E05D
:101EB00001900D928A95E1F7CE010E942F1DDF91CE
:101EC000CF9108950E94030F089590918E0292FF82
:101ED00011C098E0899F90011124262B20931402B1
:101EE0000E94D80A809114028595859585950E9457
:101EF000620F08950E94D80A08951092140280E09B
:101F00000E94620F0895209114028095822380938D
:101F10001402982F977099F430E0482F082E000C87
:101F2000550B2417350759F090918E0292FF07C088
:101F30008595859585950E94E40A0E947D0F0895F8
:101F4000CF9390918E0292FB222720F92817F9F067
:101F5000C82F892FC0FB82F980938E0280918D0259
:101F600090918E020E94091082E00E94830F80915E
:101F7000480280FF0CC01F92CF9383EE93E09F93A3
:101F80008F930E943D040F900F900F900F90CF9170
:101F9000089580918E0282FB882780F991E089273D
:101FA0000E94A00F089581E00E94A00F089580E094
:101FB0000E94A00F08956FEF7FEF80E090E00E94F5
:101FC000C228089580E090E00E949E28883E9E4F9F
:101FD00019F40E941818089580E0089582E090E0B6
:101FE0000E949628089583E090E00E949628089524
:101FF000CF9384E090E00E949628C82F82E290E080
:102000000E9496282C2F30E0A901582BCA01CF91AD
:102010000895CF93C92F682F84E090E00E94A428F0
:102020006C2F82E290E00E94A428CF910895AB012A
:10203000BC018FE090E00E94B6280895AB01BC017E
:1020400083E190E00E94B628089560E070E0CB0143
:102050000E941E10089560E070E0CB010E941710EE
:102060000E942510089568EE7EEF80E090E00E94C7
:10207000C22860E082E090E00E94A42860E083E053
:1020800090E00E94A4281092BB0160E084E090E000
:102090000E94A42864E082E290E00E94A42860E00C
:1020A00085E090E00E94A42860E086E090E00E9435
:1020B000A4286FEF87E090E00E94A42840E050E061
:1020C000BA0188E090E00E94B62860E08DE090E0E0
:1020D0000E94A42840E050E0BA0188E190E00E940C
:1020E000B62860E087E190E00E94A42840E050E03C
:1020F000BA018CE190E00E94B62860E070E080E2D6
:1021000090E00E94C22840E050E0BA0188E190E0EF
:102110000E94B62880E00E9431180E9466180E9432
:102120002B1008950E9433100895682F8EE090E0E0
:102130000E94A42808950E94611F60934402709336
:102140004502809346029093470260934002709349
:1021500041028093420290934302089581E00895E2
:102160000E94AE10089508950E94B31008950E9431
:10217000B31008950E94B71008950E94B3100895F7
:102180000E94BD1008950E94B310089583EF91E25C
:102190000E94181D0E94C3100E94C01008950E9442
:1021A000B4100E94B31008950E945C130E943D0673
:1021B00008950E944C1F0E9476180E9468140E9485
:1021C000D4100E94BA100895AAE0B0E0EAEEF0E15F
:1021D0000C9444280E947E14982E81110E949B101A
:1021E00088E3A82E82E0B82E00E010E0802E802F39
:1021F0000E947713D82EF501C1905F01C826B1F473
:102200000F5F1F4F0830110589F78FEF89838A838D
:102210001B820E94551F8160782F9D838C8349818A
:102220005A816B818D810E9481062FC08091480266
:1022300081FD0E947D13E12CFF24F3948C2D8F21CE
:10224000F1F00E94B010882399F0EE828F82DF2097
:1022500081E009F480E088870E94551F8160782F13
:102260009A8789874E815F8168858A850E94810669
:10227000F801E85CFD4F8081F826F08206C0E39407
:10228000FF0CF8E0EF12DACFBBCF81E0911001C074
:1022900080E02A96ECE00C9460280E94E4100E94F2
:1022A00018170E9450060895CF93DF930E946B1277
:1022B000EC01811521E5920708F045C0811530E554
:1022C000930708F094C0883E910528F5803E91055B
:1022D00008F0F8C0883A910570F4853A910508F045
:1022E0007CC08130910509F475C008F4E8C00497FA
:1022F00008F0E8C0E4C08F3B910508F0E0C0C85A80
:10230000D0E0CC0FDD1FC85BDE4F0990D881C02D17
:10231000CE019464D8C0811540E2940758F4811529
:1023200051E0950708F0CEC0803F910508F4C7C082
:102330009065C9C0C11580E4D80708F4C0C0DF703B
:10234000CE01906AC0C0811525E59207A8F48115D9
:1023500034E5930708F095C0811543E5940708F02C
:102360007BC0811552E5950708F061C0D82FCC27B6
:10237000CE01816F906AA7C0C11589E5D807A0F486
:10238000C11528E5D20708F082C0C11536E5D3078C
:1023900008F095C08C2F0E94FF128F7190E0D82F0B
:1023A000CC27CE0190628FC0C1154AE5D40708F44E
:1023B00074C0CE0190568115904208F080C08D2FD8
:1023C0008F710E94FF12DD27D0628F71AE01582BF2
:1023D000CA0179C081E090E076C0C55AD0E0CA5801
:1023E000DE4F8881C82FD0E0CE0190646CC074E0CD
:1023F000969587957A95E1F7282F23703C2F3370B7
:1024000081E090E002C0880F991F3A95E2F79C683E
:10241000AC01522B9A019C2F9F709695969550E295
:10242000959FE0011124C9018C2B9D2B4CC083701A
:10243000992721E030E002C0220F331F8A95E2F78E
:102440009C2F9695969580E2989FE0011124C22BCF
:10245000D32BCE019C6837C08370992721E030E0F0
:1024600002C0220F331F8A95E2F79C2F969596950E
:1024700040E2949FE0011124C22BD32BCE019A6835
:1024800022C0D82FCC27CE01846F906A1CC0DC2FCD
:10249000CC27CE01806F906A16C08C2F8F700E945F
:1024A000FF1294E0D695C7959A95E1F7CF70D0E0EA
:1024B000DC2FCC27D0699E01282BC90104C080E005
:1024C00090E001C0CE01DF91CF9108950E947A1B68
:1024D0000E94541108958238910569F1B0F4813356
:1024E000910509F46DC048F48932910509F463C07F
:1024F0008A32910509F469C008958533910509F47C
:1025000055C089339105B9F00895833E910569F16D
:1025100038F4803E9105B1F0823E910509F10895AD
:10252000863E9105A9F1873E9105B9F1843E91055A
:1025300009F064C023C020918D0220FD4FC021FD11
:102540004DC0089580918D0280FD44C080918E021F
:1025500080FF44C080918D0284FD42C083EE4DC057
:1025600080918D0282FF38C0F5CF80918D0282FD6F
:1025700033C080918E0280FD31C0ECCF80918E02FD
:1025800081FF32C080918D0284FD2AC087EE35C064
:1025900080918D0283FF26C0F5CF80918D0283FD4F
:1025A00021C080918E0281FD1FC0ECCF80918D02F1
:1025B00085FD1CC01DC080918D0285FD19C016C00F
:1025C00080918D0286FD16C017C080918D0286FD18
:1025D00013C010C089E311C082EE0FC080EE0DC0A1
:1025E00080E00BC086EE09C084EE07C089E205C01A
:1025F00085E303C08AE201C081E390E008959091F1
:102600008D0292FF0DC0282F2871283019F4877F82
:10261000846006C0282F2471243011F48B7F8860D9
:1026200093FF0DC0282F2871283119F4877E84610B
:1026300006C0282F2471243111F48B7E88612091EB
:102640008E0220FF0DC0382F3871383019F4877F83
:10265000816006C0382F3171313011F48E7F88606F
:1026600021FF0DC0282F2871283119F4877E816140
:1026700006C0282F2171213111F48E7E886194FDCE
:10268000877E08950E94DB0F08950E947E148FE3D9
:102690009CE90197F1F700C000000E947E1483E0DE
:1026A0000E94771386FF04C00E9442130E94A21F5B
:1026B00008950E94451308950E94E20F811102C0FF
:1026C0000E9492100E94EE0F809348020E94F80F21
:1026D00090938E0280938D020E9459130E94F30FF3
:1026E0000E94AC0A8091BA010E94C10A0895E82FA5
:1026F000F0E0E956FD4F80810895A0E0B0E0E3E806
:10270000F3E10C94482887E094E00E94A40387E951
:10271000E82E82E0F82EC0E0D0E092E0C92E94E0EE
:10272000D92E0AEF13E0DF93CF93DF92CF920E946E
:102730003D048FEF93E00E94A403F70181917F0194
:102740000E9422061F928F931F930F930E943D04B5
:1027500088EF93E00E94A40321968DB79EB7089658
:102760000FB6F8949EBF0FBE8DBFC830D105D9F605
:10277000CDB7DEB7E8E00C94642880EA8A95F1F7DB
:10278000089500C008950E94BD13089508950E9401
:10279000C61308950E94C71308950E94C613089592
:1027A0000E94CD130895F894E82FE295EF70F0E0C1
:1027B00031A1282F2F7081E090E001C0880F2A9569
:1027C000EAF7982F9095932391A392A1892B82A346
:1027D000789408950F931F93CF93DF93C1E8D1E0CE
:1027E00089918F3F11F00E94D31381E0C938D80737
:1027F000B9F7C9E7D1E001E811E089918F3F11F005
:102800000E94D3130C171D07C1F7DF91CF911F91C1
:102810000F910895A0E0B0E0E0E1F4E10C944828C5
:102820008C01C62FD0E0CE018F579E4F7C01FC015A
:1028300090819F3F09F447C0D62EF894E92FE29586
:10284000EF70F0E081A19F7021E030E001C0220F25
:102850009A95EAF7822B81A382A12095282322A3AF
:1028600078940E94C113E9E7F1E041E851E031E0DA
:10287000C12C21912F3F89F0A22FA295AF70B0E01B
:1028800090968C9190E02F7002C0959587952A952F
:10289000E2F780FD02C0832F01C080E0C82A330F19
:1028A0004E175F0731F7F70180818F3F11F00E94CB
:1028B000D31361E0C11001C060E08D2D0E94C313ED
:1028C000C00FD11FC882CDB7DEB7E8E00C946428F2
:1028D0000E94EA1388E0E7E9F2E0DF01982F1D92F9
:1028E0009A95E9F7EFE8F2E0DF011D928A95E9F7A2
:1028F00088E00E94BA140E94BD040895A8E0B0E0E8
:10290000E4E8F4E10C944B288E010F5F1F4F88E040
:10291000F80111928A95E9F7F12C6F2DC8010E94F8
:102920000A14F394F8E0FF12F8CF48E050E0B80141
:102930008FE892E00E948928FF24F394009709F41D
:10294000F12C892B41F088E0F801AFE8B2E001906A
:102950000D928A95E1F72F2D48E067E972E08FE844
:1029600092E00E94BB140E94C0048F2D2896E5E0DF
:102970000C9467280895FF920F931F93CF93DF93D2
:102980008C01F62ED72FC42F222349F081E08093AB
:102990004B020E94551F90934A02809349028091F6
:1029A0004B028823C1F08091490290914A020E9413
:1029B0006D1F059780F0EF2DFD2FD8014C2F50E0B3
:1029C000CD01801B910B841795071CF48D91819389
:1029D000F7CF10924B02CDB7DEB7E5E00C94672835
:1029E0000E9470220E94D9100E947D2208950E94A8
:1029F00082220E944D110E94A02208950E94EC1E86
:102A00000E9456220E94C6100E94F0140E94F714E1
:102A10000E94CF10FBCF8091520280FF06C06091D0
:102A2000070170E0660F771F26C081FF04C0609128
:102A3000070184E005C082FF07C06091070188E0BC
:102A4000689FB001112417C0909151029923D1F0D1
:102A500060910601961788F72091070188E0289F6A
:102A600090011124929FA001939F500D112470E0BA
:102A7000CA010E941D286038710540F46115710576
:102A800019F406C068E070E0862F08958FE7089576
:102A900081E008958091520280FF08C06091030197
:102AA00070E0759567957595679521C081FF06C0A3
:102AB0006091030170E07595679519C082FF04C0AD
:102AC0006091030170E010C090915002992399F039
:102AD000609102019617A0F780910301899FC001C0
:102AE000112470E00E941D286038710540F46115C2
:102AF000710519F406C061E070E0862F08958FE734
:102B0000089581E00895803F21F40E940B1581957E
:102B100004C0813F29F40E940B158093560208954A
:102B2000823F21F40E940B15819504C0833F29F454
:102B30000E940B15809355020895893F19F40E9455
:102B40004A1505C08A3F31F40E944A158195809349
:102B5000570208958B3F21F40E944A15819504C0C5
:102B60008C3F29F40E944A158093580208959CE0F6
:102B7000980F953078F421E030E0A90102C0440FAD
:102B8000551F9A95E2F7CA0190915402892B8093C0
:102B9000540208958D3F21F48091520281600BC050
:102BA0008E3F21F480915202826005C08F3F29F44C
:102BB000809152028460809352020895803F39F4DC
:102BC0009091560297FF35C01092560259C0813F2E
:102BD00029F4909156021916BCF32BC0909155021E
:102BE000823F29F497FF25C01092550249C0833FC8
:102BF00019F41916CCF31DC090915702893F29F49E
:102C00001916BCF4109257023BC08A3F19F497FF83
:102C100010C0F8CF8B3F39F49091580297FF09C04C
:102C2000109258022DC08C3F21F490915802191631
:102C3000BCF39CE0980F953080F421E030E0A901CE
:102C400002C0440F551F9A95E2F7CA0180959091F2
:102C5000540289238093540213C08D3F21F4809144
:102C600052028E7F0BC08E3F21F4809152028D7FE5
:102C700005C08F3F29F4809152028B7F80935202CE
:102C800080915502811106C080915602811102C0C7
:102C90001092510280915702811106C08091580212
:102CA000811102C01092500208958091480283FF62
:102CB0007EC08DE394E00E94A403809154021F9291
:102CC0008F9388E394E09F938F930E943D0486E363
:102CD00094E00E94A40380915502282F082E000C36
:102CE000330B3F938F9383E394E09F938F930E94E2
:102CF0003D0481E394E00E94A40380915602282FB2
:102D0000082E000C330B3F938F938EE294E09F9339
:102D10008F930E943D048CE294E00E94A403809172
:102D20005702282F082E000C330B3F938F9389E214
:102D300094E09F938F930E943D0487E294E00E9469
:102D4000A40380915802282F082E000C330B3F93C8
:102D50008F9384E294E09F938F930E943D0481E2DD
:102D600094E00E94A403809151021F928F938EE100
:102D700094E09F938F930E943D048CE194E00E9425
:102D8000A403809152021F928F9389E194E09F9354
:102D90008F930E943D0486E194E00E94A4038DB7C6
:102DA0009EB74C960FB6F8949EBF0FBE8DBF0E9483
:102DB000551F20915502211104C020915602222353
:102DC00021F090934F0280934E02209157022111DF
:102DD00004C020915802222321F090934D02809349
:102DE0004C0283E592E00E947E1D0895E3E5F2E047
:102DF00086E0DF011D928A95E9F710925102109248
:102E00005002109252020895FC01828181110DC07E
:102E1000838181110AC08481811107C091E085817D
:102E2000811101C090E0892F01C081E08170089577
:102E3000A6E0B0E0EEE1F7E10C944D2886E0E3E592
:102E4000F2E0DE01119601900D928A95E1F7109261
:102E500055021092560210925702109258028B811E
:102E6000811104C08C81882309F45FC080914E02D7
:102E700090914F020E946D1FAC01909151029923D5
:102E800039F02091080130E02417350758F04DC083
:102E9000209109018AE0289F900111242417350709
:102EA00018F043C09F3F19F09F5F909351021B8120
:102EB000112361F00E940B15111614F09FEF01C051
:102EC00091E0989F902D1124909355021C8111231D
:102ED00061F00E940B15111614F09FEF01C091E0F4
:102EE000989F902D112490935602309155023323D0
:102EF000E1F0209156022223C1F045EB3403C001DA
:102F00001124992319F09093550203C081E0809316
:102F1000550235EB2303C0011124992319F0909336
:102F2000560203C081E0809356028D81811104C056
:102F30008E81882309F45FC080914C0290914D02EC
:102F40000E946D1FAC0190915002992339F020919D
:102F5000040130E02417350758F04DC020910501D9
:102F60008AE0289F900111242417350718F043C0E8
:102F70009F3F19F09F5F909350021D81112361F0D4
:102F80000E944A15111614F09FEF01C091E0989F1E
:102F9000902D1124909357021E81112361F00E94FD
:102FA0004A15111614F09FEF01C091E0989F902DE3
:102FB000112490935802309157023323E1F020916D
:102FC00058022223C1F045EB3403C0011124992398
:102FD00019F09093570203C081E08093570235EBBC
:102FE0002303C0011124992319F09093580203C0C0
:102FF00081E080935802BE016F5F7F4F83E592E0CE
:103000000E949E1E811105C083E592E00E94041774
:1030100081110E94551686E0FE013196A3E5B2E0CB
:1030200001900D928A95E1F72696E3E00C946928C9
:1030300083E290E00E949628823281F484E290E05C
:103040000E949628873051F485E290E00E949628ED
:1030500091E0843109F090E0892F01C080E0817017
:103060000895CF93C82F811102C06FEF01C062E2B3
:1030700083E290E00E94A428C11102C06FEF01C05A
:1030800067E084E290E00E94A428C11102C06FEFC3
:1030900001C064E185E290E00E94A428CF910895E8
:1030A000089586E290E00E949628682F70E080E004
:1030B00090E008950895CF93C62F0E945A186C2F60
:1030C00086E290E00E94A428CF91089580E00E94BB
:1030D000311860E070E0CB010E945B180E94031B76
:1030E0000E94D11B81E00E94311808950E9450185F
:1030F0000E9451180E945A180E941818811102C08B
:103100000E9466180895CF93FB01C281CC23E9F099
:103110009C0122513F452031310520F482510E940B
:10312000E11B0CC08031FFE59F0751F481E00E9454
:10313000D80A43E062E081E00E94B304C0E018C016
:1031400081319F45A9F482E0F2CF8031EFE59E07FF
:1031500011F481E004C081319F4549F482E00E946E
:10316000E40A43E062E081E00E94B30401C0C1E0F0
:103170008C2FCF9108952FEFFC0120830895EF92BB
:10318000FF920F931F93CF93DF93EC01062FE881FB
:103190008E2F90E0FC013197E331F10508F091C0EA
:1031A000EE59FF4F0C943128198289E04DC0898176
:1031B000823039F0833061F0813029F50E94611F3F
:1031C00002C00E9451189A838B837C836D837BC0DD
:1031D0007E0182E0E80EF11C10E0812F0E9477133F
:1031E000F70181937F011F5F1830B9F76CC08981A7
:1031F000823049F46A817B818C819D810E943728CD
:103200000E945B1860C0602FCE010E94BB185BC09B
:103210004B816A8189810E94C71A9C838D8353C028
:103220002C813D813227232732274B816A81898176
:103230000E94E81A48C00E94031B45C00E94881BD8
:1032400024C00E948A1B99838A833DC06B8170E0F1
:1032500089819A81AE014C5F5F4F98278927982713
:103260000E948D1B30C06B8170E089819A81AE0114
:103270004C5F5F4F9827892798270E94B01B23C077
:103280000E94D11B20C00E94B41A89831CC06B818C
:1032900070E089819A81AE014C5F5F4F9827892742
:1032A00098270E94381B0FC06B8170E089819A813A
:1032B000AE014C5F5F4F9827892798270E945A1BC1
:1032C00002C08FEF8883602FCE010E946920CDB7A6
:1032D000DEB7E6E00C946628CF93DF93EC01FB01A8
:1032E0008281882309F43CC1C330FDE5DF0760F427
:1032F000CA3F9CE5D90788F49E0122503C45243101
:10330000310508F02EC109C0C136EDE5DE0729F010
:10331000C53AFDE5DF0709F024C10E94F80F90933C
:103320008E0280938D02C1318CE5D80709F4C6C0A6
:1033300008F042C0C930ECE5DE0709F49BC000F597
:10334000C5308CE5D80709F485C078F4C330ECE5C6
:10335000DE0709F478C008F07AC0C230DC4509F015
:10336000F5C080918D028160EFC0C7309CE5D90720
:1033700009F478C008F07AC080918D028061E4C0C1
:10338000CD30FCE5DF0709F487C058F4CB309CE56D
:10339000D90709F479C008F07BC080918D0288605C
:1033A0006FC0CF30FCE5DF0709F480C008F082C0B1
:1033B00080918D02877FC8C0CD3F9CE5D90709F475
:1033C00071C000F5C531FCE5DF0709F485C068F47C
:1033D000C3319CE5D90709F475C008F095C00E9477
:1033E000610A80918D028F77AFC0CB3FFCE5DF078C
:1033F000A9F108F054C0CA3FDC4509F0A7C080918C
:103400008E0240C0C130EDE5DE0709F489C058F4F2
:10341000CF3F8CE5D80709F45AC008F069C0809105
:103420008E0282602FC0C136EDE5DE0709F47CC054
:10343000C53AFDE5DF0709F481C0C230DD4509F07A
:1034400085C080E06EC080918D0282607DC08091D9
:103450008D0216C080918D02886076C080918E02A8
:1034600082604FC080918D0280626EC080918D021B
:1034700080646AC00E94610A80918D02806864C085
:10348000846062C081603DC080918D028E7F5CC08F
:1034900080918D028D7F58C080918D0216C08091E1
:1034A0008E0218C080918E028D7F2BC080918D027C
:1034B0008F7E4AC080918D028F7D46C080918D02A3
:1034C0008F7B42C080918D02877F8B7F3DC0809132
:1034D0008E028D7F8E7F15C080918D0282FB222708
:1034E00020F991E0922790FB82F990FB83F92CC0A0
:1034F00080918E02982F909591708E7F892B90FBF2
:1035000081F980938E0222C00E94610A80918D020F
:1035100087FB222720F991E0922790FB87F914C0BE
:1035200081E00E94951012C080918D0284FB2227B9
:1035300020F991E0922790FB84F906C080918D02DA
:10354000982F909590FB80F980938D0280918D0249
:1035500090918E020E9409100E94610A80E001C0D1
:1035600081E0DF91CF91089584E0089550E0440F09
:10357000551F20E1629F400D511D11249A0160E802
:10358000869F200D311D1124C901879608950F9340
:103590001F93CF93DF938430A0F4683090F44830C9
:1035A00080F40E94B61A8C010E94962890E0D82FD1
:1035B000CC27C80101960E9496289E01282BC9019C
:1035C00002C080E090E0DF91CF911F910F910895AC
:1035D0000F931F93CF93DF93843080F4683070F49F
:1035E000483060F4E9010E94B61A8C016D2F0E94E8
:1035F000A4286C2FC80101960E94A428DF91CF91C6
:103600001F910F910895A0E0B0E0E9E0FBE10C9478
:103610004628A12CE12CF12CB12C00E010E0C0E0F8
:10362000D0E06701C00ED11EF601EC0FFD1FEE0FBA
:10363000FF1FE250FF4F259134914C2F6B2D8A2DA7
:103640000E94E81A2196C830D10571F7085F1F4F14
:10365000B39488E0B812E3CF80E4E80EF11CA394A1
:1036600084E0A812D9CFCDB7DEB7EAE00C94622887
:10367000EF92FF920F931F93CF93DF93EA017A01AA
:10368000E60EF71E8C01C8018796CE15DF0569F09E
:10369000011522E0120720F40E949628888301C0B9
:1036A000188221960F5F1F4FEECFCDB7DEB7E6E051
:1036B0000C946628EF92FF920F931F93CF93DF93A2
:1036C000EA017A01E60EF71E8C01C8018796CE1535
:1036D000DF0559F0011522E0120718F468810E94F5
:1036E000A42821960F5F1F4FF0CFCDB7DEB7E6E0DD
:1036F0000C946628843048F4783038F4683028F424
:10370000462F672F0E94C71A089580E090E0089521
:1037100080E1089589ED91E00895EF92FF920F9373
:103720001F93CF93DF93EA017A01E60EF71E8C0117
:10373000C801895D9D4FCE15DF0569F0093D21E087
:10374000120720F40E949628888301C018822196CF
:103750000F5F1F4FEDCFCDB7DEB7E6E00C946628C4
:10376000EF92FF920F931F93CF93DF93EA017A01B9
:10377000E60EF71E8C01C801895D9D4FCE15DF0551
:1037800059F0093D21E0120718F468810E94A4282D
:1037900021960F5F1F4FEFCFCDB7DEB7E6E00C9459
:1037A0006628CF93DF93C7E2D2E060E0CE010E94AB
:1037B000A4282196C11584E0D807B9F7DF91CF91ED
:1037C0000895A4E0B0E0E7EEFBE10C944928F82E60
:1037D0008FE08F15E8F18FEF93E00E94962881111A
:1037E00037C007E212E0FF2069F0011584E01807F6
:1037F00079F1C8010E949628811101C0FA940F5FE7
:103800001F4FF1CF19821A821B821C82DD24D394B0
:1038100078018FEFE81AF80AC8010E949628898378
:103820001A828823A9F09FEF980F933058F48A8367
:10383000D9820E5F1F4FC7010E9496288B83882371
:1038400039F07801CE0101960E941E068701E0CF73
:103850002496E7E00C946528CF93DF9386319C454E
:1038600041F5EB010E94DD0E982F8A812091000125
:1038700030910101882379F09A7A81E009F480E09F
:1038800080935902911102C069E201C065E3C90148
:103890000E94701E0AC080915902811102C069E223
:1038A00001C065E3C9010E947E1E0E94210F80E0D5
:1038B00001C081E0DF91CF9108950F931F93CF93C3
:1038C000DF93C42FD22FFC0182818823B1F0409373
:1038D0005C020E94551F90935B0280935A0280E223
:1038E0008C0F883008F04DC0C77081E001C0880F90
:1038F000CA95EAF70E94FE0744C080915C02481313
:1039000030C080915A0290915B020E946D1F883CEA
:10391000910538F510E21D0FCD17B9F080E28C0F3C
:10392000883040F4C77081E001C0880FCA95EAF77B
:103930000E940508183010F581E09D2F977001C096
:10394000880F9A95EAF70E94FE07802F0E94F407DD
:103950001830B8F4D77081E001C0880FDA95EAF723
:103960000AC080E28C0F883060F4C77081E001C02B
:10397000880FCA95EAF70E94050803C0802F0E94AD
:10398000F407DF91CF911F910F9108950F939C0140
:10399000CB01233F4CE5340731F188F4283DFCE5A9
:1039A0003F07D9F0293D4CE5340779F1273D3C45E7
:1039B000A9F506E221EE41EE67ED7CE52BC0253F3F
:1039C000FCE53F07E1F0A8F0263F3C4539F507E26A
:1039D00025EE46EE66EF7CE51DC007E225EE45EEDE
:1039E00068ED7CE517C006E221EE40EE63EF7CE572
:1039F00011C007E225EE44EE64EF7CE50BC006E261
:103A000021EE42EE65EF7CE505C008E221E045EEDF
:103A100069ED7CE50E945D1C80E008C0FC018281AC
:103A2000882319F010925C0201C081E00F91089583
:103A300090939F0180939E010895909362028093DA
:103A400061020895E0916102F0916202309729F0DD
:103A50000190F081E02D0995089580E00895EF929E
:103A6000FF921F93CF93DF93FC01A0916102B0916D
:103A700062021097E9F180911601882341F080914C
:103A80008D0287FF04C08081818386E08083EF01FF
:103A90001296ED91FC911397CE0109958091480201
:103AA00082FF26C080FF04C088E694E00E94A40341
:103AB00018E082E6E82E84E0F82E8091480280FF2C
:103AC0000BC088811F928F93FF92EF920E943D045A
:103AD0000F900F900F900F90115021961111EDCF74
:103AE0008091480280FF04C080E694E00E94A40315
:103AF000DF91CF911F91FF90EF900895E0916102C7
:103B0000F0916202309739F022E0DC012C930480BE
:103B1000F581E02D0995089520915F0230916002B2
:103B20002817390771F09093600280935F02E0914B
:103B30006102F0916202309721F00680F781E02D5A
:103B40000995089520915D0230915E02281739078A
:103B500071F090935E0280935D02E0916102F091BA
:103B60006202309721F00084F185E02D09950895D7
:103B7000FC01329680911601882331F080918D02EC
:103B800087FF02C09EE101C096E080E0915028F0DE
:103B900021912223D9F38F5FF9CF0895662351F144
:103BA000209116012223E9F020918D0227FF19C0F0
:103BB000462F4695469546954E31E0F4677021E0D4
:103BC00030E002C0220F331F6A95E2F7FC01E40FD8
:103BD000F11D828190E02823392381E0232B69F4B1
:103BE00009C0FC01329608962191621729F0E81766
:103BF000F907D1F780E0089581E008959C01FC0168
:103C000032969FEF80E04191461789F09F3F19F46B
:103C1000411101C0982F8F5F8630A9F79F3F39F07F
:103C2000F901E90FF11D97FDFA9562830895089552
:103C30009C012A5F3F4FFC014281461301C0128262
:103C4000019682179307B9F70895262F2695269592
:103C500026952E3170F4FC01E20FF11D677021E012
:103C600030E001C0220F6A95EAF78281282B228377
:103C700008958091480280FF0CC01F926F9388E9DD
:103C800094E09F938F930E943D040F900F900F90AC
:103C90000F900895262F2695269526952E3178F497
:103CA000FC01E20FF11D677021E030E001C0220F3E
:103CB0006A95EAF7209582812823228308958091CE
:103CC000480280FF0CC01F926F938AE794E09F9395
:103CD0008F930E943D040F900F900F900F900895C6
:103CE00020911601222339F020918D0227FF03C075
:103CF0000E94251E08950E94FE1D08952091160120
:103D0000222339F020918D0227FF03C00E944A1E12
:103D100008950E94181E089520911601FC01329604
:103D2000222331F080918D0287FF02C08EE101C015
:103D300086E0DF011D928A95E9F7089546E050E09C
:103D40000E94892821E0892B09F420E0822F089520
:103D500008950E94A81E089583E0809363020E9444
:103D6000A91E0895811102C081E001C082E0809304
:103D700063020E94A91E08950E94B21E089581E068
:103D8000809363020E94A91E08950E94BF1E089599
:103D900008950E94C81E08950E94C91E08950E9499
:103DA000C81E08950E94C81E08950E94C81E089546
:103DB000CF930E94D21E0E947E140E94CF1EC0E0AC
:103DC0008C2F0E947713811104C0CF5FC830C1F7D8
:103DD00001C081E0CF91089585B7806885BF85B720
:103DE000806885BF08951F920F920FB60F9211241D
:103DF0008F939F93AF93BF9380916402811113C0FF
:103E000080919F029091A002A091A102B091A20284
:103E10004196A11DB11D80939F029093A002A09393
:103E2000A102B093A202BF91AF919F918F910F9089
:103E30000FBE0F901F9018958091A702843031F12A
:103E40000E9450051092640220E488E190E00FB6D1
:103E5000F894A895809360000FBE2093600083B70C
:103E6000817F846083BF83B7816083BF78948895A6
:103E700083B78E7F83BF0FB6F894A89580916000BA
:103E8000886180936000109260000FBE08950E94C8
:103E9000610A0E945505089582E084BD93E095BDB6
:103EA0009AEF97BD80936E0008952FB7F894809194
:103EB0009F029091A002A091A102B091A2022FBFF7
:103EC00008952FB7F89460919F027091A00280919D
:103ED000A1029091A2022FBF08959C014FB7F894C0
:103EE00080919F029091A002A091A102B091A202A4
:103EF0004FBF821B930B089578941F920F920FB6B9
:103F00000F9211248F939F93AF93BF9380919F0241
:103F10009091A002A091A102B091A2020196A11DD0
:103F2000B11D80939F029093A002A093A102B09331
:103F3000A202BF91AF919F918F910F900FBE0F90F2
:103F40001F90189581E08093E00080E28093D80074
:103F50001092C9008FE19EE40197F1F700C00000C4
:103F600087E090EBDC018093B0029093B102A093C4
:103F7000B202B093B3029CE088E10FB6F894A89522
:103F8000809360000FBE90936000FFCF9CE088E1BB
:103F90000FB6F894A895809360000FBE90936000D0
:103FA000FFCF80918B020895089524E02093E900CB
:103FB0002FEF3091E800215035FD06C035ED3A95E0
:103FC000F1F700002111F5CF2091E80025FF0BC08B
:103FD00040E050E066E070E00E943F238091E800FE
:103FE0008E778093E8000895CF93DF932091160198
:103FF000222339F020918D0227FF03C060E224E0E4
:1040000002C068E021E02093E9002FEF3091E80042
:10401000215035FD06C035ED3A95F1F7000021112C
:10402000F5CF2091E80025FF1DC0EC01809116011D
:10403000811105C040E050E068E070E003C070E02E
:1040400040E050E0CE010E943F238091E8008E774F
:104050008093E80080E2FE01ABE6B2E001900D92B1
:104060008A95E1F7DF91CF9108958093670270936D
:104070006902609368028091A7028430F9F480930A
:10408000E9008FEF9091E800815095FD06C095ED15
:104090009A95F1F700008111F5CF8091E80085FF36
:1040A0000DC040E050E063E070E087E692E00E94DF
:1040B0003F238091E8008E778093E8000895BC014B
:1040C00084E00E9435200895BC0183E00E943520E1
:1040D0000895CF93603219F52091A7022430F9F4A6
:1040E000C091E900CF703091EC00232F217030FD9A
:1040F00020E8C22B22E02093E9002091E80020FF75
:104100000BC040E050E060E270E00E943F238091ED
:10411000E8008E778093E800CF70C093E900CF91DC
:1041200008958AEC94E00E94A4038091A602811174
:1041300009C00E940F250E946C258091E2008460D6
:104140008093E200089586EC94E00E94A40310920C
:10415000A602089582EC94E00E94A4030E94C51E6A
:1041600008958EEB94E00E94A4036091A30281E085
:10417000611101C080E00E94AC1E08958AEB94E0BA
:104180000E94A4039091A70281E0943009F080E09E
:104190006091A3020E94B21E0895209166022F5FD3
:1041A000822F62E30E941128992319F0209366025E
:1041B00008951092660280916A02882371F18091BD
:1041C000A702843041F58091E9008F702091EC00C6
:1041D000922F917020FD90E8892B95E09093E90053
:1041E0009091EB0090FF14C09091EE0097FF10C0EB
:1041F0009091E80095FF03C01092F100F9CF9091E3
:10420000E80090FF05C09091E8009E779093E80049
:104210008F708093E90010926A02089542E061EC89
:1042200081E00E94882442E261EC84E00E948824BC
:1042300042E261EC82E00E94882442E260EC83E08A
:104240000E94882442E261EC85E00E9488249091DB
:10425000A70281E0943009F080E06091A3020E94FF
:10426000BC1E08958091A902833009F463C030F424
:10427000813071F0823009F49DC008958A3009F4CC
:1042800089C08B3009F46EC0893009F0ABC020C002
:104290008091A802813A09F0A5C08091E800877F4B
:1042A0008093E8008091AC029091AD02892B21F4BB
:1042B00060E28BE692E003C060E080E090E070E0B6
:1042C0000E94C9238091E8008B778093E8000895CD
:1042D0008091A802813209F085C08091AC02909152
:1042E000AD02009719F0029709F07CC08091E800B8
:1042F000877F8093E8008091E80082FD05C080916F
:10430000A7028111F8CF6EC02091F3008091F200D6
:1043100090E0922B029731F48091F100813011F0FE
:10432000863021F48091F10080938B028091E80027
:104330008B7754C08091A802813A09F053C08091D4
:10434000AC029091AD02892B09F04CC08091E8003D
:10435000877F8093E8008091E80080FFFCCF809108
:10436000160137C08091A8028132E1F58091AC023C
:104370009091AD02892BB1F58091E800877F809301
:10438000E8000E94BD248091AA02809316010E9439
:10439000610A08958091A802813221F58091E80098
:1043A000877F8093E8000E94BD248091AB028093B8
:1043B0008C0208958091A802813AA1F48091E800CE
:1043C000877F8093E8008091E80080FFFCCF809198
:1043D0008C028093F1008091E8008E778093E80052
:1043E0000E94BD2408959FB7F89410926A029FBF5F
:1043F0009091A702943009F057C09091E9009F7006
:104400003091EC00232F217030FD20E8922B25E025
:104410002093E9002091EB0020FF43C02091EE00A3
:1044200027FF3FC020916502222321F02091E80060
:1044300025FF37C01092650226E03091E80035FD77
:1044400015C03091A702343061F53091EB0035FD95
:1044500028C0215021F481E08093650222C0EFE959
:10446000FFE03197F1F700C00000E7CF8093F10043
:104470008091E80085FD0AC08091E80080FFFCCFB4
:104480008091E8008E778093E80006C08FB7F8949B
:1044900021E020936A028FBF9F709093E90080E033
:1044A00008959F709093E9008FEF089584B7877FF8
:1044B00084BF0FB6F894A8958091600088618093BE
:1044C0006000109260000FBE90E080E80FB6F89494
:1044D00080936100909361000FBE0E94BF1E0895FB
:1044E0000E940F250E946C25E2EEF0E0808184603E
:1044F000808378940E94F62708958AE091E00E94D4
:104500001D1D08958091A7028530C9F486EB94E0C3
:104510000E94A4038091A702853079F40E941C1F99
:104520008091A5028823B1F30E94D81E882391F3BD
:104530000E9429230E94610AEDCF0E94471F08951F
:10454000A0E2B0E0E6EAF2E20C944E288091A702E5
:10455000843011F583E08093E9008091E80082FFC8
:104560001BC08091E80085FF0AC040E050E060E297
:1045700070E0CE0101960E94842391E001C090E09A
:104580008091E8008B778093E800992329F060E21E
:10459000CE0101960E94BF18A096E2E00C946A2812
:1045A0000E94D3220895292F332723303105C9F0E3
:1045B00060F42130310581F02230310509F041C02D
:1045C0008BE790E024EF34E040C021323105E1F088
:1045D0002232310531F135C082E190E02FE635E03D
:1045E00034C099278130910549F028F0029749F5A8
:1045F000EEECF4E005C0E0EFF4E002C0EEEDF4E034
:10460000849190E09F0121C064307105D0F4660F61
:10461000771FFB01EB56FE4F2081318189E090E04E
:1046200014C06430710568F4FB01EE0FFF1FE357FF
:10463000FE4F20813181FB01E757FE4F808190E0E2
:1046400004C080E090E020E030E0FA013183208374
:10465000089580E189BD82E189BD09B400FEFDCFE6
:104660008091D8008F7D8093D8008091E000826097
:104670008093E0008091E00081FDFCCF0895A0E0F0
:10468000B0E0E5E4F3E20C944828EC018B017A01F8
:104690000E94DC24811133C0E114F10439F0F701E8
:1046A00080819181081B190BC80FD91FC12CD12CF7
:1046B0000115110519F18091E80085FD16C0809162
:1046C000E8008E778093E800E114F10449F0F701E7
:1046D00080819181C80ED91ED182C08285E00FC031
:1046E0000E94DC24882321F30AC089918093F10081
:1046F00001501109FFEFCF1ADF0ADACF80E0CDB702
:10470000DEB7E8E00C946428A0E0B0E0EAE8F3E269
:104710000C944828EC018B017A010E94DC24811161
:1047200033C0E114F10439F0F70180819181081B55
:10473000190BC80FD91FC12CD12C0115110519F166
:104740008091E80085FD16C08091E8008B7780930A
:10475000E800E114F10449F0F70180819181C80E6D
:10476000D91ED182C08285E00FC00E94DC2488233C
:1047700021F30AC08091F100899301501109FFEFE4
:10478000CF1ADF0ADACF80E0CDB7DEB7E8E00C94CD
:1047900064282091AE023091AF022617370748F007
:1047A0006115710539F42091E8002E772093E80017
:1047B00001C0B901FC0120E06115710579F180911A
:1047C000A7028823F1F18530F1F18091E80083FDA3
:1047D0003CC08091E80082FD2EC08091E80080FFFF
:1047E000EBCF2091F3008091F20090E0922B6115C5
:1047F000710551F08830910538F421912093F10032
:10480000615071090196F3CF21E0089709F020E08B
:104810008091E8008E778093E800CECF2111CFCF32
:104820000AC08091A702882361F0853061F08091F1
:10483000E80083FD0AC08091E80082FFF2CF80E0AB
:10484000089582E0089583E0089581E0089520911D
:10485000AE023091AF022617370748F06115710597
:1048600039F42091E8002E772093E80001C0B901C7
:10487000FC0120E06115710591F18091A702882368
:1048800009F440C0853009F43FC08091E80083FD01
:104890003DC08091E80082FD2FC08091E80080FF3C
:1048A000E9CF2091F3008091F20090E0922B611506
:1048B000710559F08830910540F424912093F1005E
:1048C0003196615071090196F2CF21E0089709F005
:1048D00020E08091E8008E778093E800CBCF211113
:1048E000CCCF0AC08091A702882361F0853061F0A7
:1048F0008091E80083FD0AC08091E80082FFF2CF3A
:1049000080E0089582E0089583E0089581E00895AD
:10491000982F973068F59093E900981739F07091C7
:10492000EC002091ED005091F00003C0242F762F71
:1049300050E021FD02C09F5FECCF3091EB003E7F45
:104940003093EB003091ED003D7F3093ED003091DE
:10495000EB0031603093EB007093EC002093ED009E
:104960005093F0002091EE0027FDE5CF80E0089500
:104970008F708093E90081E008958091A80287FFFD
:1049800011C08091E80082FD05C08091A7028111CD
:10499000F8CF11C08091E8008B770BC08091A702FF
:1049A000882349F08091E80080FFF8CF8091E800EB
:1049B0008E778093E80008952091E4003091E5001F
:1049C00095E64091EC00842F817040FF23C08091D8
:1049D000E80080FD1DC08091A702882399F08530F2
:1049E00099F08091EB0085FD11C04091E400509159
:1049F000E5002417350729F3915011F09A01E1CF12
:104A000084E0089582E0089583E0089581E00895A8
:104A100080E008954091E80042FFDDCF08950E94B4
:104A20007E250E948625E0EEF0E080818160808313
:104A3000E8EDF0E080818F77808319BCA7EDB0E0CE
:104A40008C918E7F8C9380818F7E80831092A602C2
:104A500008950F931F93CF93DF930E947E250E94AA
:104A60008625C8EDD0E088818F778883888180682B
:104A7000888388818F7D888319BC1092A702109249
:104A8000A3021092A5021092A40200EE10E0F80119
:104A900080818B7F808388818160888342E060E0B1
:104AA00080E00E948824E1EEF0E080818E7F8083A8
:104AB000E2EEF0E080818160808380818860808385
:104AC000F80180818E7F8083888180618883DF9177
:104AD000CF911F910F910895E8EDF0E080818F7ED6
:104AE0008083E7EDF0E080818160808384E082BF95
:104AF00081E08093A6020E9429250895E8EDF0E068
:104B000080818E7F80831092E20008951092DA00F7
:104B10001092E10008951F920F920FB60F92112488
:104B20002F933F934F935F936F937F938F939F93B5
:104B3000AF93BF93EF93FF938091E10082FF0BC08F
:104B40008091E20082FF07C08091E1008B7F80931B
:104B5000E1000E94CD208091DA0080FF1FC080918B
:104B6000D80080FF1BC08091DA008E7F8093DA002E
:104B70008091D90080FF0DC080E189BD82E189BDAF
:104B800009B400FEFDCF81E08093A7020E9491202E
:104B900005C019BC1092A7020E94A3208091E100D9
:104BA00080FF19C08091E20080FF15C08091E20073
:104BB0008E7F8093E2008091E20080618093E2002A
:104BC0008091D80080628093D80019BC85E08093E2
:104BD000A7020E94B1208091E10084FF30C0809143
:104BE000E20084FF2CC080E189BD82E189BD09B467
:104BF00000FEFDCF8091D8008F7D8093D8008091FA
:104C0000E1008F7E8093E1008091E2008F7E8093AF
:104C1000E2008091E20081608093E2008091A30233
:104C2000882311F084E007C08091E30087FD02C073
:104C300081E001C083E08093A7020E94BE208091A2
:104C4000E10083FF29C08091E20083FF25C08091AD
:104C5000E100877F8093E10082E08093A7021092B9
:104C6000A3028091E1008E7F8093E1008091E200B9
:104C70008E7F8093E2008091E20080618093E20069
:104C800042E060E080E00E9488248091F00088602B
:104C90008093F0000E94AA20FF91EF91BF91AF9105
:104CA0009F918F917F916F915F914F913F912F9144
:104CB0000F900FBE0F901F9018951F920F920FB676
:104CC0000F9211242F933F934F935F936F937F9392
:104CD0008F939F93AF93BF93CF93DF93EF93FF9304
:104CE000C091E900CF708091EC00D82FD17080FD89
:104CF000D0E81092E9008091F000877F8093F00067
:104D000078940E94A1261092E9008091F0008860BA
:104D10008093F000CD2BCF70C093E900FF91EF910D
:104D2000DF91CF91BF91AF919F918F917F916F91C3
:104D30005F914F913F912F910F900FBE0F901F9059
:104D40001895AAE2B0E0E7EAF6E20C944D28E8EA0A
:104D5000F2E08091F100819322E0E03BF207C9F795
:104D60000E9432218091E80083FF2EC18091A80229
:104D70009091A902492F50E04A30510508F024C112
:104D8000FA01EB58FF4F0C943128803821F082381B
:104D900009F01AC108C08091A4029091A50299233C
:104DA00089F082600FC08091AC028F70873008F06C
:104DB0000BC18093E9008091EB0085FB882780F987
:104DC0001092E9009091E800977F9093E80080931B
:104DD000F1001092F100D1C0282F2D7F09F0F4C00E
:104DE000882319F0823061F0EFC08091AA028130EF
:104DF00009F0EAC0933009F080E08093A5022EC04C
:104E00008091AA0281112AC08091AC028F702FEF8D
:104E1000280F263008F0D8C08093E9002091EB00DD
:104E200020FF1CC0933021F48091EB00806214C0FD
:104E30009091EB0090619093EB0021E030E0A901AC
:104E400002C0440F551F8A95E2F74093EA00109282
:104E5000EA008091EB0088608093EB001092E900FB
:104E60008091E800877F8093E8000E94BD24ACC059
:104E70008111AAC01091AA021F778091E300807867
:104E8000812B8093E3008091E800877F8093E80086
:104E90000E94BD248091E80080FFFCCF8091E30058
:104EA00080688093E300111102C082E001C083E0BA
:104EB0008093A70289C08058823008F085C0809115
:104EC000AA029091AB028C3D53E0950779F583E0FF
:104ED0008A838AE289834FB7F894DE01139620E033
:104EE0003EE051E2E32FF0E050935700E49120FFC1
:104EF00003C0E295EF703F5FEF708E2F90E0EA30D5
:104F000010F0C79601C0C0968D939D932F5F2431FA
:104F100049F74FBF8091E800877F8093E8006AE2FD
:104F200070E0CE0101960E94C92316C06091AC02C8
:104F30007091AD02AE014F5F5F4F0E94D022BC0165
:104F4000892B09F441C09091E800977F9093E80085
:104F500089819A810E9427248091E8008B77809331
:104F6000E80032C0803881F58091E800877F809327
:104F7000E8008091A3028093F1008091E8008E7791
:104F800072CF811121C08091AA029091AB02992722
:104F90000297D4F48091E800877F8093E8008091A5
:104FA000AA028093A3020E94BD248091A3028111D2
:104FB00006C08091E30087FD02C081E001C084E06B
:104FC0008093A7020E940E218091E80083FF0AC00F
:104FD0008091E800877F8093E8008091EB008062F9
:104FE0008093EB00AA96E3E00C946928CF9380911C
:104FF000A7028823A1F0C091E900CF709091EC0046
:10500000892F817090FD80E8C82B1092E900809173
:10501000E80083FD0E94A126CF70C093E900CF91E4
:105020000895991B79E004C0991F961708F0961B04
:10503000881F7A95C9F78095089597FB072E16F477
:10504000009407D077FD09D00E94752807FC05D091
:105050003EF4909581959F4F0895709561957F4F8F
:105060000895EE0FFF1F0590F491E02D0994692734
:105070009627692778278727782708952F923F92C8
:105080004F925F926F927F928F929F92AF92BF9258
:10509000CF92DF92EF92FF920F931F93CF93DF9304
:1050A000CDB7DEB7CA1BDB0B0FB6F894DEBF0FBE61
:1050B000CDBF09942A88398848885F846E847D84AE
:1050C0008C849B84AA84B984C884DF80EE80FD80B0
:1050D0000C811B81AA81B981CE0FD11D0FB6F89426
:1050E000DEBF0FBECDBFED010895AA1BBB1B51E172
:1050F00007C0AA1FBB1FA617B70710F0A61BB70B48
:10510000881F991F5A95A9F780959095BC01CD01EC
:105110000895FB01DC0104C08D910190801921F4F8
:1051200041505040C8F7881B990B0895F999FECF5C
:1051300092BD81BDF89A992780B50895A8E1B0E0A5
:1051400042E050E00C94CA28262FF999FECF92BD78
:1051500081BDF89A019700B4021639F01FBA20BD3C
:105160000FB6F894FA9AF99A0FBE08950396272F6E
:105170000E94A5280E94A428252F0E94A528242F3C
:105180000C94A5280196272F0E94A5280C94A428EA
:10519000DC01CB01FC01F999FECF06C0F2BDE1BDF7
:1051A000F89A319600B40D9241505040B8F70895E6
:0451B000F894FFCFA1
:1051B4001602280850011E0A1401D11FF41FD51F1E
:1051C40064205F20D41F01E200E900EA00B500B6C4
:1051D40000B700CD008301CC008A01920194012123
:1051E40002230224022502260227022A02B300B463
:1051F400006F007000818283E200E900EA00B500DC
:10520400B600B700CD008301CC008A01920194015D
:105214002102230224022502260227022A02B300C5
:10522400B4006F007000818283F697F567346636A8
:1052340035F191929496F730F44022B6227B06A37E
:0E52440005C505810506051F053F0558050037
:00000001FF
