:100000000C9492040C94FC330C94CA040C94CA040F
:100010000C94CA040C94CA040C94CA040C94CA0428
:100020000C94CA040C94CA040C9423260C94DE2469
:100030000C9439280C94CA040C94CA040C94CA0475
:100040000C94CA040C94CA040C94CA040C94CA04F8
:100050000C94CA040C94D0270C94CA040C94CA04BF
:100060000C94CA040C94CA040C94CA040C94CA04D8
:100070000C94CA040C94CA040C94CA040C94CA04C8
:100080000C94CA040C94CA040C94CA040C94CA04B8
:100090000C94CA040C94CA040C94CA040C94CA04A8
:1000A0000C94CA040C94CA040C94CA04930A930ACC
:1000B000C60AC60A390B5A0C5A0C5A0C570BCB0BF2
:1000C000DC0BDC0B28122B12471254125B12661247
:1000D0006912A512C21272137213D112D312D8125E
:1000E000FF12241327132A134F13CB17F217A1194A
:1000F000F217A1193E186118A119571967190000C4
:1001000000000000000000000000000000000000EF
:1001100000000000000000000000000000000000DF
:1001200000007E0F00D4FFFFFFC700000078000032
:100130000000000000002A2B280000000000000042
:1001400000000000000000000029000000002C1E3C
:100150003420212224342627252E362D3738271EF9
:100160001F202122232425263333362E37381F041F
:1001700005060708090A0B0C0D0E0F1011121314B7
:1001800015161718191A1B1C1D2F3130232D350475
:1001900005060708090A0B0C0D0E0F101112131497
:1001A00015161718191A1B1C1D2F3130354C726784
:1001B00062206D617472697820746F67676C652066
:1001C0005B25735D3A207267625F6D617472697856
:1001D0005F636F6E6669672E656E61626C65203D58
:1001E0002025750A0044454255473A2064697361E9
:1001F000626C65642E0A0044454255473A20656E9C
:1002000061626C65642E0A007267625F6D61747270
:1002100069785F636F6E6669672E666C61677320CD
:100220003D2025640A007267625F6D6174726978AF
:100230005F636F6E6669672E7370656564203D202D
:1002400025640A007267625F6D61747269785F632A
:100250006F6E6669672E6873762E76203D20256462
:100260000A007267625F6D61747269785F636F6EB6
:100270006669672E6873762E73203D2025640A0018
:100280007267625F6D61747269785F636F6E6669D1
:10029000672E6873762E68203D2025640A007267F9
:1002A000625F6D61747269785F636F6E6669672EF5
:1002B0006D6F6465203D2025640A007267625F6D82
:1002C00061747269785F636F6E6669672E656E61CF
:1002D000626C65203D2025640A007267625F6D6173
:1002E000747269785F636F6E666967204545505226
:1002F0004F4D0A007267625F6D61747269785F6961
:100300006E69745F64726976657273207267625F8A
:100310006D61747269785F636F6E6669672E6D6F69
:100320006465203D20302E20577269746520646515
:100330006661756C742076616C75657320746F20CE
:10034000454550524F4D2E0A007267625F6D6174D1
:100350007269785F696E69745F64726976657273D9
:10036000206565636F6E666967206973206E6F74C0
:1003700020656E61626C65642E0A005B735D000A25
:100380000025303862003A200025303258000A72C9
:100390002F632030313233343536370A000A0025D6
:1003A000303258006C65645F7461736B3A200006EC
:1003B00031FF0974A1010975150026FF009520750C
:1003C0000881020976150026FF0095207508910224
:1003D000C005010980A101850319012AB700150193
:1003E00026B700950175108100C0050C0901A10117
:1003F000850419012AA002150126A0029501751095
:100400008100C00660FF0961A1010962150026FF95
:10041000009520750881020963150026FF009520CC
:1004200075089102C005010906A101050719E02917
:10043000E715002501950875018102950175088170
:10044000010507190029FF150026FF00950675080C
:10045000810005081901290595057501910295018D
:1004600075039101C009027B00040100A0FA090490
:1004700000000103010100092111010001224000D7
:1004800007058103080001090401000203000000C0
:100490000921110100012222000705820320000129
:1004A0000705030320000109040200010300000006
:1004B00009211101000122320007058403200001F7
:1004C00009040300020300000009211101000122B8
:1004D0002200070585032000010705050320000110
:1004E000120100020000000810CB56631006010242
:1004F00000011A03490072006900730020005200D5
:10050000650076002E0020003600610000000E031A
:100510004B0065006500620069006F000000040385
:10052000090454617267657420636F6E6E6563744D
:1005300065640D0A005461726765742064697363B1
:100540006F6E6E65637465642C207468726F74746A
:100550006C696E6720636F6E6E656374696F6E2081
:10056000617474656D7074730D0A004661696C6521
:100570006420746F20657865637574652025730A3F
:10058000004F6E6573686F743A20616374697665B5
:100590003A2025640A000A002530325820006B6595
:1005A00079626F6172645F7265706F72743A200075
:1005B00029001E001F002000210022002B00140033
:1005C0001A00080015001700E000040016000700DC
:1005D00009000A00E1001D001B00060019000500CB
:1005E00000000000E300105F28004A002A002700F6
:1005F00026002500240023004C00130012000C00EC
:1006000018001C00340033000F000E000D000B001A
:10061000E50038003700360010001100000000002F
:10062000E600115F2C004D0035021E021F02200261
:1006300021022202005C1E001F0020002100220077
:100640004C00010050004F0052002F00C05C010020
:100650000100010051002F02000000000100010014
:100660004C0026022A002702260225022402230229
:1006700001002700260025002400230031022E025D
:100680005E005D005C00300001002D005B005A0040
:100690005900300200000000620001004C002702F7
:1006A00045003A003B003C003D003E00C25C1E029B
:1006B0001F02200221022202C35CAC00AB00A90091
:1006C0004B002D02A800AD00AE00AA004E002D0088
:1006D0000000000001000100010026024400430068
:1006E0004200410040003F0001002702260225028F
:1006F000240223023100C95CC75CC55C4A002E009D
:100700000100CA5CC85CC65C4D002E0200000000FF
:1007100001000100010001000100010001000100D1
:1007200001000100010001000100010001000100C1
:1007300001000100010001000100010001000100B1
:1007400001000100010001000000000001000100A3
:100750000100010001000100010001000100010091
:100760000100010001000100010001000100010081
:100770000100010001000100010001000100010071
:100780000100010000000000010001000100010063
:100790005B435D005B445D005B535D005B575D0048
:1007A0005B525D00726762206D6174726978206DC2
:1007B0006F6465205B25735D3A2025750A007267BA
:1007C00062206D6174726978207365742068737635
:1007D000205B25735D3A2025752C25752C25750A1F
:1007E00000726762206D617472697820736574208D
:1007F0007370656564205B25735D3A2025750A007A
:1008000000010101010101010101020202020202D3
:1008100002020203030303030303030404040404A6
:10082000040405050505050606060606070707076D
:100830000708080808090909090A0A0A0B0B0B0C22
:100840000C0C0D0D0D0E0E0E0F0F0F1010111111BF
:100850001212131314141515161617171818191940
:100860001A1A1B1B1C1D1D1E1E1F202021222223A5
:100870002424252626272829292A2B2C2D2D2E2FE6
:1008800030313232333435363738393A3B3C3D3EFD
:100890003F404142434445464748494A4C4D4E4FEC
:1008A00050515354555658595A5B5D5E5F616264AE
:1008B000656668696B6C6D6F7072737577787A7B3B
:1008C0007D7E8082838587888A8C8E8F9193959692
:1008D000989A9C9EA0A2A3A5A7A9ABADAFB1B3B5B2
:1008E000B7BABCBEC0C2C4C6C9CBCDCFD1D4D6D88E
:1008F000DBDDDFE2E4E7E9EBEEF0F3F5F8FAFDFF2C
:100900006565636F6E6669675F7570646174655F66
:100910007267625F6D61747269785F646566617544
:100920006C740A0011241FBECFEFDAE0DEBFCDBF2A
:1009300004B603FE18C08091260590912705A0916A
:100940002805B09129058730904BA740B04B59F44A
:10095000109226051092270510922805109229055D
:10096000E0E0F8E3099512E0A0E0B1E0E0E8FCE6A1
:1009700002C005900D92AE3FB107D9F725E0AEEF6A
:10098000B2E001C01D92A632B207E1F70E944C0D01
:100990000C943E360C940000FF93EF93E091FE021E
:1009A000F091FF02309709F00995EF91FF910895BA
:1009B000FC018591803011F0EFDFFBCF0895FF2718
:1009C000E0E230E247FF0CC0419597FF09C0EDE23D
:1009D0006095709580959095611D711D811D911D8B
:1009E00027FF02C0219530E350E2AA27660F771F48
:1009F000881F991FAA1FA41710F0A41B63955A956E
:100A0000A9F7AA3008F0A95FA05DAF93F39561152F
:100A100071058105910541F7ED3211F4EF93F395DE
:100A2000F21718F43F93F395FBCF8F91B5DFFA954A
:100A3000E1F70895E991F9918591803021F08532AF
:100A400019F0AADFF9CF089520E0E89455915532C6
:100A5000C1F3503311F4689455915A3348F450530C
:100A600090F3220F022E220F220F200D250FF4CF1C
:100A70000EF4219589919991533619F3533729F141
:100A8000533559F1BC0188279927E8945C3621F445
:100A90008991999168945591543639F446EF7EF0D6
:100AA00077FF0DC08FEF9FEF0AC055374AE039F04E
:100AB000583540E121F0523642E009F00895FF93A5
:100AC000EF937DDFEF91FF91B7CFFF93EF93FC01A1
:100AD00081918030B9F360DFFBCFFF93EF9368DF44
:100AE000F1CFDF93CF93CDB7DEB72596A3DFCF91BC
:100AF000DF9108950E94DA232FEF84E39CE02150D8
:100B000080409040E1F700C000009CE088E10FB613
:100B1000F894A895809360000FBE90936000FFCF7B
:100B2000882381F19CEF980F913A60F4E0EBF3E0B9
:100B30009281891301C01282319693E0E63BF90756
:100B4000B9F70DC090E2980F983060F4877091E08B
:100B500001C0990F8A95EAF7892F0E9423200E94ED
:100B60002A2008959BE5980F933028F480E090E0C8
:100B70000E9492280895885A873120F480E090E0FE
:100B80000E947C280895CF93882309F44FC0C82F72
:100B90008CEF8C0F813AF0F4E2EBF3E088EB93E01A
:100BA0002191C21721F08E179F07D1F70DC0E0EBFE
:100BB000F3E08281C81301C01282319683E0E63BE4
:100BC000F807B9F70E942A206C2F80EB93E00E946F
:100BD000622810C080E28C0F883078F4C77081E002
:100BE00090E001C0880FCA95EAF790911204892B12
:100BF000809312040E942A2019C0EBE5EC0FE33029
:100C000040F4F0E0E654FD4F808190E00E9492288D
:100C10000DC0C85AC73150F4EC2FF0E0EE0FFF1FA3
:100C2000E354FD4F808191810E947C28CF910895EB
:100C3000A7E1B0E0EEE1F6E00C942C354B8B5C8B39
:100C40006D8B7E8B8F8B61111092110486E09E015B
:100C5000235F3F4FD901E82F1D92EA95E9F795E010
:100C6000FE017396D90101900D929A95E1F79C8946
:100C70004E895F897B897D879E876F87598B488BDB
:100C8000F901DE01179601900D928A95E1F7CE01E8
:100C900007960E947B2181113EC086E0FE013796B7
:100CA000DE01119601900D928A95E1F7FF81E885AA
:100CB0006A857B856115710531F0EF3F31F481E084
:100CC000FF3F19F403C081E001C080E080FD23C034
:100CD0002091D60330E0C901019687709927409191
:100CE000070450E08417950779F1F983EA837D833F
:100CF0006C8396E0929FD001939FB00D1124A9526E
:100D0000BC4FFE01319601900D929A95E1F78093C8
:100D1000D6030E94AC2016E0809107049091D60380
:100D20008917F9F0189FC001112489529C4F0E9425
:100D30007B218823B1F08091070490E001968770B1
:100D4000992780930704E8CF0E94DA231092D603F4
:100D500010920704E0EDF3E086E0DF011D928A9532
:100D6000E9F76796E3E00C944835A9E0B0E0EBEBD7
:100D7000F6E00C941E35FC01808191812381348141
:100D8000232B31F09F3F31F491E08F3F19F403C0E2
:100D900091E001C090E090FD56C67F0185E0DE0144
:100DA000119601900D928A95E1F7F70122818981D0
:100DB0009A81222349F00E941F21182F682F8981D0
:100DC0009A810E94362303C00E940223182F698152
:100DD0007A81812F0E9432298C01F7018281882338
:100DE00009F4F5C0980122513F452031310508F042
:100DF0000AC18FEF93E00E9464358111F2C0025165
:100E000037E0832E32E0932E002379F08114F4E052
:100E10009F0609F4E6C0C4010E946435811101C037
:100E200001502FEF821A920AEFCF1E821F8218867E
:100E30001986442443942AE0322E84010F5F1F4F09
:100E4000C4010E9464358E831F82882309F4C9C0BF
:100E50009FEF980F933060F48F834E8232E0830EC1
:100E6000911CC8010E9464358887811102C0B9C0F5
:100E700048018E010A5F1F4FF80120812223E9F209
:100E8000213009F04CC08181813049F46801F2E0E1
:100E9000CF0ED11CF80182810E94F7230AC0823054
:100EA00051F46801F2E0CF0ED11CF80182810E945A
:100EB000C305860189C0833049F46801F2E0CF0E92
:100EC000D11CF80182810E949005F3CF843019F083
:100ED0000F5F1F4F79C0F80122810E5F1F4F80E026
:100EE00090E030E0205331092A30310568F4389E13
:100EF000A001399E500D1124C901840F951F0F5F69
:100F00001F4FF8012081EDCF009709F45DC0EFE994
:100F1000FFE03197F1F700C000000197F5CFE22F15
:100F2000F0E0E25DFE4F5490822F8695869586957F
:100F300090E0FC01E25EFE4F64902770712C022E5F
:100F400002C0759467940A94E2F7F1E06F22772467
:100F5000FC01E25FFE4FA490B12C022E02C0B594BA
:100F6000A7940A94E2F731E0A322BB24FC01E250EB
:100F7000FF4FC490D12C02C0D594C7942A95E2F7B4
:100F800081E0C822DD246114710419F081EE0E9411
:100F9000C305A114B10419F086EE0E94C305852D86
:100FA0000E94F723A114B10419F086EE0E94900567
:100FB0006114710419F081EE0E949005C114D104EE
:100FC00019F08CE20E94F7230F5F1F4F55CF0031BD
:100FD0003FE5130709F08DC481E00E9470230E9451
:100FE000E41380910804877009F42DC5F70182810C
:100FF000882309F428C58091120382FF24C582E06A
:101000000E947D2320C50031FFE51F0711F481E018
:1010100005C001312FE5120721F482E00E94C923A7
:10102000DECF033FFCE51F0749F406E221EE40EE68
:1010300063EF7CE5C7010E94B928D3CF043F2CE5BC
:10104000120708F069C1083D3CE5130731F407E2D7
:1010500025EE45EE68ED7CE5EDCF093D9CE51907F1
:1010600031F408E221E045EE69ED7CE5E3CF073D90
:10107000ECE51E0731F406E221EE41EE67ED7CE57A
:10108000D9CF882309F47DC11092170403309DE560
:10109000190758F40A3FECE51E0780F4C801825096
:1010A0009C45449708F057C109C00136FDE51F076C
:1010B00029F0053A2DE5120709F04DC10E94951F50
:1010C000909312038093110301313CE5130709F457
:1010D000C9C008F043C009309CE5190709F49EC057
:1010E00008F50530FCE51F0709F488C080F40330DB
:1010F0003CE5130709F47BC008F07DC002309CE595
:10110000190709F0F9C0809111038160F3C007301D
:10111000ECE51E0709F47AC008F07CC08091110349
:101120008061E8C00D302CE5120709F489C058F43D
:101130000B308CE5180709F47BC008F07DC0809166
:101140001103886071C00F30ECE51E0709F482C0FE
:1011500008F084C080911103877FCCC00D3F2CE53F
:10116000120709F473C008F505318CE5180709F476
:1011700087C068F40331ECE51E0709F477C008F076
:1011800097C00E94DA23809111038F77B3C00B3F81
:101190002CE51207B9F108F056C00A3F8CE5180794
:1011A00009F0AAC08091120341C001309DE51907E2
:1011B00009F48AC058F40F3FFCE51F0709F45BC02F
:1011C00008F06AC080911203826030C001363DE5AC
:1011D000130709F47FC0053A8DE5180709F484C0A8
:1011E00002309DE5190709F087C060E06EC080916C
:1011F000110382607FC08091110316C0809111039A
:10120000886078C08091120382604FC08091110382
:10121000806270C08091110380646CC00E94DA23E8
:1012200080911103806866C0846064C081603DC0A5
:10123000809111038E7F5EC0809111038D7F5AC013
:101240008091110316C08091120318C0809112037F
:101250008D7F2BC0809111038F7E4CC08091110334
:101260008F7D48C0809111038F7B44C08091110312
:10127000877F8B7F3FC0809112038D7F8E7F15C04B
:101280008091110382FB222720F991E0922790FBA5
:1012900082F990FB83F92EC080911203982F9095CC
:1012A00091708E7F892B90FB81F98093120324C06B
:1012B0000E94DA238091110387FB222720F991E015
:1012C000922790FB87F916C061E08EE090E00E94C3
:1012D000823512C08091110384FB222720F991E00E
:1012E000922790FB84F906C080911103982F909566
:1012F00090FB80F980931103609111031091120308
:1013000084E090E00E948235612F82E290E00E94AA
:1013100082350E94DA2365CE053FFCE51F0731F4D4
:1013200006E221EE42EE65EF7CE584CE053F2CE53A
:10133000120730F407E225EE44EE64EF7CE57ACE46
:10134000063F3CE5130709F09CCE07E225EE46EE8A
:1013500066EF7CE56FCE06318CE5180759F5809174
:1013600012048A7A91E009F490E0909300038823B4
:1013700011F065E301C069E280EB93E00E9462280E
:1013800016C00631ECE51E0709F063C0809100032A
:10139000882309F4B5C285E3E0EBF3E09281891379
:1013A00001C01282319623E0E63BF207B9F70E94B2
:1013B0002A2017CE0A35FDE51F0709F444C0D8F4EA
:1013C00001303CE5130701F10E3D8CE5180779F17A
:1013D00001159CE5190709F059C00E94DA233FEF77
:1013E00084E39CE0315080409040E1F700C0000071
:1013F0000E94AC27F6CD0C35EDE51E07E1F028F193
:10140000073A1D45B1F042C080915904982F90953C
:10141000917090FB80F980935904992319F087EF1C
:1014200091E002C085EE91E00E94D804DACD0E94DE
:10143000B21F0E947A058091120382FB882780F9EF
:1014400091E0892703C081E001C080E00E949A23D7
:101450001DC08091120482720A3C3CE5130709F416
:10146000D9C208F065C2053CECE51E0709F4BEC20E
:1014700008F048C2033C2CE5120709F4ADC208F09D
:10148000B0C2023C8CE5180709F47EC2F7018281E4
:1014900000811181882349F0C8010E941F21D82EA4
:1014A000682FC8010E94362304C0C8010E9402238D
:1014B000D82EB8018D2D0E9432290E94AF1DB82E62
:1014C000192F982EF7010281A580A2949FE0A922EE
:1014D000809108048770B9F00023A9F0812F807FE4
:1014E000803421F080E28B0D883068F08091120307
:1014F00082FF09C082E00E947D23809108048770EA
:10150000DD24D3948111D12CC12EC2948FE0C82246
:101510008C2D90E08C30910508F0CCC1FC01EA5A8A
:10152000FF4F0C94F935812F807F1F70882311F0B5
:101530001295107F0023B9F0112309F4A9C180E2AC
:101540008B0D883010F0911006C080911204182B7A
:101550001093120405C080911104182B10931104EC
:101560000E942A2095C18B2D0E949005112309F419
:10157000A1C180E28B0D883080F1992071F1109526
:10158000809111041823109311042AC0812F807FA9
:101590001F70803211F01295107F8B2D992021F051
:1015A000F1E09F16D9F149C08091120382FD1BC062
:1015B000002369F0112339F080911204182B109345
:1015C00012040E942A2080E00E94C30573C180E0BB
:1015D0000E949005112309F46DC1812F0E942320E0
:1015E0000E942A2067C1002381F080911304AA2061
:1015F00051F021E0A21207C0182B181709F45AC1A4
:101600001093130457C1812B10C0AA2021F031E0A0
:10161000A31609F44FC10E941D2027C0002341F0EA
:1016200085E08A1508F446C1812F0E94ED2342C14E
:1016300094E09A1508F43EC118C0002349F0AA208E
:1016400099F3F701858180FF23C18F708583ECCFEB
:10165000AA2059F0893309F02AC1FFEF27EE33E0C1
:10166000F15020403040E1F720C1812F0E94E62355
:1016700021C1812F86958695837019F0813061F0A4
:1016800019C1002321F08B2D912F937002C080E0AF
:1016900090E00E94922814C1002321F08B2D912FFD
:1016A000937002C080E090E00E947C2809C1812FE5
:1016B0008370A9F5011102C14B2D429546954770E3
:1016C000440F440F8B2D8F7090E09C01042E01C0BD
:1016D000220F0A94EAF7B4FE08C08FE090E001C040
:1016E000880F4A95EAF7809501C080E01695169517
:1016F0001370123069F088F490911404113019F0CD
:10170000822B892302C0922B892B0E94D523D6C01D
:10171000822B909114048927F8CF822BF6CF0023D7
:1017200019F0812F817001C08695882309F4C6C005
:101730004B2D429546954770440F440F8B2D8F706B
:1017400090E09C01042E01C0220F0A94EAF7B4FE37
:1017500008C08FE090E001C0880F4A95EAF78095B5
:1017600001C080E0169516951370123059F078F488
:1017700090917503113019F0822B892309C0922BA7
:10178000892B06C0822B90917503892701C0822B7B
:101790000E946B2393C01F70002339F0812F0E9499
:1017A000C9238B2D0E94ED2389C08B2D0E94E62337
:1017B000812F0E94702382C08B2D92EF991681F1A8
:1017C000991538F0E0EF9E1659F0F1EF9F1619F1D8
:1017D0005BC023EF921659F134EF9316C1F054C059
:1017E000002381F084E08A1508F464C01F7181E051
:1017F00090E0012E01C0880F0A94EAF790917503DA
:10180000892720C095E09A1508F454C0EFCF809145
:10181000120382FD1AC0002329F0812F8F7127C087
:101820000023D9F3812F8F710E94702343C00023BE
:1018300041F01F7181E0012E01C0880F0A94EAF780
:1018400001C080E00E946B2335C0002399F01F7116
:10185000812F0E94C9238091120382FF07C0E8E014
:101860001E9FC0011124836080930804812F0E9471
:10187000C92320C081E00E947D23F1E0FA15D0F455
:1018800082E00E947D2316C0002321F0AA2029F2C5
:101890008B2D9ACEAA2031F2893349F42FEF37EEFF
:1018A00083E0215030408040E1F700C000008B2DE4
:1018B0000E94900588EF8C0D843010F40E94A828B7
:1018C000DD2009F4C0C08091080480FDBCC0F70190
:1018D00012828595859585950E94C923C7010E942E
:1018E000B506809108048595859585950E9470239D
:1018F000AAC001319FE5190709F093CB82E06DCBB7
:1019000089E24ACD073C9CE5190709F479C008F43F
:1019100072C0083CFCE51F0709F477C0093C2CE5C0
:10192000120709F0B3CD4BEE5DE269EF7DE280C0B6
:101930000F3C3CE5130709F481C0A0F40C3CECE536
:101940001E0709F471C008F46AC00D3C2CE51207AB
:1019500009F471C00E3C3CE5130709F097CD61E036
:1019600085E06EC0063D8CE5180740F4013D9CE51E
:10197000190708F036CB61E082E162C00D35EDE574
:101980001E0709F42ECB82CD80917603282F237079
:1019900091E092278C7F892B8093760310925001DF
:1019A000809158048160809358048091590480FF8D
:1019B00018CB1F929F938FEE92E09F938F938EEAA6
:1019C00091E09F938F930E9471050F900F900F905D
:1019D0000F900F900F9005CB41E75EE26CE77EE23F
:1019E00027C04CE75EE261E77EE222C043E25EE2AE
:1019F0006EE27EE21DC04EE25EE263E27EE218C06D
:101A000047E05EE265E17EE213C045E15EE267E049
:101A10007EE20EC049EF5DE26BEE7DE209C04DE96A
:101A20005DE269EA7DE204C049EA5DE26DE97DE2DA
:101A30000E94732DD6CA61E081E002C061E08DE0B2
:101A40000E94392ECECA2996E1E10C943A3582954E
:101A5000982F937344E0949F900111248C7C869579
:101A60008695282B822F8575880F2A7A2695822BBA
:101A70000895811106C0662311F089EA09C08AEA37
:101A800007C0813039F4662311F08EE401C08BE485
:101A90000E94F72380E00895AEE2B0E0E2E5FDE0C9
:101AA0000C941D3585B7806885BF85B7806885BF74
:101AB00084B7877F84BF0FB6F894A89580916000A3
:101AC000886180936000109260000FBE90E080E813
:101AD0000FB6F89480936100909361000FBE8BE184
:101AE00094E29093FF028093FE020E9422250E94BE
:101AF000C8258091E20084608093E2007894809110
:101B00003E038823A1F01091E9001F709091EC0032
:101B1000892F817090FD80E8182B1092E900809148
:101B2000E80083FD0E94E9161F701093E90082E02F
:101B300084BD93E095BD9AEF97BD80936E0010929F
:101B400001031092020310920303109204030E94F7
:101B50005A2D811102C00E944A2D0E94711B809350
:101B60000B010E944E1B81110E94B73380910B0123
:101B7000811128C085E0E1E5F1E0DE019196019058
:101B80000D928A95E1F7FE01B196A6E0B1E0CE0193
:101B9000869621912D938E179F07D9F786E0E6E56B
:101BA000F1E0DE01119601900D928A95E1F7FE01B8
:101BB0003196A0E0B1E0CE01079621912D938E17CA
:101BC0009F07D9F780910B01882311F090E001C0A5
:101BD00095E09093100385E0891B80930F0306E046
:101BE00011E03BE0E32E31E0F32ED8018D918D0121
:101BF0008F3F11F00E94781BE016F106B1F700E06C
:101C000011E026E0E22E21E0F22EF80181918F0111
:101C10008F3F11F00E94781BE016F106B1F78AE0C1
:101C2000E8E2F3E0DF01282F1D922A95E9F7E5E0CD
:101C3000F3E0DF011D928A95E9F70E94A61F81114A
:101C400002C00E94B21F82E090E00E94643580933F
:101C500059040E94951F90931203809311030E94D0
:101C60008F1BEFE3FCE93197F1F700C000000E9401
:101C70008F1B8091280380FF08C06FEF7FEF80E00B
:101C800090E00E94A0350E94AC2783E090E00E9483
:101C900064350E94D52310924C03E5E6F3E085E716
:101CA00093E02FEF3FEF219331938E179F07D9F7E2
:101CB00010922A04E3E4F4E083E594E02FEF3FEF91
:101CC000219331938E179F07D9F70E94A61F811188
:101CD00010C08091590480FF08C089E493E09F936D
:101CE0008F930E9471050F900F900E94B21F0E9467
:101CF000183246E050E06CE170E086E793E00E9425
:101D0000543510925804809176038C7F71F4809141
:101D1000590480FF08C084EF92E09F938F930E9444
:101D200071050F900F900E9418328091590480FF26
:101D300008C08AED92E09F938F930E9471050F90E7
:101D40000F908091590480FF0FC0809176038370BB
:101D50001F928F938BEB92E09F938F930E9471055C
:101D60000F900F900F900F908091590480FF10C03A
:101D700080917603869586951F928F938EE992E0E7
:101D80009F938F930E9471050F900F900F900F906B
:101D90008091590480FF0EC0809177031F928F932A
:101DA00080E892E09F938F930E9471050F900F90AF
:101DB0000F900F908091590480FF0EC0809178039E
:101DC0001F928F9382E692E09F938F930E947105FA
:101DD0000F900F900F900F908091590480FF0EC0CC
:101DE000809179031F928F9384E492E09F938F9365
:101DF0000E9471050F900F900F900F9080915904E1
:101E000080FF0EC080917A031F928F9386E292E04A
:101E10009F938F930E9471050F900F900F900F90DA
:101E20008091590480FF0EC080917B031F928F9395
:101E300088E092E09F938F930E9471050F900F901E
:101E40000F900F9090910B0181E0982790932303BE
:101E5000F82FF91BF093140390910B018093240346
:101E600090910B018093130380910B01811106C0A7
:101E700083E38093190182E3809318018091190113
:101E8000E82FE295EF70F0E041A1282F2F7081E05C
:101E900090E0BC0102C0660F771F2A95E2F79B0114
:101EA000362F3095342331A332A1232B22A3209146
:101EB0001801E22FE295EF70F0E031A12F7001C020
:101EC000880F2A95EAF7982F9095932391A392A1D2
:101ED000892B82A38FE891E00197F1F700C0000001
:101EE0007091240305E213E0A9E1B1E048E151E07B
:101EF00060E0671751F12D91822F82958F7090E0ED
:101F0000FC0180A190E02F7002C0959587952A95DD
:101F1000E2F78170FA019191AF01292F22952F707C
:101F200030E0F90120A130E09F7002C0359527957F
:101F30009A95E2F720FF02C092E001C090E0892B61
:101F4000F80181938F016F5FD4CF0E944E1B8111E6
:101F500002C00E94BA338CE091E090931B048093FE
:101F60001A0489E8282E83E0382E91E8492E93E060
:101F7000592E80913E03853009F05CC08BE793E0D9
:101F80000E94D80400E4F02EEE24E39400E112E174
:101F900080913E03853009F047C080913E03843034
:101FA00009F430C00E94952E80915704811105C01C
:101FB0000E948E2980E00E94882EE09257041092A1
:101FC0001E0428E130E00FB6F894A8952093600035
:101FD0000FBEF092600083B7817F846083BF83B7B8
:101FE000816083BF7894889583B78E7F83BF0FB657
:101FF000F894A895809160008861809360001092A9
:1020000060000FBE80913D03882309F4C1CF0E9478
:102010008F1BE8E2F3E0819181118DC362E373E0ED
:102020006E177F07C1F7B4CF0E94DA230E94A82859
:10203000109257040E948F1B81110E942128B8E240
:102040006B2EB3E07B2E15E1A12E13E0B12E6301C0
:1020500000E010E00EA7D601ED916D01ECA7D501CF
:102060008D915D01E827EBA7E11116C00F5F1F4FAF
:102070000A30110579F78FEF8EA38FA318A60E945F
:102080002D288160782F9AA789A74EA15FA168A506
:102090008AA50E941806E0C08091590481FD04C001
:1020A000F12CEE24E39436C08EE893E00E94D8042D
:1020B000A8E28A2EA3E09A2EE12CF12CFF92EF9257
:1020C0003F922F920E94710586E893E00E94D80407
:1020D000F40181914F010E94270D1F928F935F920F
:1020E0004F920E9471058FE793E00E94D804FFEFA2
:1020F000EF1AFF0A0FB6F894DEBF0FBECDBF3AE06D
:10210000E316F104D9F6CCCFF394EE0CE6E0FE161C
:1021100009F4ACCF8BA58E21B9F30E944E1BDCA431
:10212000DE208823A1F0F9A25EA55AA381E0D11098
:1021300001C080E08BA30E942D288160782F9DA391
:102140008CA349A15AA16BA18DA10E941806F80188
:10215000EB5EFC4F8081E826E082DD2089F086E09E
:10216000809FF001819FF00D1124ED57FE4FEF0D80
:10217000F11D80818F3F21F08DA7DD24D39401C014
:10218000D12C0D2D10E080912A04B801680F711D2B
:1021900069307105ACF188E090E07C01E01AF10A49
:1021A000B8016F5F7F4F665D7B4FA7018BE294E0C4
:1021B0000E943536B801675F7F4F665D7B4FA70190
:1021C00083E394E00E943536A701440F551FB80100
:1021D000660F771F675E7F4F665D7B4F83E494E0F9
:1021E0000E943536B8016F5E7F4F665D7B4FA70159
:1021F0008BE394E00E94353688E08D1980932A04A1
:1022000080912A0490E07DA5A72FB0E09D01220FC8
:10221000331F21543E4FAA0FBB1FBD0160547E4F98
:1022200041E0480F9D15B0F490E0FC01E65DFB4FE6
:10223000D9015C915183DB015C915187BDA5B18BC4
:10224000880F991FFC01E65DFB4F128E118E91E005
:10225000842FE6CF80932A040E944E1B0E94952E65
:10226000C12CB12C84E0E82EF12C80912403C816F7
:1022700008F078C00C2D10E0F801E75EFE4F808179
:10228000E82FE295EF70F0E0E0A1F0E08F7002C07F
:10229000F595E7958A95E2F7E170D801A85EBE4F03
:1022A0002C91A22FA295AF70B0E090968C9190E007
:1022B0002F7002C0959587952A95E2F780FF02C09E
:1022C00082E001C080E04E2F482BD801AB5DBC4FAF
:1022D000EC918E2F837090E0242F042E000C330B92
:1022E00082179307E9F1EE0FEE0FE42BEC93D090F9
:1022F0002303DC0CEF70F0E0E15AFE4F0F5D1C4F42
:102300009081D8018C91890F8C9384306CF0ED2DE5
:10231000F0E0E15EFC4F80818F5F808360E08D2D77
:102320000E94390D21E001C020E0F80180818D3F3D
:1023300064F4ED2DF0E0E15EFC4F808181508083FC
:1023400061E08D2D0E94390D21E0D8018C91082E7D
:10235000000C990BB7010E94C635F8018083B22AA0
:10236000C39483CFB1100E94381F0E94A828182F51
:1023700080912703181721F11093270380915904A6
:1023800082FF1EC080FF04C084EA93E00E94D8044C
:102390008091590480FF0CC01F921F938FE993E036
:1023A0009F938F930E9471050F900F900F900F9045
:1023B0008091590480FF04C08DE993E00E94D80405
:1023C00080913E03843009F0D4CD83E08093E9000E
:1023D0008091E80082FFCDCD8091E80085FF22C08A
:1023E0000E94412581111CC000E210E09E012F5F78
:1023F0003F4F790108C08091F100D7018D937D0195
:102400000150110969F08091E80085FDF4CF8091B9
:10241000E8008B778093E8000E944125882399F398
:1024200091E001C090E08091E8008B778093E80014
:10243000992309F49ECDE9818E2F90E0FC0131971C
:10244000E331F10508F04EC1EE59FF4F0C94F93518
:102450001A8289E0ABC08A81823009F482C183305C
:1024600051F0813009F098C00E9421289B838C8311
:102470007D836E8339C1FE013396CE010D96D30163
:102480002D913D0121938E179F07C9F72DC18A8198
:10249000823009F081C06B817C818D819E810E9498
:1024A000FF350E94262D20C14C816B818A810E94BC
:1024B000E12C9D835DC12D813E8132272327322768
:1024C0004C816B818A810E94BA2C0EC10E944029E6
:1024D0000BC18A818138B1F050F4803809F05CC0BA
:1024E0008091770320E04B81609178032AC0823885
:1024F00019F1833809F050C08B8120E040917903B5
:102500006C811FC060E08B810E94392E9B8180917D
:102510007603911107C0982F937011F0109250011B
:102520008C7F07C0982F937011F4109250018C7F0C
:1025300081608093760330C060E08B810E947A2DA9
:102540002BC090E00E94B52D27C08A81813889F088
:1025500028F4803809F58091790312C0823871F02F
:102560008338D1F4809177038B83809178038C83B7
:1025700013C0809176038695869502C080917A0378
:102580008B830AC046E050E06CE170E086E793E0A0
:102590000E94723510925804CE0101960E94BA131F
:1025A000A3C080E155C081E08A8389EF8B839CC002
:1025B0000A811B81102701271027CC80D12CFE0116
:1025C00031965F017F01C801895F9D4F97012A19EC
:1025D0003B092C153D0508F087C0093FF1E01F07B6
:1025E00030F40E946435D70114968C9302C0F70131
:1025F00014820F5F1F4FFFEFEF1AFF0AE4CF0A812B
:102600001B81102701271027CC80D12C9E012F5F22
:102610003F4F59017901C801895F9D4F97012A19E0
:102620003B092C153D0508F05FC0093F31E0130759
:1026300028F4D70114966C910E9482350F5F1F4FCA
:10264000BFEFEB1AFB0AE7CF0E9422294DC084E0BE
:102650008A834AC00A811B81102701271027CC805A
:10266000D12CFE0131965F017F01C8018796970149
:102670002A193B092C153D05B8F5003EF1E01F076E
:1026800030F40E946435D70114968C9302C0F70190
:1026900014820F5F1F4FFFEFEF1AFF0AE6CF0A8188
:1026A0001B81102701271027CC80D12C9E012F5F82
:1026B0003F4F59017901C801879697012A193B09B3
:1026C0002C153D0588F4003E31E0130728F4D701AE
:1026D00014966C910E9482350F5F1F4FBFEFEB1A6B
:1026E000FB0AE9CF8FEF898380913E03843009F0A4
:1026F00040CC1091E9001F709091EC00892F8170FF
:1027000090FD80E8182B82E08093E9008091E8003A
:1027100080FF0DC040E050E060E270E0CE01019625
:102720000E94BF168091E8008E778093E8001F70AA
:102730001093E9001ECC09BD19BD09B400FEFDCF00
:102740008091D8008F7D8093D8008091E0008260D6
:102750008093E0008091E00081FDFCCF0E94DA23AD
:1027600017CC86E290E00E9464351B821C821D8299
:102770008E83BACFFC0180818730B1F0883019F5A3
:102780008181823801F580917A03873230F08F356C
:1027900030F08E3930F083E005C080E003C081E086
:1027A00001C082E0828308958181823861F4E281F0
:1027B000E43028F4F0E0E557FD4F808101C08FE759
:1027C00060E00E947A2D089580917503982F96708D
:1027D000963011F4886001C0877F0E946B230895B2
:1027E000A7E0B0E0E6EFF3E10C941D35282E4B0195
:1027F00020911B018EE0289F802D11248E83182F9D
:10280000125F153408F014E40E94711B882319F03C
:10281000133208F012E20E94711B811105C03E8143
:10282000323210F482E28E8390914C0399839E8120
:10283000911708F07CC0AE816A2E712CF301E95B20
:10284000FD4F908180911C01892309F46CC0309068
:10285000770340907803522C1F82C301880F991F81
:10286000FC01E154FE4FFB83EA83C301880F991FEB
:102870009C0120543E4F3D832C83F9815F1608F064
:1028800040C0E52CF12CAA81BB81CC90D12CF70162
:10289000E45BFC4F8181C81AD108AC81BD81AC904A
:1028A000B12C8185A81AB108CC9C9001CD9C300D2B
:1028B000300D1124AA9CC001AB9C900D900D1124E9
:1028C000820F931F0E946532082F60917A0321E0E6
:1028D000620F08F46FEFF701EE0FFF1FE45BFC4F90
:1028E000818D928D0E94BF327C019501A601632DDE
:1028F000742D8F81F4010995362E472E8F835394C2
:10290000BCCF209179038F81382F329F312D112434
:10291000832F632D742D0E94D932462F282F672FC5
:10292000C3010E9415328E818F5F8E8380CF812FED
:102930000E94C9322796E2E10C943935A0E0B0E05C
:10294000E4EAF4E10C9427358C01C0911B018EE080
:10295000C89FC02D1124DEE0DC0FD53408F0D4E48C
:102960000E94711B882319F0D33208F0D2E20E9432
:10297000711B811103C0C23208F4C2E220917A03B4
:1029800031E0230F08F42FEF30E040E050E06FEF2C
:102990007FEF80E090E00E94DA357901CD1708F0F2
:1029A00041C0CC2ED12CF601E95BFD4F9081809186
:1029B0001C018923A9F190914C03915097FD15C0FA
:1029C000292F092E000C330BF901E45BFC4F8189A0
:1029D000C813F3CF220F331FF901E45BFC4F218DA5
:1029E000328D2E153F0548F701C0970160917A039B
:1029F00041E0640F08F46FEFC9010E94BF32AC01DF
:102A0000609177037091780380917903F8010995BB
:102A10000E94D932462F282F672FC6010E941532F7
:102A2000CF5FBCCF8D2F0E94C932CDB7DEB7E8E0B3
:102A30000C944335A0E0B0E0E0E2F5E10C942435DD
:102A40006C01C0911B018EE0C89FC02D1124DEE0F7
:102A5000DC0FD53408F0D4E40E94711B882319F0F0
:102A6000D33208F0D2E20E94711B811103C0C2323E
:102A700008F4C2E260917A036695669580914803F6
:102A8000909149030E94BF32182F80E4810F0E9469
:102A9000443290E8F92EF80E812F0E94443220E84B
:102AA000922E980ECD1700F5AC2EB12CF501E95BF6
:102AB000FD4F908180911C018923A1F060917703E3
:102AC0007091780380917903E12E0C2F292D4F2DE1
:102AD000F60109950E94D932462F282F672FC5018C
:102AE0000E941532CF5FDECF8D2F0E94C932CDB745
:102AF000DEB7EBE00C9440356F927F928F929F92FD
:102B0000AF92BF92CF92DF92EF920F931F93CF932A
:102B1000DF933C01C0911B018EE0C89FC02D1124A2
:102B2000DEE0DC0FD53408F0D4E40E94711B88236A
:102B300019F0D33208F0D2E20E94711B811103C058
:102B4000C23208F4C2E260917A036695809148032C
:102B5000909149030E94BF32182FCD1708F044C04E
:102B60008C2E912CF401E95BFD4F908180911C012A
:102B70008923C1F1F401EE0FFF1FE154FE4FC08025
:102B8000D12C80E7C81AD108F401EE0FFF1FED57D2
:102B9000FE4FA5ACB12CE0E2AE1AB108CC9C90017E
:102BA000CD9C300D300D1124AA9CC001AB9C900D22
:102BB000900D1124820F931F0E946532082F60919F
:102BC00077037091780380917903E12E9501A60136
:102BD000F30109950E94D932462F282F672FC4018F
:102BE0000E941532CF5FB9CF8D2F0E94C932DF917D
:102BF000CF911F910F91EF90DF90CF90BF90AF904A
:102C00009F908F907F906F900895A0E0B0E0EBE0F0
:102C1000F6E10C9427357C01C0911B018EE0C89F22
:102C2000C02D1124DEE0DC0FD53408F0D4E40E947E
:102C3000711B882319F0D33208F0D2E20E94711B75
:102C4000811103C0C23208F4C2E260917A03669532
:102C500080914803909149030E94BF32182FCD17ED
:102C600078F5CC2ED12CF601E95BFD4F9081809157
:102C70001C01892319F1F601EE0FFF1FED57FE4FDE
:102C800025AD30E020523109F601EE0FFF1FE1546F
:102C9000FE4F408150E04057510960917703709199
:102CA000780380917903012FF70109950E94D932A9
:102CB000462F282F672FC6010E941532CF5FCFCF36
:102CC0008D2F0E94C932CDB7DEB7E8E00C944335B2
:102CD000A0E0B0E0EEE6F6E10C9428358C01C0915E
:102CE0001B018EE0C89FC02D1124DEE0DC0FD5341F
:102CF00008F0D4E40E94711B882319F0D33208F045
:102D0000D2E20E94711B811103C0C23208F4C2E2F8
:102D100060917A036695669521E0620F08F46FEF83
:102D200080914803909149030E94BF32D82ECD175D
:102D3000F0F4EC2EF12CF701E95BFD4F90818091CE
:102D40001C01892391F06091770370917803809141
:102D500079032D2D4C2FF80109950E94D932462F69
:102D6000282F672FC7010E941532CF5FE0CF8D2F2C
:102D70000E94C932CDB7DEB7E7E00C944435EF923C
:102D8000FF920F931F93CF93DF937C018B010E94DF
:102D90004125811119C0E70101151105A1F08091AC
:102DA000E80085FD0AC08091E8008E778093E800F6
:102DB0000E944125882381F307C089918093F10007
:102DC00001501109E9CF80E0CDB7DEB7E6E00C9401
:102DD0004535AAE2B0E0EFEEF6E10C942C35E0E4E4
:102DE000F3E08091F100819343E0E834F407C9F700
:102DF00080914103833009F463C030F4813071F075
:102E0000823009F49DC0B4C08A3009F489C08B3087
:102E100009F46EC0893009F0ABC020C08091400336
:102E2000813A09F0A5C08091E800877F8093E8008F
:102E30008091440390914503892B21F468E084E359
:102E400093E003C060E080E090E070E00E944E27D5
:102E50008091E8008B778093E8008AC080914003DE
:102E6000813209F085C08091440390914503009719
:102E700019F0029709F07CC08091E800877F809369
:102E8000E8008091E80082FD05C080913E03811139
:102E9000F8CF6EC02091F3008091F20090E0922B69
:102EA000029731F48091F100813011F0863021F4E5
:102EB0008091F100809333038091E8008B7754C0B8
:102EC00080914003813A09F053C08091440390916E
:102ED0004503892B09F04CC08091E800877F8093DF
:102EE000E8008091E80080FFFCCF80911A0137C094
:102EF000809140038132E1F5809144039091450334
:102F0000892BB1F58091E800877F8093E8000E94CB
:102F100074258091420380931A010E94DA2328C00D
:102F200080914003813221F58091E800877F809372
:102F3000E8000E947425809143038093320318C0F7
:102F400080914003813AA1F48091E800877F8093CB
:102F5000E8008091E80080FFFCCF809132038093ED
:102F6000F1008091E8008E778093E8000E9474253C
:102F70008091E80083FFE5C1809140039091410377
:102F8000492F50E04A30510508F0DBC1FA01EB58F7
:102F9000FF4F0C94F935803821F0823809F0D1C107
:102FA00008C080913C0390913D03992389F0826091
:102FB0000FC0809144038F70873008F0C2C18093A6
:102FC000E9008091EB0085FB882780F91092E900E9
:102FD0009091E800977F9093E8008093F100109221
:102FE000F10071C1282F2D7F09F0ABC1882319F0A2
:102FF000823061F0A6C180914203813009F0A1C105
:10300000933009F080E080933D032EC0809142030D
:1030100081112AC0809144038F702FEF280F263032
:1030200008F08FC18093E9002091EB0020FF1CC0C5
:10303000933021F48091EB00806214C09091EB00FA
:1030400090619093EB0021E030E0A90102C0440FB1
:10305000551F8A95E2F74093EA001092EA008091AA
:10306000EB0088608093EB001092E9008091E8000B
:10307000877F8093E8000E94742563C1811161C13C
:10308000109142031F778091E3008078812B809319
:10309000E3008091E800877F8093E8000E94742518
:1030A0008091E80080FFFCCF8091E30080688093EE
:1030B000E300111102C082E001C083E080933E036F
:1030C00040C18058823008F03CC1209142033091C9
:1030D00043032C3D53E0350779F583E08A838AE288
:1030E00089834FB7F894DE01139620E03EE051E269
:1030F000E32FF0E050935700E49120FF03C0E295E6
:10310000EF703F5FEF708E2F90E0EA3010F0C796BF
:1031100001C0C0968D939D932F5F243149F74FBF17
:103120008091E800877F8093E8006AE270E0CE013A
:1031300001960E944E27B5C08091440390914503AB
:10314000432F552743305105A9F068F4413051050C
:1031500009F406C14230510509F0F3C08BE790E055
:10316000E5E6F4E04BC04132510529F14232510508
:1031700089F1E7C0C901992781309105A1F058F084
:10318000029709F0DEC0E2EFF4E0E4918E2F90E0C8
:10319000E2EFF4E030C0EEE1F5E0E4918E2F90E054
:1031A000EEE1F5E028C0EEE0F5E0E4918E2F90E04E
:1031B000EEE0F5E020C08430910508F0C2C0880F31
:1031C000991FFC01E558FE4F0190F081E02D89E048
:1031D00090E014C08430910508F0B3C0FC01EE0FFC
:1031E000FF1FED58FE4F0190F081E02DDC01A15949
:1031F000BE4F8C9190E0009709F4A3C02091E800A5
:10320000277F2093E80020914603309147038217DF
:10321000930708F49C0140E02115310589F1809164
:103220003E03882309F43DC08530D9F18091E80040
:1032300083FD37C08091E80082FD2FC08091E800B7
:1032400080FFEACF4091F3008091F20090E0942B50
:103250002115310559F08830910540F4449140938F
:10326000F1003196215031090196F2CF41E00897E3
:1032700009F040E08091E8008E778093E800CCCFA1
:103280004111CDCF0AC080913E03882351F0853093
:1032900041F08091E80083FD04C08091E80082FF46
:1032A000F2CF8091E8008B778093E8004AC08038A5
:1032B00009F047C08091E800877F8093E800809103
:1032C0003F038093F1008091E8008E77D2CE811188
:1032D00038C08091420390914303992702978CF55F
:1032E0008091E800877F8093E8001091420310935B
:1032F0003F030E947425111106C08091E30087FDF1
:1033000002C081E001C084E080933E0342E061ECB2
:1033100081E00E94932542E261EC84E00E949325C3
:1033200042E261EC82E00E94932542E260EC83E09D
:103330000E94932542E261EC85E00E9493258091F2
:103340003E038091E80083FF10C08091E800877FF2
:103350008093E8008091EB0080628093EB0005C0D1
:1033600082E190E0E0EEF4E049CFAA96E3E00C942D
:1033700048359091110392FF0DC0282F28712830F5
:1033800019F4877F846006C0282F2471243011F43B
:103390008B7F886093FF0DC0282F2871283119F486
:1033A000877E846106C0282F2471243111F48B7E1E
:1033B00088612091120320FF0DC0382F38713830FA
:1033C00019F4877F816006C0382F3171313011F4D4
:1033D0008E7F886021FF0DC0282F2871283119F4B5
:1033E000877E816106C0282F2171213111F48E7EE4
:1033F000886194FD877E0895A7E0B0E0E2E0FAE1FD
:103400000C942B3586E0E6E7F3E0DE01119601909F
:103410000D928A95E1F7809157048F8347E050E041
:1034200065EA73E0CE0101960E9428368C01609116
:10343000AC037091AD038091AE039091AF030E94F5
:10344000F627643671058105910518F401151105FB
:1034500019F1809147019091480187569C4F409106
:10346000460150E04830510510F047E050E0BE0101
:103470006F5F7F4F0E94353685E090E00E94A23456
:10348000882359F00E9421286093AC037093AD0308
:103490008093AE039093AF0381E02796E4E00C9411
:1034A0004735A1E0B0E0E7E5FAE10C942135C62EFE
:1034B0004A015901682E880F7708C3010E94A2347F
:1034C000882309F466C0C30123E0880F991F2A9559
:1034D000E1F7FC01E25EFE4F438150E041155105EA
:1034E00011F041E050E0FC01E25EFE4F6481758125
:1034F00067567C4FCE0101960E943536F4016081FB
:103500007181828193810E94F6276436710581055D
:10351000910538F4B701C8010E940F2D99818917D0
:10352000D1F10C2C000CDD08C6010E94A234782ECB
:103530008823E1F0E114F104C9F0960183E0220F41
:10354000331F8A95E1F7F901E25EFE4F438150E0B7
:10355000E416F50608F4A701F901E25EFE4F648166
:10356000758167567C4FC5010E943536B701C80189
:103570000E940F2D91E02981281390E0D92ED720A9
:1035800089F00E942128F4016083718382839383F0
:1035900009C0D12C02C0DD24D394A701B801C50114
:1035A0000E9435368D2D2196EEE00C943D35A5E038
:1035B000B0E0EDEDFAE10C9427356B0185E0E82EE3
:1035C000F12C0AE913E09E012F5F3F4F4DE853E0D5
:1035D00061E080E00E94511A882349F095E0FE01E5
:1035E0003196A8E8B3E001900D929A95E1F795E045
:1035F000E8E8F3E0D60101900D929A95E1F725965F
:10360000E8E00C944335A0E0B0E0E9E0FBE10C9485
:1036100023357C015B01942E852E690180918703FF
:103620008A3018F001E010E002C00AE010E0C1E0CA
:10363000D0E0B501C701F6010995811129C0219695
:103640000C171D078CF0CC9F9001CD9F300D300DD5
:10365000112480E090E045E34A95F1F700000196DF
:1036600028173907C1F7E5CF90915904892F817048
:1036700090FF0FC08F929F928BE695E09F938F9360
:103680000E9471050F900F900F900F9080E001C085
:1036900081E0CDB7DEB7ECE00C943F358091860336
:1036A000811118C08091D80080618093D8008AE190
:1036B0008A95F1F700C08091D90080FD02C082E0B8
:1036C00001C081E080938603823021F40E9422258C
:1036D00010923E0381E090918603913009F080E0E2
:1036E000089555985D9889B185FB882780F90895DC
:1036F000F894E82FE295EF70F0E031A1282F2F70B9
:1037000081E090E001C0880F2A95EAF7982F909504
:10371000932391A392A1892B82A378940895AFE07B
:10372000B0E0E5E9FBE10C9422359E012F5F3F4FAD
:1037300079018AE0D9011D928A95E9F706E011E046
:103740006901AA24A394B12C96E0892E91E0992EC8
:10375000F80180818F3F09F440C0F894E82FE2958A
:10376000EF70F0E021A18F70A50102C0440F551F3A
:103770008A95E2F7CA01922F982B91A392A1809586
:10378000892382A3789400C0E0E0F1E0712C31E05D
:1037900021912F3F89F0A22FA295AF70B0E09096B3
:1037A0008C9190E02F7002C0959587952A95E2F74D
:1037B00080FD02C0832F01C080E0782A330F8E166F
:1037C0009F0631F7D8018C918F3F11F00E94781B32
:1037D000B0EABA95F1F7F60170820F5F1F4FFFEF65
:1037E000CF1ADF0A21E00B30120709F0B1CF4AE00F
:1037F00050E0B70185E093E00E9428368C01892BC8
:1038000041F08AE0F701A5E0B3E001900D928A95BE
:10381000E1F7F09010030115110549F081E0809364
:103820007E030E942D2890937D0380937C038091DA
:103830007E038823B9F080917C0390917D030E94E0
:103840001228059778F0A5E0B3E0EF2DF0E0E85DF1
:10385000FC4F8AE093E02D9121938A179B07D9F7BB
:1038600010927E030115110509F0BFC00E944E1B86
:10387000E0911003AE01455F5F4F7A01882309F4A0
:1038800045C085E0DA011D928A95E9F70E2F10E018
:10389000085D1C4FD0908703B9E0BD1560F027ED9F
:1038A0003AE14FE852E0B701C8010E94031B8823A8
:1038B00009F4BCC00AC080917F03909180030E94EC
:1038C0001228843F914058F7CAC02BE33FE14CE9EE
:1038D00052E0B701C8010E94031B882309F4A6C067
:1038E00027E63DE144EA52E0B701C8010E94031B0C
:1038F000882309F49BC02CEF39E14FEA52E0B7016D
:10390000C8010E94031B811173C090C0F0E0E85D04
:10391000FC4F85E0AAE9B3E001900D928A95E1F7AA
:1039200065E070E08AE993E00E940F2D809399038F
:103930004091240350E06091230370E0615E7C4F6E
:10394000C7010E9435368B858093A00361E070E04B
:10395000C7010E940F2D80939F03C090A103D090B8
:10396000A203E090A303F090A403809181039091BF
:103970008203A0918303B0918403C816D906EA0696
:10398000FB06D1F0C0928103D0928203E0928303C0
:10399000F09284030E944E1B81110EC00E942128C8
:1039A000C61AD70AE80AF90AC0920103D0920203A4
:1039B000E0920303F092040386E0E5EAF3E0A6E771
:1039C000B3E001900D928A95E1F7F090AB03FF20F0
:1039D00049F080915704811105C00E948E2980E032
:1039E0000E94882EF092570453C001E010E050C0AE
:1039F000B9E0BD1540F48091590480FF04C082E213
:103A000095E00E94D8041092870380910F0390E004
:103A100045E050E0B701885D9C4F0E94283621E0C8
:103A200020938503892B31F500E031C08091870315
:103A30008F3F19F08F5F80938703809187038A30CF
:103A400020F30E942D289093800380937F03809120
:103A5000590480FF04C085E395E00E94D80480915A
:103A60008503882309F385E0D7011D928A95E9F73C
:103A700010928503A0910F03B0E0A85DBC4F85E0D4
:103A8000FE013B9601900D928A95E1F701E010E06E
:103A9000802F2F96EDE00C943E350F931F930E94DC
:103AA0004E1B882319F00E9421280EC00E94212855
:103AB000009101031091020320910303309104034C
:103AC000600F711F821F931F1F910F910895A4E033
:103AD000B0E0EDE6FDE10C942D3560919503709119
:103AE000960380919703909198030E94F62764367D
:103AF00071058105910570F10E944D1DDC01CB011E
:103B00000296A11DB11D89839A83AB83BC838091EA
:103B10003F019091400187569C4F40913E0150E0FB
:103B20004530510510F044E050E0BE016F5F7F4F1B
:103B30000E94353684E090E00E94A234882359F038
:103B40000E942128609395037093960380939703B6
:103B50009093980381E02496E2E00C944935CF934A
:103B6000DF938238910569F1B0F48133910509F44E
:103B70006FC048F48932910509F465C08A32910515
:103B800009F46BC08AC08533910509F457C08933A5
:103B90009105B9F082C0833E910571F138F4803E01
:103BA0009105B1F0823E910511F177C0863E9105F5
:103BB000B9F1873E9105C9F1843E910509F06DC0C8
:103BC00024C02091110320FD53C021FD51C065C0C8
:103BD0008091110380FD46C08091120380FF48C090
:103BE0008091110384FD3FC183EE90E03EC180913E
:103BF000110382FF3AC0F4CF8091110382FD35C0DA
:103C00008091120380FD34C0EBCF8091120381FFBD
:103C100035C08091110384FD26C187EE90E025C157
:103C20008091110383FF27C0F4CF8091110383FD9E
:103C300022C08091120381FD21C0EBCF809111033E
:103C400085FD1FC021C08091110385FD1DC019C0D5
:103C50008091110386FD1BC01DC08091110386FD5C
:103C600019C015C089E390E000C182EE90E0FDC06C
:103C700080EE90E0FAC086EE90E0F7C084EE90E02F
:103C8000F4C089E290E0F1C085E390E0EEC08AE202
:103C900090E0EBC081E390E0E8C0811532E5930746
:103CA00008F069C0811541E5940728F0982F88270E
:103CB000816F906ADAC0883E910568F5803E910573
:103CC00008F0D3C0883A9105B8F4853A910548F0D8
:103CD000855AE82FF0E0E654FD4F808190E0906433
:103CE000C4C08130910509F4BBC008F4BCC0843065
:103CF000910508F4B8C0B9C08F3B910508F0B3C076
:103D0000885AE82FF0E0EE0FFF1FE354FD4F80814B
:103D100091819464AAC0811520E59207F0F09C017E
:103D200074E0369527957A95E1F7922F9370482F96
:103D3000437021E030E002C0220F331F4A95E2F7C2
:103D40003C68392B8F70982F9695969540E2949FFA
:103D5000C0011124822B932B88C0811530E4930776
:103D600018F09F70906A81C09C013A9521153F41DF
:103D700008F47BC078C0EC01C11586E5D807E8F5EA
:103D8000C11525E5D20748F08C2F0E94B9198F7113
:103D900090E0982F8827906268C0C11534E5D3075A
:103DA00028F09C2F8827846F906A5FC0AE01437013
:103DB00055272C2F26952695C115D34578F481E0FB
:103DC00090E002C0880F991F4A95E2F740E2249FD5
:103DD00090011124822B932B9C6847C081E090E0D6
:103DE00002C0880F991F4A95E2F740E2249F900194
:103DF0001124822B932B9A6838C0C1152AE5D2076B
:103E0000F8F4C11539E5D30790F08C2F8F700E941C
:103E1000B91994E0D695C7959A95E1F7CF70D0E09F
:103E2000DC2FCC27D0699E01282BC9011EC0C115EB
:103E300048E5D407C0F09C2F8827806F906A15C092
:103E4000CE0190568115904270F48D2F8F710E9493
:103E5000B919282F2F71CE0199279062922B05C096
:103E600081E090E002C080E090E0DF91CF91089582
:103E70000E9421280895A1E0B0E0E1E4FFE10C9464
:103E80002635EE24E394F12C00EA13E09E012F5F27
:103E90003F4F41E953E063E082E00E94511AB82E9F
:103EA000882309F43DC000E080E0909113030917D6
:103EB000A0F5D0901403D00E2D2D30E0A901415E65
:103EC0005C4F7A01E1E0F0E0EC0FFD1FE00FF11D27
:103ED0001081FA019081191BC12E1C145CF4CA9444
:103EE000F70180818F5F808360E08D2D0E94390D06
:103EF00081E0F3CF912F17FD90E0191B112359F0AA
:103F00001F5FF70180818150808361E08D2D0E94C9
:103F1000390D81E0F3CF0F5FC8CF81110E94381FA8
:103F20008B2D2196E9E00C944235CF9384E090E00C
:103F30000E946435C82F82E290E00E9464352C2FE5
:103F400030E0A901582BCA01CF91089580E090E09C
:103F50000E946C35883E9E4F19F40E945A2D089598
:103F600080E0089568EE7EEF80E090E00E94A0354A
:103F700060E082E090E00E94823560E083E090E0C3
:103F80000E9482351092140460E084E090E00E9468
:103F9000823564E082E290E00E94823560E085E054
:103FA00090E00E94823560E086E090E00E948235D9
:103FB0006FEF87E090E00E94823540E050E0BA0168
:103FC00088E090E00E94943560E08DE090E00E94EF
:103FD000823540E050E0BA0188E190E00E949435DB
:103FE00060E087E190E00E94823540E050E0BA0155
:103FF0008CE190E00E94943560E070E080E290E017
:104000000E94A03540E050E0BA0188E190E00E94B3
:10401000943580E00E942B2D0E944A2D40E050E014
:10402000BA018FE090E00E94943540E050E0BA0180
:1040300083E190E00E9494350895809113048111EA
:10404000109213040895809590911204892380930F
:1040500012040895EF92FF920F931F93CF939091C4
:10406000120480911104982B9093B0038091130453
:10407000882389F0892B8093B003E2EBF3E097E08B
:1040800080E0915029F021912223D9F38F5FF9CF5D
:1040900081110E941D2048E050E069E074E080EB4F
:1040A00093E00E942836892B09F443C088E0E0EBB6
:1040B000F3E0A9E0B4E001900D928A95E1F7E09178
:1040C0001A04F0911B043097A1F10280F381E02DD6
:1040D00080EB93E009958091590482FF2AC080FF0C
:1040E00004C08EE995E00E94D80400EB13E0C8E01C
:1040F00088E9E82E85E0F82E8091590480FF0CC0F5
:10410000F80180811F928F93FF92EF920E947105B8
:104110000F900F900F900F90C1500F5F1F4FC11164
:10412000EBCF8091590480FF04C086E995E00E949E
:10413000D804CF911F910F91FF90EF90089580E0E8
:1041400090E00E94922880E090E00E947C281092EB
:1041500011040E942A200895809107049091D603AB
:10416000891719F08F5F8770FBCF08950F931F9306
:10417000CF93DF938091D50382958F7009F05AC059
:104180008091D203882309F455C0809107041091CF
:10419000D6036091D0037091D103C091D303D09125
:1041A000D40391E06F3F09F090E0292F06E08117DA
:1041B00009F440C0209721F07F3F21F030E003C098
:1041C00031E001C0322F90E030FD31C0089FF00196
:1041D000099FF00D1124DF01A952BC4F11963C91AB
:1041E0001197371324C03C91361321C012963C918D
:1041F000129731111CC013964D915C9114974C1B72
:104200005D0B483C510598F48091D5038F70806117
:104210008093D503E452FC4F80818F70806180834E
:1042200080ED93E00E94B5060E94AC2003C0019689
:104230008770BDCFDF91CF911F910F910895CF92DD
:10424000DF92FF920F931F93CF93DF936C01009146
:10425000750380911404082BC7E0D0E010E0C8017A
:104260000C2E02C0959587950A94E2F780FD04C054
:104270002197A8F7F12C09C0FC2EB6018C2F0E94C3
:1042800032290E94AF1D019799F38F2DDF91CF91B5
:104290001F910F91FF90DF90CF900895CF93DF9300
:1042A000EC010E941F21BE010E9432290E94AF1D15
:1042B000DF91CF910895FC01808191810E944E2170
:1042C00092959F70963079F010F4925001C09A50F8
:1042D000923068F4803F69F018F4883E40F409C0D9
:1042E000843F29F406C0883E20F0813F11F080E031
:1042F000089581E00895A1E1B0E0E1E8F1E20C94D5
:1043000024358C0185E0F801DE011D9601900D92A7
:104310008A95E1F7F801E2809091D0036091D10392
:104320004091D3035091D4034115510531F06F3FB3
:1043300031F481E09F3F19F403C081E001C080E0C7
:10434000F82FF1709F2E80FD1BC1F8013081218173
:10435000C380D48080EDA82E83E0B82EF090D203E5
:10436000F601E41BF50BFF2009F4C7C08091D503CB
:10437000E83CF10508F092C0482F407F09F051C099
:10438000621311C093130FC0FE2CE1100CC08F708C
:1043900080618093D503C5010E94B5068091D50345
:1043A000F80185832AC1C114D10431F02F3F31F4C3
:1043B00081E03F3F19F403C081E001C080E080FD4F
:1043C00003C081E08E2502C080E090E0F82FF170FC
:1043D000FF2E80FF1CC0809107044091D60356E059
:1043E000841709F4E8C090E0589FF001599FF00D40
:1043F0001124E952FC4F6181261306C060816313CA
:1044000003C06281E61203C001968770E9CFFE2CDB
:10441000EE2009F4F2C08091D50381608093D5032A
:1044200049C0621306C0931304C0E11002C0F80132
:1044300086C0C8010E945B21882351F1EE2041F122
:104440002091D503822F82958F7090E0029774F0AF
:104450008091D0039091D10398878F831986DB8652
:10446000CA862C87CE0107960E94B50686E0F80121
:10447000A0EDB3E001900D928A95E1F70E94B6207D
:104480000AC06217C9F0C8010E945B2181111EC0D9
:10449000C8010E94B506FF24F394AFC0482F407FA7
:1044A00081F780ED93E00E94B50686E0F501119258
:1044B0008A95E9F7F12CA1C09313E5CFE110E3CF82
:1044C000F8018583C8010E94B50654C0EE2001F3AF
:1044D0002091D503822F82958F7090E0029734F25D
:1044E0008091D0039091D1039A8389831B82DD82CE
:1044F000CC822E83CE010196B7CFE83CF105D0F5F2
:10450000FE2CEE2029F2621327C0931325C02091C0
:10451000D50320FD18C0822F82958F70482F50E060
:104520004115510581F0F80125834F30510541F0C7
:104530008F5F982F9295907F822F8F70892B858324
:10454000C8010E94B50686E0F801A0EDB3E0019035
:104550000D928A95E1F751C0C8010E945B2181113B
:1045600085CF8091D50381608093D503C8010E94D7
:10457000B50643C086E0F50111928A95E9F73DC082
:10458000EE2009F485CFC8010E945B21F82E882314
:1045900009F47ECF86E0F801A0EDB3E001900D9222
:1045A0008A95E1F78091D0039091D1030E944E212A
:1045B0000E94B62022C03D872E878D859E850E9451
:1045C0004E21292F22952F70223028F49F7039F028
:1045D000811105C00BC0243028F49F7049F4805E1F
:1045E000883020F0C8010E94B5069F2CF92C05C028
:1045F000F8019581907F99F7F9CF8F2D6196EBE0C7
:104600000C944035292F9A3078F5863068F590E083
:1046100036E0239F800D911D1124682F677023E0E1
:10462000969587952A95E1F7FC01EE0FFF1FE80F9D
:10463000F91FE854FC4F40E050E080E0219130E069
:10464000062E02C0369527950A94E2F7217033278B
:10465000042E01C0220F0A94EAF7822B4F5F5F4FAE
:104660004330510559F7089580E00895292F9A3075
:1046700088F5863078F590E036E0239F800D911D17
:104680001124282F277051E001C0550F2A95EAF711
:1046900023E0969587952A95E1F7FC01EE0FFF1F21
:1046A000E80FF91FE854FC4F20E030E070E0408153
:1046B000CB01022E02C0969587950A94E2F781708D
:1046C000819584278523842781932F5F3F4F233053
:1046D000310569F70895809375030E949F2008951E
:1046E00021E030E001C0220F8A95EAF72095809101
:1046F000750382230E946B230895209108048095FE
:10470000822380930804982F977099F430E0482F03
:10471000082E000C550B2417350759F09091120301
:1047200092FF07C08595859585950E94702310920C
:1047300008040895CF93DF93C0911203C2FB992719
:1047400090F9981719F1D82F80FBC2F9C093120382
:104750006091110384E090E00E9482356C2F82E228
:1047600090E00E94823582E00E947D23809159046E
:1047700080FF0CC01F92DF9381E895E09F938F9399
:104780000E9471050F900F900F900F90DF91CF91C5
:10479000089521E030E001C0220F8A95EAF7809168
:1047A0007503822B0E946B230895809314040E944A
:1047B0009F2008951092120486E0E2EBF3E0DF01FF
:1047C0001D928A95E9F70E949F200895882321F081
:1047D0000E9423200E942A200895882339F0909176
:1047E0001204892B809312040E942A2008951F939B
:1047F000CF93DF93182F893319F0C0E0D0E002C0C7
:10480000C0E5D0E0812F0E94C305209741F08FE9D9
:104810009FE00197F1F700C000002197F6CF812FAC
:104820000E949005DF91CF911F91089508950895FA
:104830008091330308959FB7F894109227049FBF87
:1048400090913E03943009F057C09091E9009F7019
:104850003091EC00232F217030FD20E8922B25E0D1
:104860002093E9002091EB0020FF43C02091EE004F
:1048700027FF3FC020912604222321F02091E80049
:1048800025FF37C01092260426E03091E80035FD60
:1048900015C030913E03343061F53091EB0035FDA9
:1048A00028C0215021F481E08093260422C0EFE942
:1048B000FFE03197F1F700C00000E7CF8093F100EF
:1048C0008091E80085FD0AC08091E80080FFFCCF60
:1048D0008091E8008E778093E80006C08FB7F89447
:1048E00021E0209327048FBF9F709093E90080E020
:1048F00008959F709093E9008FEF089580932304AB
:10490000709325046093240480913E038430F9F46D
:104910008093E9008FEF9091E800815095FD06C0EB
:1049200095ED9A95F1F700008111F5CF8091E8009F
:1049300085FF0DC040E050E063E070E083E294E06A
:104940000E94BF168091E8008E778093E80008955A
:10495000BC0184E00E947E240895BC0183E00E9493
:104960007E240895CF93DF9321E02093E9002FEF79
:104970003091E800215035FD06C035ED3A95F1F74C
:1049800000002111F5CF2091E80025FF14C0EC01B3
:1049900040E050E068E070E00E94BF168091E800BF
:1049A0008E778093E80088E0FE01A4E3B3E00190F5
:1049B0000D928A95E1F7DF91CF9108951F920F92A2
:1049C0000FB60F9211242F933F934F935F936F93E2
:1049D0007F938F939F93AF93BF93CF93DF93EF9387
:1049E000FF93C091E900CF708091EC00D82FD17077
:1049F00080FDD0E81092E9008091F000877F8093DD
:104A0000F00078940E94E9161092E9008091F0007D
:104A100088608093F000CD2BCF70C093E900FF91A8
:104A2000EF91DF91CF91BF91AF919F918F917F9146
:104A30006F915F914F913F912F910F900FBE0F900B
:104A40001F901895E8EDF0E080818E7F80831092B2
:104A5000E2001092DA001092E100A0EEB0E08C913A
:104A600081608C9380818F77808319BCA7EDB0E043
:104A70008C918E7F8C9380818F7E8083109229040D
:104A800008952091E4003091E50095E64091EC0016
:104A9000842F817040FF23C08091E80080FD1DC0FD
:104AA00080913E03882399F0853099F08091EB0046
:104AB00085FD11C04091E4005091E50024173507B1
:104AC00029F3915011F09A01E1CF84E0089582E03A
:104AD000089583E0089581E0089580E0089540916D
:104AE000E80042FFDDCF08958091400387FF11C0A9
:104AF0008091E80082FD05C080913E038111F8CFCE
:104B000011C08091E8008B770BC080913E03882311
:104B100049F08091E80080FFF8CF8091E8008E771F
:104B20008093E8000895982F973068F59093E900F6
:104B3000981739F07091EC002091ED005091F00041
:104B400003C0242F762F50E021FD02C09F5FECCFE1
:104B50003091EB003E7F3093EB003091ED003D7FD4
:104B60003093ED003091EB0031603093EB007093A7
:104B7000EC002093ED005093F0002091EE0027FD13
:104B8000E5CF80E008958F708093E90081E008957B
:104B9000A0E0B0E0EEECF5E20C942735C8EDD0E0F3
:104BA00088818F7E8883E7EDF0E08081816080835B
:104BB00084E082BF81E08093290488818E7F88838E
:104BC00002EE10E0F80110821092DA0081EEC82E99
:104BD000D12CF601108288818F7788838881806844
:104BE000888388818F7D888319BC10923E03109240
:104BF0003F0310923D0310923C0390EEE92EF12CFE
:104C0000F70180818B7F808388818160888342E087
:104C100060E080E00E949325F60180818E7F808392
:104C2000F801808181608083808188608083F701C2
:104C300080818E7F8083888180618883CDB7DEB755
:104C4000E8E00C9443351F920F920FB60F92112497
:104C50002F933F934F935F936F937F938F939F9384
:104C6000AF93BF93EF93FF938091E10082FF49C020
:104C70008091E20082FF45C08091E1008B7F8093AC
:104C8000E100209128042F5F822F62E30E94A63565
:104C9000992319F02093280434C01092280480919D
:104CA0002704882371F180913E03843041F580917F
:104CB000E9008F702091EC00922F917020FD90E818
:104CC000892B95E09093E9009091EB0090FF14C040
:104CD0009091EE0097FF10C09091E80095FF03C0FF
:104CE0001092F100F9CF9091E80090FF05C09091EB
:104CF000E8009E779093E8008F708093E90010920F
:104D000027048091DA0080FF32C08091D80080FFB4
:104D10002EC08091DA008E7F8093DA008091D900D6
:104D200080FF1CC080E189BD82E189BD09B400FE1D
:104D3000FDCF81E080933E0380E997E00E94D80494
:104D400080912904811113C00E9422250E94C82548
:104D50008091E20084608093E20009C019BC109247
:104D60003E0384E997E00E94D804109229048091C0
:104D7000E10080FF1BC08091E20080FF17C080919E
:104D8000E2008E7F8093E2008091E2008061809358
:104D9000E2008091D80080628093D80019BC85E041
:104DA00080933E0388E997E00E94D8048091E10057
:104DB00084FF34C08091E20084FF30C080E189BD6F
:104DC00082E189BD09B400FEFDCF8091D8008F7DBE
:104DD0008093D8008091E1008F7E8093E1008091E4
:104DE000E2008F7E8093E2008091E20081608093F8
:104DF000E20080913F03882311F084E007C0809196
:104E0000E30087FD02C081E001C083E080933E03A0
:104E10008CE997E00E94D80480913E038091E100E4
:104E200083FF2BC08091E20083FF27C08091E100C7
:104E3000877F8093E10082E080933E0310923F03DE
:104E40008091E1008E7F8093E1008091E2008E7F6F
:104E50008093E2008091E20080618093E20042E072
:104E600060E080E00E9493258091F000886080934C
:104E7000F00080EA97E00E94D804FF91EF91BF9183
:104E8000AF919F918F917F916F915F914F913F91E2
:104E90002F910F900FBE0F901F90189520914603F1
:104EA000309147032617370748F06115710539F42B
:104EB0002091E8002E772093E80001C0B901FC01A1
:104EC00020E06115710579F180913E038823F1F1AD
:104ED0008530F1F18091E80083FD3CC08091E800CD
:104EE00082FD2EC08091E80080FFEBCF2091F3007F
:104EF0008091F20090E0922B6115710551F088309D
:104F0000910538F421912093F100615071090196C7
:104F1000F3CF21E0089709F020E08091E8008E7738
:104F20008093E800CECF2111CFCF0AC080913E03FD
:104F3000882361F0853061F08091E80083FD0AC02C
:104F40008091E80082FFF2CF80E0089582E008952A
:104F500083E0089581E0089581E08093E00080E29D
:104F60008093D8001092C9008FE19EE40197F1F779
:104F700000C0000087E090EBDC0180932605909351
:104F80002705A0932805B09329059CE088E10FB67A
:104F9000F894A895809360000FBE90936000FFCFB7
:104FA00078941F920F920FB60F9211248F939F93B4
:104FB000AF93BF9380911F0490912004A09121048E
:104FC000B09122040196A11DB11D80931F049093FE
:104FD0002004A0932104B0932204BF91AF919F912C
:104FE0008F910F900FBE0F901F901895CF92DF9268
:104FF000EF92FF922FB7F894C0901F04D090200436
:10500000E0902104F09022042FBFA7019601261BF7
:10501000370B480B590BCA01B901FF90EF90DF9095
:10502000CF9008959C014FB7F89480911F04909100
:105030002004A0912104B09122044FBF821B930B46
:1050400008952FB7F89460911F0470912004809107
:105050002104909122042FBF08952FB7F8948091D6
:105060001F0490912004A0912104B09122042FBF2D
:1050700008951F920F920FB60F9211248F939F9352
:10508000AF93BF9380911E04811113C080911F04C0
:1050900090912004A0912104B09122044196A11D79
:1050A000B11D80931F0490932004A0932104B0931A
:1050B0002204BF91AF919F918F910F900FBE0F90DF
:1050C0001F9018959C01FC0132969FEF80E0419162
:1050D000461789F09F3F19F4411101C0982F8F5F47
:1050E0008630A9F79F3F39F0F901E90FF11D97FDCF
:1050F000FA9562830895089520911C0430911D044F
:105100002817390771F090931D0480931C04E091D7
:105110001A04F0911B04309721F00084F185E02DF2
:10512000099508952091180430911904281739071A
:1051300071F09093190480931804E0911A04F0918F
:105140001B04309721F00680F781E02D0995089522
:105150000E944E1B882359F0E0911A04F0911B0421
:10516000309729F00190F081E02D0995089580E0B5
:1051700008950F931F93CF93DF93C42FD22FFC0179
:1051800082818823B1F0409317040E942D289093C8
:1051900016048093150480E28C0F883008F04DC00F
:1051A000C77081E001C0880FCA95EAF70E94ED231D
:1051B00044C080911704481330C080911504909129
:1051C00016040E941228883C910538F510E21D0F44
:1051D000CD17B9F080E28C0F883040F4C77081E0C1
:1051E00001C0880FCA95EAF70E94E623183010F52F
:1051F00081E09D2F977001C0880F9A95EAF70E9471
:10520000ED23802F0E94F7231830B8F4D77081E087
:1052100001C0880FDA95EAF70AC080E28C0F883067
:1052200060F4C77081E001C0880FCA95EAF70E9458
:10523000E62303C0802F0E94F723DF91CF911F91B7
:105240000F910895CF93DF93C7E0D2E060E0CE01E5
:105250000E9482352196C11584E0D807B9F7DF9105
:10526000CF910895843048F47A3038F4663028F4C9
:10527000462F672F0E94E12C089580E090E008956A
:10528000A0E0B0E0E6E4F9E20C942535A12CE12C95
:10529000F12CB12C00E010E0C0E0D0E06701C00EBE
:1052A000D11EFE01EE0FFF1FEC0DFD1DE055FA4F64
:1052B000259134914C2F6B2D8A2D0E94BA2C21966A
:1052C000C630D10571F7045F1F4FB3948AE0B8125E
:1052D000E3CF88E7E80EF11CA39484E0A812D9CFAD
:1052E000CDB7DEB7EAE00C944135FF920F931F93E0
:1052F000CF93DF93182F062FF42EC0E0D0E02F2D90
:10530000402F612FCE010E9415322196C434D10561
:10531000B1F7CDB7DEB7E5E00C944635A0E0B0E0DC
:10532000E4E9F9E20C942635C82F80914F018C13E3
:105330000DC020917603237030E040914E0150E083
:1053400081E02417350719F480E001C081E0817005
:1053500080931D0180917B0390911C01981739F077
:1053600080931C0140E060E080E00E947529C1311B
:1053700019F486E992E307C0C23108F0EDC1C830E4
:1053800029F488EF91E30E94051630C0C93008F077
:10539000B9C1C33009F43EC008F0FAC0C13009F009
:1053A0009EC080911B01DEE08D9FD02D11241EE058
:1053B0001D0F153408F014E40E94711B811173C095
:1053C0000E94711B882309F473C060917703709168
:1053D0007803809179030E94D932062FF72EE82EA8
:1053E000D11708F46AC0812F0E94C93290911B0125
:1053F0009F5F90931B0181116EC282E080935001E8
:1054000080911D01811167C2C11165C283E0809343
:10541000500161C2D0911B018EE0D89FD02D112484
:105420001EE01D0F153408F014E40E94711B882340
:1054300019F0133208F012E20E94711B811103C0AF
:10544000D23208F4D2E2D0907803C0907903209150
:105450007A0300E4029F012D1124D11708F0C3CF75
:10546000ED2EF12CF701E95BFD4F908180911C013D
:105470008923B9F0F701EE0FFF1FED57FE4F85AD01
:1054800082958F7060917703809F600D11247D2D30
:105490008C2D0E94D932462F282F672FC7010E94DA
:1054A0001532DF5FDACF133208F48ACF12E288CFE9
:1054B000D23208F08ACFD2E288CFED2FF0E0DF01C0
:1054C000A95BBD4F8C9190911C01982331F02E2D3A
:1054D000402F6F2DCF010E941532DF5F81CFC23088
:1054E00058F480911D01882309F450C040E060E029
:1054F00080E00E9475294AC0D0911B018EE0D89FA0
:10550000D02D11241EE01D0F153408F014E40E9464
:10551000711B882319F0133208F012E20E94711BEC
:10552000811103C0D23208F4D2E2F09078030091E6
:105530007903E0907703B701802F0E94D932D62EED
:10554000C72EB82E60917A036E0D7F2D802F0E949A
:10555000D932062FF72EE82ED11708F044CF8D2F21
:1055600090E0FC01E95BFD4F308120911C01232379
:1055700059F030FF04C02E2D402F6F2D03C02B2D6E
:105580004D2D6C2D0E941532DF5FE6CF80E02ECFCF
:10559000C53009F052C0D0911B018EE0D89FD02DAC
:1055A00011241EE01D0F153408F014E40E94711B35
:1055B000882319F0133208F012E20E94711B811146
:1055C00003C0D23208F4D2E2F0907703009178035E
:1055D000E090790360917A0366956695669580916F
:1055E0004803909149030E94BF320E944432805880
:1055F00087FD8195880F282F3E2D239F212D112473
:10560000822F6F2D702F0E94D932062FF72EE82E91
:10561000D11708F0E8CEED2FF0E0DF01A95BBD4F18
:105620008C9190911C01982331F02E2D402F6F2DDD
:10563000CF010E941532DF5FEBCFC53008F04DC0BF
:10564000D0911B018EE0D89FD02D11241EE01D0F9C
:10565000153408F014E40E94711B882319F01332EA
:1056600008F012E20E94711B811103C0D23208F4CB
:10567000D2E2D0907803C090790320917A0300E4BD
:10568000029F012D1124D11708F0ADCEED2EF12C83
:10569000F701E95BFD4F908180911C018923D9F0CE
:1056A000F701EE0FFF1FE154FE4F6081069FB0012E
:1056B000112445E0759567954A95E1F78091770348
:1056C000680F7D2D8C2D0E94D932462F282F672FF1
:1056D000C7010E941532DF5FD6CFC63019F480E2D1
:1056E00091E304C0C73041F484EF90E30E94681650
:1056F0007DCECF3F09F4BEC080911B018F5F8093A8
:105700001B017BCECC3019F482EF90E3EFCFCD308C
:1057100078F4CA3041F48FEB91E302C083EA91E35D
:105720000E947C1563CECB30C8F78AED91E32BCE77
:10573000CE3019F480EE90E3D9CFCE3018F489EE54
:1057400090E3D4CFCF3019F485EC90E3CFCFC031C4
:1057500099F686EB90E3E4CFCA3179F462EF7FE209
:1057600008C0C03208F06EC0CC3109F04BC06AEB03
:105770007FE280E00E94F01339CECB31A8F5C5312D
:1057800041F486E590E302C088E890E30E941A1590
:105790002DCEC63150F4C33119F48EE791E3C0CF5A
:1057A000C43190F782E991E3EECDC73151F481E144
:1057B00090E304C0C83151F48BE090E30E949E1442
:1057C00015CEC731B8F788E190E3E0CFC93109F0D1
:1057D00093CF80914C0321E0382F321B08F430E046
:1057E000832F62EF7FE2C6CFCF3109F0BACF80912D
:1057F0004C0321E0382F321B08F430E0832F60E7A0
:105800007FE2B8CFCC3158F480914C0321E0382F9F
:10581000321B08F430E0832F6AEB7FE2ABCFCD314F
:1058200059F480914C0321E0382F321B08F430E00A
:10583000832F68E87FE29ECFCE3109F05DCF68E824
:105840007FE297CFC13259F480914C0321E0382F89
:10585000321B08F430E0832F6AE57FE28BCFC13240
:1058600018F460E77FE285CFC23209F042CF6AE5E3
:105870007FE27FCF8091480390914903A0914A0332
:10588000B0914B0388279C70AA27BB272AE0B695C6
:10589000A795979587952A95D1F782309105A1050F
:1058A000B10571F083309105A105B10569F040E0C3
:1058B0000197A105B10511F060E008C064E102C0E4
:1058C00044E160E080E003C044E164E184E10E94DF
:1058D000752982E09CCDCDB7DEB7E9E00C94423566
:1058E000FF920F931F93CF93DF93EC01F62E042FBB
:1058F000122F0E94711B811105C0C232D1057CF0AC
:10590000A29703C0C232D10554F4CE01880F991F6B
:10591000C80FD91FC65ADB4FF98208831A83CDB747
:10592000DEB7E5E00C9446356E9A8EB18F7B9EB162
:1059300090642FB7F894EAE5F4E035E0E632F30737
:1059400089F0319148E09EB9000000C037FF8EB960
:10595000330F000000C000C000C08EB900C04A95DF
:1059600091F7EBCF2FBF8FE594E00197F1F700C0DF
:10597000000008951F93CF93DF93962F8430E8F4AF
:105980006A30D8F44630C8F4632F122FC42FD0E009
:10599000CC0FDD1F2CE0929FC00DD11D112498E784
:1059A000899FC00DD11D1124CE0187960E9482359A
:1059B000612FCE0188960E948235DF91CF911F9191
:1059C00008950F931F93CF93DF93843008F56A30C7
:1059D000F8F44630E8F4C42FD0E0CC0FDD1F2CE003
:1059E000629FC00DD11D112438E7839FC00DD11DCA
:1059F0001124CE0187960E94643590E0182F00276D
:105A0000CE0188960E9464359801282BC90102C0F6
:105A100080E090E0DF91CF911F910F910895FC01FC
:105A2000680F791F8FEF91E3E617F70771F0219167
:105A3000822728E030E087FF03C0880F892701C054
:105A4000880F21503109B9F7EFCF089586E290E031
:105A50000E9482350895CF93C82F811102C06FEF45
:105A600001C062E283E290E00E948235C11102C06F
:105A70006FEF01C067E084E290E00E948235C111BF
:105A800002C06FEF01C064E185E290E00E948235C0
:105A9000CF91089580E00E942B2D60E070E0CB0153
:105AA0000E94262D0E9440290E94222981E00E9406
:105AB0002B2D089583E290E00E946435823281F4B8
:105AC00084E290E00E946435873051F485E290E0F2
:105AD0000E94643591E0843109F090E0892F01C083
