:100000000C94D5030C940D040C940D040C940D0465
:100010000C940D040C940D040C940D040C940D041C
:100020000C940D040C940D040C9456290C94112876
:100030000C94FC2A0C940D040C940D040C940D04E7
:100040000C940D040C940D040C940D040C940D04EC
:100050000C940D040C94AF2A0C940D040C940D0414
:100060000C940D040C940D040C940D040C940D04CC
:100070000C940D040C940D040C940D040C940D04BC
:100080000C940D040C940D040C940D040C940D04AC
:100090000C940D040C940D040C940D040C940D049C
:1000A0000C940D040C940D040C940D0418081B08FA
:1000B0003C08490850085B085E08A108CC08710993
:1000C0007109D708D908DD080309260929092C096F
:1000D0005009840D840DB70DB70D2A0E480E560F2A
:1000E000560F530EC70ED80ED80E0C203320DC212D
:1000F0003320DC217F20A220DC219721A7210000D2
:1001000000000000000000000000000000000000EF
:1001100000000000000000000000000000000000DF
:1001200000007E0F00D4FFFFFFC700000078000032
:100130000000000000002A2B280000000000000042
:1001400000000000000000000029000000002C1E3C
:100150003420212224342627252E362D3738271EF9
:100160001F202122232425263333362E37381F041F
:1001700005060708090A0B0C0D0E0F1011121314B7
:1001800015161718191A1B1C1D2F3130232D350475
:1001900005060708090A0B0C0D0E0F101112131497
:1001A00015161718191A1B1C1D2F3130354C050157
:1001B0000902A10185020901A10005091901290807
:1001C00015002501950875018102050109300931E5
:1001D0001581257F95027508810609381581257FCF
:1001E000950175088106050C0A38021581257F9551
:1001F0000175088106C0C005010980A101850319A8
:10020000012AB700150126B700950175108100C0BD
:10021000050C0901A101850419012AA00215012676
:10022000A002950175108100C005010906A1018594
:1002300006050719E029E7150025019508750181D4
:10024000020507190029EF1500250195F0750181B8
:100250000205081901290595057501910295017599
:10026000039101C00660FF0961A101096215002622
:10027000FF009520750881020963150026FF00958F
:100280002075089102C005010906A101050719E0C2
:1002900029E715002501950875018102950175086A
:1002A00081010507190029FF150026FF0095067535
:1002B0000881000508190129059505750191029528
:1002C0000175039101C009025B00030100A0FA0956
:1002D0000400000103010100092111010001224075
:1002E0000007058103080001090401000203000062
:1002F00000092111010001222200070582032000CC
:1003000001070503032000010904020001030000A6
:100310000009211101000122B60007058403200015
:10032000011201000200000008504B2211020001DE
:100330000200011A0342004D003600300056003220
:10034000005F0070006F006B006500720000001815
:10035000034B0050002000520065007000750062E1
:10036000006C00690063000000040309040001013F
:100370000101010101010102020202020202020264
:100380000303030303030303040404040404040534
:1003900005050505060606060607070707070808F8
:1003A0000808090909090A0A0A0B0B0B0C0C0C0DA9
:1003B0000D0D0E0E0E0F0F0F101011111112121342
:1003C000131414151516161717181819191A1A1BBD
:1003D0001B1C1D1D1E1E1F2020212222232424251C
:1003E0002626272829292A2B2C2D2D2E2F30313255
:1003F00032333435363738393A3B3C3D3E3F404165
:1004000042434445464748494A4C4D4E4F5051534C
:1004100054555658595A5B5D5E5F61626465666803
:10042000696B6C6D6F7072737577787A7B7D7E8087
:1004300082838587888A8C8E8F91939596989A9CD3
:100440009EA0A2A3A5A7A9ABADAFB1B3B5B7BABCE7
:10045000BEC0C2C4C6C9CBCDCFD1D4D6D8DBDDDFB8
:10046000E2E4E7E9EBEEF0F3F5F8FAFDFF165C1EC7
:10047000001F002000210022002300240025002668
:100480000027002D002E002A002B0014001A00085F
:1004900000150017001C0018000C00120013002F9C
:1004A0000030003100390004001600070009000A7E
:1004B000000B000D000E000F003300340000002878
:1004C00000E1001D001B00060019000500110010CE
:1004D0000036003700380000000000E500E000E3CF
:1004E00000E200000000002C00000000000000E618
:1004F000000151E7000000E40001003A003B003C2D
:10050000003D003E003F00400041004200430044E7
:10051000004500005C0100C25CC35CC55CC65CC7F2
:100520005CC85CC95CCA5C010001000100010001FB
:1005300000010001000100010001000100010001B3
:1005400000010001000100010000000100010001A4
:10055000000100010001000100145C010001000124
:100560000001000000000001000100010001000086
:100570000000000100000000000000010001000177
:100580000000000100010001000100010001000164
:100590000001000100010001000100010001000153
:1005A0000001000100010001000100010001000143
:1005B0000001000100010001000100010001000133
:1005C0000001000100010001000100010001000123
:1005D0000001000100000001000100010001000114
:1005E0000001000100010001000100010001000004
:1005F00000000001000100010001000000000001F6
:1006000000000000000000010001000100000001E6
:1006100000010001000100010001000100010001D2
:1006200000010001000100010001000100010001C2
:1006300000010001000100010001000100010001B2
:1006400000010001000100010001000100010001A2
:100650000001000100010001000100010001000192
:100660000000000100010001000100010001000183
:100670000001000100010001000100000000000174
:100680000001000100010000000000010000000066
:100690000000000100010001000000010000100046
:1006A0002000110121001202220013032300140470
:1006B0002400150525001606260017072700180830
:1006C0002800190929001A0A2A001B0B2B001C0CF0
:1006D0002C001D0D2D0040305000413151004232A0
:1006E00052004333530044345400453555004636D8
:1006F00056004737570048385800493959004A3A98
:100700005A004B3B5B004C3C5C004D3D5D00706013
:10071000800071618100726282007363830074647F
:10072000840075658500766686007767870078683F
:100730008800796989007A6A8A007B6B8B007D6DFD
:100740008D00A090B000A191B100A292B200A3933D
:10075000B300A494B400A595B500A696B600A797DB
:10076000B700A898B800A999B900AA9ABA00AC9C99
:10077000BC007F6F8F007E6E8E007C6C8C004E3EC6
:100780005E00AE9EBE00AF9FBF00AB9BBB004F3F65
:100790005F000000000000000000000000000000FA
:1007A0000000000000000000000011241FBECFEF79
:1007B000DAE0DEBFCDBF04B603FE18C0809193051A
:1007C00090919405A0919505B09196058730904B36
:1007D000A740B04B59F410929305109294051092D3
:1007E000950510929605E0E0F8E3099512E0A0E087
:1007F000B1E0ECE3FBE602C005900D92AA38B10728
:10080000D9F725E0AAE8B2E001C01D92A339B207EA
:10081000E1F70E940F040C949C350C940000AAE2AE
:10082000B0E0E5E1F4E00C94143485B7806885BF4E
:1008300085B7806885BF84B7877F84BF0FB6F8947B
:10084000A89580916000886180936000109260009C
:100850000FBE90E080E80FB6F8948093610090930B
:1008600061000FBE85E796E190938B0280938A0228
:100870000E9455280E94FB288091E20084608093AA
:10088000E20078948091EA038823A1F01091E900B6
:100890001F709091EC00892F817090FD80E8182BDB
:1008A0001092E9008091E80083FD0E94291F1F70CB
:1008B0001093E90082E084BD93E095BD9AEF97BD67
:1008C00080936E000E941C2D811102C00E940C2D8D
:1008D0000CE111E0AAE2EA2EA1E0FA2ED8018D91F6
:1008E0008D018F3F11F00E94BA16E016F106B1F7A4
:1008F0000AE211E0FFE2EF2EF1E0FF2EF801819114
:100900008F018F3F11F00E94BA16E016F106B1F781
:100910008AE0E2EAF2E0DF01282F1D922A95E9F74A
:10092000ECE8F2E0DF011D928A95E9F70E947C185D
:10093000811102C00E94881882E090E00E94C034B9
:10094000809396020E946B189093580480935704EA
:100950000E94951BEFE3FCE93197F1F700C000001E
:100960000E94951B8091A20280FF08C06FEF7FEF6D
:1009700080E090E00E94FC340E948B2A83E090E0AB
:100980000E94C0340E941D320E94622F1092FE030A
:10099000E7E1F4E08FEF9FEF8193919324E0E7325A
:1009A000F207D1F710925D04E6E7F4E08FEF9FEFD6
:1009B0008193919334E0E638F307D1F70E947C18D5
:1009C000811104C00E9488180E94D82446E050E09B
:1009D0006CE170E088EF93E00E94B03410928B04D9
:1009E0008091F8038C7F11F40E94D82484E091E078
:1009F00090934F0480934E04E8E12E2E312C442432
:100A000043948E010F5F1F4F8091EA03853009F0F8
:100A100061C053E0D52E60E1E62E72E1F72E8091A1
:100A2000EA03853009F050C08091EA03843009F46C
:100A300038C00E942C2E80918A0481110DC00E9422
:100A40000610109217018091F803837080931601AD
:100A50000E94052FD092180141E040938A04109221
:100A6000520460E40FB6F894A895209260000FBE7F
:100A70006093600083B7817F846083BF83B78160A8
:100A800083BF7894889583B78E7F83BF0FB6F89421
:100A9000A89580916000886180936000109260004A
:100AA0000FBE8091E903882309F4B9CF0E94951BFA
:100AB000E2EAF2E081919191892B09F03CC472E065
:100AC000EC3AF707B9F7ABCF0E9442320E94AE2B47
:100AD00010928A040E94951B81110E94E42A42EA26
:100AE000842E42E0942EA7E9B2E0F401C12CD12C6F
:100AF0005C2CA190B1908D919D918A259B250097AA
:100B000009F446C1712CEE24E394F12C9C012E21B2
:100B10003F21232B09F436C179A25AA2AE20BF206F
:100B200081E0A114B10409F480E08BA30E94F02AB3
:100B30008160782F9DA38CA349A15AA16BA18DA19F
:100B40000E949830F601EE0FFF1FE956FD4F80819D
:100B50009181E826F926F182E082AB2839F0A801DC
:100B6000672D852D0E94C624682E01C0612CE62CBD
:100B7000F12C80915D04D701A80FB11D19976CF17C
:100B800088E090E05C01AE18BF08B701625A7B4F65
:100B9000A5018EE594E00E949335B7016A597B4F19
:100BA000A50186E694E00E949335A501440F551FE8
:100BB000B701660F771F6A587B4F86E794E00E9463
:100BC0009335B70162597B4FA5018EE694E00E94F0
:100BD000933588E0861980935D04F0905D04A80148
:100BE00060E0862F8F0D661609F190E0FA01719191
:100BF000AF01272F30E0FC01E35AFB4FD901AA0FC8
:100C0000BB1FA754BE4FAC91A183220F331FD90144
:100C1000A654BE4F2C912187718B880F991FFC0120
:100C2000E35AFB4F128E118E6F5FDBCF80935D0412
:100C30008091F8038C7F883709F0C2C0AFEFA50D13
:100C4000FF24F394F50C5FEF570D41E0470D571566
:100C500080F48EE08C9DF0018D9DF00D1124E0500C
:100C6000FD4FE50FF11D208130E1230F08F42FEF38
:100C70002083272D30E07EE07C9DC0017D9D900D7E
:100C8000112480509D4FFC01E20FF31F7081B0E2F0
:100C90006B2F760F08F47FEF70834E3051F0FC011C
:100CA000E40FF11D708180E1682F760F08F47FEF6B
:100CB000708375E0F71609F431C0EF2CF12C57154D
:100CC00088F48EE08E9DF0018F9DF00D1124E05090
:100CD000FD4FE50FF11D80819DE0BC01670F08F419
:100CE0006FEF6083EEE0EE9DC001EF9D900D11244B
:100CF00080509D4FFC01E20FF31F608170E1670F90
:100D000008F46FEF60834E3049F0FC01E40FF11DF1
:100D100060817DE0670F08F46FEF6083A51508F030
:100D20004FC0B0E0571580F48EE08A9FF0018B9F92
:100D3000F00D1124E050FD4FE50FF11D50816DE0E5
:100D4000560F08F45FEF50838EE08A9FF0018B9F6F
:100D5000F00D1124CF0180509D4FFC01E20FF31FD5
:100D6000208130E1230F08F42FEF20834E3041F132
:100D7000FC01E40FF11D20813DE0230F08F42FEF6B
:100D800020831EC07394EE0CFF1C2EE07212BECEA8
:100D90003FEFC31AD30A45E0C416D10409F0A8CE28
:100DA0008FEF8EA38FA318A60E94F02A8160782F60
:100DB0009AA789A74EA15FA168A58AA50E9498302D
:100DC0000E942C2E86E0E3E4F4E0D80101900D921D
:100DD0008A95E1F710924504109246041092470458
:100DE000109248048B81811104C08C81882309F4FE
:100DF00051C080914104909142040E94D52A9C01E7
:100E000090913D04992309F4B5C22531310508F4C8
:100E100041C09F3F19F09F5F90933D04FB80FF20EE
:100E200061F00E94D4261F1414F491E001C09FEFDA
:100E3000899F802D112480934504FC80FF2061F060
:100E40000E94D4261F1414F491E001C09FEF899FE3
:100E5000802D112480934604309145043323D1F032
:100E6000209146042223B1F065EB3603C001112422
:100E7000992319F09093450402C04092450475EB04
:100E80002703C0011124992319F09093460402C04E
:100E9000409246048D81811104C08E81882309F41B
:100EA00051C080913F04909140040E94D52A9C013A
:100EB00090913C04992309F462C22135310508F46C
:100EC00041C09F3F19F09F5F90933C04FD80FF203D
:100ED00061F00E94B2261F1414F491E001C09FEF4C
:100EE000899F802D112480934704FE80FF2061F0AC
:100EF0000E94B2261F1414F491E001C09FEF899F55
:100F0000802D112480934804309147043323D1F07D
:100F1000209148042223B1F045EB3403C001112491
:100F2000992319F09093470402C04092470465EB5F
:100F30002603C0011124992319F09093480402C09C
:100F40004092480446E050E0B80183E494E00E94F7
:100F50008635892BA9F48091450481110FC08091B9
:100F6000460481110BC080914704811107C081E0C4
:100F700090914804911103C080E001C081E080FDA0
:100F80000E944F2786E0F801A3E4B4E001900D929F
:100F90008A95E1F70E94AE2B9091A102891380936C
:100FA000A1028091EA03843009F02ECD83E0809382
:100FB000E9008091E80082FF27CD8091E80085FF5D
:100FC00021C00E94742881111BC080E2C82ED12C40
:100FD000780109C08091F100D7018D937D01B1E0C6
:100FE000CB1AD10869F08091E80085FDF3CF80919C
:100FF000E8008B778093E8000E947428882399F397
:1010000091E001C090E08091E8008B778093E80048
:10101000992309F4F9CCE9818E2F90E0FC013197F6
:10102000E331F10508F05DC1EA5AFF4F0C947935C0
:101030001A8289E0C0C08A81823009F492C183306B
:1010400051F0813009F04DC10E94E42A9B838C83CA
:101050007D836E8348C1F801CE010B96D4012C919B
:1010600011963C91B2E08B0E911C32832383329611
:101070008E179F0799F737C18A81823009F031C1F5
:101080006B817C818D819E810E947F350E94E82C3E
:101090002AC14C816B818A810E94BA2C9D8368C1D0
:1010A0002D813E813227232732274C816B818A8113
:1010B0000E94932C18C10E94422C15C18A8181384C
:1010C000B1F050F4803809F00EC18091F90320E0AE
:1010D0004B816091FA0331C0823819F1833809F0ED
:1010E00002C18B8120E04091FB036C8126C060E04F
:1010F0008B810E94FC2D9B818091F803911107C088
:10110000982F937011F0109218018C7F07C0982FC0
:10111000937011F4109218018C7F81608093F80312
:10112000E2C0EB81E43028F4F0E0E15DFE4F808125
:1011300001C08FE78093FC03D6C090E00E949B2DF6
:10114000D2C08A81813899F030F4803809F0CBC060
:101150008091FB0330C0823879F0833809F0C3C036
:101160008091F9038B838091FA038C83BCC08091BA
:10117000F803869586951FC08091FC03873230F076
:101180008F3530F08E3930F482E015C080E013C026
:1011900081E011C083E00FC046E050E06CE170E0F8
:1011A00088EF93E00E94CE3410928B049CC080E1C3
:1011B00051C04A8289EA8B8396C0EA80FB80FE2474
:1011C000EF24FE24CC80D12C5801C701895A9D4FB1
:1011D0009501201B310B2C153D0508F084C0E9EA70
:1011E000EE16E1E0FE0630F40E94C034D5011496FC
:1011F0008C9302C0F5011482FFEFEF1AFF0A2FEF64
:10120000A21AB20AE2CFEA80FB80FE24EF24FE2479
:10121000CC80D12C5801C701895A9D4F9501201BC4
:10122000310B2C153D0508F05EC039EAE31631E0BC
:10123000F30628F4D50114966C910E94DE34BFEFBA
:10124000EB1AFB0AEFEFAE1ABE0AE5CF0E94242C80
:101250004AC084E08A8347C0EA80FB80FE24EF24F2
:10126000FE24CC80D12C5801C70187969501201B04
:10127000310B2C153D05B8F5F0E3EF16F2E0FF0653
:1012800030F40E94C034D50114968C9302C0F5014D
:101290001482FFEFEF1AFF0A2FEFA21AB20AE4CF6F
:1012A000EA80FB80FE24EF24FE24CC80D12C580160
:1012B000C70187969501201B310B2C153D0598F42D
:1012C00030E3E31632E0F30628F4D50114966C916E
:1012D0000E94DE34BFEFEB1AFB0AEFEFAE1ABE0A34
:1012E000E7CF8FEF89838091EA03843009F08CCBBC
:1012F0008091E9008F702091EC00922F917020FD79
:1013000090E8F92EF82A82E08093E9008091E800C5
:1013100080FF0CC040E050E060E270E0C8010E9435
:10132000FF1E8091E8008E778093E8008F2D8F70EC
:101330008093E90069CBE9BCF9BC09B400FEFDCF9C
:101340008091D8008F7D8093D8008091E0008260EA
:101350008093E0008091E00081FDFCCF0E9442324A
:101360005ECB86E290E00E94C0341B821C821D820C
:101370008E83B9CF2B30310508F04DCD8BCD2B307E
:10138000310508F0A0CDDECDA9E0B0E0EAECF9E04F
:101390000C941534FC018081918123813481232BAD
:1013A00031F09F3F31F491E08F3F19F403C091E099
:1013B00001C090E090FD26C67F0185E0DE01119618
:1013C00001900D928A95E1F7F701228189819A8136
:1013D000222349F00E946731182F682F89819A8152
:1013E0000E94CA3103C00E949631182F69817A8108
:1013F000812F0E94342C8C01F7018281882309F40B
:10140000F5C0980122513F452031310508F00AC14D
:101410008FEF93E00E94C0348111F2C0025137E592
:10142000832E32E0932E002379F08114F4E09F069E
:1014300009F4E6C0C4010E94C034811101C001500A
:101440002FEF821A920AEFCF1E821F82188619860A
:10145000442443942AE0322E84010F5F1F4FC401BD
:101460000E94C0348E831F82882309F4C9C09FEF75
:10147000980F933060F48F834E8232E0830E911C7C
:10148000C8010E94C0348887811102C0B9C04801D8
:101490008E010A5F1F4FF80120812223E9F22130DB
:1014A00009F04CC08181813049F46801F2E0CF0E2F
:1014B000D11CF80182810E9415330AC0823051F498
:1014C0006801F2E0CF0ED11CF80182810E949E32A9
:1014D000860189C0833049F46801F2E0CF0ED11C47
:1014E000F80182810E946932F3CF843019F00F5FD6
:1014F0001F4F79C0F80122810E5F1F4F80E090E0FE
:1015000030E0205331092A30310568F4389EA001BB
:10151000399E500D1124C901840F951F0F5F1F4F75
:10152000F8012081EDCF009709F45DC0EFE9FFE0FD
:101530003197F1F700C000000197F5CFE22FF0E0FE
:10154000E25DFE4F5490822F86958695869590E0B9
:10155000FC01E25EFE4F64902770712C022E02C0E7
:10156000759467940A94E2F7F1E06F227724FC0106
:10157000E25FFE4FA490B12C022E02C0B594A79456
:101580000A94E2F731E0A322BB24FC01E250FF4FB2
:10159000C490D12C02C0D594C7942A95E2F781E07B
:1015A000C822DD246114710419F081EE0E949E327C
:1015B000A114B10419F086EE0E949E32852D0E947E
:1015C0001533A114B10419F086EE0E94693261143A
:1015D000710419F081EE0E946932C114D10419F02E
:1015E0008CE20E9415330F5F1F4F55CF00313FE54E
:1015F000130709F07AC481E00E9404320E94741C2F
:1016000080919E03877009F4FDC4F70182818823CD
:1016100009F4F8C48091580482FFF4C482E00E9467
:101620005519F0C40031FFE51F0711F481E005C032
:1016300001312FE5120721F482E00E941132DECF42
:10164000033FFCE51F0749F406E221EE40EE63EF9D
:101650007CE5C7010E94BB2BD3CF043F2CE51207CA
:1016600008F069C1083D3CE5130731F407E225EEB7
:1016700045EE68ED7CE5EDCF093D9CE5190731F4B9
:1016800008E221E045EE69ED7CE5E3CF073DECE5BE
:101690001E0731F406E221EE41EE67ED7CE5D9CF7D
:1016A000882309F47DC110924B0403309DE519078E
:1016B00058F40A3FECE51E0780F4C80182509C45AF
:1016C000449708F057C109C00136FDE51F0729F00E
:1016D000053A2DE5120709F04DC10E946B18909351
:1016E00058048093570401313CE5130709F4C9C03D
:1016F00008F043C009309CE5190709F49EC008F5BD
:101700000530FCE51F0709F488C080F403303CE590
:10171000130709F47BC008F07DC002309CE519076F
:1017200009F0F9C0809157048160F3C00730ECE5FF
:101730001E0709F47AC008F07CC0809157048061CC
:10174000E8C00D302CE5120709F489C058F40B30BD
:101750008CE5180709F47BC008F07DC08091570420
:10176000886071C00F30ECE51E0709F482C008F0F4
:1017700084C080915704877FCCC00D3F2CE51207B1
:1017800009F473C008F505318CE5180709F487C022
:1017900068F40331ECE51E0709F477C008F097C040
:1017A0000E944232809157048F77B3C00B3F2CE5E3
:1017B0001207B9F108F056C00A3F8CE5180709F086
:1017C000AAC08091580441C001309DE5190709F471
:1017D0008AC058F40F3FFCE51F0709F45BC008F00E
:1017E0006AC080915804826030C001363DE513071D
:1017F00009F47FC0053A8DE5180709F484C002306A
:101800009DE5190709F087C060E06EC0809157041C
:1018100082607FC08091570416C080915704886011
:1018200078C08091580482604FC0809157048062D4
:1018300070C08091570480646CC00E9442328091D5
:101840005704806866C0846064C081603DC0809138
:1018500057048E7F5EC0809157048D7F5AC080915F
:10186000570416C08091580418C0809158048D7F89
:101870002BC0809157048F7E4CC0809157048F7D80
:1018800048C0809157048F7B44C080915704877F64
:101890008B7F3FC0809158048D7F8E7F15C08091D3
:1018A000570482FB222720F991E0922790FB82F9CE
:1018B00090FB83F92EC080915804982F90959170D9
:1018C0008E7F892B90FB81F98093580424C00E945D
:1018D00042328091570487FB222720F991E092271A
:1018E00090FB87F916C061E08EE090E00E94DE3444
:1018F00012C08091570484FB222720F991E092279F
:1019000090FB84F906C080915704982F909590FB26
:1019100080F980935704609157041091580484E033
:1019200090E00E94DE34612F82E290E00E94DE347B
:101930000E94423265CE053FFCE51F0731F406E206
:1019400021EE42EE65EF7CE584CE053F2CE51207E3
:1019500030F407E225EE44EE64EF7CE57ACE063FF4
:101960003CE5130709F09CCE07E225EE46EE66EF54
:101970007CE56FCE06318CE5180721F58091C00318
:101980008A7A91E009F490E09093AC02882311F0F8
:1019900065E301C069E286E493E00E944D2B0FC02D
:1019A0000631ECE51E0709F047C08091AC028823A0
:1019B00009F4A2C265E386E493E00E94252B0E940D
:1019C00000191ECE0A359DE5190781F160F4011555
:1019D000FCE51F0791F00E3D2CE5120709F047C00A
:1019E0000E94881818C00C353DE51307B9F000F1C6
:1019F000073A9DE5190779F03AC00E944232EFEFAD
:101A0000F4E32CE0E150F0402040E1F700C000009A
:101A10000E948B2AF5CD0E943531F2CD8091580479
:101A200082FB882780F991E0892703C081E001C00B
:101A300080E00E9472191BC08091C00382720A3C30
:101A4000ECE51E0709F4C5C208F458C20F3CFCE5DA
:101A50001F0709F4D2C208F484C2063D2CE5120720
:101A600008F491C20D358DE5180709F4C9CDF701C9
:101A7000828100811181882349F0C8010E94673169
:101A8000D82E682FC8010E94CA3104C0C8010E9424
:101A90009631D82EB8018D2D0E94342C0E94D1167B
:101AA000B82E192F982EF7010281A580A2949FE0ED
:101AB000A92280919E038770B9F00023A9F0812F9D
:101AC000807F803421F080E28B0D883068F0809137
:101AD000580482FF09C082E00E94551980919E033C
:101AE0008770DD24D3948111D12CC12EC2948FE054
:101AF000C8228C2D90E08C30910508F0D7C1FC01F4
:101B0000E759FF4F0C947935812F807F1F70882310
:101B100011F01295107F0023B9F0112309F4B4C11C
:101B200080E28B0D883010F0911006C08091C003C8
:101B3000182B1093C00305C08091BF03182B10937E
:101B4000BF030E940019A0C18B2D0E94693211238E
:101B500009F4ACC180E28B0D883080F1992071F1DD
:101B600010958091BF0318231093BF032AC0812FC3
:101B7000807F1F70803211F01295107F8B2D99207D
:101B800021F0F1E09F16D9F149C08091580482FDFF
:101B90001BC0002369F0112339F08091C003182B7A
:101BA0001093C0030E94001980E00E949E327EC103
:101BB00080E00E946932112309F478C1812F0E94CC
:101BC000F9180E94001972C1002381F08091C103AD
:101BD000AA2051F021E0A21207C0182B181709F40F
:101BE00065C11093C10362C1812B10C0AA2021F0EE
:101BF00031E0A31609F45AC10E94F31827C000234C
:101C000041F085E08A1508F451C1812F0E945F32AE
:101C10004DC194E09A1508F449C118C0002349F059
:101C2000AA2099F3F701858180FF2EC18F708583EB
:101C3000ECCFAA2059F0893309F035C1FFEF27EE28
:101C400033E0F15020403040E1F72BC1812F0E945A
:101C500058322CC1812F86958695837019F081307A
:101C600061F024C1002321F08B2D912F937002C0CD
:101C700080E090E00E94982B1FC1002321F08B2D63
:101C8000912F937002C080E090E00E94822B14C1DB
:101C90008B2D002319F00E94F42602C00E943B26DF
:101CA0000E944F2709C1812F8370A9F5011102C13C
:101CB0004B2D429546954770440F440F8B2D8F70E6
:101CC00090E09C01042E01C0220F0A94EAF7B4FEB2
:101CD00008C08FE090E001C0880F4A95EAF7809530
:101CE00001C080E0169516951370123069F088F4E3
:101CF0009091C203113019F0822B892302C0922BDC
:101D0000892B0E941D32D6C0822B9091C203892755
:101D1000F8CF822BF6CF002319F0812F817001C0FC
:101D20008695882309F4C6C04B2D42954695477089
:101D3000440F440F8B2D8F7090E09C01042E01C046
:101D4000220F0A94EAF7B4FE08C08FE090E001C0C9
:101D5000880F4A95EAF7809501C080E016951695A0
:101D60001370123059F078F490912704113019F063
:101D7000822B892309C0922B892B06C0822B90913C
:101D80002704892701C0822B0E94FF3193C01F7056
:101D9000002339F0812F0E9411328B2D0E945F3277
:101DA00089C08B2D0E945832812F0E94043282C03C
:101DB0008B2D92EF991681F1991538F0E0EF9E1670
:101DC00059F0F1EF9F1619F15BC023EF921659F10C
:101DD00034EF9316C1F054C0002381F084E08A15DB
:101DE00008F464C01F7181E090E0012E01C0880FEB
:101DF0000A94EAF790912704892720C095E09A1564
:101E000008F454C0EFCF8091580482FD1AC000231B
:101E100029F0812F8F7127C00023D9F3812F8F7173
:101E20000E94043243C0002341F01F7181E0012E63
:101E300001C0880F0A94EAF701C080E00E94FF31D8
:101E400035C0002399F01F71812F0E9411328091BB
:101E5000580482FF07C0E8E01E9FC0011124836080
:101E600080939E03812F0E94113220C081E00E9446
:101E70005519F1E0FA15D0F482E00E94551916C008
:101E8000002321F0AA2029F28B2D8FCEAA2031F237
:101E9000893349F42FEF37EE83E021503040804002
:101EA000E1F700C000008B2D0E94693288EF8C0D95
:101EB000843010F40E94AE2BDD2009F4A3C0809181
:101EC0009E0380FD9FC0F7011282859585958595BB
:101ED0000E941132C7010E94C40980919E0385951A
:101EE000859585950E9404328DC001319FE51907C3
:101EF00009F0A6CB82E080CB69E25DCD053C2CE504
:101F0000120709F452C0D0F4033C9CE5190709F408
:101F100042C008F045C0023CFCE51F0709F0A7CD10
:101F20009091F80381E089278093F80310921801BB
:101F300080918B04816080938B0462CB073C2CE5FD
:101F40001207E9F1B8F1083C9CE51907E9F1093CF1
:101F5000ECE51E0709F08BCD4EEA5DE26CEB7DE20D
:101F600046C00C3C3CE51307F1F1C0F10D3CECE53B
:101F70001E0709F43FC00E3CFCE51F0709F077CDB2
:101F800061E085E03CC0013D3CE5130708F038CB3B
:101F900061E082E134C045E15EE260E27EE227C0BA
:101FA00040E25EE265E17EE222C046EE5DE261EF84
:101FB0007DE21DC041EF5DE266EE7DE218C04AECB5
:101FC0005DE268ED7DE213C048ED5DE26AEC7DE222
:101FD0000EC04CEB5DE26EEA7DE209C047E75CE2D1
:101FE00065E87CE204C045E85CE267E77CE20E94C9
:101FF000352D06CB61E081E002C061E08DE00E94FA
:10200000FC2DFECA2996E1E10C943134A9E0B0E040
:10201000ECE0F0E10C941434182F80911701811337
:102020000DC02091F803237030E04091160150E07C
:1020300081E02417350719F480E001C081E0817048
:10204000809313018091FD0390911201981739F04C
:102050008093120140E060E080E00E94C0241631CD
:1020600009F045C083EC92E20E94D81D2CC01B30C1
:1020700008F0BCC1143009F44EC008F050C1113052
:1020800009F093C0809111010EE0809F002D112472
:102090002EE0F22EF00E23E42F1510F493E4F92E27
:1020A0006091F9037091FA038091FB030E94B125BE
:1020B000E62ED72EC82E0F1508F484C081E032E436
:1020C0003F1508F47DC0909111019F5F909311011D
:1020D000811107C682E0809318018091130181115C
:1020E00000C61111FEC583E080931801FAC51731AF
:1020F00008F0B7C11A3009F0BACF8AE694E208C0F6
:102100001E3008F086C11B3009F07DC18EE494E2D8
:102110000E942D1ED8CF009111018EE0089F002D46
:1021200011246EE0D62ED00EA3E4AD1510F453E4C6
:10213000D52EB090FA03A090FB032091FC0340E45D
:10214000C42E3C2D329F312D1124C32E0D1538F590
:10215000E02EF12CF701E15CFD4F9081809112019E
:102160008923D9F0F701EE0FFF1FE754FE4F60817E
:10217000C69EB001112435E0759567953A95E1F753
:102180008091F903680F7B2D8A2D0E94B125462F7F
:10219000282F672FC7010E94C3240F5FD7CF81E08C
:1021A00092E49D1508F08FCF0BC01130E8F48091B8
:1021B0001301882329F040E060E080E00E94C02401
:1021C00080E081CFE02FF0E0DF01A15CBD4F8C917A
:1021D00090911201982331F02C2D4E2D6D2DCF01B1
:1021E0000E94C3240F5F67CF809111011230E1F587
:1021F0000EE0809F002D11248EE0F82EF00E83E477
:102200008F1510F4B3E4FB2ED090FA03E090FB039B
:10221000C090F903B6018E2D0E94B125B62EA72ECF
:10222000982E6091FC036C0D7D2D8E2D0E94B125A2
:10223000E62ED72EC82E0F15A8F5802F90E0FC01B2
:10224000E15CFD4F308120911201232359F030FFD2
:1022500004C02C2D4E2D6D2D03C0292D4B2D6A2D24
:102260000E94C3240F5FE7CF133009F052C00EE085
:10227000809F002D1124AEE0FA2EF00EA3E4AF15DE
:1022800010F4F3E4FF2EB090FA03A090FB0320912A
:10229000FC03E0E4EE2E3E2D329F312D1124E32E7F
:1022A0000F1530F081E092E49F1508F00CCF88CF35
:1022B000C02ED12CF601E15CFD4F9081809112017E
:1022C0008923B9F0F601EE0FFF1FE654FE4F80811F
:1022D00082958F706091F9038E9D600D11247B2D86
:1022E0008A2D0E94B125462F282F672FC6010E94F4
:1022F000C3240F5FD5CF1C3108F4C3C01E3109F4CD
:102300009BC108F092C31C3109F443C21D3109F48A
:10231000ADC2809111018F5F80931101DBCE173028
:1023200029F48FE993E20E948E1DCDCE183008F07B
:1023300050C0153009F047C0009111018EE0089F90
:10234000002D11249EE0F92EF00EA3E4AF1510F439
:1023500083E4F82ED090F903E090FA03C090FB03D9
:102360006091FC036695669566958091F403909163
:10237000F5030E94A7250E94F324805887FD8195CC
:10238000880F282F3C2D239F212D1124822F6D2D66
:102390007E2D0E94B125E62ED72EC82E0F1508F0EF
:1023A00081CFE02FF0E0DF01A15CBD4F8C919091D7
:1023B0001201982331F02C2D4E2D6D2DCF010E944E
:1023C000C3240F5FEBCF163009F0A3CF8BEC93E261
:1023D000AACF183019F483EA94E205C0193009F045
:1023E00098CF85E894E20E94A91E6DCE103119F4B1
:1023F00081E693E28DCE1131B8F41D3009F080CE24
:1024000084E993E290CF1C3009F083CF8DE993E209
:102410008ACF1E3019F48BE893E285CF1F3009F084
:1024200078CF80E793E27FCF133119F489E294E209
:102430006FCE143158F4113119F48EE795E2D3CFF1
:10244000123109F066CF8DE394E2CDCF143119F447
:1024500083E393E209CE153109F05BCF81E093E28B
:1024600003CE113229F485EA92E20E941F1D2BCE81
:10247000123208F09CC31B3109F03DCF82EB92E28F
:1024800052CF183109F042C08091130181111EC052
:102490006091FC0320E1620F08F46FEF8091F40378
:1024A0009091F5030E94A72565E070E00E9400343A
:1024B000892B09F085CE0E94973463E470E00E9476
:1024C0006535609112010E943C2D7ACE80911101F8
:1024D0009EE0899F802D11240EE0080F043408F03F
:1024E00003E4E82EF12CC02ED12CEC14FD044CF4A6
:1024F00060911201C7010E943C2DBFEFEB1AFB0A4D
:10250000F4CF81E0033408F4DECD5ACE183108F060
:102510003EC08091130181111EC06091FC0320E137
:10252000620F08F46FEF8091F4039091F5030E941D
:10253000A7256AE070E00E940034892B09F040CEA4
:102540000E94973463E470E00E9465356091120147
:102550000E94602D35CE809111019EE0899F802DD3
:1025600011240EE0080F043408F003E4E82EF12CE7
:10257000C02ED12CEC14FD040CF0C3CF60911201DD
:10258000C7010E94602DAFEFEA1AFA0AF3CF1931A2
:1025900009F04CC0009111018EE0089F002D11241C
:1025A000BEE0FB2EF00EE3E4EF1510F4A3E4FA2EE8
:1025B000D090FA03E090FB03C090F9036091FC0314
:1025C0006695669566958091F4039091F5030E9457
:1025D000A7250E94F324805887FD8195880F682FD6
:1025E0002CE0629F612D11246C0D7D2D8E2D0E949B
:1025F000B125E62ED72EC82E0F1590F4E02FF0E06F
:10260000DF01A15CBD4F8C9190911201982331F0B4
:102610002C2D4E2D6D2DCF010E94C3240F5FECCFCA
:1026200081E0F2E4FF1508F04ECDCACD1A3109F071
:1026300070CE84E195E277CE809111010EE0809F0B
:10264000002D1124FEE0F00FF987F73410F026E496
:10265000298780911301882361F040E060E080E0E9
:102660000E94C02486E4E0E0F3E0DF011D928A9539
:10267000E9F780911101811115C08091FC029091C0
:10268000FD020E94D52A21E08931910508F420E05D
:102690002093FB02499730F00E94F02A9093FD02AC
:1026A0008093FC02E02EF12CB9854B2E512C5EE07C
:1026B000352EFE0131964F01E414F5040CF063C091
:1026C000C70165E070E00E9465356B013C01389EF2
:1026D000F001399EF00D1124E050FD4FE60FF71F79
:1026E0000081A4010E94C624282E54018A2D881935
:1026F000821508F031C0D501EC91F0E0E15CFD4FAE
:10270000908180911201892319F1302F25E5321B28
:1027100008F430E07091FA032AEA200F08F42FEF52
:102720004091FB0382E0289F200D11242E5F249FFF
:10273000212D11246AEA631B822F0E94B125462FA6
:10274000D5019C91282F672F892F90E00E94C324E8
:10275000BFEFAB1ABB0ACACF8091FB02882379F086
:1027600021E0021B08F400E0369CC001379C900D6C
:10277000112480509D4FFC01EC0DFD1D00833FEFA7
:10278000E31AF30A99CF81E09985963408F49BCC3B
:1027900017CD4091AD025091AE026091AF027091A1
:1027A000B0028091F4039091F503A091F603B091EB
:1027B000F70384179507A607B70708F401CD0E9411
:1027C0003825082F0E94382593E4891BF0F7890FDC
:1027D000E82EF12CF701E15CFD4F90911201808110
:1027E000892309F441C001FF04C020E040E060E01B
:1027F00013C00E943825082F0E9438258695782F0F
:102800002FE7720F08F47FEF602F8091FB030E9487
:10281000B125462F282F672FC7010E94C32420917E
:10282000FC0330E1230F08F42FEF60E1822F90E0EA
:102830000E94A725BC0184EF91E00E9400348091A2
:10284000F4039091F503A091F603B091F703860F7E
:10285000971FA11DB11D8093AD029093AE02A0936E
:10286000AF02B093B002ACCC81E02DCC4091F70226
:102870005091F8026091F9027091FA028091F4038C
:102880009091F503A091F603B091F7038417950793
:10289000A607B70708F494CC80911301882329F088
:1028A00040E060E080E00E94C0246091F9037091F4
:1028B000FA038091FB030E94B125062F772E682E24
:1028C00071EBC72E72E0D72EE3E7EE2EE1E0FE2E8D
:1028D000F9EB4F2EF1E05F2E4601A12CB12CD40173
:1028E0008C91F701EA0DFB1D882329F08081262DAC
:1028F000402F672D04C0808120E040E060E090E040
:102900000E94C324F4018181D4018D934D01BFEF56
:10291000AB1ABB0AE6E0AE16B10409F7470156014F
:102920006DE0362ED5011D968C91882331F0F4018F
:102930008585262D402F672D06C0D4011D968C91CC
:1029400020E040E060E090E00E94C324F50184852F
:1029500085873A94F1E0AF1AB10821E0821A910814
:1029600037E03312DFCFD60117968C91882331F0F0
:10297000F7018781262D402F672D06C0D7011796B6
:102980008C9120E040E060E090E00E94C324F601DA
:102990008681882339F0D70116968C91262D402FF9
:1029A000672D05C0F701868120E040E060E090E0FF
:1029B0000E94C3240E943825837091E009F090E0C2
:1029C000D60116969C93169717969C93BEE0CB0E55
:1029D000D11CEEE0EE0EF11C4E145F0409F07CCF2A
:1029E0002091FC0330E1230F08F42FEF60E1822FE8
:1029F00090E00E94A725BC0188EB9BE00E94003478
:102A00008091F4039091F503A091F603B091F70340
:102A1000860F971FA11DB11D8093F7029093F802B6
:102A2000A093F902B093FA02CBCB1F3109F0B9C0E1
:102A30000091FB03A3E00A9F70011124F694E79430
:102A4000F694E7945E2C802E912C8FEF90E0B401E9
:102A50000E946535762E80911301882371F040E045
:102A600060E080E00E94C02486E4E0E0F3E0DF0163
:102A70001D928A95E9F71092FF028091FE028F5F06
:102A80008093FE0230E0A32E33E0B32E612C8E182B
:102A90009F086501412C41100CC08091FF028111FB
:102AA00008C00E949734853595401CF4F5010083D9
:102AB0000CC0D6018C91882341F0801730F490919E
:102AC000FE02791202C081508C93AE014F5F5F4FBE
:102AD000662D842D0E94C624882311F1F6012081E1
:102AE000E981521680F430E02E193F092E9DC00175
:102AF0002F9D900D3E9D900D1124B4010E94003435
:102B0000262F402F09C0029FC0011124B7010E9447
:102B10000034462F20E060E08E2F90E00E94C32416
:102B20004394FEE0CF0ED11C25E04212B4CF639453
:102B30003FEFA31AB30A8EE06812ABCF8091FE027A
:102B4000781202C01092FE028091FF028F5F8D31D9
:102B500018F48093FF0234CB1092FF022AE233E094
:102B600084E04FEF400FA0E0B3E0F9019EE0843035
:102B700041F4D8965C91D897051303C0D8964C932E
:102B8000D8975081501710F04083068791503196A6
:102B900011969111ECCF81502E5031098111E3CF64
:102BA0000FCB103209F0B5CB8BEA92E25ECC173234
:102BB00061F462E272E205C0133209F0AACB6CE85C
:102BC00072E280E00E94801C7ECA183278F51432CE
:102BD00059F48091FE0321E0382F321B08F430E0D5
:102BE000832F64E572E2EECF153268F4123221F7DA
:102BF0008091FE0321E0382F321B08F430E0832F50
:102C00006CE872E2DFCF153219F464E572E2D9CFD5
:102C1000163209F07ECB8091FE0321E0382F321B63
:102C200008F430E0832F62E272E2CCCF1A3259F41A
:102C30008091FE0321E0382F321B08F430E0832F0F
:102C400064EF71E2BFCF1B3298F4183259F48091CF
:102C5000FE0321E0382F321B08F430E0832F6AE0B6
:102C600072E2B0CF193209F054CB6AE072E2A9CF18
:102C70001B3219F464EF71E2A4CF1F3F09F049CB76
:102C80008091F4039091F503A091F603B091F703BE
:102C900088279C70AA27BB272AE0B695A795979509
:102CA00087952A95D1F782309105A105B10571F07C
:102CB00083309105A105B10569F040E00197A105B8
:102CC000B10511F060E008C064E102C044E160E0D9
:102CD00080E003C044E164E184E10E94C02482E01A
:102CE00003CA2996E2E10C94303480E00895909173
:102CF000570492FF0DC0282F2871283019F4877FC0
:102D0000846006C0282F2471243011F48B7F8860E2
:102D100093FF0DC0282F2871283119F4877E846114
:102D200006C0282F2471243111F48B7E88612091F4
:102D3000580420FF0DC0382F3871383019F4877FC0
:102D4000816006C0382F3171313011F48E7F886078
:102D500021FF0DC0282F2871283119F4877E816149
:102D600006C0282F2171213111F48E7E886194FDD7
:102D7000877E0895F894E82FE295EF70F0E031A196
:102D8000282F2F7081E090E001C0880F2A95EAF784
:102D9000982F9095932391A392A1892B82A3789445
:102DA0000895CF93DF938238910569F1B0F48133B0
:102DB000910509F46FC048F48932910509F465C0A2
:102DC0008A32910509F46BC08AC08533910509F4F4
:102DD00057C089339105B9F082C0833E910571F1E6
:102DE00038F4803E9105B1F0823E910511F177C033
:102DF000863E9105B9F1873E9105C9F1843E910562
:102E000009F06DC024C02091570420FD53C021FD5E
:102E100051C065C08091570480FD46C08091580420
:102E200080FF48C08091570484FD50C183EE90E03C
:102E30004FC18091570482FF3AC0F4CF809157046C
:102E400082FD35C08091580480FD34C0EBCF809165
:102E5000580481FF35C08091570484FD37C187EE47
:102E600090E036C18091570483FF27C0F4CF809152
:102E7000570483FD22C08091580481FD21C0EBCF0F
:102E80008091570485FD1FC021C08091570485FDA6
:102E90001DC019C08091570486FD1BC01DC08091C4
:102EA000570486FD19C015C089E390E011C182EE78
:102EB00090E00EC180EE90E00BC186EE90E008C17C
:102EC00084EE90E005C189E290E002C185E390E0E4
:102ED000FFC08AE290E0FCC081E390E0F9C0811578
:102EE00031E5930708F069C0811540E59407F0F0DB
:102EF0009C0174E0369527957A95E1F7922F9370AF
:102F0000482F437021E030E002C0220F331F4A9562
:102F1000E2F73C68392B982F9F709695969540E282
:102F2000949FC0011124822B932BD2C0883E91051F
:102F300068F5803E910508F0CBC0883A9105B8F459
:102F4000853A910548F0855AE82FF0E0ED5CFE4F98
:102F5000808190E09064BCC08130910509F4B3C0D9
:102F600008F4B4C08430910508F4B0C0B1C08F3B00
:102F7000910508F0ABC0885AE82FF0E0EE0FFF1F74
:102F8000EA5CFE4F808191819464A2C0811520E2A9
:102F9000920758F4811531E0930708F099C0803FFB
:102FA000910508F493C0906593C0811540E494079F
:102FB00008F48CC09F70906A8BC0811525E592073C
:102FC00008F042C0811534E5930728F0982F882730
:102FD000846F906A7DC0811543E59407B0F09C0131
:102FE0002370332741E050E002C0440F551F2A955B
:102FF000E2F7282F2695269580E2289F900111243C
:10300000CA01822B932B9A6863C0811522E592072F
:1030100028F4982F8827816F906A5AC09C012370EA
:10302000332741E050E002C0440F551F2A95E2F7D4
:10303000282F2695269580E2289F90011124CA0109
:10304000822B932B9C6844C0EC01811539E59307D2
:10305000A8F48115984528F09C2F8827806F906AE6
:1030600037C0C11586E5D80788F58C2F0E947716E2
:103070008F7190E0982F882790622AC081152AE5E9
:10308000920790F48C2F8F700E94771694E0D6955B
:10309000C7959A95E1F7CF70D0E0DC2FCC27D069A7
:1030A0009E01282BC90114C090568115904270F4DE
:1030B0008D2F8F710E947716282F2F71CE0199279F
:1030C0009062922B05C081E090E002C080E090E029
:1030D000DF91CF910895CF9384E090E00E94C034B7
:1030E000C82F82E290E00E94C0342C2F30E0A9016A
:1030F000582BCA01CF91089580E090E00E94C83417
:10310000883E9E4F19F40E941C2D089580E008957A
:1031100068EE7EEF80E090E00E94FC3460E082E0A8
:1031200090E00E94DE3460E083E090E00E94DE34B4
:103130001092C20360E084E090E00E94DE3464E01C
:1031400082E290E00E94DE3460E085E090E00E9440
:10315000DE3460E086E090E00E94DE346FEF87E0CE
:1031600090E00E94DE3440E050E0BA0188E090E058
:103170000E94F03460E08DE090E00E94DE3440E098
:1031800050E0BA0188E190E00E94F03460E087E10D
:1031900090E00E94DE3440E050E0BA018CE190E023
:1031A0000E94F03460E070E080E290E00E94FC3425
:1031B00040E050E0BA0188E190E00E94F03480E005
:1031C0000E94ED2C0E940C2D40E050E0BA018FE0EF
:1031D00090E00E94F03440E050E0BA0183E190E0DA
:1031E0000E94F03408958091C10381111092C103AF
:1031F000089580959091C00389238093C00308951A
:103200009091C0038091BF03982B909346038091C7
:10321000C1038823D9F0892B809346038091100144
:10322000882331F08091570487FF02C08EE101C0EE
:1032300086E0E8E4F3E090E0815028F02191222339
:10324000D9F39F5FF9CF91110E94F31840E250E04B
:103250006FE973E086E493E00E948635892B21F1C3
:1032600080E2E6E4F3E0AFE9B3E001900D928A95E5
:10327000E1F7E0914E04F0914F043097A9F080916E
:103280001001882359F08091570487FF07C080916F
:1032900046038093470386E0809346030280F381D0
:1032A000E02D86E493E00995089520919E03809592
:1032B000822380939E03982F977099F430E0482FD3
:1032C000082E000C550B2417350759F0909158041F
:1032D00092FF07C08595859585950E9404321092CE
:1032E0009E030895CF93C0915804C2FB992790F98B
:1032F000981791F080FBC2F9C0935804609157046D
:1033000084E090E00E94DE346C2F82E290E00E9424
:10331000DE3482E00E945519CF91089580919D037B
:1033200090916C03891719F08F5F8770FBCF089518
:103330000F931F93CF93DF9380916B0382958F70D0
:1033400009F05AC080916803882309F455C0809120
:103350009D0310916C036091660370916703C091A7
:103360006903D0916A0391E06F3F09F090E0292F43
:1033700006E0811709F440C0209721F07F3F21F03B
:1033800030E003C031E001C0322F90E030FD31C0A9
:10339000089FF001099FF00D1124DF01A359BC4FD4
:1033A00011963C911197371324C03C91361321C0DC
:1033B00012963C91129731111CC013964D915C915D
:1033C00014974C1B5D0B483C510598F480916B039E
:1033D0008F70806180936B03EE58FC4F80818F70FB
:1033E0008061808386E693E00E94C4090E948E1962
:1033F00003C001968770BDCFDF91CF911F910F91D0
:103400000895CF93DF93EC010E946731BE010E94C3
:10341000342C0E94D116DF91CF910895A1E1B0E044
:10342000E4E1FAE10C941B348C0185E0F801DE0143
:103430001D9601900D928A95E1F7F801E280909136
:103440006603609167034091690350916A034115D7
:10345000510531F06F3F31F481E09F3F19F403C013
:1034600081E001C080E0F82FF1709F2E80FD1BC12C
:10347000F80130812181C380D48086E6A82E83E0C4
:10348000B82EF0906803F601E41BF50BFF2009F459
:10349000C7C080916B03E83CF10508F092C0482F4B
:1034A000407F09F051C0621311C093130FC0FE2C6E
:1034B000E1100CC08F70806180936B03C5010E9486
:1034C000C40980916B03F80185832AC1C114D1041A
:1034D00031F02F3F31F481E03F3F19F403C081E028
:1034E00001C080E080FD03C081E08E2502C080E045
:1034F00090E0F82FF170FF2E80FF1CC080919D039B
:1035000040916C0356E0841709F4E8C090E0589F9E
:10351000F001599FF00D1124E359FC4F61812613EE
:1035200006C06081631303C06281E61203C0019686
:103530008770E9CFFE2CEE2009F4F2C080916B0376
:10354000816080936B0349C0621306C0931304C06B
:10355000E11002C0F80186C0C8010E94223288230F
:1035600051F1EE2041F120916B03822F82958F70F3
:1035700090E0029774F080916603909167039887BA
:103580008F831986DB86CA862C87CE0107960E9418
:10359000C40986E0F801A6E6B3E001900D928A9591
:1035A000E1F70E9498190AC06217C9F0C8010E9489
:1035B000223281111EC0C8010E94C409FF24F39465
:1035C000AFC0482F407F81F786E693E00E94C40990
:1035D00086E0F50111928A95E9F7F12CA1C09313C9
:1035E000E5CFE110E3CFF8018583C8010E94C4094B
:1035F00054C0EE2001F320916B03822F82958F70CF
:1036000090E0029734F280916603909167039A8369
:1036100089831B82DD82CC822E83CE010196B7CFB7
:10362000E83CF105D0F5FE2CEE2029F2621327C00C
:10363000931325C020916B0320FD18C0822F829523
:103640008F70482F50E04115510581F0F801258316
:103650004F30510541F08F5F982F9295907F822FC8
:103660008F70892B8583C8010E94C40986E0F80108
:10367000A6E6B3E001900D928A95E1F751C0C8012A
:103680000E942232811185CF80916B0381608093EB
:103690006B03C8010E94C40943C086E0F501119282
:1036A0008A95E9F73DC0EE2009F485CFC8010E9454
:1036B0002232F82E882309F47ECF86E0F801A6E6B0
:1036C000B3E001900D928A95E1F7809166039091A5
:1036D00067030E94011A0E94981922C03D872E8715
:1036E0008D859E850E94011A292F22952F702230E8
:1036F00028F49F7039F0811105C00BC0243028F4E4
:103700009F7049F4805E883020F0C8010E94C4098F
:103710009F2CF92C05C0F8019581907F99F7F9CF7E
:103720008F2D6196EBE00C943734AAE0B0E0EBE922
:10373000FBE10C941A34AE014F5F5F4F7A018AE0CF
:10374000DA011D928A95E9F70CE111E0CC24C394CB
:10375000D12CAA24A394B12C4E01BBE08B0E911C5A
:10376000F80180818F3F09F44AC0F894E82FE29570
:10377000EF70F0E021A18F70A50102C0440F551F2A
:103780008A95E2F7CA01922F982B91A392A1809576
:10379000892382A3789400C06AE271E0F701A60150
:1037A00040955095DB012D91BD012F3FA9F0822F4F
:1037B00082958F7090E0DC0190968C9190E02F7054
:1037C00002C0959587952A95E2F780FD05C0808116
:1037D00091818C299D2904C0808191818423952326
:1037E0009183808332968E169F06E1F6F8018081E0
:1037F0008F3F11F00E94BA16F0EAFA95F1F7CC0C5F
:10380000DD1C0F5F1F4F41E00A32140709F0A8CFFB
:103810004AE050E0B7018CE892E00E94863511E062
:10382000009709F410E0892B89F08AE0F701ACE8F1
:10383000B2E001900D928A95E1F781E08093C50393
:103840000E94F02A9093C4038093C3038091C50320
:10385000882391F18091C3039091C4030E94D52ADB
:10386000059750F180918C0290918D029093A30264
:103870008093A20280918E0290918F029093A50274
:103880008093A40280919002909191029093A7025C
:103890008093A60280919202909193029093A90244
:1038A0008093A80280919402909195029093AB022C
:1038B0008093AA021092C503812F2A96ECE00C9403
:1038C0003634809328046093290424E630E042E0F3
:1038D00050E068E274E080EA0E94DF3321E0892B47
:1038E00009F020E0822F089580912704982F967088
:1038F000963011F4886001C0877F0E94FF310895DF
:10390000A7E0B0E0E6E8FCE10C941434282E4B016B
:10391000209111018EE0289F802D11248E83182F75
:10392000125F143408F013E43091FE0339839E8152
:10393000911708F07CC08E81682E712CF301E15C38
:10394000FD4F908180911201892309F46CC0309061
:10395000F9034090FA03522C1F82C301880F991F6C
:10396000DC01A754BE4FBB83AA83C301880F991FF4
:10397000FC01E654FE4FFD83EC83F9815F1608F0ED
:1039800040C0E52CF12CAA81BB81CC90D12CF70151
:10399000E250FC4F8181C81AD108AC81BD81AC9046
:1039A000B12C8185A81AB108CC9C9001CD9C300D1A
:1039B000300D1124AA9CC001AB9C900D900D1124D8
:1039C000820F931F0E944D25082F6091FC0321E078
:1039D000620F08F46FEFF701EE0FFF1FE250FC4F8C
:1039E000818D928D0E94A7257C019501A601632DF2
:1039F000742D8F81F4010995362E472E8F835394B1
:103A0000BCCF2091FB038F81382F329F312D1124A1
:103A1000832F632D742D0E94B125462F282F672FE9
:103A2000C3010E94C3248E818F5F8E8380CF81E08B
:103A3000133408F080E02796E2E10C943034A0E0E3
:103A4000B0E0E5E2FDE10C941E348C01C09111015F
:103A50008EE0C89FC02D1124DEE0DC0FD43408F0C6
:103A6000D3E42091FC0331E0230F08F42FEF30E082
:103A700040E050E06FEF7FEF80E090E00E94023581
:103A80007901CD1708F041C0CC2ED12CF601E15CB4
:103A9000FD4F9081809112018923A9F19091FE033D
:103AA000915097FD15C0492F092E000C550BFA01B6
:103AB000E250FC4F8189C813F3CF440F551FFA0120
:103AC000E250FC4F218D328D2E153F0548F701C085
:103AD00097016091FC0341E0640F08F46FEFC901A6
:103AE0000E94A725AC016091F9037091FA038091BF
:103AF000FB03F80109950E94B125462F282F672F57
:103B0000C6010E94C324CF5FBCCF81E0D33408F04C
:103B100080E0CDB7DEB7E8E00C943A34A0E0B0E046
:103B2000E4E9FDE10C941F348C01C09111018EE099
:103B3000C89FC02D1124DEE0DC0FD43408F0D3E49C
:103B40006091FC036695669521E0620F08F46FEFC3
:103B50008091F4039091F5030E94A725D82ECD17EC
:103B6000F0F4EC2EF12CF701E15CFD4F9081809197
:103B70001201892391F06091F9037091FA03809109
:103B8000FB032D2D4C2FF80109950E94B125462FDE
:103B9000282F672FC7010E94C324CF5FE0CF81E0A9
:103BA000D33408F080E0CDB7DEB7E7E00C943B34C7
:103BB000A0E0B0E0EEEDFDE10C941B346C01C0918F
:103BC00011018EE0C89FC02D1124DEE0DC0FD4343B
:103BD00008F0D3E46091FC03669566958091F40348
:103BE0009091F5030E94A725182F80E4810F0E9471
:103BF000F32490E8F92EF80E812F0E94F32420E898
:103C0000922E980ECD1700F5AC2EB12CF501E15C8B
:103C1000FD4F9081809112018923A1F06091F903F9
:103C20007091FA038091FB03E12E0C2F292D4F2D6B
:103C3000F60109950E94B125462F282F672FC5014F
:103C40000E94C324CF5FDECF81E0D33408F080E050
:103C5000CDB7DEB7EBE00C9437346F927F928F9242
:103C60009F92AF92BF92CF92DF92EF920F931F93EA
:103C7000CF93DF933C01C09111018EE0C89FC02D0E
:103C80001124DEE0DC0FD43408F0D3E46091FC03AF
:103C900066958091F4039091F5030E94A725182F53
:103CA000CD1708F044C08C2E912CF401E15CFD4F3F
:103CB0009081809112018923C1F1F401EE0FFF1F61
:103CC000E754FE4FC080D12C80E7C81AD108F40118
:103CD000EE0FFF1FE654FE4FA080B12CE0E2AE1ABB
:103CE000B108CC9C9001CD9C300D300D1124AA9CC4
:103CF000C001AB9C900D900D1124820F931F0E9468
:103D00004D25082F6091F9037091FA038091FB0310
:103D1000E12E9501A601F30109950E94B125462FD8
:103D2000282F672FC4010E94C324CF5FB9CF81E041
:103D3000D33408F080E0DF91CF911F910F91EF9085
:103D4000DF90CF90BF90AF909F908F907F906F90BB
:103D50000895A0E0B0E0EFEAFEE10C941E346C019F
:103D6000C09111018EE0C89FC02D1124DEE0DC0F50
:103D7000D43408F0D3E46091FC0366958091F40399
:103D80009091F5030E94A725182FCD1778F5EC2EFA
:103D9000F12CF701E15CFD4F9081809112018923A4
:103DA00019F1F701EE0FFF1FE654FE4F208130E0BE
:103DB00020523109F701EE0FFF1FE754FE4F4081FB
:103DC00050E0405751096091F9037091FA038091D6
:103DD000FB03012FF60109950E94B125462F282FDC
:103DE000672FC7010E94C324CF5FCFCF81E0D334B8
:103DF00008F080E0CDB7DEB7E8E00C943A34EF92FB
:103E0000FF920F931F93CF93DF937C018B010E944E
:103E10007428811119C0E70101151105A1F08091E5
:103E2000E80085FD0AC08091E8008E778093E80065
:103E30000E947428882381F307C089918093F10040
:103E400001501109E9CF80E0CDB7DEB7E6E00C9470
:103E50003C34AAE2B0E0EFE2FFE10C942334ECEE54
:103E6000F3E084EF93E02091F10021938E179F07F8
:103E7000D1F78091ED03833009F463C030F48130D1
:103E800071F0823009F49DC0B4C08A3009F489C051
:103E90008B3009F46EC0893009F0ABC020C080912E
:103EA000EC03813A09F0A5C08091E800877F8093F8
:103EB000E8008091F0039091F103892B21F460E2F6
:103EC00088EC93E003C060E080E090E070E00E9446
:103ED0002D2A8091E8008B778093E8008AC080913A
:103EE000EC03813209F085C08091F0039091F103D9
:103EF000009719F0029709F07CC08091E800877F55
:103F00008093E8008091E80082FD05C08091EA037B
:103F10008111F8CF6EC02091F3008091F20090E003
:103F2000922B029731F48091F100813011F08630AC
:103F300021F48091F1008093C7038091E8008B7792
:103F400054C08091EC03813A09F053C08091F00392
:103F50009091F103892B09F04CC08091E800877F94
:103F60008093E8008091E80080FFFCCF80911001F1
:103F700037C08091EC038132E1F58091F00390919C
:103F8000F103892BB1F58091E800877F8093E800E9
:103F90000E94A7288091EE03809310010E94423274
:103FA00028C08091EC03813221F58091E800877F61
:103FB0008093E8000E94A7288091EF038093C603B6
:103FC00018C08091EC03813AA1F48091E800877FCA
:103FD0008093E8008091E80080FFFCCF8091C603C9
:103FE0008093F1008091E8008E778093E8000E9432
:103FF000A7288091E80083FFDFC18091EC039091B6
:10400000ED03492F50E04A30510508F0D5C1FA01BF
:10401000EB58FF4F0C947935803821F0823809F045
:10402000CBC108C08091E8039091E903992389F0FE
:1040300082600FC08091F0038F70873008F0BCC1A0
:104040008093E9008091EB0085FB882780F910922E
:10405000E9009091E800977F9093E8008093F10049
:104060001092F10070C1282F2D7F09F0A5C188237F
:1040700019F0823061F0A0C18091EE03813009F027
:104080009BC1933009F080E08093E9032EC08091BA
:10409000EE0381112AC08091F0038F702FEF280F5B
:1040A000263008F089C18093E9002091EB0020FFC1
:1040B0001CC0933021F48091EB00806214C0909179
:1040C000EB0090619093EB0021E030E0A90102C089
:1040D000440F551F8A95E2F74093EA001092EA00D8
:1040E0008091EB0088608093EB001092E900809152
:1040F000E800877F8093E8000E94A7285DC18111B6
:104100005BC11091EE031F778091E3008078812BD3
:104110008093E3008091E800877F8093E8000E940D
:10412000A7288091E80080FFFCCF8091E3008068A1
:104130008093E300111102C082E001C083E080930C
:10414000EA033AC18058823008F036C12091EE036C
:104150003091EF032C3D53E0350779F583E08A83F6
:104160008AE289834FB7F894DE01139620E03EE09F
:1041700051E2E32FF0E050935700E49120FF03C099
:10418000E295EF703F5FEF708E2F90E0EA3010F015
:10419000C79601C0C0968D939D932F5F243149F738
:1041A0004FBF8091E800877F8093E8006AE270E06B
:1041B000CE0101960E942D2AB4C08091F003909107
:1041C000F103432F552743305105A9F068F44130DE
:1041D000510509F400C14230510509F0EDC08BE5ED
:1041E00090E0E6ECF2E04BC04132510529F1423259
:1041F000510589F1E1C0C901992781309105A1F0EC
:1042000058F0029709F0D8C0E3E3F3E0E4918E2F71
:1042100090E0E3E3F3E030C0E9E6F3E0E4918E2FD1
:1042200090E0E9E6F3E028C0EFE4F3E0E4918E2FBC
:1042300090E0EFE4F3E020C08330910508F0BCC0CB
:10424000880F991FFC01E359FE4F0190F081E02D8A
:1042500089E090E014C08330910508F0ADC0FC0106
:10426000EE0FFF1FE959FE4F0190F081E02DDC01B8
:10427000AC59BE4F8C9190E0009709F49DC02091FD
:10428000E800277F2093E8002091F2033091F303A8
:104290002817390708F4C90140E0009789F12091F7
:1042A000EA03222309F43DC02530D9F12091E8002A
:1042B00023FD37C02091E80022FD2FC02091E800A7
:1042C00020FFEBCF4091F3002091F20030E0342B3F
:1042D000009759F02830310540F444914093F100A3
:1042E000319601972F5F3F4FF3CF41E028303105E2
:1042F00009F040E02091E8002E772093E800CDCF30
:104300004111CDCF0AC08091EA03882351F0853056
:1043100041F08091E80083FD04C08091E80082FFB5
:10432000F2CF8091E8008B778093E80045C0803819
:1043300009F042C08091E800877F8093E800809177
:10434000EB038093F1008091E8008E77D3CE81114A
:1043500033C08091EE039091EF039927029764F5A3
:104360008091E800877F8093E8001091EE0310931E
:10437000EB030E94A728111106C08091E30087FD7E
:1043800002C081E001C084E08093EA0342E061EC76
:1043900081E00E94C62842E261EC84E00E94C628C7
:1043A00042E261EC82E00E94C62842E260EC83E0D7
:1043B0000E94C6288091EA038091E80083FF10C024
:1043C0008091E800877F8093E8008091EB00806215
:1043D0008093EB0005C082E190E0E1E2F3E04FCF93
:1043E000AA96E3E00C943F34EF92FF920F9397016B
:1043F000201B31092F3F310519F010F02FEF30E06D
:104400002095382F320F08F43FEF832F0F91FF9044
:10441000EF900895EF92FF920F939701201B3109BF
:104420002F3F310519F010F02FEF30E0322F30958B
:10443000482F430F08F44FEF842F620F0F91FF9026
:10444000EF900895EF92FF920F93972F093438F46D
:10445000B701601B71096F3F710519F010F06FEF24
:1044600070E0485F5F4F4131510540F0A901485F5E
:104470005F4F4131510510F06FEF70E06095482FAC
:10448000460F08F44FEF842F37FF02C02D5F3F4FD8
:1044900035952795359527956091F903620F792F0A
:1044A0000F91FF90EF900895EF92FF920F93E00E1F
:1044B000F11CF90137FF03C0F195E195F10924E002
:1044C000EE0FFF1F2A95E1F7EF3FF10519F014F009
:1044D000EFEFF0E09A0157FF03C0319521953109C4
:1044E00094E0220F331F9A95E1F72E173F070CF443
:1044F000F901EE0DFF1DEF3FF10519F010F0EFEFA0
:10450000F0E02E2F2095382F320F08F43FEF832F45
:104510000F91FF90EF900895EF92FF920F93970104
:1045200095E0099F200D311D11242F3F310519F011
:1045300010F02FEF30E02095382F320F08F43FEFC6
:10454000832F0F91FF90EF90089522E8241B08F429
:1045500020E0620F08954095282F429F412D11249D
:10456000842F0895E42FF0E0EE0FFF1FE754FE4F75
:104570009081921B97FD9195292F38E1239F212D42
:104580001124620F08950F931F9310E0F801EE0FAE
:10459000FF1FE754FE4F9081905797FD9195000FB4
:1045A000111FF801E654FE4FE081F0E0B097DF0103
:1045B000AA0FBB1F8D010E0F1F1F2003D001219FCB
:1045C000B00D1124E8E3F0E0E91BF10997FDF39544
:1045D0009F01220F331F89010E0F1F1F40039001FF
:1045E000419F300D11242A0F3B1F37FF02C0215875
:1045F0003F4F220F232F221F330B620F1F910F916A
:1046000008950F931F93522F10E0F801EE0FFF1F34
:10461000E654FE4FE081F0E0B097EE0FFF1F9F01E0
:104620005203D001539FB00D1124000F111FF80148
:10463000E754FE4F008110E000571109000F111FD1
:1046400040039001419F300D11242A0F3B1F37FF7B
:1046500002C021583F4F220F232F221F330B620F1E
:104660001F910F9108950F931F93522F10E0F8019F
:10467000EE0FFF1FE654FE4FE081F0E0B0979F0180
:104680005203D001539FB00D1124000F111FF801E8
:10469000E754FE4F008110E00057110940039001DC
:1046A000419F300D11242A0F3B1F37FF02C02158B4
:1046B0003F4F220F232F221F330B620F1F910F91A9
:1046C0000895EF920F931F9393E0099F80011124A7
:1046D000159507956E2D600F1F910F91EF9008951E
:1046E000A22F50E0FA01EE0FFF1FE654FE4F90811B
:1046F000905297FD9195440F551FFA01E754FE4FD4
:104700003081232F30E02A1B3109290F311D97FDFD
:104710003A95620F0895E42FF0E0EE0FFF1FE65484
:10472000FE4F6081621B0895E42FF0E0EE0FFF1F43
:10473000E754FE4F6081621B0895622F0895E42FB5
:10474000F0E0EE0FFF1FE754FE4F408134EE439F31
:10475000412D1124E82FF0E050E0445E5F4FDA0174
:10476000A21BB1099D01B7FF03C031952195310905
:1047700093E0220F331F9A95E1F7AF01421B530BD1
:104780009A0157FF02C020E030E0582F259F212DCD
:104790001124822F0895E42FF0E0EE0FFF1FE7545D
:1047A000FE4F408134EE439F412D1124E72FF0E06E
:1047B00050E0445E5F4FDA01A21BB1099D01B7FFD3
:1047C00003C031952195310993E0220F331F9A954B
:1047D000E1F7AF01421B530B9A0157FF02C020E0E3
:1047E00030E0279F212D1124722F0895FC019B0199
:1047F000009721F477FF2BC080E80895AC0197FF64
:1048000004C044275527481B590BB901640F751F75
:1048100037FD0CC0241B350BC901A5E0880F991F7B
:10482000AA95E1F70E94653580E20CC0CB0165E0F6
:10483000880F991F6A95E1F7BA01621B730B0E94FA
:10484000653580E6861BF7FF03C08195089580E0FB
:104850000895EF920F93CF93DF93D72FC82FC901FD
:104860000E19BA010E94F623602F681B7D2F8C2F32
:10487000DF91CF910F91EF9008950F93CF93DF9336
:10488000D72FC82FC901BA010E94F623682F600FE5
:104890007D2F8C2FDF91CF910F910895EF920F9381
:1048A0001F93CF93DF93D62FC72F182FC9010E194F
:1048B000010FBA010E94F623081B202F219F212DF2
:1048C0001124822F6D2F7C2FDF91CF911F910F919B
:1048D000EF900895EF920F931F93CF93DF93D62F0E
:1048E000172FC82FC9010E19070FBA010E94F6230E
:1048F000702F781B719F712D11246D2F8C2FDF91DC
:10490000CF911F910F91EF900895FF920F931F93F6
:10491000CF93DF93F62ED72F182FC901C12FC01BBD
:10492000BA010E94F623982F990F890FC81B2C2FCC
:10493000219F212D1124822F6F2D7D2FCDB7DEB722
:10494000E5E00C943D34FF920F931F93CF93DF93D8
:10495000F62E172FD82FC901C72FC01BBA010E94EE
:10496000F623982F990F890F7C2F781B719F712D3B
:1049700011246F2D8D2FCDB7DEB7E5E00C943D34BB
:104980000E94623008950E94853008952EE0829F33
:10499000C0011124FC01ED58FE4FE60FF11D80818E
:1049A0008F3F21F0FA01808381E0089580E008952F
:1049B000E8EFF3E085E380838091190190911A017B
:1049C000A0911B0181839283A3838FE784838FEF60
:1049D000858346E050E06CE170E0CF010E94CE3468
:1049E00010928B040895482F982F46FD9095E92F3B
:1049F000EF739F7046FD9F5FE295EF70EE0FF0E062
:104A0000EE57FD4F2181299F802D212D1124829564
:104A10008F702295207F822B3081982F930F892FC2
:104A200047FD8195805808950F931F93CF93DF938F
:104A3000D62F072F182FC42F822F0E94F324EC2F7C
:104A4000F0E0EE0FFF1FE754FE4F90819058890F62
:104A500087FD8195880F682F2CE0629F612D1124BE
:104A60006D0F702F812FDF91CF911F910F910895BE
:104A7000409114015091150125E038E0429FC0019A
:104A8000439F900D529F900D1124875E994C9093F7
:104A9000150180931401890F0895BC01823091059E
:104AA00008F40895613E8EE1780748F49B0195E093
:104AB000369527959A95E1F748E0420F01C04FEFF0
:104AC00091E0242F30E0290F311D35952795229F45
:104AD000F001239FF00DF00D11246E177F0718F4DD
:104AE0004FEF420F04C02F3F39F091E0920F49176A
:104AF00040F78FEF890F08958FEF08950F93CF93AD
:104B0000DF93D72FC82F47FD4195E8E3F0E0CF01B1
:104B1000841B910947FD9395889FB001899F700D73
:104B2000700D1124229FC001239F900D900D112420
:104B3000860F971F0E944D25682F660F860F682FDE
:104B4000600F7D2F8C2FDF91CF910F91089520E082
:104B500030E0869F212D969F200D311D1124C90123
:104B60000895A0E0B0E0E7EBF5E20C941E34F62ED9
:104B7000472FE82FF0E0711106C0E359FC4F8491F4
:104B8000782F682F73C0272F30E0E359FC4FE49152
:104B9000FE2F0E2F10E056E0659FC0011124CFEFCD
:104BA000D0E0BE010E9400345BEA5603C001579F6B
:104BB000900D11248F0D911D8F0D911D982F990F20
:104BC000980F7E01E21AF30AE09ED001E19EB00D3B
:104BD000F09EB00D11248B2F499FA0011124452F69
:104BE00055277E01E41AF50AE09EA001E19E500DD2
:104BF000F09E500D11246E01C91AD108C29E700199
:104C0000C39EF00CD29EF00C11242F2D3327C21B13
:104C1000D30BC09F9001C19F300DD09F300D112448
:104C2000932F6230710591F048F461157105E1F040
:104C300061307105B9F49E2FE52F16C064307105FF
:104C400069F040F06630710579F00CC09E2FEB2FB3
:104C5000832F0AC0EB2F8F2F952F06C09B2F8E2FEF
:104C6000E32F02C09B2F852F7E2F692FCDB7DEB794
:104C7000E8E00C943A34803F39F49091460497FF71
:104C800035C01092460459C0813F29F490914604E2
:104C90001916BCF32BC090914504823F29F497FF6D
:104CA00025C01092450449C0833F19F41916CCF36E
:104CB0001DC090914704893F29F41916BCF4109245
:104CC00047043BC08A3F19F497FF10C0F8CF8B3FD1
:104CD00039F49091480497FF09C0109248042DC000
:104CE0008C3F21F4909148041916BCF39CE0980F76
:104CF000953080F421E030E0A90102C0440F551F37
:104D00009A95E2F7CA018095909144048923809393
:104D1000440413C08D3F21F480913E048E7F0BC06C
:104D20008E3F21F480913E048D7F05C08F3F29F492
:104D300080913E048B7F80933E04809145048111D5
:104D400006C080914604811102C010923D048091FA
:104D50004704811106C080914804811102C010925D
:104D60003C04089580913E0480FD16C081FD16C06C
:104D700082FD18C080913C04882391F0883290F421
:104D800028E0829FC001112468E270E00E9465352E
:104D9000862F672B29F007C082E0089584E00895EC
:104DA00081E0089588E0089580913E0480FD14C05C
:104DB00081FD14C082FD16C080913D04882381F0DE
:104DC0008E3180F420E5829FC00111246EE170E0F5
:104DD0000E946535862F089584E1089588E208953C
:104DE00088E0089580E50895803F21F40E94D4264C
:104DF000819504C0813F29F40E94D4268093460403
:104E00000895823F21F40E94D426819504C0833FF7
:104E100029F40E94D426809345040895893F19F40B
:104E20000E94B22605C08A3F31F40E94B2268195C5
:104E30008093470408958B3F21F40E94B226819508
:104E400004C08C3F29F40E94B22680934804089540
:104E50009CE0980F953078F421E030E0A90102C081
:104E6000440F551F9A95E2F7CA0190914404892B8B
:104E70008093440408958D3F21F480913E04816025
:104E80000BC08E3F21F480913E04826005C08F3FAD
:104E900029F480913E04846080933E0408950E942A
:104EA000F02A20914504211104C0209146042223B8
:104EB00021F09093420480934104209147042111F2
:104EC00004C020914804222321F090934004809351
:104ED0003F04E0914E04F0914F04309749F082E096
:104EE000809343040480F581E02D83E494E00995E8
:104EF000089508958091C70308958093590470938D
:104F00005B0460935A048091EA038430F9F480933F
:104F1000E9008FEF9091E800815095FD06C095ED76
:104F20009A95F1F700008111F5CF8091E80085FF97
:104F30000DC040E050E063E070E089E594E00E943D
:104F4000FF1E8091E8008E778093E8000895BC01F1
:104F500084E00E947D270895BC0183E00E947D27A4
:104F6000089524E02093E9002FEF3091E8002150CC
:104F700035FD06C035ED3A95F1F700002111F5CF6A
:104F80002091E80025FF0BC040E050E066E070E0B3
:104F90000E94FF1E8091E8008E778093E8000895BC
:104FA000CF93DF9320911001222339F020915704F1
:104FB00027FF03C060E224E002C068E021E0209304
:104FC000E9002FEF3091E800215035FD06C035EDA6
:104FD0003A95F1F700002111F5CF2091E80025FF67
:104FE0001DC0EC0180911001811105C040E050E02E
:104FF00068E070E003C070E040E050E0CE010E9445
:10500000FF1E8091E8008E778093E80080E2FE0129
:10501000A8ECB3E001900D928A95E1F7DF91CF9172
:1050200008951F920F920FB60F9211242F933F9362
:105030004F935F936F937F938F939F93AF93BF93A0
:10504000CF93DF93EF93FF93C091E900CF708091EE
:10505000EC00D82FD17080FDD0E81092E90080914B
:10506000F000877F8093F00078940E94291F1092AF
:10507000E9008091F00088608093F000CD2BCF7024
:10508000C093E900FF91EF91DF91CF91BF91AF9174
:105090009F918F917F916F915F914F913F912F9150
:1050A0000F900FBE0F901F901895E8EDF0E08081F3
:1050B0008E7F80831092E2001092DA001092E1005D
:1050C000A0EEB0E08C9181608C9380818F7780839B
:1050D00019BCA7EDB0E08C918E7F8C9380818F7E80
:1050E000808310925C0408952091E4003091E500E3
:1050F00095E64091EC00842F817040FF23C08091A1
:10510000E80080FD1DC08091EA03882399F0853076
:1051100099F08091EB0085FD11C04091E400509121
:10512000E5002417350729F3915011F09A01E1CFDA
:1051300084E0089582E0089583E0089581E0089571
:1051400080E008954091E80042FFDDCF089580910E
:10515000EC0387FF11C08091E80082FD05C08091BB
:10516000EA038111F8CF11C08091E8008B770BC062
:105170008091EA03882349F08091E80080FFF8CF0E
:105180008091E8008E778093E8000895982F9730FB
:1051900068F59093E900981739F07091EC00209130
:1051A000ED005091F00003C0242F762F50E021FD38
:1051B00002C09F5FECCF3091EB003E7F3093EB005D
:1051C0003091ED003D7F3093ED003091EB00316088
:1051D0003093EB007093EC002093ED005093F000BF
:1051E0002091EE0027FDE5CF80E008958F70809339
:1051F000E90081E00895A0E0B0E0E1E0F9E20C947C
:105200001E34C8EDD0E088818F7E8883E7EDF0E022
:1052100080818160808384E082BF81E080935C0430
:1052200088818E7F888302EE10E0F8011082109250
:10523000DA0081EEC82ED12CF601108288818F779A
:10524000888388818068888388818F7D888319BC62
:105250001092EA031092EB031092E9031092E80314
:1052600090EEE92EF12CF70180818B7F808388817D
:105270008160888342E060E080E00E94C628F601F9
:1052800080818E7F8083F80180818160808380812E
:1052900088608083F70180818E7F80838881806130
:1052A0008883CDB7DEB7E8E00C943A341F920F92B2
:1052B0000FB60F9211242F933F934F935F936F93E9
:1052C0007F938F939F93AF93BF93EF93FF938091BF
:1052D000E10082FF09C08091E20082FF05C0809159
:1052E000E1008B7F8093E1008091DA0080FF2AC08B
:1052F0008091D80080FF26C08091DA008E7F809355
:10530000DA008091D90080FF18C080E189BD82E178
:1053100089BD09B400FEFDCF81E08093EA0380914E
:105320005C0481110FC00E9455280E94FB288091C7
:10533000E20084608093E20005C019BC1092EA0389
:1053400010925C048091E10080FF17C08091E20020
:1053500080FF13C08091E2008E7F8093E2008091F5
:10536000E20080618093E2008091D80080628093A7
:10537000D80019BC85E08093EA038091E10084FFA6
:1053800030C08091E20084FF2CC080E189BD82E1C1
:1053900089BD09B400FEFDCF8091D8008F7D809338
:1053A000D8008091E1008F7E8093E1008091E2003F
:1053B0008F7E8093E2008091E20081608093E20022
:1053C0008091EB03882311F084E007C08091E30013
:1053D00087FD02C081E001C083E08093EA038091F1
:1053E000EA038091E10083FF27C08091E20083FF00
:1053F00023C08091E100877F8093E10082E0809369
:10540000EA031092EB038091E1008E7F8093E1002C
:105410008091E2008E7F8093E2008091E2008061C3
:105420008093E20042E060E080E00E94C628809124
:10543000F00088608093F000FF91EF91BF91AF91F1
:105440009F918F917F916F915F914F913F912F919C
:105450000F900FBE0F901F9018952091F20330917E
:10546000F3032617370748F06115710539F42091C9
:10547000E8002E772093E80001C0B901FC0120E08C
:105480006115710579F18091EA038823F1F1853086
:10549000F1F18091E80083FD3CC08091E80082FD3D
:1054A0002EC08091E80080FFEBCF2091F300809127
:1054B000F20090E0922B6115710551F08830910552
:1054C00038F421912093F100615071090196F3CFD6
:1054D00021E0089709F020E08091E8008E77809322
:1054E000E800CECF2111CFCF0AC08091EA038823F4
:1054F00061F0853061F08091E80083FD0AC0809101
:10550000E80082FFF2CF80E0089582E0089583E012
:10551000089581E0089581E08093E00080E2809327
:10552000D8001092C9008FE19EE40197F1F700C006
:10553000000087E090EBDC01809393059093940545
:10554000A0939505B09396059CE088E10FB6F8947A
:10555000A895809360000FBE90936000FFCF789471
:105560001F920F920FB60F9211248F939F93AF93B8
:10557000BF938091530490915404A0915504B0912D
:1055800056040196A11DB11D8093530490935404B9
:10559000A0935504B0935604BF91AF919F918F9102
:1055A0000F900FBE0F901F9018959C014FB7F89465
:1055B0008091530490915404A0915504B0915604E5
:1055C0004FBF821B930B08952FB7F894609153043B
:1055D0007091540480915504909156042FBF089502
:1055E0002FB7F8948091530490915404A0915504DE
:1055F000B09156042FBF08951F920F920FB60F92CD
:1056000011248F939F93AF93BF9380915204811184
:1056100013C08091530490915404A0915504B0910B
:1056200056044196A11DB11D8093530490935404D8
:10563000A0935504B0935604BF91AF919F918F9161
:105640000F900FBE0F901F901895209110012223EC
:10565000C9F02091570427FF15C0262F26952695BF
:1056600026952E31C8F4FC01E20FF11D677081E030
:1056700090E001C0880F6A95EAF7809592818923AE
:1056800082830895FC0106962281621301C0128272
:105690003196E817F907C1F70895209110012223E8
:1056A000C1F02091570427FF14C0262F2695269578
:1056B00026952E3130F5FC01E20FF11D677081E077
:1056C00090E001C0880F6A95EAF79281892B828366
:1056D0000895FC0132962FEF30E04191641789F074
:1056E0002F3F19F4411101C0232F3F5F3630A9F736
:1056F0002F3F39F0FC01E20FF11D27FDFA9562837F
:1057000008950895209150043091510428173907C5
:1057100071F09093510480935004E0914E04F09105
:105720004F04309721F00084F185E02D099508950C
:1057300020914C0430914D042817390771F0909353
:105740004D0480934C04E0914E04F0914F04309747
:1057500021F00680F781E02D09950895E0914E042F
:10576000F0914F04309729F00190F081E02D0995D8
:10577000089580E008950F931F93CF93DF93C42F74
:10578000D22FFC0182818823B1F040934B040E9408
:10579000F02A90934A048093490480E28C0F883069
:1057A00008F04DC0C77081E001C0880FCA95EAF7C4
:1057B0000E945F3244C080914B04481330C08091F6
:1057C000490490914A040E94D52A883C910538F5F5
:1057D00010E21D0FCD17B9F080E28C0F883040F435
:1057E000C77081E001C0880FCA95EAF70E9458325D
:1057F000183010F581E09D2F977001C0880F9A95A1
:10580000EAF70E945F32802F0E9415331830B8F4F7
:10581000D77081E001C0880FDA95EAF70AC080E20C
:105820008C0F883060F4C77081E001C0880FCA9582
:10583000EAF70E94583203C0802F0E941533DF918F
:10584000CF911F910F910895CF93DF93C7E5D2E0D9
:1058500060E0CE010E94DE342196C11584E0D807B5
:10586000B9F7DF91CF910895843048F4753038F45A
:105870006E3028F4462F672F0E94BA2C089580E0DE
:1058800090E00895A0E0B0E0E8E4FCE20C941C3461
:10589000A12CE12CF12CB12C00E010E0C0E0D0E014
:1058A0006701C00ED11EFE01EE0FFF1FEC0DFD1DA6
:1058B000E359FB4F259134914C2F6B2D8A2D0E947B
:1058C000932C2196CE30D10571F7045E1F4FB3940F
:1058D00085E0B812E3CF8CE8E80EF11CA39484E0D5
:1058E000A812D9CFCDB7DEB7EAE00C943834E8EF90
:1058F000F3E0248130E1231B08F420E0248380912D
:105900008B04816080938B040895E8EFF3E0248199
:1059100030E1230F08F42FEF248380918B04816002
:1059200080938B0408951F93CF93DF93962F843039
:10593000E8F46530D8F44E30C8F4632F122FC42F2A
:10594000D0E0CC0FDD1F2CE1929FC00DD11D1124A2
:105950009CE8899FC00DD11D1124CE0187960E941D
:10596000DE34612FCE0188960E94DE34DF91CF9124
:105970001F9108950F931F93CF93DF93843008F501
:105980006530F8F44E30E8F4C42FD0E0CC0FDD1FC2
:105990002CE1629FC00DD11D11243CE8839FC00DF6
:1059A000D11D1124CE0187960E94C03490E0182F9B
:1059B0000027CE0188960E94C0349801282BC90187
:1059C00002C080E090E0DF91CF911F910F91089588
:1059D00086E290E00E94DE340895CF93C82F8111B3
:1059E00002C06FEF01C062E283E290E00E94DE3409
:1059F000C11102C06FEF01C067E084E290E00E9435
:105A0000DE34C11102C06FEF01C064E185E290E0B5
:105A10000E94DE34CF91089580E00E94ED2C60E07A
:105A200070E0CB010E94E82C0E94422C0E94242CA2
:105A300081E00E94ED2C089583E290E00E94C03442
:105A4000823281F484E290E00E94C034873051F4C5
:105A500085E290E00E94C03491E0843109F090E04A
:105A6000892F01C080E081700895882311F0FA0128
:105A700001C0FB01099508951F93CF93DF93FC01AB
:105A8000E15CFD4F20816223B9F0EC010E94973464
:105A9000182F0E9497348F77782F20E8720F08F420
:105AA0007FEF612F8091FB030E94B125462F282FA5
:105AB000672FCE010E94C324DF91CF911F910895DB
:105AC000A0E0B0E0E6E6FDE20C941F34EC01FC013E
:105AD000E15CFD4F9081692349F1D090FA03009178
