:100000000C948F030C94C7030C94C7030C94C70380
:100010000C94C7030C94C7030C94C7030C94C70338
:100020000C94C7030C94C7030C9445280C94002728
:100030000C94EB290C94C7030C94C7030C94C703CE
:100040000C94C7030C94C7030C94C7030C94C70308
:100050000C94C7030C949E290C94C7030C94C703FB
:100060000C94C7030C94C7030C94C7030C94C703E8
:100070000C94C7030C94C7030C94C7030C94C703D8
:100080000C94C7030C94C7030C94C7030C94C703C8
:100090000C94C7030C94C7030C94C7030C94C703B8
:1000A0000C94C7030C94C7030C94C703320832089E
:1000B00065086508D808F608040A040A01097509E4
:1000C000860986091D0E200E3F0E4C0E530E5E0E45
:1000D000610EA40ECF0E750F750FDA0EDC0EE10E59
:1000E000070F2A0F2D0F300F540FBB10D510001122
:1000F0003C117711B611FA11FD1102120512081206
:100100000B120E121112141217121A121D122012B3
:1001100025122A122D12301235127912BD12051332
:1001200008130B1376135B141E15211526153115B4
:1001300034153F1542154D1550155B155E156915A3
:10014000FA1E211FCA20211FCA206D1F901FCA201E
:100150008520952000000000000000000000000045
:10016000000000000000000000000000000000008F
:1001700000000000000000007E0F00D4FFFFFFC75A
:100180000000007800000000000000002A2B28007A
:100190000000000000000000000000000000002936
:1001A000000000002C1E3420212224342627252E76
:1001B000362D3738271E1F202122232425263333AE
:1001C000362E37381F0405060708090A0B0C0D0EDA
:1001D0000F101112131415161718191A1B1C1D2FA6
:1001E0003130232D350405060708090A0B0C0D0EC6
:1001F0000F101112131415161718191A1B1C1D2F86
:100200003130354C05010902A10185020901A10027
:1002100005091901290815002501950875018102B4
:100220000501093009311581257F95027508810680
:1002300009381581257F950175088106050C0A3856
:10024000021581257F950175088106C0C005010949
:1002500080A101850319012AB700150126B7009571
:100260000175108100C0050C0901A1018504190167
:100270002AA002150126A002950175108100C00573
:10028000010906A1018506050719E029E7150025E2
:10029000019508750181020507190029EF15002550
:1002A0000195F0750181020508190129059505756B
:1002B000019102950175039101C00660FF0961A1DA
:1002C000010962150026FF00952075088102096367
:1002D000150026FF00952075089102C0050109064A
:1002E000A101050719E029E7150025019508750109
:1002F00081029501750881010507190029FF150084
:1003000026FF009506750881000508190129059545
:100310000575019102950175039101C009025B0009
:10032000030100A0FA0904000001030101000921F2
:1003300011010001224000070581030800010904A2
:100340000100020300000009211101000122220026
:1003500007058203200001070503032000010904AB
:100360000200010300000009211101000122B60072
:10037000070584032000011201000200000008505C
:100380004B53060100010200011C0342004D0036E0
:10039000003500480053005200470042005F00490A
:1003A0000053004F00000018034B00500020005283
:1003B0000065007000750062006C00690063000059
:1003C000000403090400010101010101010101020E
:1003D00002020202020202020303030303030303F5
:1003E00004040404040404050505050506060606C0
:1003F00006070707070708080808090909090A0A7C
:100400000A0B0B0B0C0C0C0D0D0D0E0E0E0F0F0F1F
:1004100010101111111212131314141515161617AA
:1004200017181819191A1A1B1B1C1D1D1E1E1F2018
:1004300020212222232424252626272829292A2B65
:100440002C2D2D2E2F30313232333435363738398A
:100450003A3B3C3D3E3F4041424344454647484984
:100460004A4C4D4E4F50515354555658595A5B5D56
:100470005E5F616264656668696B6C6D6F707273F4
:100480007577787A7B7D7E8082838587888A8C8E5B
:100490008F91939596989A9C9EA0A2A3A5A7A9AB8D
:1004A000ADAFB1B3B5B7BABCBEC0C2C4C6C9CBCD7F
:1004B000CFD1D4D6D8DBDDDFE2E4E7E9EBEEF0F331
:1004C000F5F8FAFDFF165C1E001F00200021002237
:1004D00000230024002500260027002D002E002ADE
:1004E000004C002B0014001A000800150017001C17
:1004F0000018000C00120013002F00300028004AE2
:10050000003900000004001600070009000A000B73
:10051000000D000E000F003300340032004B00E1EC
:100520000064001D001B00060019000500110010EA
:1005300000360037003800E50052004E00E000E3CE
:1005400000E2000000000000002C0000000000E6B7
:100550000001510000500051004F00005C3A003B88
:10056000003C003D003E003F00400041004200438F
:100570000044004500010001000100C25CC35CC5ED
:100580005CC65CC75CC85CC95CCA5C010001000158
:100590000001000100010001000000010001000154
:1005A0000001000100010001000100010001000143
:1005B0000001000100010001000100010001000133
:1005C0000001000100010001000100010001000123
:1005D0000001000100010001000000000000000116
:1005E0000000000000010001000000010001000106
:1005F00000010001000100010001000100010001F3
:1006000000010001000100010001000100010001E2
:1006100000010001000100010001000100010001D2
:1006200000010001000100010001000100010000C3
:1006300000010001000100010001000100010001B2
:1006400000010001000100010001000100010001A2
:100650000001000100010001000100010001000192
:100660000001000100010001000100010001000083
:100670000000000000010000000000010001000077
:100680000001000100010001000100010001000162
:100690000001000100010001000100010001000152
:1006A0000001000100010001000100010001000142
:1006B0000001000100010001000100010001000132
:1006C0000001000100000001000100010001000123
:1006D0000001000100010001000100010001000112
:1006E0000001000100010001000100010001000102
:1006F00000010001000100010001000100010001F2
:1007000000010001000000000000000100000000E6
:10071000000100010000000100010001000011249F
:100720001FBECFEFDAE0DEBFCDBF04B603FE18C0B8
:1007300080912B0690912C06A0912D06B0912E064B
:100740008730904BA740B04B59F410922B06109273
:100750002C0610922D0610922E06E0E0F8E3099583
:1007600012E0A0E0B1E0EEEAF1E602C005900D92E1
:10077000A63AB107D9F726E0A6EAB2E001C01D9279
:10078000AB32B207E1F70E94B40A0C94D5300C9456
:1007900000000E94502E2FEF84E39CE02150804007
:1007A0009040E1F700C000009CE088E10FB6F894AB
:1007B000A895809360000FBE90936000FFCFA7E1E3
:1007C000B0E0E5EEF3E00C9497304B8B5C8B6D8BD7
:1007D0007E8B8F8B61111092A40486E09E01235FB3
:1007E0003F4FD901E82F1D92EA95E9F795E0FE0108
:1007F0007396D90101900D929A95E1F79C894E89E3
:100800005F897B897D879E876F87598B488BF9012C
:10081000DE01179601900D928A95E1F7CE010796B9
:100820000E94DB1981113EC086E0FE013796DE0191
:10083000119601900D928A95E1F7FF81E8856A850E
:100840007B856115710531F0EF3F31F481E0FF3FA9
:1008500019F403C081E001C080E080FD23C0209135
:10086000510430E0C90101968770992740918204B4
:1008700050E08417950779F1F983EA837D836C83CF
:1008800096E0929FD001939FB00D1124AE5ABB4FBA
:10089000FE01319601900D929A95E1F780935104F3
:1008A0000E945B1916E0809182049091510489178F
:1008B000F9F0189FC00111248E5A9B4F0E94DB193A
:1008C0008823B1F08091820490E001968770992787
:1008D00080938204E8CF0E94502E1092510410920F
:1008E0008204EBE4F4E086E0DF011D928A95E9F7EB
:1008F0006796E3E00C94B330A9E0B0E0E2E8F4E0FE
:100900000C948930FC018081918123813481232BD7
:1009100031F09F3F31F491E08F3F19F403C091E033
:1009200001C090E090FD1CC67F0185E0DE011196BC
:1009300001900D928A95E1F7F701228189819A81D0
:10094000222349F00E94752D182F682F89819A81E2
:100950000E94D82D03C00E94A42D182F69817A818E
:10096000812F0E94232B8C01F7018281882309F4B7
:10097000F5C0980122513F452031310508F00AC1E8
:100980008FEF93E00E94AE2F8111F2C002513FE73A
:10099000832E32E0932E002379F08114F4E09F0639
:1009A00009F4E6C0C4010E94AE2F811101C00150BC
:1009B0002FEF821A920AEFCF1E821F8218861986A5
:1009C000442443942AE0322E84010F5F1F4FC40158
:1009D0000E94AE2F8E831F82882309F4C9C09FEF27
:1009E000980F933060F48F834E8232E0830E911C17
:1009F000C8010E94AE2F8887811102C0B9C048018A
:100A00008E010A5F1F4FF80120812223E9F2213075
:100A100009F04CC08181813049F46801F2E0CF0EC9
:100A2000D11CF80182810E94232F0AC0823051F428
:100A30006801F2E0CF0ED11CF80182810E94AC2E39
:100A4000860189C0833049F46801F2E0CF0ED11CE1
:100A5000F80182810E94772EF3CF843019F00F5F66
:100A60001F4F79C0F80122810E5F1F4F80E090E098
:100A700030E0205331092A30310568F4389EA00156
:100A8000399E500D1124C901840F951F0F5F1F4F10
:100A9000F8012081EDCF009709F45DC0EFE9FFE098
:100AA0003197F1F700C000000197F5CFE22FF0E099
:100AB000EC57FE4F5490822F86958695869590E050
:100AC000FC01EC58FE4F64902770712C022E02C07E
:100AD000759467940A94E2F7F1E06F227724FC01A1
:100AE000EC59FE4FA490B12C022E02C0B594A794ED
:100AF0000A94E2F731E0A322BB24FC01EC5AFE4F3A
:100B0000C490D12C02C0D594C7942A95E2F781E015
:100B1000C822DD246114710419F081EE0E94AC2E0C
:100B2000A114B10419F086EE0E94AC2E852D0E940E
:100B3000232FA114B10419F086EE0E94772E6114C0
:100B4000710419F081EE0E94772EC114D10419F0BE
:100B50008CE20E94232F0F5F1F4F55CF00313FE5DE
:100B6000130709F070C481E00E94122E0E94621BDC
:100B700080918304877009F4F3C4F701828188238C
:100B800009F4EEC48091290582FFEAC482E00E9444
:100B90002919E6C40031FFE51F0711F481E005C003
:100BA00001312FE5120721F482E00E941F2EDECFD3
:100BB000033FFCE51F0749F406E221EE40EE63EF38
:100BC0007CE5C7010E94AA2AD3CF043F2CE5120777
:100BD00008F062C1083D3CE5130731F407E225EE59
:100BE00045EE68ED7CE5EDCF093D9CE5190731F454
:100BF00008E221E045EE69ED7CE5E3CF073DECE559
:100C00001E0731F406E221EE41EE67ED7CE5D9CF17
:100C1000882309F476C110921C0503309DE519075D
:100C200058F40A3FECE51E0780F4C80182509C4549
:100C3000449708F050C109C00136FDE51F0729F0AF
:100C4000053A2DE5120709F046C10E943F1890931E
:100C500029058093280501313CE5130709F4C9C033
:100C600008F043C009309CE5190709F49EC008F557
:100C70000530FCE51F0709F488C080F403303CE52B
:100C8000130709F47BC008F07DC002309CE519070A
:100C900009F0F9C0809128058160F3C00730ECE5C8
:100CA0001E0709F47AC008F07CC080912805806195
:100CB000E8C00D302CE5120709F489C058F40B3058
:100CC0008CE5180709F47BC008F07DC080912805E9
:100CD000886071C00F30ECE51E0709F482C008F08F
:100CE00084C080912805877FCCC00D3F2CE512077A
:100CF00009F473C008F505318CE5180709F487C0BD
:100D000068F40331ECE51E0709F477C008F097C0DA
:100D10000E94502E809128058F77B3C00B3F2CE5A1
:100D20001207B9F108F056C00A3F8CE5180709F020
:100D3000AAC08091290541C001309DE5190709F439
:100D40008AC058F40F3FFCE51F0709F45BC008F0A8
:100D50006AC080912905826030C001363DE51307E5
:100D600009F47FC0053A8DE5180709F484C0023004
:100D70009DE5190709F087C060E06EC080912805E5
:100D800082607FC08091280516C080912805886008
:100D900078C08091290582604FC0809128058062CB
:100DA00070C08091280580646CC00E94502E809194
:100DB0002805806866C0846064C081603DC0809101
:100DC00028058E7F5EC0809128058D7F5AC0809156
:100DD000280516C08091290518C0809129058D7FAE
:100DE0002BC0809128058F7E4CC0809128058F7D77
:100DF00048C0809128058F7B44C080912805877F5B
:100E00008B7F3FC0809129058D7F8E7F15C080919B
:100E1000280582FB222720F991E0922790FB82F996
:100E200090FB83F92EC080912905982F90959170A1
:100E30008E7F892B90FB81F98093290524C00E9425
:100E4000502E8091280587FB222720F991E09227D8
:100E500090FB87F916C061E08EE090E00E94CC2FF5
:100E600012C08091280584FB222720F991E0922767
:100E700090FB84F906C080912805982F909590FBEF
:100E800080F98093280580912805909129050E947A
:100E900031180E94502E6CCE053FFCE51F0731F43F
:100EA00006E221EE42EE65EF7CE58BCE053F2CE5B8
:100EB000120730F407E225EE44EE64EF7CE581CEC4
:100EC000063F3CE5130709F0A3CE07E225EE46EE08
:100ED00066EF7CE576CE06318CE5180721F580912A
:100EE000A5048A7A91E009F490E09093A8028823FF
:100EF00011F065E301C069E28BE294E00E943C2AB4
:100F00000FC00631ECE51E0709F044C08091A8022D
:100F1000882309F49FC265E38BE294E00E94142ABF
:100F20000E94D41825CE0A359DE5190769F158F4B9
:100F30000115FCE51F0781F00E3D1C4509F045C079
:100F40000E945C1817C00C353DE51307A9F0F0F0BE
:100F5000073A1D4579F039C00E94502EEFEFF4E3B7
:100F60002CE0E150F0402040E1F700C000000E947A
:100F70007A29FECD0E94C9038091290582FB88272A
:100F800080F991E0892703C081E001C080E00E94E0
:100F900046191BC08091A50482720A3CECE51E072D
:100FA00009F4C5C208F458C20F3CFCE51F0709F458
:100FB000D2C208F484C2063D2CE5120708F491C29F
:100FC0000D358DE5180709F4D3CDF7018281008135
:100FD0001181882349F0C8010E94752DD82E682FF1
:100FE000C8010E94D82D04C0C8010E94A42DD82E8B
:100FF000B8018D2D0E94232B0E949716B82E192F11
:10100000982EF7010281A580A2949FE0A9228091E9
:1010100083048770B9F00023A9F0812F807F80348A
:1010200021F080E28B0D883068F08091290582FFE5
:1010300009C082E00E942919809183048770DD2411
:10104000D3948111D12CC12EC2948FE0C8228C2D53
:1010500090E08C30910508F0D7C1FC01EA5AFF4FAF
:101060000C947B30812F807F1F70882311F01295A4
:10107000107F0023B9F0112309F4B4C180E28B0D75
:10108000883010F0911006C08091A504182B1093A1
:10109000A50405C08091A404182B1093A4040E94F9
:1010A000D418A0C18B2D0E94772E112309F4ACC156
:1010B00080E28B0D883080F1992071F1109580913C
:1010C000A40418231093A4042AC0812F807F1F70CA
:1010D000803211F01295107F8B2D992021F0F1E0D4
:1010E0009F16D9F149C08091290582FD1BC00023BC
:1010F00069F0112339F08091A504182B1093A504F1
:101100000E94D41880E00E94AC2E7EC180E00E9434
:10111000772E112309F478C1812F0E94CD180E94E7
:10112000D41872C1002381F08091A604AA2051F046
:1011300021E0A21207C0182B181709F465C11093FB
:10114000A60462C1812B10C0AA2021F031E0A316B1
:1011500009F45AC10E94C71827C0002341F085E056
:101160008A1508F451C1812F0E946D2E4DC194E063
:101170009A1508F449C118C0002349F0AA2099F330
:10118000F701858180FF2EC18F708583ECCFAA2067
:1011900059F0893309F035C1FFEF27EE33E0F15004
:1011A00020403040E1F72BC1812F0E94662E2CC1D8
:1011B000812F86958695837019F0813061F024C166
:1011C000002321F08B2D912F937002C080E090E0DE
:1011D0000E94872A1FC1002321F08B2D912F93702D
:1011E00002C080E090E00E94712A14C18B2D002380
:1011F00019F00E940D2602C00E9454250E942A2543
:1012000009C1812F8370A9F5011102C14B2D4295AF
:1012100046954770440F440F8B2D8F7090E09C01D2
:10122000042E01C0220F0A94EAF7B4FE08C08FE032
:1012300090E001C0880F4A95EAF7809501C080E0F0
:10124000169516951370123069F088F49091A704E2
:10125000113019F0822B892302C0922B892B0E9416
:101260002B2ED6C0822B9091A7048927F8CF822BF2
:10127000F6CF002319F0812F817001C08695882355
:1012800009F4C6C04B2D429546954770440F440F54
:101290008B2D8F7090E09C01042E01C0220F0A94C8
:1012A000EAF7B4FE08C08FE090E001C0880F4A95CD
:1012B000EAF7809501C080E01695169513701230FC
:1012C00059F078F490910C05113019F0822B892394
:1012D00009C0922B892B06C0822B90910C0589277F
:1012E00001C0822B0E940D2E93C01F70002339F085
:1012F000812F0E941F2E8B2D0E946D2E89C08B2D59
:101300000E94662E812F0E94122E82C08B2D92EF9A
:10131000991681F1991538F0E0EF9E1659F0F1EF2A
:101320009F1619F15BC023EF921659F134EF931613
:10133000C1F054C0002381F084E08A1508F464C031
:101340001F7181E090E0012E01C0880F0A94EAF736
:1013500090910C05892720C095E09A1508F454C097
:10136000EFCF8091290582FD1AC0002329F0812F3B
:101370008F7127C00023D9F3812F8F710E94122E05
:1013800043C0002341F01F7181E0012E01C0880F8E
:101390000A94EAF701C080E00E940D2E35C00023B8
:1013A00099F01F71812F0E941F2E8091290582FFC5
:1013B00007C0E8E01E9FC00111248360809383046E
:1013C000812F0E941F2E20C081E00E942919F1E088
:1013D000FA15D0F482E00E94291916C0002321F0EA
:1013E000AA2029F28B2D8FCEAA2031F2893349F41D
:1013F0002FEF37EE83E0215030408040E1F700C00E
:1014000000008B2D0E94772E88EF8C0D843010F415
:101410000E949D2ADD2009F4A3C08091830480FDF1
:101420009FC0F70112828595859585950E941F2E94
:10143000C7010E947C0480918304859585958595DC
:101440000E94122E8DC001319FE5190709F0B0CB23
:1014500082E08ACB69E260CD053C2CE5120709F4F5
:1014600052C0D0F4033C9CE5190709F442C008F0CF
:1014700045C0023CFCE51F0709F0A7CD9091DD04B3
:1014800081E089278093DD041092180180912E0558
:10149000816080932E056CCB073C2CE51207E9F1A7
:1014A000B8F1083C9CE51907E9F1093CECE51E0799
:1014B00009F08BCD4BED5CE269EE7CE246C00C3C62
:1014C0003CE51307F1F1C0F10D3CECE51E0709F412
:1014D0003FC00E3CFCE51F0709F077CD61E085E0D9
:1014E0003CC0013D3CE5130708F042CB61E082E1DE
:1014F00034C042E45DE26DE47DE227C04DE45DE28C
:1015000062E47DE222C043E15DE26EE17DE21DC066
:101510004EE15DE263E17DE218C047EF5CE265E029
:101520007DE213C045E05DE267EF7CE20EC049EE6C
:101530005CE26BED7CE209C04EE75BE26CE87BE2CB
:1015400004C04CE85BE26EE77BE20E94622C10CBA9
:1015500061E081E002C061E08DE00E94292D08CBAE
:101560002996E1E10C94A530AAE2B0E0EAEBFAE0BA
:101570000C94883085B7806885BF85B7806885BF43
:1015800084B7877F84BF0FB6F894A89580916000D8
:10159000886180936000109260000FBE90E080E848
:1015A0000FB6F89480936100909361000FBE87E7B7
:1015B00095E19093A7028093A6020E9444270E947F
:1015C000EA278091E20084608093E2007894809121
:1015D000CF048823A1F01091E9001F709091EC00D6
:1015E000892F817090FD80E8182B1092E90080917E
:1015F000E80083FD0E94171E1F701093E90082E02F
:1016000084BD93E095BD9AEF97BD80936E000E94D4
:10161000492C811102C00E94392C0CE111E071E2C9
:10162000E72E71E0F72ED8018D918D018F3F11F0DB
:101630000E94BC15E016F106B1F701E211E0F801D5
:1016400081918F018F3F11F00E94BC15F1E00033B2
:101650001F07A9F78AE0EFEBF2E0DF01282F1D92C8
:101660002A95E9F7E9EAF2E0DF011D928A95E9F7A8
:101670000E945018811102C00E945C1882E090E024
:101680000E94AE2F8093B3020E943F1890932905C9
:10169000809328050E94D315BFEFE6E7F1E0B15033
:1016A000E040F040E1F700C000000E94D3158091B7
:1016B000BF0280FF08C06FEF7FEF80E090E00E94E4
:1016C000EA2F0E947A2983E090E00E94AE2F0E94C8
:1016D0002B2E1092E304ECEFF4E08FEF9FEF819359
:1016E000919325E0EC30F207D1F71092C902E2EEB7
:1016F000F2E08FEF9FEF8193919332E0E23FF307A7
:10170000D1F70E945018811104C00E945C180E94F9
:10171000B42346E050E06CE170E08DED94E00E946F
:101720009E2F10922E058091DD048C7F11F40E9473
:10173000B42380912805806880932805809128052E
:10174000909129050E94311884E091E09093200542
:1017500080931F0569EC262E62E0362E8E010F5F06
:101760001F4F2E014BE0440E511C8091CF04853059
:1017700009F049C040E1E42E52E1F52E8091CF04FA
:10178000853009F03CC08091CF04843031F10E9453
:10179000C80F1092230588E190E0A0E40FB6F894FA
:1017A000A895809360000FBEA093600083B7817FEF
:1017B000846083BF83B7816083BF7894889583B743
:1017C0008E7F83BF0FB6F894A895809160008861E2
:1017D00080936000109260000FBE8091CE04882339
:1017E00009F4CCCF0E94D315EFEBF2E081919191F7
:1017F000892B09F0A4C32E163F06C1F7BFCF0E9464
:10180000502E0E949D2A0E94D31581110E94D32937
:101810003FEB832E32E0932EA4EBB2E0F401E12CF7
:10182000F12C4E2D619071908D919D91862597257B
:10183000009709F4AEC0D12CAA24A394B12C950131
:1018400028233923232B09F49EC0D9A24AA36A2056
:101850007B2081E06114710409F480E08BA30E9475
:10186000DF298160782F9DA38CA349A15AA16BA188
:101870008DA10E94DF03F701EE0FFF1FEC54FD4F17
:1018800080819181A826B926B182A082672889F03B
:101890008FE08E9DF0018F9DF00D1124EC58FE4FCE
:1018A000ED0DF11D80818F3F21F0C82EDD24D394F2
:1018B00001C0D12CED2CF12C8091C902F701E80F69
:1018C000F11D3997ACF188E090E05C01AE18BF08DB
:1018D000B7016F5F7F4F67537D4FA5018AEC92E0A0
:1018E0000E94CC30B701675F7F4F67537D4FA501E2
:1018F00082ED92E00E94CC30A501440F551FB70144
:10190000660F771F675E7F4F67537D4F82EE92E0D1
:101910000E94CC30B7016F5E7F4F67537D4FA501AA
:101920008AED92E00E94CC3088E08D198093C90244
:101930008091C90290E0AC2DB0E09D01220F331FD1
:1019400021543E4FAA0FBB1FBD0160547E4F41E0A2
:10195000480F9D15A8F490E0FC01E753FD4FD90115
:101960005C915183DB015C915187C18A880F991F7B
:10197000FC01E753FD4F128E118E91E0842FE7CFCB
:101980008093C9021EC0D394AA0CBB1C2FE0D212B4
:1019900056CF3FEFE31AF30A45E0E416F10409F0ED
:1019A00040CF8FEF8EA38FA318A60E94DF298160FE
:1019B000782F9AA789A74EA15FA168A58AA50E9442
:1019C000DF030E94C80F86E0E4E1F5E0D801019052
:1019D0000D928A95E1F71092160510921705109254
:1019E0001805109219058B81811104C08C81882300
:1019F00009F453C080911205909113050E94C429E7
:101A00009C0190910E05992309F4B8C22531310546
:101A100008F443C09F3F19F09F5F90930E05FB8031
:101A2000FF2061F00E94ED251F1414F491E001C025
:101A30009FEF899F802D112480931605FC80FF2045
:101A400061F00E94ED251F1414F491E001C09FEF96
:101A5000899F802D1124809317053091160533231B
:101A6000E1F0209117052223C1F045EB3403C001BA
:101A70001124992319F09093160503C081E08093F7
:101A8000160535EB2303C0011124992319F0909317
:101A9000170503C081E0809317058D81811104C073
:101AA0008E81882309F453C080911005909111050F
:101AB0000E94C4299C0190910D05992309F463C2E9
:101AC0002135310508F443C09F3F19F09F5F909383
:101AD0000D05FD80FF2061F00E94CB251F1414F43A
:101AE00091E001C09FEF899F802D112480931805FC
:101AF000FE80FF2061F00E94CB251F1414F491E0BA
:101B000001C09FEF899F802D11248093190530918A
:101B100018053323E1F0209119052223C1F045EB8C
:101B20003403C0011124992319F09093180503C0C0
:101B300081E08093180535EB2303C001112499231C
:101B400019F09093190503C081E08093190546E0D0
:101B500050E0B80184E195E00E94BF30892BA9F4E0
:101B60008091160581110FC08091170581110BC05E
:101B700080911805811107C081E09091190591119C
:101B800003C080E001C081E080FD0E942A2586E03C
:101B9000F801A4E1B5E001900D928A95E1F70E9469
:101BA0009D2A9091BE0289138093BE028091CF043A
:101BB000843009F0DACD83E08093E9008091E80079
:101BC00082FFD3CD8091E80085FF21C00E9463276A
:101BD00081111BC080E2E82EF12C580109C08091D0
:101BE000F100D5018D935D01B1E0EB1AF10869F0C8
:101BF0008091E80085FDF3CF8091E8008B7780939A
:101C0000E8000E946327882399F391E001C090E0E7
:101C10008091E8008B778093E800992309F4A5CDA3
:101C2000E9818E2F90E0FC013197E331F10508F056
:101C30005CC1EE59FF4F0C947B301A8289E0BFC023
:101C40008A81823009F491C1833051F0813009F0EA
:101C50004CC10E94D3299B838C837D836E8347C1B3
:101C6000F801D4018C9111969C91B2E08B0E911CDD
:101C70009283838332964E165F0699F738C18A8124
:101C8000823009F032C16B817C818D819E810E94FE
:101C900081300E94152C2BC14C816B818A810E945E
:101CA000E72B9D8369C12D813E813227232732276F
:101CB0004C816B818A810E94C02B19C10E94312BFB
:101CC00016C18A818138B1F050F4803809F00FC113
:101CD0008091DE0420E04B816091DF0431C08238C6
:101CE00019F1833809F003C18B8120E04091E004B1
:101CF0006C8126C060E08B810E94292D9B818091A0
:101D0000DD04911107C0982F937011F01092180103
:101D10008C7F07C0982F937011F4109218018C7F5C
:101D200081608093DD04E3C0EB81E43028F4F0E0CF
:101D3000E05DFE4F808101C08FE78093E104D7C052
:101D400090E00E94C82CD3C08A81813899F030F489
:101D5000803809F0CCC08091E00431C0823879F03D
:101D6000833809F0C4C08091DE048B838091DF0446
:101D70008C83BDC08091DD048695869520C08091BE
:101D8000E104873230F08F3530F08E3930F482E064
:101D900016C080E014C081E012C083E010C046E0AD
:101DA00050E06CE170E08DED94E00E94BC2F109249
:101DB0002E059DC080E152C081E08A8381E88B833B
:101DC00096C0EA80FB80FE24EF24FE248C80912CB8
:101DD0005801C70181589D4F9501201B310B2815D3
:101DE000390508F084C0E1E8EE16E1E0FE0630F4C3
:101DF0000E94AE2FD50114968C9302C0F501148277
:101E0000FFEFEF1AFF0A2FEFA21AB20AE2CFEA8021
:101E1000FB80FE24EF24FE248C80912C5801C70106
:101E200081589D4F9501201B310B2815390508F06D
:101E30005EC031E8E31631E0F30628F4D5011496CC
:101E40006C910E94CC2FBFEFEB1AFB0AEFEFAE1A9A
:101E5000BE0AE5CF0E94132B4AC084E08A8347C0A4
:101E6000EA80FB80FE24EF24FE248C80912C580114
:101E7000C70187969501201B310B28153905B8F548
:101E8000F8E5EF16F2E0FF0630F40E94AE2FD50120
:101E900014968C9302C0F5011482FFEFEF1AFF0A2B
:101EA0002FEFA21AB20AE4CFEA80FB80FE24EF24CF
:101EB000FE248C80912C5801C70187969501201B28
:101EC000310B2815390598F438E5E31632E0F306AE
:101ED00028F4D50114966C910E94CC2FBFEFEB1A19
:101EE000FB0AEFEFAE1ABE0AE7CF8FEF898380912E
:101EF000CF04843009F039CC8091E9008F702091B3
:101F0000EC00922F917020FD90E8F92EF82A82E0E3
:101F10008093E9008091E80080FF0CC040E050E031
:101F200060E270E0C8010E94ED1D8091E8008E77AC
:101F30008093E8008F2D8F708093E90016CCE9BC68
:101F4000F9BC09B400FEFDCF8091D8008F7D80934D
:101F5000D8008091E00082608093E0008091E000F2
:101F600081FDFCCF0E94502E09CC86E290E00E94B9
:101F7000AE2F1B821C821D828E83B9CF2B30310580
:101F800008F04ACD8ACD2B30310508F09FCDDFCD4A
:101F9000A0E0B0E0EEECFFE00C948A308091F20219
:101FA0009091F302A091F402B091F5022FB7F8944A
:101FB000C0902405D0902505E0902605F0902705D7
:101FC0002FBFC81AD90AEA0AFB0A0E94D3294B017B
:101FD0005C016093F2027093F3028093F402909399
:101FE000F502A091C902E9ECF2E08A2F90E04FEFF0
:101FF0005FEF60E070E04C195D096E097F09A91779
:1020000099F0218D328D2901612C712C44155505D3
:102010006605770510F4815004C02C0D3D1D328FEC
:10202000218F9F5F3296EBCF8093C9028091DD04B0
:10203000982F937021F0D82FD695D69501C0D0E077
:10204000909118019130E1F030F09230E1F193304D
:1020500009F444C047C5109213018092D9049092AC
:10206000DA04A092DB04B092DC0489E2E9ECF2E04D
:10207000A3EEB4E001900D928A95E1F781E02BC0C8
:1020800090911101D9130CC0837090E04091100120
:1020900050E021E08417950709F420E0822F01C069
:1020A00081E08170809315018091E2049091140188
:1020B000981709F440C08093140140E060E080E08C
:1020C0000E94AE2338C0D093110183708093100119
:1020D0000E949A2B83E08093180104C580912E05FD
:1020E000882351F046E050E06CE170E08DED94E023
:1020F0000E94BC2F10922E054091D9045091DA0411
:102100006091DB047091DC042FB7F8948091240572
:1021100090912505A0912605B09127052FBF841B1E
:10212000950BA60BB70B4097A105B10508F4DAC4CF
:1021300010921801D7C48D2F90E08B32910580F159
:10214000809113018F5F8093130182E080931801C7
:1021500080911501811120C0DD2309F4BBCF0E94BD
:102160009D2A81FFBFC42FEF4FEF6FEF8EE190E00C
:102170000E94B123B7C480911501882329F040E063
:1021800060E080E00E94AE23C0E0809113018F5F89
:1021900080931301CC23C9F2DD2309F4A3C4DFCF5C
:1021A000FC01EB58FF4F0C947B3080911301CFE082
:1021B0008C9FC02D11241FE01C0F1B3408F01AE463
:1021C0006091DE047091DF048091E0040E94A024FD
:1021D000062FF72EE82EC11708F012C2EC2FF0E000
:1021E000DF01AD5ABD4F8C9190911401982331F0CD
:1021F0002E2D402F6F2DCF010E94B123CF5FEBCF4B
:10220000C09113018FE0C89FC02D11241FE01C0F47
:102210001B3408F01AE4F090DF040091E004E09031
:10222000DE04B701802F0E94A024D62EC72EB82E20
:102230006091E1046E0D7F2D802F0E94A024062F57
:10224000F72EE82EC11708F0DBC18C2F90E0FC01BF
:10225000ED5AFD4F308120911401232359F030FFB6
:1022600004C02E2D402F6F2D03C02B2D4D2D6C2D16
:102270000E94B123CF5FE6CFC09113018FE0C89FCA
:10228000C02D11241FE01C0F1B3408F01AE4D0905D
:10229000DF04C090E0042091E10400E4029F012DDE
:1022A0001124C11708F0ACC1EC2EF12CF701ED5A46
:1022B000FD4F9081809114018923B9F0F701EE0F51
:1022C000FF1FE054FE4F808182958F706091DE0485
:1022D000809F600D11247D2D8C2D0E94A024462FFF
:1022E000282F672FC7010E94B123CF5FDACFC0919B
:1022F00013018FE0C89FC02D11241FE01C0F1B3459
:1023000008F01AE4D090DF04C090E0042091E104CA
:1023100000E4029F012D1124C11708F071C1EC2EB9
:10232000F12CF701ED5AFD4F908180911401892322
:10233000D9F0F701EE0FFF1FE154FE4F6081069FB9
:10234000B001112445E0759567954A95E1F78091B4
:10235000DE04680F7D2D8C2D0E94A024462F282F8F
:10236000672FC7010E94B123CF5FD6CFC091130161
:102370008FE0C89FC02D11241FE01C0F1B3408F0F4
:102380001AE4F090DE040091DF04E090E004609134
:10239000E1046695669566958091D9049091DA047A
:1023A0000E9483240E94CF23805887FD8195880F47
:1023B000282F3E2D239F212D1124822F6F2D702F2A
:1023C0000E94A024062FF72EE82EC11708F018C18E
:1023D000EC2FF0E0DF01AD5ABD4F8C9190911401CC
:1023E000982331F02E2D402F6F2DCF010E94B12365
:1023F000CF5FEBCF89EB92E202C08DE892E20E94C0
:102400007C1C6CC381E993E21DC083E793E21AC090
:1024100088E593E21CC08CE393E219C08BE892E25A
:10242000EECF82E892E2EBCF89E792E2E8CF8EE549
:1024300092E2E5CF8FE492E20AC08AE594E202C01C
:102440008BE293E20E94971D49C387E193E20E94C9
:102450001B1D44C381E292E205C08FEE91E202C0EF
:1024600081EB91E20E94C61C39C380911501811154
:102470001EC06091E10420E1620F08F46FEF8091CB
:10248000D9049091DA040E9483246AE070E00E94EB
:102490005330892B09F078CE0E948E2F6AE470E0C9
:1024A0000E946730609114010E948D2C6DCE809146
:1024B00013010FE0809F002D11242FE0F22EF00E6B
:1024C0008AE48F1510F49AE4F92E10E0CF2CD12C69
:1024D0000C151D0544F460911401C8010E948D2C57
:1024E0000F5F1F4FF5CFC1E0E9E4EF1508F04DCEC7
:1024F0004BCE8091150181111EC06091E10420E155
:10250000620F08F46FEF8091D9049091DA040E9471
:10251000832465E070E00E945330892B09F034CEAB
:102520000E948E2F6AE470E00E946730609114016F
:102530000E94692C29CE809113010FE0809F002D0D
:1025400011248FE0F82EF00EFAE4FF1510F41AE4CF
:10255000F12E10E0CF2CD12C0C151D0544F4609108
:102560001401C8010E94692C0F5F1F4FF5CFC1E015
:1025700029E42F1508F009CE07CEC09113018FE092
:10258000C89FC02D11241FE01C0F1B3408F01AE453
:10259000F090DF040091E004E090DE046091E1043B
:1025A0006695669566958091D9049091DA040E94AB
:1025B00083240E94CF23805887FD8195880F682F40
:1025C0002CE0629F612D11246E0D7F2D802F0E94C3
:1025D000A024062FF72EE82EC11790F4EC2FF0E080
:1025E000DF01AD5ABD4F8C9190911401982331F0C9
:1025F0002E2D402F6F2DCF010E94B123CF5FECCF46
:10260000C1E01A3408F4C1CDBFCD80EF93E2F7CE1C
:1026100080EA91E2F4CE4091F6025091F702609187
:10262000F8027091F9028091D9049091DA04A09196
:10263000DB04B091DC0484179507A607B70708F4FC
:10264000A3CD0E941424C82F0E9414249AE4891B4D
:10265000F0F7890F082F10E0F801ED5AFD4F909127
:1026600014018081892309F43BC2C1FF04C020E02A
:1026700040E060E013C00E941424C82F0E9414247C
:102680008695782F2FE7720F08F47FEF6C2F8091DB
:10269000E0040E94A024462F282F672FC8010E9423
:1026A000B1232091E10430E1230F08F42FEF60E122
:1026B000822F90E00E948324BC0184EF91E00E946D
:1026C00053308091D9049091DA04A091DB04B09149
:1026D000DC04860F971FA11DB11D8093F602909315
:1026E000F702A093F802B093F9024ECD4091D803BF
:1026F0005091D9036091DA037091DB038091D90482
:102700009091DA04A091DB04B091DC048417950762
:10271000A607B70708F438CD8091150181110DC0C7
:1027200080911301CFE08C9FC02D11240FE00C0F7E
:102730000B3408F454C00AE452C040E060E080E08A
:102740000E94AE23CAEFEC2EC2E0FC2E00E010E0A7
:10275000CFE70E94142481FF05C0F7011082118287
:1027600012821DC00E941424B82E0E941424869543
:10277000782F2C2F720F08F47FEFC801880F991F54
:10278000800F911FFC01E650FD4F6F016B2D809172
:10279000E0040E94A024F6016083718382830F5FAE
:1027A0001F4FF3E0EF0EF11C0A34110591F6B8CF7C
:1027B0008C2F90E0FC01ED5AFD4F308120911401E7
:1027C000232361F0FC01EE0FFF1FE80FF91FE65015
:1027D000FD4F2281408161810E94B123CF5FC017EC
:1027E00038F3C1E00A3408F0C0E00A3408F4CDCC74
:1027F00020E010E001501109822F90E0801791072E
:10280000CCF4AC01440F551F480F591F46505D4F83
:102810000196FC01EE0FFF1F8E0F9F1FFC01E6507B
:10282000FD4F80819181A281FA0180839183A283EF
:102830002F5FE2CF0E9414247801EE0CFF1C81FF71
:1028400009C00E0D1F1DF801E650FD4F10821182C8
:10285000128218C00E941424D82E0E941424869537
:10286000782F2FE7720F08F47FEF0E0D1F1D065013
:102870001D4F6D2D8091E0040E94A024F80160831B
:10288000718382830E948D240091D9041091DA040F
:102890002091DB043091DC04DC01CB01800F911F1F
:1028A000A21FB31F8093D8039093D903A093DA0398
:1028B000B093DB036ACC40912704509128046091C7
:1028C000290470912A048091D9049091DA04A0918E
:1028D000DB04B091DC0484179507A607B70708F45A
:1028E00053CC80911501882329F040E060E080E01E
:1028F0000E94AE236091DE047091DF048091E004B9
:102900000E94A024C62F772E682E9CEDE92E93E01E
:10291000F92E04E711E02FEBA22E21E0B22E4701A1
:10292000C12CD12CF4018081F801EC0DFD1D882310
:1029300029F08081262D4C2F672D04C0808120E056
:1029400040E060E090E00E94B123F4018181819336
:102950004F01FFEFCF1ADF0A26E0C216D10411F7AC
:102960004801670187E0582EF6018685F401882327
:1029700029F08685262D4C2F672D04C0868520E002
:1029800040E060E090E00E94B123F60185858687F3
:102990005A94F1E0CF1AD10821E0821A910851101F
:1029A000E3CFF7018781F801882329F08781262D5D
:1029B0004C2F672D04C0878120E040E060E090E06C
:1029C0000E94B123F7018681F801882329F08681CE
:1029D000262D4C2F672D04C0868120E040E060E06A
:1029E00090E00E94B1230E941424837091E009F0CA
:1029F00090E0F70196839783FFE0EF0EF11C015FF3
:102A00001F4FA016B10609F08ACF0E948D240091B5
:102A1000D9041091DA042091DB043091DC04DC014C
:102A2000CB01800F911FA21FB31F809327049093A7
:102A30002804A0932904B0932A04A6CB89E991E243
:102A400002C083E991E20E940D1C48C08091E3041A
:102A500021E0382F321B08F430E0832F6AE771E25F
:102A60003BC06AE771E237C08091E30421E0382F70
:102A7000321B08F430E0832F62E471E22DC062E47F
:102A800071E229C08091E30421E0382F321B08F461
:102A900030E0832F60E171E21FC060E171E21BC092
:102AA0008091E30421E0382F321B08F430E0832FBB
:102AB00068EF70E211C068EF70E20DC08091E3042E
:102AC00021E0382F321B08F430E0832F62EE70E2F1
:102AD00003C062EE70E280E00E946E1BC82F55CBEF
:102AE000C1E053CBCDB7DEB7E0E10C94A63080E077
:102AF00008959091280592FF0DC0282F2871283045
:102B000019F4877F846006C0282F2471243011F4C3
:102B10008B7F886093FF0DC0282F2871283119F40E
:102B2000877E846106C0282F2471243111F48B7EA6
:102B300088612091290520FF0DC0382F3871383069
:102B400019F4877F816006C0382F3171313011F45C
:102B50008E7F886021FF0DC0282F2871283119F43D
:102B6000877E816106C0282F2171213111F48E7E6C
:102B7000886194FD877E0895F894E82FE295EF70C0
:102B8000F0E031A1282F2F7081E090E001C0880F84
:102B90002A95EAF7982F9095932391A392A1892BD8
:102BA00082A378940895AAE0B0E0E9EDF5E10C94F1
:102BB0008E30AE014F5F5F4F7A018AE0FA011192C9
:102BC0008A95E9F70CE111E06A01AA24A394B12CDB
:102BD000F80180818F3F09F447C0F894E82FE2950F
:102BE000EF70F0E021A18F70A50102C0440F551FC6
:102BF0008A95E2F7CA01922F982B91A392A1809512
:102C0000892382A3789400C0E1E2F1E021E030E082
:102C1000812C912C41914F3F89F0A42FA295AF7048
:102C2000B0E090968C9190E04F7002C0959587959A
:102C30004A95E2F780FD02C0C90102C080E090E041
:102C4000882A992A220F331F51E0E033F50711F744
:102C5000F80180818F3F11F00E94BC15F0EAFA95CF
:102C6000F1F7F601918280820F5F1F4FF2E0CF0EE5
:102C7000D11C41E00132140709F0AACF4AE050E02C
:102C8000B70189EA92E00E94BF3011E0009709F491
:102C900010E0892B89F08AE0F701A9EAB2E00190FF
:102CA0000D928A95E1F781E08093AA040E94DF29C2
:102CB0009093A9048093A8048091AA04882391F199
:102CC0008091A8049091A9040E94C429059750F10D
:102CD0008091A9029091AA029093C0028093BF02B2
:102CE0008091AB029091AC029093C2028093C1029A
:102CF0008091AD029091AE029093C4028093C30282
:102D00008091AF029091B0029093C6028093C50269
:102D10008091B1029091B2029093C8028093C70251
:102D20001092AA04812F2A96ECE00C94AA30CF933B
:102D3000DF938238910569F1B0F48133910509F48C
:102D40006FC048F48932910509F465C08A32910553
:102D500009F46BC08AC08533910509F457C08933E3
:102D60009105B9F082C0833E910571F138F4803E3F
:102D70009105B1F0823E910511F177C0863E910533
:102D8000B9F1873E9105C9F1843E910509F06DC006
:102D900024C02091280520FD53C021FD51C065C0ED
:102DA0008091280580FD46C08091290580FF48C09C
:102DB0008091280584FD50C183EE90E04FC1809141
:102DC000280582FF3AC0F4CF8091280582FD35C0E6
:102DD0008091290580FD34C0EBCF8091290581FFCA
:102DE00035C08091280584FD37C187EE90E036C15B
:102DF0008091280583FF27C0F4CF8091280583FDAB
:102E000022C08091290581FD21C0EBCF809128054A
:102E100085FD1FC021C08091280585FD1DC019C0FA
:102E20008091280586FD1BC01DC08091280586FD68
:102E300019C015C089E390E011C182EE90E00EC187
:102E400080EE90E00BC186EE90E008C184EE90E049
:102E500005C189E290E002C185E390E0FFC08AE20B
:102E600090E0FCC081E390E0F9C0811531E5930763
:102E700008F069C0811540E59407F0F09C0174E00A
:102E8000369527957A95E1F7922F9370482F4370E6
:102E900021E030E002C0220F331F4A95E2F73C6880
:102EA000392B982F9F709695969540E2949FC0017C
:102EB0001124822B932BD2C0883E910568F5803E69
:102EC000910508F0CBC0883A9105B8F4853A910590
:102ED00048F0855AE82FF0E0EC5CFE4F808190E0EE
:102EE0009064BCC08130910509F4B3C008F4B4C04B
:102EF0008430910508F4B0C0B1C08F3B910508F053
:102F0000ABC0885AE82FF0E0EE0FFF1FE95CFE4FE0
:102F1000808191819464A2C0811520E2920758F4C7
:102F2000811531E0930708F099C0803F910508F4BE
:102F300093C0906593C0811540E4940708F48CC059
:102F40009F70906A8BC0811525E5920708F042C0FA
:102F5000811534E5930728F0982F8827846F906AAD
:102F60007DC0811543E59407B0F09C0123703327A1
:102F700041E050E002C0440F551F2A95E2F7282F88
:102F80002695269580E2289F90011124CA01822B64
:102F9000932B9A6863C0811522E5920728F4982F35
:102FA0008827816F906A5AC09C012370332741E0C3
:102FB00050E002C0440F551F2A95E2F7282F2695AE
:102FC000269580E2289F90011124CA01822B932B21
:102FD0009C6844C0EC01811539E59307A8F481157C
:102FE000984528F09C2F8827806F906A37C0C115BC
:102FF00086E5D80788F58C2F0E9479158F7190E0AF
:10300000982F882790622AC081152AE5920790F4AC
:103010008C2F8F700E94791594E0D695C7959A955C
:10302000E1F7CF70D0E0DC2FCC27D0699E01282BB0
:10303000C90114C090568115904270F48D2F8F7184
:103040000E947915282F2F71CE0199279062922B1B
:1030500005C081E090E002C080E090E0DF91CF9178
:103060000895CF93C92F682F84E090E00E94CC2F61
:103070006C2F82E290E00E94CC2FCF910895CF93E5
:1030800084E090E00E94AE2FC82F82E290E00E9480
:10309000AE2F2C2F30E0A901582BCA01CF910895F3
:1030A00080E090E00E94B62F883E9E4F19F40E9467
:1030B000492C089580E0089568EE7EEF80E090E06E
:1030C0000E94EA2F60E082E090E00E94CC2F60E056
:1030D00083E090E00E94CC2F1092A70460E084E08F
:1030E00090E00E94CC2F64E082E290E00E94CC2F1E
:1030F00060E085E090E00E94CC2F60E086E090E008
:103100000E94CC2F6FEF87E090E00E94CC2F40E030
:1031100050E0BA0188E090E00E94DE2F60E08DE090
:1031200090E00E94CC2F40E050E0BA0188E190E0AE
:103130000E94DE2F60E087E190E00E94CC2F40E00B
:1031400050E0BA018CE190E00E94DE2F60E070E078
:1031500080E290E00E94EA2F40E050E0BA0188E16E
:1031600090E00E94DE2F80E00E941A2C0E94392CF1
:1031700040E050E0BA018FE090E00E94DE2F40E096
:1031800050E0BA0183E190E00E94DE2F0895809123
:10319000A60481111092A604089580959091A5042B
:1031A00089238093A50408959091A5048091A40497
:1031B000982B90932B048091A6048823D9F0892B17
:1031C00080932B0480911201882331F0809128058F
:1031D00087FF02C08EE101C086E0EDE2F4E090E0FE
:1031E000815028F021912223D9F39F5FF9CF9111CB
:1031F0000E94C71840E250E064E874E08BE294E07B
:103200000E94BF30892B21F180E2EBE2F4E0A4E8D8
:10321000B4E001900D928A95E1F7E0911F05F091DD
:1032200020053097A9F080911201882359F08091F0
:10323000280587FF07C080912B0480932C0486E02B
:1032400080932B040280F381E02D8BE294E00995BA
:103250000895209183048095822380938304982F7E
:10326000977099F430E0482F082E000C550B241766
:10327000350759F09091290592FF07C085958595EE
:1032800085950E94122E109283040895909129052D
:1032900092FB222720F9281769F080FB92F990937E
:1032A000290580912805909129050E94311882E016
:1032B0000E942919089580918204909151048917E0
:1032C00019F08F5F8770FBCF08950F931F93CF93F3
:1032D000DF938091500482958F7009F05AC08091DD
:1032E0004D04882309F455C0809182041091510443
:1032F00060914B0470914C04C0914E04D0914F04E6
:1033000091E06F3F09F090E0292F06E0811709F462
:1033100040C0209721F07F3F21F030E003C031E032
:1033200001C0322F90E030FD31C0089FF001099FAD
:10333000F00D1124DF01AE5ABB4F11963C9111974D
:10334000371324C03C91361321C012963C9112973A
:1033500031111CC013964D915C9114974C1B5D0B61
:10336000483C510598F4809150048F70806180939F
:103370005004E95AFB4F80818F70806180838BE419
:1033800094E00E947C040E945B1903C00196877040
:10339000BDCFDF91CF911F910F910895CF93DF9310
:1033A000EC010E94752DBE010E94232B0E949716EE
:1033B000DF91CF910895A1E1B0E0E1EEF9E10C9445
:1033C0008F308C0185E0F801DE011D9601900D9291
:1033D0008A95E1F7F801E28090914B0460914C04EA
:1033E00040914E0450914F044115510531F06F3F0B
:1033F00031F481E09F3F19F403C081E001C080E017
:10340000F82FF1709F2E80FD1BC1F80130812181C2
:10341000C380D4808BE4A82E84E0B82EF0904D04B5
:10342000F601E41BF50BFF2009F4C7C0809150049E
:10343000E83CF10508F092C0482F407F09F051C0E8
:10344000621311C093130FC0FE2CE1100CC08F70DB
:10345000806180935004C5010E947C0480915004D7
:10346000F80185832AC1C114D10431F02F3F31F412
:1034700081E03F3F19F403C081E001C080E080FD9E
:1034800003C081E08E2502C080E090E0F82FF1704B
:10349000FF2E80FF1CC0809182044091510456E0B1
:1034A000841709F4E8C090E0589FF001599FF00D8F
:1034B0001124EE5AFB4F6181261306C0608163130D
:1034C00003C06281E61203C001968770E9CFFE2C2B
:1034D000EE2009F4F2C08091500481608093500482
:1034E00049C0621306C0931304C0E11002C0F80182
:1034F00086C0C8010E94302E882351F1EE2041F190
:1035000020915004822F82958F7090E0029774F082
:1035100080914B0490914C0498878F831986DB86A9
:10352000CA862C87CE0107960E947C0486E0F801AB
:10353000ABE4B4E001900D928A95E1F70E94651921
:103540000AC06217C9F0C8010E94302E81111EC046
:10355000C8010E947C04FF24F394AFC0482F407F31
:1035600081F78BE494E00E947C0486E0F5011192DF
:103570008A95E9F7F12CA1C09313E5CFE110E3CFD1
:10358000F8018583C8010E947C0454C0EE2001F339
:1035900020915004822F82958F7090E0029734F230
:1035A00080914B0490914C049A8389831B82DD8225
:1035B000CC822E83CE010196B7CFE83CF105D0F541
:1035C000FE2CEE2029F2621327C0931325C0209110
:1035D000500420FD18C0822F82958F70482F50E034
:1035E0004115510581F0F80125834F30510541F017
:1035F0008F5F982F9295907F822F8F70892B858374
:10360000C8010E947C0486E0F801ABE4B4E00190BC
:103610000D928A95E1F751C0C8010E94302E8111A8
:1036200085CF80915004816080935004C8010E942E
:103630007C0443C086E0F50111928A95E9F73DC00C
:10364000EE2009F485CFC8010E94302EF82E882381
:1036500009F47ECF86E0F801ABE4B4E001900D926E
:103660008A95E1F780914B0490914C040E94CE1909
:103670000E94651922C03D872E878D859E850E94F8
:10368000CE19292F22952F70223028F49F7039F0FF
:10369000811105C00BC0243028F49F7049F4805E6E
:1036A000883020F0C8010E947C049F2CF92C05C0B2
:1036B000F8019581907F99F7F9CF8F2D6196EBE016
:1036C0000C94AB3080910C05982F9670963011F4C5
:1036D000886001C0877F0E940D2E0895A7E0B0E0AA
:1036E000E4E7FBE10C948830282E4B012091130174
:1036F0008FE0289F802D11248E83182F115F1B349B
:1037000008F01AE43091E30439839E81911708F0A0
:103710007CC08E81682E712CF301ED5AFD4F908193
:1037200080911401892309F46CC03090DE0440902C
:10373000DF04522C1F82C301880F991FDC01A154A2
:10374000BE4FBB83AA83C301880F991FFC01E054BD
:10375000FE4FFD83EC83F9815F1608F040C0E52C35
:10376000F12CAA81BB81CC90D12CF701ED51FB4FFC
:103770008181C81AD108AC81BD81AC90B12C818502
:10378000A81AB108CC9C9001CD9C300D300D1124AD
:10379000AA9CC001AB9C900D900D1124820F931F29
:1037A0000E942924082F6091E10421E0620F08F4AF
:1037B0006FEFF701EE0FFF1FED51FB4F818D928DE3
:1037C0000E9483247C019501A601632D742D8F81B5
:1037D000F4010995362E472E8F835394BCCF209148
:1037E000E0048F81382F329F312D1124832F632DD8
:1037F000742D0E94A024462F282F672FC3010E94FA
:10380000B1238E818F5F8E8380CF81E01A3408F0E0
:1038100080E02796E2E10C94A430A0E0B0E0E3E180
:10382000FCE10C9492308C01C09113018FE0C89F91
:10383000C02D1124DFE0DC0FDB3408F0DAE4209146
:10384000E10431E0230F08F42FEF30E040E050E0D6
:103850006FEF7FEF80E090E00E94F02F7901CD17AD
:1038600008F041C0CC2ED12CF601ED5AFD4F9081CD
:10387000809114018923A9F19091E304915097FD5F
:1038800015C0492F092E000C550BFA01ED51FB4FC5
:103890008189C813F3CF440F551FFA01ED51FB4F37
:1038A000218D328D2E153F0548F701C0970160919B
:1038B000E10441E0640F08F46FEFC9010E94832422
:1038C000AC016091DE047091DF048091E004F801A6
:1038D00009950E94A024462F282F672FC6010E9419
:1038E000B123CF5FBCCF81E0DA3408F080E0CDB700
:1038F000DEB7E8E00C94AE30A0E0B0E0E2E8FCE136
:103900000C9493308C01C09113018FE0C89FC02D9F
:103910001124DFE0DC0FDB3408F0DAE46091E1042D
:103920006695669521E0620F08F46FEF8091D904E7
:103930009091DA040E948324D82ECD17F0F4EC2E57
:10394000F12CF701ED5AFD4F9081809114018923EC
:1039500091F06091DE047091DF048091E0042D2DE0
:103960004C2FF80109950E94A024462F282F672F7D
:10397000C7010E94B123CF5FE0CF81E0DA3408F0C5
:1039800080E0CDB7DEB7E7E00C94AF30A0E0B0E068
:10399000ECECFCE10C948F306C01C09113018FE0D2
:1039A000C89FC02D1124DFE0DC0FDB3408F0DAE41F
:1039B0006091E104669566958091D9049091DA044E
:1039C0000E948324182F80E4810F0E94CF2390E867
:1039D000F92EF80E812F0E94CF2320E8922E980E08
:1039E000CD1700F5AC2EB12CF501ED5AFD4F9081AD
:1039F000809114018923A1F06091DE047091DF04AD
:103A00008091E004E12E0C2F292D4F2DF601099510
:103A10000E94A024462F282F672FC5010E94B123A2
:103A2000CF5FDECF81E0DA3408F080E0CDB7DEB7DB
:103A3000EBE00C94AB306F927F928F929F92AF929B
:103A4000BF92CF92DF92EF920F931F93CF93DF93AA
:103A50003C01C09113018FE0C89FC02D1124DFE00D
:103A6000DC0FDB3408F0DAE46091E10466958091C4
:103A7000D9049091DA040E948324182FCD1708F0FE
:103A800044C08C2E912CF401ED5AFD4F9081809111
:103A900014018923C1F1F401EE0FFF1FE154FE4F21
:103AA000C080D12C80E7C81AD108F401EE0FFF1FA7
:103AB000E054FE4FA080B12CE0E2AE1AB108CC9CDD
:103AC0009001CD9C300D300D1124AA9CC001AB9CFF
:103AD000900D900D1124820F931F0E942924082F0E
:103AE0006091DE047091DF048091E004E12E950185
:103AF000A601F30109950E94A024462F282F672FC5
:103B0000C4010E94B123CF5FB9CF81E0DA3408F05D
:103B100080E0DF91CF911F910F91EF90DF90CF90D8
:103B2000BF90AF909F908F907F906F900895A0E08E
:103B3000B0E0EDE9FDE10C9492306C01C09113010D
:103B40008FE0C89FC02D1124DFE0DC0FDB3408F0CC
:103B5000DAE46091E10466958091D9049091DA04E9
:103B60000E948324182FCD1778F5EC2EF12CF70145
:103B7000ED5AFD4F908180911401892319F1F701CD
:103B8000EE0FFF1FE054FE4F208130E0205231093C
:103B9000F701EE0FFF1FE154FE4F408150E0405708
:103BA00051096091DE047091DF048091E004012FDF
:103BB000F60109950E94A024462F282F672FC701E0
:103BC0000E94B123CF5FCFCF81E0DA3408F080E0EC
:103BD000CDB7DEB7E8E00C94AE30EF92FF920F93D2
:103BE0001F93CF93DF937C018B010E946327811188
:103BF00019C0E70101151105A1F08091E80085FDCC
:103C00000AC08091E8008E778093E8000E946327C5
:103C1000882381F307C089918093F1000150110935
:103C2000E9CF80E0CDB7DEB7E6E00C94B030AAE291
:103C3000B0E0EDE1FEE10C949730E1EDF4E089EDC8
:103C400094E02091F10021938E179F07D1F7809186
:103C5000D204833009F463C030F4813071F08230D3
:103C600009F49DC0B4C08A3009F489C08B3009F4CE
:103C70006EC0893009F0ABC020C08091D104813A78
:103C800009F0A5C08091E800877F8093E8008091CB
:103C9000D5049091D604892B21F460E28DEA94E05A
:103CA00003C060E080E090E070E00E941C298091F9
:103CB000E8008B778093E8008AC08091D10481323C
:103CC00009F085C08091D5049091D604009719F031
:103CD000029709F07CC08091E800877F8093E8001C
:103CE0008091E80082FD05C08091CF048111F8CF5A
:103CF0006EC02091F3008091F20090E0922B029729
:103D000031F48091F100813011F0863021F48091FE
:103D1000F1008093AC048091E8008B7754C08091CF
:103D2000D104813A09F053C08091D5049091D60412
:103D3000892B09F04CC08091E800877F8093E800D0
:103D40008091E80080FFFCCF8091120137C0809104
:103D5000D1048132E1F58091D5049091D604892B6C
:103D6000B1F58091E800877F8093E8000E94962754
:103D70008091D304809312010E94502E28C080911C
:103D8000D104813221F58091E800877F8093E8009B
:103D90000E9496278091D4048093AB0418C0809130
:103DA000D104813AA1F48091E800877F8093E800F4
:103DB0008091E80080FFFCCF8091AB048093F100FC
:103DC0008091E8008E778093E8000E94962780918A
:103DD000E80083FFDFC18091D1049091D204492F84
:103DE00050E04A30510508F0D5C1FA01E056FF4FC6
:103DF0000C947B30803821F0823809F0CBC108C0A8
:103E00008091CD049091CE04992389F082600FC0F7
:103E10008091D5048F70873008F0BCC18093E90091
:103E20008091EB0085FB882780F91092E900909142
:103E3000E800977F9093E8008093F1001092F100E2
:103E400070C1282F2D7F09F0A5C1882319F0823079
:103E500061F0A0C18091D304813009F09BC19330FF
:103E600009F080E08093CE042EC08091D3048111AC
:103E70002AC08091D5048F702FEF280F263008F0CC
:103E800089C18093E9002091EB0020FF1CC0933092
:103E900021F48091EB00806214C09091EB0090615E
:103EA0009093EB0021E030E0A90102C0440F551FC0
:103EB0008A95E2F74093EA001092EA008091EB00C5
:103EC00088608093EB001092E9008091E800877F82
:103ED0008093E8000E9496275DC181115BC110911B
:103EE000D3041F778091E3008078812B8093E300D7
:103EF0008091E800877F8093E8000E949627809158
:103F0000E80080FFFCCF8091E30080688093E300AD
:103F1000111102C082E001C083E08093CF043AC156
:103F20008058823008F036C12091D3043091D404F7
:103F30002C3D53E0350779F583E08A838AE2898353
:103F40004FB7F894DE01139620E03EE051E2E32FF4
:103F5000F0E050935700E49120FF03C0E295EF702A
:103F60003F5FEF708E2F90E0EA3010F0C79601C0EF
:103F7000C0968D939D932F5F243149F74FBF809159
:103F8000E800877F8093E8006AE270E0CE01019646
:103F90000E941C29B4C08091D5049091D604432F6F
:103FA000552743305105A9F068F44130510509F413
:103FB00000C14230510509F0EDC08BE590E0ECE125
:103FC000F3E04BC04132510529F14232510589F1EC
:103FD000E1C0C901992781309105A1F058F00297FD
:103FE00009F0D8C0E9E8F3E0E4918E2F90E0E9E829
:103FF000F3E030C0E1ECF3E0E4918E2F90E0E1ECEF
:10400000F3E028C0E7EAF3E0E4918E2F90E0E7EADE
:10401000F3E020C08330910508F0BCC0880F991FE1
:10402000FC01E259FE4F0190F081E02D89E090E023
:1040300014C08330910508F0ADC0FC01EE0FFF1FE6
:10404000E859FE4F0190F081E02DDC01AB59BE4FE5
:104050008C9190E0009709F49DC02091E800277FA3
:104060002093E8002091D7043091D804281739070D
:1040700008F4C90140E0009789F12091CF04222380
:1040800009F43DC02530D9F12091E80023FD37C067
:104090002091E80022FD2FC02091E80020FFEBCF07
:1040A0004091F3002091F20030E0342B009759F05A
:1040B0002830310540F444914093F1003196019746
:1040C0002F5F3F4FF3CF41E02830310509F040E04A
:1040D0002091E8002E772093E800CDCF4111CDCF7D
:1040E0000AC08091CF04882351F0853041F080913F
:1040F000E80083FD04C08091E80082FFF2CF809148
:10410000E8008B778093E80045C0803809F042C012
:104110008091E800877F8093E8008091D0048093AD
:10412000F1008091E8008E77D3CE811133C0809169
:10413000D3049091D4049927029764F58091E80004
:10414000877F8093E8001091D3041093D0040E94DD
:104150009627111106C08091E30087FD02C081E01F
:1041600001C084E08093CF0442E061EC81E00E94D2
:10417000B52742E261EC84E00E94B52742E261EC9F
:1041800082E00E94B52742E260EC83E00E94B527FE
:104190008091CF048091E80083FF10C08091E800F7
:1041A000877F8093E8008091EB0080628093EB0032
:1041B00005C082E190E0E7E7F3E04FCFAA96E3E0A5
:1041C0000C94B330EF92FF920F939701201B3109AB
:1041D0002F3F310519F010F02FEF30E02095382FE8
:1041E000320F08F43FEF832F0F91FF90EF90089567
:1041F000EF92FF920F939701201B31092F3F31055A
:1042000019F010F02FEF30E0322F3095482F430F88
:1042100008F44FEF842F620F0F91FF90EF900895F5
:10422000EF92FF920F93972F093438F4B701601B78
:1042300071096F3F710519F010F06FEF70E0485F82
:104240005F4F4131510540F0A901485F5F4F413157
:10425000510510F06FEF70E06095482F460F08F49D
:104260004FEF842F37FF02C02D5F3F4F35952795C5
:10427000359527956091DE04620F792F0F91FF909D
:10428000EF900895EF92FF920F93E00EF11CF90169
:1042900037FF03C0F195E195F10924E0EE0FFF1F10
:1042A0002A95E1F7EF3FF10519F014F0EFEFF0E098
:1042B0009A0157FF03C031952195310994E0220FEF
:1042C000331F9A95E1F72E173F070CF4F901EE0D15
:1042D000FF1DEF3FF10519F010F0EFEFF0E02E2F8A
:1042E0002095382F320F08F43FEF832F0F91FF9066
:1042F000EF900895EF92FF920F93970195E0099F39
:10430000200D311D11242F3F310519F010F02FEF32
:1043100030E02095382F320F08F43FEF832F0F91B4
:10432000FF90EF90089522E8241B08F420E0620F2C
:1043300008954095282F429F412D1124842F0895E0
:10434000E42FF0E0EE0FFF1FE154FE4F9081921B2F
:1043500097FD9195292F38E1239F212D1124620F7C
:1043600008950F931F9310E0F801EE0FFF1FE15423
:10437000FE4F9081905797FD9195000F111FF80106
:10438000E054FE4FE081F0E0B097DF01AA0FBB1FC1
:104390008D010E0F1F1F2003D001219FB00D11248E
:1043A000E8E3F0E0E91BF10997FDF3959F01220F87
:1043B000331F89010E0F1F1F40039001419F300DD5
:1043C00011242A0F3B1F37FF02C021583F4F220FF5
:1043D000232F221F330B620F1F910F9108950F930C
:1043E0001F93522F10E0F801EE0FFF1FE054FE4F15
:1043F000E081F0E0B097EE0FFF1F9F015203D00164
:10440000539FB00D1124000F111FF801E154FE4F0E
:10441000008110E000571109000F111F40039001A7
:10442000419F300D11242A0F3B1F37FF02C0215836
:104430003F4F220F232F221F330B620F1F910F912B
:1044400008950F931F93522F10E0F801EE0FFF1FF6
:10445000E054FE4FE081F0E0B0979F015203D0019D
:10446000539FB00D1124000F111FF801E154FE4FAE
:10447000008110E00057110940039001419F300D69
:1044800011242A0F3B1F37FF02C021583F4F220F34
:10449000232F221F330B620F1F910F910895EF926C
:1044A0000F931F9393E0099F8001112415950795A1
:1044B0006E2D600F1F910F91EF900895A22F50E085
:1044C000FA01EE0FFF1FE054FE4F9081905297FDCE
:1044D0009195440F551FFA01E154FE4F3081232F6F
:1044E00030E02A1B3109290F311D97FD3A95620FE3
:1044F0000895E42FF0E0EE0FFF1FE054FE4F6081BF
:10450000621B0895E42FF0E0EE0FFF1FE154FE4F11
:104510006081621B0895622F0895E42FF0E0EE0F92
:10452000FF1FE154FE4F408134EE439F412D112483
:10453000E82FF0E050E0445E5F4FDA01A21BB109C2
:104540009D01B7FF03C031952195310993E0220FFA
:10455000331F9A95E1F7AF01421B530B9A0157FFA6
:1045600002C020E030E0582F259F212D1124822FFA
:104570000895E42FF0E0EE0FFF1FE154FE4F40815D
:1045800034EE439F412D1124E72FF0E050E0445ECC
:104590005F4FDA01A21BB1099D01B7FF03C031953E
:1045A0002195310993E0220F331F9A95E1F7AF016E
:1045B000421B530B9A0157FF02C020E030E0279FB7
:1045C000212D1124722F0895FC019B01009721F4E5
:1045D00077FF2BC080E80895AC0197FF04C0442703
:1045E0005527481B590BB901640F751F37FD0CC0C7
:1045F000241B350BC901A5E0880F991FAA95E1F787
:104600000E94673080E20CC0CB0165E0880F991FE3
:104610006A95E1F7BA01621B730B0E94673080E66E
:10462000861BF7FF03C08195089580E00895EF92FF
:104630000F93CF93DF93D72FC82FC9010E19BA015B
:104640000E94E422602F681B7D2F8C2FDF91CF9179
:104650000F91EF9008950F93CF93DF93D72FC82F2B
:10466000C901BA010E94E422682F600F7D2F8C2FB0
:10467000DF91CF910F910895EF920F931F93CF93F6
:10468000DF93D62FC72F182FC9010E19010FBA01BA
:104690000E94E422081B202F219F212D1124822F0C
:1046A0006D2F7C2FDF91CF911F910F91EF90089587
:1046B000EF920F931F93CF93DF93D62F172FC82F0F
:1046C000C9010E19070FBA010E94E422702F781B4E
:1046D000719F712D11246D2F8C2FDF91CF911F9120
:1046E0000F91EF900895FF920F931F93CF93DF9355
:1046F000F62ED72F182FC901C12FC01BBA010E9457
:10470000E422982F990F890FC81B2C2F219F212D50
:104710001124822F6F2D7D2FCDB7DEB7E5E00C94ED
:10472000B130FF920F931F93CF93DF93F62E172F85
:10473000D82FC901C72FC01BBA010E94E422982FAD
:10474000990F890F7C2F781B719F712D11246F2D6C
:104750008D2FCDB7DEB7E5E00C94B1300E94662B0B
:1047600008950E94722B0895EDEDF4E089E18083B5
:104770008091190190911A01A0911B01818392836C
:10478000A3838FE784838FEF858346E050E06CE15D
:1047900070E0CF010E94BC2F10922E050895482F83
:1047A000982F46FD9095E92FEF739F7046FD9F5F10
:1047B000E295EF70EE0FF0E0E356FD4F2181299F67
:1047C000802D212D112482958F702295207F822BA0
:1047D0003081982F930F892F47FD81958058089538
:1047E0000F931F93CF93DF93D62F072F182FC42F2C
:1047F000822F0E94CF23EC2FF0E0EE0FFF1FE15439
:10480000FE4F90819058890F87FD8195880F682F02
:104810002CE0629F612D11246D0F702F812FDF918D
:10482000CF911F910F91089540911601509117015A
:1048300025E038E0429FC001439F900D529F900DAC
:104840001124875E994C9093170180931601890F6C
:104850000895BC018230910508F40895613E8EE10F
:10486000780748F49B0195E0369527959A95E1F7EE
:1048700048E0420F01C04FEF91E0242F30E0290FB4
:10488000311D35952795229FF001239FF00DF00DE6
:1048900011246E177F0718F44FEF420F04C02F3F0B
:1048A00039F091E0920F491740F78FEF890F089583
:1048B0008FEF08950F93CF93DF93D72FC82F47FD26
:1048C0004195E8E3F0E0CF01841B910947FD939502
:1048D000889FB001899F700D700D1124229FC00127
:1048E000239F900D900D1124860F971F0E9429245D
:1048F000682F660F860F682F600F7D2F8C2FDF913A
:10490000CF910F91089520E030E0869F212D969F52
:10491000200D311D1124C90108952091E10430E1D9
:10492000230F08F42FEF60E1822F90E00E94832490
:10493000BC0188EB9BE00E94533080E090E008953A
:10494000A0E0B0E0E6EAF4E20C949230F62E472FB5
:10495000E82FF0E0711106C0EB53FC4F8491782FE3
:10496000682F73C0272F30E0EB53FC4FE491FE2FEC
:104970000E2F10E056E0659FC0011124CFEFD0E06C
:10498000BE010E9453305BEA5603C001579F900D51
:1049900011248F0D911D8F0D911D982F990F980F38
:1049A0007E01E21AF30AE09ED001E19EB00DF09E76
:1049B000B00D11248B2F499FA0011124452F55279D
:1049C0007E01E41AF50AE09EA001E19E500DF09EE2
:1049D000500D11246E01C91AD108C29E7001C39EE8
:1049E000F00CD29EF00C11242F2D3327C21BD30BB9
:1049F000C09F9001C19F300DD09F300D1124932F87
:104A00006230710591F048F461157105E1F0613093
:104A10007105B9F49E2FE52F16C06430710569F059
:104A200040F06630710579F00CC09E2FEB2F832F7C
:104A30000AC0EB2F8F2F952F06C09B2F8E2FE32FB1
:104A400002C09B2F852F7E2F692FCDB7DEB7E8E000
:104A50000C94AE300E94DF2920911605211104C06C
:104A600020911705222321F09093130580931205BE
:104A700020911805211104C020911905222321F04D
:104A80009093110580931005E0911F05F09120058A
:104A9000309749F082E0809314050480F581E02D81
:104AA00084E195E009950895803F39F490911705C8
:104AB00097FF35C01092170559C0813F29F4909196
:104AC00017051916BCF32BC090911605823F29F4E7
:104AD00097FF25C01092160549C0833F19F4191697
:104AE000CCF31DC090911805893F29F41916BCF428
:104AF000109218053BC08A3F19F497FF10C0F8CFF9
:104B00008B3F39F49091190597FF09C01092190550
:104B10002DC08C3F21F4909119051916BCF39CE02F
:104B2000980F953080F421E030E0A90102C0440FD5
:104B3000551F9A95E2F7CA01809590911505892332
:104B40008093150513C08D3F21F480910F058E7F52
:104B50000BC08E3F21F480910F058D7F05C08F3FE4
:104B600029F480910F058B7F80930F0580911605A6
:104B7000811106C080911705811102C010920E05A7
:104B800080911805811106C080911905811102C01C
:104B900010920D05089580910F0580FD16C081FDCE
:104BA00016C082FD18C080910D05882391F08832CF
:104BB00090F428E0829FC001112468E270E00E9416
:104BC0006730862F672B29F007C082E0089584E0C4
:104BD000089581E0089588E0089580910F0580FD93
:104BE00014C081FD14C082FD16C080910E0588237B
:104BF00081F08E3180F420E5829FC00111246EE1A6
:104C000070E00E946730862F089584E1089588E25D
:104C1000089588E0089580E50895803F21F40E947A
:104C2000ED25819504C0813F29F40E94ED258093F4
:104C300017050895823F21F40E94ED25819504C057
:104C4000833F29F40E94ED25809316050895893F3E
:104C500019F40E94CB2505C08A3F31F40E94CB2570
:104C600081958093180508958B3F21F40E94CB25F0
:104C7000819504C08C3F29F40E94CB2580931905AF
:104C800008959CE0980F953078F421E030E0A90178
:104C900002C0440F551F9A95E2F7CA01909115057D
:104CA000892B8093150508958D3F21F480910F0580
:104CB00081600BC08E3F21F480910F05826005C09A
:104CC0008F3F29F480910F05846080930F0508952C
:104CD00008958091AC04089580932A0570932C0563
:104CE00060932B058091CF048430F9F48093E90020
:104CF0008FEF9091E800815095FD06C095ED9A9553
:104D0000F1F700008111F5CF8091E80085FF0DC01B
:104D100040E050E063E070E08AE295E00E94ED1D23
:104D20008091E8008E778093E8000895BC0184E0CC
:104D30000E946C260895BC0183E00E946C260895B1
:104D400024E02093E9002FEF3091E800215035FD59
:104D500006C035ED3A95F1F700002111F5CF20910D
:104D6000E80025FF0BC040E050E066E070E00E94E4
:104D7000ED1D8091E8008E778093E8000895CF9331
:104D8000DF9320911201222339F02091280527FF7B
:104D900003C060E224E002C068E021E02093E90063
:104DA0002FEF3091E800215035FD06C035ED3A95E2
:104DB000F1F700002111F5CF2091E80025FF1DC07B
:104DC000EC0180911201811105C040E050E068E0E3
:104DD00070E003C070E040E050E0CE010E94ED1DA5
:104DE0008091E8008E778093E80080E2FE01ADEAD2
:104DF000B4E001900D928A95E1F7DF91CF9108958B
:104E00001F920F920FB60F9211242F933F934F933F
:104E10005F936F937F938F939F93AF93BF93CF9342
:104E2000DF93EF93FF93C091E900CF708091EC0086
:104E3000D82FD17080FDD0E81092E9008091F00069
:104E4000877F8093F00078940E94171E1092E900EB
:104E50008091F00088608093F000CD2BCF70C093DC
:104E6000E900FF91EF91DF91CF91BF91AF919F91B9
:104E70008F917F916F915F914F913F912F910F9003
:104E80000FBE0F901F901895E8EDF0E080818E7FA7
:104E900080831092E2001092DA001092E100A0EEFE
:104EA000B0E08C9181608C9380818F77808319BC76
:104EB000A7EDB0E08C918E7F8C9380818F7E808374
:104EC00010922D0508952091E4003091E50095E6BB
:104ED0004091EC00842F817040FF23C08091E80056
:104EE00080FD1DC08091CF04882399F0853099F012
:104EF0008091EB0085FD11C04091E4005091E500E8
:104F00002417350729F3915011F09A01E1CF84E07D
:104F1000089582E0089583E0089581E0089580E097
:104F200008954091E80042FFDDCF08958091D104BB
:104F300087FF11C08091E80082FD05C08091CF04F9
:104F40008111F8CF11C08091E8008B770BC0809160
:104F5000CF04882349F08091E80080FFF8CF80914A
:104F6000E8008E778093E8000895982F973068F5D1
:104F70009093E900981739F07091EC002091ED00C2
:104F80005091F00003C0242F762F50E021FD02C085
:104F90009F5FECCF3091EB003E7F3093EB00309180
:104FA000ED003D7F3093ED003091EB0031603093A8
:104FB000EB007093EC002093ED005093F0002091F3
:104FC000EE0027FDE5CF80E008958F708093E90023
:104FD00081E00895A0E0B0E0E0EFF7E20C949230B9
:104FE000C8EDD0E088818F7E8883E7EDF0E0808196
:104FF0008160808384E082BF81E080932D05888179
:105000008E7F888302EE10E0F80110821092DA00A1
:1050100081EEC82ED12CF601108288818F7788838B
:1050200088818068888388818F7D888319BC1092ED
:10503000CF041092D0041092CE041092CD0490EEC2
:10504000E92EF12CF70180818B7F8083888181603C
:10505000888342E060E080E00E94B527F60180810D
:105060008E7F8083F8018081816080838081886069
:105070008083F70180818E7F80838881806188832F
:10508000CDB7DEB7E8E00C94AE301F920F920FB6AA
:105090000F9211242F933F934F935F936F937F93BE
:1050A0008F939F93AF93BF93EF93FF938091E10012
:1050B00082FF09C08091E20082FF05C08091E1007B
:1050C0008B7F8093E1008091DA0080FF2AC080917D
:1050D000D80080FF26C08091DA008E7F8093DA00AE
:1050E0008091D90080FF18C080E189BD82E189BD2F
:1050F00009B400FEFDCF81E08093CF0480912D059F
:1051000081110FC00E9444270E94EA278091E2008B
:1051100084608093E20005C019BC1092CF04109205
:105120002D058091E10080FF17C08091E20080FF93
:1051300013C08091E2008E7F8093E2008091E200B4
:1051400080618093E2008091D80080628093D800D3
:1051500019BC85E08093CF048091E10084FF30C0CA
:105160008091E20084FF2CC080E189BD82E189BD8D
:1051700009B400FEFDCF8091D8008F7D8093D800C8
:105180008091E1008F7E8093E1008091E2008F7E2C
:105190008093E2008091E20081608093E200809140
:1051A000D004882311F084E007C08091E30087FDDC
:1051B00002C081E001C083E08093CF048091CF04DE
:1051C0008091E10083FF27C08091E20083FF23C02C
:1051D0008091E100877F8093E10082E08093CF049B
:1051E0001092D0048091E1008E7F8093E100809145
:1051F000E2008E7F8093E2008091E20080618093E4
:10520000E20042E060E080E00E94B5278091F0007B
:1052100088608093F000FF91EF91BF91AF919F91D3
:105220008F917F916F915F914F913F912F910F904F
:105230000FBE0F901F9018952091D7043091D8047D
:105240002617370748F06115710539F42091E800F9
:105250002E772093E80001C0B901FC0120E0611520
:10526000710579F18091CF048823F1F18530F1F156
:105270008091E80083FD3CC08091E80082FD2EC053
:105280008091E80080FFEBCF2091F3008091F20045
:1052900090E0922B6115710551F08830910538F43A
:1052A00021912093F100615071090196F3CF21E023
:1052B000089709F020E08091E8008E778093E8005D
:1052C000CECF2111CFCF0AC08091CF04882361F0C7
:1052D000853061F08091E80083FD0AC08091E8008C
:1052E00082FFF2CF80E0089582E0089583E0089580
:1052F00081E0089581E08093E00080E28093D8000F
:105300001092C9008FE19EE40197F1F700C0000000
:1053100087E090EBDC0180932B0690932C06A09302
:105320002D06B0932E069CE088E10FB6F894A89560
:10533000809360000FBE90936000FFCF78941F921F
:105340000F920FB60F9211248F939F93AF93BF9339
:105350008091240590912505A0912605B0912705FF
:105360000196A11DB11D8093240590932505A0935E
:105370002605B0932705BF91AF919F918F910F9014
:105380000FBE0F901F9018959C014FB7F894809115
:10539000240590912505A0912605B09127054FBFC2
:1053A000821B930B08952FB7F89460912405709198
:1053B000250580912605909127052FBF08952FB7C9
:1053C000F8948091240590912505A0912605B0912F
:1053D00027052FBF08951F920F920FB60F92112429
:1053E0008F939F93AF93BF9380912305811113C037
:1053F0008091240590912505A0912605B09127055F
:105400004196A11DB11D8093240590932505A0937D
:105410002605B0932705BF91AF919F918F910F9073
:105420000FBE0F901F901895209112012223C9F0F2
:105430002091280527FF15C0262F2695269526950D
:105440002E31C8F4FC01E20FF11D677081E090E09D
:1054500001C0880F6A95EAF780959281892382833B
:105460000895FC0106962281621301C012823196D2
:10547000E817F907C1F70895209112012223C1F01E
:105480002091280527FF14C0262F269526952695BE
:105490002E3130F5FC01E20FF11D677081E090E0E4
:1054A00001C0880F6A95EAF79281892B828308955B
:1054B000FC0132962FEF30E04191641789F02F3FC5
:1054C00019F4411101C0232F3F5F3630A9F72F3F58
:1054D00039F0FC01E20FF11D27FDFA956283089572
:1054E000089520912105309122052817390771F080
:1054F0009093220580932105E0911F05F0912005EE
:10550000309721F00084F185E02D099508952091D0
:105510001D0530911E052817390771F090931E055F
:1055200080931D05E0911F05F0912005309721F033
:105530000680F781E02D09950895E0911F05F0910F
:105540002005309729F00190F081E02D099508950C
:1055500080E008950F931F93CF93DF93C42FD22F32
:10556000FC0182818823B1F040931C050E94DF2951
:1055700090931B0580931A0580E28C0F883008F009
:105580004DC0C77081E001C0880FCA95EAF70E943C
:105590006D2E44C080911C05481330C080911A05BF
:1055A00090911B050E94C429883C910538F510E2B2
:1055B0001D0FCD17B9F080E28C0F883040F4C77012
:1055C00081E001C0880FCA95EAF70E94662E183064
:1055D00010F581E09D2F977001C0880F9A95EAF72A
:1055E0000E946D2E802F0E94232F1830B8F4D770A0
:1055F00081E001C0880FDA95EAF70AC080E28C0FDB
:10560000883060F4C77081E001C0880FCA95EAF75E
:105610000E94662E03C0802F0E94232FDF91CF911E
:105620001F910F910895CF93DF93CFE7D2E060E011
:10563000CE010E94CC2F2196C11584E0D807B9F77E
:10564000DF91CF910895843048F4753038F46F308D
:1056500028F4462F672F0E94E72B089580E090E002
:105660000895A0E0B0E0E7E3FBE20C949030A12CB9
:10567000E12CF12CB12C00E010E0C0E0D0E067019B
:10568000C00ED11EFE01EE0FFF1FEC0DFD1DEB53F2
:10569000FB4F259134914C2F6B2D8A2D0E94C02BEE
:1056A0002196CF30D10571F7025E1F4FB39485E08C
:1056B000B812E3CF86E9E80EF11CA39484E0A812A7
:1056C000D9CFCDB7DEB7EAE00C94AC30EFE2F5E02D
:1056D00096E0ED30F90729F08183608342833396A9
:1056E000F7CF0895FC01EE0FFF1F8E0F9F1FFC01E7
:1056F000E15DFA4F6183408322830895EDEDF4E08C
:10570000248130E1231B08F420E0248380912E05BE
:10571000816080932E050895EDEDF4E0248130E161
:10572000230F08F42FEF248380912E05816080934E
:105730002E0508956A9A8EB18B7F9EB194602FB723
:10574000F894EFE2F5E036E0ED30F30789F03191BF
:1057500048E09EB9000000C037FF8EB9330F00004B
:1057600000C000C000C08EB900C04A9591F7EBCFD1
:105770002FBF8FE594E00197F1F700C00000089576
:105780001F93CF93DF93962F8430E8F46530D8F4DD
:105790004F30C8F4632F122FC42FD0E0CC0FDD1F81
:1057A0002EE1929FC00DD11D112496E9899FC00D55
:1057B000D11D1124CE0187960E94CC2F612FCE01DE
:1057C00088960E94CC2FDF91CF911F9108950F935F
:1057D0001F93CF93DF93843008F56530F8F44F3092
:1057E000E8F4C42FD0E0CC0FDD1F2EE1629FC00D86
:1057F000D11D112436E9839FC00DD11D1124CE0186
:1058000087960E94AE2F90E0182F0027CE01889631
:105810000E94AE2F9801282BC90102C080E090E0C1
:10582000DF91CF911F910F91089586E290E00E9441
:10583000CC2F0895CF93C82F811102C06FEF01C004
:1058400062E283E290E00E94CC2FC11102C06FEFB0
:1058500001C067E084E290E00E94CC2FC11102C039
:105860006FEF01C064E185E290E00E94CC2FCF9100
:10587000089580E00E941A2C60E070E0CB010E9445
:10588000152C0E94312B0E94132B81E00E941A2CB0
:10589000089583E290E00E94AE2F823281F484E288
:1058A00090E00E94AE2F873051F485E290E00E9494
:1058B000AE2F91E0843109F090E0892F01C080E0A3
:1058C00081700895882311F0FA0101C0FB01099548
:1058D00008951F93CF93DF93FC01ED5AFD4F208174
:1058E0006223B9F0EC010E948E2F182F0E948E2F98
:1058F0008F77782F20E8720F08F47FEF612F809167
:10590000E0040E94A024462F282F672FCE010E947A
:10591000B123DF91CF911F910895A0E0B0E0E3E9BA
:10592000FCE20C949330EC01FC01ED5AFD4F9081A8
:10593000692349F1D090DF040091E0041091DE0466
:10594000E12EF12C0E948E2F282FC7018C549F4FDF
:1059500068E671E00E9467308E199F0997FD0396F3
:1059600095958795959587952370612F289F600D54
:1059700011247D2D802F0E94A024462F282F672FD1
:10598000CE010E94B123CDB7DEB7E7E00C94AF3073
:105990009091DD04937071F08093DE046093DF04D6
:1059A0004D3808F04CE84093E00480912E05282BF8
:1059B00020932E050895EDEDF4E0438120E1421B94
:1059C00008F440E0818121E0628190E00E94C82CCF
:1059D0000895EDEDF4E0438120E1420F08F44FEF2C
:1059E000818121E0628190E00E94C82C0895EDED54
:1059F000F4E0628120E1621B08F460E0818121E033
:105A0000438190E00E94C82C0895EDEDF4E062819E
:105A100020E1620F08F46FEF818121E0438190E083
:105A20000E94C82C0895EDEDF4E0818190E021E022
:105A30004381628108970E94C82C0895EDEDF4E03F
:105A4000818190E021E04381628108960E94C82C08
:105A500008959091DD049370A1F0811102C09460CB
:105A600007C08B3210F0986A03C0880F880F982BFC
:105A70009093DD041092180180912E05682B60939D
:105A80002E0508958091DD0486958695815009F450
:105A90008AE261E00E94292D08958091DD048695B7
:105AA00086958F5F8B3208F081E061E00E94292D9E
:105AB000089580E090E00E94872A80E090E00E94B4
:105AC000712A1092A4040E94D418E4E1F5E086E063
:105AD000DF011D928A95E9F710920E0510920D05CF
