:100000000C945F040C9497040C9497040C9497043C
:100010000C9497040C9497040C9497040C949704F4
:100020000C9497040C9497040C947B160C94BC15B8
:100030000C9497040C9497040C9497040C949704D4
:100040000C9497040C945E1C0C9497040C949704E5
:100050000C9497040C94DD190C9497040C94970459
:100060000C9497040C9497040C9497040C949704A4
:100070000C9497040C9497040C9497040C94970494
:100080000C9452210C9497040C9497040C949704AC
:100090000C940C2E0C949704970A970ACA0ACA0A61
:1000A000400B610C610C610C5E0BD20BE30BE30B9C
:1000B0007E108010A710B410BB10C610C9101A1102
:1000C0005111F211F2116011621166118A11AB1116
:1000D000AE11B111D311D713FE13A415FE13A4153D
:1000E0004A146D14A4155F156F15F62FF92FFF2F05
:1000F0001230ED30C4312C3159318A310763423628
:10010000B79BD8A71A39685618AEBAAB558C1D3CA8
:10011000B7CC5763BD6DEDFD753EF6177231BF006C
:100120000000803F08000000BE922449123EABAAA6
:10013000AA2ABECDCCCC4C3E00000080BEABAAAA01
:10014000AA3E00000000BF000000803F0000000049
:1001500000084178D3BB4387D1133D190E3CC3BD82
:100160004282AD2B3E68EC8276BED98FE1A93E4C2F
:1001700080EFFFBE01C4FF7F3F00000000000000D1
:10018000000000000000000000000000000000006F
:10019000000000000000000000000000000000005F
:1001A00000007E0F00D4FFFFFFC7000000780000B2
:1001B0000000000000002A2B2800000000000000C2
:1001C00000000000000000000029000000002C1EBC
:1001D0003420212224342627252E362D3738271E79
:1001E0001F202122232425263333362E37381F049F
:1001F00005060708090A0B0C0D0E0F101112131437
:1002000015161718191A1B1C1D2F3130232D3504F4
:1002100005060708090A0B0C0D0E0F101112131416
:1002200015161718191A1B1C1D2F3130354C0004D8
:100230007F3F1F643214643214783C1E1E140A057A
:1002400005010980A101850319012AB700150126BE
:10025000B700950175108100C0050C0901A1018549
:100260000419012AA002150126A00295017510812A
:1002700000C005010906A1018506050719E029E767
:10028000150025019508750181020507190029EF60
:100290001500250195F07501810205081901290550
:1002A000950575019102950175039101C00660FFE6
:1002B0000961A1010962150026FF009520750881DA
:1002C000020963150026FF00952075089102C005FC
:1002D000010906A101050719E029E7150025019587
:1002E000087501810295017508810105071900292A
:1002F000FF150026FF009506750881000508190105
:100300002905950575019102950175039101C009B3
:10031000025B00030100A0FA0904000001030101CF
:100320000009211101000122400007058103080096
:10033000010904010002030000000921110100016C
:100340002222000705820320000107050303200085
:10035000010904020001030000000921110100014C
:10036000226D000705840320000112010002000035
:100370000008464C38370100010200010C034C0014
:1003800046004B0037003800000018034C004600C0
:100390004B006500790062006F006100720064002C
:1003A0007300000004030904FFAA7F55402223259F
:1003B0002628292A2C2D2F3032333536383A3B3D2A
:1003C0003E4042434547494A4C4E50515355575978
:1003D0005A5C5E6062646668696B6D6F7173757795
:1003E000797B7D7F81838587898A8C8E9092949694
:1003F000989A9C9E9FA1A3A5A7A8AAACAEAFB1B3A3
:10040000B4B6B8B9BBBCBEBFC1C2C3C5C6C7C9CAF2
:10041000CBCCCDCED0D1D2D2D3D4D5D6D7D7D8D9B4
:10042000D9DADADBDBDBDCDCDCDCDCDDDDDDDDDC12
:10043000DCDCDCDCDBDBDBDADAD9D9D8D7D7D6D524
:10044000D4D3D2D2D1D0CECDCCCBCAC9C7C6C5C3E6
:10045000C2C1BFBEBCBBB9B8B6B4B3B1AFAEACAA33
:10046000A8A7A5A3A19F9E9C9A98969492908E8CE3
:100470008A89878583817F7D7B79777573716F6DBD
:100480006B6968666462605E5C5A59575553515097
:100490004E4C4A4947454342403E3D3B3A3836354B
:1004A0003332302F2D2C2A29282625232200000024
:1004B0000000000000000000010204060A0F1720DF
:1004C0002C3A4A5D71879DB3C7DAE9F5FCFFFCF56C
:1004D000E9DAC7B39D87715D4A3A2C20170F0A06E7
:1004E000040201000000000000000000003A003B90
:1004F00000165C1E001F00200021002200230024A3
:10050000002500260027002D002E002A0049004B60
:10051000003C003D002B0014001A000800150017D5
:10052000001C0018000C00120013002F00300031D6
:10053000004C004E003E003F00390004001600074A
:100540000009000A000B000D000E000F00330034FC
:1005500000280000000000000040004100E1000011
:10056000001D001B000600190005001100100036D8
:100570000037003800E50000005200000042004350
:1005800000E000E300E2000000000000002C00009A
:100590000000000000E600E4000151500051004F4F
:1005A000000100010035003A003B003C003D003EE8
:1005B000003F004000410042004300440045004C21
:1005C0000001004A000100010001004A0052004DF4
:1005D000004B0001000100010001000100010001C9
:1005E000000100010001004D000100010001005068
:1005F0000051004F004E0001005000510052004FCA
:1006000000010001000100000000000000010001E5
:1006100000010000000100010001000100010001D3
:1006200000A800AA00A90001000253000001000078
:1006300000010001000100010001000000000000B5
:10064000002800000000000000010001000100017E
:100650000001000100010001000100010001000192
:10066000000100010001000100010001000100BDC6
:100670005CBE5CBF5CC25CC95C01000100295C011E
:100680000001000100010001000100010001000162
:10069000000100010001000100C35CCA5C0100010F
:1006A000001F5C01000100010001000100010001C8
:1006B000000100010001000100005C0000000000DA
:1006C0000001000100010000000100010001000123
:1006D0000001000100285C01000100010001000090
:1006E00000C55C00000100010001000100010000E4
:1006F00000000000000100000000000000010001F7
:10070000000100C85CC65CC75C010001000100017B
:1007100000010001000100010001000100010001D1
:10072000000100BD5CBE5CBF5CC25CC95C01000135
:1007300000295C010001000100010001000100012D
:1007400000010001000100010001000100C35CCABA
:100750005C010001001F5C010001000100010001BB
:1007600000010001000100010001000100005C0027
:100770000000000000010001000100000001000174
:10078000000100010001000100285C0100010001DE
:100790000001000000C55C00000100010001000133
:1007A0000001000000000000000100000000000047
:1007B00000010001000100C85CC65CC75C000101CB
:1007C0000101010101010102020202020202020210
:1007D00003030303030303030404040404040405E0
:1007E00005050505060606060607070707070808A4
:1007F0000808090909090A0A0A0B0B0B0C0C0C0D55
:100800000D0D0E0E0E0F0F0F1010111111121213ED
:10081000131414151516161717181819191A1A1B68
:100820001B1C1D1D1E1E1F202021222223242425C7
:100830002626272829292A2B2C2D2D2E2F30313200
:1008400032333435363738393A3B3C3D3E3F404110
:1008500042434445464748494A4C4D4E4F505153F8
:1008600054555658595A5B5D5E5F616264656668AF
:10087000696B6C6D6F7072737577787A7B7D7E8033
:1008800082838587888A8C8E8F91939596989A9C7F
:100890009EA0A2A3A5A7A9ABADAFB1B3B5B7BABC93
:1008A000BEC0C2C4C6C9CBCDCFD1D4D6D8DBDDDF64
:1008B000E2E4E7E9EBEEF0F3F5F8FAFDFF001124CE
:1008C0001FBECFEFD0E1DEBFCDBF04B603FE18C020
:1008D0008091850790918607A0918707B09188073E
:1008E0008730904BA740B04B59F410928507109277
:1008F00086071092870710928807E0E0F8E70995CD
:1009000015E0A0E0B1E0E6EBF3E702C005900D9240
:10091000AE34B107D9F727E0AEE4B5E001C01D92CF
:10092000A538B207E1F70E945C0D0C94D9390C94FC
:100930000000A8E2B0E0EFE9F4E00C943938FC01E3
:100940008081918123813481232B31F09F3F31F4C9
:1009500091E08F3F19F403C091E001C090E090FF57
:1009600002C00C94580D7F0185E0DE019496019041
:100970000D928A95E1F7D70112962C918CA19DA139
:10098000222349F00E944223182F682F8CA19DA199
:100990000E94592503C00E942525182F6CA17DA116
:1009A000812F0E94B71B8C01F7018281882309F4F3
:1009B000F8C0980122513F452031310508F00EC1A1
:1009C0008FEF97E00E9429338111F5C0025157EF54
:1009D000852E52E0952E002379F08114F8E09F06D1
:1009E00009F4E9C0C4010E942933811101C00150FA
:1009F0002FEF821A920AEFCF19821A821B821C8271
:100A0000442443944AE0342E84010F5F1F4FC401F5
:100A10000E94293389831A82882309F4CCC09FEF6E
:100A2000980F933060F48A83498232E0830E911CE0
:100A3000C8010E9429338B83811102C0BCC04801C8
:100A40008E010F5F1F4FD8012C912223E9F2213034
:100A500009F04FC011968C91813049F46801B2E0E1
:100A6000CB0ED11CF80182810E94EB260BC0823094
:100A700059F46801F2E0CF0ED11CD80112968C9186
:100A80000E94312686018AC0833049F46801B2E0B1
:100A9000CB0ED11CF80182810E94D825F3CF84307F
:100AA00019F00F5F1F4F7AC0D80112962C910E5F7C
:100AB0001F4F80E090E030E0205331092A303105AB
:100AC00068F4389EA001399E500D1124C901840F8D
:100AD000951F0F5F1F4FF8012081EDCF009709F49C
:100AE0005DC0AFE9BFE01197F1F700C000000197CA
:100AF000F5CFE22FF0E0E255FE4F5490822F86951D
:100B00008695869590E0FC01E256FE4F6490277032
:100B1000712C022E02C0759467940A94E2F7B1E03A
:100B20006B227724FC01E257FE4FA490B12C022ED9
:100B300002C0B594A7940A94E2F7E1E0AE22BB2488
:100B4000FC01E258FE4FC490D12C02C0D594C7944A
:100B50002A95E2F7F1E0CF22DD246114710419F047
:100B600081EE0E943126A114B10419F086EE0E9494
:100B70003126852D0E94EB26A114B10419F086EED2
:100B80000E94D8256114710419F081EE0E94D825C5
:100B9000C114D10419F08CE20E94EB260F5F1F4FA5
:100BA00052CF0031FFE51F0709F0ABC681E00E947C
:100BB00093250E9497328091D306877009F478C7F5
:100BC000D70112968C91882309F472C7809142064E
:100BD00082FF6EC782E00E94802B6AC70031BFE5AA
:100BE0001B0711F481E005C00131EFE51E0721F478
:100BF00082E00E94A025DDCF0115BCE51B0799F41A
:100C000010928900109288008FEF9FE090938B00E4
:100C100080938A0090938D0080938C000E945F2DBA
:100C20000E94B91928C00D312CE5120729F4882338
:100C300011F10E94C31FBFCF0E313CE5130729F409
:100C4000882391F10E94A81FB6CF0F315CE51507EC
:100C500039F4882349F18091310780FDF3CFE9CF42
:100C60000A329CE5190739F48823F1F080913407A2
:100C700090E001960CC00B32ACE51A07A9F4F7011D
:100C80008281882389F08091340790E0089669E09A
:100C900070E00E9408388093340764E070E08AE0D6
:100CA00091E00E94203287CFF7019281992309F4C5
:100CB0008EC00D3BFCE51F0701F158F40B3B3CE5F2
:100CC000130799F00C3B5CE5150709F080C080E044
:100CD0000DC00F3B8CE5180709F45EC008F443C053
:100CE000003CBCE51B07C9F072C088E00E94181CDC
:100CF000809133060E94121C5ECF80913306982F9C
:100D000096959695969549F1915E990F990F990F41
:100D10008770892B8093330614C090913306892FF6
:100D20008695869586958F5F8F719770893008F0CC
:100D30004BC0880F880F880F892B809333068091D2
:100D40003306887F91E009F490E08091330690FBB0
:100D500080F9809333060E94121C80913306869599
:100D60008695869523C020913306822F8695869599
:100D70008695482F50E04830510554F48F5F982FE6
:100D8000990F990F990F822F8770892B80933306C3
:100D9000809133068160DDCF8091330680FF09C0EA
:100DA0008E7F809333060E94121C80E00E94B02D3B
:100DB00002CF816080933306813019F489E08093FB
:100DC000330680913306C7CF90933306B8CF0632EF
:100DD000FCE51F0731F4992309F456C00E94661FF1
:100DE000EACE0732ECE51E0731F4992309F44CC032
:100DF0000E949D1FE0CE0832FCE51F0741F49923B5
:100E000009F442C080914F068111F2CFE7CF0C3236
:100E10002CE5120729F49923B9F10E945C1FCBCE6F
:100E20000D323CE5130749F4992371F110925006F5
:100E300068E070E08AE291E034CF0E325CE515079D
:100E400039F4992309F1809150068111EFCFE5CF54
:100E500009328CE51807C1F49923B1F00E94971F5D
:100E600020910A0230E02F5F3F4F237033272093F9
:100E70000A0248E2429FC001439F900D112465E0A1
:100E800070E086599E4F0DCF40914F06411105C02D
:100E900080915006882309F4C4C0992309F44BC0FB
:100EA000003E110561F40E94971F81E08093510577
:100EB000109250051092910510928D057CCE023E45
:100EC000110571F40E94971F80915105882319F034
:100ED00081E08093500510925105109291056BCEE0
:100EE000033E110591F480915005882321F10E9461
:100EF000971F1092510581E08093910510928E0505
:100F00001092900510928F0556CE0235110531F4DE
:100F100080917702909178020A9708C001351105F7
:100F200051F480917702909178020A96909378021A
:100F30008093770240CE80910A0281110DC0D701C3
:100F400011968C91119725E030E0281B31098C9186
:100F5000805FD82EBCE01DC0813069F4F70181812B
:100F600025E030E0281B3109D22EDD0CDD0CD20E3D
:100F700080818D5C31C0823081F4D70111968C91D3
:100F8000119725E030E0281B31098C918D5CD82E1B
:100F9000B7E02B9FD00C112423C08330F9F483E2F7
:100FA000EEE9F3E0DE01119601900D928A95E1F7EA
:100FB000F7018081FE01E80FF11DD70111968C9198
:100FC00025E030E0281B3109D0848D2DBCE02B9F1B
:100FD000800D112439E0D32ED80E02C02CE0D22E81
:100FE0009923A1F0442319F08D2D0E942E23809186
:100FF0005105882391F080918D05E82FF0E0E358AA
:10100000FA4FD0828F5F80938D0507C0442329F06B
:101010008D2D0E940F230E94DD200F3F110508F443
:10102000CACD033F2CE5120799F406E221EE40EE0B
:1010300063EF7CE509C0073D9CE5190711F506E261
:1010400021EE41EE67ED7CE5C7010E94B41AB3CDF5
:10105000043F3CE5130708F087C1083D5CE5150730
:1010600031F407E225EE45EE68ED7CE5EDCF093D74
:101070008CE5180701F708E221E045EE69ED7CE513
:10108000E3CFF7018281882309F4A3C110923606C9
:101090000330FDE51F0758F40A3F2CE5120780F4E2
:1010A000C80182509C45449708F07DC109C00136B3
:1010B0003DE5130729F0053A5DE5150709F073C111
:1010C0000E94962A909342068093410601318CE556
:1010D000180709F4D1C008F046C00930ACE51A077A
:1010E00009F4A8C008F50530ECE51E0709F490C026
:1010F00080F403302CE5120709F482C008F084C0A4
:1011000002305CE5150709F01FC18091410681603E
:1011100019C107308CE5180709F484C008F086C0AF
:101120008091410680610EC10D30ACE51A0709F4CB
:101130008FC070F40B30ECE51E0709F481C008F095
:1011400083C0809141068860846080934106B5C069
:101150000F302CE5120709F487C008F089C0809190
:101160004106877FEFC00D3F5CE5150709F478C0A5
:1011700010F505319CE5190709F490C068F40331B6
:10118000BCE51B0709F47CC008F0BAC00E94B12579
:10119000809141068F77D6C00B3FFCE51F07E1F138
:1011A00008F05AC00A3F3CE5130709F0CDC0809112
:1011B0004206816034C001305DE5150709F4ACC01A
:1011C00070F40F3F9CE5190709F461C008F07FC077
:1011D00080914206826081608093420685C001361C
:1011E000BDE51B0709F49EC0053AEDE51E0709F4AD
:1011F000A3C00230FDE51F0709F0A6C060E08DC066
:101200008091410682609EC08091410684609AC0B0
:1012100080914106886096C08091420682608093EA
:10122000420692C08091410680628CC08091410646
:10123000806488C00E94B12580914106806882C088
:10124000809141068E7F7EC0809141068D7F7AC05D
:10125000809141068B7F76C0809142068E7FDFCFE2
:10126000809142068D7FDBCF809141068F7E6AC0E0
:10127000809141068F7D66C0809141068F7B62C060
:1012800080914106877F8B7F809341061BC08091B0
:1012900042068D7F8E7F809342062BC0809141064F
:1012A00082FB222720F991E0922790FB82F990FBA4
:1012B00083F980934106992329F064E070E08BE480
:1012C00092E01BC062E070E08BE192E016C080917A
:1012D0004206982F909591708E7F892B90FB81F913
:1012E00080934206992329F064E070E08BE292E05B
:1012F00004C062E070E08BE092E00E94203224C0E3
:101300000E94B1258091410687FB222720F991E0B8
:10131000922790FB87F916C061E08EE090E00E9472
:101320003D3312C08091410684FB222720F991E0D1
:10133000922790FB84F906C080914106982F9095E2
:1013400090FB80F98093410660914106109142061E
:1013500084E090E00E943D33612F82E290E00E94A1
:101360003D330E94B12527CC053FACE51A0731F487
:1013700006E221EE42EE65EF7CE566CE053FBCE578
:101380001B0730F407E225EE44EE64EF7CE55CCE0B
:10139000063FECE51E0709F074CE07E225EE46EEA7
:1013A00066EF7CE551CE0631FCE51F0719F580910B
:1013B000F5068A7A91E009F490E09093520588232B
:1013C00011F065E301C069E28BE796E00E94461ADE
:1013D0000EC006313CE51307F1F5809152058823D4
:1013E00009F496C265E38BE796E00E941E1A0E94FC
:1013F0002B2BE1CB0A35ADE51A0739F160F4011565
:10140000ECE51E0791F00E3DFCE51F0709F040C01A
:101410000E94B32A0FC00C352DE5120771F0B8F009
:10142000073A5DE5150731F033C00E945F2D0E9439
:10143000B919C1CB0E94802DBECB8091420682FBA0
:10144000882780F991E0892703C081E001C080E00E
:101450000E949D2B1DC08091F50682720C3C2CE5EC
:10146000120709F405C308F088C2063C5CE51507BD
:1014700009F4EAC208F05DC2033CACE51A0709F4BE
:10148000D9C208F047C2023CECE51E0709F4ADC220
:10149000D70112968C9112970D911C91882349F0D7
:1014A000C8010E944223D82E682FC8010E945925E6
:1014B00004C0C8010E942525D82EB8018D2D0E9498
:1014C000B71B0E940D29B82E192F982EF701028103
:1014D000A580A2949FE0A9228091D3068770B9F0DD
:1014E0000023A9F0812F807F803421F080E28B0DD2
:1014F000883068F08091420682FF09C082E00E9435
:10150000802B8091D3068770DD24D3948111D12C58
:10151000C12EC2948FE0C8228C2D90E08C309105B2
:1015200008F0CFC1FC01E45BFF4F0C941C38812F05
:10153000807F1F70882311F01295107F0023B9F06F
:10154000112309F4ACC180E28B0D883010F09110AA
:1015500006C08091F506182B1093F50605C0809102
:10156000F406182B1093F4060E942B2B98C18B2D98
:101570000E94D825112309F4A4C180E28B0D883084
:1015800080F1992071F110958091F4061823109341
:10159000F4062AC0812F807F1F70803211F01295CF
:1015A000107F8B2D992021F0F1E09F16D9F149C0D1
:1015B0008091420682FD1BC0002369F0112339F09F
:1015C0008091F506182B1093F5060E942B2B80E0D6
:1015D0000E94312676C180E00E94D825112309F4AB
:1015E00070C1812F0E94242B0E942B2B6AC10023E3
:1015F00081F08091F606AA2051F021E0A21207C0E6
:10160000182B181709F45DC11093F6065AC1812BE7
:1016100010C0AA2021F031E0A31609F452C10E94A3
:101620001E2B2AC0002341F055E05A1508F449C189
:10163000812F0E94CE2545C184E08A1508F441C15E
:101640001BC0002361F0AA2099F3D70115968C9155
:10165000159780FF24C18F7015968C93E9CFAA202F
:1016600059F0893309F02AC1BFEFE7EEF3E0B1503A
:10167000E040F040E1F720C1812F0E94C72521C141
:10168000812F86958695837019F0813061F019C19C
:10169000002321F08B2D912F937002C080E090E009
:1016A0000E94911A14C1002321F08B2D912F937069
:1016B00002C080E090E00E947B1A09C1812F8370F4
:1016C000A9F5011102C14B2D429546954770440F73
:1016D000440F8B2D8F7090E09C01042E01C0220FCF
:1016E0000A94EAF7B4FE08C08FE090E001C0880FCA
:1016F0004A95EAF7809501C080E01695169513701B
:10170000123069F088F49091F706113019F0822BAD
:10171000892302C0922B892B0E94AC25D6C0822B34
:101720009091F7068927F8CF822BF6CF002319F086
:10173000812F817001C08695882309F4C6C04B2D86
:10174000429546954770440F440F8B2D8F7090E063
:101750009C01042E01C0220F0A94EAF7B4FE08C0CF
:101760008FE090E001C0880F4A95EAF7809501C0AC
:1017700080E0169516951370123059F078F4909118
:101780002107113019F0822B892309C0922B892B54
:1017900006C0822B90912107892701C0822B0E94CD
:1017A0008E2593C01F70002339F0812F0E94A02541
:1017B0008B2D0E94CE2589C08B2D0E94C725812F9D
:1017C0000E94932582C08B2D22EF921681F129155C
:1017D00038F030EF931659F051EF951619F15BC0C0
:1017E00093EF991659F1A4EF9A16C1F054C0002353
:1017F00081F0B4E0BA1508F464C01F7181E090E094
:10180000012E01C0880F0A94EAF7909121078927D9
:1018100020C0E5E0EA1508F454C0EFCF80914206FD
:1018200082FD1AC0002329F0812F8F7127C0002369
:10183000D9F3812F8F710E94932543C0002341F07B
:101840001F7181E0012E01C0880F0A94EAF701C0E0
:1018500080E00E948E2535C0002399F01F71812FF2
:101860000E94A0258091420682FF07C0F8E01F9FDA
:10187000C001112483608093D306812F0E94A0258C
:1018800020C081E00E94802B21E02A15D0F482E064
:101890000E94802B16C0002321F0AA2029F28B2D54
:1018A00097CEAA2031F2893349F43FEF57EE83E017
:1018B000315050408040E1F700C000008B2D0E9465
:1018C000D82588EF8C0D843010F40E94A71ADD20F3
:1018D00009F4EEC08091D30680FDEAC0D7011296CC
:1018E0001C928595859585950E94A025C7010E942B
:1018F00099048091D3068595859585950E949325B9
:10190000D7C001312FE5120709F076C982E04FC92F
:1019100069E269CD043CFCE51F0709F490C0053C71
:101920002CE5120709F0B4CD43EF5DE16DEF7DE1E9
:10193000A3C0093C3CE5130709F490C078F4073CC8
:101940009CE5190709F485C0083CACE51A0709F0C5
:101950009FCD46EE5DE169ED7DE18EC00A3CBCE5C0
:101960001B0709F480C00B3CECE51E0709F090CD85
:101970004DE25EE16FE37EE17FC0013DFCE51F07C4
:1019800009F486C0A0F40E3C3CE5130709F47AC0C4
:1019900008F475C00F3C8CE5180709F476C0003DCB
:1019A0009CE5190709F074CD6EE089E079C0043D2B
:1019B000ACE51A0709F472C068F4023DECE51E07B5
:1019C00009F469C0033DFCE51F0709F061CD61E042
:1019D00088E16BC0053D2CE5120709F464C00D35A4
:1019E0003DE5130709F4E7C853CD80912C0680FF2D
:1019F0001BC08E7F80932C0660912C0670912D0663
:101A000080912E0690912F060E941A1E1092D705E3
:101A10005FEF80E792E0515080409040E1F700C0D6
:101A200000000E948D2DC7C8816080932C0661E064
:101A300086953BC043E95EE16DE97EE11DC04DE95D
:101A40005EE163E97EE118C04DEF5DE163EF7DE1AA
:101A500013C049ED5DE166EE7DE10EC04FEB5DE147
:101A60006CEC7DE109C04CEC5DE16FEB7DE104C005
:101A70004FE35EE16DE27EE10E94951C9CC861E04F
:101A800081E013C065E082E00BC068E086E008C03A
:101A900064E18FE005C067E185E102C062E289E1AF
:101AA0000E94811C88C861E083E20E94511E83C8A5
:101AB000A896E1E10C945538A0E3B0E0E2E6FDE041
:101AC0000C94383885B7806885BF85B7806885BF36
:101AD00084B7877F84BF0FB6F894A8958091600083
:101AE000886180936000109260000FBE90E080E8F3
:101AF0000FB6F89480936100909361000FBE8AE066
:101B000097E290934F0580934E050E9400160E9425
:101B10001F168091E20084608093E20078948091A7
:101B2000CC058823A1F01091E9001F709091EC0082
:101B3000892F817090FD80E8182B1092E900809128
:101B4000E80083FD0E94F6121F701093E90082E006
:101B500084BD93E095BD9AEF97BD80936E000E947F
:101B6000F91B811102C00E94E91B01EC13E056EC45
:101B7000E52E53E0F52ED8018D918D018F3F11F0A8
:101B80000E944F27E016F106B1F706EC13E048ED8E
:101B9000E42E43E0F42EF80181918F018F3F11F084
:101BA0000E944F27E016F106B1F784E1E3E9F5E082
:101BB000DF01082F1D920A95E9F7E3E5F5E0DF0163
:101BC0001D928A95E9F783E090E00E9429338230E4
:101BD00040F061E083E090E00E943D3381E00E94AC
:101BE000AC258EEF8093800089E1809381008FEF98
:101BF0009FEF90938700809386008FEF9FE09093F4
:101C000089008093880010928B0010928A001092B5
:101C10008D0010928C00259A269A279A0E94002FF8
:101C20000E94A72A811102C00E94B32A82E090E09C
:101C30000E942933809368050E94962A9093420659
:101C4000809341060E946627EFE3FCE93197F1F7A4
:101C500000C000000E9466278091930580FF08C0A5
:101C60006FEF7FEF80E090E00E945B330E94B91934
:101C700083E090E00E9429330E94AC250E94002F4F
:101C80000E94D31F0E94321C80916705811133C0CE
:101C90000E94A72A811104C00E94B32A0E94A81E94
:101CA00088E090E00E94313360932C0670932D06FB
:101CB00080932E0690932F066E7F71F40E94A81ECB
:101CC00088E090E00E94313360932C0670932D06DB
:101CD00080932E0690932F060E94071E1092D70520
:101CE00080912C0680FF04C060E086950E94511E02
:101CF00081E08093670580918100886080938100F6
:101D0000809181008160809381008FB7F89420EDED
:101D100033E030938900209388008FBF8BE692E0F8
:101D200090933A06809339068E010F5F1F4F78011A
:101D30006E0110E1C10ED11C8091CC05853019F5E2
:101D40009091CB058091CC058530B9F48091CC057C
:101D50009923C1F30E946627E3E9F5E0819191910F
:101D6000A191B191892B8A2B8B2B09F063C327EAB0
:101D700035E02E173F0791F7E3CF0E94B1250E946F
:101D8000321C0E94A71A0E946627882359F08FB739
:101D9000F89440913D0650913E0660913F06709147
:101DA00040068FBF33E9232E35E0332EA9E6B5E098
:101DB000F10118AA1FA69FA54190519061907190C2
:101DC0004D915D916D917D91442555256625772531
:101DD000411551056105710509F446C080E0812C6B
:101DE000912C540183948A019B01082119212A21F5
:101DF0003B21012B022B032B79F189A39AA34820C5
:101E000059206A207B2081E045284628472809F48C
:101E100080E08BA30E94121A8160782F9DA38CA36F
:101E200049A15AA16BA18DA10E94C22C0FA518A98E
:101E3000000F111F000F111FF801E759FA4F8081A1
:101E40009181A281B38188269926AA26BB26808209
:101E50009182A282B38222C08F5F880C991CAA1C37
:101E6000BB1C823109F0BFCF0FA518A90F5F1F4F10
:101E700018AB0FA70530110509F09DCF8FEF8EA38A
:101E80008FA318A60E94121A8160782F9AA789A79B
:101E90004EA15FA168A58AA50E94C22C80919105E0
:101EA000882309F444C080918F0590919005009794
:101EB00081F40E94121A9093900580938F052091CF
:101EC0008E0530E02115310571F480918D0590E08B
:101ED0000BC00E94031A20917702309178022817D4
:101EE000390738F324C0C9010197F901E358FA4FC3
:101EF000108120914F06222341F0FC01E358FA4F54
:101F000080810E940F230E94DD2080914F0688234C
:101F100019F0812F0E942E2380918E0590E001966A
:101F200060918D0570E00E94083880938E05809145
:101F3000D705882309F493C08091D605E0912C063B
:101F4000E695E81BE0935306823059F4F0E0E45C38
:101F5000FD4FE4910E2F10E0BBE7AB2EB9E1BB2E95
:101F600059C0863059F4F0E0E75CFD4FE4910E2F44
:101F700010E0ABE6AA2EA9E1BA2E4CC0893061F47C
:101F8000E695F0E0EA5CFD4FE4910E2F10E0F7EDEE
:101F9000AF2EF7E1BF2E3EC08F3061F4E695F0E042
:101FA000ED5CFD4FE4910E2F10E0E5E0AE2EE9E18F
:101FB000BE2E30C0853159F4F0E0E05DFD4FE49174
:101FC0000E2F10E074EBA72E78E1B72E23C08831D6
:101FD000A1F0833249F4EEE2F2E0059114916DEA4A
:101FE000A62E6CE1B62E16C0843271F000ED17E01B
:101FF00051E9A52E57E1B52E0DC008E210E049E3E6
:10200000A42E48E1B42E06C004EF11E031E0A32E67
:1020100038E1B32E80915406882361F01092540663
:102020000E94121A909352068093510610925606FF
:10203000109255060E94121AE0915106F091520634
:102040008E1B9F0B8F3F9F4750F40E0F1F1F109347
:1020500052060093510681E596E0F50109950E942C
:10206000A71A909192058913809392058091CC05CF
:10207000843009F061CE83E08093E9008091E8002C
:1020800082FF5ACE8091E80085FF22C00E945E1731
:1020900081111CC000E210E09E012F5F3F4F5901EB
:1020A00008C08091F100D5018D935D0101501109A7
:1020B00069F08091E80085FDF4CF8091E8008B778E
:1020C0008093E8000E945E17882399F391E001C095
:1020D00090E08091E8008B778093E800992309F4E1
:1020E0002BCEE9818E2F90E0FC013197E331F10591
:1020F00008F078C1E85AFF4F0C941C381A82E4C0EB
:102100008A81823009F4AEC1833089F0813009F0D0
:1021100069C12FB7F89480913D0690913E06A09139
:102120003F06B09140062FBFBB83AC8322C0FE01A7
:102130003196D1014D915D916D917D911D0162832B
:10214000538344833396CE16DF0699F74DC18A81B7
:10215000823009F047C16B817C818D819E810E9414
:1021600022380E94C51B40C14C816B818A810E942C
:10217000891B9D837EC12D813E81322723273227F3
:102180004C816B818A810E942D1B2EC10E94541BA1
:102190002BC18A81893061F48B81B8E08B9FC001AB
:1021A00011246FEF70E00E94F437862F0E94181CF4
:1021B0008A818138B1F050F4803809F015C120E0EF
:1021C0004B8160912E0680912D0631C0823859F1E5
:1021D000833809F009C120E040912F066C818B8182
:1021E00026C060E08B810E94511E9B8180912C064D
:1021F000911111C08E7F80932C061092D705EFEFBE
:10220000F0E702E0E150F0400040E1F700C00000DC
:102210000E948D2DE9C0816080932C0660E0869538
:102220000E94511EE1C08B8180933006DDC00E9468
:10223000E71CDAC08A81893021F08A3089F41B8258
:10224000D3C0809133068695869586951FEF819F32
:10225000C001112423E0969587952A95E1F71FC0C8
:10226000813899F030F4803809F0BEC080912F0693
:1022700016C0823891F0833809F0B6C080912D06DF
:102280008B8380912E068C83AFC080912C0680FFBB
:1022900002C0869504C080E002C0809130068B8326
:1022A000A3C0809133060E94121C60912C0670918D
:1022B0002D0680912E0690912F060E941A1E94C022
:1022C00080E14DC085E08A8389E0E9CF0A811B81E6
:1022D0001027012710278C80912C5701C8018950A5
:1022E0009D4F95012E193F092815390508F07CC02E
:1022F000093025E0120730F40E942933D5011496E5
:102300008C9302C0F50114820F5F1F4FFFEFAF1ACD
:10231000BF0AE4CF0A811B811027012710278C8078
:10232000912C5701C80189509D4F95012E193F09E5
:102330002815390508F058C0093025E0120728F49F
:10234000D50114966C910E943D330F5F1F4FBFEF74
:10235000AB1ABB0AE7CF0E941D1B46C084E08A83EC
:1023600043C00A811B811027012710278C80912CE4
:102370005701C801879695012E193F09281539057F
:1023800098F5003DE2E01E0730F40E942933D501A4
:1023900014968C9302C0F50114820F5F1F4FFFEF5C
:1023A000AF1ABF0AE6CF0A811B8110270127102729
:1023B0008C80912C5701C801879695012E193F09F1
:1023C0002815390588F4003D22E0120728F4D501CC
:1023D00014966C910E943D330F5F1F4FBFEFAB1AF5
:1023E000BB0AE9CF8FEF89838091CC05843009F057
:1023F000A3CC1091E9001F709091EC00892F81709F
:1024000090FD80E8182B82E08093E9008091E8003D
:1024100080FF0CC040E050E060E270E0C7010E9425
:10242000A3328091E8008E778093E8001F701093AC
:10243000E90082CCE8E1E9BDFAE1F9BD09B400FEAA
:10244000FDCF8091D8008F7D8093D8008091E000EF
:1024500082608093E0008091E00081FDFCCF0E94CB
:10246000B1256ECC86E290E00E9429331B821C824B
:102470001D828E83B9CF8091CE0587FF11C08091D8
:10248000E80082FD05C08091CC058111F8CF11C014
:102490008091E8008B770BC08091CC05882349F0B0
:1024A0008091E80080FFF8CF8091E8008E778093DC
:1024B000E8000895982F973068F59093E9009817F1
:1024C00039F07091EC002091ED005091F00003C0C4
:1024D000242F762F50E021FD02C09F5FECCF30917A
:1024E000EB003E7F3093EB003091ED003D7F309369
:1024F000ED003091EB0031603093EB007093EC0015
:102500002093ED005093F0002091EE0027FDE5CFE1
:1025100080E008958F708093E90081E00895209114
:10252000D4053091D5052617370748F06115710598
:1025300039F42091E8002E772093E80001C0B9011A
:10254000FC0120E06115710569F18091CC058823BB
:10255000E1F18530E1F18091E80083FD3AC080919E
:10256000E80082FD2CC08091E80080FFEBCF8091D5
:10257000F2009091F3006115710551F088309105DA
:1025800038F421912093F100615071090196F3CF45
:1025900021E0089709F020E08091E8008E77809391
:1025A000E800D0CF2111D1CF0AC08091CC0588237B
:1025B00061F0853061F08091E80083FD0AC0809170
:1025C000E80082FFF2CF80E0089582E0089583E082
:1025D000089581E008950895BC0184E00E948F1958
:1025E0000895BC0183E00E948F190895AAE2B0E02B
:1025F000ECEFF2E10C944738EEECF5E086ED95E077
:102600002091F10021938E179F07D1F78091CF057C
:10261000833009F461C030F4813071F0823009F404
:102620009BC0B2C08A3009F487C08B3009F46CC0FB
:10263000893009F0A9C020C08091CE05813A09F007
:10264000A3C08091E800877F8093E8008091D20545
:102650009091D305892B21F460E28AEA95E003C0CA
:1026600060E080E090E070E00E948F128091E800CE
:102670008B778093E80088C08091CE05813209F085
:1026800083C08091D2059091D305009719F00297ED
:1026900009F07AC08091E800877F8093E8008091FC
:1026A000E80082FD05C08091CC058111F8CF6CC097
:1026B0008091F2009091F300029731F48091F10043
:1026C000813011F0863021F48091F1008093A905CA
:1026D0008091E8008B7754C08091CE05813A09F053
:1026E00053C08091D2059091D305892B09F04CC03D
:1026F0008091E800877F8093E8008091E80080FF68
:10270000FCCF8091790237C08091CE058132E1F50E
:102710008091D2059091D305892BB1F58091E80085
:10272000877F8093E8000E943B128091D0058093C0
:1027300079020E94B12528C08091CE05813221F511
:102740008091E800877F8093E8000E943B1280918F
:10275000D1058093A80518C08091CE05813AA1F4D7
:102760008091E800877F8093E8008091E80080FFF7
:10277000FCCF8091A8058093F1008091E8008E77CE
:102780008093E8000E943B128091E80083FFDCC147
:102790008091CE059091CF05492F50E04A305105E8
:1027A00008F0D2C1FA01E559FF4F0C941C3880386B
:1027B00021F0823809F0C8C108C08091CA05909103
:1027C000CB05992389F082600FC08091D2058F706C
:1027D000873008F0B9C18093E9008091EB0085FB58
:1027E000882780F91092E9009091E800977F9093F4
:1027F000E8008093F1001092F1006DC1282F2D7F29
:1028000009F0A2C1882319F0823061F09DC1809146
:10281000D005813009F098C1933009F080E08093B1
:10282000CB052EC08091D00581112AC08091D205A0
:102830008F702FEF280F263008F086C18093E900B3
:102840002091EB0020FF1CC0933021F48091EB001D
:10285000806214C09091EB0090619093EB0021E0B6
:1028600030E0A90102C0440F551F8A95E2F740935A
:10287000EA001092EA008091EB0088608093EB0000
:102880001092E9008091E800877F8093E8000E9421
:102890003B125AC1811158C11091D0051F77809108
:1028A000E3008078812B8093E3008091E800877FAC
:1028B0008093E8000E943B128091E80080FFFCCFEB
:1028C0008091E30080688093E300111102C082E0F0
:1028D00001C083E08093CC0537C18058823008F076
:1028E00033C12091D0053091D1052C3D53E03507FF
:1028F00079F583E08A838AE289834FB7F894DE0111
:10290000139620E03EE051E2E32FF0E050935700B1
:10291000E49120FF03C0E295EF703F5FEF708E2FD0
:1029200090E0EA3010F0C79601C0C0968D939D9359
:102930002F5F243149F74FBF8091E800877F809354
:10294000E8006AE270E0CE0101960E948F12B1C0E9
:102950008091D2059091D305432F552743305105DF
:10296000A9F068F44130510509F4FDC04230510529
:1029700009F0EAC08BE590E0EFE0F3E04BC04132B4
:10298000510529F14232510589F1DEC0C90199276B
:1029900081309105A1F058F0029709F0D5C0ECE71D
:1029A000F3E0E4918E2F90E0ECE7F3E030C0E4EA4E
:1029B000F3E0E4918E2F90E0E4EAF3E028C0EAE847
:1029C000F3E0E4918E2F90E0EAE8F3E020C083305A
:1029D000910508F0B9C0880F991FFC01EF51FC4F19
:1029E0000190F081E02D89E090E014C083309105E2
:1029F00008F0AAC0FC01EE0FFF1FE552FC4F01904A
:102A0000F081E02DDC01A852BC4F8C9190E0009742
:102A100009F49AC02091E800277F2093E8002091D4
:102A2000D4053091D5052817390708F4C90140E0CD
:102A3000009771F12091CC052223D9F12530C9F1FD
:102A40002091E80023FD35C02091E80022FD2DC033
:102A50002091E80020FFECCF2091F2003091F300AC
:102A6000009759F02830310540F444914093F1002B
:102A7000319601972F5F3F4FF3CF41E0283031056A
:102A800009F040E02091E8002E772093E800D0CFB5
:102A90004111D0CF0AC08091CC05882351F08530F8
:102AA00041F08091E80083FD04C08091E80082FF3E
:102AB000F2CF8091E8008B778093E80045C08038A2
:102AC00009F042C08091E800877F8093E800809100
:102AD000CD058093F1008091E8008E77D6CE8111EC
:102AE00033C08091D0059091D1059927029764F564
:102AF0008091E800877F8093E8001091D0051093C3
:102B0000CD050E943B12111106C08091E30087FDA4
:102B100002C081E001C084E08093CC0542E061EC1A
:102B200081E00E945A1242E261EC84E00E945A1253
:102B300042E261EC82E00E945A1242E260EC83E0E1
:102B40000E945A128091CC058091E80083FF10C04A
:102B50008091E800877F8093E8008091EB0080629D
:102B60008093EB0005C082E190E0EAE6F3E052CF0B
:102B7000AA96E3E00C9463381F920F920FB60F925F
:102B800011242F933F934F935F936F937F938F9372
:102B90009F93AF93BF93CF93DF93EF93FF93C09136
:102BA000E900CF708091EC00D82FD17080FDD0E883
:102BB0001092E9008091F000877F8093F000789474
:102BC0000E94F6121092E9008091F00088608093D4
:102BD000F000CD2BCF70C093E900FF91EF91DF9112
:102BE000CF91BF91AF919F918F917F916F915F91A5
:102BF0004F913F912F910F900FBE0F901F901895FE
:102C0000E8EDF0E080818C7F80831092E2001092EA
:102C1000DA001092E100A0EEB0E08C9181608C931C
:102C200080818F77808319BCA7EDB0E08C918E7F77
:102C30008C9380818F7E80831092A7050895A0E0F9
:102C4000B0E0E5E2F6E10C944238C8EDD0E08881CE
:102C50008F7E8883E7EDF0E080818160808381E072
:102C60008093A70588818C7F888302EE10E0D801CD
:102C70001C921092DA0081EEC82ED12CD6011C9243
:102C800088818F77888388818068888388818F7D19
:102C9000888380818068808319BC1092CC05109253
:102CA000CD051092CB051092CA0590EEE92EF12CBD
:102CB000F70180818B7F808388818160888342E0F7
:102CC00060E080E00E945A12D6018C918E7F8C9336
:102CD000F801808181608083808188608083D70152
:102CE0008C918E7F8C93888180618883CDB7DEB78D
:102CF000E8E00C945E381F920F920FB60F921124E9
:102D00002F933F934F935F936F937F938F939F93F3
:102D1000AF93BF93EF93FF938091E10082FF09C0CF
:102D20008091E20082FF05C08091E1008B7F80935B
:102D3000E1008091DA0080FF2AC08091D80080FFF6
:102D400026C08091DA008E7F8093DA008091D900CE
:102D500080FF18C088E189BD8AE189BD09B400FE01
:102D6000FDCF81E08093CC058091A70581110FC034
:102D70000E9400160E941F168091E20084608093DA
:102D8000E20005C019BC1092CC051092A7058091F5
:102D9000E10080FF1CC08091E20080FF18C080919C
:102DA000E2008E7F8093E2008091E2008061809358
:102DB000E2008091D80080628093D80019BC85E041
:102DC0008093CC0580916F00826080936F0080912A
:102DD000E10084FF37C08091E20084FF33C088E1C6
:102DE00089BD8AE189BD09B400FEFDCF8091D8007C
:102DF0008F7D8093D8008091E1008F7E8093E100E9
:102E00008091E2008F7E8093E2008091E2008160F9
:102E10008093E2008091CD05882311F084E007C003
:102E20008091E30087FD02C081E001C083E08093D0
:102E3000CC058091CC0580916F008D7F80936F00D1
:102E40000E94A71A8091E10083FF27C08091E200D1
:102E500083FF23C08091E100877F8093E10082E0BF
:102E60008093CC051092CD058091E1008E7F8093F8
:102E7000E1008091E2008E7F8093E2008091E20089
:102E800080618093E20042E060E080E00E945A129C
:102E90008091F00088608093F000FF91EF91BF91E6
:102EA000AF919F918F917F916F915F914F913F91E2
:102EB0002F910F900FBE0F901F9018952091E40056
:102EC0003091E50095E64091EC00842F817040FF41
:102ED00023C08091E80080FD1DC08091CC0588232F
:102EE00099F0853099F08091EB0085FD11C04091FB
:102EF000E4005091E5002417350729F3915011F0B3
:102F00009A01E1CF84E0089582E0089583E0089576
:102F100081E0089580E008954091E80042FFDDCF10
:102F20000895089508958091A9050895CF93DF939A
:102F300020917902222339F02091410627FF03C016
:102F400060E224E002C068E021E02093E9002FEF76
:102F50003091E800215035FD06C035ED3A95F1F786
:102F600000002111F5CF2091E80025FF1DC0EC01E4
:102F700080917902811105C040E050E068E070E086
:102F800003C070E040E050E0CE010E94A332809187
:102F9000E8008E778093E80080E2FE01AAEAB5E0BF
:102FA00001900D928A95E1F7DF91CF910895EF920C
:102FB000FF921F93CF93DF93EC018BEDE82E85E01A
:102FC000F82E10E08C81970140912F0660912E061B
:102FD000810F0E94B81E175F83E0E80EF11C133FBB
:102FE00089F70E948D2D9A818C8190FF02C08F5F9E
:102FF00001C081508C83DF91CF911F91FF90EF90A2
:103000000895EF92FF920F931F93CF93DF938C015C
:10301000CBEDD5E0E12CF12CF8018481FDE0EF1639
:10302000F1041CF4882339F002C0811104C09E0110
:1030300040912F0602C09E0140E060912E068091D3
:103040002D060E94B81E8FEFE81AF80A23969BE11E
:10305000E916F10409F70E948D2DF801848190E0B2
:103060000196817099278483CDB7DEB7E6E00C9492
:103070006038A0E0B0E0EFE3F8E10C943E38EC01FA
:103080004C81042F10E09801D8010E94C5339B01A8
:10309000AC010E9490336B017C01E0E2F0E0E01BA8
:1030A000F10BA5E5B0E09B01AC010E9490334B0110
:1030B0005C019F01DF010E9429389B01AC010E9445
:1030C0009B339B01AC012C0D3D1D4E1D5F1DC501A9
:1030D000B4010E94A333822FF22E99E2921728F0B6
:1030E00093E0299F900111240DC025E530E0281BB5
:1030F0003109C901880F991F280F391F37FF02C0F6
:103100002F5F3F4F35952795122F10959BEDC92EB8
:1031100095E0D92E00E085E5E82EEF1801FD02C00C
:103120008E2D01C08F2D9601412F60912E060E9499
:10313000B81E0F5F83E0C80ED11C0B3179F70E94D7
:103140008D2D8C81811102C091E003C0803219F471
:103150009FEF90937C0290917C02890F8C83CDB776
:10316000DEB7ECE00C945A38EF92FF921F93CF93A6
:10317000DF93CBEDD5E0FE011182108212823396EF
:1031800086E0EC32F807C1F7E12CF12C1091D9055B
:10319000812F012E000C990BE816F90694F080910E
:1031A0007B02082E000C990B8E159F0554F09E0192
:1031B00040912F0660912E0680912D060E94B81E28
:1031C00003C0198218821A828FEFE81AF80A239630
:1031D0008BE1E816F104D1F60E948D2D80917A02E0
:1031E000180F1093D90590917B02980F90937B0252
:1031F000191614F41A311CF0819580937A02DF912C
:10320000CF911F91FF90EF900895A0E0B0E0EBE028
:10321000F9E10C944038FC01828180FF02C0DFEFAD
:1032200001C0D1E00BED15E0E12CF12C2BE1A22E39
:10323000F80111821082128294E0C92ED12CB12C97
:10324000C091D8058B2D8C0F8C312CF06A2D0E94EB
:10325000E637892F02C087FD855E082E000C990B8A
:10326000E816F90691F480912F068C9DA0018D9DA2
:10327000500D1124559547955595479598016091A6
:103280002E0680912D060E94B81EBD0EF1E0CF1AC9
:10329000D108B1F68FEFE81AF80A0D5F1F4FEBE186
:1032A000EE16F10429F60E948D2DD13039F4C111AA
:1032B00002C08AE109C08FEF8C0F06C08C2F90E00E
:1032C0000196B7010E9408388093D805CDB7DEB7C4
:1032D000EAE00C945C38CF93DF93EC01ECE2F6E08B
:1032E000438162818C810E94441F8C818F5F8C831B
:1032F000DF91CF910895CF93DF93EC01EC81F0E063
:10330000E355FC4F4491ECE2F6E0628181810E943A
:10331000441F8C818F5F8C83DF91CF9108958093C0
:10332000430670934506609344068091CC05843033
:10333000F9F48093E9008FEF9091E800815095FDBA
:1033400006C095ED9A95F1F700008111F5CF8091B7
:10335000E80085FF0DC040E050E063E070E083E4EA
:1033600096E00E94A3328091E8008E778093E80077
:10337000089581E08093E00080E28093D80010926D
:10338000C9008FE19EE40197F1F700C0000087E0DB
:1033900090EBDC018093850790938607A0938707C5
:1033A000B09388079CE088E10FB6F894A8958093C5
:1033B00060000FBE90936000FFCF78941F920F9231
:1033C0000FB60F9211248F939F93AF93BF93809169
:1033D0003D0690913E06A0913F06B09140060196B1
:1033E000A11DB11D80933D0690933E06A0933F061C
:1033F000B0934006BF91AF919F918F910F900FBEF8
:103400000F901F9018959C014FB7F89480913D063E
:1034100090913E06A0913F06B09140064FBF821B9F
:10342000930B08952FB7F89480913D0690913E0636
:10343000A0913F06B09140062FBF089520917902D8
:103440002223C9F02091410627FF15C0262F26957B
:10345000269526952E31C8F4FC01E20FF11D677008
:1034600081E090E001C0880F6A95EAF7809592812B
:10347000892382830895FC0106962281621301C08C
:1034800012823196E817F907C1F708952091790261
:103490002223C1F02091410627FF14C0262F269534
:1034A000269526952E3130F5FC01E20FF11D67704F
:1034B00081E090E001C0880F6A95EAF79281892B3C
:1034C00082830895FC0132962FEF30E0419164171A
:1034D00089F02F3F19F4411101C0232F3F5F36308F
:1034E000A9F72F3F39F0FC01E20FF11D27FDFA95F6
:1034F00062830895089520913B0630913C06281779
:10350000390771F090933C0680933B06E0913906B1
:10351000F0913A06309721F00084F185E02D09956D
:10352000089520913706309138062817390771F031
:103530009093380680933706E0913906F0913A0669
:10354000309721F00680F781E02D09950895E091EC
:103550003906F0913A06309729F00190F081E02D7C
:103560000995089580E008950F931F93CF93DF93FB
:10357000C42FD22FFC0182818823B1F040933606FC
:103580000E94121A909335068093340680E28C0FC5
:10359000883008F04DC0C77081E001C0880FCA951F
:1035A000EAF70E94CE2544C080913606481330C009
:1035B00080913406909135060E94031A883C91054B
:1035C00038F510E21D0FCD17B9F080E28C0F88306E
:1035D00040F4C77081E001C0880FCA95EAF70E94E5
:1035E000C725183010F581E09D2F977001C0880F16
:1035F0009A95EAF70E94CE25802F0E94EB2618307C
:10360000B8F4D77081E001C0880FDA95EAF70AC0F4
:1036100080E28C0F883060F4C77081E001C0880FB1
:10362000CA95EAF70E94C72503C0802F0E94EB26A7
:10363000DF91CF911F910F910895CF93DF93C7EF43
:10364000D2E060E0CE010E943D332196C11588E0B2
:10365000D807B9F7DF91CF9108951F93CF93DF93E8
:10366000962F8430E8F46530D8F44231C8F4632FE3
:10367000122FC42FD0E0CC0FDD1F24E2929FC00D8B
:10368000D11D112494EB899FC00DD11D1124CE01B1
:1036900087960E943D33612FCE0188960E943D336C
:1036A000DF91CF911F910895A0E0B0E0EAE5FBE142
:1036B0000C944038A12CE12CF12CB12C00E010E04E
:1036C000C0E0D0E06701C00ED11EFE01EE0FFF1F6B
:1036D000EC0DFD1DE351FB4F259134914C2F6B2DCB
:1036E0008A2D0E942D1B2196C231D10571F70C5DE8
:1036F0001F4FB39485E0B812E3CF84EBE80EF11CC2
:10370000A39484E0A812D9CFCDB7DEB7EAE00C9439
:103710005C380F931F93CF93DF93843008F56530A7
:10372000F8F44231E8F4C42FD0E0CC0FDD1F24E2DE
:10373000629FC00DD11D112434EB839FC00DD11D9C
:103740001124CE0187960E94293390E0182F00277C
:10375000CE0188960E9429339801282BC90102C006
:1037600080E090E0DF91CF911F910F910895843018
:1037700048F4753038F4623128F4462F672F0E94E0
:10378000891B089580E090E0089586E290E00E9411
:103790003D330895CF93C82F811102C06FEF01C050
:1037A00062E283E290E00E943D33C11102C06FEFFC
:1037B00001C067E084E290E00E943D33C11102C085
:1037C0006FEF01C064E185E290E00E943D33CF914C
:1037D000089580E00E94CA1B60E070E0CB010E9467
:1037E000C51B0E94541B0E941D1B81E00E94CA1B26
:1037F000089583E290E00E942933823281F484E2CA
:1038000090E00E942933873051F485E290E00E94D5
:10381000293391E0843109F090E0892F01C080E0E4
:1038200081700895682F86E090E00E943D330895EE
:10383000893008F088E0909133069770282F220F86
:10384000220F220F922B90933306987F21E009F4E8
:1038500020E09091330620FB90F9909333060E946C
:10386000B02D08950E94A72A81110AC00E94B32A90
:103870008091330684708164809333060E94121C09
:1038800086E090E00E94293380933306282F269506
:103890002695269530E02930310524F08770806424
:1038A000809333068091330680FF04C08695869509
:1038B000869501C080E00E94B02D08951F920F925E
:1038C0000FB60F9211248F939F93EF93FF938091E4
:1038D000310690913206019690933206809331061C
:1038E000E0913206E695E695F0E0E355FB4FE49172
:1038F000FF91EF919F918F910F900FBE0F901F90AE
:10390000189590912C0690FF04C09695981748F052
:1039100003C0811106C090E0961718F40E949D1E06
:10392000089561E00E94511E0895882311F0FA0164
:1039300001C0FB010995089590912C0690FF0CC0E1
:10394000EBEDF5E0818360834283339696E0EC32C1
:10395000F907C1F70E948D2D0895A3E0B0E0E3EBD5
:10396000FCE10C9446388C018091DA0581110AC083
:103970009E012F5F3F4F4FEF6FEF0E94B81E8A816D
:103980008093DA05F8018481813051F028F082308B
:1039900061F44091DA050AC08091DA0540E007C081
:1039A0006091DA0540E080E003C040E080E060E044
:1039B0000E949C1CF801848190E0019663E070E015
:1039C0000E94083884832396E4E00C946238A3E0D4
:1039D000B0E0EDEEFCE10C943B38F82E762EE42EB0
:1039E000622E90912C0690FF67C0E92FE695AE2FCE
:1039F000B0E0A951BC4F8C918093D6059E7F923048
:103A000061F49E012F5F3F4F8F2D0E94B81E4B81A6
:103A100069818A810E949C1C3DC0823019F4E0902B
:103A20002F0638C0863019F4F0902D0633C0893047
:103A3000D9F3893179F5E9518E2F8170582EE695A9
:103A4000F0E0E855FC4FE4910E2F10E08BEDC82E0E
:103A500085E0D82EA12CB12C9BE1892E912CC5019B
:103A6000B4010E94F4378F2D511002C0860F01C09F
:103A7000861B96014E2D672D0E94B81EA00EB11E0A
:103A800083E0C80ED11C8CE2C81686E0D80639F750
:103A90000E948D2DF0922D0670922E06E0922F0638
:103AA000662051F060912C0670912D0680912E06B3
:103AB00090912F060E941A1E2396EFE00C9457381F
:103AC000E1E7F0E080818D7F8083E0E9F0E08081B4
:103AD0008F7380830895CF92DF92EF92FF926B01F4
:103AE0007C0120E030E0A9010E944134811106C030
:103AF000809190008F73809390003CC080919000E3
:103B0000806880939000C0924706D0924806E09269
:103B10004906F0924A0620E030E040E051E4C70157
:103B2000B6010E9402369B01AC0160E074E284E7BA
:103B30009BE40E9446346B017C010E94BF34709369
:103B400097006093960060919D0370E080E090E0A4
:103B50000E94F034A70196010E94023620E030E076
:103B600048EC52E40E9446340E94BF34709399009E
:103B700060939800FF90EF90DF90CF900895ECE273
:103B8000F6E0438121E1421B08F440E021E062813C
:103B900081810E94E71C0895ECE2F6E0438121E177
:103BA000420F08F44FEF21E0628181810E94E71CFF
:103BB0000895ECE2F6E0628121E1621B08F460E026
:103BC00021E0438181810E94E71C0895ECE2F6E048
:103BD000628121E1620F08F46FEF21E0438181816E
:103BE0000E94E71C0895ECE2F6E0818121E0438128
:103BF00062818A500E94E71C0895ECE2F6E0818120
:103C000021E043816281865F0E94E71C08958091D4
:103C10002C06282F269530E02115310519F48170E6
:103C2000826005C02532310524F08170886480935C
:103C30002C060895CF92DF92EF92FF926B017C01E8
:103C40000E94071EB701A60188E090E00E944F3352
:103C5000FF90EF90DF90CF900895809130068823F9
:103C600019F081508093300660912C0670912D06DA
:103C700080912E0690912F060E941A1E0895809121
:103C80003006833018F48F5F8093300660912C06E5
:103C900070912D0680912E0690912F060E941A1E7B
:103CA000089590912C0690FF3DC09170811102C043
:103CB000926006C0853210F0986402C0880F982B7D
:103CC00090932C06662351F060912C0670912D067E
:103CD00080912E0690912F060E941A1E60912C064C
:103CE000669570E04BE050E086E793E00E94B839BB
:103CF000892B19F01092D70509C081E08093D70570
:103D00000E94121A909352068093510681E080938C
:103D1000540620E040912F0660912E0680912D06DA
:103D20000E94E71C089580912C068695815009F425
:103D300084E261E00E94511E089580912C068695D0
:103D40008F5F853208F081E061E00E94511E089586
:103D5000ECE2F6E083E0808311828FEF828383833D
:103D6000148260817181828193810E941A1E08955C
:103D7000A0E0B0E0EEEBFEE10C944038E82EF62E29
:103D8000E901E42FF0E0611106C0E354F84FE4913B
:103D90004E2F2E2F71C0062F10E0E354F84F4491A0
:103DA000F42FC42ED12C26E0829FC00111242FEFC6
:103DB00030E0B9010E94F4375BEA5603C001579F17
:103DC000900D11248E0D911D8E0D911D582F550FA4
:103DD000580FD901A01BB10BAC9DC001AD9D900D3A
:103DE000BC9D900D1124E92FF59ED0011124AB2F1D
:103DF000BB277901EA1AFB0AEC9CD001ED9CB00DBF
:103E0000FC9CB00D11245901A51AB108A09E7001A7
:103E1000A19EF00CB09EF00C1124EF2CFF242E1963
:103E20003F092C9D80012D9D100D3C9D100D1124EE
:103E3000212F6230710591F048F461157105E1F0B0
:103E400061307105B9F4242F4B2F16C06430710511
:103E500069F040F06630710579F00CC0242F492FCD
:103E6000E12F0AC0492FEF2F2B2F06C0292FE42F57
:103E7000412F02C0292FEB2F49832883EA83CDB736
:103E8000DEB7EAE00C945C38A3E0B0E0EAE4FFE1DE
:103E90000C94483890912C0690FF0AC09E012F5F29
:103EA0003F4F0E94B81E4B8169818A810E949C1CF1
:103EB0002396E2E00C94643881E08093500668E039
:103EC00070E086E393E00E942032089581E08093C1
:103ED0004F0668E070E086EB92E00E942032089581
:103EE0008091B502811122C0109277070E94601D57
:103EF00010922E0710922F0710922307109222077C
:103F0000E7E3F7E080E090E0A0E8BFEB11821082E9
:103F100082839383A483B58317821682389627E021
:103F2000E737F20799F781E08093B5020895809111
:103F30004F0681110E94701F08950E94971F1092D2
:103F40004F0668E070E086EF92E00E94203208950C
:103F500062E070E085EA92E00E9420322FEF81EE6D
:103F600094E0215080409040E1F700C000000E94A2
:103F7000701F609131076E7F6093310787E090E09A
:103F80000E943D330895609131076160609331076D
:103F900087E090E00E943D3362E070E085E992E0C6
:103FA0000E942032089580913007811141C00E9403
:103FB000A72A811102C00E94B32A87E090E00E94E4
:103FC000293380933107E7E3F7E080E090E0A0E851
:103FD000BFEB1182108282839383A483B5831782FF
:103FE0001682389627E0E737F20799F78091300775
:103FF00081110CC00E94601D3E9A82E08093900067
:104000008AE18093910081E0809330070E94701FC5
:104010008091310780FF06C063E070E08DE792E099
:104020000E9420320E94121A909325078093240741
:104030000895A0E0B0E0EFE1F0E20C943D384B01D0
:104040005C016A018091310780FFB2C08091300726
:10405000811102C00E94D31F20E030E0A901C501F8
:10406000B4010E94413487FF04C0B7FAB094B7F896
:10407000B09470907707072D10E0E801219743E096
:10408000000F111F4A95E1F7E12CF12CCF3FFFEF14
:10409000DF07D9F128E0E21AF108F801EE0DFF1D63
:1040A000E95CF84F2281338144815581C501B40117
:1040B0000E944134811127C08E0133E0000F111F8F
:1040C0003A95E1F7095C184F8091770790E00197E6
:1040D000C817D9070CF06CC0219688E0F801389613
:1040E000D80101900D928A95E1F70E94121AF80109
:1040F0009187808782869386A486B586D786C68672
:10410000085F1F4FE1CF2197C1CF81E0870D893034
:1041100040F58093770781E08093460680932F07D0
:10412000C0917707D0E021970E94121AFE0123E088
:10413000EE0FFF1F2A95E1F7E95CF84F918380832A
:1041400082829382A482B582D782C6820E94121A8A
:1041500090933607809335078091B502882341F10B
:1041600013C088E08093770787E397E028E0FC019D
:104170003896DC0101900D922A95E1F7089627E028
:104180008F36920799F7C7CF809171008260809334
:1041900071008091900080688093900080912F073B
:1041A000882321F00E94BD2F0E946B1D1092B50242
:1041B000CDB7DEB7EDE00C945938A0E0B0E0E3EE07
:1041C000F0E20C9442386B017C0120E030E0A90160
:1041D0000E94413487FF04C0F7FAF094F7F8F09496
:1041E00080912F07882309F458C0809130078111EE
:1041F00002C00E94D31F07E317E0C7E0D0E0F80138
:1042000022AD33AD44AD55ADC701B6010E94413476
:1042100081112BC083E0CC0FDD1F8A95E1F7C95CCB
:10422000D84F1982188280E090E0A0E8BFEB8A8323
:104230009B83AC83BD831F821E82AC01BD01F7E06E
:10424000CF36DF07D1F088E0FE013896DE0101901D
:104250000D928A95E1F7198618864A875B876C87E5
:104260007D871F861E862896EACF21970850110960
:10427000CF3F8FEFD80719F610C0C1E0C0934606B4
:1042800080917707815080937707811106C00E9443
:10429000601DC093B50210922F07CDB7DEB7E8E0DE
:1042A0000C945E381F920F920FB60F9211244F920A
:1042B0005F926F927F92AF92BF92CF92DF92EF9216
:1042C000FF920F931F932F933F934F935F936F939F
:1042D0007F938F939F93AF93BF93CF93DF93EF938E
:1042E000FF9380914B0690914C06A0914D06B091A2
:1042F0004E060196A11DB11D80934B0690934C066E
:10430000A0934D06B0934E0660914B0670914C06FB
:1043100080914D0690914E060E94EE346B017C0117
:1043200020E030E040E85CE3609147067091480689
:104330008091490690914A060E9402369B01AC0189
:10434000C701B6010E94413487FD4AC110924B0655
:1043500010924C0610924D0610924E0680912F0737
:10436000811105C0C0912E07CC2309F428C10E94F9
:10437000121AEC0180912E07811102C010E0E7C0F3
:1043800080912407909125070E94031A209122070B
:10439000309123078217930788F380912407909127
:1043A00025070E94031A20912207309123077C01E0
:1043B000E21AF30AD0932507C09324070091260739
:1043C00010912707C801019690932707809326072D
:1043D0000E94121A9093360780933507A090290700
:1043E000B0902A0780912607909127078A159B0590
:1043F00060F0C0912807CC2329F010922707109273
:10440000260703C00E94701FDAC080912D07C0915B
:104410002607D0912707C0902B07D0902C07811139
:1044200031C0F80153E0EE0FFF1F5A95E1F7EC0D94
:10443000FD1DDE0163E0AA0FBB1F6A95E1F7AC0D1D
:10444000BD1D2D913D914D915C9160817181828165
:1044500093810E944134811115C081E080932D0722
:104460004FE050E060E070E0CB010E941920109313
:104470002707009326078FE090E09093230780930F
:10448000220764C010922D078E0133E0000F111F28
:104490003A95E1F70C0D1D1DF80164817581868147
:1044A00097810E94BF349B01A0E6BAEE0E94C533FB
:1044B00020E03EE140E050E00E94A333F1E0AF1A7B
:1044C000B108412C4EE1542E612C712C2E153F0564
:1044D00050F0D0932707C0932607E216F306E0F0CA
:1044E000C1E0D0E01CC0085F1F4FCA15DB0588F78C
:1044F000E21AF30A2196F801648175818681978119
:104500000E94BF349B01A0E6BAEE0E94C533A3010E
:1045100092010E94A333DACFE901CE19DF0980911D
:1045200026079091270723E0880F991F2A95E1F726
:10453000F601E80FF91F6081718182819381AE01DC
:104540000E941920D0932307C093220711E0809185
:104550002F07882361F180913207811103C0809178
:104560003307811111E0C7E3D7E0E12CF12C8091F2
:10457000770790E0E816F906D4F48E819F810197C1
:104580008E3F9F4F78F4888199810E94031A2E8173
:104590003F818217930730F06A817B818C819D81F6
:1045A0000E94DD202FEFE21AF20A2896E0CFC09198
:1045B0004606CC2319F01092460601C0C12F809107
:1045C0002F07811107C080912E07811103C00E941F
:1045D000601D06C0CC2321F00E94BD2F0E946B1DE0
:1045E000FF91EF91DF91CF91BF91AF919F918F910B
:1045F0007F916F915F914F913F912F911F910F91FB
:10460000FF90EF90DF90CF90BF90AF907F906F9032
:104610005F904F900F900FBE0F901F901895682FCE
:1046200070E065547109072E000C880B990B0E94ED
:10463000F03420E030E040E451E40E9446349B0135
:10464000AC0160E070E080E090E40E946F3620E012
:1046500030E04CED53E40E94023608950E940F238F
:104660004FEF5FEF0E941920089580E090E00E94D4
:10467000911A80E090E00E947B1A1092F4060E944A
:104680002B2B0895CF92DF92FF920F931F93CF931E
:10469000DF936C01009121078091F706082BC7E09A
:1046A000D0E010E0C8010C2E02C0959587950A94C1
:1046B000E2F780FD04C02197A8F7F12C09C0FC2E79
:1046C000B6018C2F0E94B71B0E940D29019799F308
:1046D0008F2DDF91CF911F910F91FF90DF90CF90A1
:1046E0000895CF93DF93EC010E944223BE010E9404
:1046F000B71B0E940D29DF91CF910895FC018081A5
:1047000091810E94712392959F70963079F010F4F8
:10471000925001C09A50923068F4803F69F018F4CA
:10472000883E40F409C0843F29F406C0883E20F04A
:10473000813F11F080E0089581E00895A1E1B0E0AB
:10474000E4EAF3E20C943F388C0185E0F801DE01E5
:104750001D9601900D928A95E1F7F801E280909103
:104760009B0660919C0640919E0650919F064115C4
:10477000510531F06F3F31F481E09F3F19F403C0E0
:1047800081E001C080E0F82FF1709F2E80FD1BC1F9
:10479000F80130812181C380D4808BE9A82E86E086
:1047A000B82EF0909D06F601E41BF50BFF2009F4EE
:1047B000C7C08091A006E83CF10508F092C0482FE0
:1047C000407F09F051C0621311C093130FC0FE2C3B
:1047D000E1100CC08F7080618093A006C5010E941B
:1047E00099048091A006F80185832AC1C114D104DF
:1047F00031F02F3F31F481E03F3F19F403C081E0F5
:1048000001C080E080FD03C081E08E2502C080E011
:1048100090E0F82FF170FF2E80FF1CC08091D2062F
:104820004091A10656E0841709F4E8C090E0589F33
:10483000F001599FF00D1124EE55F94F61812613B7
:1048400006C06081631303C06281E61203C0019653
:104850008770E9CFFE2CEE2009F4F2C08091A0060B
:1048600081608093A00649C0621306C0931304C000
:10487000E11002C0F80186C0C8010E947E2388238F
:1048800051F1EE2041F12091A006822F82958F7088
:1048900090E0029774F080919B0690919C06988717
:1048A0008F831986DB86CA862C87CE0107960E94E5
:1048B000990486E0F801ABE9B6E001900D928A9583
:1048C000E1F70E94C32B0AC06217C9F0C8010E9419
:1048D0007E2381111EC0C8010E949904FF24F39415
:1048E000AFC0482F407F81F78BE996E00E94990482
:1048F00086E0F50111928A95E9F7F12CA1C0931396
:10490000E5CFE110E3CFF8018583C8010E94990447
:1049100054C0EE2001F32091A006822F82958F7063
:1049200090E0029734F280919B0690919C069A83C6
:1049300089831B82DD82CC822E83CE010196B7CF84
:10494000E83CF105D0F5FE2CEE2029F2621327C0D9
:10495000931325C02091A00620FD18C0822F8295B8
:104960008F70482F50E04115510581F0F8012583E3
:104970004F30510541F08F5F982F9295907F822F95
:104980008F70892B8583C8010E94990486E0F80105
:10499000ABE9B6E001900D928A95E1F751C0C801EC
:1049A0000E947E23811185CF8091A0068160809333
:1049B000A006C8010E94990443C086E0F501119247
:1049C0008A95E9F73DC0EE2009F485CFC8010E9421
:1049D0007E23F82E882309F47ECF86E0F801ABE928
:1049E000B6E001900D928A95E1F780919B06909137
:1049F0009C060E9471230E94C32B22C03D872E87F4
:104A00008D859E850E947123292F22952F7022303B
:104A100028F49F7039F0811105C00BC0243028F4B0
:104A20009F7049F4805E883020F0C8010E9499048C
:104A30009F2CF92C05C0F8019581907F99F7F9CF4B
:104A40008F2D6196EBE00C945B38292F953078F52B
:104A5000823168F590E032E1239F800D911D112491
:104A6000682F677023E0969587952A95E1F7FC01FA
:104A7000EE0FFF1FE80FF91FE95AF94F40E050E031
:104A800080E0219130E0062E02C0369527950A94E9
:104A9000E2F721703327042E01C0220F0A94EAF7AF
:104AA000822B4F5F5F4F4330510559F7089580E0E7
:104AB0000895292F953088F5823178F590E032E11C
:104AC000239F800D911D1124282F277051E001C0D4
:104AD000550F2A95EAF723E0969587952A95E1F7F1
:104AE000FC01EE0FFF1FE80FF91FE95AF94F20E014
:104AF00030E070E04081CB01022E02C09695879590
:104B00000A94E2F781708195842785238427819315
:104B10002F5F3F4F2330310569F7089580932107B8
:104B20000E943523089521E030E001C0220F8A95CC
:104B3000EAF720958091210782230E948E2508950F
:104B400021E030E001C0220F8A95EAF78091210729
:104B5000822B0E948E2508958093F7060E943523AC
:104B600008951092F50680917902882331F08091A2
:104B7000410687FF02C08EE101C086E0EDE7F6E066
:104B8000DF011D928A95E9F70E9435230895882355
:104B900021F00E94242B0E942B2B0895882339F0AA
:104BA0009091F506892B8093F5060E942B2B089592
:104BB000882309F455C0682F823869F40E94A71A27
:104BC00081FF4EC069E38BE796E00E94461A0E947F
:104BD0002B2B69E30EC0833899F40E94A71A80FF3B
:104BE0003FC063E58BE796E00E94461A0E942B2B9C
:104BF00063E58BE796E00E941E1A0E942B2B089516
:104C0000843869F40E94A71A82FF2AC067E48BE700
:104C100096E00E94461A0E942B2B67E4EACF8CEFA5
:104C2000860F813A30F380E2860F883048F467704F
:104C300081E001C0880F6A95EAF70E94242BDDCF3E
:104C40008BE5860F833028F480E090E00E94911A73
:104C50000895685A673120F480E090E00E947B1A42
:104C60000895CF93882309F4B4C0C82F8238B1F4D3
:104C70000E94A71A81FDADC069E38BE796E00E9410
:104C8000461A0E942B2B2FEF81EE94E0215080409A
:104C90009040E1F700C0000069E317C08338E1F4F9
:104CA0000E94A71A80FD95C063E58BE796E00E94FD
:104CB000461A0E942B2B2FEF81EE94E0215080406A
:104CC0009040E1F700C0000063E58BE796E00E94AA
:104CD0001E1A0E942B2B7DC08438B1F40E94A71AA3
:104CE00082FD77C067E48BE796E00E94461A0E9437
:104CF0002B2B2FEF81EE94E0215080409040E1F784
:104D000000C0000067E4E1CF8CEF8C0F813AB8F56A
:104D1000809179028823E1F08091410687FF18C0D5
:104D2000EC2FE695E695E695F0E0E558F94F82819F
:104D3000282F30E04C2F477081E090E002C0880FB0
:104D4000991F4A95E2F782239323892B59F411C0C6
:104D5000EDE7F6E08191C81729F026E0E338F20785
:104D6000C9F707C06C2F8BE796E00E941E1A0E94BD
:104D70002B2B6C2F8BE796E00E94461AAACF80E27D
:104D80008C0F883068F4C77081E090E001C0880F14
:104D9000CA95EAF79091F506892B8093F50699CF8D
:104DA000EBE5EC0FE33040F4F0E0E45FFB4F808193
:104DB00090E00E94911A0DC0C85AC73150F4EC2FF0
:104DC000F0E0EE0FFF1FE15FFB4F808191810E94B9
:104DD0007B1ACF9108951F93CF93DF93182F8933B8
:104DE00019F0C0E0D0E002C0C0E5D0E0812F0E9401
:104DF0003126209741F08FE99FE00197F1F700C03D
:104E000000002197F6CF812F0E94D825DF91CF9106
:104E10001F91089580E008959091410692FF0DC082
:104E2000282F2871283019F4877F846006C0282F26
:104E30002471243011F48B7F886093FF0DC0282FDC
:104E40002871283119F4877E846106C0282F2471C7
:104E5000243111F48B7E88612091420620FF0DC021
:104E6000382F3871383019F4877F816006C0382FA9
:104E70003171313011F48E7F886021FF0DC0282FF1
:104E80002871283119F4877E816106C0282F21718D
:104E9000213111F48E7E886194FD877E0895F89407
:104EA000E82FE295EF70F0E031A1282F2F7081E01C
:104EB00090E001C0880F2A95EAF7982F90959323E8
:104EC00091A392A1892B82A3789408954F925F9227
:104ED0006F927F92AF92BF92CF92DF92EF92FF924A
:104EE0000F931F93CF93DF93CDB7DEB764970FB6C1
:104EF000F894DEBF0FBECDBFAE014F5F5F4F7A01AA
:104F000084E1DA011D928A95E9F701EC13E05A0178
:104F1000CC24C394D12CF80180818F3F09F454C074
:104F2000F894E82FE295EF70F0E021A18F70A601D0
:104F300002C0440F551F8A95E2F7CA01922F982BA1
:104F400091A392A18095892382A3789400C0E6EC76
:104F5000F3E041E050E060E070E0412C512C320180
:104F600081918F3F99F0A82FA295AF70B0E09096F5
:104F70002C9130E08F70D90102C0B595A7958A9524
:104F8000E2F7A0FD03C0DB01CA0103C080E090E0AE
:104F9000DC01482A592A6A2A7B2A440F551F661FBA
:104FA000771FB3E0E83DFB07D9F6F80180818F3F1A
:104FB00011F00E944F27F0EAFA95F1F7D5014D92D2
:104FC0005D926D927C9213970F5F1F4FB4E0AB0E12
:104FD000B11CE3E0063C1E0709F09DCF44E150E020
:104FE000B70183E595E00E94C53911E0009709F407
:104FF00010E0892B89F084E1F701A3E5B5E0019089
:105000000D928A95E1F781E08093FA060E94121AC8
:105010009093F9068093F8068091FA068823D9F0D8
:105020008091F8069091F9060E94031A059798F06E
:10503000E3E5F5E0A3E9B5E087E695E0419151911C
:10504000619171914D935D936D937D938E179F0741
:10505000A9F71092FA068091070790910807A0918E
:105060000907B0910A07893E9340A105B105E8F010
:1050700010920707109208071092090710920A076A
:105080000E94DA2EE091FB06F091FC0601E0008B15
:1050900061E080E00E94D82DE0910107F0910207C5
:1050A000008B61E083E00E94D82D0E94E92E8823C6
:1050B00079F11092070710920807109209071092D1
:1050C0000A0780910307682F0E94D82D809103075B
:1050D00090910407A0910507B0910607892B8A2BB0
:1050E0008B2B49F0109203071092040710920507CA
:1050F0001092060720C083E090E0A0E0B0E080932B
:10510000030790930407A0930507B093060713C005
:105110008091070790910807A0910907B0910A07AD
:105120000196A11DB11D8093070790930807A093D6
:105130000907B0930A078091210790E0A0E0B0E052
:1051400040918103509182036091830370918403A5
:1051500084179507A607B70709F449C0EDE3F4E003
:1051600040E050E0BA014080518062807380C4808A
:10517000D580E680F780C822D922EA22FB224C148F
:105180005D046E047F0441F58EE0849FF001859FED
:10519000F00D1124E35CFB4F80859185909389008D
:1051A000809388008285938590938B0080938A00FA
:1051B0008485958590938D0080938C008091210744
:1051C00090E0A0E0B0E08093810390938203A093ED
:1051D0008303B09384030BC03E96472046204520AE
:1051E000409491F24F5F5F4F6F4F7F4FBCCF812F45
:1051F00064960FB6F894DEBF0FBECDBFDF91CF919E
:105200001F910F91FF90EF90DF90CF90BF90AF90E4
:105210007F906F905F904F900895CF93DF93823887
:10522000910569F1B0F48133910509F46FC048F438
:105230008932910509F465C08A32910509F46BC081
:105240008AC08533910509F457C089339105B9F0B7
:1052500082C0833E910571F138F4803E9105B1F032
:10526000823E910511F177C0863E9105B9F1873EE6
:105270009105C9F1843E910509F06DC024C02091CB
:10528000410620FD53C021FD51C065C080914106FB
:1052900080FD46C08091420680FF48C08091410653
:1052A00084FD3FC183EE90E03EC18091410682FFC4
:1052B0003AC0F4CF8091410682FD35C0809142060C
:1052C00080FD34C0EBCF8091420681FF35C08091D4
:1052D000410684FD26C187EE90E025C180914106FC
:1052E00083FF27C0F4CF8091410683FD22C08091C7
:1052F000420681FD21C0EBCF8091410685FD1FC094
:1053000021C08091410685FD1DC019C080914106D4
:1053100086FD1BC01DC08091410686FD19C015C0C9
:1053200089E390E000C182EE90E0FDC080EE90E065
:10533000FAC086EE90E0F7C084EE90E0F4C089E217
:1053400090E0F1C085E390E0EEC08AE290E0EBC02F
:1053500081E390E0E8C0811532E5930708F069C069
:10536000811541E5940728F0982F8827816F906A6E
:10537000DAC0883E910568F5803E910508F0D3C0FB
:10538000883A9105B8F4853A910548F0855AE82F96
:10539000F0E0E45FFB4F808190E09064C4C0813016
:1053A000910509F4BBC008F4BCC08430910508F431
:1053B000B8C0B9C08F3B910508F0B3C0885AE82F38
:1053C000F0E0EE0FFF1FE15FFB4F8081918194645D
:1053D000AAC0811520E59207F0F09C0174E0369593
:1053E00027957A95E1F7922F9370482F437021E02B
:1053F00030E002C0220F331F4A95E2F73C68392B98
:105400008F70982F9695969540E2949FC001112435
:10541000822B932B88C0811530E4930718F09F707E
:10542000906A81C09C013A9521153F4108F47BC0E8
:1054300078C0EC01C11586E5D807E8F5C11525E56A
:10544000D20748F08C2F0E940C278F7190E0982F84
:105450008827906268C0C11534E5D30728F09C2FD7
:105460008827846F906A5FC0AE01437055272C2F48
:1054700026952695C115D34578F481E090E002C0C9
:10548000880F991F4A95E2F740E2249F900111246A
:10549000822B932B9C6847C081E090E002C0880F6C
:1054A000991F4A95E2F740E2249F90011124822B34
:1054B000932B9A6838C0C1152AE5D207F8F4C115B4
:1054C00039E5D30790F08C2F8F700E940C2794E061
:1054D000D695C7959A95E1F7CF70D0E0DC2FCC2711
:1054E000D0699E01282BC9011EC0C11548E5D4070B
:1054F000C0F09C2F8827806F906A15C0CE0190560F
:105500008115904270F48D2F8F710E940C27282FE7
:105510002F71CE0199279062922B05C081E090E017
:1055200002C080E090E0DF91CF910895CF9384E0B6
:1055300090E00E942933C82F82E290E00E94293334
:105540002C2F30E0A901582BCA01CF91089580E09B
:1055500090E00E943733883E9E4F19F40E94F91B59
:10556000089580E0089568EE7EEF80E090E00E946C
:105570005B3360E082E090E00E943D3360E083E0D6
:1055800090E00E943D331092F70660E084E090E0E6
:105590000E943D3364E082E290E00E943D3360E08F
:1055A00085E090E00E943D3360E086E090E00E945C
:1055B0003D336FEF87E090E00E943D3340E050E0E4
:1055C000BA0188E090E00E944F3360E08DE090E007
:1055D0000E943D3340E050E0BA0188E190E00E9433
:1055E0004F3360E087E190E00E943D3340E050E0BF
:1055F000BA018CE190E00E944F3360E070E080E2FD
:1056000090E00E945B3340E050E0BA0188E190E016
:105610000E944F3380E00E94CA1B0E94E91B40E0B9
:1056200050E0BA018FE090E00E944F3340E050E03C
:10563000BA0183E190E00E944F3308958091F6060D
:1056400081111092F606089580959091F5068923B0
:105650008093F50608959091F5068091F406982BB5
:1056600090937B068091F6068823D9F0892B80934E
:105670007B0680917902882331F08091410687FF73
:1056800002C08EE101C086E0EDE7F6E090E08150D7
:1056900028F021912223D9F39F5FF9CF91110E9425
:1056A0001E2B40E250E064ED76E08BE796E00E942E
:1056B000C539892B21F180E2EBE7F6E0A4EDB6E0F5
:1056C00001900D928A95E1F7E0913906F0913A0642
:1056D0003097A9F080917902882359F08091410692
:1056E00087FF07C080917B0680937C0686E08093CD
:1056F0007B060280F381E02D8BE796E00995089503
:105700002091D306809582238093D306982F97709B
:1057100099F430E0482F082E000C550B241735075C
:1057200059F09091420692FF07C085958595859521
:105730000E9493251092D3060895CF93C0914206FC
:10574000C2FB992790F9981791F080FBC2F9C0939A
:1057500042066091410684E090E00E943D336C2F48
:1057600082E290E00E943D3382E00E94802BCF9144
:1057700008958091D2069091A106891719F08F5F44
:105780008770FBCF08950F931F93CF93DF93809182
:10579000A00682958F7009F05AC080919D068823DB
:1057A00009F455C08091D2061091A10660919B0624
:1057B00070919C06C0919E06D0919F0691E06F3F2C
:1057C00009F090E0292F06E0811709F440C02097E6
:1057D00021F07F3F21F030E003C031E001C0322FE3
:1057E00090E030FD31C0089FF001099FF00D1124B9
:1057F000DF01AE55B94F11963C911197371324C074
:105800003C91361321C012963C91129731111CC065
:1058100013964D915C9114974C1B5D0B483C5105C0
:1058200098F48091A0068F7080618093A006E9555E
:10583000F94F80818F70806180838BE996E00E94B0
:1058400099040E94B92B03C001968770BDCFDF91E8
:10585000CF911F910F910895CF93DF93E82FE670BA
:10586000F0E0E550F94FC081D181209771F161508E
:105870004150E42FEE0F8170E82BF0E0EC0FFD1F9C
:105880009389A1E0B0E0062E01C0AA0F0A94EAF7BE
:10589000211106C0A0959A23938B95A1A92304C03A
:1058A0009A2B938B95A1A92BA5A3813011F488E0A5
:1058B00001C080E090E1499F600D1124680FFE0156
:1058C000E60FF11D27AB81E0888BDF91CF91089522
:1058D000FF920F931F93CF93DF93F42ED22F81313A
:1058E00018F08051C7E001C0C6E0082F10E096E034
:1058F000899FF0011124EB58FB4F4181442329F08B
:10590000262F60818C2F0E942C2C86E0809FF00136
:10591000819FF00D1124EB58FB4F4381442329F064
:105920002F2D62818C2F0E942C2C86E0809FF0010D
:10593000819FF00D1124EB58FB4F4581442329F042
:105940002D2F64818C2F0E942C2CCDB7DEB7E5E083
:105950000C946138A3E0B0E0E0EBFCE20C94483832
:105960006F3F61F0880F886E89838DEF8A836B8328
:1059700041E063E0CE0101960E94682F2396E2E0A9
:105980000C946438A7E1B0E0E8ECFCE20C944738F2
:105990004B8B5C8B6D8B7E8B8F8B61111092F40621
:1059A00086E09E01235F3F4FD901E82F1D92EA95C3
:1059B000E9F795E0FE017396D90101900D929A9551
:1059C000E1F79C894E895F897B897D879E876F87F8
:1059D000598B488BF901DE01179601900D928A953B
:1059E000E1F7CE0107960E949E2381113EC086E01A
:1059F000FE013796DE01119601900D928A95E1F72E
:105A0000FF81E8856A857B856115710531F0EF3F7F
:105A100031F481E0FF3F19F403C081E001C080E070
:105A200080FD23C02091A10630E0C9010196877056
:105A300099274091D20650E08417950779F1F983B0
:105A4000EA837D836C8396E0929FD001939FB00D93
:105A50001124AE55B94FFE01319601900D929A95E1
:105A6000E1F78093A1060E94B92B16E08091D2063F
:105A70009091A1068917F9F0189FC00111248E5545
:105A8000994F0E949E238823B1F08091D20690E026
:105A90000196877099278093D206E8CF0E94B1259E
:105AA0001092A1061092D206EBE9F6E086E0DF0143
:105AB0001D928A95E9F76796E3E00C946338CF93DB
:105AC000DF930E94B1250E94971F0E94121AEC01D9
:105AD00063E070E085E893E00E942032CE010E94EE
