:100000000C947A030C94B2030C94B2030C94B203D4
:100010000C94B2030C94B2030C94B2030C94B2038C
:100020000C94B2030C94B2030C947D240C944F25D1
:100030000C94A91E0C94B2030C94B2030C94B2035A
:100040000C94B2030C94B2030C94B2030C94B2035C
:100050000C94B2030C94321F0C94B2030C94B203B0
:100060000C94B2030C94B2030C94B2030C94B2033C
:100070000C94B2030C94B2030C94B2030C94B2032C
:100080000C94B2030C94B2030C94B2030C94B2031C
:100090000C94B2030C94B20374077407A007A00772
:1000A000080826080D090D0931089908AA08AA08A8
:1000B0009B179E17BF17D017D817E31729182918B1
:1000C000291829182918E617E917EE17FB17081839
:1000D0000B180F181C18171A0D1A1A1A6A1A6E1A0A
:1000E0006E1A6A1A6E1A6E1A3B1A6E1A451A4F1A4F
:1000F0006E1A6E1A6E1A6E1A6A1A6E1A6E1A6A1AC8
:100100006E1A281A6E1A6E1A5F1A5F1A5F1A5F1A31
:100110005F1A5F1A5F1A5F1A5F1A6C1A6E1A171A43
:100120000A1A6E1A6E1A6E1A6E1A6E1A6E1A6E1AF3
:100130006E1A6E1A6E1A6C1A6E1A6E1A6A1A6E1A85
:100140005D1A5D1A5D1A5D1A5D1A5D1A5D1A5D1AF7
:100150005D1A6C1AB725DE25D626DE25D6262A2678
:100160004D26D626A426B326290000003A003B00DF
:100170003C003D003E003F00400041004200430083
:100180004400450046004700480035001E001F009F
:100190002000210022002300240025002600270043
:1001A0002D002E002A0049004A004B002B001400AD
:1001B0001A000800150017001C0018000C0012009F
:1001C00013002F00300031004C004D004E0039006C
:1001D00004001600070009000A000B000D000E00C5
:1001E0000F00330034000000280000000000000071
:1001F000E1001D001B0006001900050011001000A1
:100200003600370038000000E50000000000520012
:100210000000E000E300E200000000002C0000000D
:1002200000000000E600E70076000000E400500057
:1002300051004F0001000000010001000100010019
:1002400001000100010001000100010001000100A6
:100250000100010001000100010001000100010096
:100260000100010001000100010001000100010086
:100270000100010001000100010001000100010076
:100280000100010001000100010001000100010066
:100290000100010001000100010001000100010056
:1002A0000100010001000100010001000100010046
:1002B000010000000100000000000000010001003A
:1002C0000100010001000100010001000100010026
:1002D000010000000100000000000100000001001A
:1002E000010001000000000001000000000000000B
:1002F00001000100010000000100010001000100F7
:1003000001000000010001000100010001000100E6
:1003100001000100010001000100010001000100D5
:1003200001000100010001000100010001000100C5
:1003300001000100010001000100010001000100B5
:1003400001000100010001000100010001000100A5
:100350000100010001000100010001000100010095
:100360000100010001000100010001000100010085
:100370000100010001000100010001000100000076
:100380000100000000000000010001000100010068
:100390000100010001000100010001000100000056
:1003A0000100000000000100000001000100010048
:1003B000000000000100000000000000010001003A
:1003C0000100000001000100010001000100000027
:1003D0000100010001000100010001000100010015
:1003E0000100010001000100010001000100010005
:1003F00001000100010001000100010001000100F5
:1004000001000100010001000100010001000100E4
:1004100001000100010001000100010001000100D4
:1004200001000100010001000100010001000100C4
:1004300001000100010001000100010001000100B4
:1004400001000100010001000100000001000000A6
:100450000000000001000100010001000100010096
:100460000100010001000100010000000100000086
:100470000000010000000100010001000000000078
:100480000100000000000000010001000100000068
:100490000100010001000100000000000000000058
:1004A0002A2B2800000000000000000000000000CF
:1004B00000000029000000002C1E342021222434DA
:1004C0002627252E362D3738271E1F2021222324AC
:1004D00025263333362E37381F0405060708090A48
:1004E0000B0C0D0E0F101112131415161718191AE4
:1004F0001B1C1D2F3130232D350405060708090A62
:100500000B0C0D0E0F101112131415161718191AC3
:100510001B1C1D2F3130354C000000000000000076
:1005200000000000000000000000000000000000CB
:100530000000000000000000000000007E0F00D45A
:10054000FFFFFFC70000007812034B004200440089
:10055000380058005F004800530000000C034C00B6
:1005600075006300690064000000040309040902C7
:100570005B00030100A0FA0904000001030101006F
:100580000921110100012240000705810308000133
:1005900009040100020300000009211101000122E9
:1005A0002200070582032000010705030320000144
:1005B00009040200010300000009211101000122C9
:1005C000B6000705840320000112010002000000AC
:1005D00008677603000100010200010660FF09615F
:1005E000A1010962150026FF009520750881020906
:1005F00063150026FF00952075089102C0050109CA
:1006000002A10185020901A10005091901290815A6
:100610000025019508750181020501093009311590
:1006200081257F95027508810609381581257F95FA
:100630000175088106050C0A38021581257F950190
:1006400075088106C0C005010980A1018503190153
:100650002AB700150126B700950175108100C00565
:100660000C0901A101850419012AA002150126A087
:1006700002950175108100C005010906A1018506DA
:10068000050719E029E71500250195087501810284
:100690000507190029EF1500250195F07501810264
:1006A0000508190129059505750191029501750344
:1006B0009101C005010906A101050719E029E71507
:1006C00000250195087501810295017508810105D4
:1006D00007190029FF150026FF00950675088100FF
:1006E0000508190129059505750191029501750304
:1006F0009101C00011241FBECFEFD0E1DEBFCDBFFE
:1007000004B603FE18C08091F2029091F302A0910A
:10071000F402B091F5028730904BA740B04B59F4EA
:100720001092F2021092F3021092F4021092F5026B
:10073000E0E0F8E7099511E0A0E0B1E0E2E8FFE4CD
:1007400002C005900D92A03AB107D9F722E0A0EAC5
:10075000B1E001C01D92A23FB207E1F70E94471429
:100760000C94BF270C94000081E0089581E0089567
:100770000E94B603089508950E94BB030895A5E062
:10078000B0E0E5ECF3E00C94342749835A833091D0
:10079000A30189819A81311114C0662359F0222363
:1007A00049F00E94B80A182F682F89819A810E9407
:1007B000940A03C00E94A60A182F69817A81812FAA
:1007C00004C00E94B80A69817A810E94841B259620
:1007D000E3E00C945027FC01262F40815181628177
:1007E000738184810E94BF03089581E00895CF93AF
:1007F000DF93EC0160E00E94EB03BE010E94BC03AA
:10080000DF91CF910895E1E0F0E0DF0102C0AA0F8F
:10081000BB1F6A95E2F7BD01DF0102C0AA0FBB1F33
:100820004A95E2F7AD01462B01C0EE0F2A95EAF793
:10083000942F9823491302C08E2B0895E0958E23A0
:100840000895242F462F682F8091CB010E94030426
:100850000E94F30908950E94E61208950E94E01292
:10086000089508950E9490090E9431042FE78AE1BB
:1008700096E0215080409040E1F700C000000895CC
:100880000E9432040E94581F08950E9432040E9460
:100890007C1F08950F931F93CF93DF938C0161E02A
:1008A0000E94EB03EC01B8010E944A17882309F467
:1008B00047C0B801CE010E94B803882309F440C0A4
:1008C000B801CE010E94D01C8823D1F1B801CE011D
:1008D0000E9434188823A1F1B801CE010E94361C71
:1008E000882371F1F8018281882331F1CA358DE5C1
:1008F000D807E9F050F4C115FCE5DF0779F0CE3DEB
:10090000DC45D1F40E94AD0F0CC0CC35EDE5DE071F
:1009100059F080F0C73ADD4521F00EC00E94400436
:100920000FC00E9445040CC00E94E40E05C00E9446
:10093000EE0E02C00E94F20EC8010E94B40301C074
:1009400080E0DF91CF911F910F9108950E947F1E4B
:100950000E94970508950E949B050E94881E089595
:10096000A0E0B0E0E6EBF4E00C943027E82FF0E0F4
:10097000E856FB4FD490282F26952695269530E0F3
:10098000F901E85CFA4F0491877010E0082E02C06C
:10099000159507950A94E2F701701127F901E85DB2
:1009A000FA4FE490F12C082E02C0F594E7940A94D3
:1009B000E2F791E0E922FF24F901E85EFA4FC491E1
:1009C000D0E002C0D595C7958A95E2F7C170DD27C2
:1009D0000115110519F081EE0E94F205E114F104F0
:1009E00019F086EE0E94F2058D2D0E942307E11476
:1009F000F10419F086EE0E94A0060115110519F008
:100A000081EE0E94A006CD2B19F08CE20E942307F4
:100A1000CDB7DEB7E7E00C944C27EF92FF920F932F
:100A20001F93CF93DF93EC01162F0AE08881882370
:100A300009F455C0813009F043C08981813041F407
:100A40007E0182E0E80EF11C8A810E94230709C022
:100A5000823049F47E01E2E0EE0EF11C8A810E94B0
:100A6000F205E7012FC0833041F47E01F2E0EF0E82
:100A7000F11C8A810E94A006F4CF843011F02196E7
:100A800021C02A81229680E090E030E02053310995
:100A90002A30310558F4089FA001099F500D1124F8
:100AA000C901840F951F21962881EFCF009751F03F
:100AB000EFECF7E03197F1F700C000000197F6CFB7
:100AC0000E94B0042196812F882309F4AFCFEFEC68
:100AD000F7E03197F1F700C000008150F5CFCDB7B6
:100AE000DEB7E6E00C944D2760E00E940D05089506
:100AF00008950E947805089581E00895CF93C82F46
:100B00000E947C05882329F0C1FF02C02F9A01C0F2
:100B10002F98CF910895279A2F980895CF93C82F93
:100B20000E9479058C2F0E947E05CF91089580E068
:100B30000E948E0508950E942C1D0E948E05089526
:100B40000E942C1D9091A201891721F08093A2018F
:100B50000E948E050895ABE0B0E0E1EBF5E00C9467
:100B600035274F83588769877A878B8761110E9461
:100B70002C0E9E012F5F3F4F86E0F90111928A955E
:100B8000E9F785E0FE013796D90101900D928A952B
:100B9000E1F789819A814C815D81452B31F09F3F3E
:100BA00031F491E08F3F19F403C091E001C090E06F
:100BB00090FF09C049815A816B817C818D819E8122
:100BC0000E94580D05C0C9010E94F5038111F2CFA2
:100BD0002B96E2E00C945127FC01808191810E94C8
:100BE000E50A0895CF93882309F4A8C0C82F823856
:100BF000C1F40E942C1D81FDA1C069E38091000118
:100C0000909101010E94231E0E94500E2FEF80E759
:100C100092E0215080409040E1F700C0000069E37D
:100C200019C0833801F50E942C1D80FD87C063E543
:100C300080910001909101010E94231E0E94500E9C
:100C40002FEF80E792E0215080409040E1F700C014
:100C5000000063E580910001909101010E94311E26
:100C60000E94500E6BC08438C1F40E942C1D82FD7E
:100C700065C067E480910001909101010E94231EEC
:100C80000E94500E2FEF80E792E02150804090406C
:100C9000E1F700C0000067E4DDCF8CEF8C0F813AF4
:100CA000F8F48C2F0E94751A811148C06C2F809126
:100CB0000001909101010E94A31D882349F06C2F2F
:100CC00080910001909101010E94311E0E94500EFE
:100CD0006C2F80910001909101010E94231EC0CFD2
:100CE00080E28C0F883048F4C77081E001C0880F23
:100CF000CA95EAF70E940F0EB3CFEBE5EC0FE33095
:100D000040F4F0E0EB5BFE4F808190E00E94611DBB
:100D100015C0E8E5EC0FE73150F4F0E0EE0FFF1FEF
:100D2000E95EFE4F808191810E94771D07C0C03F20
:100D300028F08C2F0E94CC140E949E15CF9108950C
:100D4000882309F467C0823879F40E942C1D81FF42
:100D500061C069E380910001909101010E94231E0E
:100D60000E94500E69E310C08338B9F40E942C1D14
:100D700080FF50C063E580910001909101010E94C5
:100D8000231E0E94500E63E58091000190910101A5
:100D90000E94311E0E94500E0895843879F40E94FA
:100DA0002C1D82FF37C067E4809100019091010102
:100DB0000E94231E0E94500E67E4E6CF9CEF980F1E
:100DC000913A10F4682FE0CF90E2980F983050F4E9
:100DD000877091E001C0990F8A95EAF7892F0E94E8
:100DE000150ED8CF9BE5980F933028F480E090E063
:100DF0000E94611D089598E5980F973128F480E0CE
:100E000090E00E94771D0895803F20F00E942715F2
:100E10000E949E1508951F93CF93DF93182FEB0127
:100E20000E94F205209741F08FEC97E00197F1F7CF
:100E300000C000002197F6CF812F0E94A006DF910D
:100E4000CF911F910895893319F060E070E002C0DE
:100E500060E570E00E940B070895882321F00E944E
:100E60000F0E0E94500E0895882321F00E94150E47
:100E70000E94500E0895A0E0B0E0E1E4F7E00C9489
:100E80002F277C01162FC72FFC01D28105810295E7
:100E90000F700E94050E8823B9F0DD23A9F08C2F76
:100EA000807F803421F080E2810F883068F080916B
:100EB000B00282FF09C082E00E94B20E0E94050EBD
:100EC00091E0D82ED92601C0D12CCC2EC2948FE02F
:100ED000C8228C2D90E08C30910508F09EC1FC0159
:100EE000E45BFF4F0C9418278C2F807FCF708823F2
:100EF00011F0C295C07FDD2399F0CC2309F479C1AC
:100F000080E2810F883010F0111104C08C2F0E94F4
:100F10000F0E03C08C2F0E941F0E0E94500E69C13D
:100F2000812F0E94A006CC2309F477C180E2810FB3
:100F3000883038F1112329F18C2F0E94250E24C00E
:100F40008C2F807FCF70803211F0C295C07F11232B
:100F500019F01130A1F13DC08091B00282FD17C09F
:100F6000DD2349F0CC2329F08C2F0E940F0E0E9424
:100F7000500E80E03FC180E00E94A006CC2309F41F
:100F80004CC18C2F0E94150E0E94500E46C1DD23CD
:100F900071F0002341F0013031F40E942F0E8C2BB0
:100FA0000E94390E3AC10E942F0E8C2B1DC00023C7
:100FB00019F0013009F431C10E94460E25C0DD232D
:100FC00021F0063008F029C10EC0053008F025C117
:100FD0001BC0DD2361F0002331F0F701858180FF24
:100FE00008C18F7085838C2F0E942D0716C10023A6
:100FF00059F0193309F00EC1FFEF23EF81E0F150F2
:1010000020408040E1F704C18C2F0E94340705C1C5
:101010008C2F86958695837019F0813061F0FDC024
:10102000DD2321F0812F9C2F937002C080E090E09F
:101030000E94611DFAC0DD2321F0812F9C2F937047
:1010400002C080E090E00E94771DEFC0812FDD2379
:1010500019F00E94CC1402C00E9427150E949E1510
:10106000E4C08C2F837079F5D111DBC0412F4295FC
:1010700046954770440F440F212F2F70042E01C056
:10108000220F0A94EAF714FF08C08FE090E001C035
:10109000880F4A95EAF7809501C080E0C695C6950D
:1010A000C370822BC23049F058F4C13019F00E944D
:1010B000E409B7C00E94DE09B4C00E94EA09B1C0C9
:1010C0000E94DB09AEC0DD2319F08C2F817001C0B6
:1010D0008695882309F4A5C0412F4295469547700F
:1010E000440F440F212F2F70042E01C0220F0A94A9
:1010F000EAF714FF08C08FE090E001C0880F4A951E
:10110000EAF7809501C080E0C695C695C370822B32
:10111000C23049F058F4C13019F00E94320A81C03F
:101120000E942C0A7EC00E94380A7BC00E94F309EC
:1011300078C0CF70DD2339F08C2F0E94070A812FF1
:101140000E942D076EC0812F0E9434078C2F0E94B1
:10115000130A67C0123F21F128F4103F41F0113FFC
:10116000C1F043C0133F19F1143F79F03EC0DD23B5
:1011700041F0053008F051C08C2F8F710E94200A79
:101180004CC0063008F049C0F7CF8091B00282FD14
:1011900018C0DD2339F08C2F8F710E94070A3DC0E3
:1011A000DD23C9F38C2F8F710E94130A36C0DD2313
:1011B00029F08C2F8F710E94FE092FC00E94FA091E
:1011C0002CC0DD2349F0CF718C2F0E94070A63E009
:1011D0008C2F0E94940E21C081E00E94B20E02303A
:1011E000E0F082E00E94B20E18C0DD2331F000234F
:1011F00091F2812F0E94F20510C0002399F2193359
:1012000049F49FEFE3EFF1E09150E040F040E1F767
:1012100000C00000812F0E94A00688EF8C0D843052
:1012200020F40E942C1D0E948E05DD2089F00E9472
:10123000010E80FD0DC0F70112820E94FB0D0E947D
:10124000070AC7010E9445090E94FB0D0E94130A6C
:10125000CDB7DEB7E8E00C944B270F931F93CF93E5
:10126000DF93EC01688179818A810E94F00A8C0108
:101270000E943E0A0E94CC09B801CE010E943B07A1
:10128000DF91CF911F910F910895CF93DF93EC01E0
:10129000988189812B813C81232B31F08F3F31F460
:1012A00081E09F3F19F403C081E001C080E080FD30
:1012B0001AC0CE010E944A0481110FC00E94050E7F
:1012C000882389F08A81882371F08091B00282FF9F
:1012D0000AC082E00E94B20E06C0CE010E942D0913
:1012E000CE010E94F703DF91CF91089580E090E056
:1012F0000E94611D80E090E00E94771D0E942C0EEC
:101300000E94500E0E94BD150E949E150895809166
:101310000001909101010E943F1E0E9476090895EC
:101320000E941C0E0E948709089592959F70963026
:1013300079F010F4925001C09A50923068F4803FD6
:1013400069F018F4883E40F409C0843F29F406C0CF
:10135000883E20F0813F11F080E0089581E00895FB
:10136000FC01808191810E94E50A0E9495090895FF
:10137000A5E0B0E0EEEBF9E00C9435272596E2E02D
:101380000C945127A6E0B0E0E8ECF9E00C94352786
:101390002696E2E00C945127089508950E94CD0905
:1013A00008950E94CE0908950E94D1098093CC012E
:1013B0000E94760908950E94D40908959091CC0165
:1013C000892B0E94D40908959091CC0189230E9411
:1013D000D40908959091CC0189270E94D4090895D9
:1013E0000E94CD0908950E94F0098093CB010E94CC
:1013F0007609089580E00E94F309089591E001C004
:10140000990F8A95EAF7892F0E94F309089521E040
:1014100030E001C0220F8A95EAF78091CB01822B40
:101420000E94F309089521E030E001C0220F8A955F
:10143000EAF720958091CB0182230E94F309089559
:1014400021E030E001C0220F8A95EAF78091CB01BC
:1014500082270E94F30908959091CB01892B0E9465
:10146000F30908959091CB0189230E94F30908950F
:101470009091CB0189270E94F30908950895962F32
:101480009770A1E001C0AA0F9A95EAF793E07695CC
:1014900067959A95E1F7FB01EE0FFF1F6E0F7F1F17
:1014A000FA01E60FF71F40E050E0682F70E09081EE
:1014B0009B01042E02C0369527950A94E2F721700D
:1014C000219529272A23292721934F5F5F4F4330F6
:1014D000510569F708959B01782F777043E0969541
:1014E00087954A95E1F7FC01EE0FFF1F8E0F9F1FB6
:1014F000F901E80FF91F40E050E080E0219130E071
:10150000072E02C0369527950A94E2F721703327FB
:10151000042E01C0220F0A94EAF7822B4F5F5F4F1F
:101520004330510559F70895282F963070F48131D2
:1015300060F4862F622F70E021E1929F600D711D93
:10154000112444EA51E00E943F0A0895963070F455
:10155000813160F4292F90E064EA71E031E1239F4A
:10156000800D911D11240E946B0A089580E008955A
:10157000CF92DF92FF920F931F93CF93DF936C0173
:101580000091CB018091CC01082BC7E0D0E010E0A6
:10159000C8010C2E02C0959587950A94E2F780FD4C
:1015A00004C02197A8F7F12C07C0FC2EB6018C2FA0
:1015B0000E94B3110197A9F38F2DDF91CF911F9155
:1015C0000F91FF90DF90CF900895CF93DF93EC01C0
:1015D0000E94B80ABE010E94B311DF91CF91089515
:1015E0001F93CF93DF93EB019091A301992321F0F7
:1015F000CB010E94E50A13C0882349F0CB010E9469
:10160000B80A182F682FCE010E94940A04C0CB019B
:101610000E94A60A182FBE01812F0E94B311DF91EC
:10162000CF911F9108951F93CF93DF93C091CD0168
:1016300016E08091CE01C81799F0D0E01C9FF00110
:101640001D9FF00D1124E153FE4F408151816281B5
:101650007381848195810E94C2092196C770E9CF68
:10166000DF91CF911F9108954091FF0150910002A9
:101670006091010270910202809103029091040234
:101680000E94C20908950F931F93CF93DF93809117
:10169000040282958F7009F05AC08091010288235C
:1016A00009F455C08091CD011091CE016091FF01E8
:1016B00070910002C0910202D091030291E06F3F4D
:1016C00009F090E0292F06E0811709F440C0209727
:1016D00021F07F3F21F030E003C031E001C0322F24
:1016E00090E030FD31C0089FF001099FF00D1124FA
:1016F000DF01A153BE4F11963C911197371324C0BF
:101700003C91361321C012963C91129731111CC0A6
:1017100013964D915C9114974C1B5D0B483C510501
:1017200098F4809104028F70806180930402EC52DF
:10173000FE4F80818F70806180838FEF91E00E94E7
:1017400045090E94130B03C001968770BDCFDF913E
:10175000CF911F910F910895A1E1B0E0E2EBFBE082
:101760000C942C278C0185E0F801DE011D96019078
:101770000D928A95E1F7F801E2809091FF01609166
:10178000000220910202309103022115310531F04F
:101790006F3F31F481E09F3F19F403C081E001C045
:1017A00080E0F82FF1709F2E80FD40C1F80140814C
:1017B0005181A380B4808FEFC82E81E0D82EF090A5
:1017C0000102F501E21BF30BFF2009F4DAC080915E
:1017D0000402E83CF10508F096C0282F207F09F0AC
:1017E00053C0561313C0491311C0FE2CE1100EC094
:1017F0008F708061809304020E94340BC6010E94A6
:10180000450980910402F80185834DC1A114B104FA
:1018100031F05F3F31F481E04F3F19F403C081E0C4
:1018200001C080E080FD03C081E08E2502C080E021
:1018300090E0F82FF170FF2E80FF1CC08091CD0149
:101840002091CE0136E0821709F40BC190E0389F59
:10185000F001399FF00D1124E153FE4F61815613C1
:1018600006C06081461303C06281E61203C0019680
:101870008770E9CFFE2CEE2009F415C18091040297
:1018800081608093040254C0561306C0491304C0FB
:10189000E11002C0F80199C0C8010E94B009882374
:1018A00061F1EE2051F120910402822F82958F7018
:1018B00090E0029774F08091FF0190910002988768
:1018C0008F831986BB86AA862C87CE0107960E9435
:1018D000450986E0F801AFEFB1E001900D928A95DD
:1018E000E1F70E94430B0E94340B0AC0561711F116
:1018F000C8010E94B00981112CC0C8010E9445098D
:10190000FF24F394D0C0282F207F81F77A2DB98A45
:10191000A88A6E2D89890E94B8098FEF91E00E94F4
:10192000450986E0F60111928A95E9F70E94340B89
:10193000F12CB9C04913DCCFE110DACFF80185836F
:10194000C8010E94450986E0F60111928A95E9F7DF
:10195000AAC0EE2091F220910402822F82958F700E
:1019600090E002970CF4B5CF8091FF0190910002B6
:101970009A8389831B82BD82AC822E83CE0101961D
:10198000A6CFE83CF10508F044C0FE2CEE2009F497
:10199000B4CF561330C049132EC02091040220FD4D
:1019A00021C0822F82958F70482F50E0411551053C
:1019B000C9F0F80125834F30510541F08F5F982F12
:1019C0009295907F822F8F70892B8583C8010E940A
:1019D000450986E0F801AFEFB1E001900D928A95DC
:1019E000E1F73CC086E0F801AFEFB1E001900D9265
:1019F0008A95E1F758C0C8010E94B009811169CFEA
:101A000080910402816080930402C8010E9445090C
:101A10004AC07A2DB98AA88A6E2D89890E94B80990
:101A200086E0F60111928A95E9F718C0EE2009F4D4
:101A300064CFC8010E94B009F82E882309F45DCF55
:101A400086E0F801AFEFB1E001900D928A95E1F7E1
:101A50008FEF91E00E94EC050E94430B0E94340B33
:101A600022C04D875E878D859E850E94E50A292FBD
:101A700022952F70223028F49F7039F0811105C013
:101A80000BC0243028F49F7049F4805E883020F029
:101A9000C8010E9445099F2CF92C05C0F8019581C9
:101AA000907F99F7F9CF8F2D6196EBE00C94482742
:101AB000ACE0B0E0EEE5FDE00C9434274F835887AE
:101AC00069877A878B879C87CE0107960E94AC0B2B
:101AD0008823D1F09F8188852A853B85232B31F08F
:101AE0008F3F31F481E09F3F19F403C081E001C0D2
:101AF00080E080FD47C04F81588569857A858B8558
:101B00009C850E94C2093EC086E0FE013796DE0138
:101B1000119601900D928A95E1F7FF81E8856A851B
:101B20007B856115710531F0EF3F31F481E0FF3FB6
:101B300019F403C081E001C080E080FD23C0209142
:101B4000CE0130E0C9010196877099274091CD01FF
:101B500050E084179507F1F1F983EA837D836C8364
:101B600096E0929FD001939FB00D1124A153BE4FD8
:101B7000FE01319601900D929A95E1F78093CE0186
:101B80000E94130B16E08091CD019091CE01891730
:101B900071F1189FC001112481539E4F0E94AC0B1C
:101BA000882329F1E091CD011E9FF0011124E1531A
:101BB000FE4F4081518162817381848195810E94B1
:101BC000C2098091CD0190E001968770992780939A
:101BD000CD01D9CF0E9490091092CE011092CD0173
:101BE000EFEFF1E086E0DF011D928A95E9F72C9690
:101BF000E3E00C9450278091250285958595859585
:101C0000089580912502877008959091250297701C
:101C100081E009F480E00895809148020895909150
:101C20004802892B8093480208958095909148023C
:101C30008923809348020895109248020895909154
:101C40004702892B8093470208958095909147021F
:101C50008923809347020895109247020895809146
:101C60002602089508950E94320E08950E94330EB0
:101C700008959091B00292FF08C0909126029817A3
:101C800021F0809326020E94360E0895809126024C
:101C9000882329F01092260280E00E94360E0895D3
:101CA000CF93DF93E0910001F09101018091480210
:101CB0008083E0910001F0910101908180914702C1
:101CC000892B808380912602882381F0E091000196
:101CD000F09101019081892B808380910001909186
:101CE00001010E948D1D81110E94460EC0910001CC
:101CF000D091010140E250E065E072E0CE010E9427
:101D00007027892B59F080E2FE01A5E0B2E0019036
:101D10000D928A95E1F7CE010E94391DDF91CF9196
:101D200008950E94320E08959091B00292FF11C062
:101D300098E0899F90011124262B209325020E9470
:101D4000070A809125028595859585950E94910EBB
:101D500008950E94070A08951092250280E00E94CB
:101D6000910E08952091250280958223809325026B
:101D7000982F977099F430E0482F082E000C550BDF
:101D80002417350759F09091B00292FF07C085954E
:101D9000859585950E94130A0E94AC0E0895909136
:101DA000B00292FB222720F9281769F080FB92F9F4
:101DB0009093B0028091AF029091B0020E94240FE4
:101DC00082E00E94B20E08958091B00282FB8827C3
:101DD00080F991E089270E94CF0E089581E00E944A
:101DE000CF0E089580E00E94CF0E08956FEF7FEF31
:101DF00080E090E00E94A927089580E090E00E9492
:101E00008527883E9E4F19F40E94DF16089580E0D2
:101E1000089582E090E00E947D27089583E090E09D
:101E20000E947D270895CF9384E090E00E947D2753
:101E3000C82F82E290E00E947D272C2F30E0A9017C
:101E4000582BCA01CF910895CF93C92F682F84E0F2
:101E500090E00E948B276C2F82E290E00E948B27FB
:101E6000CF910895AB01BC018FE090E00E949D27C7
:101E70000895AB01BC0183E190E00E949D27089585
:101E800060E070E0CB010E94390F089560E070E0DF
:101E9000CB010E94320F0E94400F089568EE7EEF42
:101EA00080E090E00E94A92760E082E090E00E943C
:101EB0008B2760E083E090E00E948B271092CC019A
:101EC00060E084E090E00E948B2764E082E290E092
:101ED0000E948B2760E085E090E00E948B2760E005
:101EE00086E090E00E948B276FEF87E090E00E94F1
:101EF0008B2740E050E0BA0188E090E00E949D27E7
:101F000060E08DE090E00E948B2740E050E0BA0155
:101F100088E190E00E949D2760E087E190E00E94C8
:101F20008B2740E050E0BA018CE190E00E949D27B1
:101F300060E070E080E290E00E94A92740E050E07D
:101F4000BA0188E190E00E949D2780E00E94F81687
:101F50000E942D170E94460F08950E944E0F08956B
:101F6000682F8EE090E00E948B2708950E94171F33
:101F70006093650270936602809367029093680293
:101F80006093610270936202809363029093640293
:101F9000089581E008950E94C90F089508950E9450
:101FA000CE0F08950E94CE0F08950E94D20F08957B
:101FB0000E94CE0F08950E94D80F08950E94CE0F60
:101FC00008958FE892E10E94221D0E94DE0F0E9478
:101FD000DB0F08950E94CF0F0E94CE0F08950E943C
:101FE000AB120E948B0508950E94021F0E943D17AC
:101FF0000E94AB130E94EF0F0E94D50F0895ADE031
:10200000B0E0E5E0F0E10C9425270E94C113282EF2
:1020100081110E94B60F89E492E09D878C8700E0D1
:1020200010E0302E802F0E94C6122B013C01EC855F
:10203000FD8581919191A191B191FD87EC8753012B
:10204000420188269926AA26BB2681149104A10460
:10205000B104B1F40F5F1F4F0630110511F78FEF78
:1020600089838A831B820E940B1F8160782F9D8346
:102070008C8349815A816B818D810E94AB0552C04E
:102080008091690281FD0E94D2121B86C12CD12C45
:102090007601C394D501C4018C219D21AE21BF21BD
:1020A000892B8A2B8B2B99F10E94CB0F8823D9F097
:1020B000FB85FE833F824C205D206E207F2081E0E7
:1020C000411451046104710409F480E088870E947E
:1020D0000B1F8160782F9A8789874E815F81688581
:1020E0008A850E94AB05000F111F000F111FF80118
:1020F000E75BFD4F80819181A281B381C826D926FB
:10210000EA26FB26C082D182E282F3820BC08B8555
:102110008F5F8B87CC0CDD1CEE1CFF1C813109F01E
:10212000B9CF98CF81E0211001C080E02D96E2E187
:102130000C9441270E94FF0F0E94DF150E94A0050A
:102140000895CF93DF930E94B811EC01811521E52A
:10215000920708F045C0811530E5930708F094C058
:10216000883E910528F5803E910508F0F8C0883A30
:10217000910570F4853A910508F07CC08130910595
:1021800009F475C008F4E8C0049708F0E8C0E4C09A
:102190008F3B910508F0E0C0C85AD0E0CC0FDD1F9E
:1021A000C85BDE4F0990D881C02DCE019464D8C0A1
:1021B000811540E2940758F4811551E0950708F025
:1021C000CEC0803F910508F4C7C09065C9C0C11555
:1021D00080E4D80708F4C0C0DF70CE01906AC0C0A8
:1021E000811525E59207A8F4811534E5930708F0D9
:1021F00095C0811543E5940708F07BC0811552E531
:10220000950708F061C0D82FCC27CE01816F906A66
:10221000A7C0C11589E5D807A0F4C11528E5D207E4
:1022200008F082C0C11536E5D30708F095C08C2FA1
:102230000E944C128F7190E0D82FCC27CE01906273
:102240008FC0C1154AE5D40708F474C0CE0190567A
:102250008115904208F080C08D2F8F710E944C1222
:10226000DD27D0628F71AE01582BCA0179C081E0A1
:1022700090E076C0C55AD0E0CA58DE4F8881C82F9A
:10228000D0E0CE0190646CC074E0969587957A9505
:10229000E1F7282F23703C2F337081E090E002C0DB
:1022A000880F991F3A95E2F79C68AC01522B9A016E
:1022B0009C2F9F709695969550E2959FE001112472
:1022C000C9018C2B9D2B4CC08370992721E030E0F5
:1022D00002C0220F331F8A95E2F79C2F96959695A0
:1022E00080E2989FE0011124C22BD32BCE019C6881
:1022F00037C08370992721E030E002C0220F331FDE
:102300008A95E2F79C2F9695969540E2949FE0017E
:102310001124C22BD32BCE019A6822C0D82FCC27F0
:10232000CE01846F906A1CC0DC2FCC27CE01806F59
:10233000906A16C08C2F8F700E944C1294E0D69534
:10234000C7959A95E1F7CF70D0E0DC2FCC27D06904
:102350009E01282BC90104C080E090E001C0CE019D
:10236000DF91CF9108950E94841B0E94A1100895CF
:102370008238910569F1B0F48133910509F46DC09B
:1023800048F48932910509F463C08A32910509F451
:1023900069C008958533910509F455C089339105C5
:1023A000B9F00895833E910569F138F4803E9105B6
:1023B000B1F0823E910509F10895863E9105A9F19B
:1023C000873E9105B9F1843E910509F064C023C0B0
:1023D0002091AF0220FD4FC021FD4DC00895809196
:1023E000AF0280FD44C08091B00280FF44C0809164
:1023F000AF0284FD42C083EE4DC08091AF0282FFE8
:1024000038C0F5CF8091AF0282FD33C08091B00219
:1024100080FD31C0ECCF8091B00281FF32C080914D
:10242000AF0284FD2AC087EE35C08091AF0283FFE2
:1024300026C0F5CF8091AF0283FD21C08091B0020C
:1024400081FD1FC0ECCF8091AF0285FD1CC01DC077
:102450008091AF0285FD19C016C08091AF0286FD44
:1024600016C017C08091AF0286FD13C010C089E36B
:1024700011C082EE0FC080EE0DC080E00BC086EE72
:1024800009C084EE07C089E205C085E303C08AE283
:1024900001C081E390E008959091AF0292FF0DC0DA
:1024A000282F2871283019F4877F846006C0282FD0
:1024B0002471243011F48B7F886093FF0DC0282F86
:1024C0002871283119F4877E846106C0282F247171
:1024D000243111F48B7E88612091B00220FF0DC061
:1024E000382F3871383019F4877F816006C0382F53
:1024F0003171313011F48E7F886021FF0DC0282F9B
:102500002871283119F4877E816106C0282F217136
:10251000213111F48E7E886194FD877E089580E0DC
:1025200008950E94F60E08950E94C1138FE19EE463
:102530000197F1F700C000000E94C11380E00E94E3
:10254000C61260FF04C00E9491120E94581F089595
:102550000E94941208950E94FD0E811102C00E94F3
:10256000AD0F0E94090F809369020E94130F909390
:10257000B0028093AF020E94A8120E940E0F0E9428
:10258000DB098091CB010E94F009089524E0829F2D
:10259000C0011124FC01E753FD4F608171818281EC
:1025A00093810895089580E58A95F1F7089500C014
:1025B00008950E94D312089508950E94DC12089590
:1025C0000E94DD1208950E94DC1208950E94E31219
:1025D0000895F894E82FE295EF70F0E031A1282FEC
:1025E0002F7081E090E001C0880F2A95EAF7982FBC
:1025F0009095932391A392A1892B82A37894089517
:102600000F931F93CF93DF93CAE8D1E089918F3F57
:1026100011F00E94E91281E0C039D807B9F7C9E783
:10262000D1E00AE811E089918F3F11F00E94E91290
:102630000C171D07C1F7DF91CF911F910F910895DE
:102640004F925F926F927F928F929F92AF92BF92C2
:10265000DF92EF92FF920F931F93CF93DF938C0142
:10266000C62FD0E0CE0186579E4F7C01FC019081A1
:102670009F3F09F460C0D62EF894E92FE295EF70E1
:10268000F0E081A19F7021E030E001C0220F9A9517
:10269000EAF7822B81A382A12095282322A3789494
:1026A0000E94D712E9E7F1E02AE831E0412C512CF1
:1026B00032014394812C912C540181918F3F99F0E8
:1026C000A82FA295AF70B0E090964C9150E08F701B
:1026D000BA0102C0759567958A95E2F760FD03C05F
:1026E000D301C20103C080E090E0DC01882A992A6E
:1026F000AA2ABB2A440C551C661C771C2E173F07C0
:10270000E1F6F70180818F3F11F00E94E91261E04C
:1027100081149104A104B10409F460E08D2D0E949C
:10272000D912CC0FDD1FCC0FDD1FC00FD11F888247
:102730009982AA82BB82DF91CF911F910F91FF9066
:10274000EF90DF90BF90AF909F908F907F906F90B1
:102750005F904F9008950E94001388E1E9ECF2E049
:10276000DF01982F1D929A95E9F7E1EBF2E0DF0186
:102770001D928A95E9F786E00E94FD130E942B04C2
:102780000895A8E1B0E0E7ECF3E10C9432278E0164
:102790000F5F1F4F88E1F80111928A95E9F7F12C3C
:1027A0006F2DC8010E942013F394F6E0FF12F8CFBA
:1027B00048E150E0B80181EB92E00E947027FF24CD
:1027C000F394009709F4F12C892B41F088E1F8018A
:1027D000A1EBB2E001900D928A95E1F72F2D46E032
:1027E00069EC72E081EB92E00E94FE130E942E04DD
:1027F0008F2D6896E5E00C944E270895FF920F9375
:102800001F93CF93DF93F82ED92F8B01C42F222350
:1028100049F081E080936C020E940B1F90936B0241
:1028200080936A0280916C028823F1F080916A02A1
:1028300090916B020E94231F0597B0F0EF2DFD2FA2
:10284000D80180E090E04C2F50E08417950754F4B5
:1028500001911191219131910D931D932D933D93F0
:102860000196F3CF10926C02CDB7DEB7E5E00C9481
:102870004E270E9467210E94F40F0E947421089540
:102880000E9479210E949A100E94932108950E942B
:10289000A21E0E944D210E94E10F0E9439140E9445
:1028A00040140E94EA0FFBCF8091730280FF06C0A4
:1028B0006091070170E0660F771F26C081FF04C09A
:1028C0006091070184E005C082FF07C060910701A5
:1028D00088E0689FB001112417C09091720299237B
:1028E000D1F060910601961788F72091070188E0E2
:1028F000289F90011124929FA001939F500D1124B5
:1029000070E0CA010E9404276038710540F4611527
:10291000710519F406C068E070E0862F08958FE70E
:10292000089581E008958091730280FF08C060914E
:10293000030170E0759567957595679521C081FFD6
:1029400006C06091030170E07595679519C082FF1C
:1029500004C06091030170E010C09091710299234E
:1029600099F0609102019617A0F780910301899F69
:10297000C001112470E00E9404276038710540F402
:102980006115710519F406C061E070E0862F0895A5
:102990008FE7089581E00895803F21F40E94541448
:1029A000819504C0813F29F40E94541480937702DA
:1029B0000895823F21F40E945414819504C0833FFE
:1029C00029F40E945414809376020895893F19F4E3
:1029D0000E94931405C08A3F31F40E94931481959C
:1029E0008093780208958B3F21F40E94931481957F
:1029F00004C08C3F29F40E949314809379020895B7
:102A00009CE0980F953078F421E030E0A90102C0F5
:102A1000440F551F9A95E2F7CA0190917502892BD0
:102A20008093750208958D3F21F480917302816037
:102A30000BC08E3F21F480917302826005C08F3FEE
:102A400029F4809173028460809373020895803F1B
:102A500039F49091770297FF35C01092770259C0F0
:102A6000813F29F4909177021916BCF32BC0909105
:102A70007602823F29F497FF25C01092760249C062
:102A8000833F19F41916CCF31DC090917802893F49
:102A900029F41916BCF4109278023BC08A3F19F44D
:102AA00097FF10C0F8CF8B3F39F49091790297FFD0
:102AB00009C0109279022DC08C3F21F490917902C7
:102AC0001916BCF39CE0980F953080F421E030E0BB
:102AD000A90102C0440F551F9A95E2F7CA018095DB
:102AE0009091750289238093750213C08D3F21F464
:102AF000809173028E7F0BC08E3F21F48091730210
:102B00008D7F05C08F3F29F4809173028B7F809366
:102B1000730280917602811106C080917702811143
:102B200002C01092720280917802811106C08091D9
:102B30007902811102C01092710208950E940B1F48
:102B400020917602211104C020917702222321F0E6
:102B50009093700280936F0220917802211104C03B
:102B600020917902222321F090936E0280936D02CE
:102B700084E792E00E94531D0895E4E7F2E086E0C6
:102B8000DF011D928A95E9F710927202109271028C
:102B9000109273020895FC01828181110DC083811E
:102BA00081110AC08481811107C091E08581811162
:102BB00001C090E0892F01C081E081700895A6E0F6
:102BC000B0E0E5EEF5E10C94342786E0E4E7F2E0CE
:102BD000DE01119601900D928A95E1F7109276022E
:102BE0001092770210927802109279028B818111F3
:102BF00004C08C81882309F45FC080916F0290919A
:102C000070020E94231FAC0190917202992339F047
:102C10002091080130E02417350758F04DC020916D
:102C200009018AE0289F900111242417350718F024
:102C300043C09F3F19F09F5F909372021B81112345
:102C400061F00E945414111614F09FEF01C091E03E
:102C5000989F902D1124909376021C81112361F08E
:102C60000E945414111614F09FEF01C091E0989F38
:102C7000902D112490937702309176023323E1F066
:102C8000209177022223C1F045EB3403C0011124C7
:102C9000992319F09093760203C081E08093760225
:102CA00035EB2303C0011124992319F09093770287
:102CB00003C081E0809377028D81811104C08E81F1
:102CC000882309F45FC080916D0290916E020E948A
:102CD000231FAC0190917102992339F020910401D6
:102CE00030E02417350758F04DC0209105018AE0E7
:102CF000289F900111242417350718F043C09F3FE7
:102D000019F09F5F909371021D81112361F00E9461
:102D10009314111614F09FEF01C091E0989F902D2D
:102D20001124909378021E81112361F00E94931464
:102D3000111614F09FEF01C091E0989F902D11247F
:102D400090937902309178023323E1F02091790257
:102D50002223C1F045EB3403C0011124992319F05B
:102D60009093780203C081E08093780235EB2303CF
:102D7000C0011124992319F09093790203C081E0D6
:102D800080937902BE016F5F7F4F84E792E00E94DB
:102D9000511E811105C084E792E00E94CB1581117C
:102DA0000E949E1586E0FE013196A4E7B2E00190F4
:102DB0000D928A95E1F72696E3E00C94502783E282
:102DC00090E00E947D27823281F484E290E00E94AC
:102DD0007D27873051F485E290E00E947D2791E0C5
:102DE000843109F090E0892F01C080E0817008955E
:102DF000CF93C82F811102C06FEF01C062E283E25E
:102E000090E00E948B27C11102C06FEF01C067E004
:102E100084E290E00E948B27C11102C06FEF01C0D5
:102E200064E185E290E00E948B27CF910895089598
:102E300086E290E00E947D27682F70E080E090E0BD
:102E400008950895CF93C62F0E9421176C2F86E214
:102E500090E00E948B27CF91089580E00E94F816A1
:102E600060E070E0CB010E9422170E940D1B0E94BF
:102E7000DB1B81E00E94F81608950E9417170E943C
:102E800018170E9421170E94DF16811102C00E94AC
:102E90002D170895CF93FB01C281CC23E9F09C014B
:102EA00022513F452031310520F482510E94EB1B15
:102EB0000CC08031FFE59F0751F481E00E94070AB2
:102EC00043E062E081E00E942104C0E018C081314B
:102ED0009F45A9F482E0F2CF8031EFE59E0711F41F
:102EE00081E004C081319F4549F482E00E94130AC9
:102EF00043E062E081E00E94210401C0C1E08C2F28
:102F0000CF9108952FEFFC0120830895EF92FF9257
:102F10000F931F93CF93DF93EC01E62EE8818E2F62
:102F200090E0FC013197E331F10508F092C0E85AD6
:102F3000FF4F0C941827198289E04EC08981823096
:102F400039F0833061F0813031F50E94171F02C0E3
:102F50000E9418179A838B837C836D837CC08E01BB
:102F6000F12C8F2D0E94C612F80182837383648333
:102F7000F3940D5F1F4FF6E0FF12F3CF6CC0898111
:102F8000823049F46A817B818C819D810E941E2759
:102F90000E94221760C06E2DCE010E9482175BC076
:102FA0004B816A8189810E94D11A9C838D8353C091
:102FB0002C813D813227232732274B816A818981E9
:102FC0000E94F21A48C00E940D1B45C00E94921B2D
:102FD00024C00E94941B99838A833DC06B8170E05A
:102FE00089819A81AE014C5F5F4F98278927982786
:102FF0000E94971B30C06B8170E089819A81AE017D
:103000004C5F5F4F9827892798270E94BA1B23C0DF
:103010000E94DB1B20C00E94BE1A89831CC06B81EA
:1030200070E089819A81AE014C5F5F4F98278927B4
:1030300098270E94421B0FC06B8170E089819A81A2
:10304000AE014C5F5F4F9827892798270E94641B29
:1030500002C08FEF88836E2DCE010E941F20CDB756
:10306000DEB7E6E00C944D27CF93DF93EC01FB0134
:103070008281882309F43CC1C330FDE5DF0760F499
:10308000CA3F9CE5D90788F49E0122503C45243173
:10309000310508F02EC109C0C136EDE5DE0729F083
:1030A000C53AFDE5DF0709F024C10E94130F909394
:1030B000B0028093AF02C1318CE5D80709F4C6C0D5
:1030C00008F042C0C930ECE5DE0709F49BC000F50A
:1030D000C5308CE5D80709F485C078F4C330ECE539
:1030E000DE0709F478C008F07AC0C230DC4509F088
:1030F000F5C08091AF028160EFC0C7309CE5D90771
:1031000009F478C008F07AC08091AF028061E4C011
:10311000CD30FCE5DF0709F487C058F4CB309CE5DF
:10312000D90709F479C008F07BC08091AF028860AC
:103130006FC0CF30FCE5DF0709F480C008F082C023
:103140008091AF02877FC8C0CD3F9CE5D90709F4C5
:1031500071C000F5C531FCE5DF0709F485C068F4EE
:10316000C3319CE5D90709F475C008F095C00E94E9
:1031700090098091AF028F77AFC0CB3FFCE5DF07AE
:10318000A9F108F054C0CA3FDC4509F0A7C08091FE
:10319000B00240C0C130EDE5DE0709F489C058F443
:1031A000CF3F8CE5D80709F45AC008F069C0809178
:1031B000B00282602FC0C136EDE5DE0709F47CC0A5
:1031C000C53AFDE5DF0709F481C0C230DD4509F0ED
:1031D00085C080E06EC08091AF0282607DC080912A
:1031E000AF0216C08091AF02886076C08091B002B5
:1031F00082604FC08091AF0280626EC08091AF024A
:1032000080646AC00E9490098091AF02806864C0A7
:10321000846062C081603DC08091AF028E7F5CC0DF
:103220008091AF028D7F58C08091AF0216C080910F
:10323000B00218C08091B0028D7F2BC08091AF0288
:103240008F7E4AC08091AF028F7D46C08091AF02D1
:103250008F7B42C08091AF02877F8B7F3DC0809182
:10326000B0028D7F8E7F15C08091AF0282FB222736
:1032700020F991E0922790FB82F990FB83F92CC012
:103280008091B002982F909591708E7F892B90FB42
:1032900081F98093B00222C00E9490098091AF0210
:1032A00087FB222720F991E0922790FB87F914C031
:1032B00081E00E94B00F12C08091AF0284FB2227F0
:1032C00020F991E0922790FB84F906C08091AF022B
:1032D000982F909590FB80F98093AF028091AF0278
:1032E0009091B0020E94240F0E94900980E001C0DA
:1032F00081E0DF91CF910895893289F1F0F4843132
:1033000071F1B0F4873009F077C081E08093090152
:1033100084E1809308018AE0809307018EE1809325
:10332000060188E08093030188E28093020164C073
:1033300092EE980F9A30F0F05FC0803509F444C0E7
:1033400028F48F3409F058C08AE03FC0813529F055
:10335000823509F051C081E038C08FEF36C08091CE
:103360007C02882379F110927C0210927B021092E9
:103370007A0242C08D5180937C02833099F038F4F8
:10338000813069F08230D9F488E091E00DC0853059
:1033900099F078F0863099F482E091E005C089E0F8
:1033A00091E002C087E091E090937B0280937A02E3
:1033B00023C086E091E0F8CF83E091E0F5CF109252
:1033C0007C021AC080E0089586EFE0917A02F091C5
:1033D0007B02309789F02081082E000C990B820F18
:1033E000911D8F3F910519F014F08FEF04C097FFE6
:1033F00002C0108201C0808381E00895482F50E010
:10340000FA013597EF33F10508F068C0E559FF4F31
:103410000C9418270E94AD0F5DC080916902817FD6
:103420008E7F8093690281E080937D0208950E94DF
:10343000400450C080916902982F9095917090FB44
:1034400080F980936902911145C0897F877F10C000
:103450008091690281FB222720F991E0922790FB5D
:1034600081F9809369029923A9F1809169028160B1
:10347000809369022FC08091690282FB222720F984
:1034800091E0922790FB82F9ECCF8091690283FB57
:10349000222720F991E0922790FB83F9E2CF0E9446
:1034A00090098091AF0287FB222720F991E09227B3
:1034B00090FB87F98093AF020DC0895301C08D51F5
:1034C00091E001C0990F8A95EAF7892F0E94DB09E4
:1034D0000E94900981E0089581E0F8CF80E008958E
:1034E00080E008950E94701A0895CF93C82F8091AC
:1034F0007D02813069F038F08230C1F58C2F0E9456
:103500007C1981E039C00E940C0E823289F504C01A
:103510000E940C0E823261F48C2F0E94721A81116B
:1035200004C08C2F0E94FE191FC081E090E01CC0D7
:103530008C2F0E94701A811116C0C43189F058F482
:10354000CB3089F0C031B1F482E080937D0288E312
:103550000E947C1908C0C93219F0C83321F00AC092
:1035600010927D0207C081E0817006C010927D023A
:1035700080E002C080E0F8CFCF91089584E0089504
:1035800050E0440F551F22E2629F400D511D11244F
:103590009A016CEC869F200D311D1124C90187967C
:1035A00008950F931F93CF93DF938430A0F4663078
:1035B00090F4413180F40E94C01A8C010E947D2752
:1035C00090E0D82FCC27C80101960E947D279E014C
:1035D000282BC90102C080E090E0DF91CF911F91BC
:1035E0000F9108950F931F93CF93DF93843080F44E
:1035F000663070F4413160F4E9010E94C01A8C0118
:103600006D2F0E948B276C2FC80101960E948B277B
:10361000DF91CF911F910F910895A0E0B0E0E3E119
:10362000FBE10C942D27A12CE12CF12CB12C00E016
:1036300010E0C0E0D0E06701C00ED11EFE01EE0F29
:10364000FF1FEC0DFD1DE859FE4F259134914C2FC5
:103650006B2D8A2D0E94F21A2196C131D10571F786
:103660000E5D1F4FB39486E0B812E3CF8CECE80EEA
:10367000F11CA39484E0A812D9CFCDB7DEB7EAE05D
:103680000C944927EF92FF920F931F93CF93DF93F0
:10369000EA017A01E60EF71E8C01C8018796CE1565
:1036A000DF0569F0003323E0120720F40E947D2734
:1036B000888301C0188221960F5F1F4FEECFCDB7D0
:1036C000DEB7E6E00C944D27EF92FF920F931F9325
:1036D000CF93DF93EA017A01E60EF71E8C01C80151
:1036E0008796CE15DF0559F0003323E0120718F452
:1036F00068810E948B2721960F5F1F4FF0CFCDB7B7
:10370000DEB7E6E00C944D27843048F4763038F488
:10371000613128F4462F672F0E94D11A089580E066
:1037200090E0089580E1089589EA94E00895EF9289
:10373000FF920F931F93CF93DF93EA017A01E60E76
:10374000F71E8C01C801895A9C4FCE15DF0569F020
:10375000093A24E0120720F40E947D27888301C0E3
:10376000188221960F5F1F4FEDCFCDB7DEB7E6E091
:103770000C944D27EF92FF920F931F93CF93DF93FB
:10378000EA017A01E60EF71E8C01C801895A9C4FA6
:10379000CE15DF0559F0093A24E0120718F46881C4
:1037A0000E948B2721960F5F1F4FEFCFCDB7DEB75B
:1037B000E6E00C944D27CF93DF93C7E5D3E060E0BC
:1037C000CE010E948B272196C11588E0D807B9F752
:1037D000DF91CF910895A4E0B0E0E1EFFBE10C941C
:1037E0003027F82E8FE08F15E8F18FEF97E00E94D9
:1037F0007D27811137C007E513E0FF2069F001152F
:1038000088E0180779F1C8010E947D27811101C065
:10381000FA940F5F1F4FF1CF19821A821B821C820C
:10382000DD24D39478018FEFE81AF80AC8010E94CA
:103830007D2789831A828823A9F09FEF980F933000
:1038400058F48A83D9820E5F1F4FC7010E947D27DB
:103850008B83882339F07801CE0101960E9474058C
:103860008701E0CF2496E7E00C944C27CF93DF93B9
:1038700086319C4541F5EB010E940C0E982F8A8100
:103880002091000130910101882379F09A7A81E03A
:1038900009F480E080937E02911102C069E201C0C8
:1038A00065E3C9010E94231E0AC080917E02811136
:1038B00002C069E201C065E3C9010E94311E0E9495
:1038C000500E80E001C081E0DF91CF9108950F9309
:1038D0001F93CF93DF93C42FD22FFC0182818823C3
:1038E000B1F0409381020E940B1F9093800280935D
:1038F0007F0280E28C0F883008F04DC0C77081E0F5
:1039000001C0880FCA95EAF70E942D0744C0809134
:103910008102481330C080917F02909180020E9402
:10392000231F883C910538F510E21D0FCD17B9F023
:1039300080E28C0F883040F4C77081E001C0880FAE
:10394000CA95EAF70E943407183010F581E09D2FE0
:10395000977001C0880F9A95EAF70E942D07802F73
:103960000E9423071830B8F4D77081E001C0880F97
:10397000DA95EAF70AC080E28C0F883060F4C770ED
:1039800081E001C0880FCA95EAF70E94340703C09E
:10399000802F0E942307DF91CF911F910F910895EF
:1039A0000F939C01CB01233F4CE5340731F188F4A0
:1039B000283DFCE53F07D9F0293D4CE5340779F176
:1039C000273D3C45A9F506E221EE41EE67ED7CE599
:1039D0002BC0253FFCE53F07E1F0A8F0263F3C4522
:1039E00039F507E225EE46EE66EF7CE51DC007E2FD
:1039F00025EE45EE68ED7CE517C006E221EE40EECF
:103A000063EF7CE511C007E225EE44EE64EF7CE550
:103A10000BC006E221EE42EE65EF7CE505C008E250
:103A200021E045EE69ED7CE50E94671C80E008C05E
:103A3000FC018281882319F01092810201C081E08B
:103A40000F9108959093A1018093A0010895909300
:103A50008702809386020895E0918602F0918702A2
:103A6000309729F00190F081E02D0995089580E0CC
:103A70000895FC01A0918602B0918702109791F001
:103A800080911601882341F08091AF0287FF04C026
:103A90008081818386E08083CF011296ED91FC9135
:103AA000139709950895E0918602F0918702309767
:103AB00039F022E0DC012C930480F581E02D09959A
:103AC000089520918402309185022817390771F0FA
:103AD0009093850280938402E0918602F0918702A0
:103AE000309721F00680F781E02D09950895209107
:103AF0008202309183022817390771F09093830274
:103B000080938202E0918602F0918702309721F043
:103B10000084F185E02D09950895FC01329680918D
:103B20001601882331F08091AF0287FF02C09EE129
:103B300001C096E080E0915028F021912223D9F332
:103B40008F5FF9CF0895662351F12091160122234A
:103B5000E9F02091AF0227FF19C0462F4695469500
:103B600046954E31E0F4677021E030E002C0220F4C
:103B7000331F6A95E2F7FC01E40FF11D828190E0AA
:103B80002823392381E0232B69F409C0FC013296F4
:103B900008962191621729F0E817F907D1F780E01C
:103BA000089581E008959C01FC0132969FEF80E02A
:103BB0004191461789F09F3F19F4411101C0982F98
:103BC0008F5F8630A9F79F3F39F0F901E90FF11DAA
:103BD00097FDFA956283089508959C012A5F3F4FEF
:103BE000FC014281461301C012820196821793079D
:103BF000B9F70895262F2695269526952E3168F437
:103C0000FC01E20FF11D677021E030E001C0220FDE
:103C10006A95EAF78281282B22830895262F26951C
:103C2000269526952E3170F4FC01E20FF11D677088
:103C300021E030E001C0220F6A95EAF720958281E9
:103C400028232283089520911601222339F0209100
:103C5000AF0227FF03C00E94FA1D08950E94D31DE2
:103C6000089520911601222339F02091AF0227FFF9
:103C700003C00E940E1E08950E94ED1D089520911C
:103C80001601FC013296222331F08091AF0287FFAA
:103C900002C08EE101C086E0DF011D928A95E9F73E
:103CA000089546E050E00E94702721E0892B09F436
:103CB00020E0822F089508950E945B1E089583E0FE
:103CC000809388020E945C1E0895811102C081E0E9
:103CD00001C082E0809388020E945C1E08950E94C9
:103CE000651E089581E0809388020E945C1E0895FD
:103CF0000E94721E089508950E947B1E08950E94DE
:103D00007C1E08950E947B1E08950E947B1E0895CC
:103D10000E947B1E0895CF930E94851E0E94C113AE
:103D20000E94821EC0E08C2F0E94C612672B682B57
:103D3000692B29F4CF5FC630B1F780E001C081E084
:103D4000CF91089585B7806885BF85B7806885BFA6
:103D500008951F920F920FB60F9211248F939F9385
:103D6000AF93BF9380918902811113C08091E102CA
:103D70009091E202A091E302B091E4024196A11D6C
:103D8000B11D8093E1029093E202A093E302B0930D
:103D9000E402BF91AF919F918F910F900FBE0F9052
:103DA0001F9018958091E902843031F10E94A60499
:103DB0001092890220E488E190E00FB6F894A8956B
:103DC000809360000FBE2093600083B7817F846082
:103DD00083BF83B7816083BF7894889583B78E7FD4
:103DE00083BF0FB6F894A895809160008861809396
:103DF0006000109260000FBE08950E9490090E941A
:103E0000AB04089582E084BD93E095BD9DE797BD26
:103E100080936E0008952FB7F8948091E1029091FD
:103E2000E202A091E302B091E4022FBF08952FB700
:103E3000F8946091E1027091E2028091E302909126
:103E4000E4022FBF08959C014FB7F8948091E102DE
:103E50009091E202A091E302B091E4024FBF821B75
:103E6000930B089578941F920F920FB60F9211241E
:103E70008F939F93AF93BF938091E1029091E20261
:103E8000A091E302B091E4020196A11DB11D8093BF
:103E9000E1029093E202A093E302B093E402BF91A7
:103EA000AF919F918F910F900FBE0F901F9018951B
:103EB00081E08093E00080E28093D8001092C900F6
:103EC0008FE097E20197F1F700C0000087E090EBE8
:103ED000DC018093F2029093F302A093F402B0937A
:103EE000F5029CE088E10FB6F894A89580936000F5
:103EF0000FBE90936000FFCF9CE088E10FB6F8946E
:103F0000A895809360000FBE90936000FFCF8091D2
:103F1000AD020895089524E02093E9002FEF309139
:103F2000E800215035FD06C03AE63A95F1F700C0A9
:103F30002111F5CF2091E80025FF0BC040E050E0B3
:103F400066E070E00E9432228091E8008E778093D4
:103F5000E8000895CF93DF9320911601222339F0D2
:103F60002091AF0227FF03C060E224E002C068E0B6
:103F700021E02093E9002FEF3091E800215035FD3A
:103F800006C03AE63A95F1F700C02111F5CF20912D
:103F9000E80025FF1DC0EC0180911601811105C0CC
:103FA00040E050E068E070E003C070E040E050E0C6
:103FB000CE010E9432228091E8008E778093E80043
:103FC00080E2FE01ADE8B2E001900D928A95E1F742
:103FD000DF91CF91089580938A0270938C02609351
:103FE0008B028091E9028430F9F48093E9008FEF2D
:103FF0009091E800815095FD06C09AE69A95F1F7F8
:1040000000C08111F5CF8091E80085FF0DC040E030
:1040100050E063E070E08AE892E00E9432228091F2
:10402000E8008E778093E8000895BC0184E00E9448
:10403000EB1F0895BC0183E00E94EB1F0895CF930E
:10404000603219F52091E9022430F9F4C091E900B9
:10405000CF703091EC00232F217030FD20E8C22B6F
:1040600022E02093E9002091E80020FF0BC040E00F
:1040700050E060E270E00E9432228091E8008E778A
:104080008093E800CF70C093E900CF9108958091AC
:10409000E802811109C00E94FE230E9460248091E1
:1040A000E20084608093E20008951092E80208958F
:1040B0000E94781E08956091E50281E0611101C0BF
:1040C00080E00E945F1E08959091E90281E09430A3
:1040D00009F080E06091E5020E94651E089542E0CB
:1040E00061EC81E00E94772342E261EC84E00E946F
:1040F000772342E261EC82E00E94772342E260ECA7
:1041000083E00E9477239091E90281E0943009F0E6
:1041100080E06091E5020E946F1E08958091EB029D
:10412000833009F461C030F4813071F0823009F4D9
:104130009BC008958A3009F487C08B3009F46CC0A5
:10414000893009F0A9C020C08091EA02813A09F0C3
:10415000A3C08091E800877F8093E8008091EE0201
:104160009091EF02892B21F460E28DE892E003C088
:1041700060E080E090E070E00E94BC228091E80066
:104180008B778093E80008958091EA02813209F0EC
:1041900083C08091EE029091EF02009719F0029790
:1041A00009F07AC08091E800877F8093E8008091D1
:1041B000E80082FD05C08091E9028111F8CF6CC052
:1041C0008091F2009091F300029731F48091F10018
:1041D000813011F0863021F48091F1008093AD029E
:1041E0008091E8008B7754C08091EA02813A09F00F
:1041F00053C08091EE029091EF02892B09F04CC0E0
:104200008091E800877F8093E8008091E80080FF3C
:10421000FCCF8091160137C08091EA028132E1F52E
:104220008091EE029091EF02892BB1F58091E80028
:10423000877F8093E8000E94AC238091EC028093FA
:1042400016010E94900908958091EA02813221F5B9
:104250008091E800877F8093E8000E94AC238091E2
:10426000ED028093AE0208958091EA02813AA1F4B2
:104270008091E800877F8093E8008091E80080FFCC
:10428000FCCF8091AE028093F1008091E8008E77A0
:104290008093E8000E94AC23089584B7877F84BF91
:1042A0000FB6F894A89580916000886180936000B3
:1042B000109260000FBE90E080E80FB6F8948093F3
:1042C0006100909361000FBE0E94721E08950E94CB
:1042D000FE230E946024E2EEF0E08081846080830F
:1042E00078940E94E92608958AE091E00E94271DB3
:1042F00008958091E9028530A9F48091E902853022
:1043000079F40E94D21E8091E7028823B1F30E94C3
:104310008B1E882391F30E941C220E949009EDCFEE
:104320000E94FD1E0895A0E2B0E0E9E9F1E20C94DC
:1043300035278091E902843011F583E08093E9000C
:104340008091E80082FF1BC08091E80085FF0AC0D1
:1043500040E050E060E270E0CE0101960E947722DA
:1043600091E001C090E08091E8008B778093E800B5
:10437000992329F060E2CE0101960E948617A0964B
:10438000E2E00C9451270E94C6210895292F33277B
:1043900023303105C9F060F42130310581F022303D
:1043A000310509F041C08BE590E02EE635E040C0D4
:1043B00021323105E1F02232310531F135C082E19F
:1043C00090E029EC35E034C099278130910549F01F
:1043D00028F0029749F5E8E4F5E005C0EAE6F5E0E3
:1043E00002C0ECE5F5E0849190E09F0121C06330CC
:1043F0007105D0F4660F771FFB01E756FE4F208151
:10440000318189E090E014C06330710568F4FB01EC
:10441000EE0FFF1FED56FE4F20813181FB01E0576B
:10442000FE4F808190E004C080E090E020E030E02A
:10443000FA013183208308958CE089BD8EE089BD27
:1044400009B400FEFDCF8091D8008F7D8093D80005
:104450008091E00082608093E0008091E00081FD27
:10446000FCCF0895A0E0B0E0E8E3F2E20C942F273F
:10447000EC018B017A010E94CB23811133C0E1143E
:10448000F10439F0F70180819181081B190BC80FE5
:10449000D91FC12CD12C0115110519F18091E8000B
:1044A00085FD16C08091E8008E778093E800E114C6
:1044B000F10449F0F70180819181C80ED91ED182A3
:1044C000C08285E00FC00E94CB23882321F30AC05D
:1044D00089918093F10001501109FFEFCF1ADF0A93
:1044E000DACF80E0CDB7DEB7E8E00C944B27A0E050
:1044F000B0E0EDE7F2E20C942F27EC018B017A019A
:104500000E94CB23811133C0E114F10439F0F7018B
:1045100080819181081B190BC80FD91FC12CD12C88
:104520000115110519F18091E80085FD16C08091F3
:10453000E8008B778093E800E114F10449F0F7017B
:1045400080819181C80ED91ED182C08285E00FC0C2
:104550000E94CB23882321F30AC08091F100899324
:1045600001501109FFEFCF1ADF0ADACF80E0CDB793
:10457000DEB7E8E00C944B272091F0023091F10275
:104580002617370748F06115710539F42091E800C6
:104590002E772093E80001C0B901FC0120E06115ED
:1045A000710569F18091E9028823E1F18530E1F13B
:1045B0008091E80083FD3AC08091E80082FD2CC024
:1045C0008091E80080FFEBCF8091F2009091F300A2
:1045D0006115710551F08830910538F421912093CF
:1045E000F100615071090196F3CF21E0089709F0BD
:1045F00020E08091E8008E778093E800D0CF2111F1
:10460000D1CF0AC08091E902882361F0853061F042
:104610008091E80083FD0AC08091E80082FFF2CF1C
:1046200080E0089582E0089583E0089581E0089590
:104630002091F0023091F1022617370748F06115FA
:10464000710539F42091E8002E772093E80001C02D
:10465000B901FC0120E06115710581F18091E90249
:10466000882309F43EC0853009F43DC08091E800FC
:1046700083FD3BC08091E80082FD2DC08091E80061
:1046800080FFE9CF8091F2009091F30061157105F0
:1046900059F08830910540F424912093F10031962F
:1046A000615071090196F2CF21E0089709F020E0EE
:1046B0008091E8008E778093E800CDCF2111CECF96
:1046C0000AC08091E902882361F0853061F0809111
:1046D000E80083FD0AC08091E80082FFF2CF80E00D
:1046E000089582E0089583E0089581E00895982F69
:1046F000973068F59093E900981739F07091EC00C5
:104700002091ED005091F00003C0242F762F50E04F
:1047100021FD02C09F5FECCF3091EB003E7F3093D4
:10472000EB003091ED003D7F3093ED003091EB00D8
:1047300031603093EB007093EC002093ED005093C8
:10474000F0002091EE0027FDE5CF80E008958F7006
:104750008093E90081E008958091EA0287FF11C00B
:104760008091E80082FD05C08091E9028111F8CFB7
:1047700011C08091E8008B770BC08091E9028823FB
:1047800049F08091E80080FFF8CF8091E8008E77B3
:104790008093E80008952091E4003091E50095E6CB
:1047A0004091EC00842F817040FF23C08091E8008D
:1047B00080FD1DC08091E902882399F0853099F031
:1047C0008091EB0085FD11C04091E4005091E5001F
:1047D0002417350729F3915011F09A01E1CF84E0B5
:1047E000089582E0089583E0089581E0089580E0CF
:1047F00008954091E80042FFDDCF08950E947024A3
:104800000E947824E0EEF0E0808181608083E8ED12
:10481000F0E080818F77808319BCA7EDB0E08C91A8
:104820008E7F8C9380818F7E80831092E802089522
:104830000F931F93CF93DF930E9470240E947824DC
:10484000C8EDD0E088818F778883888180688883ED
:1048500088818F7D8883E7EDF0E0808180688083A8
:1048600019BC1092E9021092E5021092E702109230
:10487000E60200EE10E0F80180818B7F8083888162
:104880008160888342E060E080E00E947723E1EE6F
:10489000F0E080818E7F8083E2EEF0E080818160B5
:1048A0008083808188608083F80180818E7F80830F
:1048B000888180618883DF91CF911F910F91089546
:1048C000E8EDF0E080818F7E8083E7EDF0E080818D
:1048D0008160808381E08093E8020E94182408951B
:1048E000E8EDF0E080818C7F80831092E2000895F3
:1048F0001092DA001092E10008951F920F920FB605
:104900000F9211242F933F934F935F936F937F9355
:104910008F939F93AF93BF93EF93FF938091E100A9
:1049200082FF0BC08091E20082FF07C08091E1000E
:104930008B7F8093E1000E94E8268091DA0080FF5F
:104940001FC08091D80080FF1BC08091DA008E7F4D
:104950008093DA008091D90080FF0DC08CE089BD82
:104960008EE089BD09B400FEFDCF81E08093E902AD
:104970000E94472005C019BC1092E9020E945520F0
:104980008091E10080FF19C08091E20080FF15C096
:104990008091E2008E7F8093E2008091E20080614E
:1049A0008093E2008091D80080628093D80019BC87
:1049B00085E08093E9020E945B208091E10084FF02
:1049C00030C08091E20084FF2CC08CE089BD8EE075
:1049D00089BD09B400FEFDCF8091D8008F7D809302
:1049E000D8008091E1008F7E8093E1008091E20009
:1049F0008F7E8093E2008091E20081608093E200EC
:104A00008091E502882311F084E007C08091E300E3
:104A100087FD02C081E001C083E08093E9020E942B
:104A200064208091E10083FF29C08091E20083FF30
:104A300025C08091E100877F8093E10082E0809330
:104A4000E9021092E5028091E1008E7F8093E100FF
:104A50008091E2008E7F8093E2008091E20080618D
:104A60008093E20042E060E080E00E947723809142
:104A7000F00088608093F0000E945820FF91EF9131
:104A8000BF91AF919F918F917F916F915F914F9166
:104A90003F912F910F900FBE0F901F9018951F926E
:104AA0000F920FB60F9211242F933F934F935F9362
:104AB0006F937F938F939F93AF93BF93CF93DF9326
:104AC000EF93FF93C091E900CF708091EC00D82F55
:104AD000D17080FDD0E81092E9008091F000877FCE
:104AE0008093F00078940E9493251092E9008091C1
:104AF000F00088608093F000CD2BCF70C093E90068
:104B0000FF91EF91DF91CF91BF91AF919F918F91E5
:104B10007F916F915F914F913F912F910F900FBEB9
:104B20000F901F901895AAE2B0E0E9E9F5E20C9425
:104B30003427EAEEF2E08091F100819322E0E23F37
:104B4000F207C9F70E948E208091E80083FF2EC1F2
:104B50008091EA029091EB02492F50E04A305105D2
:104B600008F024C1FA01E655FF4F0C94182780384D
:104B700021F0823809F01AC108C08091E6029091B4
:104B8000E702992389F082600FC08091EE028F7056
:104B9000873008F00BC18093E9008091EB0085FB22
:104BA000882780F91092E9009091E800977F909310
:104BB000E8008093F1001092F100D1C0282F2D7FE2
:104BC00009F0F4C0882319F0823061F0EFC08091C1
:104BD000EC02813009F0EAC0933009F080E0809364
:104BE000E7022EC08091EC0281112AC08091EE0272
:104BF0008F702FEF280F263008F0D8C08093E9007F
:104C00002091EB0020FF1CC0933021F48091EB0039
:104C1000806214C09091EB0090619093EB0021E0D2
:104C200030E0A90102C0440F551F8A95E2F7409376
:104C3000EA001092EA008091EB0088608093EB001C
:104C40001092E9008091E800877F8093E8000E943D
:104C5000AC23ACC08111AAC01091EC021F778091E7
:104C6000E3008078812B8093E3008091E800877FC8
:104C70008093E8000E94AC238091E80080FFFCCF85
:104C80008091E30080688093E300111102C082E00C
:104C900001C083E08093E90289C08058823008F027
:104CA00085C08091EC029091ED028C3D53E0950718
:104CB00079F583E08A838AE289834FB7F894DE012D
:104CC000139620E03EE051E2E32FF0E050935700CE
:104CD000E49120FF03C0E295EF703F5FEF708E2FED
:104CE00090E0EA3010F0C79601C0C0968D939D9376
:104CF0002F5F243149F74FBF8091E800877F809371
:104D0000E8006AE270E0CE0101960E94BC2216C063
:104D10006091EE027091EF02AE014F5F5F4F0E9413
:104D2000C321BC01892B09F441C09091E800977F11
:104D30009093E80089819A810E9418238091E8006D
:104D40008B778093E80032C0803881F58091E8004D
:104D5000877F8093E8008091E5028093F100809145
:104D6000E8008E7772CF811121C08091EC02909182
:104D7000ED0299270297D4F48091E800877F809311
:104D8000E8008091EC028093E5020E94AC238091C0
:104D9000E502811106C08091E30087FD02C081E039
:104DA00001C084E08093E9020E946F208091E800B6
:104DB00083FF0AC08091E800877F8093E80080919C
:104DC000EB0080628093EB00AA96E3E00C945027FE
:104DD0000895CF938091E9028823A1F0C091E90062
:104DE000CF709091EC00892F817090FD80E8C82BE6
:104DF0001092E9008091E80083FD0E949325CF7016
:104E0000C093E900CF91089597FB072E16F4009404
:104E100007D077FD09D00E945C2707FC05D03EF43F
:104E2000909581959F4F0895709561957F4F089556
:104E3000EE0FFF1F0590F491E02D09946927962746
:104E4000692778278727782708952F923F924F92D6
:104E50005F926F927F928F929F92AF92BF92CF920A
:104E6000DF92EF92FF920F931F93CF93DF93CDB713
:104E7000DEB7CA1BDB0B0FB6F894DEBF0FBECDBF8B
:104E800009942A88398848885F846E847D848C845C
:104E90009B84AA84B984C884DF80EE80FD800C8165
:104EA0001B81AA81B981CE0FD11D0FB6F894DEBF48
:104EB0000FBECDBFED010895AA1BBB1B51E107C07A
:104EC000AA1FBB1FA617B70710F0A61BB70B881F9A
:104ED000991F5A95A9F780959095BC01CD01089529
:104EE000FB01DC0104C08D910190801921F4415037
:104EF0005040C8F7881B990B0895F999FECF92BDD1
:104F000081BDF89A992780B50895A8E1B0E042E004
:104F100050E00C94B127262FF999FECF92BD81BDA8
:104F2000F89A019700B4021639F01FBA20BD0FB6E7
:104F3000F894FA9AF99A0FBE08950396272F0E94C3
:104F40008C270E948B27252F0E948C27242F0C94BE
:104F50008C270196272F0E948C270C948B27DC012D
:104F6000CB01FC01F999FECF06C0F2BDE1BDF89A74
:104F7000319600B40D9241505040B8F70895F8941E
:024F8000FFCF61
:104F82002702280850011E0A1401871FAA1F8B1F1F
:104F92001A2015208A1F01E200E900EA00B500B6D6
:104FA20000B700CD008301CC008A01920194012157
:104FB20002230224022502260227022A02B300B497
:104FC200006F007000818283E200E900EA00B50010
:104FD200B600B700CD008301CC008A019201940192
:104FE2002102230224022502260227022A02B300FA
:104FF200B4006F007000818283F2F3F4F5F6F700DB
:105002000102030405060795969734353660C1C040
:105012004022B6B306DB05FD0580059905B90500FA
:00000001FF
