:100000000C9407050C9424050C943F050C942405CE
:100010000C9424050C9424050C9482230C94240540
:100020000C9424050C9424050C9424050C942405AC
:100030000C9424050C9424050C940B240C94240596
:100040000C9424050C9424050C9424050C9424058C
:100050000C9424050C9424050C9424050C9424057C
:100060000C9424050C942405450A450A710A710A6A
:10007000CE0AEC0AD80BD80BF70A5F0B700B700B8B
:10008000081A0B1A2B1A3C1A441A4F1A951A951A69
:10009000951A951A951A521A551A5A1A671A741AF5
:1000A000771A7B1A881AB6B6B6B6B6B6B6B6B6B66C
:1000B000B6B6B6B6B695B596D5B6B6808182838407
:1000C00085868788898A8B8C8D8E8F909192939468
:1000D000A0A1A2A3A4A5A6A7A8A9AAABACADAEAFA8
:1000E000B0B1B2B3B4C0C1C2C3C4C5C6C7C8C9CA1F
:1000F000CBCCCDCECFD0D1D2D3D4002B0014001A8C
:10010000000800150017001C00015104001600072C
:100110000009000A000B00E1003800E4001B0006A3
:100120000019000500E000E2000251E6002C002C5E
:10013000002C0000003400A800130012000C00186E
:10014000000000E3002A0028000F000E000D000050
:10015000001D00E500370036001000110029001EC8
:10016000001F0020002100220023000100010035B3
:10017000003100010001000100010001004F0001F9
:100180000001000100010001000100510050004A7F
:100190000001004D0000000100010027002600259D
:1001A000002400000001004C003400330030002F18
:1001B0000000000100520038002E002D0001000157
:1001C000003A003B003C003D003E003F003900018A
:1001D0000001000100010001000100010001000117
:1001E0000001000100010001000100010001000107
:1001F0000001000100010000000100010043004275
:100200000041004000000001000100010001000168
:1002100000010000000100010001000100010001D7
:1002200000010001000100010001000100010001C6
:1002300000010001000100010001000100010001B6
:1002400000010001000100010001000100010001A6
:100250000001000100010001000000010001000197
:100260000001000100010000000100010001000187
:100270000001000100000001000100010001000177
:1002800000010000000000000000002A2B280000F0
:100290000000000000000000000000000000290035
:1002A0000000002C1E3420212224342627252E363F
:1002B0002D3738271E1F20212223242526333336AD
:1002C0002E37381F0405060708090A0B0C0D0E0F00
:1002D000101112131415161718191A1B1C1D2F3183
:1002E00030232D350405060708090A0B0C0D0E0FE7
:1002F000101112131415161718191A1B1C1D2F3163
:1003000030354C000000000000000000000000003C
:1003100000000000000000000000000000000000DD
:10032000000000000000007E0F00D4FFFFFFC700A8
:1003300000007800AE00AF00DA0281FFD9F1DB20C7
:10034000A4A62EAF00A0C000A1C800AED580A81FF3
:10035000D300408D1420000000000000003E5B4FE1
:100360005B3E003E6B4F6B3E001C3E7C3E1C00180B
:100370003C7E3C18001C577D571C001C5E7F5E1C99
:100380000000183C180000FFE7C3E7FF0000182436
:10039000180000FFE7DBE7FF0030483A060E0026B2
:1003A0002979292600407F05050700407F05253F64
:1003B000005A3CE73C5A007F3E1C1C0800081C1CED
:1003C0003E7F0014227F2214005F5F005F5F000603
:1003D000097F017F00006689956A00606060606047
:1003E0000094A2FFA2940008047E04080010207E5E
:1003F00020100008082A1C0800081C2A0808001EF3
:1004000010101010000C1E0C1E0C0030383E38303E
:1004100000060E3E0E060000000000000000005F17
:10042000000000000700070000147F147F14002460
:100430002A7F2A120023130864620036495620508E
:1004400000000807030000001C22410000004122B8
:100450001C00002A1C7F1C2A0008083E0808000017
:100460008070300000080808080800000060600084
:10047000002010080402003E5149453E0000427F22
:100480004000007249494946002141494D33001856
:1004900014127F10002745454539003C4A4949312F
:1004A00000412111090700364949493600464949AA
:1004B000291E00000014000000004034000000006D
:1004C00008142241001414141414000041221408CA
:1004D000000201590906003E415D594E007C12118F
:1004E000127C007F49494936003E41414122007F4C
:1004F0004141413E007F49494941007F09090901C5
:10050000003E41415173007F0808087F0000417F91
:100510004100002040413F01007F08142241007F3C
:1005200040404040007F021C027F007F0408107F93
:10053000003E4141413E007F09090906003E41510C
:10054000215E007F091929460026494949320003E6
:10055000017F0103003F4040403F001F2040201F1B
:10056000003F4038403F00631408146300030478E0
:100570000403006159494D4300007F41414100029D
:100580000408102000004141417F000402010204E0
:100590000040404040400000030708000020545441
:1005A0007840007F284444380038444444280038C8
:1005B0004444287E0038545454180000087E090230
:1005C000001824241C78007F080404780000447D6F
:1005D0004000002040403D00007F10284400000003
:1005E000417F4000007C04780478007C0804047893
:1005F000003844444438007C18242418001824246B
:10060000187C007C08040408004854545424000456
:10061000043F4424003C4040207C001C2040201C1F
:10062000003C4030403C004428102844004C90904E
:10063000907C004464544C440000083641000000A3
:1006400000770000000041360800000201020402A9
:10065000003C2623263C00000000000080C0E0F0A3
:10066000F0300000C060F0F0F0300080C020F0F00A
:10067000F020000000000080C0E0703018B8F8F0F2
:100680000000000000DC7E3FBEF0F0E00000000053
:10069000000080C0E070101818F8F0600000000042
:1006A000C060F0F8F83000000080E0F0F8F83000AA
:1006B00000000080E0F0FCFF3F0F0100000080C060
:1006C000E0F0F878000000000080C060309040202A
:1006D0003070E0C00000404040404040404040405A
:1006E00040000000E0FEFFFEF8C00000000000E057
:1006F000FCFFFEF0000000000000000000013EE0F2
:1007000080700E0100000000073CE08078070000C8
:100710000000000000000000180C06C3F9FE3FC7EF
:10072000711806C3F07C1FC7711806C3F8FE3F0F8F
:100730000180C0F0F8FEDF47636030381E0F07818C
:10074000402018060381F0FC7F1F0780C0E0F8FC02
:100750003E0F03010000000003018060100806E363
:10076000FCFF3F0701C0308CE3FF7F1F0380C030D8
:10077000188CE3F9FF3F070180C030180CC3F1FC6F
:100780007F0F0380C0F0FCFE3F0701003EC1808068
:10079000E0FC3F8F4040C0F0FC7E4E0000000000B7
:1007A000000000F8FFFF1F071FFFFEF0C0F8FF7FEB
:1007B0000F077FFFFEFC04047880000000C0380CA7
:1007C0001C6080000000F00C04F41C80C0FCE6C338
:1007D000C1C1C3E6FCC0800000383F3F1F070300D3
:1007E00000383E3F1F0E030000307F7F3F190C068C
:1007F00003010F1F3F716060703018080402010090
:10080000000000387E7F3F3B18040301000F1F31BA
:10081000202020201018080402010000001C3F7F47
:100820007F31180603183E3F3F1B080402010000F9
:100830001E3F3F3F10080402010000183E3F3F19D1
:100840000C060301000F1F3160606030181C0F0799
:10085000030101000000183C3C1C000000000000E7
:1008600000001F1F1F0700000000031F1F0F0100D3
:10087000000000071F1F1EF8000F70300EC1380760
:100880000E70831C601E03C03E01003F7FFFFFF916
:10089000C0C0F9FFFF7F3F09025B00030100A0FA1F
:1008A00009040000010301010009210101000122E6
:1008B000400007058103080001090401000203004C
:1008C000000009210101000122220007058403081C
:1008D00000010705040308000109040200010300E8
:1008E0000000092101010001227B000705830308A4
:1008F00000011201100100000008776D03170001CC
:100900000102000112034D006500720063007500D2
:10091000740069006F00000012034D006500630061
:100920006800570069006C006400000004030904BB
:100930000660FF0961A1010962150026FF009520EC
:10094000750881020963150026FF0095207508913E
:1009500002C005010902A10185020901A1000509E2
:100960001901290815002501950875018102050165
:10097000093009311581257F9502750881060938EE
:100980001581257F950175088106050C0A38021529
:1009900081257F950175088106C0C005010980A1E8
:1009A00001850319012AB700150126B700950175C5
:1009B000108100C0050C0901A101850419012AA0BC
:1009C00002150126A002950175108100C0050109DC
:1009D00006A101050719E029E7150025019508750D
:1009E0000181029501750881030507190029FF158A
:1009F0000026FF00950675088100050819012905E4
:100A0000950575019102950175039103C0001124AC
:100A10001FBECFEFD8E0DEBFCDBF11E0A0E0B1E058
:100A2000EEE2F1E502C005900D92A83AB107D9F7C0
:100A300025E0A8EAB1E001C01D92AA38B207E1F7AB
:100A40000E94B4160C9495280C940000A82FB92F7E
:100A500080E090E041E050EA609530E009C02D91DF
:100A600082279795879510F084279527305EC8F3E5
:100A70006F5FA8F30895EADF8D939D930895CF9358
:100A8000CFB7CF93DF93C3954B9BE9F74B9B10C038
:100A90004B9B0EC04B9B0CC04B9B0AC04B9B08C092
:100AA0004B9B06C0C0916105C395C09361058EC084
:100AB0006F93C0916005DD27C859DA4F2F9365E524
:100AC0004B9B03C02F916F91E1CF0F931F934F93D7
:100AD00020E040E15F9309B10C7003FB27F93F93DD
:100AE00050E03BE039C01C7040642F77012F5F5FFE
:100AF0001EC0406819B11C702F7752501FC040644F
:100B000009B12F770C70D1F15F5F00C023C0406244
:100B100019B12F771C7091F15F5F00C025C00C7078
:100B20001027515012F45D5F0000115027952C3FA3
:100B300019B1C8F61C700127015027952C3FC8F643
:100B40004227499309B10C7010274F731150279514
:100B50002C3FA8F64695469519B11C7079F00127EF
:100B6000015027952C3F98F66B5A60F3315009B12C
:100B7000B0F600C012E01CBB00271CC03B503195F2
:100B8000C31BD04012E01CBB0881033C21F10B3495
:100B900011F120915D051981110F1213EDCF4A81DA
:100BA000441F093679F10D3211F0013E29F74F70DB
:100BB00009F0042F009366053F915F914F911F91BB
:100BC0000F912F916F91CCB3C1FD5DCFDF91CF918C
:100BD000CFBFCF91189520916605222369F310911C
:100BE0006405112309F049C034300AF448C0309339
:100BF000640520935F05109160053BE0311B309345
:100C000060053DC0009164050130BCF50AE54F70F8
:100C100049F430911E0134FD33C000931E01CAE334
:100C2000D5E032C0433059F0443091F03091450561
:100C300034FD26C000934505C6E4D5E025C03091BB
:100C40007E0534FD1DC000937E05CFE7D5E01CC0B6
:100C50003091510534FD14C000935105C2E5D5E033
:100C600013C0052710E000C000000BB91AC005270B
:100C700010E0221F1DC010E021C04AE502C032ED85
:100C8000432FC4E1D0E032E01AB11C605B9A0BB193
:100C90001AB95CE020E865E320FF05270BB927952A
:100CA00017951C3FF0F66695B8F7B1F720FF0527BA
:100CB0000BB9279517951C3FD0F62795179517FF69
:100CC000052700001C3F0BB9B0F629913A9519F79A
:100CD000037F10916505110FC651D0400BB911F07B
:100CE00010935D0512E01CBB08601AB1137F402F02
:100CF000437F54E05A95F1F70BB91AB94BB95CCF61
:100D0000811107C0662311F089EA01C08AEA0E94B6
:100D1000F40981E0089582E0089560E086EA90E0B9
:100D20000E94091C80E0089581E0089581E0089503
:100D30000E949606089508950E949B060895A5E0D6
:100D4000B0E0E5EAF6E00C94152849835A83309127
:100D5000AB0189819A81311114C0662359F0222395
:100D600049F00E94830D182F682F89819A810E9473
:100D70005F0D03C00E94710D182F69817A81812F48
:100D800004C00E94830D69817A810E94861F259686
:100D9000E3E00C943128FC01262F408151816281CF
:100DA000738184810E949F06089581E00895CF9306
:100DB000DF93EC0160E00E94CB06BE010E949C061E
:100DC000DF91CF910895E1E0F0E0DF0102C0AA0FCA
:100DD000BB1F6A95E2F7BD01DF0102C0AA0FBB1F6E
:100DE0004A95E2F7AD01462B01C0EE0F2A95EAF7CE
:100DF000942F9823491302C08E2B0895E0958E23DB
:100E00000895242F462F682F8091C1010E94E30688
:100E10000E94BE0C08950E948D1508950E948715AA
:100E2000089508950E945B0C0E9411072FEF84E340
:100E30009CE0215080409040E1F700C00000089500
:100E40000E9412070E94312408950E9412070E94F6
:100E5000462408950F931F93CF93DF938C0161E095
:100E60000E94CB06EC01B8010E94B719882309F44F
:100E700047C0B801CE010E949806882309F440C0FB
:100E8000B801CE010E945F218823D1F1B801CE01C3
:100E90000E94781D8823A1F1B801CE010E94C520CF
:100EA000882371F1F8018281882331F1CA358DE5FB
:100EB000D807E9F050F4C115FCE5DF0779F0CE3D25
:100EC000DC45D1F40E9462120CC0CC35EDE5DE07A2
:100ED00059F080F0C73ADD4521F00EC00E9420078E
:100EE0000FC00E9425070CC00E94991105C00E94E6
:100EF000A31102C00E94A711C8010E94940601C05C
:100F000080E0DF91CF911F910F9108950E9461239E
:100F10000E946D080E942F1D08950E9471080E9472
:100F20006A230895A0E0B0E0E8E9F7E00C94112806
:100F3000E82FF0E0ED57FD4FD490282F2695269509
:100F4000269530E0F901ED5DFC4F0491877010E0CB
:100F5000082E02C0159507950A94E2F70170112733
:100F6000F901ED5EFC4FE490F12C082E02C0F594DF
:100F7000E7940A94E2F791E0E922FF24F901ED5F9A
:100F8000FC4FC491D0E002C0D595C7958A95E2F791
:100F9000C170DD270115110519F081EE0E94C80806
:100FA000E114F10419F086EE0E94C8088D2D0E940C
:100FB000F409E114F10419F086EE0E94710901159B
:100FC000110519F081EE0E947109CD2B19F08CE208
:100FD0000E94F409CDB7DEB7E7E00C942D28EF921C
:100FE000FF920F931F93CF93DF93EC01162F0AE02C
:100FF0008881882309F455C0813009F043C0898174
:10100000813041F47E0182E0E80EF11C8A810E9469
:10101000F40909C0823049F47E01E2E0EE0EF11CD1
:101020008A810E94C808E7012FC0833041F47E0105
:10103000F2E0EF0EF11C8A810E947109F4CF843036
:1010400011F0219621C02A81229680E090E030E0C4
:10105000205331092A30310558F4089FA001099F17
:10106000500D1124C901840F951F21962881EFCFBF
:10107000009751F0EFE9FFE03197F1F700C0000071
:101080000197F6CF0E9492072196812F882309F4B9
:10109000AFCFEFE9FFE03197F1F700C000008150DA
:1010A000F5CFCDB7DEB7E6E00C942E2860E00E94C5
:1010B000EF07089508950E945A08089581E0089561
:1010C0000E945E0808950895CF93C82F0E945B0880
:1010D0008C2F0E946008CF91089580E00E946408E0
:1010E00008950E94B2220E94640808950E94B222CC
:1010F0009091AA01891721F08093AA010E946408A7
:101100000895ABE0B0E0E7E8F8E00C9416284F83D0
:10111000588769877A878B8761110E94F7109E0133
:101120002F5F3F4F86E0F90111928A95E9F785E03C
:10113000FE013796D90101900D928A95E1F78981D8
:101140009A814C815D81452B31F09F3F31F491E0D4
:101150008F3F19F403C091E001C090E090FF09C0F7
:1011600049815A816B817C818D819E810E942310EF
:1011700005C0C9010E94D5068111F2CF2B96E2E08D
:101180000C943228FC01808191810E94B00D089559
:10119000CF93882309F4A3C0C82F8238C1F40E94DA
:1011A000B22281FD9CC069E3809100019091010110
:1011B0000E9446230E941B112FEF81EE94E02150E4
:1011C00080409040E1F700C0000069E319C0833817
:1011D00001F50E94B22280FD82C063E5809100018A
:1011E000909101010E9446230E941B112FEF81EE76
:1011F00094E0215080409040E1F700C0000063E59A
:1012000080910001909101010E9449230E941B11CD
:1012100066C08438C1F40E94B22282FD60C067E4D7
:1012200080910001909101010E9446230E941B11B0
:101230002FEF81EE94E0215080409040E1F700C014
:10124000000067E4DDCF8CEF8C0F813AD0F46C2F77
:1012500080910001909101010E941023882349F0A0
:101260006C2F80910001909101010E9449230E94FE
:101270001B116C2F80910001909101010E94462367
:10128000C5CF80E28C0F883048F4C77081E001C080
:10129000880FCA95EAF70E94DA10B8CFEBE5EC0F99
:1012A000E33040F4F0E0E35BFE4F808190E00E9489
:1012B000D82215C0E8E5EC0FE73150F4F0E0EE0F6E
:1012C000FF1FE15EFE4F808191810E94EE2207C0E8
:1012D000C03F28F08C2F0E9439170E940B18CF9125
:1012E0000895882309F467C0823879F40E94B222F5
:1012F00081FF61C069E380910001909101010E942A
:1013000046230E941B1169E310C08338B9F40E9480
:10131000B22280FF50C063E58091000190910101ED
:101320000E9446230E941B1163E580910001909169
:1013300001010E9449230E941B110895843879F409
:101340000E94B22282FF37C067E480910001909131
:1013500001010E9446230E941B1167E4E6CF9CEF27
:10136000980F913A10F4682FE0CF90E2980F9830E0
:1013700050F4877091E001C0990F8A95EAF7892FA0
:101380000E94E010D8CF9BE5980F933028F480E0BE
:1013900090E00E94D822089598E5980F973128F49C
:1013A00080E090E00E94EE220895803F20F00E94AD
:1013B00094170E940B1808951F93CF93DF93182F53
:1013C000EB010E94C808209741F08FE99FE0019748
:1013D000F1F700C000002197F6CF812F0E9471091C
:1013E000DF91CF911F910895893319F06AE070E081
:1013F00002C060E570E00E94DC090895882321F0B6
:101400000E94DA100E941B110895882321F00E9487
:10141000E0100E941B110895A0E0B0E0E2E1FAE0C4
:101420000C9410287C01162FC72FFC01D281058156
:1014300002950F700E94D0108823B9F0DD23A9F027
:101440008C2F807F803421F080E2810F883068F01B
:101450008091210382FF09C082E00E9467110E94EF
:10146000D01091E0D82ED92601C0D12CCC2EC29418
:101470008FE0C8228C2D90E08C30910508F098C147
:10148000FC01EC5CFF4F0C94F9278C2F807FCF7010
:10149000882311F0C295C07FDD2399F0CC2309F495
:1014A0006EC180E2810F883010F0111104C08C2FC2
:1014B0000E94DA1003C08C2F0E94EA100E941B11B8
:1014C0005EC1812F0E947109CC2309F471C180E2B1
:1014D000810F883038F1112329F18C2F0E94F010F0
:1014E00024C08C2F807FCF70803211F0C295C07FD6
:1014F000112319F01130A1F13DC08091210382FD2B
:1015000017C0DD2349F0CC2329F08C2F0E94DA107C
:101510000E941B1180E034C180E00E947109CC233D
:1015200009F446C18C2F0E94E0100E941B1140C19B
:10153000DD2371F0002341F0013031F40E94FA10F4
:101540008C2B0E94041134C10E94FA108C2B1DC0F8
:10155000002319F0013009F42BC10E9411111AC0A7
:10156000DD2321F0063008F023C10EC0053008F05D
:101570001FC110C0DD2361F0002331F0F701858128
:1015800080FFFDC08F7085838C2F0E94FE0910C1E3
:101590000111FBC08C2F0E94050A0AC18C2F869571
:1015A0008695837019F0813061F002C1DD2321F04E
:1015B000812F9C2F937002C080E090E00E94D8227F
:1015C000FFC0DD2321F0812F9C2F937002C080E0AB
:1015D00090E00E94EE22F4C0812FDD2319F00E94DA
:1015E000391702C00E9494170E940B18E9C08C2F73
:1015F000837079F5D111E0C0412F4295469547702F
:10160000440F440F212F2F70042E01C0220F0A9483
:10161000EAF714FF08C08FE090E001C0880F4A95F8
:10162000EAF7809501C080E0C695C695C370822B0D
:10163000C23049F058F4C13019F00E94AF0CBCC060
:101640000E94A90CB9C00E94B50CB6C00E94A60C9D
:10165000B3C0DD2319F08C2F817001C086958823DB
:1016600009F4AAC0412F429546954770440F440F94
:10167000212F2F70042E01C0220F0A94EAF714FFC5
:1016800008C08FE090E001C0880F4A95EAF7809586
:1016900001C080E0C695C695C370822BC23049F068
:1016A00058F4C13019F00E94FD0C86C00E94F70C5E
:1016B00083C00E94030D80C00E94BE0C7DC0CF700D
:1016C000DD2339F08C2F0E94D20C812F0E94FE095D
:1016D00073C0812F0E94050A8C2F0E94DE0C6CC003
:1016E000123F21F128F4103F41F0113FC1F043C0F7
:1016F000133F19F1143F79F03EC0DD2341F005306E
:1017000008F056C08C2F8F710E94EB0C51C0063030
:1017100008F04EC0F7CF8091210382FD18C0DD2371
:1017200039F08C2F8F710E94D20C42C0DD23C9F397
:101730008C2F8F710E94DE0C3BC0DD2329F08C2F93
:101740008F710E94C90C34C00E94C50C31C0DD23CA
:1017500049F0CF718C2F0E94D20C63E08C2F0E9435
:10176000491126C081E00E946711023008F182E031
:101770000E9467111DC0DD2331F0002391F2812FFB
:101780000E94C80815C0002399F2193341F4FFEFF5
:1017900027EE83E0F15020408040E1F704C0EFE302
:1017A000FCE93197F1F700C00000812F0E94710918
:1017B00088EF8C0D843020F40E94B2220E946408CD
:1017C000DD2089F00E94CC1080FD0DC0F70112824F
:1017D0000E94C6100E94D20CC7010E94100C0E94E9
:1017E000C6100E94DE0CCDB7DEB7E8E00C942C28C2
:1017F0000F931F93CF93DF93EC01688179818A81E6
:101800000E94BB0D8C010E94090D0E94970CB8012B
:10181000CE010E940C0ADF91CF911F910F91089584
:10182000CF93DF93EC01988189812B813C81232B1D
:1018300031F08F3F31F481E09F3F19F403C081E024
:1018400001C080E080FD1AC0CE010E942A078111EC
:101850000FC00E94D010882389F08A81882371F0FC
:101860008091210382FF0AC082E00E94671106C0B6
:10187000CE010E94F80BCE010E94D706DF91CF91D6
:10188000089580E090E00E94D82280E090E00E94DD
:10189000EE220E94F7100E941B110E942A180E943B
:1018A0000B18089580910001909101010E944C2332
:1018B0000E94410C08950E94E7100E94520C089566
:1018C00092959F70963079F010F4925001C09A5022
:1018D000923068F4803F69F018F4883E40F409C003
:1018E000843F29F406C0883E20F0813F11F080E05B
:1018F000089581E00895FC01808191810E94B00DDE
:101900000E94600C0895A5E0B0E0E9E8FCE00C94CA
:1019100016282596E2E00C943228A6E0B0E0E3E930
:10192000FCE00C9416282696E2E00C9432280895E8
:1019300008950E94980C08950E94990C08950E94A1
:101940009C0C8093C2010E94410C08950E949F0C40
:1019500008959091C201892B0E949F0C0895909147
:10196000C20189230E949F0C08959091C20189278A
:101970000E949F0C08950E94980C08950E94BB0C31
:101980008093C1010E94410C089580E00E94BE0C2A
:10199000089591E001C0990F8A95EAF7892F0E9476
:1019A000BE0C089521E030E001C0220F8A95EAF7CD
:1019B0008091C101822B0E94BE0C089521E030E08D
:1019C00001C0220F8A95EAF720958091C1018223F8
:1019D0000E94BE0C089521E030E001C0220F8A95DC
:1019E000EAF78091C10182270E94BE0C0895909170
:1019F000C101892B0E94BE0C08959091C1018923D9
:101A00000E94BE0C08959091C10189270E94BE0CCE
:101A100008950895962F9770A1E001C0AA0F9A9596
:101A2000EAF793E0769567959A95E1F7FB01EE0F5B
:101A3000FF1F6E0F7F1FFA01E60FF71F40E050E017
:101A4000682F70E090819B01042E02C03695279587
:101A50000A94E2F72170219529272A232927219327
:101A60004F5F5F4F4330510569F708959B01782F11
:101A7000777043E0969587954A95E1F7FC01EE0F64
:101A8000FF1F8E0F9F1FF901E80FF91F40E050E084
:101A900080E0219130E0072E02C0369527950A9408
:101AA000E2F721703327042E01C0220F0A94EAF7CF
:101AB000822B4F5F5F4F4330510559F70895282F10
:101AC000973070F4873060F4862F622F70E027E043
:101AD000929F600D711D11244CEA51E00E940A0D85
:101AE0000895973070F4873060F4292F90E06CEA05
:101AF00071E037E0239F800D911D11240E94360D67
:101B0000089580E00895CF92DF92FF920F931F9384
:101B1000CF93DF936C010091C1018091C201082B2A
:101B2000C7E0D0E010E0C8010C2E02C09595879563
:101B30000A94E2F780FD04C02197A8F7F12C07C0B2
:101B4000FC2EB6018C2F0E9460140197A9F38F2DF3
:101B5000DF91CF911F910F91FF90DF90CF9008956B
:101B6000CF93DF93EC010E94830DBE010E946014AD
:101B7000DF91CF9108951F93CF93DF93EB01909165
:101B8000AB01992321F0CB010E94B00D13C0882333
:101B900049F0CB010E94830D182F682FCE010E94BF
:101BA0005F0D04C0CB010E94710D182FBE01812F63
:101BB0000E946014DF91CF911F9108951F93CF93DE
:101BC000DF93C091C30116E08091C401C81799F05A
:101BD000D0E01C9FF0011D9FF00D1124EB53FE4F30
:101BE0004081518162817381848195810E948D0C35
:101BF0002196C770E9CFDF91CF911F910895409151
:101C0000F5015091F6016091F7017091F801809112
:101C1000F9019091FA010E948D0C08950F931F9382
:101C2000CF93DF938091FA0182958F7009F05AC0AB
:101C30008091F701882309F455C08091C301109168
:101C4000C4016091F5017091F601C091F801D09145
:101C5000F90191E06F3F09F090E0292F06E081172C
:101C600009F440C0209721F07F3F21F030E003C00D
:101C700031E001C0322F90E030FD31C0089FF0010B
:101C8000099FF00D1124DF01AB53BE4F11963C911B
:101C90001197371324C03C91361321C012963C9102
:101CA000129731111CC013964D915C9114974C1BE7
:101CB0005D0B483C510598F48091FA018F7080616A
:101CC0008093FA01E653FE4F80818F70806180839C
:101CD00085EF91E00E94100C0E94DE0D03C001967A
:101CE0008770BDCFDF91CF911F910F910895A1E132
:101CF000B0E0EDE7FEE00C940D288C0185E0F801E2
:101D0000DE011D9601900D928A95E1F7F801E280BF
:101D10009091F5016091F6012091F8013091F9015F
:101D20002115310531F06F3F31F481E09F3F19F407
:101D300003C081E001C080E0F82FF1709F2E80FD8C
:101D400040C1F80140815181A380B48085EFC82E45
:101D500081E0D82EF090F701F501E21BF30BFF2094
:101D600009F4DAC08091FA01E83CF10508F096C068
:101D7000282F207F09F053C0561313C0491311C0F8
:101D8000FE2CE1100EC08F7080618093FA010E94DA
:101D9000FF0DC6010E94100C8091FA01F8018583A5
:101DA0004DC1A114B10431F05F3F31F481E04F3FE8
:101DB00019F403C081E001C080E080FD03C081E030
:101DC0008E2502C080E090E0F82FF170FF2E80FF9A
:101DD0001CC08091C3012091C40136E0821709F430
:101DE0000BC190E0389FF001399FF00D1124EB53A7
:101DF000FE4F6181561306C06081461303C06281A5
:101E0000E61203C001968770E9CFFE2CEE2009F49C
:101E100015C18091FA0181608093FA0154C0561374
:101E200006C0491304C0E11002C0F80199C0C801FE
:101E30000E947B0C882361F1EE2051F12091FA0180
:101E4000822F82958F7090E0029774F08091F50157
:101E50009091F60198878F831986BB86AA862C8776
:101E6000CE0107960E94100C86E0F801A5EFB1E0C4
:101E700001900D928A95E1F70E940E0E0E94FF0DCF
:101E80000AC0561711F1C8010E947B0C81112CC0A9
:101E9000C8010E94100CFF24F394D0C0282F207F8B
:101EA00081F77A2DB98AA88A6E2D89890E94830CC0
:101EB00085EF91E00E94100C86E0F60111928A9560
:101EC000E9F70E94FF0DF12CB9C04913DCCFE110F6
:101ED000DACFF8018583C8010E94100C86E0F60174
:101EE00011928A95E9F7AAC0EE2091F22091FA01A9
:101EF000822F82958F7090E002970CF4B5CF80917D
:101F0000F5019091F6019A8389831B82BD82AC8290
:101F10002E83CE010196A6CFE83CF10508F044C01F
:101F2000FE2CEE2009F4B4CF561330C049132EC056
:101F30002091FA0120FD21C0822F82958F70482FB9
:101F400050E041155105C9F0F80125834F30510586
:101F500041F08F5F982F9295907F822F8F70892B01
:101F60008583C8010E94100C86E0F801A5EFB1E05E
:101F700001900D928A95E1F73CC086E0F801A5EF4B
:101F8000B1E001900D928A95E1F758C0C8010E9416
:101F90007B0C811169CF8091FA0181608093FA01F5
:101FA000C8010E94100C4AC07A2DB98AA88A6E2DE9
:101FB00089890E94830C86E0F60111928A95E9F7DF
:101FC00018C0EE2009F464CFC8010E947B0CF82EE3
:101FD000882309F45DCF86E0F801A5EFB1E0019018
:101FE0000D928A95E1F785EF91E00E94C2080E9468
:101FF0000E0E0E94FF0D22C04D875E878D859E8547
:102000000E94B00D292F22952F70223028F49F7046
:1020100039F0811105C00BC0243028F49F7049F4B9
:10202000805E883020F0C8010E94100C9F2CF92C93
:1020300005C0F8019581907F99F7F9CF8F2D6196B2
:10204000EBE00C942928ACE0B0E0E9E2F0E10C947C
:1020500015284F83588769877A878B879C87CE019D
:1020600007960E94770E8823D1F09F8188852A8564
:102070003B85232B31F08F3F31F481E09F3F19F4F2
:1020800003C081E001C080E080FD47C04F815885DA
:1020900069857A858B859C850E948D0C3EC086E083
:1020A000FE013796DE01119601900D928A95E1F7B7
:1020B000FF81E8856A857B856115710531F0EF3F09
:1020C00031F481E0FF3F19F403C081E001C080E0FA
:1020D00080FD23C02091C40130E0C90101968770C2
:1020E00099274091C30150E084179507F1F1F983D6
:1020F000EA837D836C8396E0929FD001939FB00D1D
:102100001124AB53BE4FFE01319601900D929A956A
:10211000E1F78093C4010E94DE0D16E08091C301B7
:102120009091C401891771F1189FC00111248B533C
:102130009E4F0E94770E882329F1E091C3011E9FD4
:10214000F0011124EB53FE4F408151816281738174
:10215000848195810E948D0C8091C30190E001964D
:10216000877099278093C301D9CF0E945B0C10928E
:10217000C4011092C301E5EFF1E086E0DF011D929A
:102180008A95E9F72C96E3E00C9431288091FB01C5
:1021900085958595859508958091FB0187700895B3
:1021A0009091FB01977081E009F480E0089580919F
:1021B0000602089590910602892B809306020895E5
:1021C00080959091060289238093060208951092CB
:1021D0000602089590910502892B809305020895C7
:1021E00080959091050289238093050208951092AD
:1021F000050208958091FC01089508950E94FD1044
:1022000008950E94FE1008959091210392FF08C046
:102210009091FC01981721F08093FC010E9401111C
:1022200008958091FC01882329F01092FC0180E040
:102230000E9401110895E0910001F0910101809147
:1022400006028083E0910001F0910101908180916C
:102250000502892B80838091FC01882381F0E09125
:102260000001F09101019081892B80838091000110
:10227000909101010E94042381110E94111180910B
:102280000001909101010E94BF2208950E94FD105B
:1022900008959091210392FF11C098E0899F9001C9
:1022A0001124262B2093FB010E94D20C8091FB016C
:1022B0008595859585950E94461108950E94D20CBA
:1022C00008951092FB0180E00E944611089520912C
:1022D000FB01809582238093FB01982F977099F4DE
:1022E00030E0482F082E000C550B2417350759F005
:1022F0009091210392FF07C08595859585950E9451
:10230000DE0C0E94611108959091210392FB222717
:1023100020F9281769F080FB92F9909321038091AE
:102320002003909121030E94D91182E00E9467113D
:1023300008958091210382FB882780F991E0892705
:102340000E948411089581E00E948411089580E024
:102350000E94841108956FEF7FEF80E090E00E946B
:102360007F28089580E090E00E945B28883E9E4F81
:1023700019F40E944C19089580E0089582E090E0DD
:102380000E945328089583E090E00E945328089506
:10239000CF9384E090E00E945328C82F82E290E01F
:1023A0000E9453282C2F30E0A901582BCA01CF914D
:1023B0000895CF93C92F682F84E090E00E94612890
:1023C0006C2F82E290E00E946128CF910895AB01CA
:1023D000BC018FE090E00E9473280895AB01BC011E
:1023E00083E190E00E947328089560E070E0CB01E3
:1023F0000E94EE11089560E070E0CB010E94E711A9
:102400000E94F511089568EE7EEF80E090E00E9452
:102410007F2860E082E090E00E94612860E083E035
:1024200090E00E9461281092C20160E084E090E098
:102430000E94612864E082E290E00E94612860E0EE
:1024400085E090E00E94612860E086E090E00E94D4
:1024500061286FEF87E090E00E94612840E050E043
:10246000BA0188E090E00E94732860E08DE090E07F
:102470000E94612840E050E0BA0188E190E00E94AB
:10248000732860E087E190E00E94612840E050E01E
:10249000BA018CE190E00E94732860E070E080E275
:1024A00090E00E947F2840E050E0BA0188E190E08F
:1024B0000E94732880E00E9465190E949A190E9468
:1024C000FB1108950E9403120895682F8EE090E09A
:1024D0000E94612808950E94F02360931602709371
:1024E000170280931802909319026093120270935E
:1024F0001302809314029093150208950E94F02312
:102500006093160270931702809318029093190239
:1025100060930E0270930F02809310029093110249
:10252000089581E008950E949112089508950E94EF
:10253000961208950E94961208950E949A12089584
:102540000E94961208950E94A01208950E94961269
:1025500008958CE395E10E94A8220E94A6120E9491
:10256000A31208950E9497120E94961208950E9445
:1025700058150E94630808950E94DB230E94AA193F
:102580000E9425160E94B71280E00E94E01A0E9465
:1025900042200E949D120895AAE0B0E0E2EDF2E12F
:1025A0000C940C280E943B16982E81110E946B12ED
:1025B00087E0A82E82E0B82E00E010E0802E802F69
:1025C0000E947315D82EF501C1905F01C826B1F4A1
:1025D0000F5F1F4F0730110589F78FEF89838A83BB
:1025E0001B820E94E4238160782F9D838C83498124
:1025F0005A816B818D810E9481082FC080911A02BF
:1026000081FD0E947915E12CFF24F3948C2D8F21FC
:10261000F1F00E949312882399F0EE828F82DF20DE
:1026200081E009F480E088870E94E4238160782FAC
:102630009A8789874E815F8168858A850E94810893
:10264000F801E95FFD4F8081F826F08206C0E3942F
:10265000FF0CF7E0EF12DACFBBCF81E0911001C0A1
:1026600080E02A96ECE00C942828CF93DF930E9418
:10267000CC12D82F0E945F20C82F81110E947E1299
:102680000E944C1DD11101C0C1110E941B1C0E944F
:102690004C180E947608DF91CF910895CF93DF9375
:1026A0000E946514EC01811521E5920708F045C0F0
:1026B000811530E5930708F094C0883E910528F510
:1026C000803E910508F0F8C0883A910570F4853A8B
:1026D000910508F07CC08130910509F475C008F4BB
:1026E000E8C0049708F0E8C0E4C08F3B910508F00B
:1026F000E0C0C85AD0E0CC0FDD1FC05BDE4F0990B0
:10270000D881C02DCE019464D8C0811540E29407D1
:1027100058F4811551E0950708F0CEC0803F91052F
:1027200008F4C7C09065C9C0C11580E4D80708F493
:10273000C0C0DF70CE01906AC0C0811525E5920748
:10274000A8F4811534E5930708F095C0811543E599
:10275000940708F07BC0811552E5950708F061C029
:10276000D82FCC27CE01816F906AA7C0C11589E50B
:10277000D807A0F4C11528E5D20708F082C0C1151A
:1027800036E5D30708F095C08C2F0E94F9148F719D
:1027900090E0D82FCC27CE0190628FC0C1154AE5BA
:1027A000D40708F474C0CE0190568115904208F009
:1027B00080C08D2F8F710E94F914DD27D0628F7138
:1027C000AE01582BCA0179C081E090E076C0C55AAD
:1027D000D0E0C258DE4F8881C82FD0E0CE0190648F
:1027E0006CC074E0969587957A95E1F7282F237051
:1027F0003C2F337081E090E002C0880F991F3A951A
:10280000E2F79C68AC01522B9A019C2F9F70969521
:10281000969550E2959FE0011124C9018C2B9D2BC8
:102820004CC08370992721E030E002C0220F331F93
:102830008A95E2F79C2F9695969580E2989FE00105
:102840001124C22BD32BCE019C6837C083709927EB
:1028500021E030E002C0220F331F8A95E2F79C2F5F
:102860009695969540E2949FE0011124C22BD32BBC
:10287000CE019A6822C0D82FCC27CE01846F906AEF
:102880001CC0DC2FCC27CE01806F906A16C08C2F25
:102890008F700E94F91494E0D695C7959A95E1F748
:1028A000CF70D0E0DC2FCC27D0699E01282BC90146
:1028B00004C080E090E001C0CE01DF91CF91089587
:1028C0000E94861F0E944E1308958238910569F177
:1028D000B0F48133910509F46DC048F48932910553
:1028E00009F463C08A32910509F469C008958533FB
:1028F000910509F455C089339105B9F00895833ED7
:10290000910569F138F4803E9105B1F0823E910560
:1029100009F10895863E9105A9F1873E9105B9F127
:10292000843E910509F064C023C02091200320FD5E
:102930004FC021FD4DC008958091200380FD44C00B
:102940008091210380FF44C08091200384FD42C018
:1029500083EE4DC08091200382FF38C0F5CF809177
:10296000200382FD33C08091210380FD31C0ECCF74
:102970008091210381FF32C08091200384FD2AC011
:1029800087EE35C08091200383FF26C0F5CF80916C
:10299000200383FD21C08091210381FD1FC0ECCF66
:1029A0008091200385FD1CC01DC08091200385FD02
:1029B00019C016C08091200386FD16C017C08091F3
:1029C000200386FD13C010C089E311C082EE0FC042
:1029D00080EE0DC080E00BC086EE09C084EE07C01B
:1029E00089E205C085E303C08AE201C081E390E08B
:1029F00008959091200392FF0DC0282F2871283050
:102A000019F4877F846006C0282F2471243011F4C4
:102A10008B7F886093FF0DC0282F2871283119F40F
:102A2000877E846106C0282F2471243111F48B7EA7
:102A300088612091210320FF0DC0382F3871383074
:102A400019F4877F816006C0382F3171313011F45D
:102A50008E7F886021FF0DC0282F2871283119F43E
:102A6000877E816106C0282F2171213111F48E7E6D
:102A7000886194FD877E089580E008950E94AB11DF
:102A800008950E943B168FE39CE90197F1F700C07F
:102A900000000E943B1680E00E94731580FF04C076
:102AA0000E943E150E94312408950E944115089508
:102AB0000E94B211811102C00E9462120E94BE11D6
:102AC00080931A020E94C8119093210380932003DF
:102AD0000E9455150E94C3110E94A60C8091C1014D
:102AE0000E94BB0C0895E82FF0E0E75DFC4F808169
:102AF0000895089580EA8A95F1F7089500C0089531
:102B00000E947A15089508950E94831508950E94E1
:102B1000841508950E94831508950E948A150895CA
:102B2000F894E82FE295EF70F0E031A1282F2F7094
:102B300081E090E001C0880F2A95EAF7982F9095E0
:102B4000932391A392A1892B82A3789408950F9344
:102B50001F93CF93DF93C8E8D1E089918F3F11F0A5
:102B60000E94901581E0CF38D807B9F7C1E8D1E0CD
:102B700008E811E089918F3F11F00E9490150C1721
:102B80001D07C1F7DF91CF911F910F910895A0E02C
:102B9000B0E0EDECF5E10C9410288C01C62FD0E0EC
:102BA000CE0188579E4F7C01FC0190819F3F09F424
:102BB00047C0D62EF894E92FE295EF70F0E081A19E
:102BC0009F7021E030E001C0220F9A95EAF7822B36
:102BD00081A382A12095282322A378940E947E15A8
:102BE000E1E8F1E048E851E031E0C12C21912F3FCC
:102BF00089F0A22FA295AF70B0E090968C9190E0F2
:102C00002F7002C0959587952A95E2F780FD02C046
:102C1000832F01C080E0C82A330F4E175F0731F7BA
:102C2000F70180818F3F11F00E94901561E0C11083
:102C300001C060E08D2D0E948015C00FD11FC88299
:102C4000CDB7DEB7E8E00C942C280E94A71587E0EA
:102C5000E9E2F3E0DF01982F1D929A95E9F7E2E2AD
:102C6000F3E0DF011D928A95E9F787E00E9477166D
:102C70000E940B070895A7E0B0E0E1E4F6E10C94B0
:102C800013288E010F5F1F4F87E0F80111928A957C
:102C9000E9F7F12C6F2DC8010E94C715F394F7E0F6
:102CA000FF12F8CF47E050E0B80182E293E00E94C3
:102CB0004628FF24F394009709F4F12C892B41F066
:102CC00087E0F801A2E2B3E001900D928A95E1F766
:102CD0002F2D47E069E273E082E293E00E947816CC
:102CE0000E940E078F2D2796E5E00C942F2808955B
:102CF000FF920F931F93CF93DF938C01F62ED72F64
:102D0000C42F222349F081E080931D020E94E42316
:102D100090931C0280931B0280911D028823C1F0B6
:102D200080911B0290911C020E94FC23059780F069
:102D3000EF2DFD2FD8014C2F50E0CD01801B910BC2
:102D4000841795071CF48D918193F7CF10921D0283
:102D5000CDB7DEB7E5E00C942F280E9461240E94D5
:102D6000BC120E94722408950E9481230E94512463
:102D70000E94A9120E94AD160E9480240E94B212E5
:102D8000FBCF8091240280FF06C06091070170E0B4
:102D9000660F771F26C081FF04C06091070184E0A1
:102DA00005C082FF07C06091070188E0689FB001FD
:102DB000112417C0909123029923D1F0609106014C
:102DC000961788F72091070188E0289F9001112429
:102DD000929FA001939F500D112470E0CA010E94A0
:102DE000E5276038710540F46115710519F406C0D6
:102DF00068E070E0862F08958FE7089581E00895D8
:102E00008091240280FF08C06091030170E07595F5
:102E100067957595679521C081FF06C06091030194
:102E200070E07595679519C082FF04C06091030139
:102E300070E010C090912202992399F060910201F4
:102E40009617A0F780910301899FC001112470E0BB
:102E50000E94E5276038710540F46115710519F489
:102E600006C061E070E0862F08958FE7089581E045
:102E70000895803F21F40E94C116819504C0813FCE
:102E800029F40E94C116809328020895823F21F4FC
:102E90000E94C116819504C0833F29F40E94C11687
:102EA000809327020895893F19F40E94001705C0F6
:102EB0008A3F31F40E94001781958093290208957A
:102EC0008B3F21F40E940017819504C08C3F29F4A8
:102ED0000E94001780932A0208959CE0980F953075
:102EE00078F421E030E0A90102C0440F551F9A9503
:102EF000E2F7CA0190912602892B80932602089559
:102F00008D3F21F48091240281600BC08E3F21F41B
:102F100080912402826005C08F3F29F480912402B1
:102F20008460809324020895803F39F490912802B0
:102F300097FF35C01092280259C0813F29F4909123
:102F400028021916BCF32BC090912702823F29F466
:102F500097FF25C01092270249C0833F19F4191624
:102F6000CCF31DC090912902893F29F41916BCF4B5
:102F7000109229023BC08A3F19F497FF10C0F8CF86
:102F80008B3F39F490912A0297FF09C010922A02D0
:102F90002DC08C3F21F490912A021916BCF39CE0BD
:102FA000980F953080F421E030E0A90102C0440F71
:102FB000551F9A95E2F7CA018095909126028923C0
:102FC0008093260213C08D3F21F4809124028E7FCE
:102FD0000BC08E3F21F4809124028D7F05C08F3F6E
:102FE00029F4809124028B7F809324028091270210
:102FF000811106C080912802811102C01092230223
:1030000080912902811106C080912A02811102C09B
:103010001092220208950E94E42320912702211198
:1030200004C020912802222321F090932102809352
:10303000200220912902211104C020912A0222237A
:1030400021F090931F0280931E0285E292E00E947D
:10305000CA220895E5E2F2E086E0DF011D928A953A
:10306000E9F710922302109222021092240208958E
:10307000FC01828181110DC0838181110AC084818C
:10308000811107C091E08581811101C090E0892FF5
:1030900001C081E081700895A6E0B0E0E2E5F8E1CA
:1030A0000C94152886E0E5E2F2E0DE01119601902D
:1030B0000D928A95E1F71092270210922802109241
:1030C000290210922A028B81811104C08C818823ED
:1030D00009F45FC080912002909121020E94FC239C
:1030E000AC0190912302992339F02091080130E03E
:1030F0002417350758F04DC0209109018AE0289F18
:10310000900111242417350718F043C09F3F19F090
:103110009F5F909323021B81112361F00E94C116CF
:10312000111614F09FEF01C091E0989F902D11248B
:10313000909327021C81112361F00E94C116111681
:1031400014F09FEF01C091E0989F902D112490936F
:103150002802309127023323E1F020912802222314
:10316000C1F045EB3403C0011124992319F0909369
:10317000270203C081E08093270235EB2303C001BF
:103180001124992319F09093280203C081E08093C1
:1031900028028D81811104C08E81882309F45FC0CB
:1031A00080911E0290911F020E94FC23AC0190911D
:1031B0002202992339F02091040130E024173507C9
:1031C00058F04DC0209105018AE0289F90011124FC
:1031D0002417350718F043C09F3F19F09F5F909365
:1031E00022021D81112361F00E940017111614F0B4
:1031F0009FEF01C091E0989F902D11249093290298
:103200001E81112361F00E940017111614F09FEF28
:1032100001C091E0989F902D112490932A02309143
:1032200029023323E1F020912A022223C1F045EB49
:103230003403C0011124992319F09093290203C08B
:1032400081E08093290235EB2303C00111249923E7
:1032500019F090932A0203C081E080932A02BE01F4
:103260006F5F7F4F85E292E00E945323811105C07A
:1032700085E292E00E94381881110E940B1886E0C6
:10328000FE013196A5E2B2E001900D928A95E1F738
:103290002696E3E00C94312883E290E00E945328C4
:1032A000823281F484E290E00E945328873051F406
:1032B00085E290E00E94532891E0843109F090E08B
:1032C000892F01C080E081700895CF93C82F8111AC
:1032D00002C06FEF01C062E283E290E00E946128C9
:1032E000C11102C06FEF01C067E084E290E00E946C
:1032F0006128C11102C06FEF01C064E185E290E076
:103300000E946128CF910895089586E290E00E947E
:103310005328682F70E080E090E008950895CF93DF
:10332000C62F0E948E196C2F86E290E00E946128C1
:10333000CF91089580E00E94651960E070E0CB01B4
:103340000E948F190E940F1F0E94DD1F81E00E94C2
:10335000651908950E9484190E9485190E948E198A
:103360000E944C19811102C00E949A190895CF93AE
:10337000FB01C281CC23E9F09C0122513F45203161
:10338000310520F482510E94ED1F0CC08031FFE511
:103390009F0751F481E00E94D20C43E062E081E09B
:1033A0000E940107C0E018C081319F45A9F482E066
:1033B000F2CF8031EFE59E0711F481E004C0813146
:1033C0009F4549F482E00E94DE0C43E062E081E028
:1033D0000E94010701C0C1E08C2FCF9108952FEF0B
:1033E000FC0120830895EF92FF920F931F93CF93D8
:1033F000DF93EC01062FE8818E2F90E0FC013197DE
:10340000E331F10508F091C0E05CFF4F0C94F9271F
:10341000198289E04DC08981823039F0833061F0B2
:10342000813029F50E94F02302C00E9485199A83F9
:103430008B837C836D837BC07E0182E0E80EF11C70
:1034400010E0812F0E947315F70181937F011F5FA8
:103450001730B9F76CC08981823049F46A817B8169
:103460008C819D810E94FF270E948F1960C0602F70
:10347000CE010E94EF195BC04B816A8189810E9455
:10348000D31E9C838D8353C02C813D8132272327FB
:1034900032274B816A8189810E94F41E48C00E94B4
:1034A0000F1F45C00E94941F24C00E94961F99833D
:1034B0008A833DC06B8170E089819A81AE014C5F47
:1034C0005F4F9827892798270E94991F30C06B81EA
:1034D00070E089819A81AE014C5F5F4F9827892700
:1034E00098270E94BC1F23C00E94DD1F20C00E949D
:1034F000C01E89831CC06B8170E089819A81AE01F6
:103500004C5F5F4F9827892798270E94441F0FC060
:103510006B8170E089819A81AE014C5F5F4F982783
:10352000892798270E94661F02C08FEF8883602F2B
:10353000CE010E947325CDB7DEB7E6E00C942E28AD
:10354000EF92FF920F931F93CF93DF93EC017B01D8
:1035500064E670E088E70E94B7218C01EC0EFD1E46
:10356000CE15DF0561F017FD0AC0FE01849164E607
:1035700070E00E942C228C012196892B89F30E94F5
:10358000A422C801CDB7DEB7E6E00C942E2808953A
:103590000E94C71A0895E0E3F3E080E092E0DF01C3
:1035A0009C011D9221503040E1F7F0933505E093E6
:1035B00034058FEF9FEF9093570280935602089542
:1035C0000E94C81A0E948B068093520280FD02C09E
:1035D00080E801C080E2809351020E94B1216DE039
:1035E00070E08AE493E00E94A01A892B11F080E039
:1035F00008958091520263E070E081FD03C087E48A
:1036000093E002C084E493E00E94A01A892B79F72A
:103610006DE070E087E393E00E94A01A892B39F7F0
:103620000E94F023DC01CB01805A9541AF4FBF4F80
:103630008093300590933105A0933205B093330504
:103640000E94CB1A81E0809355028093540210921D
:10365000530208952091510236E0839FC001112446
:10366000629F800D911D1124811522E0920714F0B4
:1036700080E090E0805D9C4F909335058093340509
:10368000089520913405309135052A5233404091F8
:103690005102642F70E0C9010E94D127481B4630B7
:1036A00010F4240F311D211582E0380710F020E0BE
:1036B00030E0205D3C4F309335052093340508956C
:1036C0001F93CF93DF93162F8A3011F481E003C04C
:1036D0008D3021F480E00E94D81B66C0C091340573
:1036E000D091350596E0FE01ABE2B2E001900D927B
:1036F0009A95E1F7803E30F086E0FE0111928A95BE
:10370000E9F70BC0F6E08F9FB0011124695A7C4F96
:1037100046E050E0CE010E943D28111135C0C09115
:103720003405D091350546E050E0BE018BE292E0D1
:103730000E944628892BB1F1C053D3409E0185E0F9
:10374000369527958A95E1F781E090E0AC0102C0BB
:10375000440F551F2A95E2F72091560230915702E7
:10376000242B352B259645E0D695C7954A95E1F74C
:1037700002C0880F991FCA95E2F7822B932B909372
:103780005702809356020EC0E0913405F091350542
:103790009F012A5F3F4F2E173F0709F280818095D6
:1037A0008193F9CF0E94411BDF91CF911F91089522
:1037B000CF93E82F209134053091350520533340C5
:1037C00040915102642F70E0C9010E94D127481B2B
:1037D000842FEE2359F066E00E94C527C82FC15000
:1037E000B0F060E080E20E94601BF9CFA901480FB1
:1037F000511D4115524018F080E020E030E0280FC4
:10380000311D205D3C4F3093350520933405CF9119
:1038100008951F93CF93DF93EC01162FFE0184913F
:10382000882329F0612F0E94601B2196F7CFDF913A
:10383000CF911F910895809155028823F9F00E943D
:10384000F023DC01CB01805A9541AF4FBF4F8093ED
:10385000300590933105A0933205B09333058091E4
:10386000540281110BC062E070E085E393E00E9496
:10387000A01A892B19F481E080935402809154029C
:103880000895A0E0B0E0E7E4FCE10C940A28809100
:103890005502882309F4DEC0209156023091570268
:1038A0002115310509F4D6C0809153028111D2C08F
:1038B00061E070E0082F10E03B01082E02C0660CAA
:1038C000771C0A94E2F7A90146215721452B11F4F0
:1038D0008F5FF0CF90915202980165E0220F331F65
:1038E0006A95E1F790FD12C08295880F80768093EB
:1038F0000C01220F232F221F330B319520930F0130
:10390000815E80930D011092100112C045E0369542
:1039100027954A95E1F7220F220F220F20930C01E1
:1039200010920F01295F20930D0183E08093100115
:1039300024E630E047E050E06AE071E088E70E946A
:103940005C22892B09F086C08091520280FD23C041
:10395000A80195E0440F551F9A95E1F7405D5C4F33
:1039600004E610E020E230E060E488E70E947D2277
:10397000892B09F06FC00E941B1CE301C095D095F4
:103980008091560290915702C823D923D0935702B1
:10399000C09356025FC080E2E1E3F2E0DF011D92D6
:1039A0008A95E9F785E0000F111F8A95E1F7A3E9F1
:1039B000B1E04FE851E0992493942D91EA01899167
:1039C000AE01B801680F711D605D7C4F30E02F5C67
:1039D0003D4FF90197E07F01E21AF30AA92C01C0DB
:1039E000AA0CEA94EAF77B01B12CE70189917E01E8
:1039F0008A21892E8B18D82DD770CD2E0D2E000C34
:103A0000DD08C82F01C0CC0FDA95EAF78C2ED194CF
:103A1000C194D108D7E0CD22DD240C2C01C08695BD
:103A20000A94EAF78C2BD0808D298083B39488E0A8
:103A3000B812DBCF915031969F3F69F6C1E0A739AC
:103A4000BC0709F0BACF04E610E020E230E041E321
:103A500052E08ACFCDB7DEB7EEE00C9426288091F5
:103A6000550290915402882389F0992369F062E00D
:103A700070E083E393E00E94A01A892B19F08091F3
:103A800054020895109254029091540281E08927C3
:103A900008950E948D0608950F931F9380915502FB
:103AA000882319F160E080E00E942A1B0E94491DD2
:103AB0000E94411C809154028823B9F00E94F02397
:103AC0000091300510913105209132053091330578
:103AD000DC01CB01801B910BA20BB30B8F3F9F4FDF
:103AE000AF4FBF4710F40E942F1D1F910F910895F3
:103AF000CF93DF93EC01FB018281882309F43CC161
:103B0000C330FDE5DF0760F4CA3F9CE5D90788F4C0
:103B10009E0122503C452431310508F02EC109C0D8
:103B2000C136EDE5DE0729F0C53AFDE5DF0709F00E
:103B300024C10E94C8119093210380932003C131B6
:103B40008CE5D80709F4C6C008F042C0C930ECE5DE
:103B5000DE0709F49BC000F5C5308CE5D80709F4F1
:103B600085C078F4C330ECE5DE0709F478C008F0CE
:103B70007AC0C230DC4509F0F5C080912003816035
:103B8000EFC0C7309CE5D90709F478C008F07AC0C7
:103B9000809120038061E4C0CD30FCE5DF0709F4AB
:103BA00087C058F4CB309CE5D90709F479C008F0F8
:103BB0007BC08091200388606FC0CF30FCE5DF07B9
:103BC00009F480C008F082C080912003877FC8C0BC
:103BD000CD3F9CE5D90709F471C000F5C531FCE57E
:103BE000DF0709F485C068F4C3319CE5D90709F4FF
:103BF00075C008F095C00E945B0C809120038F7700
:103C0000AFC0CB3FFCE5DF07A9F108F054C0CA3FC5
:103C1000DC4509F0A7C08091210340C0C130EDE52B
:103C2000DE0709F489C058F4CF3F8CE5D80709F4C2
:103C30005AC008F069C08091210382602FC0C1364C
:103C4000EDE5DE0709F47CC0C53AFDE5DF0709F4C0
:103C500081C0C230DD4509F085C080E06EC0809132
:103C6000200382607DC08091200316C080912003D4
:103C7000886076C08091210382604FC080912003CC
:103C800080626EC08091200380646AC00E945B0CD9
:103C900080912003806864C0846062C081603DC000
:103CA000809120038E7F5CC0809120038D7F58C05F
:103CB0008091200316C08091210318C080912103B8
:103CC0008D7F2BC0809120038F7E4AC0809120037E
:103CD0008F7D46C0809120038F7B42C0809120035E
:103CE000877F8B7F3DC0809121038D7F8E7F15C0A4
:103CF0008091200382FB222720F991E0922790FBFC
:103D000082F990FB83F92CC080912103982F909524
:103D100091708E7F892B90FB81F98093210322C0C3
:103D20000E945B0C8091200387FB222720F991E001
:103D3000922790FB87F914C081E00E94651212C09F
:103D40008091200384FB222720F991E0922790FBA9
:103D500084F906C080912003982F909590FB80F9FC
:103D60008093200380912003909121030E94D91118
:103D70000E945B0C80E001C081E0DF91CF9108954B
:103D800084E0089550E0440F551F2EE0629F400DDF
:103D9000511D11249A0162E6869F200D311D1124C8
:103DA000C901879608950F931F93CF93DF938430B3
:103DB000A0F4673090F4473080F40E94C21E8C015A
:103DC0000E94532890E0D82FCC27C80101960E946A
:103DD00053289E01282BC90102C080E090E0DF91AA
:103DE000CF911F910F9108950F931F93CF93DF935E
:103DF000843080F4673070F4473060F4E9010E9449
:103E0000C21E8C016D2F0E9461286C2FC801019683
:103E10000E946128DF91CF911F910F910895A0E03A
:103E2000B0E0E5E1FFE10C940E28A12CE12CF12C8F
:103E3000B12C00E010E0C0E0D0E06701C00ED11E60
:103E4000FE01EE0FFF1FEC0DFD1DE550FF4F25910C
:103E500034914C2F6B2D8A2D0E94F41E2196C73071
:103E6000D10571F7025F1F4FB39487E0B812E3CF1B
:103E700082E6E80EF11CA39484E0A812D9CFCDB756
:103E8000DEB7EAE00C942A28EF92FF920F931F937B
:103E9000CF93DF93EA017A01E60EF71E8C01C80189
:103EA0008796CE15DF0569F0083821E0120720F467
:103EB0000E945328888301C0188221960F5F1F4FEC
:103EC000EECFCDB7DEB7E6E00C942E28EF92FF924E
:103ED0000F931F93CF93DF93EA017A01E60EF71E4B
:103EE0008C01C8018796CE15DF0559F0083821E00E
:103EF000120718F468810E94612821960F5F1F4FF6
:103F0000F0CFCDB7DEB7E6E00C942E28843048F42D
:103F1000773038F4673028F4462F672F0E94D31E7D
:103F2000089580E090E0089580E1089581E592E0B1
:103F30000895EF92FF920F931F93CF93DF93EA01BF
:103F40007A01E60EF71E8C01C80181559E4FCE15F1
:103F5000DF0569F0013522E0120720F40E945328A2
:103F6000888301C0188221960F5F1F4FEDCFCDB718
:103F7000DEB7E6E00C942E28EF92FF920F931F938A
:103F8000CF93DF93EA017A01E60EF71E8C01C80198
:103F900081559E4FCE15DF0559F0013522E01207FD
:103FA00018F468810E94612821960F5F1F4FEFCFA0
:103FB000CDB7DEB7E6E00C942E28CF93DF93CFEA9F
:103FC000D1E060E0CE010E9461282196C11584E015
:103FD000D807B9F7DF91CF910895A4E0B0E0E3EFFF
:103FE000FFE10C941128F82E8FE08F15E8F18FEF88
:103FF00093E00E945328811137C00FEA11E0FF209F
:1040000069F0011584E0180779F1C8010E9453286E
:10401000811101C0FA940F5F1F4FF1CF19821A82EC
:104020001B821C82DD24D39478018FEFE81AF80AF2
:10403000C8010E94532889831A828823A9F09FEF20
:10404000980F933058F48A83D9820E5F1F4FC701AF
:104050000E9453288B83882339F07801CE01019682
:104060000E9456088701E0CF2496E7E00C942D28A3
:104070008FE891E00197F1F700C0000008950E94D9
:104080008006089581E08093590224982C9A2598FF
:104090002D9A0E94382030915902EBE5F2E090E031
:1040A000931761F083B1829581701D9902C020E061
:1040B00001C022E0822B81939F5FF2CF0895A0E0A0
:1040C000B0E0E5E6F0E20C941028F12CE12C84E05D
:1040D000C82ED12C80915902F81608F050C00F2D2F
:1040E00010E0E3B1E295E1701D9902C080E001C0EB
:1040F00082E08E2BD801A55ABD4FEC912E2F237054
:1041000030E0482F082E000C550B24173507A9F175
:10411000EE0FEE0FE82BEC93EF70F0E0E956FE4F58
:10412000E801C65ADD4F90818881890F88838430E9
:1041300064F0F801E85AFD4F80818F5F808360E072
:104140008F2D0E943F2021E001C020E088818D3F1B
:104150005CF4F801E85AFD4F80818150808361E072
:104160008F2D0E943F2021E08881082E000C990BA2
:10417000B6010E94E5278883E22AF394ABCF8E2D07
:10418000CDB7DEB7E8E00C942C28CF93DF938631CF
:104190009C4541F5EB010E94D710982F8A81209110
:1041A000000130910101882379F09A7A81E009F4C5
:1041B00080E080935C02911102C069E201C065E376
:1041C000C9010E9446230AC080915C02811102C08D
:1041D00069E201C065E3C9010E9449230E941B11E5
:1041E00080E001C081E0DF91CF9108950F931F938C
:1041F000CF93DF93C42FD22FFC0182818823B1F0AB
:1042000040935F020E94E42390935E0280935D02DC
:1042100080E28C0F883008F04DC0C77081E001C08B
:10422000880FCA95EAF70E94FE0944C080915F0298
:10423000481330C080915D0290915E020E94FC2381
:10424000883C910538F510E21D0FCD17B9F080E2DA
:104250008C0F883040F4C77081E001C0880FCA9588
:10426000EAF70E94050A183010F581E09D2F97703B
:1042700001C0880F9A95EAF70E94FE09802F0E94DC
:10428000F4091830B8F4D77081E001C0880FDA95CE
:10429000EAF70AC080E28C0F883060F4C77081E0D2
:1042A00001C0880FCA95EAF70E94050A03C0802F53
:1042B0000E94F409DF91CF911F910F9108950F9300
:1042C0009C01CB01233F4CE5340731F188F4283DB4
:1042D000FCE53F07D9F0293D4CE5340779F1273D4E
:1042E0003C45A9F506E221EE41EE67ED7CE52BC0E9
:1042F000253FFCE53F07E1F0A8F0263F3C4539F5B6
:1043000007E225EE46EE66EF7CE51DC007E225EEEE
:1043100045EE68ED7CE517C006E221EE40EE63EF66
:104320007CE511C007E225EE44EE64EF7CE50BC0AE
:1043300006E221EE42EE65EF7CE505C008E221E0F1
:1043400045EE69ED7CE50E94F62080E008C0FC01A6
:104350008281882319F010925F0201C081E00F91E1
:1043600008951092B9008CE08093B8000895A0E001
:10437000B0E0EDEBF1E20C940D28B82EEB010E94B9
:10438000E4236C01C431D10558F0CF3F8FEFD8073B
:1043900059F0CE0164E170E00E94D1277B0107C093
:1043A000EE24E394F12C03C025E0E22EF12C84E806
:1043B000A82E94EA992E1092BC009092BC000E9404
:1043C000E4238C018091BC0087FD08C00E94E42397
:1043D000801B910B8E159F05A8F32AC08091B90010
:1043E000887F883041F08091B900887F803119F052
:1043F0000FEF1FEF1FC0B092BB00A092BC000E9445
:10440000E4238C018091BC0087FD08C00E94E42356
:10441000801B910B8E159F05A8F30AC08091B900EF
:10442000887F883111F0803419F700E010E00EC069
:104430000EEF1FEFCF3F8FEFD80709F4BCCFC601B7
:104440000E94FC238C179D0708F4B5CFC801CDB797
:10445000DEB7EBE00C9429280F931F93CF93DF93E3
:10446000EB018093BB0084E88093BC000E94E423AE
:104470008C018091BC0087FD0EC0CF3F8FEFD80725
:10448000C1F30E94E423801B910B8C179D0788F3D6
:104490008EEF9FEF0CC02091B900287F81E090E063
:1044A000283211F480E090E0919581959109DF9197
:1044B000CF911F910F910895A0E0B0E0E2E6F2E203
:1044C0000C9410286B018A017901B9010E94B7216F
:1044D000E6010C0D1D1DC017D10741F424E92093FE
:1044E000BC00CDB7DEB7E8E00C942C2897FDF6CFE2
:1044F000B70189910E942C22EECFA0E0B0E0E3E862
:10450000F2E20C941028C62F6A017901B8010E94CA
:10451000B72197FD11C0B8018C2F0E942C22E60113
:10452000EC0CFD1CCE15DF0539F097FD05C0B80178
:1045300089910E942C22F6CF24E92093BC00CDB7AC
:10454000DEB7E8E00C942C2884E98093BC00089541
:104550009093A9018093A801089590936502809398
:1045600064020895E0916402F0916502309729F0A9
:104570000190F081E02D0995089580E00895E09183
:104580006402F0916502309721F00280F381E02D02
:1045900009950895E0916402F0916502309739F031
:1045A00022E0DC012C930480F581E02D099508952B
:1045B00020916202309163022817390771F09093BD
:1045C000630280936202E0916402F0916502309789
:1045D00021F00680F781E02D099508952091600271
:1045E000309161022817390771F09093610280932E
:1045F0006002E0916402F0916502309721F000843E
:10460000F185E02D09950895FC01329697E080E050
:10461000915029F021912223D9F38F5FF9CF08958A
:10462000662349F0FC01329608962191621729F021
:10463000E817F907D1F780E0089581E008959C011B
:10464000FC0132969FEF80E04191461789F09F3F31
:1046500019F4411101C0982F8F5F8630A9F79F3F51
:1046600039F0F901E90FF11D97FDFA95628308957C
:1046700008959C012A5F3F4FFC014281461301C00F
:104680001282019682179307B9F708950E941F239B
:1046900008950E9439230895029626E0FC011192A4
:1046A0002A95E9F7089546E050E00E94462821E067
:1046B000892B09F420E0822F089508950E945D233C
:1046C00008950E945E2308950E945D2308950E942C
:1046D0005D2308950E945D230895CF930E94672370
:1046E0000E943B160E946423C0E08C2F0E94731529
:1046F000811104C0CF5FC730C1F701C081E0CF9105
:10470000089508951F920F920FB60F9211248F9360
:104710009F93AF93BF9380916602811113C08091E4
:10472000360590913705A0913805B091390541962D
:10473000A11DB11D8093360590933705A0933805D0
:10474000B0933905BF91AF919F918F910F900FBE9C
:104750000F901F90189580916902882331F10E9473
:1047600086071092660220E488E190E00FB6F89484
:10477000A895809360000FBE2093600083B7817F6F
:10478000846083BF83B7816083BF7894889583B743
:104790008E7F83BF0FB6F894A895809160008861E2
:1047A00080936000109260000FBE08950E945B0C21
:1047B0000E948D07089582E084BD93E095BD9AEF35
:1047C00097BD80936E0008952FB7F89480913605B9
:1047D00090913705A0913805B09139052FBF089504
:1047E0002FB7F894609136057091370580913805A0
:1047F000909139052FBF08959C014FB7F89480918F
:10480000360590913705A0913805B09139054FBF15
:10481000821B930B089578941F920F920FB60F92FC
:1048200011248F939F93AF93BF93809136059091FE
:104830003705A0913805B09139050196A11DB11D2C
:104840008093360590933705A0933805B0933905CA
:10485000BF91AF919F918F910F900FBE0F901F90BE
:10486000189598E088E10FB6F894A89580936000B9
:104870000FBE90936000A895F894D8E0CEEF28E39F
:10488000299320E0299314BEFFCF089598E088E192
:104890000FB6F894A895809360000FBE90936000C7
:1048A000FFCF0E94E423909368028093670290E018
:1048B00080E80FB6F89480936100909361000FBE7A
:1048C00008950E94AA27539A80E0815041F0A8954C
:1048D000EFE9FFE03197F1F700C00000F6CF539801
:1048E000789408950E94A9250E94AD222FEF80E7B9
:1048F00092E0215080409040E1F700C00000089510
:1049000080916105882389F0109261050E94E4235B
:104910009093680280936702809169028823D1F1A5
:10492000109269020E94D62311C080916902811100
:1049300011C080916702909168020E94FC23069743
:1049400028F081E0809369020E94AB238091690284
:10495000882301F10E94AB230E946D23882391F1EB
:10496000F8942AB15B9A822F8C608AB99BB18CE053
:1049700098279BB93FE748E391E031504040904091
:10498000E1F700C000009BB189278BB92AB95B9879
:10499000789408950E94B32680916705882329F0B2
:1049A0008091450584FD0E9435130E941A250E94BE
:1049B000B32680916705882329F08091510584FDF5
:1049C0000E949D25089580911F0308950895909158
:1049D0006F02981307C020916D0230916E02261766
:1049E0003707A9F080936F0270936E0260936D0297
:1049F00080936A0270936C0260936B0280917E05D3
:104A000084FF05C063E08AE692E00E94A92608952B
:104A1000BC0184E00E94E7240895BC0183E00E9469
:104A2000E724089520917E0524FF03C066E00E94DC
:104A3000A9260895CF93DF93CAE0D0E08091450581
:104A400084FF18C080919C0290919D029817E1F01C
:104A500028E0829FC001112468E082569D4F0E9489
:104A6000A42680919C0290E001968F7099278093F4
:104A70009C020AC00E94B3268FE99FE00197F1F7DC
:104A800000C000002197D1F6DF91CF910895CF9318
:104A9000DF93EC01A0919D02B0E0CD0101968F70F3
:104AA000992720919C02281779F093E0AA0FBB1F49
:104AB0009A95E1F7A256BD4F98E0FE0101900D9244
:104AC0009A95E1F780939D020E94B3260E941A25D1
:104AD00088E0FE01A4E9B2E001900D928A95E1F729
:104AE000DF91CF9108950F931F93CF93DF93EC0144
:104AF0006032F1F48C01005E1F4F8091510584FDFE
:104B000003C00E94B326F9CF68E0CE010E94AE2612
:104B100028960C171D0789F78091510584FD03C065
:104B20000E94B326F9CF60E080E090E00E94AE26BC
:104B3000DF91CF911F910F91089580917302803280
:104B400039F460E284E792E00E94F3191092730254
:104B5000089581E191E00895FC01808180768032A2
:104B6000A1F58181813061F484819581892B69F57A
:104B700084E992E0909363058093620588E008954C
:104B8000823041F48EE193E0909363058093620557
:104B900081E008958A3021F4838180931E0315C03B
:104BA000893099F4828193818115924081F48481C6
:104BB0009581892B61F481E08093720286819781CF
:104BC000909371028093700202C080E008958FEF8D
:104BD00008952091700230917102232B71F0209181
:104BE0007202213051F4FC01808180931F031092E6
:104BF00071021092700281E008958FEF089568307D
:104C000019F010927302089520917302A22FB0E060
:104C1000A931B105B4F7FC01AC58BD4F08963191EC
:104C20003D93E817F907D9F7285F20937302089599
:104C3000FC0193819330B1F068F4913081F09230AF
:104C400009F05EC087E998E0909363058093620560
:104C50008BE50895913201F1923291F151C082EFCA
:104C600098E014C08281813079F030F0823009F010
:104C700047C084E099E00AC08CE299E09093630514
:104C80008093620584E0089588E199E0909363053C
:104C90008093620582E108958281813049F028F095
:104CA000823071F582EE98E005C089EA98E002C092
:104CB00082EC98E0909363058093620589E0089503
:104CC000848195818130910599F050F00297C1F46B
:104CD00082E599E090936305809362058BE70895E0
:104CE0008DEC99E0909363058093620580E40895CC
:104CF00080E399E0909363058093620582E20895D2
:104D000080E008951F93CF93DF93162FEA01288147
:104D100024FF05C0398128E82327298302C02AE51A
:104D20002883212FFC01CE010296DC0131913D93B5
:104D300021501216DCF3612F0E943B051C5F188383
:104D4000DF91CF911F91089545E455E00E9482269E
:104D500008954EE755E00E948226089541E555E00A
:104D60000E9482260895CF93DF936091640563507B
:104D700067FD93C080916005CCE0D0E0C81BD109ED
:104D8000C859DA4F80915F05803120F4CE010E942E
:104D9000FF2581C08D3209F06EC0683009F07BC0FC
:104DA00083EC80933A058AE580931E0110925E059C
:104DB0008881807621F0CE010E94AC2549C09A817D
:104DC000109243058981811106C01092440523E4A5
:104DD00035E082E038C0853019F49093650530C025
:104DE0008630A1F48B81813041F0823031F0833004
:104DF00021F0813211F0823221F4CE010E94182676
:104E000001C080E090E490935E0522C0883089F074
:104E1000893019F49093670513C08A3069F08B309C
:104E200079F48BE48093460580937F058093520547
:104E300007C027E635E002C023E435E081E003C087
:104E400023E435E080E0309363052093620509C0D8
:104E50008F3F39F4988197FD8E8190E890935E059D
:104E600007C09F81911104C09E81981708F4892F73
:104E700080931D0110C080915E0587FF0CC0CE019C
:104E80000E94E9258F3F21F48EE180931E0103C02B
:104E9000811110921D011092640580911E0184FF02
:104EA0004CC080911D018F3F09F447C0C82F893045
:104EB00008F0C8E08C1B80931D0190913A0588E8AA
:104EC000892780933A05CC2359F18091620590910E
:104ED000630520915E0526FF12C0AAE3B5E02C2FE2
:104EE000AC014A535540FA01EA0FFB1FE4911196B9
:104EF000EC931197215011962111F5CF08C0EBE3E7
:104F0000F5E0DC012C2F3D9131932150E1F7019622
:104F10002FEF2C0F820F911D9093630580936205F4
:104F20006C2F8BE395E00E943B05CC5FCC3019F0F1
:104F30008FEF80931D01C0931E0184E199B19C7095
:104F400031F48150D9F71092650510925D05DF911B
:104F5000CF910895CF93DF93E9E6F0E080818860F8
:104F60008083E99AC5E4D5E08BE48983AEE7B5E0B8
:104F700011968C931197E1E5F5E081838AE58883AA
:104F80008C938083DF91CF910895991B79E004C0C1
:104F9000991F961708F0961B881F7A95C9F7809578
:104FA0000895AA1BBB1B51E107C0AA1FBB1FA61770
:104FB000B70710F0A61BB70B881F991F5A95A9F7C2
:104FC00080959095BC01CD01089597FB072E16F4AE
:104FD000009407D077FD09D00E94D12707FC05D0A7
:104FE0003EF4909581959F4F0895709561957F4F00
:104FF0000895EE0FFF1F0590F491E02D09946927A5
:105000009627692778278727782708952F923F9238
:105010004F925F926F927F928F929F92AF92BF92C8
:10502000CF92DF92EF92FF920F931F93CF93DF9374
:10503000CDB7DEB7CA1BDB0B0FB6F894DEBF0FBED1
:10504000CDBF09942A88398848885F846E847D841E
:105050008C849B84AA84B984C884DF80EE80FD8020
:105060000C811B81AA81B981CE0FD11D0FB6F89496
:10507000DEBF0FBECDBFED010895FB01DC0102C014
:1050800005900D9241505040D8F70895FB01DC0186
:1050900004C08D910190801921F441505040C8F70F
:1050A000881B990B0895F999FECF92BD81BDF89A9E
:1050B000992780B50895A8E1B0E042E050E00C9453
:1050C0008728262FF999FECF92BD81BDF89A0197C6
:1050D00000B4021639F01FBA20BD0FB6F894FA9A40
:1050E000F99A0FBE08950396272F0E9462280E9406
:1050F0006128252F0E946228242F0C946228019693
:10510000272F0E9462280C946128DC01CB01FC014E
:10511000F999FECF06C0F2BDE1BDF89A319600B410
:0E5120000D9241505040B8F70895F894FFCF1B
:10512E00FD01280850011E0A14010021007F2200F3
:10513E0003E324472512250D250825E624FF5AE210
:10514E0000E900EA00B500B600B700CD008301CC3F
:10515E00008A0192019401210223022402250226D3
:10516E000227022A02B300B4006F0070008182830E
:10517E00E200E900EA00B500B600B700CD008301F9
:10518E00CC008A01920194012102230224022502FD
:10519E00260227022A02B300B4006F00700081823B
:1051AE0083309796953132339091946360616200AB
:1051BE000810181810080000FF0100010000FFFF82
:0851CE000000010001FF0000D8
:00000001FF
