:100000000C9413030C944B030C944B030C944B0370
:100010000C944B030C944B030C944B030C944B0328
:100020000C944B030C944B030C94D0170C941217A4
:100030000C94F6190C944B030C944B030C944B0347
:100040000C944B030C944B030C944B030C944B03F8
:100050000C944B030C94B5190C944B030C944B0368
:100060000C944B030C944B030C944B030C944B03D8
:100070000C944B030C944B030C944B030C944B03C8
:100080000C944B030C944B030C944B030C944B03B8
:100090000C944B030C944B030C944B030C944B03A8
:1000A0000C944B030C944B030C944B039907990746
:1000B000CC07CC073F085D086B096B096808DC08B2
:1000C000ED08ED085C0C5E0C840C910C980CA30CF4
:1000D000410D410D410D410D410DA60CA80CAD0C7B
:1000E000D30CF60CF90CFC0C200D2A155115FA1640
:1000F0005115FA169D15C015FA16B516C51600004D
:1001000000000000000000000000000000000000EF
:1001100000000000000000000000000000000000DF
:1001200000007E0F00D4FFFFFFC700000078000032
:100130000000000000002A2B280000000000000042
:1001400000000000000000000029000000002C1E3C
:100150003420212224342627252E362D3738271EF9
:100160001F202122232425263333362E37381F041F
:1001700005060708090A0B0C0D0E0F1011121314B7
:1001800015161718191A1B1C1D2F3130232D350475
:1001900005060708090A0B0C0D0E0F101112131497
:1001A00015161718191A1B1C1D2F3130354C050157
:1001B0000902A10185020901A10005091901290807
:1001C00015002501950875018102050109300931E5
:1001D0001581257F95027508810609381581257FCF
:1001E000950175088106050C0A38021581257F9551
:1001F0000175088106C0C005010980A101850319A8
:10020000012AB700150126B700950175108100C0BD
:10021000050C0901A101850419012AA00215012676
:10022000A002950175108100C005010906A1018594
:1002300006050719E029E7150025019508750181D4
:10024000020507190029EF1500250195F0750181B8
:100250000205081901290595057501910295017599
:10026000039101C00660FF0961A101096215002622
:10027000FF009520750881020963150026FF00958F
:100280002075089102C005010906A101050719E0C2
:1002900029E715002501950875018102950175086A
:1002A00081010507190029FF150026FF0095067535
:1002B0000881000508190129059505750191029528
:1002C0000175039101C009025B00030100A0FA0956
:1002D0000400000103010100092111010001224075
:1002E0000007058103080001090401000203000062
:1002F00000092111010001222200070582032000CC
:1003000001070503032000010904020001030000A6
:100310000009211101000122B60007058403200015
:10032000011201000200000008534F555301000163
:100330000200010E035300550049005400380030FC
:100340000000000C034F0077004C006100620000C9
:10035000000403090429003A003B003C003D003E34
:10036000003F004000410042004300440045006857
:1003700000460035001E001F00200021002200233F
:100380000024002500260027002D002E002A00470B
:10039000002B0014001A000800150017001C00189C
:1003A000000C00120013002F00300031004800390B
:1003B0000004001600070009000A000B000D000EE3
:1003C000000F0033003400280049004A00E1001DFE
:1003D000001B000600190005001100100036003750
:1003E000003800E5004B004C004D00E000E300E267
:1003F0000000002C0000000000E600E70001514E64
:10040000005200500051004F0001000100010001A6
:1004100000010001000100010001000100010001D4
:1004200000010001000100010001000100010001C4
:1004300000010001000100010001000100010001B4
:1004400000010001000100010001000100010001A4
:100450000001000100010001000100010001000194
:100460000001000100010001000100010001000184
:100470000001000100010001000100010001000174
:100480000001000100010001000100010001000164
:100490000001000100010001000100005C010001F9
:1004A0000001000100000001000000000001000147
:1004B0000001000100010001000100010001000134
:1004C0000001000100010001000100010001000124
:1004D0000001000100010001000100010001000114
:1004E0000001000100010001000100010001000104
:1004F00000010001000100010001000100010001F4
:1005000000010001000100010001000100010001E3
:1005100000010001000100010001000100010001D3
:1005200000010001000100010001000100010001C3
:1005300000010001000100010001000100010001B3
:1005400000010001000100010001000100010001A3
:100550000001000100010001000000010000000096
:100560000001000100010001000100010001000183
:100570000001000100010001000100010001000173
:100580000001000100010001000100010001000163
:100590000001000100010001000100010001000153
:1005A0000001000100010001000100010001000143
:1005B0000001000100010001000100010001000133
:1005C0000001000100010001000100010001000123
:1005D0000001000100010001000100010001000113
:1005E0000001000100010001000100010001000103
:1005F00000010001000100010001000100010001F3
:1006000000010001000100010001000100000001E3
:1006100000000000000100010001000100010001D4
:1006200000010001000011241FBECFEFDAE0DEBFA1
:10063000CDBF04B603FE18C080917F029091800266
:10064000A0918102B09182028730904BA740B04BBD
:1006500059F410927F02109280021092810210923F
:100660008202E0E0F8E3099511E0A0E0B1E0EEEEEF
:10067000FFE302C005900D92A236B107D9F722E040
:10068000A2E6B1E001C01D92AF37B207E1F70E94C8
:1006900096090C94F51F0C9400000E94481E2FEF41
:1006A00084E39CE0215080409040E1F700C00000CE
:1006B0009CE088E10FB6F894A895809360000FBE87
:1006C00090936000FFCFA7E1B0E0E9E6F3E00C947F
:1006D000AC1F4B8B5C8B6D8B7E8B8F8B6111109263
:1006E000040286E09E01235F3F4FD901E82F1D924F
:1006F000EA95E9F795E0FE017396D90101900D9214
:100700009A95E1F79C894E895F897B897D879E87D1
:100710006F87598B488BF901DE01179601900D9276
:100720008A95E1F7CE0107960E94F71181113EC02C
:1007300086E0FE013796DE01119601900D928A95B2
:10074000E1F7FF81E8856A857B856115710531F0E8
:10075000EF3F31F481E0FF3F19F403C081E001C0B5
:1007600080E080FD23C02091B10130E0C9010196F5
:10077000877099274091E20150E08417950779F13D
:10078000F983EA837D836C8396E0929FD001939FE7
:10079000B00D1124AE54BE4FFE01319601900D9262
:1007A0009A95E1F78093B1010E94771116E080914C
:1007B000E2019091B1018917F9F0189FC00111244D
:1007C0008E549E4F0E94F7118823B1F08091E20170
:1007D00090E00196877099278093E201E8CF0E940C
:1007E000481E1092B1011092E201EBEAF1E086E0BE
:1007F000DF011D928A95E9F76796E3E00C94C81F24
:10080000A9E0B0E0E6E0F4E00C949E1FFC018081DA
:10081000918123813481232B31F09F3F31F491E08A
:100820008F3F19F403C091E001C090E090FD7AC5BC
:100830007F0185E0DE01119601900D928A95E1F726
:10084000F701228189819A81222349F00E946D1D3E
:10085000182F682F89819A810E94D01D03C00E94A1
:100860009C1D182F69817A81812F0E94B81B8C01F1
:10087000F7018281882309F4F5C0980122513F4590
:100880002031310508F00AC18FEF93E00E943A1F32
:100890008111F2C0025137EF832E32E0932E0023F4
:1008A00079F08114F4E09F0609F4E6C0C4010E94C7
:1008B0003A1F811101C001502FEF821A920AEFCF27
:1008C0001E821F8218861986442443942AE0322E01
:1008D00084010F5F1F4FC4010E943A1F8E831F8245
:1008E000882309F4C9C09FEF980F933060F48F8379
:1008F0004E8232E0830E911CC8010E943A1F888705
:10090000811102C0B9C048018E010A5F1F4FF80172
:1009100020812223E9F2213009F04CC0818181300D
:1009200049F46801F2E0CF0ED11CF80182810E94E7
:100930001B1F0AC0823051F46801F2E0CF0ED11CB7
:10094000F80182810E94A41E860189C0833049F487
:100950006801F2E0CF0ED11CF80182810E946F1E67
:10096000F3CF843019F00F5F1F4F79C0F801228157
:100970000E5F1F4F80E090E030E0205331092A30B5
:10098000310568F4389EA001399E500D1124C9012B
:10099000840F951F0F5F1F4FF8012081EDCF009747
:1009A00009F45DC0EFE9FFE03197F1F700C0000006
:1009B0000197F5CFE22FF0E0E25DFE4F5490822FD9
:1009C00086958695869590E0FC01E25EFE4F6490E8
:1009D0002770712C022E02C0759467940A94E2F776
:1009E000F1E06F227724FC01E25FFE4FA490B12C6E
:1009F000022E02C0B594A7940A94E2F731E0A32234
:100A0000BB24FC01E250FF4FC490D12C02C0D5940E
:100A1000C7942A95E2F781E0C822DD2461147104AD
:100A200019F081EE0E94A41EA114B10419F086EE03
:100A30000E94A41E852D0E941B1FA114B10419F051
:100A400086EE0E946F1E6114710419F081EE0E94FF
:100A50006F1EC114D10419F08CE20E941B1F0F5F9E
:100A60001F4F55CF00313FE5130709F052C481E015
:100A70000E940A1E0E943B148091E301877009F4D2
:100A800051C4F7018281882309F44CC48091570234
:100A900082FF48C482E00E94451144C40031FFE552
:100AA0001F0711F481E005C001312FE5120721F481
:100AB00082E00E94171EDECF033FFCE51F0799F47A
:100AC00006E221EE40EE63EF7CE509C0073DECE570
:100AD0001E0711F506E221EE41EE67ED7CE5C70148
:100AE0000E94B51AC9CF043F2CE5120708F058C17F
:100AF000083D3CE5130731F407E225EE45EE68EDCD
:100B00007CE5EDCF093D9CE5190701F708E221E0FE
:100B100045EE69ED7CE5E3CF882309F476C11092B8
:100B20004A0203309DE5190758F40A3FECE51E0719
:100B300080F4C80182509C45449708F050C109C018
:100B40000136FDE51F0729F0053A2DE5120709F0EA
:100B500046C10E946710909357028093560201315C
:100B60003CE5130709F4C9C008F043C009309CE50F
:100B7000190709F49EC008F50530FCE51F0709F4C4
:100B800088C080F403303CE5130709F47BC008F00B
:100B90007DC002309CE5190709F0F9C0809156022A
:100BA0008160F3C00730ECE51E0709F47AC008F055
:100BB0007CC0809156028061E8C00D302CE51207A0
:100BC00009F489C058F40B308CE5180709F47BC090
:100BD00008F07DC080915602886071C00F30ECE54E
:100BE0001E0709F482C008F084C080915602877FF6
:100BF000CCC00D3F2CE5120709F473C008F5053190
:100C00008CE5180709F487C068F40331ECE51E078A
:100C100009F477C008F097C00E94481E80915602E0
:100C20008F77B3C00B3F2CE51207B9F108F056C01F
:100C30000A3F8CE5180709F0AAC08091570241C00D
:100C400001309DE5190709F48AC058F40F3FFCE50F
:100C50001F0709F45BC008F06AC0809157028260E8
:100C600030C001363DE5130709F47FC0053A8DE534
:100C7000180709F484C002309DE5190709F087C000
:100C800060E06EC08091560282607FC08091560203
:100C900016C080915602886078C0809157028260A9
:100CA0004FC080915602806270C08091560280646D
:100CB0006CC00E94481E80915602806866C08460A5
:100CC00064C081603DC0809156028E7F5EC080917D
:100CD00056028D7F5AC08091560216C080915702ED
:100CE00018C0809157028D7F2BC0809156028F7E55
:100CF0004CC0809156028F7D48C0809156028F7BF8
:100D000044C080915602877F8B7F3FC080915702FD
:100D10008D7F8E7F15C08091560282FB222720F99D
:100D200091E0922790FB82F990FB83F92EC080918D
:100D30005702982F909591708E7F892B90FB81F9A7
:100D40008093570224C00E94481E8091560287FB60
:100D5000222720F991E0922790FB87F916C061E0E5
:100D60008EE090E00E94481F12C08091560284FBE2
:100D7000222720F991E0922790FB84F906C0809108
:100D80005602982F909590FB80F98093560280919F
:100D90005602909157020E9459100E94481E6CCE34
:100DA000053FFCE51F0731F406E221EE42EE65EF58
:100DB0007CE595CE053F2CE5120730F407E225EEE1
:100DC00044EE64EF7CE58BCE063F3CE5130709F06B
:100DD000A3CE07E225EE46EE66EF7CE580CE063137
:100DE0008CE5180721F5809105028A7A91E009F4D3
:100DF00090E090936401882311F065E301C069E2FB
:100E00008BE891E00E94471A0FC00631ECE51E07FF
:100E100009F042C080916401882309F481C265E32E
:100E20008BE891E00E941F1A0E94F01025CE0A352F
:100E3000EDE51E0761F150F401152CE5120779F07C
:100E40000E3D1C4549F50E94781017C00C358DE504
:100E50001807A9F0F0F0073A1D4579F01DC00E946F
:100E6000481EFFEF24E33CE0F15020403040E1F722
:100E700000C000000E949119FFCD0E944D03809197
:100E8000570282FB882780F991E0892703C081E01F
:100E900001C080E00E946211F7018281008111810E
:100EA000882349F0C8010E946D1DD82E682FC80103
:100EB0000E94D01D04C0C8010E949C1DD82EB801FC
:100EC0008D2D0E94B81B0E94BF0EB82E192F982E90
:100ED000F7010281A580A2949FE0A9228091E301FD
:100EE0008770B9F00023A9F0812F807F803421F032
:100EF00080E28B0D883068F08091570282FF09C034
:100F000082E00E9445118091E3018770DD24D39433
:100F10008111D12CC12EC2948FE0C8228C2D90E07B
:100F20008C30910508F0D7C1FC01EA5AFF4F0C94B0
:100F3000901F812F807F1F70882311F01295107FE2
:100F40000023B9F0112309F4B4C180E28B0D88307D
:100F500010F0911006C080910502182B1093050225
:100F600005C080910402182B109304020E94F01017
:100F7000A0C18B2D0E946F1E112309F4ACC180E229
:100F80008B0D883080F1992071F1109580910402C9
:100F90001823109304022AC0812F807F1F70803293
:100FA00011F01295107F8B2D992021F0F1E09F1602
:100FB000D9F149C08091570282FD1BC0002369F01E
:100FC000112339F080910502182B109305020E941D
:100FD000F01080E00E94A41E7EC180E00E946F1E7F
:100FE000112309F478C1812F0E94E9100E94F010AA
:100FF00072C1002381F080910602AA2051F021E005
:10100000A21207C0182B181709F465C11093060225
:1010100062C1812B10C0AA2021F031E0A31609F48F
:101020005AC10E94E31027C0002341F085E08A15D1
:1010300008F451C1812F0E94651E4DC194E09A159C
:1010400008F449C118C0002349F0AA2099F3F70118
:10105000858180FF2EC18F708583ECCFAA2059F047
:10106000893309F035C1FFEF27EE33E0F15020401E
:101070003040E1F72BC1812F0E945E1E2CC1812FD1
:1010800086958695837019F0813061F024C1002324
:1010900021F08B2D912F937002C080E090E00E9490
:1010A000921A1FC1002321F08B2D912F937002C043
:1010B00080E090E00E947C1A14C18B2D002319F06F
:1010C0000E94F61C02C00E943D1C0E94131C09C114
:1010D000812F8370A9F5011102C14B2D42954695D0
:1010E0004770440F440F8B2D8F7090E09C01042EAD
:1010F00001C0220F0A94EAF7B4FE08C08FE090E026
:1011000001C0880F4A95EAF7809501C080E01695E6
:1011100016951370123069F088F49091070211301F
:1011200019F0822B892302C0922B892B0E94231E47
:10113000D6C0822B909107028927F8CF822BF6CF59
:10114000002319F0812F817001C08695882309F44E
:10115000C6C04B2D429546954770440F440F8B2DCA
:101160008F7090E09C01042E01C0220F0A94EAF7D0
:10117000B4FE08C08FE090E001C0880F4A95EAF7FE
:10118000809501C080E0169516951370123059F0C5
:1011900078F490913A02113019F0822B892309C01A
:1011A000922B892B06C0822B90913A02892701C08D
:1011B000822B0E94051E93C01F70002339F0812FDF
:1011C0000E94171E8B2D0E94651E89C08B2D0E94C8
:1011D0005E1E812F0E940A1E82C08B2D92EF9916EF
:1011E00081F1991538F0E0EF9E1659F0F1EF9F1656
:1011F00019F15BC023EF921659F134EF9316C1F049
:1012000054C0002381F084E08A1508F464C01F7183
:1012100081E090E0012E01C0880F0A94EAF79091D6
:101220003A02892720C095E09A1508F454C0EFCF00
:101230008091570282FD1AC0002329F0812F8F71FF
:1012400027C00023D9F3812F8F710E940A1E43C04B
:10125000002341F01F7181E0012E01C0880F0A9424
:10126000EAF701C080E00E94051E35C0002399F016
:101270001F71812F0E94171E8091570282FF07C0A5
:10128000E8E01E9FC001112483608093E301812F59
:101290000E94171E20C081E00E944511F1E0FA155E
:1012A000D0F482E00E94451116C0002321F0AA204C
:1012B00029F28B2D8FCEAA2031F2893349F42FEFFA
:1012C00037EE83E0215030408040E1F700C000005D
:1012D0008B2D0E946F1E88EF8C0D843010F40E94BD
:1012E000A81ADD20F9F08091E30180FD1BC0F70111
:1012F00012828595859585950E94171EC7010E94CB
:1013000000048091E3018595859585950E940A1ECC
:1013100009C001319FE5190709F0CECB82E0A8CBC7
:1013200069E27ECD2996E1E10C94BA1FAAE2B0E011
:10133000ECE9F9E00C949E1F85B7806885BF85B7FE
:10134000806885BF84B7877F84BF0FB6F894A8955F
:1013500080916000886180936000109260000FBEF1
:1013600090E080E80FB6F89480936100909361005C
:101370000FBE84E99DE090936301809362010E9417
:1013800056170E9475178091E20084608093E200F6
:101390007894809130028823A1F01091E9001F70A9
:1013A0009091EC00892F817090FD80E8182B1092AD
:1013B000E9008091E80083FD0E9447141F7010939C
:1013C000E90082E084BD93E095BD9AEF97BD8093DC
:1013D0006E000E94FA1B811102C00E94EA1B0DE000
:1013E00011E083E1E82E81E0F82ED8018D918D0186
:1013F0008F3F11F00E94D90DE016F106B1F703E11D
:1014000011E0B2E2EB2EB1E0FB2EF80181918F01E9
:101410008F3F11F00E94D90DE016F106B1F78CE074
:10142000EFE7F1E0DF01282F1D922A95E9F7E5E6C5
:10143000F1E0DF011D928A95E9F780E090E00E94DB
:10144000421F883E9E4F21F40E94FA1B811102C068
:101450000E94781082E090E00E943A1F8093710110
:101460000E94671090935702809356020E94F00DDD
:10147000EFE3FCE93197F1F700C000000E94F00DA6
:1014800080917F0180FF08C06FEF7FEF80E090E0E8
:101490000E94661F0E94911983E090E00E943A1F0B
:1014A0000E94231E8091560280688093560280918C
:1014B0005602909157020E94591080E091E090935B
:1014C0004E0280934D02E8E14E2E512CF0E43F2E67
:1014D000ABE86A2EA1E07A2E8E010F5F1F4F4E01FE
:1014E000FDE08F0E911C80913002853009F043C0E1
:1014F00060E1E62E72E1F72E80913002853009F02E
:1015000036C080913002843009F1109251020FB63A
:10151000F894A895409260000FBE3092600083B7A7
:10152000817F846083BF83B7816083BF789488950F
:1015300083B78E7F83BF0FB6F894A8958091600023
:10154000886180936000109260000FBE80912F022E
:10155000882391F20E94F00DEFE7F1E081919191E3
:10156000892B09F0B8C26E167F06C1F7C5CF0E945D
:10157000481E0E94A81A0E94F00D882359F08FB7C8
:10158000F89440915202509153026091540270912C
:1015900055028FBF5FE7A52E51E0B52EA2E7B1E05F
:1015A000F501E12CF12C6E2D219131918D919D91C0
:1015B00082279327009779F170E0CC24C394D12C33
:1015C000AC014C215D21452B09F179A36AA32C21A3
:1015D0003D2181E0232B09F480E08BA30E94EA19CE
:1015E0008160782F9DA38CA349A15AA16BA18DA1E5
:1015F0000E946303F701EE0FFF1FEE58FE4F80813C
:101600009181C826D926D182C0821CC07F5FCC0CB4
:10161000DD1C7F30A9F62FEFE21AF20A36E0E3165E
:10162000F10409F68FEF8EA38FA318A60E94EA1982
:101630008160782F9AA789A74EA15FA168A58AA586
:101640000E94630386E0E2E4F2E0D80101900D928B
:101650008A95E1F7109244021092450210924602D8
:10166000109247028B81811104C08C81882309F478
:1016700053C080914002909141020E94DB199C016D
:1016800090913C02992309F445C22531310508F4B3
:1016900043C09F3F19F09F5F90933C02FB80FF2067
:1016A00061F00E94D61C1F1414F491E001C09FEF5A
:1016B000899F802D112480934402FC80FF2061F0DB
:1016C0000E94D61C1F1414F491E001C09FEF899F63
:1016D000802D112480934502309144023323E1F0A0
:1016E000209145022223C1F045EB3403C0011124AF
:1016F000992319F09093440203C081E0809344023F
:1017000035EB2303C0011124992319F0909345026E
:1017100003C081E0809345028D81811104C08E81D8
:10172000882309F453C080913E0290913F020E94A9
:10173000DB199C0190913B02992309F4F0C12135FA
:10174000310508F443C09F3F19F09F5F90933B021F
:10175000FD80FF2061F00E94B41C1F1414F491E07E
:1017600001C09FEF899F802D112480934602FE8047
:10177000FF2061F00E94B41C1F1414F491E001C01A
:101780009FEF899F802D112480934702309146025C
:101790003323E1F0209147022223C1F045EB3403CB
:1017A000C0011124992319F09093460203C081E0EF
:1017B0008093460235EB2303C0011124992319F0CD
:1017C0009093470203C081E08093470246E050E0D7
:1017D000B80182E492E00E94E81F892BA9F480916D
:1017E000440281110FC08091450281110BC080918C
:1017F0004602811107C081E090914702911103C018
:1018000080E001C081E080FD0E94131C86E0F801A9
:10181000A2E4B2E001900D928A95E1F70E94A81A25
:1018200090917E01891380937E01809130028430F3
:1018300009F059CE83E08093E9008091E80082FFAF
:1018400052CE8091E80085FF21C00E94A718811127
:101850001BC080E2E82EF12C680109C08091F100E4
:10186000D6018D936D01B1E0EB1AF10869F080911A
:10187000E80085FDF3CF8091E8008B778093E80046
:101880000E94A718882399F391E001C090E080910D
:10189000E8008B778093E800992309F424CEE9814E
:1018A0008E2F90E0FC013197E331F10508F0E9C09B
:1018B000EE59FF4F0C94901F1A824CC08A818230DF
:1018C00009F41FC1833089F0813009F0DAC02FB7E5
:1018D000F8948091520290915302A0915402B091D9
:1018E00055022FBFBB83AC8321C0F801D5018C9179
:1018F00011969C91B2E0AB0EB11C92838383329619
:101900008E169F0699F7BFC08A81823009F0B9C050
:101910006B817C818D819E810E94961F0E94C61BD7
:10192000B2C04C816B818A810E948A1B9D83F0C06A
:101930002D813E813227232732274C816B818A817A
:101940000E942E1BA0C00E94551B9DC080E152C06A
:1019500081E08A8389E08B8396C0EA80FB80FE2445
:10196000EF24FE24AC80B12C6801C70189509D4F43
:101970009601201B310B2A153B0508F084C0E9E0D5
:10198000EE16E1E0FE0630F40E943A1FD6011496EE
:101990008C9302C0F6011482FFEFEF1AFF0A2FEFBB
:1019A000C21AD20AE2CFEA80FB80FE24EF24FE2492
:1019B000AC80B12C6801C70189509D4F9601201B56
:1019C000310B2A153B0508F05EC039E0E31631E023
:1019D000F30628F4D60114966C910E94481FBFEFBD
:1019E000EB1AFB0AEFEFCE1ADE0AE5CF0E941E1BB0
:1019F0004AC084E08A8347C0EA80FB80FE24EF244B
:101A0000FE24AC80B12C6801C70187969601201B8B
:101A1000310B2A153B05B8F5F0EDEF16F2E0FF06A5
:101A200030F40E943A1FD60114968C9302C0F6013E
:101A30001482FFEFEF1AFF0A2FEFC21AD20AE4CF87
:101A4000EA80FB80FE24EF24FE24AC80B12C6801E8
:101A5000C70187969601201B310B2A153B0598F488
:101A600030EDE31632E0F30628F4D60114966C91BB
:101A70000E94481FBFEFEB1AFB0AEFEFCE1ADE0AF7
:101A8000E7CF8FEF898380913002843009F02BCD2E
:101A90008091E9008F702091EC00922F917020FDD1
:101AA00090E8F92EF82A82E08093E9008091E8001E
:101AB00080FF0CC040E050E060E270E0C8010E948E
:101AC000DA188091E8008E778093E8008F2D8F7070
:101AD0008093E90008CDE9BCF9BC09B400FEFDCF54
:101AE0008091D8008F7D8093D8008091E000826043
:101AF0008093E0008091E00081FDFCCF0E94481EB1
:101B0000FBCC86E290E00E943A1F1B821C821D8261
:101B10008E83B9CF2B30310508F0BDCDFDCD2B30F4
:101B2000310508F012CE52CE80E008959091560211
:101B300092FF0DC0282F2871283019F4877F846008
:101B400006C0282F2471243011F48B7F886093FF06
:101B50000DC0282F2871283119F4877E846106C0B2
:101B6000282F2471243111F48B7E88612091570233
:101B700020FF0DC0382F3871383019F4877F81600D
:101B800006C0382F3171313011F48E7F886021FF0B
:101B90000DC0282F2871283119F4877E816106C075
:101BA000282F2171213111F48E7E886194FD877E6A
:101BB0000895F894E82FE295EF70F0E031A1282F16
:101BC0002F7081E090E001C0880F2A95EAF7982FE6
:101BD0009095932391A392A1892B82A37894089541
:101BE000ACE0B0E0E6EFFDE00C94A11FAE014F5F6A
:101BF0005F4F7A018CE0FA0111928A95E9F70DE0C6
:101C000011E06A0193E1692E91E0792E8824839492
:101C1000912CF80180818F3F09F447C0F894E82F98
:101C2000E295EF70F0E021A18F70A40102C0440F93
:101C3000551F8A95E2F7CA01922F982B91A392A182
:101C40008095892382A3789400C0E3E1F1E021E04C
:101C500030E0A12CB12C41914F3F89F0A42FA295E7
:101C6000AF70B0E090968C9190E04F7002C0959567
:101C700087954A95E2F780FD02C0C90102C080E065
:101C800090E0A82AB92A220F331F51E0E232F5076B
:101C900011F7F80180818F3F11F00E94D90DF0EA11
:101CA000FA95F1F7F601B182A0820F5F1F4FF2E0C3
:101CB000CF0ED11C6016710609F0ABCF4CE050E09E
:101CC000B70185E691E00E94E81F11E0009709F452
:101CD00010E0892B89F08CE0F701A5E6B1E00190D6
:101CE0000D928A95E1F781E080930A020E94EA1939
:101CF000909309028093080280910A028823D1F10F
:101D000080910802909109020E94DB19059790F1D9
:101D100080916501909166019093800180937F018D
:101D20008091670190916801909382018093810175
:101D30008091690190916A0190938401809383015D
:101D400080916B0190916C01909386018093850145
:101D500080916D0190916E0190938801809387012D
:101D600080916F019091700190938A018093890115
:101D700010920A02812F2C96EEE00C94BD1FCF9397
:101D8000DF938238910569F1B0F48133910509F44C
:101D90006FC048F48932910509F465C08A32910513
:101DA00009F46BC08AC08533910509F457C08933A3
:101DB0009105B9F082C0833E910571F138F4803EFF
:101DC0009105B1F0823E910511F177C0863E9105F3
:101DD000B9F1873E9105C9F1843E910509F06DC0C6
:101DE00024C02091560220FD53C021FD51C065C082
:101DF0008091560280FD46C08091570280FF48C006
:101E00008091560284FD50C183EE90E04FC18091D5
:101E1000560282FF3AC0F4CF8091560282FD35C04F
:101E20008091570280FD34C0EBCF8091570281FF33
:101E300035C08091560284FD37C187EE90E036C1EF
:101E40008091560283FF27C0F4CF8091560283FD14
:101E500022C08091570281FD21C0EBCF80915602B4
:101E600085FD1FC021C08091560285FD1DC019C08F
:101E70008091560286FD1BC01DC08091560286FDD2
:101E800019C015C089E390E011C182EE90E00EC147
:101E900080EE90E00BC186EE90E008C184EE90E009
:101EA00005C189E290E002C185E390E0FFC08AE2CB
:101EB00090E0FCC081E390E0F9C0811531E5930723
:101EC00008F069C0811540E59407F0F09C0174E0CA
:101ED000369527957A95E1F7922F9370482F4370A6
:101EE00021E030E002C0220F331F4A95E2F73C6840
:101EF000392B982F9F709695969540E2949FC0013C
:101F00001124822B932BD2C0883E910568F5803E28
:101F1000910508F0CBC0883A9105B8F4853A91054F
:101F200048F0855AE82FF0E0EE5DFE4F808190E0AA
:101F30009064BCC08130910509F4B3C008F4B4C00A
:101F40008430910508F4B0C0B1C08F3B910508F012
:101F5000ABC0885AE82FF0E0EE0FFF1FEB5DFE4F9D
:101F6000808191819464A2C0811520E2920758F487
:101F7000811531E0930708F099C0803F910508F47E
:101F800093C0906593C0811540E4940708F48CC019
:101F90009F70906A8BC0811525E5920708F042C0BA
:101FA000811534E5930728F0982F8827846F906A6D
:101FB0007DC0811543E59407B0F09C012370332761
:101FC00041E050E002C0440F551F2A95E2F7282F48
:101FD0002695269580E2289F90011124CA01822B24
:101FE000932B9A6863C0811522E5920728F4982FF5
:101FF0008827816F906A5AC09C012370332741E083
:1020000050E002C0440F551F2A95E2F7282F26956D
:10201000269580E2289F90011124CA01822B932BE0
:102020009C6844C0EC01811539E59307A8F481153B
:10203000984528F09C2F8827806F906A37C0C1157B
:1020400086E5D80788F58C2F0E94960D8F7190E059
:10205000982F882790622AC081152AE5920790F46C
:102060008C2F8F700E94960D94E0D695C7959A9507
:10207000E1F7CF70D0E0DC2FCC27D0699E01282B70
:10208000C90114C090568115904270F48D2F8F7144
:102090000E94960D282F2F71CE0199279062922BC6
:1020A00005C081E090E002C080E090E0DF91CF9138
:1020B0000895CF93C92F682F84E090E00E94481FB5
:1020C0006C2F82E290E00E94481FCF910895CF9339
:1020D00084E090E00E943A1FC82F82E290E00E94C4
:1020E0003A1F2C2F30E0A901582BCA01CF91089537
:1020F00068EE7EEF80E090E00E94661F60E082E084
:1021000090E00E94481F60E083E090E00E94481F3A
:102110001092070260E084E090E00E94481F64E0B3
:1021200082E290E00E94481F60E085E090E00E941B
:10213000481F60E086E090E00E94481F6FEF87E054
:1021400090E00E94481F40E050E0BA0188E090E033
:102150000E945A1F60E08DE090E00E94481F40E01E
:1021600050E0BA0188E190E00E945A1F60E087E1E8
:1021700090E00E94481F40E050E0BA018CE190E0FE
:102180000E945A1F60E070E080E290E00E94661FAB
:1021900040E050E0BA0188E190E00E945A1F80E0E0
:1021A0000E94CB1B0E94EA1B40E050E0BA018FE086
:1021B00090E00E945A1F40E050E0BA0183E190E0B5
:1021C0000E945A1F08958091060281111092060202
:1021D00008958095909105028923809305020895C2
:1021E0009091050280910402982B90938B0180912D
:1021F00006028823D9F0892B80938B0180910C01F2
:10220000882331F08091560287FF02C08EE101C021
:1022100086E0EDE8F1E090E0815028F02191222362
:10222000D9F39F5FF9CF91110E94E31040E250E093
:1022300064EE71E08BE891E00E94E81F892B21F1A8
:1022400080E2EBE8F1E0A4EEB1E001900D928A9516
:10225000E1F7E0914D02F0914E023097A9F08091A4
:102260000C01882359F08091560287FF07C08091A6
:102270008B0180938C0186E080938B010280F38137
:10228000E02D8BE891E0099508952091E301809578
:1022900082238093E301982F977099F430E0482FC0
:1022A000082E000C550B2417350759F09091570252
:1022B00092FF07C08595859585950E940A1E10920C
:1022C000E30108959091570292FB222720F92817E5
:1022D00069F080FB92F99093570280915602909199
:1022E00057020E94591082E00E9445110895809182
:1022F000E2019091B101891719F08F5F8770FBCFD0
:1023000008950F931F93CF93DF938091B00182952F
:102310008F7009F05AC08091AD01882309F455C02F
:102320008091E2011091B1016091AB017091AC011B
:10233000C091AE01D091AF0191E06F3F09F090E004
:10234000292F06E0811709F440C0209721F07F3F34
:1023500021F030E003C031E001C0322F90E030FDC9
:1023600031C0089FF001099FF00D1124DF01AE5428
:10237000BE4F11963C911197371324C03C913613F0
:1023800021C012963C91129731111CC013964D91A9
:102390005C9114974C1B5D0B483C510598F480915F
:1023A000B0018F7080618093B001E954FE4F80814D
:1023B0008F70806180838BEA91E00E9400040E940C
:1023C000771103C001968770BDCFDF91CF911F9128
:1023D0000F910895CF93DF93EC010E946D1DBE0114
:1023E0000E94B81B0E94BF0EDF91CF910895A1E11A
:1023F000B0E0EDEFF1E10C94A41F8C0185E0F80151
:10240000DE011D9601900D928A95E1F7F801E280B8
:102410009091AB016091AC014091AE015091AF0140
:102420004115510531F06F3F31F481E09F3F19F4C0
:1024300003C081E001C080E0F82FF1709F2E80FD85
:102440001BC1F80130812181C380D4808BEAA82E82
:1024500081E0B82EF090AD01F601E41BF50BFF20F2
:1024600009F4C7C08091B001E83CF10508F092C0C2
:10247000482F407F09F051C0621311C093130FC061
:10248000FE2CE1100CC08F7080618093B001C501FB
:102490000E9400048091B001F80185832AC1C11413
:1024A000D10431F02F3F31F481E03F3F19F403C0F4
:1024B00081E001C080E080FD03C081E08E2502C084
:1024C00080E090E0F82FF170FF2E80FF1CC080911B
:1024D000E2014091B10156E0841709F4E8C090E0B0
:1024E000589FF001599FF00D1124EE54FE4F618169
:1024F000261306C06081631303C06281E61203C025
:1025000001968770E9CFFE2CEE2009F4F2C080918D
:10251000B00181608093B00149C0621306C093137B
:1025200004C0E11002C0F80186C0C8010E94281E44
:10253000882351F1EE2041F12091B001822F829544
:102540008F7090E0029774F08091AB019091AC0194
:1025500098878F831986DB86CA862C87CE010796DB
:102560000E94000486E0F801ABEAB1E001900D9210
:102570008A95E1F70E9481110AC06217C9F0C8016B
:102580000E94281E81111EC0C8010E940004FF2461
:10259000F394AFC0482F407F81F78BEA91E00E940F
:1025A000000486E0F50111928A95E9F7F12CA1C0AB
:1025B0009313E5CFE110E3CFF8018583C8010E94B2
:1025C000000454C0EE2001F32091B001822F8295C7
:1025D0008F7090E0029734F28091AB019091AC0142
:1025E0009A8389831B82DD82CC822E83CE01019661
:1025F000B7CFE83CF105D0F5FE2CEE2029F26213AE
:1026000027C0931325C02091B00120FD18C0822F50
:1026100082958F70482F50E04115510581F0F801E7
:1026200025834F30510541F08F5F982F9295907F11
:10263000822F8F70892B8583C8010E94000486E059
:10264000F801ABEAB1E001900D928A95E1F751C033
:10265000C8010E94281E811185CF8091B001816040
:102660008093B001C8010E94000443C086E0F501D8
:1026700011928A95E9F73DC0EE2009F485CFC80193
:102680000E94281EF82E882309F47ECF86E0F801E8
:10269000ABEAB1E001900D928A95E1F78091AB0130
:1026A0009091AC010E94EA110E94811122C03D87E5
:1026B0002E878D859E850E94EA11292F22952F70E5
:1026C000223028F49F7039F0811105C00BC02430EE
:1026D00028F49F7049F4805E883020F0C8010E9481
:1026E00000049F2CF92C05C0F8019581907F99F783
:1026F000F9CF8F2D6196EBE00C94C01F80913202D0
:1027000087FF11C08091E80082FD05C080913002F2
:102710008111F8CF11C08091E8008B770BC08091B8
:102720003002882349F08091E80080FFF8CF809143
:10273000E8008E778093E8000895982F973068F529
:102740009093E900981739F07091EC002091ED001A
:102750005091F00003C0242F762F50E021FD02C0DD
:102760009F5FECCF3091EB003E7F3093EB003091D8
:10277000ED003D7F3093ED003091EB003160309300
:10278000EB007093EC002093ED005093F00020914B
:10279000EE0027FDE5CF80E008958F708093E9007B
:1027A00081E00895209138023091390226173707C9
:1027B00048F06115710539F42091E8002E772093D7
:1027C000E80001C0B901FC0120E06115710579F153
:1027D000809130028823F1F18530F1F18091E80099
:1027E00083FD3CC08091E80082FD2EC08091E8000E
:1027F00080FFEBCF2091F3008091F20090E0922BCC
:102800006115710551F08830910538F421912093BC
:10281000F100615071090196F3CF21E0089709F0AA
:1028200020E08091E8008E778093E800CECF2111E0
:10283000CFCF0AC080913002882361F0853061F0EB
:102840008091E80083FD0AC08091E80082FFF2CF0A
:1028500080E0089582E0089583E0089581E008957E
:102860000895BC0184E00E9467190895BC0183E0CB
:102870000E946719089580913A02982F96709630B9
:1028800011F4886001C0877F0E94051E0895AAE2A6
:10289000B0E0EDE4F4E10C94AC1FE2E3F2E08AE393
:1028A00092E02091F10021938E179F07D1F780913C
:1028B0003302833009F463C030F4813071F0823028
:1028C00009F49DC0B4C08A3009F489C08B3009F482
:1028D0006EC0893009F0ABC020C080913202813ACD
:1028E00009F0A5C08091E800877F8093E80080917F
:1028F000360290913702892B21F460E28EE092E05B
:1029000003C060E080E090E070E00E94D21380910C
:10291000E8008B778093E8008AC080913202813290
:1029200009F085C08091360290913702009719F026
:10293000029709F07CC08091E800877F8093E800CF
:102940008091E80082FD05C0809130028111F8CFAE
:102950006EC02091F3008091F20090E0922B0297DC
:1029600031F48091F100813011F0863021F48091B2
:10297000F10080930D028091E8008B7754C0809124
:102980003202813A09F053C08091360290913702A9
:10299000892B09F04CC08091E800877F8093E80084
:1029A0008091E80080FFFCCF80910C0137C08091BE
:1029B00032028132E1F58091360290913702892B03
:1029C000B1F58091E800877F8093E8000E947E1334
:1029D0008091340280930C010E94481E28C080918F
:1029E0003202813221F58091E800877F8093E800F0
:1029F0000E947E138091350280930C0218C0809152
:102A00003202813AA1F48091E800877F8093E80048
:102A10008091E80080FFFCCF80910C028093F10050
:102A20008091E8008E778093E8000E947E13809169
:102A3000E80083FFDFC18091320290913302492F79
:102A400050E04A30510508F0D5C1FA01EB58FF4F6C
:102A50000C94901F803821F0823809F0CBC108C057
:102A600080912E0290912F02992389F082600FC0ED
:102A7000809136028F70873008F0BCC18093E900E6
:102A80008091EB0085FB882780F91092E9009091F6
:102A9000E800977F9093E8008093F1001092F10096
:102AA00070C1282F2D7F09F0A5C1882319F082302D
:102AB00061F0A0C180913402813009F09BC1933054
:102AC00009F080E080932F022EC0809134028111A2
:102AD0002AC0809136028F702FEF280F263008F021
:102AE00089C18093E9002091EB0020FF1CC0933046
:102AF00021F48091EB00806214C09091EB00906112
:102B00009093EB0021E030E0A90102C0440F551F73
:102B10008A95E2F74093EA001092EA008091EB0078
:102B200088608093EB001092E9008091E800877F35
:102B30008093E8000E947E135DC181115BC11091FA
:102B400034021F778091E3008078812B8093E3002B
:102B50008091E800877F8093E8000E947E13809137
:102B6000E80080FFFCCF8091E30080688093E30061
:102B7000111102C082E001C083E0809330023AC1AB
:102B80008058823008F036C12091340230913502ED
:102B90002C3D53E0350779F583E08A838AE2898307
:102BA0004FB7F894DE01139620E03EE051E2E32FA8
:102BB000F0E050935700E49120FF03C0E295EF70DE
:102BC0003F5FEF708E2F90E0EA3010F0C79601C0A3
:102BD000C0968D939D932F5F243149F74FBF80910D
:102BE000E800877F8093E8006AE270E0CE010196FA
:102BF0000E94D213B4C08091360290913702432FC5
:102C0000552743305105A9F068F44130510509F4C6
:102C100000C14230510509F0EDC08BE590E0E6ECD3
:102C2000F2E04BC04132510529F14232510589F1A0
:102C3000E1C0C901992781309105A1F058F00297B0
:102C400009F0D8C0E3E3F3E0E4918E2F90E0E3E3F2
:102C5000F3E030C0E1E5F3E0E4918E2F90E0E1E5B0
:102C6000F3E028C0E3E4F3E0E4918E2F90E0E3E4A6
:102C7000F3E020C08330910508F0BCC0880F991F95
:102C8000FC01E45AFE4F0190F081E02D89E090E0D4
:102C900014C08330910508F0ADC0FC01EE0FFF1F9A
:102CA000EA5AFE4F0190F081E02DDC01AD5ABE4F93
:102CB0008C9190E0009709F49DC02091E800277F57
:102CC0002093E80020913802309139022817390703
:102CD00008F4C90140E0009789F1209130022223D5
:102CE00009F43DC02530D9F12091E80023FD37C01B
:102CF0002091E80022FD2FC02091E80020FFEBCFBB
:102D00004091F3002091F20030E0342B009759F00D
:102D10002830310540F444914093F10031960197F9
:102D20002F5F3F4FF3CF41E02830310509F040E0FD
:102D30002091E8002E772093E800CDCF4111CDCF30
:102D40000AC080913002882351F0853041F0809193
:102D5000E80083FD04C08091E80082FFF2CF8091FB
:102D6000E8008B778093E80045C0803809F042C0C6
:102D70008091E800877F8093E80080913102809302
:102D8000F1008091E8008E77D3CE811133C080911D
:102D90003402909135029927029764F58091E800FA
:102DA000877F8093E80010913402109331020E94D3
:102DB0007E13111106C08091E30087FD02C081E0FF
:102DC00001C084E08093300242E061EC81E00E9427
:102DD0009D1342E261EC84E00E949D1342E261ECAB
:102DE00082E00E949D1342E260EC83E00E949D130A
:102DF000809130028091E80083FF10C08091E8004C
:102E0000877F8093E8008091EB0080628093EB00E5
:102E100005C082E190E0E1E2F3E04FCFAA96E3E063
:102E20000C94C81F1F920F920FB60F9211242F936C
:102E30003F934F935F936F937F938F939F93AF9342
:102E4000BF93CF93DF93EF93FF93C091E900CF70CF
:102E50008091EC00D82FD17080FDD0E81092E9006D
:102E60008091F000877F8093F00078940E9447144F
:102E70001092E9008091F00088608093F000CD2BE3
:102E8000CF70C093E900FF91EF91DF91CF91BF9197
:102E9000AF919F918F917F916F915F914F913F91F2
:102EA0002F910F900FBE0F901F901895E8EDF0E056
:102EB00080818E7F80831092E2001092DA0010925F
:102EC000E100A0EEB0E08C9181608C9380818F77DF
:102ED000808319BCA7EDB0E08C918E7F8C938081AC
:102EE0008F7E808310920B020895A0E0B0E0EBE7A4
:102EF000F7E10C94A71FC8EDD0E088818F7E88830E
:102F0000E7EDF0E080818160808384E082BF81E032
:102F100080930B0288818E7F888302EE10E0F80197
:102F200010821092DA0081EEC82ED12CF6011082A8
:102F300088818F77888388818068888388818F7D66
:102F4000888319BC109230021092310210922F0225
:102F500010922E0290EEE92EF12CF70180818B7FEA
:102F6000808388818160888342E060E080E00E9405
:102F70009D13F60180818E7F8083F80180818160BE
:102F80008083808188608083F70180818E7F808349
:102F9000888180618883CDB7DEB7E8E00C94C31FD9
:102FA0001F920F920FB60F9211242F933F934F93BE
:102FB0005F936F937F938F939F93AF93BF93EF93A1
:102FC000FF938091E10082FF09C08091E20082FFBF
:102FD00005C08091E1008B7F8093E1008091DA0051
:102FE00080FF2AC08091D80080FF26C08091DA003F
:102FF0008E7F8093DA008091D90080FF18C080E135
:1030000089BD82E189BD09B400FEFDCF81E08093D6
:10301000300280910B0281110FC00E9456170E944E
:1030200075178091E20084608093E20005C019BCAE
:103030001092300210920B028091E10080FF17C0C5
:103040008091E20080FF13C08091E2008E7F809328
:10305000E2008091E20080618093E2008091D800DC
:1030600080628093D80019BC85E080933002809103
:10307000E10084FF30C08091E20084FF2CC080E139
:1030800089BD82E189BD09B400FEFDCF8091D800E1
:103090008F7D8093D8008091E1008F7E8093E10046
:1030A0008091E2008F7E8093E2008091E200816057
:1030B0008093E20080913102882311F084E007C000
:1030C0008091E30087FD02C081E001C083E080932E
:1030D0003002809130028091E10083FF27C080910F
:1030E000E20083FF23C08091E100877F8093E100AD
:1030F00082E080933002109231028091E1008E7F55
:103100008093E1008091E2008E7F8093E2008091C5
:10311000E20080618093E20042E060E080E00E9493
:103120009D138091F00088608093F000FF91EF91F3
:10313000BF91AF919F918F917F916F915F914F91CF
:103140003F912F910F900FBE0F901F9018952091D7
:10315000E4003091E50095E64091EC00842F817009
:1031600040FF23C08091E80080FD1DC080913002A7
:10317000882399F0853099F08091EB0085FD11C08E
:103180004091E4005091E5002417350729F3915050
:1031900011F09A01E1CF84E0089582E0089583E080
:1031A000089581E0089580E008954091E80042FF8D
:1031B000DDCF0895EF92FF920F931F93CF93DF938C
:1031C0007C018B010E94A718811119C0E70101152C
:1031D0001105A1F08091E80085FD0AC08091E8000A
:1031E0008E778093E8000E94A718882381F307C098
:1031F00089918093F10001501109E9CF80E0CDB7AA
:10320000DEB7E6E00C94C51F80910D02089524E01E
:103210002093E9002FEF3091E800215035FD06C0E2
:1032200035ED3A95F1F700002111F5CF2091E80036
:1032300025FF0BC040E050E066E070E00E94DA1825
:103240008091E8008E778093E8000895CF93DF9314
:1032500020910C01222339F02091560227FF03C050
:1032600060E224E002C068E021E02093E9002FEF53
:103270003091E800215035FD06C035ED3A95F1F763
:1032800000002111F5CF2091E80025FF1DC0EC01C1
:1032900080910C01811105C040E050E068E070E0D1
:1032A00003C070E040E050E0CE010E94DA18809147
:1032B000E8008E778093E80080E2FE01AEE0B2E0A5
:1032C00001900D928A95E1F7DF91CF910895809357
:1032D000580270935A0260935902809130028430F0
:1032E000F9F48093E9008FEF9091E800815095FD0B
:1032F00006C095ED9A95F1F700008111F5CF809108
:10330000E80085FF0DC040E050E063E070E088E534
:1033100092E00E94DA188091E8008E778093E800AE
:10332000089581E08093E00080E28093D8001092BD
:10333000C9008FE19EE40197F1F700C0000087E02B
:1033400090EBDC0180937F0290938002A093810236
:10335000B09382029CE088E10FB6F894A895809320
:1033600060000FBE90936000FFCF78941F920F9281
:103370000FB60F9211248F939F93AF93BF938091B9
:10338000520290915302A0915402B09155020196BD
:10339000A11DB11D8093520290935302A093540239
:1033A000B0935502BF91AF919F918F910F900FBE37
:1033B0000F901F9018959C014FB7F894809152027E
:1033C00090915302A0915402B09155024FBF821BBD
:1033D000930B08952FB7F894809152029091530265
:1033E000A0915402B09155022FBF08951F920F92E1
:1033F0000FB60F9211248F939F93AF93BF93809139
:103400005102811113C08091520290915302A091F8
:103410005402B09155024196A11DB11D80935202F4
:1034200090935302A0935402B0935502BF91AF9171
:103430009F918F910F900FBE0F901F901895209124
:103440000C012223C9F02091560227FF15C0262F18
:103450002695269526952E31C8F4FC01E20FF11D24
:10346000677081E090E001C0880F6A95EAF7809567
:103470009281892382830895FC010696228162133A
:1034800001C012823196E817F907C1F7089520911B
:103490000C012223C1F02091560227FF14C0262FD1
:1034A0002695269526952E3130F5FC01E20FF11D6B
:1034B000677081E090E001C0880F6A95EAF7928119
:1034C000892B82830895FC0132962FEF30E04191E1
:1034D000641789F02F3F19F4411101C0232F3F5F7A
:1034E0003630A9F72F3F39F0FC01E20FF11D27FD1F
:1034F000FA9562830895089520914F023091500209
:103500002817390771F09093500280934F02E09191
:103510004D02F0914E02309721F00084F185E02DAC
:103520000995089520914B0230914C0228173907D4
:1035300071F090934C0280934B02E0914D02F09118
:103540004E02309721F00680F781E02D099508950D
:10355000E0914D02F0914E02309729F00190F081F8
:10356000E02D0995089580E008950F931F93CF9360
:10357000DF93C42FD22FFC0182818823B1F04093C6
:103580004A020E94EA19909349028093480280E21D
:103590008C0F883008F04DC0C77081E001C0880FE3
:1035A000CA95EAF70E94651E44C080914A024813FA
:1035B00030C080914802909149020E94DB19883CFA
:1035C000910538F510E21D0FCD17B9F080E28C0F90
:1035D000883040F4C77081E001C0880FCA95EAF7CF
:1035E0000E945E1E183010F581E09D2F977001C07B
:1035F000880F9A95EAF70E94651E802F0E941B1F74
:103600001830B8F4D77081E001C0880FDA95EAF776
:103610000AC080E28C0F883060F4C77081E001C07E
:10362000880FCA95EAF70E945E1E03C0802F0E9491
:103630001B1FDF91CF911F910F910895CF93DF93BF
:10364000C7EFD2E060E0CE010E94481F2196C1156D
:1036500084E0D807B9F7DF91CF9108951F93CF93F6
:10366000DF93962F8430E8F46630D8F44F30C8F4F6
:10367000632F122FC42FD0E0CC0FDD1F2EE1929FBD
:10368000C00DD11D112494EB899FC00DD11D1124B3
:10369000CE0187960E94481F612FCE0188960E9416
:1036A000481FDF91CF911F910895A0E0B0E0EBE5B6
:1036B000FBE10C94A51FA12CE12CF12CB12C00E016
:1036C00010E0C0E0D0E06701C00ED11EFE01EE0F99
:1036D000FF1FEC0DFD1DEB5AFC4F259134914C2F33
:1036E0006B2D8A2D0E942E1B2196CF30D10571F7AC
:1036F000025E1F4FB39486E0B812E3CF84EBE80E6E
:10370000F11CA39484E0A812D9CFCDB7DEB7EAE0CC
:103710000C94C11F0F931F93CF93DF93843008F550
:103720006630F8F44F30E8F4C42FD0E0CC0FDD1F42
:103730002EE1629FC00DD11D112434EB839FC00D7B
:10374000D11D1124CE0187960E943A1F90E0182FB8
:103750000027CE0188960E943A1F9801282BC901A4
:1037600002C080E090E0DF91CF911F910F9108950A
:10377000843048F4763038F46F3028F4462F672FC1
:103780000E948A1B089580E090E0089586E290E010
:103790000E94481F0895CF93C82F811102C06FEF78
:1037A00001C062E283E290E00E94481FC11102C0A2
:1037B0006FEF01C067E084E290E00E94481FC111F2
:1037C00002C06FEF01C064E185E290E00E94481FF3
:1037D000CF91089580E00E94CB1B60E070E0CB01A8
:1037E0000E94C61B0E94551B0E941E1B81E00E9466
:1037F000CB1B089583E290E00E943A1F823281F44D
:1038000084E290E00E943A1F873051F485E290E014
:103810000E943A1F91E0843109F090E0892F01C0A5
:1038200080E0817008950E94EA19209144022111DC
:1038300004C020914502222321F0909341028093FD
:10384000400220914602211104C020914702222308
:1038500021F090933F0280933E02E0914D02F0915F
:103860004E02309749F082E0809342020480F58155
:10387000E02D82E492E009950895803F39F490911B
:10388000450297FF35C01092450259C0813F29F487
:10389000909145021916BCF32BC090914402823FCF
:1038A00029F497FF25C01092440249C0833F19F4C0
:1038B0001916CCF31DC090914602893F29F41916C0
:1038C000BCF4109246023BC08A3F19F497FF10C027
:1038D000F8CF8B3F39F49091470297FF09C01092BF
:1038E00047022DC08C3F21F4909147021916BCF37A
:1038F0009CE0980F953080F421E030E0A90102C0EF
:10390000440F551F9A95E2F7CA01809590914302A2
:1039100089238093430213C08D3F21F480913D029F
:103920008E7F0BC08E3F21F480913D028D7F05C0BC
:103930008F3F29F480913D028B7F80933D028091DF
:103940004402811106C080914502811102C010928B
:103950003C0280914602811106C08091470281118C
:1039600002C010923B02089580913D0280FD16C076
:1039700081FD16C082FD18C080913B02882391F022
:10398000883290F428E0829FC001112468E270E040
:103990000E947C1F862F672B29F007C082E00895C4
:1039A00084E0089581E0089588E0089580913D02C3
:1039B00080FD14C081FD14C082FD16C080913C02C0
:1039C000882381F08E3180F420E5829FC00111248C
:1039D0006EE170E00E947C1F862F089584E10895B7
:1039E00088E2089588E0089580E50895803F21F4F5
:1039F0000E94D61C819504C0813F29F40E94D61CE8
:103A0000809345020895823F21F40E94D61C81953F
:103A100004C0833F29F40E94D61C80934402089579
:103A2000893F19F40E94B41C05C08A3F31F40E94FA
:103A3000B41C81958093460208958B3F21F40E9427
:103A4000B41C819504C08C3F29F40E94B41C80935F
:103A5000470208959CE0980F953078F421E030E01B
:103A6000A90102C0440F551F9A95E2F7CA0190912F
:103A70004302892B8093430208958D3F21F4809166
:103A80003D0281600BC08E3F21F480913D02826037
:103A900005C08F3F29F480913D02846080933D02F0
:103AA000089580E090E00E94921A80E090E00E94E9
:103AB0007C1A109204020E94F010E2E4F2E086E028
:103AC000DF011D928A95E9F710923C0210923B02A9
:103AD00010923D020E94131C0895CF92DF92FF9234
:103AE0000F931F93CF93DF936C0100913A02809163
:103AF0000702082BC7E0D0E010E0C8010C2E02C07E
:103B0000959587950A94E2F780FD04C02197A8F760
:103B1000F12C09C0FC2EB6018C2F0E94B81B0E940C
:103B2000BF0E019799F38F2DDF91CF911F910F91C8
:103B3000FF90DF90CF900895292F963078F58F3041
:103B400068F590E03FE0239F800D911D1124682FC0
:103B5000677023E0969587952A95E1F7FC01EE0FB3
:103B6000FF1FE80FF91FE55AFD4F40E050E080E0ED
:103B7000219130E0062E02C0369527950A94E2F78F
:103B800021703327042E01C0220F0A94EAF7822BFA
:103B90004F5F5F4F4330510559F7089580E0089516
:103BA000292F963088F58F3078F590E03FE0239FFD
:103BB000800D911D1124282F277051E001C0550F51
:103BC0002A95EAF723E0969587952A95E1F7FC0177
:103BD000EE0FFF1FE80FF91FE55AFD4F20E030E020
:103BE00070E04081CB01022E02C0969587950A9421
:103BF000E2F78170819584278523842781932F5F45
:103C00003F4F2330310569F7089580933A020E94AF
:103C1000511D089521E030E001C0220F8A95EAF796
:103C2000209580913A0282230E94051E089521E08A
:103C300030E001C0220F8A95EAF780913A02822B88
:103C40000E94051E0895809307020E94511D089549
:103C5000FC01808191810E94EA1192959F709630BB
:103C600079F010F4925001C09A50923068F4803F7D
:103C700069F018F4883E40F409C0843F29F406C076
:103C8000883E20F0813F11F080E0089581E00895A2
:103C90001092050280910C01882331F08091560228
:103CA00087FF02C08EE101C086E0EDE8F1E0DF01B0
:103CB0001D928A95E9F70E94511D0895882321F0ED
:103CC0000E94E9100E94F0100895882339F0909125
:103CD0000502892B809305020E94F0100895882325
:103CE00091F19CEF980F913A30F4682F8BE891E0B6
:103CF0000E941F1A0DC090E2980F983060F48770F0
:103D000091E001C0990F8A95EAF7892F0E94E91086
:103D10000E94F01008959BE5980F933028F480E0FE
:103D200090E00E94921A089598E5980F973128F430
:103D300080E090E00E947C1A0895803F20F00E946D
:103D40003D1C0E94131C0895CF93882309F471C071
:103D5000C82F8CEF8C0F813AC0F580910C0188231D
:103D6000E1F08091560287FF18C0EC2FE695E695AA
:103D7000E695F0E0E557FE4F8281282F30E04C2F8A
:103D8000477081E090E002C0880F991F4A95E2F7E2
:103D900082239323892B61F412C0EDE8F1E083E9DB
:103DA00091E02191C21721F08E179F07D1F707C02C
:103DB0006C2F8BE891E00E941F1A0E94F0106C2F6C
:103DC0008BE891E00E94471A10C080E28C0F883087
:103DD00078F4C77081E090E001C0880FCA95EAF7D7
:103DE00090910502892B809305020E94F01021C05A
:103DF000EBE5EC0FE33040F4F0E0EE5DFE4F808148
:103E000090E00E94921A15C0E8E5EC0FE73150F4FB
:103E1000F0E0EE0FFF1FEB5DFE4F808191810E946D
:103E20007C1A07C0C03F28F08C2F0E94F61C0E940D
:103E3000131CCF9108951F93CF93DF93182F8933CD
:103E400019F0C0E0D0E002C0C0E5D0E0812F0E94B0
:103E5000A41E209741F08FE99FE00197F1F700C081
:103E600000002197F6CF812F0E946F1EDF91CF9126
:103E70001F910895F999FECF92BD81BDF89A9927B7
:103E800080B50895A8E1B0E042E050E00C946E1FC8
:103E9000262FF999FECF92BD81BDF89A019700B403
:103EA000021639F01FBA20BD0FB6F894FA9AF99AA3
:103EB0000FBE08950396272F0E94491F0E94481F96
:103EC000252F0E94491F242F0C94491F0196272F4C
:103ED0000E94491F0C94481FDC01CB01FC01F99999
:103EE000FECF06C0F2BDE1BDF89A319600B40D9246
:103EF00041505040B8F7089597FB072E16F40094F0
:103F000007D077FD09D00E94D41F07FC05D03EF4EE
:103F1000909581959F4F0895709561957F4F089575
:103F2000EE0FFF1F0590F491E02D09946927962765
:103F3000692778278727782708952F923F924F92F5
:103F40005F926F927F928F929F92AF92BF92CF9229
:103F5000DF92EF92FF920F931F93CF93DF93CDB732
:103F6000DEB7CA1BDB0B0FB6F894DEBF0FBECDBFAA
:103F700009942A88398848885F846E847D848C847B
:103F80009B84AA84B984C884DF80EE80FD800C8184
:103F90001B81AA81B981CE0FD11D0FB6F894DEBF67
:103FA0000FBECDBFED010895AA1BBB1B51E107C099
:103FB000AA1FBB1FA617B70710F0A61BB70B881FB9
:103FC000991F5A95A9F780959095BC01CD01089548
:103FD000FB01DC0104C08D910190801921F4415056
:0E3FE0005040C8F7881B990B0895F894FFCF46
:103FEE0004192619071936143114301401C6303746
:103FFE00909192959496973435366667F4F7F6F568
:10400E00F1F0818283E200E900EA00B500B600B764
:10401E0000CD008301CC008A01920194012102237C
:10402E000224022502260227022A02B300B4006FE0
:10403E000070004022B686026402AE01D802F10280
:02404E0011035C
:00000001FF
