:100000000C94AC060C94E4060C94E4060C94E40600
:100010000C94E4060C94E4060C94E4060C94E406B8
:100020000C94E4060C94E4060C94832B0C94552C4D
:100030000C9400250C94E4060C94E4060C94E4065D
:100040000C94E4060C94E4060C94E4060C94E40688
:100050000C94E4060C9489250C94E4060C94E406B4
:100060000C94E4060C94E4060C94E4060C94E40668
:100070000C94E4060C94E4060C94E4060C94E40658
:100080000C94E4060C94E4060C94E4060C94E40648
:100090000C94E4060C94E4060C94E4060C94E40638
:1000A0000C94E4060C94E4060C94E406AB0BAB0B46
:1000B000D70BD70B3F0C5D0C440D440D680CD00CD6
:1000C000E10CE10C5B1C5E1C7E1C8F1C971CA21CAF
:1000D000E81CE81CE81CE81CE81CA51CA81CAD1CBE
:1000E000BA1CC71CCA1CCE1CDB1CBD2CE42CDC2D8E
:1000F000E42CDC2D302D532DDC2DAA2DB92D29001B
:1001000035001E001F0020002100220001522300A4
:1001100024002500260027002D002E002B001400AF
:100120001A000800150017002F00000030001C0006
:1001300018000C00120013002A00035104001600DE
:10014000070009000A004A0000004B000B000D00E8
:100150000E000F0033002800E1001D001B00060008
:10016000190005004D004C004E0011001000360033
:1001700037003800E5000251E000E300E2002A0009
:1001800000000000280000002C00E7005000510093
:1001900052004F00010001000100010001000100B8
:1001A00001000052010001006700540055000100E9
:1001B0000100010001000100F00001000100010048
:1001C0000000010001005F006000610056000100B6
:1001D0000100F500F200F100F30001000100000051
:1001E000010001005C005D005E005700010001009D
:1001F0000100FD00FE00FF00010001000100010000
:10020000010059005A005B00580001000100010084
:100210000100010001000000000062000000010078
:1002200001006300580001000100005C01003A0079
:100230003B003C003D003E0001003F00400041000B
:10024000420043004400450035001E001F0020000E
:1002500021002200010000000100230024002500ED
:10026000260027004C0001001E021F02200221026E
:100270002202AA000000A90023022402250226026D
:100280002702010001002E022D002E002F02300255
:10029000AC00AE00AB002F00300033003302310061
:1002A0000100010001000100010001000000000048
:1002B000010000004C0001000100010001000100EC
:1002C0000100010001000100010001000100010026
:1002D0000100010001000100010001000100010016
:1002E0000100010001000100010001000000010007
:1002F00001000100520001000100010001000100A5
:10030000E000E200E10001000100000001002A001D
:10031000500051004F004C0001000100010001009D
:1003200001000100010001000100010001004A007C
:1003300001004D0001000100010001000100010069
:1003400001000000000001000000010001000100A8
:1003500001000100010044454255473A2064697399
:1003600061626C65642E0A0044454255473A206537
:100370006E61626C65642E0A0000000000000000DF
:10038000002A2B28000000000000000000000000F0
:100390000000000029000000002C1E34202122242F
:1003A000342627252E362D3738271E1F20212223BD
:1003B0002425263333362E37381F0405060708094F
:1003C0000A0B0C0D0E0F1011121314151617181915
:1003D0001A1B1C1D2F3130232D3504050607080973
:1003E0000A0B0C0D0E0F10111213141516171819F5
:1003F0001A1B1C1D2F3130354C000000000000007E
:1004000000000000000000000000000000000000EC
:10041000000000000000000000000000007E0F004F
:10042000D4FFFFFFC7000000780A002530325800D3
:100430006C65645F7461736B3A20004F6E6573681E
:100440006F743A206163746976653A2025640A0006
:100450000A002530313662003A200025303258003B
:100460000A722F6320303132333435363738394110
:1004700042434445460A00290A002575002F0025FD
:1004800075005D28002564002000256400200025FB
:10049000640020002564007C0025303258006D6F18
:1004A0007573656B6579205B62746E7C782079204A
:1004B0007620685D287265702F61636C293A205B35
:1004C00000313A0964656C6179282A31306D7329ED
:1004D0003A2025750A323A09696E74657276616C44
:1004E000286D73293A2025750A333A096D61785FC2
:1004F00073706565643A2025750A343A0974696D2C
:10050000655F746F5F6D61783A2025750A353A0929
:10051000776865656C5F6D61785F73706565643A77
:100520002025750A363A09776865656C5F74696DD0
:10053000655F746F5F6D61783A2025750A00703AC7
:10054000097072696E742076616C7565730A643A1D
:10055000097365742064656661756C74730A7570DF
:100560003A092B310A646E3A092D310A6C743A0942
:100570002B31300A72743A092D31300A4553432F1A
:10058000713A09717569740A0A7370656564203D72
:100590002064656C7461202A206D61785F737065DA
:1005A0006564202A2028726570656174202F20748C
:1005B000696D655F746F5F6D6178290A7768657230
:1005C000652064656C74613A20637572736F723D67
:1005D00025642C20776865656C3D25640A53656544
:1005E00020687474703A2F2F656E2E77696B69706E
:1005F000656469612E6F72672F77696B692F4D6F24
:100600007573655F6B6579730A004D3E20004D255B
:10061000753A25733E20003F0A003D2025750A00EB
:100620003F0A0064656661756C74730A0025750A7B
:10063000003F0A000A092D2056616C756573202D54
:100640000A00710A000A092D204D6F7573656B65EC
:1006500079202D0A003F00433E20004C25640A000B
:100660000A092D20537461747573202D0A686F7305
:10067000745F6B6579626F6172645F6C6564732827
:10068000293A20253032580A6B6579626F617264AD
:100690005F70726F746F636F6C3A20253032580A46
:1006A0006B6579626F6172645F69646C653A20257D
:1006B0003032580A74696D65725F726561643332F5
:1006C00028293A202530386C580A000A092D20566E
:1006D000657273696F6E202D0A5649443A2030784E
:1006E0003732373228526F6D696E526F6E696E20E5
:1006F00043616E64794B65797329205049443A20EF
:10070000307846303342284B6174616E6136302058
:100710007265763229205645523A20307830303092
:10072000310A4255494C443A2020284A756C203100
:10073000342032303232290A4F5054494F4E533A06
:10074000204C554641204D4F5553454B455920456A
:10075000585452414B455920434F4E534F4C45201E
:10076000434F4D4D414E4420343039360A474343C0
:100770003A20352E342E30204156522D4C494243DA
:100780003A20322E302E30204156525F415243489B
:100790003A20617672350A000A092D20436F6E7384
:1007A0006F6C65202D0A4553432F713A09717569A5
:1007B000740A6D3A096D6F7573656B65790A000A85
:1007C000092D204D61676963202D0A443A0944656B
:1007D000627567204D65737361676520546F676745
:1007E0006C650A583A094D617472697820446562F3
:1007F0007567204D6F646520546F67676C65202DA9
:100800002053686F77206B657970726573736573B9
:1008100020696E206D617472697820677269640A5C
:100820004B3A094B6579626F617264204465627569
:100830006720546F67676C65202D2053686F7720A1
:100840006B65797072657373207265706F72740A6C
:100850004D3A094465627567204D6F757365205484
:100860006F67676C650A563A0956657273696F6EF1
:100870000A533A095374617475730A433A09416320
:1008800074697661746520436F6E736F6C65204D7B
:100890006F64650A46312D4631303A0953776974E1
:1008A000636820746F204C6179657220302D392087
:1008B00028463130203D204C30290A302D393A0964
:1008C00053776974636820746F204C617965722076
:1008D000302D390A47524156453A095377697463B6
:1008E0006820746F204C6179657220302028616C1B
:1008F0007465726E617465290A423A094A756D70B1
:1009000020746F20426F6F746C6F616465720A456A
:1009100053433A094A756D7020746F20426F6F74AB
:100920006C6F616465722028616C7465726E6174AD
:1009300065290A453A095072696E7420454550523E
:100940004F4D2053657474696E67730A425350416A
:1009500043453A09436C65617220454550524F4DFD
:100960000A006B65796D61705F636F6E6669672EF3
:100970007261773A20253032580A2E737761705FA2
:10098000636F6E74726F6C5F636170736C6F636BB7
:100990003A2025750A2E636170736C6F636B5F7408
:1009A0006F5F636F6E74726F6C3A2025750A2E73D9
:1009B0007761705F6C63746C5F6C6775693A202552
:1009C000750A2E737761705F7263746C5F726775FE
:1009D000693A2025750A2E737761705F6C616C74BB
:1009E0005F6C6775693A2025750A2E737761705FB1
:1009F00072616C745F726775693A2025750A2E6E94
:100A00006F5F6775693A2025750A2E737761705F8D
:100A100067726176655F6573633A2025750A2E7388
:100A20007761705F6261636B736C6173685F626151
:100A3000636B73706163653A2025750A2E6E6B7265
:100A40006F3A2025750A0064656275675F636F6E93
:100A50006669672E7261773A20253032580A2E6512
:100A60006E61626C653A2025750A2E6D617472693B
:100A7000783A2025750A2E6B6579626F6172643A47
:100A80002025750A2E6D6F7573653A2025750A004D
:100A90006565636F6E6669673A0A64656661756C61
:100AA000745F6C617965723A2025750A003F000A0F
:100AB0006D6F7573653A206F66660A000A6D6F7513
:100AC00073653A206F6E0A000A6B6579626F617216
:100AD000643A206F66660A000A6B6579626F61721C
:100AE000643A206F6E0A000A6D61747269783A2068
:100AF0006F66660A000A6D61747269783A206F6EDB
:100B00000A000A64656275673A206F66660A000A21
:100B100064656275673A206F6E0A000A0A4A756D4D
:100B200070696E6720746F20626F6F746C6F6164A0
:100B300065722E2E2E2000433E2000436C656172AC
:100B4000696E6720454550524F4D0A000A00253016
:100B5000325820006B6579626F6172645F726570F4
:100B60006F72743A20005B735D005B575D005B53EE
:100B70005D005B525D005B445D005B435D001C03F8
:100B80004B006100740061006E00610036003000AF
:100B90002000720065007600320000002A03520037
:100BA0006F006D0069006E0052006F006E006900FA
:100BB0006E002000430061006E00640079004B006D
:100BC00065007900730000000403090409027B003A
:100BD000040100A0FA090400000103010100092139
:100BE00011010001224000070581030800010904EA
:100BF000010002030000000921110100012222006E
:100C000007058203200001070503032000010904F2
:100C100002000103000000092111010001227B00F4
:100C200007058403200001090403000203000000FB
:100C3000092111010001222200070585032000017E
:100C400007050503200001120100020000000872E0
:100C5000723BF00100010200010631FF0974A1019D
:100C60000975150026FF0095207508810209761583
:100C70000026FF00952075089102C00660FF0961FB
:100C8000A1010962150026FF00952075088102095F
:100C900063150026FF00952075089102C005010923
:100CA00002A10185020901A1000509190129081500
:100CB00000250195087501810205010930093115EA
:100CC00081257F95027508810609381581257F9554
:100CD0000175088106050C0A38021581257F9501EA
:100CE00075088106C0C005010980A10185031901AD
:100CF0002AB700150126B700950175108100C005BF
:100D00000C0901A101850419012AA002150126A0E0
:100D100002950175108100C005010906A1010507B2
:100D200019E029E715002501950875018102950153
:100D3000750881010507190029FF150026FF009598
:100D400006750881000508190129059505750191A9
:100D500002950175039101C011241FBECFEFDAE0A7
:100D6000DEBFCDBF04B603FE18C08091DA029091B9
:100D7000DB02A091DC02B091DD028730904BA740EE
:100D8000B04B59F41092DA021092DB021092DC029E
:100D90001092DD02E0E0F8E3099511E0A0E0B1E097
:100DA000E4EAFDE502C005900D92AE3FB107D9F728
:100DB00022E0AEEFB1E001C01D92AA3DB207E1F71B
:100DC0000E9485180C94D02E0C940000FF93EF9392
:100DD000E091FE01F091FF01309709F00995EF9144
:100DE000FF910895FC018591803011F0EFDFFBCF7A
:100DF0000895FF27E0E230E247FF0CC0419597FFDE
:100E000009C0EDE26095709580959095611D711D0A
:100E1000811D911D27FF02C0219530E350E2AA27D2
:100E2000660F771F881F991FAA1FA41710F0A41B15
:100E300063955A95A9F7AA3008F0A95FA05DAF9312
:100E4000F395611571058105910541F7ED3211F4B6
:100E5000EF93F395F21718F43F93F395FBCF8F912F
:100E6000B5DFFA95E1F70895E991F9918591803020
:100E700021F0853219F0AADFF9CF089520E0E89437
:100E800055915532C1F3503311F4689455915A334A
:100E900048F4505390F3220F022E220F220F200D00
:100EA000250FF4CF0EF4219589919991533619F3BA
:100EB000533729F1533559F1BC0188279927E89414
:100EC0005C3621F48991999168945591543639F49E
:100ED00046EF7EF077FF0DC08FEF9FEF0AC05537CA
:100EE0004AE039F0583540E121F0523642E009F04D
:100EF0000895FF93EF937DDFEF91FF91B7CFFF93BD
:100F0000EF93FC0181918030B9F360DFFBCFFF9359
:100F1000EF9368DFF1CFDF93CF93CDB7DEB72596A0
:100F2000A3DFCF91DF91089581E0089581E00895D6
:100F30000E949607089508950E949B070895A5E0D2
:100F4000B0E0E5EAF7E00C94452E49835A833091EE
:100F5000010289819A81311114C0662359F022233C
:100F600049F00E94EF0E182F682F89819A810E9404
:100F7000CB0E03C00E94DD0E182F69817A81812F6C
:100F800004C00E94EF0E69817A810E942B2225966F
:100F9000E3E00C94612EFC01262F40815181628197
:100FA000738184810E949F07089581E00895CF9303
:100FB000DF93EC0160E00E94CB07BE010E949C071A
:100FC000DF91CF910895E1E0F0E0DF0102C0AA0FC8
:100FD000BB1F6A95E2F7BD01DF0102C0AA0FBB1F6C
:100FE0004A95E2F7AD01462B01C0EE0F2A95EAF7CC
:100FF000942F9823491302C08E2B0895E0958E23D9
:101000000895242F462F682F809120020E94E30725
:101010000E942A0E08950E944A1708950E944417BC
:10102000089508950E94C70D0E9411082FEF84E3D0
:101030009CE0215080409040E1F700C000000895FE
:101040000E9412080E94AF2508950E9412080E9473
:10105000D32508950F931F93CF93DF938C0161E005
:101060000E94CB07EC01B8010E940A1C882379F189
:10107000B801CE010E949807882349F1B801CE013A
:101080000E947723882319F1B801CE010E94F31C36
:101090008823E9F0B801CE010E94DD228823B9F04F
:1010A000F8018281882309F43FC0CA358DE5D8074D
:1010B000B1F178F4C130FCE5DF07A1F0CE3D8CE55D
:1010C000D80729F1C115DC4579F50E942008C0E058
:1010D0002FC0CC35FDE5DF07F9F020F1C73ADD453B
:1010E000C1F022C080918002C82FC095C170C0FBA2
:1010F00080F980938002CC2329F088E693E00E9457
:10110000F206E5CF86E593E00E94F20611C00E9448
:10111000F8130E942508DBCF0E942F1305C00E9400
:10112000391302C00E943D13C8010E949407C82FC2
:101130008C2FDF91CF911F910F9108950E94D82499
:101140000E94A80908950E94AC090E94E124089514
:10115000A0E0B0E0EEEAF8E00C94412EE82FF0E0D9
:10116000E758FC4FD490282F26952695269530E0F9
:10117000F901E75EFB4F0491877010E0082E02C072
:10118000159507950A94E2F701701127F901E75FB9
:10119000FB4FE490F12C082E02C0F594E7940A94DA
:1011A000E2F791E0E922FF24F901E750FC4FC491F6
:1011B000D0E002C0D595C7958A95E2F7C170DD27CA
:1011C0000115110519F081EE0E94290AE114F104BC
:1011D00019F086EE0E94290A8D2D0E945A0BE11407
:1011E000F10419F086EE0E94D70A0115110519F0D5
:1011F00081EE0E94D70ACD2B19F08CE20E945A0B87
:10120000CDB7DEB7E7E00C945D2EEF92FF920F931F
:101210001F93CF93DF93EC01162F0AE08881882378
:1012200009F455C0813009F043C08981813041F40F
:101230007E0182E0E80EF11C8A810E945A0B09C0EF
:10124000823049F47E01E2E0EE0EF11C8A810E94B8
:10125000290AE7012FC0833041F47E01F2E0EF0E4E
:10126000F11C8A810E94D70AF4CF843011F02196B4
:1012700021C02A81229680E090E030E0205331099D
:101280002A30310558F4089FA001099F500D112400
:10129000C901840F951F21962881EFCF009751F047
:1012A000EFE9FFE03197F1F700C000000197F6CFBA
:1012B0000E94A8082196812F882309F4AFCFEFE977
:1012C000FFE03197F1F700C000008150F5CFCDB7B6
:1012D000DEB7E6E00C945E2E60E00E9405090895FA
:1012E0008295982F937344E0949F900111248C7CF5
:1012F00086958695282B822F8575880F2A7A2695C4
:10130000822B0895CF93DF93D92F0E947009C82FA5
:101310008D2F0E9470092C2F30E0322F2227A90137
:10132000482BCA01DF91CF91089508950E94950935
:10133000089581E008950E94990908950895CF9332
:10134000C82F0E9496098C2F0E949B09CF91089567
:1013500080E00E949F0908950E94D3230E949F0964
:101360000895CF930E94D323C82F80910002C817FD
:1013700039F1C09300028091800282FF1EC080FF7D
:1013800004C080E394E00E94F2068091800280FF16
:101390000CC01F92CF938BE294E09F938F930E9497
:1013A0008B070F900F900F900F908091800280FF1D
:1013B00004C089E294E00E94F2068C2F0E949F09EB
:1013C000CF910895ABE0B0E0E8EEF9E00C94462E42
:1013D0004F83588769877A878B8761110E946312D0
:1013E0009E012F5F3F4F86E0F90111928A95E9F740
:1013F00085E0FE013796D90101900D928A95E1F7BB
:1014000089819A814C815D81452B31F09F3F31F478
:1014100091E08F3F19F403C091E001C090E090FF8C
:1014200009C049815A816B817C818D819E810E9496
:101430008F1105C0C9010E94D5078111F2CF2B96EB
:10144000E2E00C94622EFC01808191810E941C0FCD
:101450000895CF93882309F4A8C0C82F8238C1F417
:101460000E94D32381FDA1C069E380910001909186
:1014700001010E949D240E9487122FEF81EE94E0CB
:10148000215080409040E1F700C0000069E319C09E
:10149000833801F50E94D32380FD87C063E58091E6
:1014A0000001909101010E949D240E9487122FEF5C
:1014B00081EE94E0215080409040E1F700C00000B0
:1014C00063E580910001909101010E94A0240E9497
:1014D00087126BC08438C1F40E94D32382FD65C09B
:1014E00067E480910001909101010E949D240E9477
:1014F00087122FEF81EE94E0215080409040E1F779
:1015000000C0000067E4DDCF8CEF8C0F813AF8F467
:101510008C2F0E940E21811148C06C2F80910001F8
:10152000909101010E946724882349F06C2F8091DB
:101530000001909101010E94A0240E9487126C2F4B
:1015400080910001909101010E949D24C0CF80E212
:101550008C0F883048F4C77081E001C0880FCA95AD
:10156000EAF70E944612B3CFEBE5EC0FE33040F40C
:10157000F0E0EB5BFE4F808190E00E942F2415C0CD
:10158000E8E5EC0FE73150F4F0E0EE0FFF1FE95E05
:10159000FE4F808191810E94452407C0C03F28F002
:1015A0008C2F0E940A190E94DC19CF91089588237C
:1015B00009F467C0823879F40E94D32381FF61C0A7
:1015C00069E380910001909101010E949D240E9495
:1015D000871269E310C08338B9F40E94D32380FFD7
:1015E00050C063E580910001909101010E949D240B
:1015F0000E94871263E580910001909101010E9491
:10160000A0240E9487120895843879F40E94D3237D
:1016100082FF37C067E480910001909101010E9430
:101620009D240E94871267E4E6CF9CEF980F913AC1
:1016300010F4682FE0CF90E2980F983050F4877044
:1016400091E001C0990F8A95EAF7892F0E944C1208
:10165000D8CF9BE5980F933028F480E090E00E946B
:101660002F24089598E5980F973128F480E090E0B2
:101670000E9445240895803F20F00E9465190E9431
:10168000DC1908951F93CF93DF93182FEB010E946D
:10169000290A209741F08FE99FE00197F1F700C0F8
:1016A00000002197F6CF812F0E94D70ADF91CF91BA
:1016B0001F910895893319F060E070E002C060E581
:1016C00070E00E94420B0895882321F00E94461288
:1016D0000E9487120895882321F00E944C120E94D4
:1016E00087120895A0E0B0E0E8E7FBE00C94402EFC
:1016F0007C01162FC72FFC01D281058102950F7046
:101700000E943C128823B9F0DD23A9F08C2F807F42
:10171000803421F080E2810F883068F08091B4023B
:1017200082FF09C082E00E94E9120E943C1291E00F
:10173000D82ED92601C0D12CCC2EC2948FE0C8223D
:101740008C2D90E08C30910508F09EC1FC01EA5A86
:10175000FF4F0C94292E8C2F807FCF70882311F09F
:10176000C295C07FDD2399F0CC2309F479C180E2D2
:10177000810F883010F0111104C08C2F0E94461286
:1017800003C08C2F0E9456120E94871269C1812FBC
:101790000E94D70ACC2309F477C180E2810F8830F8
:1017A00038F1112329F18C2F0E945C1224C08C2F58
:1017B000807FCF70803211F0C295C07F112319F065
:1017C0001130A1F13DC08091B40282FD17C0DD232C
:1017D00049F0CC2329F08C2F0E9446120E948712D8
:1017E00080E03FC180E00E94D70ACC2309F44CC1BD
:1017F0008C2F0E944C120E94871246C1DD2371F08B
:10180000002341F0013031F40E9466128C2B0E94BB
:1018100070123AC10E9466128C2B1DC0002319F071
:10182000013009F431C10E947D1225C0DD2321F071
:10183000063008F029C10EC0053008F025C11BC0D4
:10184000DD2361F0002331F0F701858180FF08C1BD
:101850008F7085838C2F0E94640B16C1002359F072
:10186000193309F00EC1FFEF27EE83E0F15020405D
:101870008040E1F704C18C2F0E946B0B05C18C2FB7
:1018800086958695837019F0813061F0FDC0DD2367
:1018900021F0812F9C2F937002C080E090E00E9485
:1018A0002F24FAC0DD2321F0812F9C2F937002C0DA
:1018B00080E090E00E944524EFC0812FDD2319F0E5
:1018C0000E940A1902C00E9465190E94DC19E4C036
:1018D0008C2F837079F5D111DBC0412F429546954D
:1018E0004770440F440F212F2F70042E01C0220F88
:1018F0000A94EAF714FF08C08FE090E001C0880F57
:101900004A95EAF7809501C080E0C695C695C370F8
:10191000822BC23049F058F4C13019F00E941B0EDE
:10192000B7C00E94150EB4C00E94210EB1C00E9423
:10193000120EAEC0DD2319F08C2F817001C0869588
:10194000882309F4A5C0412F429546954770440F5E
:10195000440F212F2F70042E01C0220F0A94EAF7A2
:1019600014FF08C08FE090E001C0880F4A95EAF7A5
:10197000809501C080E0C695C695C370822BC230A9
:1019800049F058F4C13019F00E94690E81C00E94DC
:10199000630E7EC00E946F0E7BC00E942A0E78C02C
:1019A000CF70DD2339F08C2F0E943E0E812F0E94D4
:1019B000640B6EC0812F0E946B0B8C2F0E944A0E0D
:1019C00067C0123F21F128F4103F41F0113FC1F0F0
:1019D00043C0133F19F1143F79F03EC0DD2341F0BD
:1019E000053008F051C08C2F8F710E94570E4CC0EB
:1019F000063008F049C0F7CF8091B40282FD18C0CC
:101A0000DD2339F08C2F8F710E943E0E3DC0DD2307
:101A1000C9F38C2F8F710E944A0E36C0DD2329F046
:101A20008C2F8F710E94350E2FC00E94310E2CC05A
:101A3000DD2349F0CF718C2F0E943E0E63E08C2F86
:101A40000E94CB1221C081E00E94E9120230E0F036
:101A500082E00E94E91218C0DD2331F0002391F2E8
:101A6000812F0E94290A10C0002399F2193349F4EA
:101A70009FEFE7EEF3E09150E040F040E1F700C067
:101A80000000812F0E94D70A88EF8C0D843020F44B
:101A90000E94D3230E949F09DD2089F00E94381202
:101AA00080FD0DC0F70112820E9432120E943E0E8C
:101AB000C7010E947C0D0E9432120E944A0ECDB7CF
:101AC000DEB7E8E00C945C2E0F931F93CF93DF9367
:101AD000EC01688179818A810E94270F8C010E9424
:101AE000750E0E94030EB801CE010E94720BDF91A9
:101AF000CF911F910F910895CF93DF93EC019881BF
:101B000089812B813C81232B31F08F3F31F481E09F
:101B10009F3F19F403C081E001C080E080FD1AC03E
:101B2000CE010E942A0881110FC00E943C12882316
:101B300089F08A81882371F08091B40282FF0AC003
:101B400082E00E94E91206C0CE010E94640DCE011F
:101B50000E94D707DF91CF91089580E090E00E9426
:101B60002F2480E090E00E9445240E9463120E948E
:101B700087120E947D1A0E94DC190895809100014D
:101B8000909101010E94A3240E94AD0D08950E942E
:101B900053120E94BE0D089592959F70963079F071
:101BA00010F4925001C09A50923068F4803F69F06E
:101BB00018F4883E40F409C0843F29F406C0883EEA
:101BC00020F0813F11F080E0089581E00895FC014C
:101BD000808191810E941C0F0E94CC0D0895A5E088
:101BE000B0E0E5EFFDE00C94462E2596E2E00C9483
:101BF000622EA6E0B0E0EFEFFDE00C94462E2696B4
:101C0000E2E00C94622E089508950E94040E089557
:101C10000E94050E08950E94080E809321020E94E2
:101C2000AD0D08950E940B0E089590912102892B0D
:101C30000E940B0E08959091210289230E940B0EA1
:101C400008959091210289270E940B0E08950E9409
:101C5000040E08950E94270E809320020E94AD0D6D
:101C6000089580E00E942A0E089591E001C0990F26
:101C70008A95EAF7892F0E942A0E089521E030E024
:101C800001C0220F8A95EAF780912002822B0E94E0
:101C90002A0E089521E030E001C0220F8A95EAF76C
:101CA00020958091200282230E942A0E089521E02F
:101CB00030E001C0220F8A95EAF780912002822746
:101CC0000E942A0E089590912002892B0E942A0ECC
:101CD00008959091200289230E942A0E08959091E0
:101CE000200289270E942A0E08950895962F977042
:101CF000A1E001C0AA0F9A95EAF793E0769567955F
:101D00009A95E1F7FB01EE0FFF1F6E0F7F1FFA019F
:101D1000E60FF71F40E050E0682F70E090819B01D4
:101D2000042E02C0369527950A94E2F7217021957A
:101D300029272A23292721934F5F5F4F43305105DD
:101D400069F708959B01782F777043E09695879502
:101D50004A95E1F7FC01EE0FFF1F8E0F9F1FF9015F
:101D6000E80FF91F40E050E080E0219130E0072EBD
:101D700002C0369527950A94E2F721703327042E86
:101D800001C0220F0A94EAF7822B4F5F5F4F433066
:101D9000510559F70895282F953070F48F3060F46D
:101DA000862F622F70E02FE0929F600D711D11242D
:101DB00042E052E00E94760E0895953070F48F3024
:101DC00060F4292F90E062E072E03FE0239F800DF5
:101DD000911D11240E94A20E089580E00895CF92D3
:101DE000DF92FF920F931F93CF93DF936C010091CB
:101DF000200280912102082BC7E0D0E010E0C8014A
:101E00000C2E02C0959587950A94E2F780FD04C0D8
:101E10002197A8F7F12C07C0FC2EB6018C2F0E9449
:101E2000DC150197A9F38F2DDF91CF911F910F91B1
:101E3000FF90DF90CF900895CF93DF93EC010E9445
:101E4000EF0EBE010E94DC15DF91CF9108951F9324
:101E5000CF93DF93EB0190910102992321F0CB0105
:101E60000E941C0F13C0882349F0CB010E94EF0E83
:101E7000182F682FCE010E94CB0E04C0CB010E9408
:101E8000DD0E182FBE01812F0E94DC15DF91CF914E
:101E90001F9108951F93CF93DF93C091220216E004
:101EA00080912302C81799F0D0E01C9FF0011D9F7C
:101EB000F00D1124EC5DFD4F4081518162817381F1
:101EC000848195810E94F90D2196C770E9CFDF9139
:101ED000CF911F9108954091540250915502609105
:101EE00056027091570280915802909159020E94B7
:101EF000F90D08950F931F93CF93DF9380915902AB
:101F000082958F7009F05AC080915602882309F497
:101F100055C0809122021091230260915402709169
:101F20005502C0915702D091580291E06F3F09F0DD
:101F300090E0292F06E0811709F440C0209721F096
:101F40007F3F21F030E003C031E001C0322F90E04C
:101F500030FD31C0089FF001099FF00D1124DF0111
:101F6000AC5DBD4F11963C911197371324C03C9145
:101F7000361321C012963C91129731111CC0139652
:101F80004D915C9114974C1B5D0B483C510598F4A6
:101F9000809159028F70806180935902E75DFD4FF7
:101FA00080818F708061808384E592E00E947C0D47
:101FB0000E944A0F03C001968770BDCFDF91CF9179
:101FC0001F910F910895A1E1B0E0E9EEFFE00C94BC
:101FD0003D2E8C0185E0F801DE011D9601900D92E9
:101FE0008A95E1F7F801E2809091540260915502E0
:101FF00020915702309158022115310531F06F3F81
:1020000031F481E09F3F19F403C081E001C080E01A
:10201000F82FF1709F2E80FD40C1F8014081518161
:10202000A380B48084E5C82E82E0D82EF0905602BA
:10203000F501E21BF30BFF2009F4DAC0809159028D
:10204000E83CF10508F096C0282F207F09F053C026
:10205000561313C0491311C0FE2CE1100EC08F702F
:102060008061809359020E946B0FC6010E947C0D13
:1020700080915902F80185834DC1A114B10431F05A
:102080005F3F31F481E04F3F19F403C081E001C0AC
:1020900080E080FD03C081E08E2502C080E090E0FA
:1020A000F82FF170FF2E80FF1CC08091220220913A
:1020B000230236E0821709F40BC190E0389FF0014B
:1020C000399FF00D1124EC5DFD4F6181561306C060
:1020D0006081461303C06281E61203C001968770D7
:1020E000E9CFFE2CEE2009F415C1809159028160E0
:1020F0008093590254C0561306C0491304C0E1101E
:1021000002C0F80199C0C8010E94E70D882361F15F
:10211000EE2051F120915902822F82958F7090E02C
:10212000029774F0809154029091550298878F83A2
:102130001986BB86AA862C87CE0107960E947C0D45
:1021400086E0F801A4E5B2E001900D928A95E1F7EE
:102150000E947A0F0E946B0F0AC0561711F1C80136
:102160000E94E70D81112CC0C8010E947C0DFF2444
:10217000F394D0C0282F207F81F77A2DB98AA88ABE
:102180006E2D89890E94EF0D84E592E00E947C0DFE
:1021900086E0F60111928A95E9F70E946B0FF12C07
:1021A000B9C04913DCCFE110DACFF8018583C8014B
:1021B0000E947C0D86E0F60111928A95E9F7AAC08B
:1021C000EE2091F220915902822F82958F7090E03B
:1021D00002970CF4B5CF80915402909155029A83E6
:1021E00089831B82BD82AC822E83CE010196A6CF4D
:1021F000E83CF10508F044C0FE2CEE2009F4B4CF11
:10220000561330C049132EC02091590220FD21C021
:10221000822F82958F70482F50E041155105C9F0EB
:10222000F80125834F30510541F08F5F982F92952B
:10223000907F822F8F70892B8583C8010E947C0D2F
:1022400086E0F801A4E5B2E001900D928A95E1F7ED
:102250003CC086E0F801A4E5B2E001900D928A95B9
:10226000E1F758C0C8010E94E70D811169CF809144
:102270005902816080935902C8010E947C0D4AC0B6
:102280007A2DB98AA88A6E2D89890E94EF0D86E081
:10229000F60111928A95E9F718C0EE2009F464CF8F
:1022A000C8010E94E70DF82E882309F45DCF86E06F
:1022B000F801A4E5B2E001900D928A95E1F784E57A
:1022C00092E00E94230A0E947A0F0E946B0F22C0A4
:1022D0004D875E878D859E850E941C0F292F229534
:1022E0002F70223028F49F7039F0811105C00BC087
:1022F000243028F49F7049F4805E883020F0C801B3
:102300000E947C0D9F2CF92C05C0F8019581907FCF
:1023100099F7F9CF8F2D6196EBE00C94592EACE034
:10232000B0E0E5E9F1E10C94452E4F8358876987C9
:102330007A878B879C87CE0107960E94E30F8823BC
:10234000D1F09F8188852A853B85232B31F08F3FF3
:1023500031F481E09F3F19F403C081E001C080E0C7
:1023600080FD47C04F81588569857A858B859C851E
:102370000E94F90D3EC086E0FE013796DE011196FF
:1023800001900D928A95E1F7FF81E8856A857B854A
:102390006115710531F0EF3F31F481E0FF3F19F431
:1023A00003C081E001C080E080FD23C020912302B2
:1023B00030E0C9010196877099274091220250E0D0
:1023C00084179507F1F1F983EA837D836C8396E0A6
:1023D000929FD001939FB00D1124AC5DBD4FFE01C3
:1023E000319601900D929A95E1F7809323020E9415
:1023F0004A0F16E08091220290912302891771F111
:10240000189FC00111248C5D9D4F0E94E30F88230B
:1024100029F1E09122021E9FF0011124EC5DFD4F95
:102420004081518162817381848195810E94F90D7F
:102430008091220290E00196877099278093220272
:10244000D9CF0E94C70D1092230210922202E4E518
:10245000F2E086E0DF011D928A95E9F72C96E3E031
:102460000C94612E809162028595859585950895DD
:10247000809162028770089590916202977081E066
:1024800009F480E0089580916D02089590916D02A5
:10249000892B80936D020895809590916D02892318
:1024A00080936D02089510926D02089590916C02D0
:1024B000892B80936C020895809590916C028923FA
:1024C00080936C02089510926C02089580916302CB
:1024D000089508950E94691208950E946A1208954D
:1024E0009091B40292FF08C090916302981721F076
:1024F000809363020E946D12089580916302882385
:1025000029F01092630280E00E946D120895CF932B
:10251000DF93E0910001F091010180916D028083D1
:10252000E0910001F0910101908180916C02892B72
:10253000808380916302882381F0E0910001F09113
:1025400001019081892B808380910001909101018C
:102550000E945B2481110E947D12C0910001D091E4
:10256000010148E050E06AE572E0CE010E94812E50
:10257000892B59F088E0FE01AAE5B2E001900D92A6
:102580008A95E1F7CE010E94E023DF91CF91089573
:102590000E94691208959091B40292FF11C098E0D0
:1025A000899F90011124262B209362020E943E0EE7
:1025B000809162028595859585950E94C81208953F
:1025C0000E943E0E08951092620280E00E94C8129E
:1025D0000895209162028095822380936202982F51
:1025E000977099F430E0482F082E000C550B2417F3
:1025F000350759F09091B40292FF07C085958595F3
:1026000085950E944A0E0E94E3120895CF939091FF
:10261000B40292FB222720F92817F9F0C82F892F3E
:10262000C0FB82F98093B4028091B3029091B4020E
:102630000E946F1382E00E94E9128091800280FF65
:102640000CC01F92CF938BE394E09F938F930E94D3
:102650008B070F900F900F900F90CF91089580915E
:10266000B40282FB882780F991E089270E94061333
:10267000089581E00E940613089580E00E940613E9
:1026800008956FEF7FEF80E090E00E94BA2E0895EA
:1026900080E090E00E94962E883E9E4F19F40E94A2
:1026A0009F1B089580E0089582E090E00E948E2EA6
:1026B000089583E090E00E948E2E0895CF9384E0E9
:1026C00090E00E948E2EC82F82E290E00E948E2E13
:1026D0002C2F30E0A901582BCA01CF910895CF9338
:1026E000C92F682F84E090E00E949C2E6C2F82E21C
:1026F00090E00E949C2ECF910895AB01BC018FE029
:1027000090E00E94AE2E0895AB01BC0183E190E001
:102710000E94AE2E089560E070E0CB010E94841309
:10272000089560E070E0CB010E947D130E948B133E
:10273000089568EE7EEF80E090E00E94BA2E60E09F
:1027400082E090E00E949C2E60E083E090E00E9496
:102750009C2E1092210260E084E090E00E949C2E6A
:1027600064E082E290E00E949C2E60E085E090E0D0
:102770000E949C2E60E086E090E00E949C2E6FEF0D
:1027800087E090E00E949C2E40E050E0BA0188E093
:1027900090E00E94AE2E60E08DE090E00E949C2EC2
:1027A00040E050E0BA0188E190E00E94AE2E60E087
:1027B00087E190E00E949C2E40E050E0BA018CE15D
:1027C00090E00E94AE2E60E070E080E290E00E9417
:1027D000BA2E40E050E0BA0188E190E00E94AE2EAF
:1027E00080E00E94B81B0E94ED1B0E949113089587
:1027F0000E9499130895682F8EE090E00E949C2E0D
:1028000008950E946E2560937C0270937D028093F0
:102810007E0290937F026093780270937902809396
:102820007A0290937B02089581E008950E94141427
:10283000089508950E94191408950E941914089586
:102840000E941D1408950E94191408950E942314D3
:1028500008950E94191408958BEE97E20E94C923EF
:102860000E9429140E94261408950E941A140E949E
:10287000191408950E94D2160E949E0908950E947C
:1028800059250E94FD1B0E94EB170E943A140E94DA
:1028900020140895AAE0B0E0E0E5F4E10C94392EAC
:1028A0000E940118C82E81110E9401143EE6832E59
:1028B00032E0932E00E010E0502E802F0E94ED16A3
:1028C0005C01F401619071904F01682679266114D2
:1028D0007104B1F40F5F1F4F0530110569F78FEFD9
:1028E00089838A831B820E9462258160782F9D8361
:1028F0008C8349815A816B818D810E94E2093BC0A2
:102900008091800281FD0E94F616D12CEE24E39482
:10291000F12CC3018E219F21892B31F10E941614C5
:102920008823B1F0DE825F82AE20BF2081E0A11457
:10293000B10409F480E088870E9462258160782FC5
:102940009A8789874E815F8168858A850E94E2091E
:10295000000F111FF801E259FD4F80819181E82697
:10296000F926F182E08207C0D394EE0CFF1CFFE051
:10297000DF12CFCFAFCF81E0C11001C080E02A9637
:10298000EFE00C94552E0E944A140E949F1A0E9458
:10299000B1090895CF93DF930E94E115EC018115F1
:1029A00021E5920708F045C0811530E5930708F04E
:1029B00094C0883E910528F5803E910508F0F8C046
:1029C000883A910570F4853A910508F07CC0813011
:1029D000910509F475C008F4E8C0049708F0E8C050
:1029E000E4C08F3B910508F0E0C0C85AD0E0CC0F9E
:1029F000DD1FC85BDE4F0990D881C02DCE019464E5
:102A0000D8C0811540E2940758F4811551E095072C
:102A100008F0CEC0803F910508F4C7C09065C9C0DA
:102A2000C11580E4D80708F4C0C0DF70CE01906AF9
:102A3000C0C0811525E59207A8F4811534E59307F8
:102A400008F095C0811543E5940708F07BC0811517
:102A500052E5950708F061C0D82FCC27CE01816FD1
:102A6000906AA7C0C11589E5D807A0F4C11528E56B
:102A7000D20708F082C0C11536E5D30708F095C02B
:102A80008C2F0E9475168F7190E0D82FCC27CE0125
:102A900090628FC0C1154AE5D40708F474C0CE0116
:102AA00090568115904208F080C08D2F8F710E9442
:102AB0007516DD27D0628F71AE01582BCA0179C01F
:102AC00081E090E076C0C55AD0E0CA58DE4F8881D8
:102AD000C82FD0E0CE0190646CC074E096958795C5
:102AE0007A95E1F7282F23703C2F337081E090E036
:102AF00002C0880F991F3A95E2F79C68AC01522BEF
:102B00009A019C2F9F709695969550E2959FE001B3
:102B10001124C9018C2B9D2B4CC08370992721E077
:102B200030E002C0220F331F8A95E2F79C2F969562
:102B3000969580E2989FE0011124C22BD32BCE0101
:102B40009C6837C08370992721E030E002C0220FD3
:102B5000331F8A95E2F79C2F9695969540E2949FB5
:102B6000E0011124C22BD32BCE019A6822C0D82FAA
:102B7000CC27CE01846F906A1CC0DC2FCC27CE01FD
:102B8000806F906A16C08C2F8F700E94751694E02B
:102B9000D695C7959A95E1F7CF70D0E0DC2FCC277A
:102BA000D0699E01282BC90104C080E090E001C0DB
:102BB000CE01DF91CF9108950E942B220E94CA146A
:102BC00008958238910569F1B0F48133910509F4D3
:102BD0006DC048F48932910509F463C08A329105C9
:102BE00009F469C008958533910509F455C0893306
:102BF0009105B9F00895833E910569F138F4803E5E
:102C00009105B1F0823E910509F10895863E910546
:102C1000A9F1873E9105B9F1843E910509F064C0A0
:102C200023C02091B30220FD4FC021FD4DC0089567
:102C30008091B30280FD44C08091B40280FF44C003
:102C40008091B30284FD42C083EE4DC08091B302F7
:102C500082FF38C0F5CF8091B30282FD33C08091EE
:102C6000B40280FD31C0ECCF8091B40281FF32C04C
:102C70008091B30284FD2AC087EE35C08091B302F3
:102C800083FF26C0F5CF8091B30283FD21C08091E0
:102C9000B40281FD1FC0ECCF8091B30285FD1CC042
:102CA0001DC08091B30285FD19C016C08091B3028A
:102CB00086FD16C017C08091B30286FD13C010C0F8
:102CC00089E311C082EE0FC080EE0DC080E00BC022
:102CD00086EE09C084EE07C089E205C085E303C023
:102CE0008AE201C081E390E008959091B30292FFDF
:102CF0000DC0282F2871283019F4877F846006C002
:102D0000282F2471243011F48B7F886093FF0DC02D
:102D1000282F2871283119F4877E846106C0282F56
:102D20002471243111F48B7E88612091B40220FF3C
:102D30000DC0382F3871383019F4877F816006C094
:102D4000382F3171313011F48E7F886021FF0DC032
:102D5000282F2871283119F4877E816106C0282F19
:102D60002171213111F48E7E886194FD877E089552
:102D70000E94411308950E9401188FE39CE9019776
:102D8000F1F700C000000E94011880E00E94ED16DB
:102D900080FF04C00E94B8160E94AF2508950E94CB
:102DA000BB1608950E944813811102C00E94F813B7
:102DB0000E945413809380020E945E139093B40289
:102DC0008093B3020E94CF160E9459130E94120EE4
:102DD000809120020E94270E0895E82FF0E0EE0F68
:102DE000FF1FE154FD4F808191810895A0E0B0E084
:102DF000ECEFF6E10C94402E80E694E00E94F2069F
:102E00008FEBE82E82E0F82EC0E0D0E09BE5C92EE3
:102E100094E0D92E02E514E0DF93CF93DF92CF92B6
:102E20000E948B0788E594E00E94F206F7018191E9
:102E300091917F010E9482099F938F931F930F931B
:102E40000E948B0780E594E00E94F20621968DB7E0
:102E50009EB708960FB6F8949EBF0FBE8DBFC530C3
:102E6000D105D1F6CDB7DEB7E8E00C945C2E80EA50
:102E70008A95F1F7089500C008950E9437170895C4
:102E800008950E94401708950E94411708950E94D6
:102E9000401708950E9447170895F894E82FE29587
:102EA000EF70F0E031A1282F2F7081E090E001C099
:102EB000880F2A95EAF7982F9095932391A392A1D2
:102EC000892B82A3789408950F931F93CF93DF9358
:102ED000C8E8D1E089918F3F11F00E944D1781E041
:102EE000CD38D807B9F7C9E7D1E008E811E08991F2
:102EF0008F3F11F00E944D170C171D07C1F7DF918E
:102F0000CF911F910F910895A0E0B0E0EAE8F7E1BA
:102F10000C943F2E8C01C62FD0E0CE0188579E4FD7
:102F20006C01FC0190819F3F09F450C0B62EF894CB
:102F3000E92FE295EF70F0E081A19F7021E030E091
:102F400001C0220F9A95EAF7822B81A382A12095D6
:102F5000282322A378940E943B17E9E7F1E048E890
:102F600051E021E030E0E12CF12C61916F3F89F0DC
:102F7000A62FA295AF70B0E090968C9190E06F7004
:102F800002C0959587956A95E2F780FD02C0C90158
:102F900002C080E090E0E82AF92A220F331F4E1782
:102FA0005F0719F7F60180818F3F11F00E944D17DE
:102FB00061E0E114F10409F460E08B2D0E943D17FB
:102FC000CC0FDD1FC00FD11FF982E882CDB7DEB76D
:102FD000E9E00C945B2E0E9464178AE0EFEBF2E0CC
:102FE000DF01982F1D929A95E9F7E5EBF2E0DF01FA
:102FF0001D928A95E9F785E00E943D180E940B0812
:103000000895AAE0B0E0E7E0F8E10C94432E8E01C9
:103010000F5F1F4F8AE0F80111928A95E9F7F12CB2
:103020006F2DC8010E948417F394F5E0FF12F8CFCA
:103030004AE050E0B80185EB92E00E94812EFF2427
:10304000F394009709F4F12C892B41F08AE0F80100
:10305000A5EBB2E001900D928A95E1F72F2D45E0A6
:103060006FEB72E085EB92E00E943E180E940E0822
:103070008F2D2A96E5E00C945F2E0895FF920F9312
:103080001F93CF93DF93F82E092F162FD72FC42F1E
:10309000222349F081E0809383020E94622590936D
:1030A000820280938102809183028823D9F08091EB
:1030B0008102909182020E947A25059798F0EF2D67
:1030C000F02FA12FBD2F80E090E04C2F50E084170F
:1030D000950734F4219131912D933D930196F7CFCB
:1030E00010928302CDB7DEB7E5E00C945F2E0E940C
:1030F00068280E943F140E94752808950E947A282B
:103100000E94C3140E94982808950E94F9240E94E6
:103110004E280E942C140E9477180E947E180E944C
:103120003514FBCF80918A0280FF06C060910701B1
:1031300070E0660F771F26C081FF04C06091070111
:1031400084E005C082FF07C06091070188E0689FA6
:10315000B001112417C0909189029923D1F0609198
:103160000601961788F72091070188E0289F9001B3
:103170001124929FA001939F500D112470E0CA0169
:103180000E94152E6038710540F46115710519F41F
:1031900006C068E070E0862F08958FE7089581E00B
:1031A000089580918A0280FF08C06091030170E059
:1031B000759567957595679521C081FF06C06091EB
:1031C000030170E07595679519C082FF04C0609196
:1031D000030170E010C090918802992399F06091EA
:1031E00002019617A0F780910301899FC001112465
:1031F00070E00E94152E6038710540F4611571056C
:1032000019F406C061E070E0862F08958FE70895F5
:1032100081E00895803F21F40E949218819504C0B6
:10322000813F29F40E94921880938E020895823F74
:1032300021F40E949218819504C0833F29F40E94D2
:10324000921880938D020895893F19F40E94D11835
:1032500005C08A3F31F40E94D118819580938F0276
:1032600008958B3F21F40E94D118819504C08C3FB2
:1032700029F40E94D1188093900208959CE0980F41
:10328000953078F421E030E0A90102C0440F551FC9
:103290009A95E2F7CA0190918C02892B80938C0257
:1032A00008958D3F21F480918A0281600BC08E3F8A
:1032B00021F480918A02826005C08F3F29F48091B9
:1032C0008A02846080938A020895803F39F4909145
:1032D0008E0297FF35C010928E0259C0813F29F4AB
:1032E00090918E021916BCF32BC090918D02823FF3
:1032F00029F497FF25C010928D0249C0833F19F42D
:103300001916CCF31DC090918F02893F29F419162C
:10331000BCF410928F023BC08A3F19F497FF10C093
:10332000F8CF8B3F39F49091900297FF09C010922B
:1033300090022DC08C3F21F4909190021916BCF39D
:103340009CE0980F953080F421E030E0A90102C0A4
:10335000440F551F9A95E2F7CA01809590918C020F
:10336000892380938C0213C08D3F21F480918A02BF
:103370008E7F0BC08E3F21F480918A028D7F05C025
:103380008F3F29F480918A028B7F80938A028091FB
:103390008D02811106C080918E02811102C01092AF
:1033A000890280918F02811106C080919002811163
:1033B00002C01092880208958091800283FF7EC02F
:1033C0008EE994E00E94F20680918C021F928F9306
:1033D00089E994E09F938F930E948B0787E994E09B
:1033E0000E94F20680918D02282F082E000C330BCC
:1033F0003F938F9384E994E09F938F930E948B0770
:1034000082E994E00E94F20680918E02282F082E15
:10341000000C330B3F938F938FE894E09F938F932F
:103420000E948B078DE894E00E94F20680918F0243
:10343000282F082E000C330B3F938F938AE894E0DB
:103440009F938F930E948B0788E894E00E94F20676
:1034500080919002282F082E000C330B3F938F93FE
:1034600085E894E09F938F930E948B0782E894E015
:103470000E94F206809189021F928F938FE794E059
:103480009F938F930E948B078DE794E00E94F20632
:1034900080918A021F928F938AE794E09F938F9383
:1034A0000E948B0787E794E00E94F2068DB79EB7D3
:1034B0004C960FB6F8949EBF0FBE8DBF0E9462253A
:1034C00020918D02211104C020918E02222321F02F
:1034D000909387028093860220918F02211104C06D
:1034E00020919002222321F0909385028093840200
:1034F0008BE892E00E9421240895EBE8F2E086E058
:10350000DF011D928A95E9F71092890210928802D4
:1035100010928A020895FC01828181110DC083817D
:1035200081110AC08481811107C091E085818111D8
:1035300001C090E0892F01C081E081700895A6E06C
:10354000B0E0E5EAFAE10C94452E86E0EBE8F2E023
:10355000DE01119601900D928A95E1F710928D028D
:1035600010928E0210928F02109290028B81811124
:1035700004C08C81882309F45FC0809186029091F9
:1035800087020E947A25AC0190918902992339F033
:103590002091080130E02417350758F04DC02091E4
:1035A00009018AE0289F900111242417350718F09B
:1035B00043C09F3F19F09F5F909389021B811123A5
:1035C00061F00E949218111614F09FEF01C091E073
:1035D000989F902D112490938D021C81112361F0EE
:1035E0000E949218111614F09FEF01C091E0989F6D
:1035F000902D112490938E0230918D023323E1F0AF
:1036000020918E022223C1F045EB3403C001112426
:10361000992319F090938D0203C081E080938D026D
:1036200035EB2303C0011124992319F090938E02E6
:1036300003C081E080938E028D81811104C08E8150
:10364000882309F45FC080918402909185020E94D2
:103650007A25AC0190918802992339F020910401D8
:1036600030E02417350758F04DC0209105018AE05D
:10367000289F900111242417350718F043C09F3F5D
:1036800019F09F5F909388021D81112361F00E94C1
:10369000D118111614F09FEF01C091E0989F902D62
:1036A000112490938F021E81112361F00E94D11882
:1036B000111614F09FEF01C091E0989F902D1124F6
:1036C0009093900230918F023323E1F02091900289
:1036D0002223C1F045EB3403C0011124992319F0D2
:1036E00090938F0203C081E080938F0235EB230318
:1036F000C0011124992319F09093900203C081E036
:1037000080939002BE016F5F7F4F8BE892E00E9432
:10371000AA24811105C08BE892E00E948B1A8111C6
:103720000E94DC1986E0FE013196ABE8B2E0019020
:103730000D928A95E1F72696E3E00C94612E83E2E0
:1037400090E00E948E2E823281F484E290E00E940A
:103750008E2E873051F485E290E00E948E2E91E00B
:10376000843109F090E0892F01C080E081700895D4
:10377000CF93C82F811102C06FEF01C062E283E2D4
:1037800090E00E949C2EC11102C06FEF01C067E063
:1037900084E290E00E949C2EC11102C06FEF01C034
:1037A00064E185E290E00E949C2ECF9108950895F7
:1037B00086E290E00E948E2E682F70E080E090E01C
:1037C00008950895CF93C62F0E94E11B6C2F86E2C7
:1037D00090E00E949C2ECF91089580E00E94B81B3B
:1037E00060E070E0CB010E94E21B0E94B4210E94C5
:1037F000822281E00E94B81B08950E94D71B0E947C
:10380000D81B0E94E11B0E949F1B811102C00E94D5
:10381000ED1B0895CF93FB01C281CC23E9F09C01FD
:1038200022513F452031310520F482510E949222DD
:103830000CC08031FFE59F0751F481E00E943E0EED
:1038400043E062E081E00E940108C0E018C08131DD
:103850009F45A9F482E0F2CF8031EFE59E0711F495
:1038600081E004C081319F4549F482E00E944A0E04
:1038700043E062E081E00E94010801C0C1E08C2FBA
:10388000CF9108952FEFFC0120830895EF92FF92CE
:103890000F931F93CF93DF93EC01062FE8818E2FB8
:1038A00090E0FC013197E331F10508F091C0EE5949
:1038B000FF4F0C94292E198289E04DC089818230F6
:1038C00039F0833061F0813029F50E946E2502C005
:1038D0000E94D81B9A838B837C836D837BC07E017F
:1038E00010E0812F0E94ED16F701928383831F5F02
:1038F000F2E0EF0EF11C1530A1F76CC08981823027
:1039000049F46A817B818C819D810E942F2E0E94C7
:10391000E21B60C0602FCE010E94421C5BC04B8145
:103920006A8189810E9478219C838D8353C02C8178
:103930003D813227232732274B816A8189810E946A
:10394000992148C00E94B42145C00E94392224C058
:103950000E943B2299838A833DC06B8170E08981FC
:103960009A81AE014C5F5F4F9827892798270E9464
:103970003E2230C06B8170E089819A81AE014C5F3C
:103980005F4F9827892798270E94612223C00E94B1
:10399000822220C00E94652189831CC06B8170E057
:1039A00089819A81AE014C5F5F4F982789279827BC
:1039B0000E94E9210FC06B8170E089819A81AE017C
:1039C0004C5F5F4F9827892798270E940B2202C0DF
:1039D0008FEF8883602FCE010E946126CDB7DEB7BE
:1039E000E6E00C945E2ECF93DF93EC01FB01828125
:1039F000882309F43CC1C330FDE5DF0760F4CA3F0A
:103A00009CE5D90788F49E0122503C4524313105BC
:103A100008F02EC109C0C136EDE5DE0729F0C53A30
:103A2000FDE5DF0709F024C10E945E139093B40204
:103A30008093B302C1318CE5D80709F4C6C008F001
:103A400042C0C930ECE5DE0709F49BC000F5C53083
:103A50008CE5D80709F485C078F4C330ECE5DE07BF
:103A600009F478C008F07AC0C230DC4509F0F5C02E
:103A70008091B3028160EFC0C7309CE5D90709F49B
:103A800078C008F07AC08091B3028061E4C0CD3084
:103A9000FCE5DF0709F487C058F4CB309CE5D90773
:103AA00009F479C008F07BC08091B30288606FC0D0
:103AB000CF30FCE5DF0709F480C008F082C08091B8
:103AC000B302877FC8C0CD3F9CE5D90709F471C018
:103AD00000F5C531FCE5DF0709F485C068F4C331A2
:103AE0009CE5D90709F475C008F095C00E94C70D80
:103AF0008091B3028F77AFC0CB3FFCE5DF07A9F120
:103B000008F054C0CA3FDC4509F0A7C08091B40258
:103B100040C0C130EDE5DE0709F489C058F4CF3F5D
:103B20008CE5D80709F45AC008F069C08091B40246
:103B300082602FC0C136EDE5DE0709F47CC0C53ACE
:103B4000FDE5DF0709F481C0C230DD4509F085C01D
:103B500080E06EC08091B30282607DC08091B3022C
:103B600016C08091B302886076C08091B4028260F2
:103B70004FC08091B30280626EC08091B3028064B6
:103B80006AC00E94C70D8091B302806864C08460DF
:103B900062C081603DC08091B3028E7F5CC0809125
:103BA000B3028D7F58C08091B30216C08091B402D9
:103BB00018C08091B4028D7F2BC08091B3028F7E9C
:103BC0004AC08091B3028F7D46C08091B3028F7B43
:103BD00042C08091B302877F8B7F3DC08091B40249
:103BE0008D7F8E7F15C08091B30282FB222720F942
:103BF00091E0922790FB82F990FB83F92CC0809191
:103C0000B402982F909591708E7F892B90FB81F94B
:103C10008093B40222C00E94C70D8091B30287FB3B
:103C2000222720F991E0922790FB87F914C081E0C8
:103C30000E94FB1312C08091B30284FB222720F95B
:103C400091E0922790FB84F906C08091B302982FEF
:103C5000909590FB80F98093B3028091B30290918C
:103C6000B4020E946F130E94C70D80E001C081E082
:103C7000DF91CF910895809102011F928F938091DF
:103C800003011F928F93809106011F928F93809161
:103C900007011F928F93809108011F928F9380914B
:103CA00009011F928F9381EC94E09F938F930E9460
:103CB0008B078DB79EB70E960FB6F8949EBF0FBEBA
:103CC0008DBF0895883220F58E3108F068C08B30A2
:103CD00091F1C0F4873009F0BEC081E08093090102
:103CE00084E1809308018AE0809307018EE180934C
:103CF000060188E08093030188E28093020183E259
:103D000096E0C6C0833109F443C0843169F1A3C091
:103D10008F3409F49EC028F4893231F1883359F088
:103D20009AC0813531F008F4D4C0823509F4A7C0B7
:103D300092C08FEFA5C085E496E00E94F2060E9433
:103D40003B1E1F9281E08F931F9288E08F938EE33A
:103D500095E09F938F930E948B070F900F900F9089
:103D60000F900F900F9096C082E496E00E94F206AA
:103D700080919502882309F4AAC0109295021092AE
:103D80009402109293021092920210929102B1C08A
:103D900084E396E00E94F2060E943B1E7BC08D5198
:103DA00080939502833031F170F48130D1F082300C
:103DB00009F03FC088E091E09093940280939302D1
:103DC0008AE991E01FC0853059F108F1863089F504
:103DD00082E091E0909394028093930285ED91E0CC
:103DE00011C089E091E0909394028093930281E95D
:103DF00091E008C087E091E0909394028093930251
:103E000086EA91E0909392028093910218C086E036
:103E100091E0909394028093930283EB91E0F2CF30
:103E200083E091E0909394028093930282EC91E07E
:103E3000E9CF1092950281E396E00E94F20680910C
:103E40009502882309F455C01F928F938DE296E066
:103E50000DC08AE015C080E296E01AC097FF47C007
:103E6000108280811F928F938AE196E09F938F93B7
:103E70000E948B070F900F900F900F900BC081E066
:103E8000E0919302F0919402309729F587E196E052
:103E90000E94F20620919502222359F1809191020D
:103EA00090919202009711F48DE891E09F938F9387
:103EB0001F922F938EE096E09F938F930E948B0723
:103EC0000F900F900F900F900F900F9016C080E002
:103ED000089586EFD5CF2081082E000C990B820F14
:103EE000911D8F3F910509F00CF4B8CF8FEF8083BF
:103EF000B8CF8AE096E00E94F20681E00895CF9361
:103F0000C82F1F928F938BE596E09F938F930E940B
:103F10008B0781E001C0880FCA95EAF70E94120E54
:103F20000E94C70D0F900F900F900F90CF910895A2
:103F3000EF92FF920F931F93CF93DF938B3109F48E
:103F4000EDC008F08EC08B3009F4B1C008F078C025
:103F5000863009F4AFC020F4853009F4BDC04EC1ED
:103F6000873009F4C0C0883009F048C10E94591355
:103F70001F928F9380E99AE09F938F930E948B0703
:103F80000E94541383FB992790F91F929F9382FB01
:103F9000992790F91F929F9381FB992790F91F927F
:103FA0009F93982F91701F929F931F928F9387E4F6
:103FB0009AE09F938F930E948B070E945E1387FB6A
:103FC000222720F91F922F9386FB222720F91F9288
:103FD0002F9385FB222720F91F922F9384FB222702
:103FE00020F91F922F9383FB222720F91F922F93F2
:103FF00082FB222720F91F922F9391FB222720F981
:104000001F922F93292F21701F922F9381FB22271C
:1040100020F91F922F93282F21701F922F939F9387
:104020008F9382E699E09F938F930E948B078DB7C1
:104030009EB788960FB6F8949EBF0FBE8DBF35C051
:10404000803109F495C020F48E3009F47BC0D6C0CD
:10405000863109F4A8C0893109F0D0C08BEC96E014
:1040600084C08A32E1F060F4873209F4C3C028F4D6
:104070008E3108F4C3C08D51BEC0893269F1BEC013
:10408000833448F48A3308F0B3C0853309F4B2C0EE
:10409000883369F0B3C0833409F4ACC0AFC08BE39C
:1040A0009BE00E94F2060E94F813C1E0ACC08FEBC7
:1040B00097E05BC080918002817F8E7F8093800239
:1040C00088E997E00E94F20687E39BE00E94F206EF
:1040D00081E080939602E9CF8BE19BE00E94F2069B
:1040E0000E942008E2CF80918002C82FC095C17045
:1040F000C0FB80F980938002CC2329F08FE09BE005
:104100000E94F20680C082E09BE00E94F20680914D
:104110008002897F877F80938002C7CF9091800241
:1041200091FBCC27C0F981E0C827892FC0FB81F91A
:1041300080938002CC2319F085EF9AE029C087EEA6
:104140009AE013C09091800292FBCC27C0F981E0E5
:10415000C827892FC0FB82F980938002CC2319F0F5
:1041600088ED9AE015C088EC9AE00E94F2069DCF97
:104170009091800293FBCC27C0F981E0C827892F5A
:10418000C0FB83F980938002CC2351F08CEB9AE042
:104190000E94F2068091800281608093800233C089
:1041A0008FEA9AE0E2CF0E946E25162F072FF82E95
:1041B000E92ED091B202C09116010E94D323EF9252
:1041C000FF920F931F931F92DF931F92CF931F9223
:1041D0008F9380E696E09F938F930E948B078DB715
:1041E0009EB70C960FB6F8949EBF0FBE8DBF5DCFE5
:1041F000895301C080E00E947F1F57CF8DEA9AE06B
:104200000E94F206C0E08C2FCDB7DEB7E6E00C943A
:104210005E2E80E008950E9409210895CF93C82F53
:1042200080919602813071F040F0823009F045C0F3
:104230008C2F0E94621E81E046C00E94431282328F
:10424000F1F504C00E944312823261F48C2F0E9467
:104250000B21811104C08C2F0E94981F2CC081E07B
:1042600090E029C08C2F0E940921811123C0C43104
:10427000C9F058F4CB3069F0C031B9F482E08093D2
:10428000960288E30E94621E15C0C93259F0C833F5
:1042900061F488E997E00E94F20687E596E00E94C3
:1042A000F20608C0109296020CC085E596E00E94C6
:1042B000F20607C081E0817006C01092960280E08D
:1042C00002C080E0F8CFCF91089584E0089550E0D7
:1042D000440F551F2EE1629F400D511D11249A017C
:1042E00066E9869F200D311D1124C9018796089526
:1042F0000F931F93CF93DF938430A0F4653090F435
:104300004F3080F40E9467218C010E948E2E90E035
:10431000D82FCC27C80101960E948E2E9E01282BF3
:10432000C90102C080E090E0DF91CF911F910F9111
:1043300008950F931F93CF93DF93843080F46530FB
:1043400070F44F3060F4E9010E9467218C016D2FF9
:104350000E949C2E6C2FC80101960E949C2EDF911A
:10436000CF911F910F910895A0E0B0E0EAEBF1E248
:104370000C943E2EA12CE12CF12CB12C00E010E08D
:10438000C0E0D0E06701C00ED11EFE01EE0FFF1F9E
:10439000EC0DFD1DE250FF4F259134914C2F6B2DFC
:1043A0008A2D0E9499212196CF30D10571F7025EA6
:1043B0001F4FB39485E0B812E3CF86E9E80EF11CF5
:1043C000A39484E0A812D9CFCDB7DEB7EAE00C946D
:1043D0005A2EEF92FF920F931F93CF93DF93EA0130
:1043E0007A01E60EF71E8C01C8018796CE15DF050F
:1043F00069F0083522E0120720F40E948E2E88838F
:1044000001C0188221960F5F1F4FEECFCDB7DEB7E8
:10441000E6E00C945E2EEF92FF920F931F93CF93E2
:10442000DF93EA017A01E60EF71E8C01C801879638
:10443000CE15DF0559F0083522E0120718F468811F
:104440000E949C2E21960F5F1F4FF0CFCDB7DEB795
:10445000E6E00C945E2E843048F4753038F46F300A
:1044600028F4462F672F0E947821089580E090E07D
:10447000089580E1089581E891E00895EF92FF9218
:104480000F931F93CF93DF93EA017A01E60EF71E95
:104490008C01C80181589D4FCE15DF0569F00138A8
:1044A00021E0120720F40E948E2E888301C018821A
:1044B00021960F5F1F4FEDCFCDB7DEB7E6E00C942E
:1044C0005E2EEF92FF920F931F93CF93DF93EA013B
:1044D0007A01E60EF71E8C01C80181589D4FCE155A
:1044E000DF0559F0013821E0120718F468810E94B5
:1044F0009C2E21960F5F1F4FEFCFCDB7DEB7E6E0C2
:104500000C945E2ECF93DF93CFE7D2E060E0CE0134
:104510000E949C2E2196C11584E0D807B9F7DF913F
:10452000CF910895A4E0B0E0E8E9F2E20C94412EC6
:10453000F82E8FE08F15E8F18FEF93E00E948E2E1A
:10454000811137C00FE712E0FF2069F0011584E008
:10455000180779F1C8010E948E2E811101C0FA94CA
:104560000F5F1F4FF1CF19821A821B821C82DD243C
:10457000D39478018FEFE81AF80AC8010E948E2EB2
:1045800089831A828823A9F09FEF980F933058F4FB
:104590008A83D9820E5F1F4FC7010E948E2E8B83A4
:1045A000882339F07801CE0101960E946C098701B9
:1045B000E0CF2496E7E00C945D2ECF93DF93863115
:1045C0009C4541F5EB010E944312982F8A8120916E
:1045D000000130910101882379F09A7A81E009F491
:1045E00080E080939702911102C069E201C065E307
:1045F000C9010E949D240AC080919702811102C0C6
:1046000069E201C065E3C9010E94A0240E948712EB
:1046100080E001C081E0DF91CF9108950F931F9357
:10462000CF93DF93C42FD22FFC0182818823B1F076
:1046300040939A020E946225909399028093980277
:1046400080E28C0F883008F04DC0C77081E001C057
:10465000880FCA95EAF70E94640B44C080919A02C1
:10466000481330C080919802909199020E947A2557
:10467000883C910538F510E21D0FCD17B9F080E2A6
:104680008C0F883040F4C77081E001C0880FCA9554
:10469000EAF70E946B0B183010F581E09D2F9770A0
:1046A00001C0880F9A95EAF70E94640B802F0E9440
:1046B0005A0B1830B8F4D77081E001C0880FDA9532
:1046C000EAF70AC080E28C0F883060F4C77081E09E
:1046D00001C0880FCA95EAF70E946B0B03C0802FB8
:1046E0000E945A0BDF91CF911F910F9108950F9364
:1046F0009C01CB01233F4CE5340731F188F4283D80
:10470000FCE53F07D9F0293D4CE5340779F1273D19
:104710003C45A9F506E221EE41EE67ED7CE52BC0B4
:10472000253FFCE53F07E1F0A8F0263F3C4539F581
:1047300007E225EE46EE66EF7CE51DC007E225EEBA
:1047400045EE68ED7CE517C006E221EE40EE63EF32
:104750007CE511C007E225EE44EE64EF7CE50BC07A
:1047600006E221EE42EE65EF7CE505C008E221E0BD
:1047700045EE69ED7CE50E940E2380E008C0FC0157
:104780008281882319F010929A0201C081E00F9172
:1047900008959093FF018093FE0108959093A002E5
:1047A00080939F020895E0919F02F091A0023097BC
:1047B00029F00190F081E02D0995089580E0089599
:1047C000EF92FF920F931F93CF93DF93E0919F029D
:1047D000F091A002309781F18C010280F381E02DED
:1047E00009958091800282FF27C080FF04C084E584
:1047F0009BE00E94F206E80118E08EE4E82E8BE0D0
:10480000F82E8091800280FF0BC088811F928F93C9
:10481000FF92EF920E948B070F900F900F900F90D6
:10482000115021961111EDCF8091800280FF04C0BC
:104830008CE49BE00E94F206CDB7DEB7E6E00C9474
:104840005E2EE0919F02F091A002309739F022E0B5
:10485000DC012C930480F581E02D099508952091C9
:104860009D0230919E022817390771F090939E02A5
:1048700080939D02E0919F02F091A002309721F079
:104880000680F781E02D0995089520919B023091D3
:104890009C022817390771F090939C0280939B0229
:1048A000E0919F02F091A002309721F00084F18501
:1048B000E02D09950895FC01329697E080E0915033
:1048C00029F021912223D9F38F5FF9CF0895662330
:1048D00049F0FC01329608962191621729F0E817F9
:1048E000F907D1F780E0089581E008959C01FC016B
:1048F00032969FEF80E04191461789F09F3F19F46F
:10490000411101C0982F8F5F8630A9F79F3F39F082
:10491000F901E90FF11D97FDFA9562830895089555
:104920009C012A5F3F4FFC014281461301C0128265
:10493000019682179307B9F708950E947624089587
:104940000E9490240895029626E0FC0111922A9577
:10495000E9F7089546E050E00E94812E21E0892B7E
:1049600009F420E0822F089508950E94B424089548
:1049700083E08093A1020E94B5240895811102C0B2
:1049800081E001C082E08093A1020E94B5240895D5
:104990000E94BE24089581E08093A1020E94B52464
:1049A00008950E94CB24089508950E94D424089568
:1049B0000E94D52408950E94D42408950E94D424EE
:1049C00008950E94D4240895CF930E94DE240E946B
:1049D00001180E94DB24C0E08C2F0E94ED16892B69
:1049E00029F4CF5FC530C1F780E001C081E0CF91ED
:1049F000089585B7806885BF85B7806885BF0895AD
:104A00001F920F920FB60F9211248F939F93AF9323
:104A1000BF938091A202811113C08091C90290912D
:104A2000CA02A091CB02B091CC024196A11DB11D4A
:104A30008093C9029093CA02A093CB02B093CC0298
:104A4000BF91AF919F918F910F900FBE0F901F90CC
:104A500018958091D102843031F10E949E08109205
:104A6000A20220E488E190E00FB6F894A895809324
:104A700060000FBE2093600083B7817F846083BF96
:104A800083B7816083BF7894889583B78E7F83BF17
:104A90000FB6F894A89580916000886180936000BB
:104AA000109260000FBE08950E94C70D0E94A308D7
:104AB000089582E084BD93E095BD9AEF97BD809301
:104AC0006E0008952FB7F8948091C9029091CA02A0
:104AD000A091CB02B091CC022FBF08952FB7F894CC
:104AE0006091C9027091CA028091CB029091CC0270
:104AF0002FBF08959C014FB7F8948091C9029091FF
:104B0000CA02A091CB02B091CC024FBF821B930B83
:104B1000089578941F920F920FB60F9211248F93DD
:104B20009F93AF93BF938091C9029091CA02A091C5
:104B3000CB02B091CC020196A11DB11D8093C90298
:104B40009093CA02A093CB02B093CC02BF91AF91D5
:104B50009F918F910F900FBE0F901F90189581E03D
:104B60008093E00080E28093D8001092C9008FE12A
:104B70009EE40197F1F700C0000087E090EBDC01B4
:104B80008093DA029093DB02A093DC02B093DD0203
:104B90009CE088E10FB6F894A895809360000FBE62
:104BA00090936000FFCF9CE088E10FB6F894A89541
:104BB000809360000FBE90936000FFCF8091B102A0
:104BC0000895089524E02093E9002FEF3091E80044
:104BD000215035FD06C035ED3A95F1F70000211161
:104BE000F5CF2091E80025FF0BC040E050E066E0E3
:104BF00070E00E9437298091E8008E778093E8006A
:104C00000895CF93DF9321E02093E9002FEF3091B7
:104C1000E800215035FD06C035ED3A95F1F700006A
:104C20002111F5CF2091E80025FF14C0EC0140E0F0
:104C300050E068E070E00E9437298091E8008E77AC
:104C40008093E80088E0FE01A9EAB2E001900D92AD
:104C50008A95E1F7DF91CF9108958093A502709333
:104C6000A7026093A6028091D1028430F9F4809368
:104C7000E9008FEF9091E800815095FD06C095ED19
:104C80009A95F1F700008111F5CF8091E80085FF3A
:104C90000DC040E050E063E070E085EA92E00E94E1
:104CA00037298091E8008E778093E8000895BC0151
:104CB00084E00E942D260895BC0183E00E942D26E9
:104CC0000895CF93603219F52091D1022430F9F480
:104CD000C091E900CF703091EC00232F217030FD9E
:104CE00020E8C22B22E02093E9002091E80020FF79
:104CF0000BC040E050E060E270E00E9437298091F4
:104D0000E8008E778093E800CF70C093E900CF91E0
:104D100008958AE79BE00E94F2068091D0028111FB
:104D200009C00E94072B0E94642B8091E2008460DE
:104D30008093E200089586E79BE00E94F2061092BD
:104D4000D002089582E79BE00E94F2060E94D124DF
:104D500008958EE69BE00E94F2066091CD0281E00C
:104D6000611101C080E00E94B82408958AE69BE0AA
:104D70000E94F2069091D10281E0943009F080E027
:104D80006091CD020E94BE2408952091A4022F5F5D
:104D9000822F62E30E94092E992319F02093A40226
:104DA00008951092A4028091A802882371F1809145
:104DB000D102843041F58091E9008F702091EC00A0
:104DC000922F917020FD90E8892B95E09093E90057
:104DD0009091EB0090FF14C09091EE0097FF10C0EF
:104DE0009091E80095FF03C01092F100F9CF9091E7
:104DF000E80090FF05C09091E8009E779093E8004E
:104E00008F708093E9001092A802089542E061EC4F
:104E100081E00E94802A42E261EC84E00E94802AC4
:104E200042E261EC82E00E94802A42E260EC83E090
:104E30000E94802A42E261EC85E00E94802A9091E3
:104E4000D10281E0943009F080E06091CD020E94AF
:104E5000C82408958091D302833009F463C030F4EC
:104E6000813071F0823009F49DC008958A3009F4D0
:104E700089C08B3009F46EC0893009F0ABC020C006
:104E80008091D202813A09F0A5C08091E800877F25
:104E90008093E8008091D6029091D702892B21F46B
:104EA00068E089EA92E003C060E080E090E070E0B2
:104EB0000E94C1298091E8008B778093E8000895D3
:104EC0008091D202813209F085C08091D602909102
:104ED000D702009719F0029709F07CC08091E80092
:104EE000877F8093E8008091E80082FD05C0809173
:104EF000D1028111F8CF6EC02091F3008091F200B1
:104F000090E0922B029731F48091F100813011F002
:104F1000863021F48091F1008093B1028091E80005
:104F20008B7754C08091D202813A09F053C08091AE
:104F3000D6029091D702892B09F04CC08091E800ED
:104F4000877F8093E8008091E80080FFFCCF80910C
:104F5000160137C08091D2028132E1F58091D602EC
:104F60009091D702892BB1F58091E800877F8093DB
:104F7000E8000E94B52A8091D402809316010E9415
:104F8000C70D08958091D202813221F58091E80009
:104F9000877F8093E8000E94B52A8091D502809394
:104FA000B20208958091D202813AA1F48091E80082
:104FB000877F8093E8008091E80080FFFCCF80919C
:104FC000B2028093F1008091E8008E778093E80030
:104FD0000E94B52A08959FB7F8941092A8029FBF27
:104FE0009091D102943009F057C09091E9009F70E0
:104FF0003091EC00232F217030FD20E8922B25E02A
:105000002093E9002091EB0020FF43C02091EE00A7
:1050100027FF3FC02091A302222321F02091E80026
:1050200025FF37C01092A30226E03091E80035FD3D
:1050300015C03091D102343061F53091EB0035FD6F
:1050400028C0215021F481E08093A30222C0EFE91F
:10505000FFE03197F1F700C00000E7CF8093F10047
:105060008091E80085FD0AC08091E80080FFFCCFB8
:105070008091E8008E778093E80006C08FB7F8949F
:1050800021E02093A8028FBF9F709093E90080E0F9
:1050900008959F709093E9008FEF089584B7877FFC
:1050A00084BF0FB6F894A8958091600088618093C2
:1050B0006000109260000FBE90E080E80FB6F89498
:1050C00080936100909361000FBE0E94CB240895ED
:1050D0000E94072B0E94642BE2EEF0E08081846046
:1050E000808378940E94EE2D08958AE091E00E94DA
:1050F000CE2308958091D1028530C9F486E69BE0E5
:105100000E94F2068091D102853079F40E9429250F
:105110008091CF028823B1F30E94E424882391F385
:105120000E9421290E94C70DEDCF0E9454250895A9
:10513000A0E2B0E0EEE9F8E20C94462E8091D102B4
:10514000843011F583E08093E9008091E80082FFCC
:105150001BC08091E80085FF0AC040E050E060E29B
:1051600070E0CE0101960E947C2991E001C090E0A0
:105170008091E8008B778093E800992329F060E222
:10518000CE0101960E94461CA096E2E00C94622E8D
:105190000E94CB280895292F332723303105C9F0E9
:1051A00060F42130310581F02230310509F041C031
:1051B0008BE790E02CEC3BE040C021323105E1F080
:1051C0002232310531F135C082E190E027E43CE044
:1051D00034C099278130910549F028F0029749F5AC
:1051E000EEE7FBE005C0E8ECFBE002C0ECE9FBE029
:1051F000849190E09F0121C064307105D0F4660F66
:10520000771FFB01EA50FE4F2081318189E090E059
:1052100014C06430710568F4FB01EE0FFF1FE2510A
:10522000FE4F20813181FB01E651FE4F808190E0ED
:1052300004C080E090E020E030E0FA013183208378
:10524000089580E189BD82E189BD09B400FEFDCFEA
:105250008091D8008F7D8093D8008091E00082609B
:105260008093E0008091E00081FDFCCF0895A0E0F4
:10527000B0E0EDE3F9E20C94402EEC018B017A01F1
:105280000E94D42A811133C0E114F10439F0F701EE
:1052900080819181081B190BC80FD91FC12CD12CFB
:1052A0000115110519F18091E80085FD16C0809166
:1052B000E8008E778093E800E114F10449F0F701EB
:1052C00080819181C80ED91ED182C08285E00FC035
:1052D0000E94D42A882321F30AC089918093F10087
:1052E00001501109FFEFCF1ADF0ADACF80E0CDB706
:1052F000DEB7E8E00C945C2EA0E0B0E0E2E8F9E272
:105300000C94402EEC018B017A010E94D42A811169
:1053100033C0E114F10439F0F70180819181081B59
:10532000190BC80FD91FC12CD12C0115110519F16A
:105330008091E80085FD16C08091E8008B7780930E
:10534000E800E114F10449F0F70180819181C80E71
:10535000D91ED182C08285E00FC00E94D42A882342
:1053600021F30AC08091F100899301501109FFEFE8
:10537000CF1ADF0ADACF80E0CDB7DEB7E8E00C94D1
:105380005C2E2091D8023091D9022617370748F0B9
:105390006115710539F42091E8002E772093E8001B
:1053A00001C0B901FC0120E06115710579F180911E
:1053B000D1028823F1F18530F1F18091E80083FD7D
:1053C0003CC08091E80082FD2EC08091E80080FF03
:1053D000EBCF2091F3008091F20090E0922B6115C9
:1053E000710551F08830910538F421912093F10036
:1053F000615071090196F3CF21E0089709F020E090
:105400008091E8008E778093E800CECF2111CFCF36
:105410000AC08091D102882361F0853061F08091CB
:10542000E80083FD0AC08091E80082FFF2CF80E0AF
:10543000089582E0089583E0089581E00895209121
:10544000D8023091D9022617370748F06115710547
:1054500039F42091E8002E772093E80001C0B901CB
:10546000FC0120E06115710591F18091D102882342
:1054700009F440C0853009F43FC08091E80083FD05
:105480003DC08091E80082FD2FC08091E80080FF40
:10549000E9CF2091F3008091F20090E0922B61150A
:1054A000710559F08830910540F424912093F10062
:1054B0003196615071090196F2CF21E0089709F009
:1054C00020E08091E8008E778093E800CBCF211117
:1054D000CCCF0AC08091D102882361F0853061F081
:1054E0008091E80083FD0AC08091E80082FFF2CF3E
:1054F00080E0089582E0089583E0089581E00895B2
:10550000982F973068F59093E900981739F07091CB
:10551000EC002091ED005091F00003C0242F762F75
:1055200050E021FD02C09F5FECCF3091EB003E7F49
:105530003093EB003091ED003D7F3093ED003091E2
:10554000EB0031603093EB007093EC002093ED00A2
:105550005093F0002091EE0027FDE5CF80E0089504
:105560008F708093E90081E008958091D20287FFD7
:1055700011C08091E80082FD05C08091D1028111A7
:10558000F8CF11C08091E8008B770BC08091D102D9
:10559000882349F08091E80080FFF8CF8091E800EF
:1055A0008E778093E80008952091E4003091E50023
:1055B00095E64091EC00842F817040FF23C08091DC
:1055C000E80080FD1DC08091D102882399F08530CC
:1055D00099F08091EB0085FD11C04091E40050915D
:1055E000E5002417350729F3915011F09A01E1CF16
:1055F00084E0089582E0089583E0089581E00895AD
:1056000080E008954091E80042FFDDCF08950E94B8
:10561000762B0E947E2BE0EEF0E08081816080831B
:10562000E8EDF0E080818F77808319BCA7EDB0E0D2
:105630008C918E7F8C9380818F7E80831092D0029C
:1056400008950F931F93CF93DF930E94762B0E94B0
:105650007E2BC8EDD0E088818F7788838881806831
:10566000888388818F7D888319BC1092D102109223
:10567000CD021092CF021092CE0200EE10E0F8019F
:1056800080818B7F808388818160888342E060E0B5
:1056900080E00E94802AE1EEF0E080818E7F8083AE
:1056A000E2EEF0E080818160808380818860808389
:1056B000F80180818E7F8083888180618883DF917B
:1056C000CF911F910F910895E8EDF0E080818F7EDA
:1056D0008083E7EDF0E080818160808384E082BF99
:1056E00081E08093D0020E94212B0895E8EDF0E044
:1056F00080818E7F80831092E20008951092DA00FC
:105700001092E10008951F920F920FB60F9211248C
:105710002F933F934F935F936F937F938F939F93B9
:10572000AF93BF93EF93FF938091E10082FF0BC093
:105730008091E20082FF07C08091E1008B7F80931F
:10574000E1000E94C5268091DA0080FF1FC0809191
:10575000D80080FF1BC08091DA008E7F8093DA0032
:105760008091D90080FF0DC080E189BD82E189BDB3
:1057700009B400FEFDCF81E08093D1020E9489260A
:1057800005C019BC1092D1020E949B268091E100B5
:1057900080FF19C08091E20080FF15C08091E20077
:1057A0008E7F8093E2008091E20080618093E2002E
:1057B0008091D80080628093D80019BC85E08093E6
:1057C000D1020E94A9268091E10084FF30C080911F
:1057D000E20084FF2CC080E189BD82E189BD09B46B
:1057E00000FEFDCF8091D8008F7D8093D8008091FE
:1057F000E1008F7E8093E1008091E2008F7E8093B4
:10580000E2008091E20081608093E2008091CD020D
:10581000882311F084E007C08091E30087FD02C077
:1058200081E001C083E08093D1020E94B62680917E
:10583000E10083FF29C08091E20083FF25C08091B1
:10584000E100877F8093E10082E08093D102109293
:10585000CD028091E1008E7F8093E1008091E20093
:105860008E7F8093E2008091E20080618093E2006D
:1058700042E060E080E00E94802A8091F000886031
:105880008093F0000E94A226FF91EF91BF91AF910B
:105890009F918F917F916F915F914F913F912F9148
:1058A0000F900FBE0F901F9018951F920F920FB67A
:1058B0000F9211242F933F934F935F936F937F9396
:1058C0008F939F93AF93BF93CF93DF93EF93FF9308
:1058D000C091E900CF708091EC00D82FD17080FD8D
:1058E000D0E81092E9008091F000877F8093F0006B
:1058F00078940E94992C1092E9008091F0008860C1
:105900008093F000CD2BCF70C093E900FF91EF9111
:10591000DF91CF91BF91AF919F918F917F916F91C7
:105920005F914F913F912F910F900FBE0F901F905D
:105930001895AAE2B0E0EFE9FCE20C94452EE2ED06
:10594000F2E08091F100819322E0EA3DF207C9F78D
:105950000E942A278091E80083FF2EC18091D20205
:105960009091D302492F50E04A30510508F024C1EC
:10597000FA01EB58FF4F0C94292E803821F0823821
:1059800009F01AC108C08091CE029091CF029923EC
:1059900089F082600FC08091D6028F70873008F046
:1059A0000BC18093E9008091EB0085FB882780F98B
:1059B0001092E9009091E800977F9093E80080931F
:1059C000F1001092F100D1C0282F2D7F09F0F4C012
:1059D000882319F0823061F0EFC08091D4028130C9
:1059E00009F0EAC0933009F080E08093CF022EC026
:1059F0008091D40281112AC08091D6028F702FEF3E
:105A0000280F263008F0D8C08093E9002091EB00E1
:105A100020FF1CC0933021F48091EB00806214C001
:105A20009091EB0090619093EB0021E030E0A901B0
:105A300002C0440F551F8A95E2F74093EA00109286
:105A4000EA008091EB0088608093EB001092E900FF
:105A50008091E800877F8093E8000E94B52AACC05F
:105A60008111AAC01091D4021F778091E300807841
:105A7000812B8093E3008091E800877F8093E8008A
:105A80000E94B52A8091E80080FFFCCF8091E3005E
:105A900080688093E300111102C082E001C083E0BE
:105AA0008093D10289C08058823008F085C08091EF
:105AB000D4029091D5028C3D53E0950779F583E0AF
:105AC0008A838AE289834FB7F894DE01139620E037
:105AD0003EE051E2E32FF0E050935700E49120FFC5
