:100000000C9432040C944F040C944F040C944F0441
:100010000C944F040C944F040C944F040C944F0414
:100020000C944F040C944F040C94D92B0C94AB2CCF
:100030000C942A260C944F040C944F040C944F04F7
:100040000C944F040C944F040C944F040C944F04E4
:100050000C944F040C94B3260C944F040C944F044E
:100060000C944F040C944F040C944F040C944F04C4
:100070000C944F040C944F040C944F040C944F04B4
:100080000C944F040C944F040C944F040C944F04A4
:100090000C944F040C944F040C944F040C944F0494
:1000A0000C944F040C944F040C944F048908890855
:1000B000B508B5081D093B09220A220A4609AE09FE
:1000C000BF09BF09DF20E220022113211B212621C5
:1000D00029212C212F2175217521322135213A2109
:1000E0004721542157215B216821132D3A2D322EAF
:1000F0003A2D322E862DA92D322E002E0F2E526132
:100100006469616C65780014421A000800150017D4
:10011000001C0018000C0012001300040016000759
:100120004209000A000B000D000E420F0028001DBE
:10013000621B680600190005001100100036003728
:10014000612A00E000E300E20091642B622C009041
:1001500041E600E700E4002900E1004C00E50080F2
:100160005F00000000000000001E001F00200021B2
:10017000002200230024002500260027002E612FE6
:100180000038002D00870033003400300032008931
:10019000002F622F0238022D028702330234023010
:1001A0000232028902010001000100010001000188
:1001B000000100010001000100E000010001000158
:1001C000000100000000000000000029002B0000DA
:1001D000000000000000000000520000000000E0ED
:1001E00000010038021E0200000000500051004FC4
:1001F000000000E100E300E2009100010001009036
:1002000000000003514C0001000100010001000149
:1002100000010001000100010001000100010001D6
:1002200000010001000000000000000000C25CC3EB
:100230005CC55CC75CC95C3A003B003C003D003ECD
:1002400000CD5CCE5CCF5CD05CD15C3F0040004117
:100250000042004300D25CD35CD45CD55CD55C44E6
:10026000004500390000000000010001000100010C
:100270000001000100010001000100010001000176
:10028000000100010001000000000000000000016A
:100290000001000100010001000100010001000156
:1002A0000001000100010001000100010001000146
:1002B0000001000100010001000100010001000136
:1002C0000001000100010001000100010001000126
:1002D0000001000100010001000100010001000116
:1002E000000100010001000100000000000000000A
:1002F00000010001000100010001000100010001F6
:1003000000010001000100010001000100010001E5
:1003100000010001000100010001000100010001D5
:1003200000010001000100010001000100010001C5
:1003300000010001000100010001000100010001B5
:1003400000010001000100010001000000000000A8
:100350000000000100010001000100010001000196
:100360000001000100010001000100010001000185
:100370000001000100010001000100010001000175
:100380000001000100010001000100010001000165
:100390000001000100010001000100010001000155
:1003A0000001000100010001000100010000000047
:1003B0000000000000010001000100010001000137
:1003C0000001000100010001000100010001000125
:1003D0000001000100010001000100010001000115
:1003E0000001000100010001000100010001000105
:1003F00000010001000100010001000100010001F5
:1004000000010001000100010001000100010000E5
:100410000000000000000000000000000000002AB2
:100420002B28000000000000000000000000000079
:10043000000029000000002C1E3420212224342634
:1004400027252E362D3738271E1F2021222324252D
:10045000263333362E37381F0405060708090A0BE2
:100460000C0D0E0F101112131415161718191A1B54
:100470001C1D2F3130232D350405060708090A0BF2
:100480000C0D0E0F101112131415161718191A1B34
:100490001C1D2F3130354C00000000000000000012
:1004A000000000000000000000000000000000004C
:1004B00000000000000000000000007E0F00D4FFDC
:1004C000FFFFC7000000781E0F0500047F3F1F6478
:1004D0003214643214783C1E1E140A052223252689
:1004E00028292A2C2D2F3032333536383A3B3D3EE1
:1004F0004042434547494A4C4E5051535557595A2B
:100500005C5E6062646668696B6D6F717375777944
:100510007B7D7F81838587898A8C8E909294969843
:100520009A9C9E9FA1A3A5A7A8AAACAEAFB1B3B455
:10053000B6B8B9BBBCBEBFC1C2C3C5C6C7C9CACBAA
:10054000CCCDCED0D1D2D2D3D4D5D6D7D7D8D9D975
:10055000DADADBDBDBDCDCDCDCDCDDDDDDDDDCDCDE
:10056000DCDCDCDBDBDBDADAD9D9D8D7D7D6D5D4FB
:10057000D3D2D2D1D0CECDCCCBCAC9C7C6C5C3C2C7
:10058000C1BFBEBCBBB9B8B6B4B3B1AFAEACAAA81C
:10059000A7A5A3A19F9E9C9A98969492908E8C8AD0
:1005A00089878583817F7D7B79777573716F6D6BAB
:1005B0006968666462605E5C5A5957555351504E83
:1005C0004C4A4947454342403E3D3B3A3836353335
:1005D00032302F2D2C2A292826252322FFAA7F55A9
:1005E00040000101010101010101010202020202B8
:1005F00002020202030303030303030304040404CB
:100600000404040505050505060606060607070792
:10061000070708080808090909090A0A0A0B0B0B49
:100620000C0C0C0D0D0D0E0E0E0F0F0F10101111E6
:10063000111212131314141515161617171818196A
:10064000191A1A1B1B1C1D1D1E1E1F2020212222D1
:10065000232424252626272829292A2B2C2D2D2E14
:100660002F30313232333435363738393A3B3C3D2E
:100670003E3F404142434445464748494A4C4D4E1F
:100680004F50515354555658595A5B5D5E5F6162E5
:1006900064656668696B6C6D6F7072737577787A74
:1006A0007B7D7E8082838587888A8C8E8F919395CF
:1006B00096989A9C9EA0A2A3A5A7A9ABADAFB1B3F3
:1006C000B5B7BABCBEC0C2C4C6C9CBCDCFD1D4D6D3
:1006D000D8DBDDDFE2E4E7E9EBEEF0F3F5F8FAFD75
:1006E000FF1203520061006400690061006C006544
:1006F00000780000001E03740061006B006100734D
:10070000006800690063006F006D00700061006E9A
:1007100000790000000403090409025B00030100E2
:10072000A0FA0904000001030101000921110100E0
:1007300001224000070581030800010904010002AD
:100740000300000009211101000122220007058297
:100750000320000107050303200001090402000132
:1007600003000000092111010001227B000705841C
:100770000320000112010002000000086374190048
:100780000100010200010660FF0961A10109621573
:100790000026FF009520750881020963150026FFD9
:1007A00000952075089102C005010902A10185028A
:1007B0000901A1000509190129081500250195085D
:1007C000750181020501093009311581257F9502E6
:1007D0007508810609381581257F95017508810600
:1007E000050C0A38021581257F950175088106C020
:1007F000C005010980A101850319012AB70015016F
:1008000026B700950175108100C0050C0901A101F2
:10081000850419012AA002150126A0029501751070
:100820008100C005010906A101050719E029E715A6
:100830000025019508750181029501750881010562
:1008400007190029FF150026FF009506750881008D
:100850000508190129059505750191029501750392
:100860009101C00011241FBECFEFDAE0DEBFCDBF83
:1008700011E0A0E0B1E0E0E3F0E602C005900D92E7
:10088000A83DB107D9F723E0A8EDB1E001C01D9262
:10089000AC30B207E1F70E94F5140C9416300C94BA
:1008A000000080389F4561F4FB018281882349F074
:1008B0008EEF90E00E949A060E94CA1D80E0089583
:1008C00081E0089581E008950E94510408950895FB
:1008D0000E9467040895A5E0B0E0E1E7F4E00C941D
:1008E000112F49835A833091DB0189819A8131111B
:1008F00014C0662359F0222349F00E94CD0B182F13
:10090000682F89819A810E94A90B03C00E94BB0BAA
:10091000182F69817A81812F04C00E94CD0B6981D3
:100920007A810E948E232596E3E00C942D2FFC0102
:10093000262F408151816281738184810E946B04E2
:10094000089581E00895CF93DF93EC0160E00E9469
:100950009704BE010E946804DF91CF910895E1E001
:10096000F0E0DF0102C0AA0FBB1F6A95E2F7BD01EC
:10097000DF0102C0AA0FBB1F4A95E2F7AD01462B6B
:1009800001C0EE0F2A95EAF7942F9823491302C06D
:100990008E2B0895E0958E230895242F462F682FDF
:1009A0008091F1010E94AF040E94080B08950E94FB
:1009B000C71308950E94C113089508950E94A50ABF
:1009C0000E94DD042FEF84E39CE0215080409040A2
:1009D000E1F700C0000008950E94DE040E94D926BD
:1009E00008950E94DE040E94EA2608950F931F9343
:1009F000CF93DF938C0161E00E949704EC01B80172
:100A00000E943C20882309F44EC0B801CE010E9408
:100A10006404882309F447C0B801CE010E94D82499
:100A2000882309F440C0B801CE010E9480218823A8
:100A3000D1F1B801CE010E943E248823A1F1B80172
:100A4000CE010E94D91E882371F1F801828188238A
:100A500031F1CA358DE5D807E9F050F4C115FCE550
:100A6000DF0779F0CE3DDC45D1F40E94C2100CC006
:100A7000CC35EDE5DE0759F080F0C73ADD4521F0D1
:100A80000EC00E94EC040FC00E94F1040CC00E9432
:100A9000F90F05C00E94031002C00E940710C80190
:100AA0000E94620401C080E0DF91CF911F910F91FD
:100AB00008950E9403260E94B1060E943D1D0895DC
:100AC0000E94B5060E94141E0E940C260895A0E004
:100AD000B0E0EDE6F5E00C940D2FE82FF0E0E95ED4
:100AE000FB4FD490282F26952695269530E0F901C6
:100AF000E954FB4F0491877010E0082E02C0159551
:100B000007950A94E2F701701127F901E955FB4FA7
:100B1000E490F12C082E02C0F594E7940A94E2F7D1
:100B200091E0E922FF24F901E956FB4FC491D0E09E
:100B300002C0D595C7958A95E2F7C170DD270115EA
:100B4000110519F081EE0E940C07E114F10419F06F
:100B500086EE0E940C078D2D0E943808E114F104E6
:100B600019F086EE0E94B5070115110519F081EE06
:100B70000E94B507CD2B19F08CE20E943808CDB742
:100B8000DEB7E7E00C94292FEF92FF920F931F93AB
:100B9000CF93DF93EC01162F0AE08881882309F4B4
:100BA00055C0813009F043C08981813041F47E0114
:100BB00082E0E80EF11C8A810E94380809C0823068
:100BC00049F47E01E2E0EE0EF11C8A810E940C07DE
:100BD000E7012FC0833041F47E01F2E0EF0EF11CFB
:100BE0008A810E94B507F4CF843011F0219621C08C
:100BF0002A81229680E090E030E0205331092A30AB
:100C0000310558F4089FA001099F500D1124C90116
:100C1000840F951F21962881EFCF009751F0EFE9BF
:100C2000FFE03197F1F700C000000197F6CF0E9476
:100C300067052196812F882309F4AFCFEFE9FFE004
:100C40003197F1F700C000008150F5CFCDB7DEB786
:100C5000E6E00C942A2F60E00E94C4050895EF920C
:100C6000FF920F931F93CF93DF938C01F62E8AE0B0
:100C7000E82EF8018491882309F457C0813009F0E7
:100C800042C0E8012196FE018491813031F4219621
:100C9000FE0184910E94380839C0823039F4E8019D
:100CA0002296FE0184910E940C0730C0833039F4F3
:100CB000E8012296FE0184910E94B50727C0843086
:100CC00029F5E8012296FE01249180E090E030E0D1
:100CD000205331092A30310560F4E89EA001E99ED5
:100CE000500D1124C901840F951F2196FE012491F6
:100CF000EECF009759F0EFE9FFE03197F1F700C030
:100D000000000197F6CF0E946705E8018E010F5F92
:100D10001F4F8F2D882309F4ACCFEFE9FFE0319707
:100D2000F1F700C000008150F5CFCDB7DEB7E6E0A7
:100D30000C942A2F60E00E942F06089508950E94C7
:100D40009E06089581E008950E94A20608950895E0
:100D5000CF93C82F0E949F068C2F0E94A406CF918C
:100D6000089580E00E94A80608950E9434250E94FC
:100D7000A80608950E9434259091DA01891721F080
:100D80008093DA010E94A8060895ABE0B0E0EBEC96
:100D9000F6E00C94122F4F83588769877A878B87E8
:100DA00061110E94410F9E012F5F3F4F86E0F901C4
:100DB00011928A95E9F785E0FE013796D9010190F5
:100DC0000D928A95E1F789819A814C815D81452B4D
:100DD00031F09F3F31F491E08F3F19F403C091E06F
:100DE00001C090E090FF09C049815A816B817C81EC
:100DF0008D819E810E946D0E05C0C9010E94A104D3
:100E00008111F2CF2B96E2E00C942E2FFC01808111
:100E100091810E94FA0B0895CF93882309F4A3C00F
:100E2000C82F8238C1F40E94342581FD9CC069E33B
:100E300080910401909105010E94C8250E94650FD0
:100E40002FEF81EE94E0215080409040E1F700C008
:100E5000000069E319C0833801F50E94342580FD44
:100E600082C063E580910401909105010E94C8252C
:100E70000E94650F2FEF81EE94E02150804090405A
:100E8000E1F700C0000063E5809104019091050145
:100E90000E94CB250E94650F66C08438C1F40E9471
:100EA000342582FD60C067E48091040190910501C2
:100EB0000E94C8250E94650F2FEF81EE94E021501B
:100EC00080409040E1F700C0000067E4DDCF8CEF88
:100ED0008C0F813AD0F46C2F809104019091050120
:100EE0000E949225882349F06C2F809104019091F3
:100EF00005010E94CB250E94650F6C2F8091040193
:100F0000909105010E94C825C5CF80E28C0F8830E2
:100F100048F4C77081E001C0880FCA95EAF70E94C3
:100F2000240FB8CFEBE5EC0FE33040F4F0E0E45AE7
:100F3000FE4F808190E00E945A2515C0E8E5EC0F35
:100F4000E73150F4F0E0EE0FFF1FE25DFE4F8081CD
:100F500091810E94702507C0C03F28F08C2F0E940D
:100F60007A150E944C16CF910895882309F467C022
:100F7000823879F40E94342581FF61C069E3809151
:100F80000401909105010E94C8250E94650F69E344
:100F900010C08338B9F40E94342580FF50C063E547
:100FA00080910401909105010E94C8250E94650F5F
:100FB00063E580910401909105010E94CB250E9478
:100FC000650F0895843879F40E94342582FF37C074
:100FD00067E480910401909105010E94C8250E9458
:100FE000650F67E4E6CF9CEF980F913A10F4682FF5
:100FF000E0CF90E2980F983050F4877091E001C0F4
:10100000990F8A95EAF7892F0E942A0FD8CF9BE57E
:10101000980F933028F480E090E00E945A250895BC
:1010200098E5980F973128F480E090E00E947025B1
:101030000895803F20F00E94D5150E944C16089517
:101040001F93CF93DF93182FEB010E940C0720977B
:1010500041F08FE99FE00197F1F700C00000219770
:10106000F6CF812F0E94B507DF91CF911F91089590
:10107000893319F060E070E002C060E570E00E9422
:1010800020080895882321F00E94240F0E94650FF4
:101090000895882321F00E942A0F0E94650F089569
:1010A000A0E0B0E0E6E5F8E00C940C2F7C01162FF0
:1010B000C72FFC01D281058102950F700E941A0F83
:1010C0008823B9F0DD23A9F08C2F807F803421F0B4
:1010D00080E2810F883068F08091C30282FF09C0EE
:1010E00082E00E94C70F0E941A0F91E0D82ED926E5
:1010F00001C0D12CCC2EC2948FE0C8228C2D90E060
:101100008C30910508F09EC1FC01EA5AFF4F0C9407
:10111000C42E8C2F807FCF70882311F0C295C07FA2
:10112000DD2399F0CC2309F479C180E2810F883066
:1011300010F0111104C08C2F0E94240F03C08C2FBB
:101140000E94340F0E94650F69C1812F0E94B5076C
:10115000CC2309F477C180E2810F883038F1112364
:1011600029F18C2F0E943A0F24C08C2F807FCF70E2
:10117000803211F0C295C07F112319F01130A1F116
:101180003DC08091C30282FD17C0DD2349F0CC230E
:1011900029F08C2F0E94240F0E94650F80E03FC130
:1011A00080E00E94B507CC2309F44CC18C2F0E942B
:1011B0002A0F0E94650F46C1DD2371F0002341F024
:1011C000013031F40E94440F8C2B0E944E0F3AC123
:1011D0000E94440F8C2B1DC0002319F0013009F42C
:1011E00031C10E945B0F25C0DD2321F0063008F0DD
:1011F00029C10EC0053008F025C11BC0DD2361F0F8
:10120000002331F0F701858180FF08C18F7085834D
:101210008C2F0E94420816C1002359F0193309F09F
:101220000EC1FFEF27EE83E0F15020408040E1F750
:1012300004C18C2F0E94490805C18C2F8695869584
:10124000837019F0813061F0FDC0DD2321F0812F22
:101250009C2F937002C080E090E00E945A25FAC053
:10126000DD2321F0812F9C2F937002C080E090E05D
:101270000E947025EFC0812FDD2319F00E947A159E
:1012800002C00E94D5150E944C16E4C08C2F8370BA
:1012900079F5D111DBC0412F429546954770440F37
:1012A000440F212F2F70042E01C0220F0A94EAF759
:1012B00014FF08C08FE090E001C0880F4A95EAF75C
:1012C000809501C080E0C695C695C370822BC23060
:1012D00049F058F4C13019F00E94F90AB7C00E94D1
:1012E000F30AB4C00E94FF0AB1C00E94F00AAEC067
:1012F000DD2319F08C2F817001C08695882309F4B5
:10130000A5C0412F429546954770440F440F212FA9
:101310002F70042E01C0220F0A94EAF714FF08C0B0
:101320008FE090E001C0880F4A95EAF7809501C0F0
:1013300080E0C695C695C370822BC23049F058F440
:10134000C13019F00E94470B81C00E94410B7EC042
:101350000E944D0B7BC00E94080B78C0CF70DD232C
:1013600039F08C2F0E941C0B812F0E9442086EC006
:10137000812F0E9449088C2F0E94280B67C0123FC2
:1013800021F128F4103F41F0113FC1F043C0133F59
:1013900019F1143F79F03EC0DD2341F0053008F02B
:1013A00051C08C2F8F710E94350B4CC0063008F055
:1013B00049C0F7CF8091C30282FD18C0DD2339F008
:1013C0008C2F8F710E941C0B3DC0DD23C9F38C2F25
:1013D0008F710E94280B36C0DD2329F08C2F8F716E
:1013E0000E94130B2FC00E940F0B2CC0DD2349F06D
:1013F000CF718C2F0E941C0B63E08C2F0E94A90FD1
:1014000021C081E00E94C70F0230E0F082E00E941C
:10141000C70F18C0DD2331F0002391F2812F0E9405
:101420000C0710C0002399F2193349F49FEFE7EE3F
:10143000F3E09150E040F040E1F700C00000812F60
:101440000E94B50788EF8C0D843020F40E9434256B
:101450000E94A806DD2089F00E94160F80FD0DC0B5
:10146000F70112820E94100F0E941C0BC7010E94FC
:101470005A0A0E94100F0E94280BCDB7DEB7E8E091
:101480000C94282F0F931F93CF93DF93EC01688167
:1014900079818A810E94050C8C010E94530B0E9465
:1014A000E10AB801CE010E945008DF91CF911F914F
:1014B0000F910895CF93DF93EC01988189812B815F
:1014C0003C81232B31F08F3F31F481E09F3F19F4B1
:1014D00003C081E001C080E080FD1AC0CE010E94FF
:1014E000F60481110FC00E941A0F882389F08A81A7
:1014F000882371F08091C30282FF0AC082E00E94BB
:10150000C70F06C0CE010E94420ACE010E94A3046A
:10151000DF91CF91089580E090E00E945A2580E00D
:1015200090E00E9470250E94410F0E94650F0E946A
:101530006B160E944C16089580910401909105014C
:101540000E94CE250E948B0A08950E94310F0E94AE
:101550009C0A089592959F70963079F010F49250FD
:1015600001C09A50923068F4803F69F018F4883EC8
:1015700040F409C0843F29F406C0883E20F0813F32
:1015800011F080E0089581E00895FC01808191814F
:101590000E94FA0B0E94AA0A0895A5E0B0E0E3EDCC
:1015A000FAE00C94122F2596E2E00C942E2FA6E080
:1015B000B0E0EDEDFAE00C94122F2696E2E00C94E8
:1015C0002E2F089508950E94E20A08950E94E30ACA
:1015D00008950E94E60A8093F2010E948B0A089502
:1015E0000E94E90A08959091F201892B0E94E90A6C
:1015F00008959091F20189230E94E90A089590913B
:10160000F20189270E94E90A08950E94E20A0895DA
:101610000E94050B8093F1010E948B0A089580E0DF
:101620000E94080B089591E001C0990F8A95EAF78E
:10163000892F0E94080B089521E030E001C0220F9D
:101640008A95EAF78091F101822B0E94080B089598
:1016500021E030E001C0220F8A95EAF720958091C1
:10166000F10182230E94080B089521E030E001C0BF
:10167000220F8A95EAF78091F10182270E94080BD8
:1016800008959091F101892B0E94080B0895909183
:10169000F10189230E94080B08959091F101892797
:1016A0000E94080B08950895962F9770A1E001C03D
:1016B000AA0F9A95EAF793E0769567959A95E1F7E0
:1016C000FB01EE0FFF1F6E0F7F1FFA01E60FF71FE2
:1016D00040E050E0682F70E090819B01042E02C032
:1016E000369527950A94E2F72170219529272A2318
:1016F000292721934F5F5F4F4330510569F70895C4
:101700009B01782F777043E0969587954A95E1F78E
:10171000FC01EE0FFF1F8E0F9F1FF901E80FF91F4D
:1017200040E050E080E0219130E0072E02C0369585
:1017300027950A94E2F721703327042E01C0220F67
:101740000A94EAF7822B4F5F5F4F4330510559F7F8
:101750000895282F973070F4873060F4862F622F19
:1017600070E027E0929F600D711D11244CED51E057
:101770000E94540B0895973070F4873060F4292F3D
:1017800090E06CED71E037E0239F800D911D1124F6
:101790000E94800B089580E00895CF92DF92FF921F
:1017A0000F931F93CF93DF936C010091F101809110
:1017B000F201082BC7E0D0E010E0C8010C2E02C0F7
:1017C000959587950A94E2F780FD04C02197A8F7C4
:1017D000F12C07C0FC2EB6018C2F0E949A120197A3
:1017E000A9F38F2DDF91CF911F910F91FF90DF9083
:1017F000CF900895CF93DF93EC010E94CD0BBE01F3
:101800000E949A12DF91CF9108951F93CF93DF9397
:10181000EB019091DB01992321F0CB010E94FA0B9F
:1018200013C0882349F0CB010E94CD0B182F682FDD
:10183000CE010E94A90B04C0CB010E94BB0B182F44
:10184000BE01812F0E949A12DF91CF911F910895BE
:101850001F93CF93DF93C091F30116E08091F401C1
:10186000C81799F0D0E01C9FF0011D9FF00D1124C6
:10187000EB50FE4F4081518162817381848195815B
:101880000E94D70A2196C770E9CFDF91CF911F91AF
:10189000089540912502509126026091270270918F
:1018A00028028091290290912A020E94D70A089565
:1018B0000F931F93CF93DF9380912A0282958F70AD
:1018C00009F05AC080912702882309F455C08091FD
:1018D000F3011091F4016091250270912602C091EC
:1018E0002802D091290291E06F3F09F090E0292F62
:1018F00006E0811709F440C0209721F07F3F21F0D6
:1019000030E003C031E001C0322F90E030FD31C043
:10191000089FF001099FF00D1124DF01AB50BE4F6D
:1019200011963C911197371324C03C91361321C076
:1019300012963C91129731111CC013964D915C91F7
:1019400014974C1B5D0B483C510598F480912A027A
:101950008F70806180932A02E650FE4F80818F70E5
:101960008061808385E292E00E945A0A0E94280CDE
:1019700003C001968770BDCFDF91CF911F910F916A
:101980000895A1E1B0E0E7ECFCE00C94092F8C0194
:1019900085E0F801DE011D9601900D928A95E1F730
:1019A000F801E280909125026091260220912802A0
:1019B000309129022115310531F06F3F31F481E07A
:1019C0009F3F19F403C081E001C080E0F82FF1705F
:1019D0009F2E80FD40C1F80140815181A380B480D9
:1019E00085E2C82E82E0D82EF0902702F501E21B96
:1019F000F30BFF2009F4DAC080912A02E83CF105DC
:101A000008F096C0282F207F09F053C0561313C04A
:101A1000491311C0FE2CE1100EC08F7080618093BD
:101A20002A020E94490CC6010E945A0A80912A0289
:101A3000F80185834DC1A114B10431F05F3F31F449
:101A400081E04F3F19F403C081E001C080E080FDD8
:101A500003C081E08E2502C080E090E0F82FF17095
:101A6000FF2E80FF1CC08091F3012091F40136E02D
:101A7000821709F40BC190E0389FF001399FF00DF7
:101A80001124EB50FE4F6181561306C0608146134E
:101A900003C06281E61203C001968770E9CFFE2C75
:101AA000EE2009F415C180912A02816080932A02F8
:101AB00054C0561306C0491304C0E11002C0F80117
:101AC00099C0C8010E94C50A882361F1EE2051F136
:101AD00020912A02822F82958F7090E0029774F0F5
:101AE000809125029091260298878F831986BB8664
:101AF000AA862C87CE0107960E945A0A86E0F80132
:101B0000A5E2B2E001900D928A95E1F70E94580C8F
:101B10000E94490C0AC0561711F1C8010E94C50A5B
:101B200081112CC0C8010E945A0AFF24F394D0C02E
:101B3000282F207F81F77A2DB98AA88A6E2D89896E
:101B40000E94CD0A85E292E00E945A0A86E0F601E0
:101B500011928A95E9F70E94490CF12CB9C04913FA
:101B6000DCCFE110DACFF8018583C8010E945A0A60
:101B700086E0F60111928A95E9F7AAC0EE2091F26B
:101B800020912A02822F82958F7090E002970CF4A8
:101B9000B5CF80912502909126029A8389831B827A
:101BA000BD82AC822E83CE010196A6CFE83CF10522
:101BB00008F044C0FE2CEE2009F4B4CF561330C018
:101BC00049132EC020912A0220FD21C0822F829528
:101BD0008F70482F50E041155105C9F0F801258359
:101BE0004F30510541F08F5F982F9295907F822F53
:101BF0008F70892B8583C8010E945A0A86E0F801FC
:101C0000A5E2B2E001900D928A95E1F73CC086E032
:101C1000F801A5E2B2E001900D928A95E1F758C073
:101C2000C8010E94C50A811169CF80912A02816092
:101C300080932A02C8010E945A0A4AC07A2DB98AA2
:101C4000A88A6E2D89890E94CD0A86E0F60111923C
:101C50008A95E9F718C0EE2009F464CFC8010E9404
:101C6000C50AF82E882309F45DCF86E0F801A5E2C5
:101C7000B2E001900D928A95E1F785E292E00E9430
:101C800006070E94580C0E94490C22C04D875E87AF
:101C90008D859E850E94FA0B292F22952F70223068
:101CA00028F49F7039F0811105C00BC0243028F44E
:101CB0009F7049F4805E883020F0C8010E945A0A63
:101CC0009F2CF92C05C0F8019581907F99F7F9CFE9
:101CD0008F2D6196EBE00C94252FACE0B0E0E3E7AC
:101CE000FEE00C94112F4F83588769877A878B8782
:101CF0009C87CE0107960E94C10C8823D1F09F815A
:101D000088852A853B85232B31F08F3F31F481E094
:101D10009F3F19F403C081E001C080E080FD47C00F
:101D20004F81588569857A858B859C850E94D70A65
:101D30003EC086E0FE013796DE01119601900D92BD
:101D40008A95E1F7FF81E8856A857B8561157105D4
:101D500031F0EF3F31F481E0FF3F19F403C081E03F
:101D600001C080E080FD23C02091F40130E0C90172
:101D70000196877099274091F30150E084179507E9
:101D8000F1F1F983EA837D836C8396E0929FD00121
:101D9000939FB00D1124AB50BE4FFE0131960190C0
:101DA0000D929A95E1F78093F4010E94280C16E0B9
:101DB0008091F3019091F401891771F1189FC0018E
:101DC00011248B509E4F0E94C10C882329F1E09171
:101DD000F3011E9FF0011124EB50FE4F4081518111
:101DE00062817381848195810E94D70A8091F30179
:101DF00090E00196877099278093F301D9CF0E94D4
:101E0000A50A1092F4011092F301E5E2F2E086E0F7
:101E1000DF011D928A95E9F72C96E3E00C942D2FB3
:101E2000809133028595859585950895809133023B
:101E30008770089590913302977081E009F480E0F3
:101E4000089580913E02089590913E02892B8093DF
:101E50003E020895809590913E02892380933E0230
:101E6000089510923E02089590913D02892B80932F
:101E70003D020895809590913D02892380933D0213
:101E8000089510923D0208958091340208950895B6
:101E90000E94470F08950E94480F08959091C30231
:101EA00092FF08C090913402981721F08093340279
:101EB0000E944B0F089580913402882329F01092DC
:101EC000340280E00E944B0F0895CF93DF93E0919E
:101ED0000401F091050180913E028083E0910401AC
:101EE000F0910501908180913D02892B8083809142
:101EF0003402882381F0E0910401F0910501908182
:101F0000892B808380910401909105010E94862590
:101F100081110E945B0FC0910401D091050148E03E
:101F200050E06BE272E0CE010E94A22F892B59F0A3
:101F300088E0FE01ABE2B2E001900D928A95E1F7F4
:101F4000CE010E944125DF91CF9108950E94470F55
:101F500008959091C30292FF11C098E0899F90016B
:101F60001124262B209333020E941C0B80913302F4
:101F70008595859585950E94A60F08950E941C0B56
:101F800008951092330280E00E94A60F08952091D8
:101F900033028095822380933302982F977099F4AF
:101FA00030E0482F082E000C550B2417350759F048
:101FB0009091C30292FF07C08595859585950E94F3
:101FC000280B0E94C10F08959091C30292FB222713
:101FD00020F9281769F080FB92F99093C302809151
:101FE000C2029091C3020E94391082E00E94C70F82
:101FF00008958091C30282FB882780F991E08927A8
:102000000E94E40F089581E00E94E40F089580E0AB
:102010000E94E40F08956FEF7FEF80E090E00E9450
:10202000E12F089580E090E00E94BD2F883E9E4FF2
:1020300019F40E94D11F089580E0089582E090E095
:102040000E94AF2F089583E090E00E94AF2F089583
:10205000CF9384E090E00E94AF2FC82F82E290E0FF
:102060000E94AF2F2C2F30E0A901582BCA01CF912D
:102070000895CF93C92F682F84E090E00E94C32F6A
:102080006C2F82E290E00E94C32FCF910895AB01A4
:10209000BC018FE090E00E94D52F0895AB01BC01F8
:1020A00083E190E00E94D52F089560E070E0CB01BD
:1020B0000E944E10089560E070E0CB010E9447102E
:1020C0000E945510089568EE7EEF80E090E00E9437
:1020D000E12F60E082E090E00E94C32F60E083E0A7
:1020E00090E00E94C32F1092F20160E084E090E043
:1020F0000E94C32F64E082E290E00E94C32F60E060
:1021000085E090E00E94C32F60E086E090E00E94AE
:10211000C32F6FEF87E090E00E94C32F40E050E0B4
:10212000BA0188E090E00E94D52F60E08DE090E059
:102130000E94C32F40E050E0BA0188E190E00E9485
:10214000D52F60E087E190E00E94C32F40E050E08F
:10215000BA018CE190E00E94D52F60E070E080E24F
:1021600090E00E94E12F40E050E0BA0188E190E069
:102170000E94D52F80E00E94EA1F0E941F200E942B
:102180005B1008950E9463100895682F8EE090E020
:102190000E94C32F08950E94982660934A0270936C
:1021A0004B0280934C0290934D02609346027093D1
:1021B00047028093480290934902089581E0089570
:1021C0000E94DE10089508950E94E31008950E9471
:1021D000E31008950E94E71008950E94E310089507
:1021E0000E94ED1008950E94E310089586E793E1A0
:1021F0000E942A250E94F3100E94F01008950E9468
:10220000E4100E94E31008950E9492130E94A70612
:1022100008950E9483260E942F200E945F140E942E
:1022200004110E94D81D0E94EA100895AAE0B0E0AF
:10223000ECE1F1E10C94082F0E947514982E8111A5
:102240000E94CB108FE3A82E82E0B82E00E010E0B1
:10225000802E802F0E94AD13D82EF501C1905F0112
:10226000C826B1F40F5F1F4F0730110589F78FEFB4
:1022700089838A831B820E948C268160782F9D83AC
:102280008C8349815A816B818D810E94C5062FC044
:1022900080914E0281FD0E94B313E12CFF24F39440
:1022A0008C2D8F21F1F00E94E010882399F0EE82AE
:1022B0008F82DF2081E009F480E088870E948C26ED
:1022C0008160782F9A8789874E815F8168858A85AA
:1022D0000E94C506F801E15CFD4F8081F826F0827E
:1022E00006C0E394FF0CF7E0EF12DACFBBCF81E03A
:1022F000911001C080E02A96ECE00C94242F0E94FB
:1023000016110E941E1E0E948D160E94BA06089584
:10231000CF93DF930E949F12EC01811521E5920774
:1023200008F045C0811530E5930708F094C0883E59
:10233000910528F5803E910508F0F8C0883A91058E
:1023400070F4853A910508F07CC08130910509F45C
:1023500075C008F4E8C0049708F0E8C0E4C08F3BFB
:10236000910508F0E0C0C85AD0E0CC0FDD1FC15A7B
:10237000DE4F0990D881C02DCE019464D8C081155C
:1023800040E2940758F4811551E0950708F0CEC05B
:10239000803F910508F4C7C09065C9C0C11580E4AD
:1023A000D80708F4C0C0DF70CE01906AC0C08115A4
:1023B00025E59207A8F4811534E5930708F095C048
:1023C000811543E5940708F07BC0811552E5950718
:1023D00008F061C0D82FCC27CE01816F906AA7C0CA
:1023E000C11589E5D807A0F4C11528E5D20708F082
:1023F00082C0C11536E5D30708F095C08C2F0E9426
:1024000033138F7190E0D82FCC27CE0190628FC00C
:10241000C1154AE5D40708F474C0CE019056811561
:10242000904208F080C08D2F8F710E943313DD27FA
:10243000D0628F71AE01582BCA0179C081E090E063
:1024400076C0C55AD0E0C357DE4F8881C82FD0E090
:10245000CE0190646CC074E0969587957A95E1F70B
:10246000282F23703C2F337081E090E002C0880F4A
:10247000991F3A95E2F79C68AC01522B9A019C2F68
:102480009F709695969550E2959FE0011124C901A1
:102490008C2B9D2B4CC08370992721E030E002C02B
:1024A000220F331F8A95E2F79C2F9695969580E22E
:1024B000989FE0011124C22BD32BCE019C6837C01A
:1024C0008370992721E030E002C0220F331F8A95E4
:1024D000E2F79C2F9695969540E2949FE001112497
:1024E000C22BD32BCE019A6822C0D82FCC27CE0185
:1024F000846F906A1CC0DC2FCC27CE01806F906A5D
:1025000016C08C2F8F700E94331394E0D695C79518
:102510009A95E1F7CF70D0E0DC2FCC27D0699E01EF
:10252000282BC90104C080E090E001C0CE01DF91FA
:10253000CF9108950E948E230E94881108958238B9
:10254000910569F1B0F48133910509F46DC048F447
:102550008932910509F463C08A32910509F469C092
:1025600008958533910509F455C089339105B9F073
:102570000895833E910569F138F4803E9105B1F0EC
:10258000823E910509F10895863E9105A9F1873EA5
:102590009105B9F1843E910509F064C023C02091F2
:1025A000C20220FD4FC021FD4DC008958091C2029E
:1025B00080FD44C08091C30280FF44C08091C2026C
:1025C00084FD42C083EE4DC08091C20282FF38C0BC
:1025D000F5CF8091C20282FD33C08091C30280FD9D
:1025E00031C0ECCF8091C30281FF32C08091C20222
:1025F00084FD2AC087EE35C08091C20283FF26C0C9
:10260000F5CF8091C20283FD21C08091C30281FD7C
:102610001FC0ECCF8091C20285FD1CC01DC08091FF
:10262000C20285FD19C016C08091C20286FD16C087
:1026300017C08091C20286FD13C010C089E311C08B
:1026400082EE0FC080EE0DC080E00BC086EE09C0A8
:1026500084EE07C089E205C085E303C08AE201C0B9
:1026600081E390E008959091C20292FF0DC0282F5F
:102670002871283019F4877F846006C0282F2471C0
:10268000243011F48B7F886093FF0DC0282F2871B0
:10269000283119F4877E846106C0282F24712431E3
:1026A00011F48B7E88612091C30220FF0DC0382F6A
:1026B0003871383019F4877F816006C0382F317146
:1026C000313011F48E7F886021FF0DC0282F2871D2
:1026D000283119F4877E816106C0282F21712131AC
:1026E00011F48E7E886194FD877E089580E00895C0
:1026F0000E940B1008950E9475148FE39CE90197C6
:10270000F1F700C000000E94751480E00E94AD1334
:1027100080FF04C00E9478130E94D92608950E9469
:102720007B1308950E941210811102C00E94C210F2
:102730000E941E1080934E020E9428109093C302A4
:102740008093C2020E948F130E9423100E94F00AFD
:102750008091F1010E94050B0895E82FF0E0E55308
:10276000FD4F80810895089580EA8A95F1F70895D4
:1027700000C008950E94B413089508950E94BD13E7
:1027800008950E94BE1308950E94BD1308950E94EB
:10279000C4130895F894E82FE295EF70F0E031A1AA
:1027A000282F2F7081E090E001C0880F2A95EAF76A
:1027B000982F9095932391A392A1892B82A378942B
:1027C00008950F931F93CF93DF93C7E9D1E08991C9
:1027D0008F3F11F00E94CA1381E0CE39D807B9F7B4
:1027E000C0E9D1E007E911E089918F3F11F00E9423
:1027F000CA130C171D07C1F7DF91CF911F910F91DD
:102800000895A0E0B0E0E7E0F4E10C940C2F8C0117
:10281000C62FD0E0CE0189569E4F7C01FC019081ED
:102820009F3F09F447C0D62EF894E92FE295EF7048
:10283000F0E081A19F7021E030E001C0220F9A9565
:10284000EAF7822B81A382A12095282322A37894E2
:102850000E94B813E0E9F1E047E951E031E0C12C12
:1028600021912F3F89F0A22FA295AF70B0E09096F2
:102870008C9190E02F7002C0959587952A95E2F78C
:1028800080FD02C0832F01C080E0C82A330F4E179D
:102890005F0731F7F70180818F3F11F00E94CA1363
:1028A00061E0C11001C060E08D2D0E94BA13C00F1D
:1028B000D11FC882CDB7DEB7E8E00C94282F0E9464
:1028C000E11387E0EBECF2E0DF01982F1D929A957F
:1028D000E9F7E4ECF2E0DF011D928A95E9F787E081
:1028E0000E94B1140E94D7040895A7E0B0E0EBE77E
:1028F000F4E10C940F2F8E010F5F1F4F87E0F8015A
:1029000011928A95E9F7F12C6F2DC8010E940114EC
:10291000F394F7E0FF12F8CF47E050E0B80184EC01
:1029200092E00E94A22FFF24F394009709F4F12C67
:10293000892B41F087E0F801A4ECB2E001900D9200
:102940008A95E1F72F2D47E06BEC72E084EC92E082
:102950000E94B2140E94DA048F2D2796E5E00C94B1
:102960002B2F0895FF920F931F93CF93DF938C012A
:10297000F62ED72FC42F222349F081E080935102F5
:102980000E948C269093500280934F0280915102B6
:102990008823C1F080914F02909150020E94A4269A
:1029A000059780F0EF2DFD2FD8014C2F50E0CD0181
:1029B000801B910B841795071CF48D918193F7CFA1
:1029C00010925102CDB7DEB7E5E00C942B2F0E9498
:1029D000C2280E9409110E94CF2808950E94D4287D
:1029E0000E947F110E94EE2808950E9423260E94D3
:1029F000A8280E94F6100E94E7140E94EE140E947C
:102A0000FF10FBCF8091580280FF06C060910B0140
:102A100070E0660F771F26C081FF04C060910B0134
:102A200084E005C082FF07C060910B0188E0689FC9
:102A3000B001112417C0909157029923D1F06091F1
:102A40000A01961788F720910B0188E0289F9001D2
:102A50001124929FA001939F500D112470E0CA0190
:102A60000E948E2E6038710540F46115710519F4CD
:102A700006C068E070E0862F08958FE7089581E032
:102A800008958091580280FF08C06091070170E0AE
:102A9000759567957595679521C081FF06C0609112
:102AA000070170E07595679519C082FF04C06091B9
:102AB000070170E010C090915602992399F060913F
:102AC00006019617A0F780910701899FC001112484
:102AD00070E00E948E2E6038710540F4611571051A
:102AE00019F406C061E070E0862F08958FE708951D
:102AF00081E00895803F21F40E940215819504C071
:102B0000813F29F40E94021580935C020895823F60
:102B100021F40E940215819504C0833F29F40E948C
:102B2000021580935B020895893F19F40E944115B4
:102B300005C08A3F31F40E944115819580935D0262
:102B400008958B3F21F40E944115819504C08C3F6C
:102B500029F40E94411580935E0208959CE0980F2D
:102B6000953078F421E030E0A90102C0440F551FF0
:102B70009A95E2F7CA0190915A02892B80935A02E2
:102B800008958D3F21F48091580281600BC08E3FE3
:102B900021F480915802826005C08F3F29F4809112
:102BA00058028460809358020895803F39F49091D0
:102BB0005C0297FF35C010925C0259C0813F29F436
:102BC00090915C021916BCF32BC090915B02823F7E
:102BD00029F497FF25C010925B0249C0833F19F486
:102BE0001916CCF31DC090915D02893F29F4191686
:102BF000BCF410925D023BC08A3F19F497FF10C0ED
:102C0000F8CF8B3F39F490915E0297FF09C0109284
:102C10005E022DC08C3F21F490915E021916BCF328
:102C20009CE0980F953080F421E030E0A90102C0CB
:102C3000440F551F9A95E2F7CA01809590915A0268
:102C4000892380935A0213C08D3F21F4809158024A
:102C50008E7F0BC08E3F21F4809158028D7F05C07E
:102C60008F3F29F4809158028B7F80935802809186
:102C70005B02811106C080915C02811102C010923A
:102C8000570280915D02811106C080915E02811120
:102C900002C01092560208950E948C2620915B0279
:102CA000211104C020915C02222321F0909355024F
:102CB0008093540220915D02211104C020915E0294
:102CC000222321F0909353028093520289E592E0EF
:102CD0000E944C250895E9E5F2E086E0DF011D92AF
:102CE0008A95E9F7109257021092560210925802F4
:102CF0000895FC01828181110DC0838181110AC078
:102D00008481811107C091E08581811101C090E02B
:102D1000892F01C081E081700895A6E0B0E0E3E969
:102D2000F6E10C94112F86E0E9E5F2E0DE01119660
:102D300001900D928A95E1F710925B0210925C026D
:102D400010925D0210925E028B81811104C08C8111
:102D5000882309F45FC080915402909155020E942B
:102D6000A426AC0190915702992339F020910C01CF
:102D700030E02417350758F04DC020910D018AE04E
:102D8000289F900111242417350718F043C09F3F56
:102D900019F09F5F909357021B81112361F00E94ED
:102DA0000215111614F09FEF01C091E0989F902D2D
:102DB000112490935B021C81112361F00E94021583
:102DC000111614F09FEF01C091E0989F902D1124EF
:102DD00090935C0230915B023323E1F020915C021E
:102DE0002223C1F045EB3403C0011124992319F0CB
:102DF00090935B0203C081E080935B0235EB230379
:102E0000C0011124992319F090935C0203C081E062
:102E100080935C028D81811104C08E81882309F426
:102E20005FC080915202909153020E94A426AC018F
:102E300090915602992339F02091080130E024172F
:102E4000350758F04DC0209109018AE0289F900174
:102E500011242417350718F043C09F3F19F09F5FD6
:102E6000909356021D81112361F00E9441151116A5
:102E700014F09FEF01C091E0989F902D1124909342
:102E80005D021E81112361F00E944115111614F09C
:102E90009FEF01C091E0989F902D112490935E02C6
:102EA00030915D023323E1F020915E022223C1F0D4
:102EB00045EB3403C0011124992319F090935D026E
:102EC00003C081E080935D0235EB2303C001112430
:102ED000992319F090935E0203C081E080935E0213
:102EE000BE016F5F7F4F89E592E00E94D525811179
:102EF00005C089E592E00E94791681110E944C1666
:102F000086E0FE013196A9E5B2E001900D928A9526
:102F1000E1F72696E3E00C942D2FEF92FF920F93AA
:102F20001F93CF93DF938B01682F11110AC04423A5
:102F300029F0E82FF0E0EF51FA4F6491762F862FB9
:102F400075C0212F30E0E82FF0E0442321F0EF514D
:102F5000FA4FE491F0E046E0049FC0011124CFEF66
:102F6000D0E0BE010E947A2E4BEA4603C001479F83
:102F7000900D1124800F911D800F911D982F990F96
:102F8000890FAE01421B530B4E9FD0014F9FB00DD6
:102F90005E9FB00D11249B2F189FA0011124452F77
:102FA00055278E01041B150B0E9FA0010F9F500D7E
:102FB0001E9F500D11247E01E81AF108E29E800147
:102FC000E39E100DF29E100D1124212F3327C21BFA
:102FD000D30BCE9F9001CF9F300DDE9F300D11247B
:102FE00062307105A9F048F46115710569F061302E
:102FF0007105C9F48B2F752F0DC06430710581F0F8
:1030000058F06630710579F47E2F8B2F932F0DC009
:10301000832F7B2F9E2F09C08E2F7B2F952F05C0CE
:103020008E2F732F02C07E2F852F692FCDB7DEB76D
:10303000E6E00C942A2F41E00E948D170895089530
:103040000E941B180895CF93DF93762FE901682F14
:10305000842F0E942018798368838A83DF91CF911F
:1030600008958091D202282F269530E02115310550
:1030700019F48170826005C02B32310524F0817013
:1030800084658093D202089588E090E00E94B72F73
:103090000895CF92DF92EF92FF926B017C010E9424
:1030A0003118B701A60188E090E00E94D52FFF906B
:1030B000EF90DF90CF9008956091D2027091D3028B
:1030C0008091D4029091D5020E9449180895E2EDB2
:1030D000F2E083E0808311828FEF82838383148206
:1030E00060817181828193810E9449180895809145
:1030F000D20280FF02C08695089580E008959091E5
:10310000D602933018F49F5F9093D602882351F033
:103110006091D2027091D3028091D4029091D50235
:103120000E944918089581E00E947F1808959091A7
:10313000D602992319F091509093D602882351F02A
:103140006091D2027091D3028091D4029091D50205
:103150000E944918089581E00E949718089580916F
:10316000D60208958093D602662351F06091D20270
:103170007091D3028091D4029091D5020E94491897
:10318000089560E00E94B21808958091D3020895D6
:103190008091D40208958091D502089570E00E9434
:1031A000A61F0895609112018091D20280FF0BC08A
:1031B0008091110123E0829FC001112489529D4F0B
:1031C0000E94CE18089580911301909114018917DF
:1031D00078F7E82FF0E09F01220F331FE20FF31F73
:1031E000E952FD4F1182108212828F5FF0CF9091D1
:1031F000D20290FF16C090911301209114019217F2
:1032000070F4E92FF0E0DF01AA0FBB1FEA0FFB1FEC
:10321000E952FD4F8183608342839F5FF0CF0E941C
:10322000D2180895A3E0B0E0E8E1F9E10C94122F80
:103230009091D20290FF0AC09E012F5F3F4F0E94E3
:1032400023184B8169818A810E94F7182396E2E056
:103250000C942E2FCF93DF93EC01EC81F0E0E4523D
:10326000FB4F4491E2EDF2E0628181810E941219EC
:103270008C818F5F8C83DF91CF910895CF93DF9303
:10328000EC01E2EDF2E0438162818C810E9412192F
:103290008C818F5F8C83DF91CF910895A3E0B0E0A4
:1032A000E4E5F9E10C94102F8C0180915F0281110B
:1032B0000AC09E012F5F3F4F4FEF6FEF0E94231810
:1032C0008A8180935F02F8018481813051F028F077
:1032D000823061F440915F020AC080915F0240E059
:1032E00007C060915F0240E080E003C040E080E002
:1032F00060E00E94F718F801848190E0019663E095
:1033000070E00E948E2E84832396E4E00C942C2F90
:10331000A3E0B0E0EEE8F9E10C940B2F082FE62EC5
:10332000F42ED22E9091D20290FF67C0E92FE6953D
:10333000AE2FB0E0A256BE4F8C918093A7029E7F25
:10334000923061F49E012F5F3F4F802F0E9423181F
:103350004B8169818A810E94F7183DC0823019F43F
:10336000F090D50238C0863019F40091D30233C0F2
:103370008930D9F3893179F5E9518E2F8170C82EC2
:10338000E695F0E0E452FA4F1491B12C60911501EA
:10339000B616F8F4B19EC001112470E00E947A2E96
:1033A000802FC11002C0860F01C0861B90911301AF
:1033B0002B2D30E0290F311DA901440F551F240F7B
:1033C000351F29523D4F4F2D6E2D0E942318B39467
:1033D000DDCF0E94D2180093D302E092D402F09283
:1033E000D502DD2051F06091D2027091D30280911C
:1033F000D4029091D5020E9449182396E9E00C94DA
:10340000272FE2EDF2E09181282F4381628188E04D
:10341000890F0E948819089581E00E94011A089579
:10342000E2EDF2E09181282F4381628188EF890FDC
:103430000E948819089581E00E94101A0895E2ED13
:10344000F2E0628128E0620F08F46FEF282F4381D9
:1034500081810E948819089581E00E941F1A0895B1
:10346000E2EDF2E0628128E0621B08F460E0282FC0
:10347000438181810E948819089581E00E94301A59
:103480000895E2EDF2E0438128E0420F08F44FEFA7
:10349000282F628181810E948819089581E00E940D
:1034A000411A0895E2EDF2E0438128E0421B08F45E
:1034B00040E0282F628181810E948819089581E06F
:1034C0000E94521A089520E00E9488190895FF92E0
:1034D0000F931F93CF93DF93EC01F12C0FEF10E0CC
:1034E00060911501F616F0F4809113012F2D30E054
:1034F000280F311DC901880F991F280F391F295224
:103500003D4F70E0C8010E948E2E962F8C81409115
:10351000D5026091D402F99E800D11240E942318D7
:10352000F394DECF0E94D2189A818C8190FF02C062
:103530008F5F01C081508C83CDB7DEB7E5E00C947E
:103540002B2FA0E0B0E0E7EAFAE10C940A2FFC018F
:10355000828180FF02C00FEF01C001E010E04CE06B
:10356000A42E80911501181708F043C08091130113
:10357000C12ED12CE601C80FD11DCE01880F991F95
:10358000C80FD91FC952DD4F198218821A8234E040
:10359000E32EF12CB12C809161028B0D8D302CF03B
:1035A0006A2D0E946C2E892F05C087FF03C0909161
:1035B0001501890F082E000C990BC816D90691F435
:1035C0008091D5028E9DA0018F9D500D112455959F
:1035D0004795559547959E016091D4028091D302FD
:1035E0000E942318B00EF1E0EF1AF108A1F61F5F58
:1035F000B8CF0E94D21880916102013031F481115C
:1036000002C080911501815007C090E00196609141
:10361000150170E00E948E2E80936102CDB7DEB757
:10362000EAE00C94262FCF9380911301909114011E
:10363000891770F4E82FF0E09F01220F331FE20F8B
:10364000F31FE952FD4F1182108212828F5FF0CF7B
:10365000C0E060911501C617C0F5EC2FF0E070E0F6
:10366000CF010E948E2E20911301820F20916002C3
:10367000022E000C330B90E0E217F307CCF0209100
:103680001001022E000C330B2E173F078CF09C010B
:10369000220F331F820F931F9C0129523D4F4091EF
:1036A000D5026091D4028091D3020E9423180BC0EE
:1036B000FC01EE0FFF1F8E0F9F1FFC01E952FD4F13
:1036C000118210821282CF5FC4CF0E94D218209143
:1036D0000F0180916002820F80936002909110012F
:1036E000920F9093100119165CF4082E000C990BA0
:1036F0004091150150E041505109841795071CF085
:10370000219520930F01CF910895A0E0B0E0EBE860
:10371000FBE10C94082F8C01FC014481C42FD0E004
:103720009E01DE010E94D92E9B01AC010E94EF2E6A
:103730006B017C01E0E2F0E0EC1BFD0BA5E5B0E0E5
:103740009B01AC010E94EF2E4B015C019F01DF0148
:103750000E94D12E9B01AC010E94FA2E9B01AC016C
:103760002C0D3D1D4E1D5F1DC501B4010E94A22EF2
:10377000C22FD22F2A3228F4F3E02F9F9001112478
:103780000DC025E530E02C1B3109C901880F991FB8
:10379000280F391F37FF02C02F5F3F4F3595279500
:1037A000C22FC095F12C85E5E82EED1A8091150108
:1037B000F816C8F4F1FC02C08E2D01C08D2F909137
:1037C00013012F2D30E0290F311DA901440F551F82
:1037D000240F351F29523D4F4C2F6091D4020E9477
:1037E0002318F394E3CF0E94D218F8018481811149
:1037F00002C091E003C0803219F49FEF90930E0154
:1038000090910E01890FF8018483CDB7DEB7ECE00B
:103810000C94242F0F931F93CF93DF93EC0100E0C0
:1038200010E080911501282F30E00217130724F5CE
:10383000909113019801290F311DA901440F551FC3
:10384000240F351F29523D4F869590E04C81081773
:1038500019071CF4442331F002C0411103C0409108
:10386000D50201C040E06091D4028091D3020E9451
:1038700023180F5F1F4FD5CF0E94D2188C8190E084
:103880000196817099278C83DF91CF911F910F91C1
:103890000895A0E0B0E0EFE4FCE10C94072FFC01F8
:1038A0008280748081E08483ECEDF4E09490EBE519
:1038B000F5E0E491A12CF5E0BF2ECC24CA94D12CE4
:1038C000E9190E2F10E080911501A81608F0A2C08A
:1038D000EA2CF12C22E0281568F0BE9CF001BF9C78
:1038E000F00D1124EE59FD4F8091D3028083809119
:1038F000D402818371100AC0BE9CF001BF9CF00D00
:103900001124EE59FD4F138212826AC0BE9CE00161
:10391000BF9CD00D1124CE59DD4F8B818823F9F047
:1039200081508B832FEF829FC00111246C8170E046
:103930000E947A2EFB01FF27E452FB4F8491E82F6F
:10394000E9192FEFE29FC0011124B8010E947A2EDD
:103950008091D502689FB00111247A8341C00E94F2
:10396000852F2091D5022695215830E0A901440FDA
:10397000551F322F2227240F351F232F332782175D
:10398000930774F582E0881588F40E94852FB601AC
:103990000E948E2E88830E94852F2091D402269526
:1039A000622F70E00E948E2E280F2983BE9CF001AA
:1039B000BF9CF00D1124EE59FD4F12828091D5026B
:1039C000843120F0893C18F088EC01C084E1BE9C71
:1039D000F001BF9CF00D1124EE59FD4F84838383C9
:1039E000809113019701280F311DC901880F991F7C
:1039F000280F391F29523D4FBE9CF001BF9CF00D8E
:103A00001124EE59FD4F4281618180810E9423186B
:103A1000A39459CF0E94D218CDB7DEB7EDE00C9435
:103A2000232FE2EDF2E080818E7F808360817181BF
:103A3000828193810E9449181092A8022FEF80E79B
:103A400092E0215080409040E1F700C000000E94C9
:103A5000D2180895E2EDF2E080818E7F808310928B
:103A6000A8022FEF80E792E0215080409040E1F7DC
:103A700000C000000E94D21808951092A802809100
:103A8000A50281110AC081E08093A5028091D20233
:103A900081708093A4020E942A1D08956091D20231
:103AA000669570E04BE050E086E191E00E94952F32
:103AB000892B19F481E08093A8020E948C269093B0
:103AC0009F0280939E0208959091D20290FF35C08C
:103AD0009170811102C0926006C08B3210F0946523
:103AE00002C0880F982B9093D202662351F0609108
:103AF000D2027091D3028091D4029091D5020E949B
:103B000049186091D202669570E04BE050E086E182
:103B100091E00E94952F892B19F01092A80202C003
:103B20000E944E1D81E08093A1024091D5026091D8
:103B3000D4028091D3020E94631A0895682F909155
:103B4000D202969581E0890F8B3208F081E00E94C5
:103B5000641D089581E00E949E1D0895682F909134
:103B6000D20296958FEF890F09F48AE20E94641DB4
:103B7000089581E00E94AE1D089561E00E94641DD9
:103B80000895E2EDF2E080818160808386950E9455
:103B9000BD1D08958091D20280FF03C00E94111DB7
:103BA00008950E94C11D089560E00E94641D08955B
:103BB0008091A60281112EC00E941210811104C0B2
:103BC0000E94C2100E9467180E9444186093D2029B
:103BD0007093D3028093D4029093D5026E7F61F4E8
:103BE0000E9467180E9444186093D2027093D30217
:103BF0008093D4029093D5020E9431181092A802AB
:103C00008091D20280FF03C086950E94D41D81E07E
:103C10008093A6020895E2EDF2E0808181608083C6
:103C200086950E94D41D08951092A5028091A40249
:103C300081110E940B1E0E944E1D08950F931F9329
:103C4000CF93DF938091A802882309F491C08091DB
:103C5000A702E091D202E695E81BE093A002823031
:103C600049F4F0E0E852FB4FE491CE2FD0E00AE2B5
:103C700019E159C0863049F4F0E0EB52FB4FE49172
:103C8000CE2FD0E00EE319E14EC0893051F4E69515
:103C9000F0E0EE52FB4FE491CE2FD0E007E61AE1C0
:103CA00042C08F3051F4E695F0E0E153FB4FE491D0
:103CB000CE2FD0E001EA1AE136C0853149F4F0E0B8
:103CC000E453FB4FE491CE2FD0E003E11BE12BC086
:103CD0008831D9F0833239F4EAECF4E0C591D4911B
:103CE0000EE419E120C08432A9F08532C1F48E2F90
:103CF00063E00E94602EE92FF0E0E953FB4FE4916E
:103D0000CE2FD0E009E41CE10EC0C8E2D0E005E807
:103D10001BE109C0C4EFD1E00AE01CE104C0C0ED22
:103D2000D7E00FE118E18091A102882361F01092A1
:103D3000A1020E948C2690939F0280939E02109273
:103D4000A3021092A2020E948C26E0919E02F091A2
:103D50009F028E1B9F0B8F3F9F4750F4EC0FFD1F60
:103D6000F0939F02E0939E028EE992E0F80109959C
:103D7000DF91CF911F910F910895882311F0FA01DF
:103D800001C0FB0109950895CF93DF93C82FD62F6B
:103D90000E9477188C1738F00E9477188D1718F446
:103DA0000E94AA1D03C08C2F0E94BD1DDF91CF91E0
:103DB00008951F93CF93DF93FB0112811111C1C0AE
:103DC000EC010E94210F8272CC3CFCE5DF0709F474
:103DD0009AC008F043C0C63CECE5DE0709F47FC09A
:103DE000D8F4C33C9CE5D90709F46DC038F4C23C53
:103DF000DC4509F0A5C00E94CA1DA3C0C43C9CE5D7
:103E0000D90709F465C0C53CDC4509F099C04BE110
:103E10005AE16CE07AE160C0C93CFCE5DF0709F4D7
:103E200068C070F4C73CECE5DE0709F45DC0C83C2F
:103E3000DC4509F085C04CE25AE16DE37AE14CC003
:103E4000CA3C9CE5D90709F459C0CB3CDC4509F0D4
:103E500077C04BEA58E163E978E13EC0C13DFCE53B
:103E6000DF0709F45DC098F4CE3C9CE5D90709F45E
:103E700051C008F44DC0CF3CFCE5DF0709F44DC04C
:103E8000C03DDC4509F05CC06EE089E056C0C43D31
:103E90009CE5D90709F44AC058F4C23DFCE5DF07A8
:103EA00009F441C0C33DDC4509F04AC088E142C085
:103EB000C53D9CE5D907E9F1CD35DD4509F040C0A8
:103EC0006AE285E23AC049EB5DE16AEA7DE104C05D
:103ED0004AEA5DE169EB7DE10E94BD1E32C04CE023
:103EE0005AE16BE17AE1F8CF4DE35AE16CE27AE115
:103EF000F3CF4FE55AE16EE47AE1EECF4EE45AE1BA
:103F00006FE57AE1E9CF43E958E16BEA78E1E4CF84
:103F100081E010C065E082E010C068E086E00DC07E
:103F200064E18FE00AC067E185E107C062E289E1F0
:103F300004C083E20E94BD1D04C00E94C41E01C0D3
:103F400011E0812FDF91CF911F910895539A2BB1EA
:103F5000277F3BB138604FB7F894FC01CB01880F45
:103F6000991F680F791F6E0F7F1FE617F70789F0FB
:103F7000819198E03BB9000000C087FF2BB9880F02
:103F8000000000C000C000C02BB900C09A9591F796
:103F9000ECCF4FBF8FE594E00197F1F700C0000030
:103FA000089583E290E00E94AF2F823281F484E290
:103FB00090E00E94AF2F873051F485E290E00E949C
:103FC000AF2F91E0843109F090E0892F01C080E0AB
:103FD00081700895CF93C82F811102C06FEF01C087
:103FE00062E283E290E00E94C32FC11102C06FEF32
:103FF00001C067E084E290E00E94C32FC11102C0BB
:104000006FEF01C064E185E290E00E94C32FCF9181
:104010000895089586E290E00E94AF2F682F70E027
:1040200080E090E008950895CF93C62F0E9413205A
:104030006C2F86E290E00E94C32FCF91089580E01C
:104040000E94EA1F60E070E0CB010E9414200E94F1
:1040500017230E94E32381E00E94EA1F08950E9433
:1040600009200E940A200E9413200E94D11F811162
:1040700002C00E941F200895CF93FB01C281CC2370
:10408000E9F09C0122513F452031310520F4825155
:104090000E94F3230CC08031FFE59F0751F481E0BB
:1040A0000E941C0B43E062E081E00E94CD04C0E06E
:1040B00018C081319F45A9F482E0F2CF8031EFE54D
:1040C0009E0711F481E004C081319F4549F482E0EC
:1040D0000E94280B43E062E081E00E94CD0401C011
:1040E000C1E08C2FCF9108952FEFFC01208308951C
:1040F000CF93DF93EC018881813889F028F48038F0
:10410000A1F40E94CB1810C0823861F0833869F4A2
:104110000E94C51889830E94C8188A8306C00E941D
:10412000771802C00E94AF188983DF91CF9108955C
:10413000CF93DF93EC0188818138B1F058F4803857
:1041400029F5D9810E94C818C82F0E94C5184D2F83
:104150006C2F1AC08238A1F08338C1F40E94CB18AA
:10416000482F6A81898110C089810E94D41D89816C
:10417000811103C00E942A1D09C00E940B1E06C0A7
:1041800089810E94C11802C00E94631ADF91CF91F9
:104190000895EF92FF920F931F93CF93DF93EC015B
:1041A000062F0196E8814E2F50E0FA013197E33156
:1041B000F10508F09AC0EE59FF4F0C94C42E1982F5
:1041C00089E056C08981823039F0833061F08130D6
:1041D00029F50E94982602C00E940A209A838B83A8
:1041E0007C836D8384C07E0182E0E80EF11C10E0C8
:1041F000812F0E94AD13F70181937F011F5F17305C
:10420000B9F775C08981823049F46A817B818C81DC
:104210009D810E94CA2E0E94142069C0602FCE0189
:104220000E94742064C04B816A8189810E94DB22D4
:104230009C838D835CC02C813D81322723273227CC
:104240004B816A8189810E94FC2251C00E94172300
:104250004EC00E9498204BC00E94782048C00E9407
:104260005C1845C00E949C2324C00E949E23998311
:104270008A833DC06B8170E089819A81AE014C5F79
:104280005F4F9827892798270E94A12330C06B8110
:1042900070E089819A81AE014C5F5F4F9827892732
:1042A00098270E94C32323C00E94E32320C00E94BA
:1042B000C82289831CC06B8170E089819A81AE011C
:1042C0004C5F5F4F9827892798270E944C230FC087
:1042D0006B8170E089819A81AE014C5F5F4F9827B6
:1042E000892798270E946E2302C08FEF8883602F52
:1042F000CE010E947827CDB7DEB7E6E00C942A2FD6
:10430000CF93DF93EC01FB018281882309F43CC148
:10431000C330FDE5DF0760F4CA3F9CE5D90788F4A8
:104320009E0122503C452431310508F02EC109C0C0
:10433000C136EDE5DE0729F0C53AFDE5DF0709F0F6
:1043400024C10E9428109093C3028093C202C131FD
:104350008CE5D80709F4C6C008F042C0C930ECE5C6
:10436000DE0709F49BC000F5C5308CE5D80709F4D9
:1043700085C078F4C330ECE5DE0709F478C008F0B6
:104380007AC0C230DC4509F0F5C08091C20281607C
:10439000EFC0C7309CE5D90709F478C008F07AC0AF
:1043A0008091C2028061E4C0CD30FCE5DF0709F4F2
:1043B00087C058F4CB309CE5D90709F479C008F0E0
:1043C0007BC08091C20288606FC0CF30FCE5DF0700
:1043D00009F480C008F082C08091C202877FC8C003
:1043E000CD3F9CE5D90709F471C000F5C531FCE566
:1043F000DF0709F485C068F4C3319CE5D90709F4E7
:1044000075C008F095C00E94A50A8091C2028F77FE
:10441000AFC0CB3FFCE5DF07A9F108F054C0CA3FAD
:10442000DC4509F0A7C08091C30240C0C130EDE572
:10443000DE0709F489C058F4CF3F8CE5D80709F4AA
:104440005AC008F069C08091C30282602FC0C13693
:10445000EDE5DE0709F47CC0C53AFDE5DF0709F4A8
:1044600081C0C230DD4509F085C080E06EC080911A
:10447000C20282607DC08091C20216C08091C202D9
:10448000886076C08091C30282604FC08091C20272
:1044900080626EC08091C20280646AC00E94A50AD8
:1044A0008091C202806864C0846062C081603DC047
:1044B0008091C2028E7F5CC08091C2028D7F58C005
:1044C0008091C20216C08091C30218C08091C302BD
:1044D0008D7F2BC08091C2028F7E4AC08091C20224
:1044E0008F7D46C08091C2028F7B42C08091C20204
:1044F000877F8B7F3DC08091C3028D7F8E7F15C0EB
:104500008091C20282FB222720F991E0922790FB42
:1045100082F990FB83F92CC08091C302982F90956B
:1045200091708E7F892B90FB81F98093C30222C00A
:104530000E94A50A8091C20287FB222720F991E000
:10454000922790FB87F914C081E00E94C51012C029
:104550008091C20284FB222720F991E0922790FBF0
:1045600084F906C08091C202982F909590FB80F943
:104570008093C2028091C2029091C3020E943910BE
:104580000E94A50A80E001C081E0DF91CF910895EB
:1045900088E0089550E0440F551F2EE0629F400DC3
:1045A000511D11249A0162E6869F200D311D1124B0
:1045B000C901879608950F931F93CF93DF93883097
:1045C000A0F4673090F4473080F40E94CA228C0136
:1045D0000E94AF2F90E0D82FCC27C80101960E94EF
:1045E000AF2F9E01282BC90102C080E090E0DF912F
:1045F000CF911F910F9108950F931F93CF93DF9346
:10460000883080F4673070F4473060F4E9010E942C
:10461000CA228C016D2F0E94C32F6C2FC8010196F6
:104620000E94C32FDF91CF911F910F910895A0E0B9
:10463000B0E0EDE1F3E20C940A2FA12CE12CF12C77
:10464000B12C00E010E0C0E0D0E06701C00ED11E48
:10465000FE01EE0FFF1FEC0DFD1DE95FFE4F2591E2
:1046600034914C2F6B2D8A2D0E94FC222196C7304D
:10467000D10571F7025F1F4FB39487E0B812E3CF03
:1046800082E6E80EF11CA39488E0A812D9CFCDB73A
:10469000DEB7EAE00C94262FEF92FF920F931F9360
:1046A000CF93DF93EA017A01E60EF71E8C01C80171
:1046B0008796CE15DF0569F0003123E0120720F45C
:1046C0000E94AF2F888301C0188221960F5F1F4F71
:1046D000EECFCDB7DEB7E6E00C942A2FEF92FF9233
:1046E0000F931F93CF93DF93EA017A01E60EF71E33
:1046F0008C01C8018796CE15DF0559F0003123E003
:10470000120718F468810E94C32F21960F5F1F4F74
:10471000F0CFCDB7DEB7E6E00C942A2F883048F40E
:10472000773038F4673028F4462F672F0E94DB2259
:10473000089580E090E0089580E1089589EC90E08C
:104740000895EF92FF920F931F93CF93DF93EA01A7
:104750007A01E60EF71E8C01C801895C9C4FCE15CC
:10476000DF0561F0093C110520F40E94AF2F88831A
:1047700001C0188221960F5F1F4FEECFCDB7DEB775
:10478000E6E00C942A2FEF92FF920F931F93CF93A2
:10479000DF93EA017A01E60EF71E8C01C801895CFD
:1047A0009C4FCE15DF0551F0093C110518F46881C6
:1047B0000E94C32F21960F5F1F4FF0CFCDB7DEB7FA
:1047C000E6E00C942A2FCF93DF93C7E3D3E060E0B9
:1047D000CE010E94C32F2196C11584E0D807B9F7F6
:1047E000DF91CF910895A4E0B0E0E9EFF3E20C94FB
:1047F0000D2FF82E8FE08F15E8F18FEF93E00E94D8
:10480000AF2F811137C007E313E0FF2069F00115D6
:1048100084E0180779F1C8010E94AF2F811101C00F
:10482000FA940F5F1F4FF1CF19821A821B821C82EC
:10483000DD24D39478018FEFE81AF80AC8010E94AA
:10484000AF2F89831A828823A9F09FEF980F9330A6
:1048500058F48A83D9820E5F1F4FC7010E94AF2F81
:104860008B83882339F07801CE0101960E942B06B4
:104870008701E0CF2496E7E00C94292FCF93DF93B4
:1048800086319C4541F5EB010E94210F982F8A81CA
:104890002091040130910501882379F09A7A81E012
:1048A00009F480E08093A902911102C069E201C07D
:1048B00065E3C9010E94C8250AC08091A90281113F
:1048C00002C069E201C065E3C9010E94CB250E94D4
:1048D000650F80E001C081E0DF91CF9108950F93D3
:1048E0001F93CF93DF93C42FD22FFC0182818823A3
:1048F000B1F04093AC020E948C269093AB0280935F
:10490000AA0280E28C0F883008F04DC0C77081E0A9
:1049100001C0880FCA95EAF70E94420844C08091FE
:10492000AC02481330C08091AA029091AB020E9461
:10493000A426883C910538F510E21D0FCD17B9F07B
:1049400080E28C0F883040F4C77081E001C0880F8E
:10495000CA95EAF70E944908183010F581E09D2FAA
:10496000977001C0880F9A95EAF70E944208802F3D
:104970000E9438081830B8F4D77081E001C0880F61
:10498000DA95EAF70AC080E28C0F883060F4C770CD
:1049900081E001C0880FCA95EAF70E94490803C068
:1049A000802F0E943808DF91CF911F910F910895B9
:1049B0000F939C01CB01233F4CE5340731F188F480
:1049C000283DFCE53F07D9F0293D4CE5340779F156
:1049D000273D3C45A9F506E221EE41EE67ED7CE579
:1049E0002BC0253FFCE53F07E1F0A8F0263F3C4502
:1049F00039F507E225EE46EE66EF7CE51DC007E2DD
:104A000025EE45EE68ED7CE517C006E221EE40EEAE
:104A100063EF7CE511C007E225EE44EE64EF7CE530
:104A20000BC006E221EE42EE65EF7CE505C008E230
:104A300021E045EE69ED7CE50E946F2480E008C02E
:104A4000FC018281882319F01092AC0201C081E040
:104A50000F9108959093D9018093D8010895909370
:104A6000B2028093B1020895E091B102F091B202D6
:104A7000309729F00190F081E02D0995089580E0AC
:104A80000895E091B102F091B202309721F00280D6
:104A9000F381E02D09950895E091B102F091B20201
:104AA000309739F022E0DC012C930480F581E02D71
:104AB000099508952091AF023091B0022817390767
:104AC00071F09093B0028093AF02E091B102F09147
:104AD000B202309721F00680F781E02D0995089504
:104AE0002091AD023091AE022817390771F09093F2
:104AF000AE028093AD02E091B102F091B202309724
:104B000021F00084F185E02D09950895FC0132968D
:104B100097E080E0915029F021912223D9F38F5F13
:104B2000F9CF0895662349F0FC0132960896219149
:104B3000621729F0E817F907D1F780E0089581E0BE
:104B400008959C01FC0132969FEF80E04191461749
:104B500089F09F3F19F4411101C0982F8F5F863073
:104B6000A9F79F3F39F0F901E90FF11D97FDFA957B
:104B70006283089508959C012A5F3F4FFC014281A2
:104B8000461301C01282019682179307B9F7089560
:104B90000E94A12508950E94BB250895029626E053
:104BA000FC0111922A95E9F7089546E050E00E9431
:104BB000A22F21E0892B09F420E0822F0895089587
:104BC0000E94DF25089583E08093B3020E94E025D0
:104BD0000895811102C081E001C082E08093B30298
:104BE0000E94E02508950E94E925089581E08093C0
:104BF000B3020E94E02508950E94F62508950895C5
:104C00000E94FF2508950E94002608950E94FF2516
:104C100008950E94FF2508950E94FF250895CF93CF
:104C20000E9409260E9475140E940626C0E08C2F5F
:104C30000E94AD13811104C0CF5FC730C1F701C01E
:104C400081E0CF91089585B7806885BF85B780687A
:104C500085BF08951F920F920FB60F9211248F9364
:104C60009F93AF93BF938091B402811113C0809141
:104C7000FB029091FC02A091FD02B091FE024196D0
:104C8000A11DB11D8093FB029093FC02A093FD0235
:104C9000B093FE02BF91AF919F918F910F900FBE85
:104CA0000F901F90189580910303843031F10E947A
:104CB00059051092B40220E488E190E00FB6F89410
:104CC000A895809360000FBE2093600083B7817F1A
:104CD000846083BF83B7816083BF7894889583B7EE
:104CE0008E7F83BF0FB6F894A8958091600088618D
:104CF00080936000109260000FBE08950E94A50A84
:104D00000E946005089582E084BD93E095BD9AEF0E
:104D100097BD80936E0008952FB7F8948091FB02A1
:104D20009091FC02A091FD02B091FE022FBF089568
:104D30002FB7F8946091FB027091FC028091FD0204
:104D40009091FE022FBF08959C014FB7F894809177
:104D5000FB029091FC02A091FD02B091FE024FBFB8
:104D6000821B930B089578941F920F920FB60F92A7
:104D700011248F939F93AF93BF938091FB029091E7
:104D8000FC02A091FD02B091FE020196A11DB11D91
:104D90008093FB029093FC02A093FD02B093FE026D
:104DA000BF91AF919F918F910F900FBE0F901F9069
:104DB000189587E797E790930108809300089AE099
:104DC00088E10FB6F894A895809360000FBE909389
:104DD0006000FFCF9AE088E10FB6F894A895809321
:104DE00060000FBE90936000FFCF8091C0020895D5
:104DF000089524E02093E9002FEF3091E80021503E
:104E000035FD06C035ED3A95F1F700002111F5CFDB
:104E10002091E80025FF0BC040E050E066E070E024
:104E20000E948D298091E8008E778093E800089594
:104E3000CF93DF9321E02093E9002FEF3091E8003A
:104E4000215035FD06C035ED3A95F1F700002111EE
:104E5000F5CF2091E80025FF14C0EC0140E050E0C0
:104E600068E070E00E948D298091E8008E77809341
:104E7000E80088E0FE01A8EBB2E001900D928A956F
:104E8000E1F7DF91CF9108958093B5027093B70257
:104E90006093B602809103038430F9F48093E900B3
:104EA0008FEF9091E800815095FD06C095ED9A95A1
:104EB000F1F700008111F5CF8091E80085FF0DC06A
:104EC00040E050E063E070E085EB92E00E948D29C5
:104ED0008091E8008E778093E8000895BC0184E01B
:104EE0000E9444270895BC0183E00E94442708954E
:104EF000CF93603219F5209103032430F9F4C09167
:104F0000E900CF703091EC00232F217030FD20E8B4
:104F1000C22B22E02093E9002091E80020FF0BC083
:104F200040E050E060E270E00E948D298091E8004E
:104F30008E778093E800CF70C093E900CF910895F9
:104F400080910203811109C00E945D2B0E94BA2B3F
:104F50008091E20084608093E20008951092020341
:104F600008950E94FC2508956091FF0281E061117F
:104F700001C080E00E94E32508959091030381E041
:104F8000943009F080E06091FF020E94E9250895C5
:104F900042E061EC81E00E94D62A42E261EC84E0CA
:104FA0000E94D62A42E261EC82E00E94D62A42E2C6
:104FB00060EC83E00E94D62A9091030381E0943054
:104FC00009F080E06091FF020E94F325089580912E
:104FD0000503833009F463C030F4813071F082300E
:104FE00009F49DC008958A3009F489C08B3009F412
:104FF0006EC0893009F0ABC020C080910403813AB3
:1050000009F0A5C08091E800877F8093E800809137
:10501000080390910903892B21F468E088EB92E062
:1050200003C060E080E090E070E00E94172A809169
:10503000E8008B778093E800089580910403813223
:1050400009F085C08091080390910903009719F039
:10505000029709F07CC08091E800877F8093E80088
:105060008091E80082FD05C0809103038111F8CF93
:105070006EC02091F3008091F20090E0922B029795
:1050800031F48091F100813011F0863021F480916B
:10509000F1008093C0028091E8008B7754C080912A
:1050A0000403813A09F053C08091080390910903E9
:1050B000892B09F04CC08091E800877F8093E8003D
:1050C0008091E80080FFFCCF80912D0137C0809156
:1050D00004038132E1F58091080390910903892B43
:1050E000B1F58091E800877F8093E8000E940B2B48
:1050F0008091060380932D010E94A50A0895809156
:105100000403813221F58091E800877F8093E800D5
:105110000E940B2B809107038093C1020895809118
:105120000403813AA1F48091E800877F8093E8002E
:105130008091E80080FFFCCF8091C1028093F10054
:105140008091E8008E778093E8000E940B2B0895F1
:1051500084B7877F84BF0FB6F894A89580916000CC
:10516000886180936000109260000FBE90E080E83C
:105170000FB6F89480936100909361000FBE0E9477
:10518000F62508950E945D2B0E94BA2BE2EEF0E016
:1051900080818460808378940E94452E089581E206
:1051A00091E00E942F250895809103038530A9F492
:1051B00080910303853079F40E9453268091010386
:1051C0008823B1F30E940F26882391F30E94772948
:1051D0000E94A50AEDCF0E947E260895A0E2B0E0CD
:1051E000E4EFF8E20C94122F80910303843011F560
:1051F00083E08093E9008091E80082FF1BC08091EA
:10520000E80085FF0AC040E050E060E270E0CE01B7
:1052100001960E94D22991E001C090E08091E800BF
:105220008B778093E800992329F060E2CE01019604
:105230000E94C920A096E2E00C942E2F0E94212902
:105240000895292F332723303105C9F060F4213028
:10525000310581F02230310509F041C08BE590E045
:1052600029E137E040C021323105E1F02232310539
:1052700031F135C082E190E024E737E034C099276E
:105280008130910549F028F0029749F5E1EEF6E00A
:1052900005C0E5E1F7E002C0E5EFF6E0849190E0BB
:1052A0009F0121C063307105D0F4660F771FFB01A9
:1052B000EE52FE4F2081318189E090E014C06330CE
:1052C000710568F4FB01EE0FFF1FE453FE4F2081D0
:1052D0003181FB01E753FE4F808190E004C080E004
:1052E00090E020E030E0FA0131832083089580E1EE
:1052F00089BD82E189BD09B400FEFDCF8091D8004F
:105300008F7D8093D8008091E00082608093E000E0
:105310008091E00081FDFCCF0895A0E0B0E0E3E9DA
:10532000F9E20C940C2FEC018B017A010E942A2BDC
:10533000811133C0E114F10439F0F70180819181CA
:10534000081B190BC80FD91FC12CD12C0115110531
:1053500019F18091E80085FD16C08091E8008E77F4
:105360008093E800E114F10449F0F7018081918114
:10537000C80ED91ED182C08285E00FC00E942A2BA0
:10538000882321F30AC089918093F100015011090B
:10539000FFEFCF1ADF0ADACF80E0CDB7DEB7E8E063
:1053A0000C94282FA0E0B0E0E8EDF9E20C940C2F6B
:1053B000EC018B017A010E942A2B811133C0E11488
:1053C000F10439F0F70180819181081B190BC80F96
:1053D000D91FC12CD12C0115110519F18091E800BC
:1053E00085FD16C08091E8008B778093E800E1147A
:1053F000F10449F0F70180819181C80ED91ED18254
:10540000C08285E00FC00E942A2B882321F30AC0A6
:105410008091F100899301501109FFEFCF1ADF0A43
:10542000DACF80E0CDB7DEB7E8E00C94282F2091EA
:105430000A0330910B032617370748F061157105F1
:1054400039F42091E8002E772093E80001C0B901DB
:10545000FC0120E06115710579F180910303882337
:10546000F1F18530F1F18091E80083FD3CC080913D
:10547000E80082FD2EC08091E80080FFEBCF2091F4
:10548000F3008091F20090E0922B6115710551F0CC
:105490008830910538F421912093F1006150710911
:1054A0000196F3CF21E0089709F020E08091E80011
:1054B0008E778093E800CECF2111CFCF0AC08091A4
:1054C0000303882361F0853061F08091E80083FD5B
:1054D0000AC08091E80082FFF2CF80E0089582E068
:1054E000089583E0089581E0089520910A033091A2
:1054F0000B032617370748F06115710539F4209121
:10550000E8002E772093E80001C0B901FC0120E0FB
:105510006115710591F180910303882309F440C05E
:10552000853009F43FC08091E80083FD3DC0809143
:10553000E80082FD2FC08091E80080FFE9CF209134
:10554000F3008091F20090E0922B6115710559F003
:105550008830910540F424912093F10031966150F8
:1055600071090196F2CF21E0089709F020E08091BF
:10557000E8008E778093E800CBCF2111CCCF0AC012
:1055800080910303882361F0853061F08091E80009
:1055900083FD0AC08091E80082FFF2CF80E0089589
:1055A00082E0089583E0089581E00895982F973070
:1055B00068F59093E900981739F07091EC0020910C
:1055C000ED005091F00003C0242F762F50E021FD14
:1055D00002C09F5FECCF3091EB003E7F3093EB0039
:1055E0003091ED003D7F3093ED003091EB00316064
:1055F0003093EB007093EC002093ED005093F0009B
:105600002091EE0027FDE5CF80E008958F70809314
:10561000E90081E008958091040387FF11C0809123
:10562000E80082FD05C0809103038111F8CF11C00D
:105630008091E8008B770BC080910303882349F0A9
:105640008091E80080FFF8CF8091E8008E7780930A
:10565000E80008952091E4003091E50095E640913E
:10566000EC00842F817040FF23C08091E80080FD12
:105670001DC080910303882399F0853099F08091B3
:10568000EB0085FD11C04091E4005091E500241726
:10569000350729F3915011F09A01E1CF84E0089584
:1056A00082E0089583E0089581E0089580E0089500
:1056B0004091E80042FFDDCF08950E94CC2B0E946C
:1056C000D42BE0EEF0E0808181608083E8EDF0E0B3
:1056D00080818F77808319BCA7EDB0E08C918E7F9D
:1056E0008C9380818F7E80831092020308950F93A4
:1056F0001F93CF93DF930E94CC2B0E94D42BC8ED35
:10570000D0E088818F7788838881806888838881CA
:105710008F7D888319BC109203031092FF021092B0
:1057200001031092000300EE10E0F80180818B7FEE
:10573000808388818160888342E060E080E00E940D
:10574000D62AE1EEF0E080818E7F8083E2EEF0E009
:10575000808181608083808188608083F80180817E
:105760008E7F8083888180618883DF91CF911F91B4
:105770000F910895E8EDF0E080818F7E8083E7ED62
:10578000F0E080818160808384E082BF81E080934B
:1057900002030E94772B0895E8EDF0E080818E7F70
:1057A00080831092E20008951092DA001092E100D6
:1057B00008951F920F920FB60F9211242F933F93CB
:1057C0004F935F936F937F938F939F93AF93BF9309
:1057D000EF93FF938091E10082FF0BC08091E20084
:1057E00082FF07C08091E1008B7F8093E1000E94DF
:1057F000442E8091DA0080FF1FC08091D80080FF86
:105800001BC08091DA008E7F8093DA008091D900EE
:1058100080FF0DC080E189BD82E189BD09B400FE31
:10582000FDCF81E0809303030E94A02705C019BC2F
:10583000109203030E94AE278091E10080FF19C0FF
:105840008091E20080FF15C08091E2008E7F8093FE
:10585000E2008091E20080618093E2008091D800B4
:1058600080628093D80019BC85E0809303030E9476
:10587000B4278091E10084FF30C08091E20084FF72
:105880002CC080E189BD82E189BD09B400FEFDCF55
:105890008091D8008F7D8093D8008091E1008F7E29
:1058A0008093E1008091E2008F7E8093E2008091FE
:1058B000E20081608093E2008091FF02882311F072
:1058C00084E007C08091E30087FD02C081E001C051
:1058D00083E0809303030E94BD278091E10083FF52
:1058E00029C08091E20083FF25C08091E100877F7D
:1058F0008093E10082E0809303031092FF02809185
:10590000E1008E7F8093E1008091E2008E7F8093A2
:10591000E2008091E20080618093E20042E060E07A
:1059200080E00E94D62A8091F00088608093F00089
:105930000E94B127FF91EF91BF91AF919F918F91FD
:105940007F916F915F914F913F912F910F900FBE7B
:105950000F901F9018951F920F920FB60F9211245F
:105960002F933F934F935F936F937F938F939F9367
:10597000AF93BF93CF93DF93EF93FF93C091E90071
:10598000CF708091EC00D82FD17080FDD0E81092BC
:10599000E9008091F000877F8093F00078940E9466
:1059A000EF2C1092E9008091F00088608093F00065
:1059B000CD2BCF70C093E900FF91EF91DF91CF9194
:1059C000BF91AF919F918F917F916F915F914F9117
:1059D0003F912F910F900FBE0F901F901895AAE244
:1059E000B0E0E5EFFCE20C94112FE4E0F3E08091ED
:1059F000F100819323E0EC30F207C9F70E94E7271A
:105A00008091E80083FF2EC18091040390910503EB
:105A1000492F50E04A30510508F024C1FA01EB58F3
:105A2000FF4F0C94C42E803821F0823809F01AC13F
:105A300008C08091000390910103992389F082604E
:105A40000FC0809108038F70873008F00BC18093DE
:105A5000E9008091EB0085FB882780F91092E9002E
:105A60009091E800977F9093E8008093F100109266
:105A7000F100D1C0282F2D7F09F0F4C0882319F040
:105A8000823061F0EFC080910603813009F0EAC0F6
:105A9000933009F080E0809301032EC080910603CB
:105AA00081112AC0809108038F702FEF280F2630B4
:105AB00008F0D8C08093E9002091EB0020FF1CC0C3
:105AC000933021F48091EB00806214C09091EB0040
:105AD00090619093EB0021E030E0A90102C0440FF7
