:100000000C943D040C9475040C9475040C947504C4
:100010000C9475040C9475040C9475040C9475047C
:100020000C9475040C9475040C945E200C94A01F21
:100030000C94072C0C9475040C9475040C947504A2
:100040000C9475040C9475040C9475040C9475044C
:100050000C9475040C94BA2B0C9475040C947504D0
:100060000C9475040C9475040C9475040C9475042C
:100070000C9475040C9475040C9475040C9475041C
:100080000C9475040C9475040C9475040C9475040C
:100090000C9475040C9475040C9475040C947504FC
:1000A0000C9475040C9475040C947504E708E70827
:1000B0001A091A098D09AB09B90AB90AB6092A0A37
:1000C0003B0A3B0A7F0F820FA00FAC0FB30FBE0F8E
:1000D000C10FC10FC10F5F105F10C50FC70FCB0F4E
:1000E000F10F141017101A103E10B81DDF1D881FD5
:1000F000DF1D881F2B1E4E1E881F431F531F722E8D
:10010000682E7F2ECD2ED32ED32ECD2ED32ED32EB2
:10011000A02ED32EAA2EB42ED32ED32ED32ED32E52
:10012000CD2ED32ED32ECD2ED32E8D2ED32ED32E19
:10013000CF2ECF2ECF2ECF2ECF2ECF2ECF2ECF2ED7
:10014000CF2ED12ED32E722E652ED32ED32ED32E7C
:10015000D32ED32ED32ED32ED32ED32ED32ED12E99
:10016000D32ED32ECD2ED32EC22EC22EC22EC22ED1
:10017000C22EC22EC22EC22EC22ED12E00000000D0
:10018000000000000000000000000000000000006F
:10019000000000000000000000000000000000005F
:1001A0007E0F00D4FFFFFFC70000007800000000B2
:1001B000000000002A2B28000000000000000000C2
:1001C0000000000000000029000000002C1E342068
:1001D000212224342627252E362D3738271E1F208E
:1001E0002122232425263333362E37381F040506D3
:1001F0000708090A0B0C0D0E0F1011121314151617
:100200001718191A1B1C1D2F3130232D3504050614
:100210000708090A0B0C0D0E0F10111213141516F6
:100220001718191A1B1C1D2F3130354C05010902F6
:10023000A10185020901A10005091901290815007C
:1002400025019508750181020501093009311581E3
:10025000257F95027508810609381581257F95014E
:1002600075088106050C0A38021581257F950175F0
:10027000088106C0C005010980A101850319012A72
:10028000B700150126B700950175108100C0050C57
:100290000901A101850419012AA002150126A00265
:1002A000950175108100C005010906A101850605AB
:1002B0000719E029E7150025019508750181020558
:1002C00007190029EF1500250195F0750181020538
:1002D000081901290595057501910295017503918C
:1002E00001C00660FF0961A1010962150026FF0037
:1002F0009520750881020963150026FF0095207579
:10030000089102C005010906A101050719E029E7C6
:100310001500250195087501810295017508810177
:100320000507190029FF150026FF009506750881AD
:1003300000050819012905950575019102950175BA
:10034000039101C009025B00030100A0FA09040047
:1003500000010301010009211101000122400007F1
:1003600005810308000109040100020300000009DF
:10037000211101000122220007058203200001074C
:100380000503032000010904020001030000000925
:10039000211101000122B60007058403200001128B
:1003A000010002000000084B54120001000102008D
:1003B00001180350006F0072007400690063006F41
:1003C0000036003800760032000000080354004B6D
:1003D00000430000000403090400010101010101C0
:1003E00001010102020202020202020203030303EC
:1003F00003030303040404040404040505050505BC
:100400000606060606070707070708080808090979
:1004100009090A0A0A0B0B0B0C0C0C0D0D0D0E0E24
:100420000E0F0F0F101011111112121313141415B7
:100430001516161717181819191A1A1B1B1C1D1D2B
:100440001E1E1F2020212222232424252626272881
:1004500029292A2B2C2D2D2E2F30313232333435B1
:10046000363738393A3B3C3D3E3F404142434445B4
:10047000464748494A4C4D4E4F5051535455565893
:10048000595A5B5D5E5F616264656668696B6C6D3D
:100490006F7072737577787A7B7D7E8082838587B3
:1004A000888A8C8E8F91939596989A9C9EA0A2A3F1
:1004B000A5A7A9ABADAFB1B3B5B7BABCBEC0C2C4F6
:1004C000C6C9CBCDCFD1D4D6D8DBDDDFE2E4E7E9B6
:1004D000EBEEF0F3F5F8FAFDFF4400C103BCE04297
:1004E0000B34C1C412ACA1461A2482C8219C624AB2
:1004F000291443CC308C234E380404D03F50308133
:1005000004C810030C40F18413B8D1061B30B28824
:1005100022A8920A2A38D00003B0B0820A28910497
:1005200012A07186191852082190328A2808130CDB
:100530003080F38D37F8D30F3F5C604105D440C362
:100540000C4C214514C401C71B3CE24823B4C2CA69
:100550002A2CA04002A480C2091C6144119441C607
:10056000180C2248208402CA27FCE24B2F74C3CD0A
:1005700036ECA34F3E68900106E070830D5851059C
:1005800015D031871CC0F28A2B2070800110318475
:10059000108811061800F2871F78D20927F0B28B55
:1005A0002E68930D36E0738F3D74C0C106ECA043F6
:1005B0000E6481C515DC61471D5442C924CC224B11
:1005C0002C1440C0008C2042080401C40FE482CBEC
:1005D0002D6484D14588141248ACA4524AD0349377
:1005E0004CF4C4D34E4C24514470B491469444D23C
:1005F00048B8D4124BDC64534D00F5934F2485D496
:1006000051481515546CA55556585411457CE45164
:1006100047A0749249C404D34BE894134E0C25545C
:1006200050165C1E001F0020002100220023002421
:10063000002500260027002D002E002A004A002B4E
:100640000014001A000800150017001C0018000C08
:1006500000120013002F00300031004B003900045D
:10066000001600070009000A000B000D000E000F25
:100670000033003400280000004E00E10000001D9F
:10068000001B00060019000500110010003600379D
:10069000003800E50052004D00E000E300E20000F9
:1006A00000000000002C000000000000000151E4E8
:1006B00000500051004F00165C3A003B003C003DEA
:1006C000003E003F0040004100420043004400451E
:1006D000004C004A000100C25CC35CC55CC65CC73C
:1006E0005CC85CC95CCA5C01004600470048000069
:1006F0005C4B003900CB5CCC5C01000100010001C7
:100700000001000100010001000100010000004E95
:1007100000E10000000100010001000100010014DF
:100720005C01000100010001000100A900A8000116
:1007300000010001000000000000000100000000B6
:1007400000000001000100AC00AA00AB00010001A4
:100750000001000100010001000100010001000191
:100760000001000100010001000100010001000181
:100770000001000100010001000100010001000171
:100780000001000100010001000100010001000161
:100790000001000100010001000100010001000151
:1007A0000001000000010001000000010001000143
:1007B0000001000100010001000100010001000131
:1007C0000001000100010001000100000000000024
:1007D0000001000000000000000100010001000114
:1007E0000001000100010001000100010001000101
:1007F00000010001000100010001000100010001F1
:1008000000010001000100010001000100010001E0
:1008100000010001000100010001000100010001D0
:1008200000010001000100010001000100010001C0
:1008300000010001000100010000000100010000B2
:1008400000010001000100010001000100010001A0
:100850000001000100010001000100010001000190
:100860000000000000000001000000000000000186
:100870000001000100010001000011241FBECFEFA4
:10088000DAE0DEBFCDBF04B603FE18C080915F077B
:1008900090916007A0916107B09162078730904BFB
:1008A000A740B04B59F410925F0710926007109266
:1008B000610710926207E0E0F8E3099512E0A0E01A
:1008C000B1E0E6E2FDE602C005900D92A43DB1075D
:1008D000D9F727E0A4EDB2E001C01D92AF35B20711
:1008E000E1F70E94690B0C9491360C9400000E9471
:1008F000FB322FEF84E39CE0215080409040E1F7F1
:1009000000C000009CE088E10FB6F894A8958093A1
:1009100060000FBE90936000FFCFA7E1B0E0E3E975
:10092000F4E00C9418354B8B5C8B6D8B7E8B8F8B2E
:1009300061111092C30386E09E01235F3F4FD901EE
:10094000E82F1D92EA95E9F795E0FE017396D9012B
:1009500001900D929A95E1F79C894E895F897B8978
:100960007D879E876F87598B488BF901DE0117962B
:1009700001900D928A95E1F7CE0107960E94CD195C
:1009800081113EC086E0FE013796DE01119601908E
:100990000D928A95E1F7FF81E8856A857B8561156F
:1009A000710531F0EF3F31F481E0FF3F19F403C0EE
:1009B00081E001C080E080FD23C02091700330E021
:1009C000C9010196877099274091A10350E08417CF
:1009D000950779F1F983EA837D836C8396E0929F92
:1009E000D001939FB00D1124AF58BC4FFE0131963A
:1009F00001900D929A95E1F7809370030E944D1932
:100A000016E08091A103909170038917F9F0189F67
:100A1000C00111248F589C4F0E94CD198823B1F03A
:100A20008091A10390E00196877099278093A1039C
:100A3000E8CF0E94FB32109270031092A103EAE605
:100A4000F3E086E0DF011D928A95E9F76796E3E01F
:100A50000C943435A9E0B0E0E0E3F5E00C940A35FD
:100A6000FC018081918123813481232B31F09F3FD0
:100A700031F491E08F3F19F403C091E001C090E0A0
:100A800090FD23C67F0185E0DE01119601900D9255
:100A90008A95E1F7F701228189819A81222349F021
:100AA0000E942032182F682F89819A810E948332F8
:100AB00003C00E944F32182F69817A81812F0E94D2
:100AC000C92D8C01F7018281882309F4F5C09801B2
:100AD00022513F452031310508F00AC18FEF93E0E4
:100AE0000E94B5358111F2C002513FE7832E32E0FA
:100AF000932E002379F08114F4E09F0609F4E6C0F8
:100B0000C4010E94B535811101C001502FEF821A36
:100B1000920AEFCF1E821F821886198644244394BE
:100B20002AE0322E84010F5F1F4FC4010E94B535A9
:100B30008E831F82882309F4C9C09FEF980F9330DA
:100B400060F48F834E8232E0830E911CC8010E94B4
:100B5000B5358887811102C0B9C048018E010A5F8E
:100B60001F4FF80120812223E9F2213009F04CC007
:100B70008181813049F46801F2E0CF0ED11CF80187
:100B800082810E940A340AC0823051F46801F2E086
:100B9000CF0ED11CF80182810E945733860189C093
:100BA000833049F46801F2E0CF0ED11CF801828154
:100BB0000E942233F3CF843019F00F5F1F4F79C0AA
:100BC000F80122810E5F1F4F80E090E030E020535B
:100BD00031092A30310568F4389EA001399E500D44
:100BE0001124C901840F951F0F5F1F4FF801208149
:100BF000EDCF009709F45DC0EFE9FFE03197F1F721
:100C000000C000000197F5CFE22FF0E0E455FE4F61
:100C10005490822F86958695869590E0FC01E45647
:100C2000FE4F64902770712C022E02C07594679459
:100C30000A94E2F7F1E06F227724FC01E457FE4FBB
:100C4000A490B12C022E02C0B594A7940A94E2F7A6
:100C500031E0A322BB24FC01E458FE4FC490D12C08
:100C600002C0D594C7942A95E2F781E0C822DD241A
:100C70006114710419F081EE0E945733A114B1047C
:100C800019F086EE0E945733852D0E940A34A11474
:100C9000B10419F086EE0E9422336114710419F038
:100CA00081EE0E942233C114D10419F08CE20E941B
:100CB0000A340F5F1F4F55CF00313FE5130709F08E
:100CC00077C481E00E94BD320E94422F8091A2032E
:100CD000877009F4FAC4F7018281882309F4F5C406
:100CE0008091080782FFF1C482E00E941419EDC4CC
:100CF0000031FFE51F0711F481E005C001312FE548
:100D0000120721F482E00E94CA32DECF033FFCE5E5
:100D10001F0749F406E221EE40EE63EF7CE5C701D0
:100D20000E94C62CD3CF043F2CE5120708F069C1FE
:100D3000083D3CE5130731F407E225EE45EE68ED8A
:100D40007CE5EDCF093D9CE5190731F408E221E08F
:100D500045EE69ED7CE5E3CF073DECE51E0731F498
:100D600006E221EE41EE67ED7CE5D9CF882309F458
:100D70007DC11092FB0603309DE5190758F40A3F28
:100D8000ECE51E0780F4C80182509C45449708F0AA
:100D900057C109C00136FDE51F0729F0053A2DE5C9
:100DA000120709F04DC10E942A18909308078093FA
:100DB000070701313CE5130709F4C9C008F043C037
:100DC00009309CE5190709F49EC008F50530FCE5DB
:100DD0001F0709F488C080F403303CE5130709F4C9
:100DE0007BC008F07DC002309CE5190709F0F9C00E
:100DF000809107078160F3C00730ECE51E0709F416
:100E00007AC008F07CC0809107078061E8C00D308F
:100E10002CE5120709F489C058F40B308CE518074B
:100E200009F47BC008F07DC080910707886071C01D
:100E30000F30ECE51E0709F482C008F084C08091F1
:100E40000707877FCCC00D3F2CE5120709F473C05C
:100E500008F505318CE5180709F487C068F40331FB
:100E6000ECE51E0709F477C008F097C00E94FB323A
:100E7000809107078F77B3C00B3F2CE51207B9F1BC
:100E800008F056C00A3F8CE5180709F0AAC0809107
:100E9000080741C001309DE5190709F48AC058F4DC
:100EA0000F3FFCE51F0709F45BC008F06AC08091A2
:100EB0000807826030C001363DE5130709F47FC0A2
:100EC000053A8DE5180709F484C002309DE519073D
:100ED00009F087C060E06EC08091070782607FC024
:100EE0008091070716C080910707886078C08091BD
:100EF000080782604FC080910707806270C08091B0
:100F0000070780646CC00E94FB32809107078068ED
:100F100066C0846064C081603DC0809107078E7F99
:100F20005EC0809107078D7F5AC08091070716C069
:100F30008091080718C0809108078D7F2BC0809191
:100F400007078F7E4CC0809107078F7D48C0809136
:100F500007078F7B44C080910707877F8B7F3FC047
:100F6000809108078D7F8E7F15C08091070782FBD7
:100F7000222720F991E0922790FB82F990FB83F9D8
:100F80002EC080910807982F909591708E7F892BA5
:100F900090FB81F98093080724C00E94FB32809166
:100FA000070787FB222720F991E0922790FB87F91A
:100FB00016C061E08EE090E00E94D33512C08091AF
:100FC000070784FB222720F991E0922790FB84F900
:100FD00006C080910707982F909590FB80F9809329
:100FE0000707609107071091080784E090E00E94CE
:100FF000D335612F82E290E00E94D3350E94FB320C
:1010000065CE053FFCE51F0731F406E221EE42EE16
:1010100065EF7CE584CE053F2CE5120730F407E24E
:1010200025EE44EE64EF7CE57ACE063F3CE51307FF
:1010300009F09CCE07E225EE46EE66EF7CE56FCE2A
:1010400006318CE5180721F58091C4038A7A91E076
:1010500009F490E09093D602882311F065E301C073
:1010600069E28AE493E00E94582C0FC00631ECE557
:101070001E0709F044C08091D602882309F49FC25C
:1010800065E38AE493E00E94302C0E94BF181ECED4
:101090000A359DE5190769F158F40115FCE51F07AC
:1010A00081F00E3D1C4509F045C00E94471817C04D
:1010B0000C353DE51307A9F0F0F0073A1D4579F02E
:1010C00039C00E94FB32EFEFF4E32CE0E150F04036
:1010D0002040E1F700C000000E94962BF7CD0E944F
:1010E00077048091080782FB882780F991E089279F
:1010F00003C081E001C080E00E9431191BC08091D3
:10110000C40382720A3CECE51E0709F4C5C208F468
:1011100058C20F3CFCE51F0709F4D2C208F484C290
:10112000063D2CE5120708F491C20D358DE5180730
:1011300009F4CCCDF701828100811181882349F027
:10114000C8010E942032D82E682FC8010E94833225
:1011500004C0C8010E944F32D82EB8018D2D0E94C4
:10116000C92D0E949016B82E192F982EF7010281D2
:10117000A580A2949FE0A9228091A2038770B9F074
:101180000023A9F0812F807F803421F080E28B0D35
:10119000883068F08091080782FF09C082E00E94D1
:1011A00014198091A2038770DD24D3948111D12C6E
:1011B000C12EC2948FE0C8228C2D90E08C30910516
:1011C00008F0D7C1FC01EA5AFF4F0C946E36812F0C
:1011D000807F1F70882311F01295107F0023B9F0D3
:1011E000112309F4B4C180E28B0D883010F0911006
:1011F00006C08091C403182B1093C40305C08091CE
:10120000C303182B1093C3030E94BF18A0C18B2DDA
:101210000E942233112309F4ACC180E28B0D883087
:1012200080F1992071F110958091C30318231093D8
:10123000C3032AC0812F807F1F70803211F0129566
:10124000107F8B2D992021F0F1E09F16D9F149C034
:101250008091080782FD1BC0002369F0112339F03B
:101260008091C403182B1093C4030E94BF1880E020
:101270000E9457337EC180E00E942233112309F47B
:1012800078C1812F0E94B8180E94BF1872C1002334
:1012900081F08091C503AA2051F021E0A21207C07D
:1012A000182B181709F465C11093C50362C1812B6F
:1012B00010C0AA2021F031E0A31609F45AC10E94FF
:1012C000B21827C0002341F085E08A1508F451C107
:1012D000812F0E9418334DC194E09A1508F449C13A
:1012E00018C0002349F0AA2099F3F701858180FFF7
:1012F0002EC18F708583ECCFAA2059F0893309F075
:1013000035C1FFEF27EE33E0F15020403040E1F7E8
:101310002BC1812F0E9411332CC1812F8695869578
:10132000837019F0813061F024C1002321F08B2DEE
:10133000912F937002C080E090E00E94A32C1FC107
:10134000002321F08B2D912F937002C080E090E05C
:101350000E948D2C14C18B2D002319F00E949E2613
:1013600002C00E94AF250E94F92609C1812F837017
:10137000A9F5011102C14B2D429546954770440FC6
:10138000440F8B2D8F7090E09C01042E01C0220F22
:101390000A94EAF7B4FE08C08FE090E001C0880F1D
:1013A0004A95EAF7809501C080E01695169513706E
:1013B000123069F088F49091C603113019F0822B35
:1013C000892302C0922B892B0E94D632D6C0822B51
:1013D0009091C6038927F8CF822BF6CF002319F00E
:1013E000812F817001C08695882309F4C6C04B2DDA
:1013F000429546954770440F440F8B2D8F7090E0B7
:101400009C01042E01C0220F0A94EAF7B4FE08C022
:101410008FE090E001C0880F4A95EAF7809501C0FF
:1014200080E0169516951370123059F078F490916B
:101430003907113019F0822B892309C0922B892B8F
:1014400006C0822B90913907892701C0822B0E9408
:10145000B83293C01F70002339F0812F0E94CA3226
:101460008B2D0E94183389C08B2D0E941133812F40
:101470000E94BD3282C08B2D92EF991681F1991591
:1014800038F0E0EF9E1659F0F1EF9F1619F15BC0AE
:1014900023EF921659F134EF9316C1F054C0002394
:1014A00081F084E08A1508F464C01F7181E090E047
:1014B000012E01C0880F0A94EAF790913907892715
:1014C00020C095E09A1508F454C0EFCF809108072A
:1014D00082FD1AC0002329F0812F8F7127C00023BD
:1014E000D9F3812F8F710E94BD3243C0002341F098
:1014F0001F7181E0012E01C0880F0A94EAF701C034
:1015000080E00E94B83235C0002399F01F71812F0E
:101510000E94CA328091080782FF07C0E8E01E9F40
:10152000C001112483608093A203812F0E94CA32DC
:1015300020C081E00E941419F1E0FA15D0F482E095
:101540000E94141916C0002321F0AA2029F28B2D25
:101550008FCEAA2031F2893349F42FEF37EE83E0A2
:10156000215030408040E1F700C000008B2D0E94E8
:10157000223388EF8C0D843010F40E94B92CDD20CA
:1015800009F4A3C08091A20380FD9FC0F7011282DD
:101590008595859585950E94CA32C7010E942A05C6
:1015A0008091A2038595859585950E94BD328DC059
:1015B00001319FE5190709F0A9CB82E083CB69E2ED
:1015C00060CD053C2CE5120709F452C0D0F4033C71
:1015D0009CE5190709F442C008F045C0023CFCE54F
:1015E0001F0709F0A7CD90913B0781E089278093E1
:1015F0003B071092150180913A07816080933A076A
:1016000065CB073C2CE51207E9F1B8F1083C9CE5F5
:101610001907E9F1093CECE51E0709F08BCD48E913
:1016200059E266EA79E246C00C3C3CE51307F1F169
:10163000C0F10D3CECE51E0709F43FC00E3CFCE593
:101640001F0709F077CD61E085E03CC0013D3CE536
:10165000130708F03BCB61E082E134C04FEF59E261
:101660006AE07AE227C04AE05AE26FEF79E222C0EC
:1016700040ED59E26BED79E21DC04BED59E260EDB2
:1016800079E218C044EB59E262EC79E213C042EC13
:1016900059E264EB79E20EC046EA59E268E979E280
:1016A00009C043E257E261E377E204C041E357E255
:1016B00063E277E20E941F2909CB61E081E002C06A
:1016C00061E08DE00E94E62901CB2996E1E10C94CE
:1016D0002635AAE2B0E0EFE6FBE00C94093585B7C9
:1016E000806885BF85B7806885BF84B7877F84BFE2
:1016F0000FB6F894A895809160008861809360008F
:10170000109260000FBE90E080E80FB6F8948093CE
:101710006100909361000FBE84E396E19093D5023F
:101720008093D4020E94E41F0E9403208091E20073
:1017300084608093E20078948091EF038823A1F085
:101740001091E9001F709091EC00892F817090FD3D
:1017500080E8182B1092E9008091E80083FD0E9438
:10176000D51C1F701093E90082E084BD93E095BD05
:101770009AEF97BD80936E000E940629811102C0E6
:101780000E94F62806E311E0FBE3EF2EF1E0FF2EC6
:10179000D8018D918D018F3F11F00E947916E016CE
:1017A000F106B1F70BE311E0EAE4EE2EE1E0FE2EE4
:1017B000F80181918F018F3F11F00E947916E01698
:1017C000F106B1F78AE0ECEEF2E0DF01282F1D927E
:1017D0002A95E9F7E7EDF2E0DF011D928A95E9F736
:1017E0000E943B18811102C00E94471882E090E0DD
:1017F0000E94B5358093F5060E942A189093080739
:10180000809307070E94541BEFEBFDE53197F1F73A
:1018100000C000000E94541B8091EC0280FF08C0B1
:101820006FEF7FEF80E090E00E94F1350E94962BF1
:1018300083E090E00E94B5350E94D6320E941E28B7
:1018400010921007E9E2F7E08FEF9FEF81939193F9
:1018500027E0E933F207D1F710920604EFE1F4E054
:101860008FEF9FEF8193919334E0EF32F307D1F73D
:101870000E943B18811104C00E9447180E944C240A
:1018800046E050E06CE170E08BE397E00E94A53504
:1018900010923A0780913B078C7F11F40E944C24F0
:1018A00084E091E09093FF068093FE0644244394E5
:1018B0008E010F5F1F4F1E014BE0240E311C8091E3
:1018C000EF03853009F063C050E4E52E63E0D62EC7
:1018D00070E1F72E8091EF03853009F052C08091BE
:1018E000EF03843009F439C00E94162A8091330432
:1018F00081110DC00E94AE101092140180913B071F
:101900008370809313010E94C127D092150161E07A
:10191000609333041092020788E190E00FB6F894C8
:10192000A895809360000FBEE092600083B7817F2E
:10193000846083BF83B7816083BF7894889583B7C1
:101940008E7F83BF0FB6F894A89580916000886160
:1019500080936000109260000FBE8091EE03882398
:1019600009F4B8CF0E94541BECEEF2E08191919102
:10197000892B09F0CEC3A6EFB2E0AE17BF07B1F7CF
:10198000A9CF0E94FB320E94B92C109233040E940E
:10199000541B81110E94EF2B4CEE842E42E0942EBA
:1019A000E1EEF2E0D401C12CD12C5C2CAD90BD90C5
:1019B000819191918A259B25009709F444C1712C4E
:1019C000EE24E394F12C970128233923232B09F4E7
:1019D00034C179A25AA2AE20BF2081E0A114B10483
:1019E00009F480E08BA30E94FB2B8160782F9DA3DC
:1019F0008CA349A15AA16BA18DA10E948D04F6016F
:101A0000EE0FFF1FEF51FD4F80819181E826F926EF
:101A1000F182E082AB2839F0A801672D852D0E9464
:101A20003A24682E01C0612CE62CF12C809106042A
:101A3000F701E80FF11D39976CF188E090E05C0147
:101A4000AE18BF08B701695F7B4FA50187E094E03E
:101A50000E948836B701615F7B4FA5018FE094E05B
:101A60000E948836A501440F551FB701660F771FE6
:101A7000615E7B4F8FE194E00E948836B701695E1A
:101A80007B4FA50187E194E00E94883688E08619A3
:101A900080930604F0900604A80160E0862F8F0D65
:101AA000661609F190E0DA017D91AD01272F30E053
:101AB000FC01EA5FFB4FD901AA0FBB1FA352BE4F27
:101AC000AC91A183220F331FD901A252BE4F2C919A
:101AD0002187718B880F991FFC01EA5FFB4F128EE3
:101AE000118E6F5FDBCF8093060480913B078C7F64
:101AF000843709F0C0C0FF24FA94F50C91E0950DED
:101B00003FEF370D21E0270D371580F48FE08C9DD6
:101B1000F0018D9DF00D1124E150FD4FE30FF11DFB
:101B2000408150E1450F08F44FEF4083472D50E0CE
:101B30008FE08C9DF0018D9DF00D1124E150FD4F43
:101B4000DF01A40FB51F7C9180E2682F760F08F4A7
:101B50007FEF7C932F3049F0E20FF11D708180E11F
:101B6000682F760F08F47FEF7083953009F432C048
:101B7000A92FB0E0371590F48FE08A9FF0018B9F7A
:101B8000F00D1124E150FD4FE30FF11D80819DE028
:101B9000782F692F760F08F47FEF7083EFE0EA9FCC
:101BA000C001EB9F900D112481509D4FFC01E40F6B
:101BB000F51F608170E1670F08F46FEF60832F30CD
:101BC00049F0FC01E20FF11D60817DE0670F08F430
:101BD0006FEF6083F51408F04EC08F2D90E037153D
:101BE00080F46FE0689FF001699FF00D1124E150CF
:101BF000FD4FE30FF11D30816DE0360F08F43FEF2C
:101C000030833FE0389FF001399FF00D1124E150FF
:101C1000FD4FDF01A40FB51F3C9140E1340F08F4E4
:101C20003FEF3C932F3039F1E20FF11D20813DE071
:101C3000230F08F42FEF20831EC07394EE0CFF1CBB
:101C40007FE07712C0CE8FEFC81AD80A95E0C91688
:101C5000D10409F0AACE8FEF8EA38FA318A60E94FD
:101C6000FB2B8160782F9AA789A74EA15FA168A559
:101C70008AA50E948D040E94162A86E0E0E0F4E026
:101C8000D80101900D928A95E1F71092020410920A
:101C9000030410920404109205048B81811104C086
:101CA0008C81882309F45DC08091FE039091FF032D
:101CB0000E94E02BAC019091FA03992339F0209116
:101CC0001A0130E02417350758F04BC020911B0152
:101CD000AAE02A9F900111242417350718F041C06B
:101CE0009F3F19F09F5F9093FA03FB80FF2061F004
:101CF0000E945F261F1414F491E001C09FEF899F9A
:101D0000802D112480930204FC80FF2061F00E944A
:101D10005F261F1414F491E001C09FEF899F802D6E
:101D2000112480930304309102043323D1F02091D5
:101D300003042223B1F045EB3403C001112499239D
:101D400019F09093020402C04092020465EB26034E
:101D5000C0011124992319F09093030402C040920A
:101D600003048D81811104C08E81882309F451C040
:101D70008091FC039091FD030E94E02B9C019091C7
:101D8000F903992309F4E5C12135310508F441C06F
:101D90009F3F19F09F5F9093F903FD80FF2061F052
:101DA0000E9426261F1414F491E001C09FEF899F22
:101DB000802D112480930404FE80FF2061F00E9496
:101DC00026261F1414F491E001C09FEF899F802DF7
:101DD000112480930504309104043323D1F0209121
:101DE00005042223B1F075EB3703C00111249923B8
:101DF00019F09093040402C04092040435EB2303CD
:101E0000C0011124992319F09093050402C0409257
:101E1000050446E050E0B80180E094E00E947B3683
:101E2000892BA9F48091020481110FC080910304D1
:101E300081110BC080910404811107C081E0909151
:101E40000504911103C080E001C081E080FD0E9483
:101E5000F92686E0F801A0E0B4E001900D928A95A1
:101E6000E1F70E94B92C9091EB0289138093EB0269
:101E70008091EF03843009F022CD83E08093E90064
:101E80008091E80082FF1BCD8091E80085FF21C092
:101E90000E94352181111BC080E2C82ED12C78010F
:101EA00009C08091F100D7018D937D01B1E0CB1A7B
:101EB000D10869F08091E80085FDF3CF8091E800BA
:101EC0008B778093E8000E943521882399F391E075
:101ED00001C090E08091E8008B778093E80099231F
:101EE00009F4EDCCE9818E2F90E0FC013197E331CC
:101EF000F10508F0E4C0EE59FF4F0C946E361A82DB
:101F000089E047C08A81823009F41AC1833049F0E0
:101F10008130B9F50E94EF2B9B838C837D836E8388
:101F2000D0C0F801D4018C9111969C91B2E08B0E37
:101F3000911C9283838332962E163F0699F7C1C077
:101F40008A818230F1F46B817C818D819E810E9437
:101F500074360E94D52EB5C04C816B818A810E9457
:101F60009B2D9D83F4C02D813E813227232732276C
:101F70004C816B818A810E943F2DA3C00E94662DF7
:101F8000A0C0C8010E94DA2E9CC080E151C04A82E4
:101F900081E88B8396C0EA80FB80FE24EF24FE2438
:101FA000CC80D12C5801C70181589D4F9501201B31
:101FB000310B2C153D0508F084C0E1E8EE16E1E098
:101FC000FE0630F40E94B535D50114968C9302C0FC
:101FD000F5011482FFEFEF1AFF0A2FEFA21AB20ADF
:101FE000E2CFEA80FB80FE24EF24FE24CC80D12CBB
:101FF0005801C70181589D4F9501201B310B2C15AD
:102000003D0508F05EC031E8E31631E0F30628F440
:10201000D50114966C910E94D335BFEFEB1AFB0AE1
:10202000EFEFAE1ABE0AE5CF0E942F2D4AC084E022
:102030008A8347C0EA80FB80FE24EF24FE24CC8004
:10204000D12C5801C70187969501201B310B2C1507
:102050003D05B8F5F8E5EF16F2E0FF0630F40E9412
:10206000B535D50114968C9302C0F5011482FFEFAB
:10207000EF1AFF0A2FEFA21AB20AE4CFEA80FB8020
:10208000FE24EF24FE24CC80D12C5801C701879672
:102090009501201B310B2C153D0598F438E5E3160E
:1020A00032E0F30628F4D50114966C910E94D335E2
:1020B000BFEFEB1AFB0AEFEFAE1ABE0AE7CF8FEFC6
:1020C00089838091EF03843009F0F9CB8091E90096
:1020D0008F702091EC00922F917020FD90E8F92EE6
:1020E000F82A82E08093E9008091E80080FF0CC02C
:1020F00040E050E060E270E0C8010E94CD31809184
:10210000E8008E778093E8008F2D8F708093E90030
:10211000D6CBF9BC82E189BD09B400FEFDCF809128
:10212000D8008F7D8093D8008091E00082608093FA
:10213000E0008091E00081FDFCCF0E94FB32CACB21
:1021400086E290E00E94B5351B821C821D828E8340
:10215000B8CF2B30310508F01DCE5BCEA9E0B0E042
:10216000E4EBF0E10C940935582E809114018511AF
:102170000DC020913B07237030E04091130150E0E7
:1021800081E02417350719F480E001C081E08170F7
:10219000809332018091400790913101981739F076
:1021A0008093310140E060E080E00E94342445E10A
:1021B00054122DC085E792E205C084E1581249C14E
:1021C00087EA92E20E94A6300EC0F51508F490C18D
:1021D00025E0521609F449C136E053123AC18FE3A3
:1021E00093E20E945C30909130019F5F90933001A8
:1021F000811136C582E080931501809132018111F1
:102200002FC551102DC583E08093150129C54515B3
:1022100008F4B0C18AE058120BC08EED93E205C0FD
:102220005A1608F081C182EC93E20E94FB30DBCFAA
:10223000851508F46BC194E0591242C01091300129
:1022400081E1189F102D112401E1010F033508F0E1
:1022500002E5C0903D07B0903E0720913F0780E423
:10226000D82E4D2D429F412D1124D42E101708F049
:1022700045C0E12EF12CF701EF57FD4F9081809181
:1022800031018923D9F0F701EE0FFF1FE352FE4F12
:102290006081D69EB0011124B5E075956795BA9519
:1022A000E1F780913C07680F7C2D8B2D0E9425253E
:1022B000462F282F672FC7010E9437241F5FD6CFD4
:1022C000951508F4CCC0A1E05A121DC080913001D0
:1022D00011E1819F102D112401E1010F033508F058
:1022E00002E560913C0770913D0780913E070E9496
:1022F0002525F62EE72ED82E101790F081E0023516
:1023000008F471CF0BC05A16E8F48091320188238B
:1023100029F040E060E080E00E94342480E063CF58
:10232000E12FF0E0DF01AF57BD4F8C91909131016B
:10233000982331F02D2D4F2D6E2DCF010E94372483
:102340001F5FDACF80913001B2E05B123BC011E138
:10235000819F102D112401E1010F033508F002E5E2
:10236000E0903D07F0903E07D0903C076D2D7E2D0C
:102370008F2D0E942525C62EB72EA82E60913F07CF
:102380006D0D7E2D8F2D0E942525F62EE72ED82E41
:10239000101708F0B3CF812F90E0FC01EF57FD4FED
:1023A000308120913101232359F030FF04C02D2DBD
:1023B0004F2D6E2D03C02A2D4C2D6B2D0E943724DE
:1023C0001F5FE6CFE3E05E1244C011E1819F102D54
:1023D000112401E1010F033508F002E5E0903D070B
:1023E000B0903E0720913F0730E4F32E3F2D329FFF
:1023F000312D1124F32E101708F080CFC12ED12CCF
:10240000F601EF57FD4F9081809131018923B9F09A
:10241000F601EE0FFF1FE252FE4F808182958F7012
:1024200060913C078F9D600D11247E2D8B2D0E94A5
:102430002525462F282F672FC6010E9437241F5FAE
:10244000DACFE8E15E1609F4F6C0F9E15F1609F4A7
:1024500036C1809130018F5F80933001CBCEF7E0A1
:102460005F12B3CE83E193E2BCCE1091300181E1E3
:10247000189F102D112401E1010F033508F002E52A
:10248000E0903C07F0903D07D0903E0760913F07F9
:1024900066956695669580910C0790910D070E9450
:1024A0001B250E946724805887FD8195880F282F5F
:1024B0003D2D239F212D1124822FB7010E94252518
:1024C000F62EE72ED82E101708F018CFE12FF0E0E7
:1024D000DF01AF57BD4F8C9190913101982331F0BE
:1024E0002D2D4F2D6E2DCF010E9437241F5FEBCF76
:1024F00048E0541203C087E194E205C089E0581215
:10250000A8CF89EF93E20E9477316DCE9FE05912F8
:1025100003C084EE92E265CE951590F0ACE05A12BD
:102520007FCE81E193E25DCEBDE05B1203C088E027
:1025300093E257CEEEE05E128CCF8FEF92E251CE57
:10254000F2E15F1203C081EB93E2DDCFF51560F09D
:1025500020E1521203C085ED92E267CE31E15312C1
:1025600078CF82EF94E2CFCF43E1541226CE8DE9AB
:1025700093E25BCE90E2591205C089E192E20E949B
:10258000ED2F31CE951508F4C9C2AAE15A1203C045
:1025900088E894E226CEA51508F4D5C0B7E15B1211
:1025A00044C08091320181111EC060913F0720E13B
:1025B000620F08F46FEF80910C0790910D070E9455
:1025C0001B256AE070E00E94F534892B09F0A6CE45
:1025D0000E948C3562E570E00E945A3660913101AC
:1025E0000E944A299BCE8091300101E1809F002DFD
:1025F0001124F1E1FF2EF00E42E54F1510F4E2E553
:10260000FE2E10E0CF2CD12C0C151D0544F460914A
:102610003101C8010E944A290F5F1F4FF5CF81E0A9
:1026200091E59F1508F0DFCD79CE5B1608F009CF54
:1026300087E392E2C7CD8091320181111EC0609183
:102640003F0720E1620F08F46FEF80910C07909133
:102650000D070E941B2565E070E00E94F534892B70
:1026600009F05CCE0E948C3562E570E00E945A361B
:10267000609131010E94262951CE8091300101E103
:10268000809F002D112471E1F72EF00EA2E5AF1509
:1026900010F462E5F62E10E0CF2CD12C0C151D05A0
:1026A00044F460913101C8010E9426290F5F1F4F39
:1026B000F5CF81E0B1E5BF1508F095CD2FCE109193
:1026C000300181E1189F102D112401E1010F033524
:1026D00008F002E5E0903D07F0903E07D0903C07FF
:1026E00060913F0766956695669580910C0790917D
:1026F0000D070E941B250E946724805887FD819545
:10270000880F682F2CE0629F612D11246D0D7E2DA6
:102710008F2D0E942525F62EE72ED82E101708F0B3
:10272000EDCDE12FF0E0DF01AF57BD4F8C919091DF
:102730003101982331F02D2D4F2D6E2DCF010E94A8
:1027400037241F5FEBCF2DE15212ADC080913001D5
:1027500001E1809F002D1124E1E1E00FE987EC34D5
:1027600010F0FBE4F98780913201882361F040E0AA
:1027700060E080E00E9434248BE4EFEFF2E0DF01C0
:102780001D928A95E9F780913001811115C08091E1
:10279000FB029091FC020E94E02B21E0893191051F
:1027A00008F420E02093FA02499730F00E94FB2BB6
:1027B0009093FC028093FB0210E0B9856B2E712C84
:1027C0005FE0352EFE0131965F01061517050CF00E
:1027D00064C0C80165E070E00E945A367B014C017C
:1027E000389EF001399EF00D1124E150FD4FE60FA7
:1027F000F71F4080A5010E943A24282E65018C2DE8
:102800008A19821508F032C0D601EC91F0E0EF573A
:10281000FD4F908180913101892321F1342D25E5EF
:10282000321B08F430E070913D072AEA442D240F52
:1028300008F42FEF40913E0782E0289F200D1124DD
:102840002E5F249F212D11246AEA631B822F0E9490
:102850002525462FD6019C91282F672F892F90E0A0
:102860000E943724BFEFCB1ADB0AC9CF8091FA024E
:10287000882381F0242D31E0231B08F420E0389CCC
:10288000C001399C900D112481509D4FFC01EE0D2B
:10289000FF1D20830F5F1F4F98CF81E049854B3488
:1028A00008F4A1CC3BCD251508F476C03BE15312CA
:1028B00003C086E292E295CC4CE15412CACD40911D
:1028C000F6025091F7026091F8027091F90280913E
:1028D0000C0790910D07A0910E07B0910F07841778
:1028E0009507A607B70708F419CD0E94AC24F82E67
:1028F0000E94AC2492E5891BF0F7890F082F10E0A5
:10290000F801EF57FD4F909131018081892309F43F
:1029100041C0F1FE04C020E040E060E013C00E942E
:10292000AC24F82E0E94AC248695782F2FE7720FE6
:1029300008F47FEF6F2D80913E070E942525462FDA
:10294000282F672FC8010E94372420913F0730E1CC
:10295000230F08F42FEF60E1822F90E00E941B25E7
:10296000BC0184EF91E00E94F53480910C079091B6
:102970000D07A0910E07B0910F07860F971FA11D9D
:10298000B11D8093F6029093F702A093F802B093E2
:10299000F902C4CC81E027CC8EE15812B9C0109165
:1029A0003E0783E0189F70011124F694E794F69493
:1029B000E7946E2C812E912C8FEF90E0B4010E9451
:1029C0005A36062F80913201882371F040E060E092
:1029D00080E00E9434248BE4EFEFF2E0DF011D92EF
:1029E0008A95E9F71092FE028091FD028F5F809335
:1029F000FD023FEFA32E32E0B32E712C8E189F08FC
:102A00006501412C41100CC08091FE02811108C06B
:102A10000E948C35853595401CF4F50110830CC05F
:102A2000D6018C91882341F0811730F49091FD02FA
:102A3000091302C081508C93AE014F5F5F4F672D29
:102A4000842D0E943A24882311F1F6012081E98126
:102A5000621680F430E02E193F092E9DC0012F9D93
:102A6000900D3E9D900D1124B4010E94F534262F47
:102A7000412F09C0129FC0011124B7010E94F534F3
:102A8000462F20E060E08E2F90E00E943724439490
:102A9000FFE0CF0ED11C25E04212B4CF73943FEF7C
:102AA000A31AB30A4FE07412ABCF8091FD02081352
:102AB00002C01092FD028091FE028F5F8D3118F4EA
:102AC0008093FE022BCC1092FE022CE233E084E0D5
:102AD0004FEF410FAFEFB2E0F9019FE0843041F4D6
:102AE000DC965C91DC97151303C0DC964C93DC9765
:102AF0005081511710F040831787915031961196ED
:102B00009111ECCF81502F5031098111E3CF06CCC8
:102B10009FE159129ECC8FE192E231CDA6E25A128A
:102B20000CC066E971E205C0F2E25F1292CC60E08F
:102B300072E280E00E944E2F56CBA51508F432C0F9
:102B4000B3E25B120BC08091100721E0482F421BBB
:102B500008F440E0842F68EC71E2ECCFB51570F01A
:102B6000E1E25E12E1CF8091100721E0382F321BA5
:102B700008F430E0832F60E072E2DCCF24E25212EE
:102B800003C068EC71E2D5CF35E2531262CC80917C
:102B9000100721E0382F321B08F430E0832F66E95C
:102BA00071E2C8CF49E254120BC08091100721E0B6
:102BB000382F321B08F430E0832F68E671E2BACF79
:102BC0004515A0F087E258120BC08091100721E054
:102BD000482F421B08F440E0842F6EE771E2AACF31
:102BE00098E2591236CC6EE771E2A3CFAAE25A12EC
:102BF00003C068E671E29DCFBFEF5B122ACC8091E3
:102C00000C0790910D07A0910E07B0910F07882730
:102C10009C70AA27BB272AE0B695A795979587951C
:102C20002A95D1F782309105A105B10571F0833065
:102C30009105A105B10569F040E00197A105B10535
:102C400011F060E008C064E102C044E160E080E0AF
:102C500003C044E164E184E10E94342482E0D4CAE8
:102C60002996E2E10C94253580E0089590910707BC
:102C700092FF0DC0282F2871283019F4877F8460B7
:102C800006C0282F2471243011F48B7F886093FFB5
:102C90000DC0282F2871283119F4877E846106C061
:102CA000282F2471243111F48B7E8861209108072C
:102CB00020FF0DC0382F3871383019F4877F8160BC
:102CC00006C0382F3171313011F48E7F886021FFBA
:102CD0000DC0282F2871283119F4877E816106C024
:102CE000282F2171213111F48E7E886194FD877E19
:102CF0000895F894E82FE295EF70F0E031A1282FC5
:102D00002F7081E090E001C0880F2A95EAF7982F94
:102D10009095932391A392A1892B82A378940895EF
:102D2000CF93DF938238910569F1B0F48133910537
:102D300009F46FC048F48932910509F465C08A32FC
:102D4000910509F46BC08AC08533910509F457C019
:102D500089339105B9F082C0833E910571F138F451
:102D6000803E9105B1F0823E910511F177C0863E1B
:102D70009105B9F1873E9105C9F1843E910509F0AD
:102D80006DC024C02091070720FD53C021FD51C014
:102D900065C08091070780FD46C08091080780FFCD
:102DA00048C08091070784FD50C183EE90E04FC179
:102DB0008091070782FF3AC0F4CF8091070782FD18
:102DC00035C08091080780FD34C0EBCF80910807A3
:102DD00081FF35C08091070784FD37C187EE90E001
:102DE00036C18091070783FF27C0F4CF8091070782
:102DF00083FD22C08091080781FD21C0EBCF809127
:102E0000070785FD1FC021C08091070785FD1DC0F4
:102E100019C08091070786FD1BC01DC08091070760
:102E200086FD19C015C089E390E011C182EE90E0E3
:102E30000EC180EE90E00BC186EE90E008C184EEFA
:102E400090E005C189E290E002C185E390E0FFC017
:102E50008AE290E0FCC081E390E0F9C0811531E5A1
:102E6000930708F069C0811540E59407F0F09C01D4
:102E700074E0369527957A95E1F7922F9370482F55
:102E8000437021E030E002C0220F331F4A95E2F781
:102E90003C68392B982F9F709695969540E2949FA9
:102EA000C0011124822B932BD2C0883E910568F576
:102EB000803E910508F0CBC0883A9105B8F4853A78
:102EC000910548F0855AE82FF0E0E65BFE4F8081DF
:102ED00090E09064BCC08130910509F4B3C008F45F
:102EE000B4C08430910508F4B0C0B1C08F3B9105E7
:102EF00008F0ABC0885AE82FF0E0EE0FFF1FE35B4D
:102F0000FE4F808191819464A2C0811520E29207D6
:102F100058F4811531E0930708F099C0803F91057E
:102F200008F493C0906593C0811540E4940708F4B9
:102F30008CC09F70906A8BC0811525E5920708F0C0
:102F400042C0811534E5930728F0982F8827846FB5
:102F5000906A7DC0811543E59407B0F09C01237011
:102F6000332741E050E002C0440F551F2A95E2F795
:102F7000282F2695269580E2289F90011124CA01CA
:102F8000822B932B9A6863C0811522E5920728F45F
:102F9000982F8827816F906A5AC09C01237033272D
:102FA00041E050E002C0440F551F2A95E2F7282F58
:102FB0002695269580E2289F90011124CA01822B34
:102FC000932B9C6844C0EC01811539E59307A8F464
:102FD0008115984528F09C2F8827806F906A37C00C
:102FE000C11586E5D80788F58C2F0E9436168F719B
:102FF00090E0982F882790622AC081152AE59207D1
:1030000090F48C2F8F700E94361694E0D695C79559
:103010009A95E1F7CF70D0E0DC2FCC27D0699E01E4
:10302000282BC90114C090568115904270F48D2F41
:103030008F710E943616282F2F71CE01992790622A
:10304000922B05C081E090E002C080E090E0DF912B
:10305000CF910895CF9384E090E00E94B535C82FBA
:1030600082E290E00E94B5352C2F30E0A901582B68
:10307000CA01CF91089580E090E00E94BD35883E5E
:103080009E4F19F40E940629089580E0089568EE85
:103090007EEF80E090E00E94F13560E082E090E019
:1030A0000E94D33560E083E090E00E94D335109217
:1030B000C60360E084E090E00E94D33564E082E2E1
:1030C00090E00E94D33560E085E090E00E94D33527
:1030D00060E086E090E00E94D3356FEF87E090E0FB
:1030E0000E94D33540E050E0BA0188E090E00E94B1
:1030F000E53560E08DE090E00E94D33540E050E09F
:10310000BA0188E190E00E94E53560E087E190E057
:103110000E94D33540E050E0BA018CE190E00E947B
:10312000E53560E070E080E290E00E94F13540E03B
:1031300050E0BA0188E190E00E94E53580E00E940D
:10314000D7280E94F62840E050E0BA018FE090E0D6
:103150000E94E53540E050E0BA0183E190E00E9432
:10316000E53508958091C50381111092C503089536
:1031700080959091C40389238093C403089590910E
:10318000C4038091C303982B90934A038091C50395
:103190008823D9F0892B80934A03809110018823DA
:1031A00031F08091070787FF02C08EE101C086E001
:1031B000ECE4F3E090E0815028F021912223D9F350
:1031C0009F5FF9CF91110E94B21840E250E063EA8C
:1031D00073E08AE493E00E947B36892B21F180E240
:1031E000EAE4F3E0A3EAB3E001900D928A95E1F7F7
:1031F000E091FE06F091FF063097A9F08091100152
:10320000882359F08091070787FF07C080914A0300
:1032100080934B0386E080934A030280F381E02D84
:103220008AE493E0099508952091A2038095822372
:103230008093A203982F977099F430E0482F082EBE
:10324000000C550B2417350759F09091080792FF91
:1032500007C08595859585950E94BD321092A20381
:103260000895CF93C0910807C2FB992790F998174A
:1032700091F080FBC2F9C09308076091070784E0D2
:1032800090E00E94D3356C2F82E290E00E94D3350B
:1032900082E00E941419CF9108958091A10390912A
:1032A0007003891719F08F5F8770FBCF08950F9314
:1032B0001F93CF93DF9380916F0382958F7009F0F6
:1032C0005AC080916C03882309F455C08091A103F2
:1032D0001091700360916A0370916B03C0916D034C
:1032E000D0916E0391E06F3F09F090E0292F06E046
:1032F000811709F440C0209721F07F3F21F030E092
:1033000003C031E001C0322F90E030FD31C0089F92
:10331000F001099FF00D1124DF01AF58BC4F119649
:103320003C911197371324C03C91361321C012965B
:103330003C91129731111CC013964D915C911497DA
:103340004C1B5D0B483C510598F480916F038F70C6
:10335000806180936F03EA58FC4F80818F70806199
:1033600080838AE693E00E942A050E944D1903C0DB
:1033700001968770BDCFDF91CF911F910F91089576
:10338000CF93DF93EC010E942032BE010E94C92D31
:103390000E949016DF91CF910895A1E1B0E0E3ED96
:1033A000F9E10C9410358C0185E0F801DE011D96E1
:1033B00001900D928A95E1F7F801E28090916A03FD
:1033C00060916B0340916D0350916E03411551055F
:1033D00031F06F3F31F481E09F3F19F403C081E089
:1033E00001C080E0F82FF1709F2E80FD1BC1F80115
:1033F00030812181C380D4808AE6A82E83E0B82E54
:10340000F0906C03F601E41BF50BFF2009F4C7C034
:1034100080916F03E83CF10508F092C0482F407F8F
:1034200009F051C0621311C093130FC0FE2CE110BC
:103430000CC08F70806180936F03C5010E942A05C4
:1034400080916F03F80185832AC1C114D10431F042
:103450002F3F31F481E03F3F19F403C081E001C008
:1034600080E080FD03C081E08E2502C080E090E016
:10347000F82FF170FF2E80FF1CC08091A1034091B6
:10348000700356E0841709F4E8C090E0589FF001FB
:10349000599FF00D1124EF58FC4F6181261306C08F
:1034A0006081631303C06281E61203C001968770D6
:1034B000E9CFFE2CEE2009F4F2C080916F03816009
:1034C00080936F0349C0621306C0931304C0E110D8
:1034D00002C0F80186C0C8010E94DB32882351F186
:1034E000EE2041F120916F03822F82958F7090E042
:1034F000029774F080916A0390916B0398878F8391
:103500001986DB86CA862C87CE0107960E942A057B
:1035100086E0F801AAE6B3E001900D928A95E1F702
:103520000E9457190AC06217C9F0C8010E94DB3215
:1035300081111EC0C8010E942A05FF24F394AFC068
:10354000482F407F81F78AE693E00E942A0586E0B3
:10355000F50111928A95E9F7F12CA1C09313E5CFFB
:10356000E110E3CFF8018583C8010E942A0554C009
:10357000EE2001F320916F03822F82958F7090E0EF
:10358000029734F280916A0390916B039A83898346
:103590001B82DD82CC822E83CE010196B7CFE83C20
:1035A000F105D0F5FE2CEE2029F2621327C093130B
:1035B00025C020916F0320FD18C0822F82958F7047
:1035C000482F50E04115510581F0F80125834F3017
:1035D000510541F08F5F982F9295907F822F8F70C9
:1035E000892B8583C8010E942A0586E0F801AAE696
:1035F000B3E001900D928A95E1F751C0C8010E9495
:10360000DB32811185CF80916F03816080936F03DE
:10361000C8010E942A0543C086E0F50111928A95EF
:10362000E9F73DC0EE2009F485CFC8010E94DB32E6
:10363000F82E882309F47ECF86E0F801AAE6B3E0ED
:1036400001900D928A95E1F780916A0390916B0346
:103650000E94C0190E94571922C03D872E878D8570
:103660009E850E94C019292F22952F70223028F4A0
:103670009F7039F0811105C00BC0243028F49F7071
:1036800049F4805E883020F0C8010E942A059F2CF2
:10369000F92C05C0F8019581907F99F7F9CF8F2D0E
:1036A0006196EBE00C942C35AAE0B0E0EAE5FBE192
:1036B0000C940F35AE014F5F5F4F7A018AE0FA013B
:1036C00011928A95E9F706E311E06A01AA24A3940E
:1036D000B12CF80180818F3F09F447C0F894E82F9E
:1036E000E295EF70F0E021A18F70A50102C0440FB8
:1036F000551F8A95E2F7CA01922F982B91A392A1A8
:103700008095892382A3789400C0EBE3F1E021E067
:1037100030E0812C912C41914F3F89F0A42FA2954C
:10372000AF70B0E090968C9190E04F7002C095958C
:1037300087954A95E2F780FD02C0C90102C080E08A
:1037400090E0882A992A220F331F51E0EA34F507C6
:1037500011F7F80180818F3F11F00E947916F0EA8D
:10376000FA95F1F7F601918280820F5F1F4FF2E028
:10377000CF0ED11C41E00B33140709F0AACF4AE069
:1037800050E0B70187ED92E00E947B3611E0009790
:1037900009F410E0892B89F08AE0F701A7EDB2E087
:1037A00001900D928A95E1F781E08093C9030E9410
:1037B000FB2B9093C8038093C7038091C903882390
:1037C00091F18091C7039091C8030E94E02B039769
:1037D00050F18091D7029091D8029093ED0280939E
:1037E000EC028091D9029091DA029093EF028093DB
:1037F000EE028091DB029091DC029093F1028093C3
:10380000F0028091DD029091DE029093F3028093AA
:10381000F2028091DF029091E0029093F502809392
:10382000F4021092C903812F2A96ECE00C942B35F8
:103830008091F10387FF11C08091E80082FD05C0EF
:103840008091EF038111F8CF11C08091E8008B7750
:103850000BC08091EF03882349F08091E80080FF3E
:10386000F8CF8091E8008E778093E8000895982F34
:10387000973068F59093E900981739F07091EC0053
:103880002091ED005091F00003C0242F762F50E0DE
:1038900021FD02C09F5FECCF3091EB003E7F309363
:1038A000EB003091ED003D7F3093ED003091EB0067
:1038B00031603093EB007093EC002093ED00509357
:1038C000F0002091EE0027FDE5CF80E008958F7095
:1038D0008093E90081E008952091F7033091F80387
:1038E0002617370748F06115710539F42091E80073
:1038F0002E772093E80001C0B901FC0120E061159A
:10390000710579F18091EF038823F1F18530F1F1B0
:103910008091E80083FD3CC08091E80082FD2EC0CC
:103920008091E80080FFEBCF2091F3008091F200BE
:1039300090E0922B6115710551F08830910538F4B3
:1039400021912093F100615071090196F3CF21E09C
:10395000089709F020E08091E8008E778093E800D6
:10396000CECF2111CFCF0AC08091EF03882361F021
:10397000853061F08091E80083FD0AC08091E80005
:1039800082FFF2CF80E0089582E0089583E00895F9
:1039900081E008950895BC0184E00E946C2B089595
:1039A000BC0183E00E946C2B0895AAE2B0E0EBED2D
:1039B000FCE10C941835E1EFF3E089EF93E02091FE
:1039C000F10021938E179F07D1F78091F203833086
:1039D00009F463C030F4813071F0823009F49DC085
:1039E000B4C08A3009F489C08B3009F46EC08930C4
:1039F00009F0ABC020C08091F103813A09F0A5C065
:103A00008091E800877F8093E8008091F503909192
:103A1000F603892B21F460E28DEC93E003C060E0B3
:103A200080E090E070E00E946C1C8091E8008B7751
:103A30008093E8008AC08091F103813209F085C04B
:103A40008091F5039091F603009719F0029709F021
:103A50007CC08091E800877F8093E8008091E80037
:103A600082FD05C08091EF038111F8CF6EC02091D7
:103A7000F3008091F20090E0922B029731F4809154
:103A8000F100813011F0863021F48091F1008093B3
:103A9000CC038091E8008B7754C08091F103813A88
:103AA00009F053C08091F5039091F603892B09F03A
:103AB0004CC08091E800877F8093E8008091E80007
:103AC00080FFFCCF8091100137C08091F1038132DB
:103AD000E1F58091F5039091F603892BB1F5809182
:103AE000E800877F8093E8000E94181C8091F30310
:103AF000809310010E94FB3228C08091F103813233
:103B000021F58091E800877F8093E8000E94181CCF
:103B10008091F4038093CB0318C08091F103813A24
:103B2000A1F48091E800877F8093E8008091E8000D
:103B300080FFFCCF8091CB038093F1008091E8005F
:103B40008E778093E8000E94181C8091E80083FF24
:103B5000DFC18091F1039091F203492F50E04A3088
:103B6000510508F0D5C1FA01EB58FF4F0C946E36A1
:103B7000803821F0823809F0CBC108C08091ED0374
:103B80009091EE03992389F082600FC08091F50334
:103B90008F70873008F0BCC18093E9008091EB0002
:103BA00085FB882780F91092E9009091E800977FC3
:103BB0009093E8008093F1001092F10070C1282FDB
:103BC0002D7F09F0A5C1882319F0823061F0A0C1D2
:103BD0008091F303813009F09BC1933009F080E0BC
:103BE0008093EE032EC08091F30381112AC080914F
:103BF000F5038F702FEF280F263008F089C18093CE
:103C0000E9002091EB0020FF1CC0933021F480914B
:103C1000EB00806214C09091EB0090619093EB00F8
:103C200021E030E0A90102C0440F551F8A95E2F758
:103C30004093EA001092EA008091EB008860809344
:103C4000EB001092E9008091E800877F8093E80004
:103C50000E94181C5DC181115BC11091F3031F7795
:103C60008091E3008078812B8093E3008091E800CD
:103C7000877F8093E8000E94181C8091E80080FFF5
:103C8000FCCF8091E30080688093E300111102C0B3
:103C900082E001C083E08093EF033AC18058823014
:103CA00008F036C12091F3033091F4032C3D53E02A
:103CB000350779F583E08A838AE289834FB7F894E0
:103CC000DE01139620E03EE051E2E32FF0E0509356
:103CD0005700E49120FF03C0E295EF703F5FEF7063
:103CE0008E2F90E0EA3010F0C79601C0C0968D93F9
:103CF0009D932F5F243149F74FBF8091E800877F64
:103D00008093E8006AE270E0CE0101960E946C1C8C
:103D1000B4C08091F5039091F603432F55274330AB
:103D20005105A9F068F44130510509F400C1423051
:103D3000510509F0EDC08BE590E0E4E4F3E04BC001
:103D40004132510529F14232510589F1E1C0C901E1
:103D5000992781309105A1F058F0029709F0D8C059
:103D6000E1EBF3E0E4918E2F90E0E1EBF3E030C083
:103D7000E5EDF3E0E4918E2F90E0E5EDF3E028C06F
:103D8000EBECF3E0E4918E2F90E0EBECF3E020C05D
:103D90008330910508F0BCC0880F991FFC01EC57D7
:103DA000FE4F0190F081E02D89E090E014C0833057
:103DB000910508F0ADC0FC01EE0FFF1FE258FE4F69
:103DC0000190F081E02DDC01A558BE4F8C9190E070
:103DD000009709F49DC02091E800277F2093E80018
:103DE0002091F7033091F8032817390708F4C90127
:103DF00040E0009789F12091EF03222309F43DC0B0
:103E00002530D9F12091E80023FD37C02091E8004A
:103E100022FD2FC02091E80020FFEBCF4091F3005E
:103E20002091F20030E0342B009759F02830310512
:103E300040F444914093F100319601972F5F3F4F3A
:103E4000F3CF41E02830310509F040E02091E8004F
:103E50002E772093E800CDCF4111CDCF0AC08091BD
:103E6000EF03882351F0853041F08091E80083FD15
:103E700004C08091E80082FFF2CF8091E8008B7748
:103E80008093E80045C0803809F042C08091E80086
:103E9000877F8093E8008091F0038093F100809108
:103EA000E8008E77D3CE811133C08091F3039091D7
:103EB000F4039927029764F58091E800877F809347
:103EC000E8001091F3031093F0030E94181C1111E5
:103ED00006C08091E30087FD02C081E001C084E05C
:103EE0008093EF0342E061EC81E00E94371C42E2E4
:103EF00061EC84E00E94371C42E261EC82E00E94A7
:103F0000371C42E260EC83E00E94371C8091EF0393
:103F10008091E80083FF10C08091E800877F809344
:103F2000E8008091EB0080628093EB0005C082E1A5
:103F300090E0EFE9F3E04FCFAA96E3E00C9434353C
:103F40001F920F920FB60F9211242F933F934F930E
:103F50005F936F937F938F939F93AF93BF93CF9311
:103F6000DF93EF93FF93C091E900CF708091EC0055
:103F7000D82FD17080FDD0E81092E9008091F00038
:103F8000877F8093F00078940E94D51C1092E900FE
:103F90008091F00088608093F000CD2BCF70C093AB
:103FA000E900FF91EF91DF91CF91BF91AF919F9188
:103FB0008F917F916F915F914F913F912F910F90D2
:103FC0000FBE0F901F901895E8EDF0E080818E7F76
:103FD00080831092E2001092DA001092E100A0EECD
:103FE000B0E08C9181608C9380818F77808319BC45
:103FF000A7EDB0E08C918E7F8C9380818F7E808343
:104000001092CA030895A0E0B0E0E9E0F0E20C9459
:104010001335C8EDD0E088818F7E8883E7EDF0E02E
:1040200080818160808384E082BF81E08093CA03C5
:1040300088818E7F888302EE10E0F8011082109252
:10404000DA0081EEC82ED12CF601108288818F779C
:10405000888388818068888388818F7D888319BC64
:104060001092EF031092F0031092EE031092ED0302
:1040700090EEE92EF12CF70180818B7F808388817F
:104080008160888342E060E080E00E94371CF60196
:1040900080818E7F8083F801808181608083808130
:1040A00088608083F70180818E7F80838881806132
:1040B0008883CDB7DEB7E8E00C942F351F920F92BE
:1040C0000FB60F9211242F933F934F935F936F93EB
:1040D0007F938F939F93AF93BF93EF93FF938091C1
:1040E000E10082FF09C08091E20082FF05C080915B
:1040F000E1008B7F8093E1008091DA0080FF2AC08D
:104100008091D80080FF26C08091DA008E7F809356
:10411000DA008091D90080FF18C080E189BD82E17A
:1041200089BD09B400FEFDCF81E08093EF0380914B
:10413000CA0381110FC00E94E41F0E9403208091D6
:10414000E20084608093E20005C019BC1092EF0386
:104150001092CA038091E10080FF17C08091E200B5
:1041600080FF13C08091E2008E7F8093E2008091F7
:10417000E20080618093E2008091D80080628093A9
:10418000D80019BC85E08093EF038091E10084FFA3
:1041900030C08091E20084FF2CC080E189BD82E1C3
:1041A00089BD09B400FEFDCF8091D8008F7D80933A
:1041B000D8008091E1008F7E8093E1008091E20041
:1041C0008F7E8093E2008091E20081608093E20024
:1041D0008091F003882311F084E007C08091E30010
:1041E00087FD02C081E001C083E08093EF038091EE
:1041F000EF038091E10083FF27C08091E20083FFFD
:1042000023C08091E100877F8093E10082E080936A
:10421000EF031092F0038091E1008E7F8093E10024
:104220008091E2008E7F8093E2008091E2008061C5
:104230008093E20042E060E080E00E94371C8091C1
:10424000F00088608093F000FF91EF91BF91AF91F3
:104250009F918F917F916F915F914F913F912F919E
:104260000F900FBE0F901F9018952091E400309191
:10427000E50095E64091EC00842F817040FF23C05B
:104280008091E80080FD1DC08091EF03882399F0A4
:10429000853099F08091EB0085FD11C04091E400DC
:1042A0005091E5002417350729F3915011F09A0138
:1042B000E1CF84E0089582E0089583E0089581E0ED
:1042C000089580E008954091E80042FFDDCF089511
:1042D000EF92FF920F939701201B31092F3F310579
:1042E00019F010F02FEF30E02095382F320F08F43E
:1042F0003FEF832F0F91FF90EF900895EF92FF9281
:104300000F939701201B31092F3F310519F010F051
:104310002FEF30E0322F3095482F430F08F44FEF46
:10432000842F620F0F91FF90EF900895EF92FF920C
:104330000F93972F093438F4B701601B71096F3F51
:10434000710519F010F06FEF70E0485F5F4F413179
:10435000510540F0A901485F5F4F4131510510F010
:104360006FEF70E06095482F460F08F44FEF842FF1
:1043700037FF02C02D5F3F4F35952795359527951F
:1043800060913C07620F792F0F91FF90EF90089595
:10439000EF92FF920F93E00EF11CF90137FF03C07B
:1043A000F195E195F10924E0EE0FFF1F2A95E1F761
:1043B000EF3FF10519F014F0EFEFF0E09A0157FF2D
:1043C00003C031952195310994E0220F331F9A954E
:1043D000E1F72E173F070CF4F901EE0DFF1DEF3F3B
:1043E000F10519F010F0EFEFF0E02E2F2095382FA7
:1043F000320F08F43FEF832F0F91FF90EF90089555
:10440000EF92FF920F93970195E0099F200D311DC8
:1044100011242F3F310519F010F02FEF30E02095D7
:10442000382F320F08F43FEF832F0F91FF90EF905A
:10443000089522E8241B08F420E0620F08954095B7
:10444000282F429F412D1124842F0895E42FF0E05E
:10445000EE0FFF1FE352FE4F9081921B97FD919547
:10446000292F38E1239F212D1124620F08950F93E6
:104470001F9310E0F801EE0FFF1FE352FE4F9081F3
:10448000945797FD9195000F111FF801E252FE4FCE
:10449000E081F0E0B097DF01AA0FBB1F8D010E0F86
:1044A0001F1F2003D001219FB00D1124E8E3F0E08D
:1044B000E91BF10997FDF3959F01220F331F890135
:1044C0000E0F1F1F40039001419F300D11242A0F32
:1044D0003B1F37FF02C021583F4F220F232F221FBF
:1044E000330B620F1F910F9108950F931F93522F5B
:1044F00010E0F801EE0FFF1FE252FE4FE081F0E006
:10450000B097EE0FFF1F9F015203D001539FB00DD4
:104510001124000F111FF801E352FE4F008110E03B
:1045200004571109000F111F40039001419F300DE6
:1045300011242A0F3B1F37FF02C021583F4F220F83
:10454000232F221F330B620F1F910F9108950F939A
:104550001F93522F10E0F801EE0FFF1FE252FE4FA3
:10456000E081F0E0B0979F015203D001539FB00D5E
:104570001124000F111FF801E352FE4F008110E0DB
:104580000457110940039001419F300D11242A0F57
:104590003B1F37FF02C021583F4F220F232F221FFE
:1045A000330B620F1F910F910895EF920F931F939A
:1045B00093E0099F80011124159507956E2D600FDA
:1045C0001F910F91EF900895A22F50E0FA01EE0F86
:1045D000FF1FE252FE4F9081905297FD9195440F3C
:1045E000551FFA01E352FE4F3081232F30E02A1B82
:1045F0003109290F311D97FD3A95620F0895E42F77
:10460000F0E0EE0FFF1FE252FE4F6081621B089543
:10461000E42FF0E0EE0FFF1FE352FE4F6081621BBC
:104620000895622F0895E42FF0E0EE0FFF1FE3528C
:10463000FE4F408134EE439F412D1124E82FF0E0DE
:1046400050E0445E5F4FDA01A21BB1099D01B7FF44
:1046500003C031952195310993E0220F331F9A95BC
:10466000E1F7AF01421B530B9A0157FF02C020E054
:1046700030E0582F259F212D1124822F0895E42FFB
:10468000F0E0EE0FFF1FE352FE4F408134EE439FF8
:10469000412D1124E72FF0E050E0445E5F4FDA0136
:1046A000A21BB1099D01B7FF03C0319521953109C6
:1046B00093E0220F331F9A95E1F7AF01421B530B92
:1046C0009A0157FF02C020E030E0279F212D1124DE
:1046D000722F0895FC019B01009721F477FF2BC0F6
:1046E00080E80895AC0197FF04C044275527481B74
:1046F000590BB901640F751F37FD0CC0241B350B16
:10470000C901A5E0880F991FAA95E1F70E945A36C2
:1047100080E20CC0CB0165E0880F991F6A95E1F734
:10472000BA01621B730B0E945A3680E6861BF7FFA4
:1047300003C08195089580E00895EF920F93CF9381
:10474000DF93D72FC82FC9010E19BA010E946A231F
:10475000602F681B7D2F8C2FDF91CF910F91EF90F1
:1047600008950F93CF93DF93D72FC82FC901BA01B4
:104770000E946A23682F600F7D2F8C2FDF91CF91CD
:104780000F910895EF920F931F93CF93DF93D62F3E
:10479000C72F182FC9010E19010FBA010E946A23F1
:1047A000081B202F219F212D1124822F6D2F7C2F5C
:1047B000DF91CF911F910F91EF900895EF920F939A
:1047C0001F93CF93DF93D62F172FC82FC9010E1930
:1047D000070FBA010E946A23702F781B719F712DF9
:1047E00011246D2F8C2FDF91CF911F910F91EF909E
:1047F0000895FF920F931F93CF93DF93F62ED72F39
:10480000182FC901C12FC01BBA010E946A23982F1B
:10481000990F890FC81B2C2F219F212D1124822F26
:104820006F2D7D2FCDB7DEB7E5E00C943235FF92CA
:104830000F931F93CF93DF93F62E172FD82FC90115
:10484000C72FC01BBA010E946A23982F990F890FA6
:104850007C2F781B719F712D11246F2D8D2FCDB75B
:10486000DEB7E5E00C9432350E94A82708950E9437
:104870003F2708952FE0829FC0011124FC01EE56CE
:10488000FE4FE60FF11D80818F3F21F0FA018083FA
:1048900081E0089580E00895EBE3F7E085E380830D
:1048A0008091330190913401A091350181839283ED
:1048B000A3838FE784838FEF858346E050E06CE12C
:1048C00070E0CF010E94C33510923A070895482F37
:1048D000982F46FD9095E92FEF739F7046FD9F5FDF
:1048E000E295EF70EE0FF0E0E657FE4F2181299F31
:1048F000802D212D112482958F702295207F822B6F
:104900003081982F930F892F47FD81958058089506
:104910000F931F93CF93DF93D62F072F182FC42FFA
:10492000822F0E946724EC2FF0E0EE0FFF1FE3526E
:10493000FE4F90819058890F87FD8195880F682FD1
:104940002CE0629F612D11246D0F702F812FDF915C
:10495000CF911F910F910895409111015091120133
:1049600025E038E0429FC001439F900D529F900D7B
:104970001124875E994C9093120180931101890F45
:104980000895BC018230910508F40895613E8EE1DE
:10499000780748F49B0195E0369527959A95E1F7BD
:1049A00048E0420F01C04FEF91E0242F30E0290F83
:1049B000311D35952795229FF001239FF00DF00DB5
:1049C00011246E177F0718F44FEF420F04C02F3FDA
:1049D00039F091E0920F491740F78FEF890F089552
:1049E0008FEF08950F93CF93DF93D72FC82F47FDF5
:1049F0004195EAE3F0E0CF01841B910947FD9395CF
:104A0000889FB001899F700D700D1124229FC001F5
:104A1000239F900D900D1124860F971F0E94C12493
:104A2000682F660F860F682F600F7D2F8C2FDF9108
:104A3000CF910F91089520E030E0869F212D969F21
:104A4000200D311D1124C9010895A0E0B0E0EBE272
:104A5000F5E20C941335F62E472FE82FF0E0711194
:104A600006C0E752FC4F8491782F682F73C0272F20
:104A700030E0E752FC4FE491FE2F0E2F10E056E09D
:104A8000659FC0011124CFEFD0E0BE010E94F53434
:104A90005BEA5603C001579F900D11248F0D911DA5
:104AA0008F0D911D982F990F980F7E01E21AF30A2E
:104AB000E09ED001E19EB00DF09EB00D11248B2F31
:104AC000499FA0011124452F55277E01E41AF50ABC
:104AD000E09EA001E19E500DF09E500D11246E014C
:104AE000C91AD108C29E7001C39EF00CD29EF00C70
:104AF00011242F2D3327C21BD30BC09F9001C19FC0
:104B0000300DD09F300D1124932F6230710591F03C
:104B100048F461157105E1F061307105B9F49E2F1B
:104B2000E52F16C06430710569F040F066307105FC
:104B300079F00CC09E2FEB2F832F0AC0EB2F8F2F05
:104B4000952F06C09B2F8E2FE32F02C09B2F852F02
:104B50007E2F692FCDB7DEB7E8E00C942F35803F6C
:104B600039F49091030497FF35C01092030459C0A3
:104B7000813F29F4909103041916BCF32BC0909146
:104B80000204823F29F497FF25C01092020449C015
:104B9000833F19F41916CCF31DC090910404893F8A
:104BA00029F41916BCF4109204043BC08A3F19F48E
:104BB00097FF10C0F8CF8B3F39F49091050497FF11
:104BC00009C0109205042DC08C3F21F4909105047A
:104BD0001916BCF39CE0980F953080F421E030E08A
:104BE000A90102C0440F551F9A95E2F7CA018095AA
:104BF0009091010489238093010413C08D3F21F417
:104C00008091FB038E7F0BC08E3F21F48091FB03CC
:104C10008D7F05C08F3F29F48091FB038B7F8093AC
:104C2000FB0380910204811106C08091030481116D
:104C300002C01092FA0380910404811106C0809191
:104C40000504811102C01092F90308958091FB03BD
:104C500080FF08C06091170170E0759567957595A4
:104C6000679521C081FF06C06091170170E07595BE
:104C7000679519C082FF04C06091170170E010C0F1
:104C80009091F903992399F0609116019617A0F776
:104C900080911701899FC001112470E00E945A364B
:104CA0006038710540F46115710519F406C061E0C2
:104CB00070E0862F08958FE7089581E00895809130
:104CC000FB0380FF06C06091190170E0660F771F3B
:104CD00026C081FF04C06091190184E005C082FFF5
:104CE00007C06091190188E0689FB001112417C0C6
:104CF0009091FA039923D1F060911801961788F7E3
:104D00002091190188E0289F90011124929FA00111
:104D1000939F500D112470E0CA010E945A366038EA
:104D2000710540F46115710519F406C068E070E082
:104D3000862F08958FE7089581E00895803F21F43C
:104D40000E945F26819504C0813F29F40E945F265E
:104D5000809303040895823F21F40E945F26819589
:104D600004C0833F29F40E945F26809302040895C3
:104D7000893F19F40E94262605C08A3F31F40E941B
:104D8000262681958093040408958B3F21F40E9488
:104D90002626819504C08C3F29F40E942626809304
:104DA000050408959CE0980F953078F421E030E0F8
:104DB000A90102C0440F551F9A95E2F7CA019091CC
:104DC0000104892B8093010408958D3F21F4809183
:104DD000FB0381600BC08E3F21F48091FB03826056
:104DE00005C08F3F29F48091FB0384608093FB030F
:104DF00008950E94FB2B20910204211104C02091F0
:104E00000304222321F09093FF038093FE0320915B
:104E10000404211104C020910504222321F0909361
:104E2000FD038093FC03E091FE06F091FF063097AE
:104E300049F082E0809300040480F581E02D80E059
:104E400094E009950895EBE3F7E0248130E1231B1A
:104E500008F420E0248380913A07816080933A0728
:104E60000895EBE3F7E0248130E1230F08F42FEFFE
:104E7000248380913A07816080933A070895A4E0E3
:104E8000B0E0E5E4F7E20C9416358235910508F0C0
:104E90005BC0122F042FF62EBC01660F771F660F22
:104EA000771F67527B4F44E050E0CE0101960E948D
:104EB0009C352981822F837090E0269526957A81F2
:104EC000372F3295330F330F307CE32FE22B272F10
:104ED00026952695F22FF3702FE531E0829FA001F1
:104EE000839F500D929F500D11249A012B563A4FDB
:104EF000E20FF31FF08272957F706B81E62FE295CF
:104F0000E07F4E2F472B762F72957F70572F53706F
:104F1000F901E40FF51F008362956695669563704D
:104F20007C81E72FEE0FEE0F4E2F462B572F529519
:104F3000569556955370F901E40FF51F1083FC0147
:104F4000EC56FA4F21E020832496E5E00C943235AC
:104F5000FF920F931F93CF93DF93182F062FF42EFA
:104F6000C0E0D0E02F2D402F612FCE010E943F27BF
:104F70002196C235D105B1F7CDB7DEB7E5E00C9487
:104F800032350F931F93CF93DF938091940588233D
:104F900009F44DC065EC8EEF0E94F73160E08DEFB3
:104FA0000E94F731C0E0D0E004EB10E0CE01B80180
:104FB0000E945A3680931C0182E1FE01EB56FA4FA3
:104FC000ADE1B1E001900D928A95E1F724E630E081
:104FD00043E150E06CE171E080E60E94D434892B1B
:104FE00031F56296C63581E0D80761F0C43BD10542
:104FF000E9F665EC8EEF0E94F73161E08DEF0E94DB
:10500000F731D4CF82EA80931C0189E0EBEEF6E021
:10501000ADE1B1E001900D928A95E1F724E630E030
:105020004AE050E06CE171E080E60E94D4341092D6
:105030009405DF91CF911F910F910895A4E0B0E006
:10504000E4E2F8E20C9413350E94293465EC8EEF0B
:105050000E94F73164E08DEF0E94F73161E080E05B
:105060000E94F7316FEF81E00E94F73167E782E03D
:105070000E94F7318FE39CE90197F1F700C000002F
:1050800009ED14E02FE5E22EFF24F394DD24DA94F9
:10509000CC24C39444E050E0B801CE0101960E94B4
:1050A0009C352981822F837090E0269526956A8110
:1050B000362F3295330F330F307CE32FE22B262F20
:1050C00026952695F22FF3708E9D90018F9D300DC1
:1050D0009E9D300D1124A9014C5C5B4FE40FF51F20
:1050E000D082762F72957F706B81E62FE295E07FFC
:1050F0002E2F272B762F72957F70372F3370FA0162
:10510000E20FF31FD08262956695669563707C818D
:10511000E72FEE0FEE0F2E2F262B372F32953695D9
:1051200036953370FA01E20FF31FD082FC01ED5681
:10513000FA4FC0820C5F1F4F96E00132190709F049
:10514000A9CF80919305882371F165EC8EEF0E94C1
:10515000F73162E08DEF0E94F73194E3E92E94E09D
:10516000F92E10E0F70161917F01812F0E94F73144
:105170001F5F143BB9F765EC8EEF0E94F73163E0D7
:105180008DEF0E94F73188EEE82E84E0F82E10E0D3
:10519000F70161917F01812F0E94F7311F5F1B3A58
:1051A000B9F7109293052496E8E00C942F35CF932D
:1051B000C82F811102C06FEF01C062E283E290E06C
:1051C0000E94D335C11102C06FEF01C067E084E2D5
:1051D00090E00E94D335C11102C06FEF01C064E1BD
:1051E00085E290E00E94D335CF91089580E00E943F
:1051F000D72860E070E0CB010E94D52E0E94662D7A
:105200000E942F2D81E00E94D728089583E290E02C
:105210000E94B535823281F484E290E00E94B53577
:10522000873051F485E290E00E94B53591E08431F9
:1052300009F090E0892F01C080E0817008958823F3
:1052400011F0FA0101C0FB01099508951F93CF9356
:10525000DF93FC01EF57FD4F20816223B9F0EC0191
:105260000E948C35182F0E948C358F77782F20E87C
:10527000720F08F47FEF612F80913E070E94252571
:10528000462F282F672FCE010E943724DF91CF9120
:105290001F910895A0E0B0E0E0E5F9E20C94143528
:1052A000EC01FC01EF57FD4F9081692349F1D0904B
:1052B0003D0700913E0710913C07E12EF12C0E9422
:1052C0008C35282FC7018C549F4F68E671E00E94EF
:1052D0005A368E199F0997FD039695958795959552
:1052E00087952370612F289F600D11247D2D802FBD
:1052F0000E942525462F282F672FCE010E94372494
:10530000CDB7DEB7E7E00C94303590913B07937052
:1053100071F080933C0760933D07403B08F04FEAF3
:1053200040933E0780913A07282B20933A0708952F
:10533000EBE3F7E0438120E1421B08F440E0818188
:1053400021E0628190E00E9485290895EBE3F7E077
:10535000438120E1420F08F44FEF818121E0628117
:1053600090E00E9485290895EBE3F7E0628120E157
:10537000621B08F460E0818121E0438190E00E949B
:1053800085290895EBE3F7E0628120E1620F08F4DC
:105390006FEF818121E0438190E00E94852908958B
:1053A000EBE3F7E0818190E021E04381628108979F
:1053B0000E9485290895EBE3F7E0818190E021E0E8
:1053C0004381628108960E948529089590913B0748
:1053D0009370A1F0811102C0946007C08B3210F06D
:1053E000986A03C0880F880F982B90933B07109200
:1053F000150180913A07682B60933A0708958091D0
:105400003B0786958695815009F48AE261E00E9407
:10541000E629089580913B07869586958F5F8B32AC
:1054200008F081E061E00E94E62908954F925F92C2
:105430006F927F928F929F92AF92BF92CF92DF92A4
:10544000EF92FF92CF93DF9380912F0490913004DD
:10545000A0913104B09132042FB7F894C0900307A3
:10546000D0900407E0900507F09006072FBFC81AF8
:10547000D90AEA0AFB0A0E94EF2B4B015C016093F8
:105480002F04709330048093310490933204A091E0
:105490000604E6E0F4E08A2F90E04FEF5FEF60E073
:1054A00070E04C195D096E097F09A91799F0218DEB
:1054B000328D2901612C712C44155505660577053F
:1054C00010F4815004C02C0D3D1D328F218F9F5F41
:1054D0003296EBCF8093060480913304811108C08B
:1054E000C0913B078C2F837019F0C695C69501C0FB
:1054F000C0E0809115018130E9F038F0823009F484
:1055000041C0833009F44BC075C0109230018092C5
:105510000C0790920D07A0920E07B0920F0789E238
:10552000E6E0F4E0A0E1B7E001900D928A95E1F7A2
:1055300081E032C08C2F0E94AE10CC2309F45AC0F7
:105540000E94B92C81FF0DC0C0E0D0E02FEF4FEFDB
:105550006FEFCE010E9437242196C235D105B1F7F5
:1055600049C080914007811145C0C0E0D0E020E0F3
:1055700040E060E0CE010E9437242196C235D1057B
:10558000B1F738C0C093140180913B0783708093BA
:1055900013010E94C12783E0809315012BC08091E5
:1055A0003A07882351F046E050E06CE170E08BE36D
:1055B00097E00E94C33510923A0740910C07509132
:1055C0000D0760910E0770910F072FB7F894809127
:1055D000030790910407A0910507B09106072FBF1C
:1055E000841B950BA60BB70B4097A105B10510F0D6
:1055F00010921501DF91CF91FF90EF90DF90CF9047
:10560000BF90AF909F908F907F906F905F904F90E2
:1056100008958091CC03089524E02093E9002FEFB2
:105620003091E800215035FD06C035ED3A95F1F78F
:1056300000002111F5CF2091E80025FF0BC040E0CC
:1056400050E066E070E00E94CD318091E8008E77F6
:105650008093E8000895CF93DF93209110012223D7
:1056600039F02091070727FF03C060E224E002C061
:1056700068E021E02093E9002FEF3091E80021500D
:1056800035FD06C035ED3A95F1F700002111F5CF53
:105690002091E80025FF1DC0EC01809110018111CF
:1056A00005C040E050E068E070E003C070E040E01A
:1056B00050E0CE010E94CD318091E8008E7780933A
:1056C000E80080E2FE01ADECB3E001900D928A9516
:1056D000E1F7DF91CF9108958093090770930B074D
:1056E00060930A078091EF038430F9F48093E90016
:1056F0008FEF9091E800815095FD06C095ED9A9549
:10570000F1F700008111F5CF8091E80085FF0DC011
:1057100040E050E063E070E089E097E00E94CD3126
:105720008091E8008E778093E800089581E080936F
:10573000E00080E28093D8001092C9008FE19EE4DF
:105740000197F1F700C0000087E090EBDC01809347
:105750005F0790936007A0936107B09362079CE096
:1057600088E10FB6F894A895809360000FBE9093DF
:105770006000FFCF78941F920F920FB60F92112402
:105780008F939F93AF93BF938091030790910407EA
:10579000A0910507B09106070196A11DB11D809348
:1057A000030790930407A0930507B0930607BF91E2
:1057B000AF919F918F910F900FBE0F901F901895F2
:1057C0009C014FB7F8948091030790910407A09132
:1057D0000507B09106074FBF821B930B08952FB7A3
:1057E000F8946091030770910407809105079091E8
:1057F00006072FBF08952FB7F89480910307909163
:105800000407A0910507B09106072FBF08951F92C6
:105810000F920FB60F9211248F939F93AF93BF9364
:1058200080910207811113C08091030790910407B2
:10583000A0910507B09106074196A11DB11D809367
:10584000030790930407A0930507B0930607BF9141
:10585000AF919F918F910F900FBE0F901F90189551
:10586000209110012223C9F02091070727FF15C0BE
:10587000262F2695269526952E31C8F4FC01E20F99
:10588000F11D677081E090E001C0880F6A95EAF72A
:1058900080959281892382830895FC010696228156
:1058A000621301C012823196E817F907C1F7089513
:1058B000209110012223C1F02091070727FF14C077
:1058C000262F2695269526952E3130F5FC01E20FE0
:1058D000F11D677081E090E001C0880F6A95EAF7DA
:1058E0009281892B82830895FC0132962FEF30E05C
:1058F0004191641789F02F3F19F4411101C0232F02
:105900003F5F3630A9F72F3F39F0FC01E20FF11D60
:1059100027FDFA956283089508952091000730913C
:1059200001072817390771F090930107809300074A
:10593000E091FE06F091FF06309721F00084F1859A
:10594000E02D099508952091FC063091FD06281759
:10595000390771F09093FD068093FC06E091FE06F6
:10596000F091FF06309721F00680F781E02D099530
:105970000895E091FE06F091FF06309729F001901E
:10598000F081E02D0995089580E008950F931F930D
:10599000CF93DF93C42FD22FFC0182818823B1F0F3
:1059A0004093FB060E94FB2B9093FA068093F90626
:1059B00080E28C0F883008F04DC0C77081E001C0D4
:1059C000880FCA95EAF70E94183344C08091FB06FD
:1059D000481330C08091F9069091FA060E94E02B9E
:1059E000883C910538F510E21D0FCD17B9F080E223
:1059F0008C0F883040F4C77081E001C0880FCA95D1
:105A0000EAF70E941133183010F581E09D2F97704E
:105A100001C0880F9A95EAF70E941833802F0E94E0
:105A20000A341830B8F4D77081E001C0880FDA95D5
:105A3000EAF70AC080E28C0F883060F4C77081E01A
:105A400001C0880FCA95EAF70E94113303C0802F66
:105A50000E940A34DF91CF911F910F910895CF9347
:105A6000DF93CFE7D2E060E0CE010E94D3352196EC
:105A7000C11584E0D807B9F7DF91CF9108951F933E
:105A8000CF93DF93962F8430E8F46530D8F44F300D
:105A9000C8F4632F122FC42FD0E0CC0FDD1F2EE1EE
:105AA000929FC00DD11D112496E9899FC00DD11D73
:105AB0001124CE0187960E94D335612FCE0188969E
:105AC0000E94D335DF91CF911F910895A0E0B0E0FF
:105AD000ECE6FDE20C941135A12CE12CF12CB12C5B
