:100000000C94DC030C9414040C9414040C94140449
:100010000C9414040C9414040C9414040C94140400
:100020000C9414040C9414040C94AD1A0C94EF1951
:100030000C94F81F0C9414040C9414040C941404E1
:100040000C9414040C9414040C9414040C941404D0
:100050000C9414040C94AB1F0C9414040C9414040E
:100060000C9414040C9414040C9414040C941404B0
:100070000C9414040C9414040C9414040C941404A0
:100080000C9414040C9414040C9414040C94140490
:100090000C94952C0C9414040C9414040C941404D7
:1000A0000C9414040C9414040C9414040D080D08FE
:1000B00040084008B308D409D409D409D108450937
:1000C00056095609A10EA40EBE0ECB0ED20EDD0EA1
:1000D000E00E140F360FD30FD30F410F430F470F0E
:1000E0006B0F8C0F8F0F920FB40F07182E18D719A4
:1000F0002E18D7197A189D18D7199219A21900002D
:1001000000000000000000000000000000000000EF
:1001100000000000000000000000000000000000DF
:1001200000007E0F00D4FFFFFFC700000078000032
:100130000000000000002A2B280000000000000042
:1001400000000000000000000029000000002C1E3C
:100150003420212224342627252E362D3738271EF9
:100160001F202122232425263333362E37381F041F
:1001700005060708090A0B0C0D0E0F1011121314B7
:1001800015161718191A1B1C1D2F3130232D350475
:1001900005060708090A0B0C0D0E0F101112131497
:1001A00015161718191A1B1C1D2F3130354C1E0F30
:1001B0000500047F3F1F643214643214783C1E1E15
:1001C000140A0505010980A101850319012AB70058
:1001D000150126B700950175108100C0050C0901B5
:1001E000A101850419012AA002150126A00295018A
:1001F00075108100C005010906A1018506050719D2
:10020000E029E71500250195087501810205071908
:100210000029EF1500250195F075018102050819E7
:10022000012905950575019102950175039101C09C
:100230000660FF0961A1010962150026FF009520F3
:10024000750881020963150026FF00952075089145
:1002500002C005010906A101050719E029E71500FB
:100260002501950875018102950175088101050731
:10027000190029FF150026FF009506750881000565
:1002800008190129059505750191029501750391DC
:1002900001C009025B00030100A0FA09040000018B
:1002A000030101000921110100012240000705811D
:1002B00003080001090401000203000000092111E4
:1002C0000100012222000705820320000107050327
:1002D00003200001090402000103000000092111AC
:1002E000010001226D0007058403200001120100B6
:1002F000020000000844564D5301000102000110A5
:1003000003530050005F004D0069006E006900005B
:10031000001C03560069006B007400750073005FD9
:1003200000440065007300690067006E000000046F
:100330000309042223252628292A2C2D2F30323385
:100340003536383A3B3D3E4042434547494A4C4E9C
:100350005051535557595A5C5E6062646668696BC8
:100360006D6F71737577797B7D7F81838587898ACE
:100370008C8E90929496989A9C9E9FA1A3A5A7A8D4
:10038000AAACAEAFB1B3B4B6B8B9BBBCBEBFC1C204
:10039000C3C5C6C7C9CACBCCCDCED0D1D2D2D3D497
:1003A000D5D6D7D7D8D9D9DADADBDBDBDCDCDCDCB5
:1003B000DCDDDDDDDDDCDCDCDCDCDBDBDBDADAD983
:1003C000D9D8D7D7D6D5D4D3D2D2D1D0CECDCCCB05
:1003D000CAC9C7C6C5C3C2C1BFBEBCBBB9B8B6B423
:1003E000B3B1AFAEACAAA8A7A5A3A19F9E9C9A98B3
:1003F000969492908E8C8A89878583817F7D7B7984
:10040000777573716F6D6B6968666462605E5C5A64
:100410005957555351504E4C4A4947454342403E27
:100420003D3B3A3836353332302F2D2C2A292826B9
:10043000252322010001000100010001000100014B
:100440000000000151290014001A000800150017CF
:1004500000000002512B0004001600070009000AEA
:100460000000000100E1001D001B0006001900054E
:100470000000000100E000E200E30001512C410017
:100480000000000100010001000100010001000165
:100490000001001C0018000C00120013004C002A80
:1004A0000001000B000D000E000F003400000028BA
:1004B00000010000001100100036003700E5005276
:1004C000000000000000002A42E6000251500051E6
:1004D000004F000100005C0100010001000100016B
:1004E000000000010035001E001F00200021002236
:1004F0000000000100C25CC55CC75CC95CA9002F9C
:100500000000000100C35CC65CC85CCA5CAA002F86
:1005100002000001000100010001000100010000D3
:1005200000000001000100010001000100010001C4
:10053000000100230024002500260027002D002EA6
:1005400000010030002100220023003300000001E0
:10055000000100000030021E001F002000010052B8
:10056000000000000000004C002700010050005176
:10057000004F000100010001000100010001000125
:10058000000000010035021E021F0220022102228B
:10059000020000010001000100010049004B004A77
:1005A00000000001000100010001004C004E004D60
:1005B000000000010001000100010001004C0000EA
:1005C0000000000100010001000100010001000124
:1005D000000100230224022502260227022D022EFA
:1005E00002010001000100010001003302000001CE
:1005F00000010000000100010001000100010052A3
:100600000000000000000001000100010050005146
:10061000004F000100010001000100010001000184
:100620000000000151290014001A000800150017ED
:1006300000000002512B0004001600070009000A08
:100640000000000100E1001D001B0006001900056C
:100650000000000100E000E200E30001512C410035
:100660000000000100010001000100010073000111
:100670000001001C0018000C00120013004C002A9E
:100680000001000B000D000E000F003400000028D8
:1006900000010000001100100036003700E5005294
:1006A000000000000000002A42E600025150005104
:1006B000004F0000010101010101010101020202DC
:1006C00002020202020203030303030303030404FE
:1006D00004040404040505050505060606060607C8
:1006E0000707070708080808090909090A0A0A0B81
:1006F0000B0B0C0C0C0D0D0D0E0E0E0F0F0F101022
:1007000011111112121313141415151616171718A8
:100710001819191A1A1B1B1C1D1D1E1E1F20202113
:100720002222232424252626272829292A2B2C2D5A
:100730002D2E2F30313232333435363738393A3B7B
:100740003C3D3E3F404142434445464748494A4C70
:100750004D4E4F50515354555658595A5B5D5E5F3C
:10076000616264656668696B6C6D6F7072737577D2
:10077000787A7B7D7E8082838587888A8C8E8F9134
:10078000939596989A9C9EA0A2A3A5A7A9ABADAF5E
:10079000B1B3B5B7BABCBEC0C2C4C6C9CBCDCFD148
:1007A000D4D6D8DBDDDFE2E4E7E9EBEEF0F3F5F8F1
:1007B000FAFDFFFFAA7F554011241FBECFEFDAE0FC
:1007C000DEBFCDBF04B603FE18C080911704909120
:1007D0001804A0911904B0911A048730904BA740D7
:1007E000B04B59F410921704109218041092190487
:1007F00010921A04E0E0F8E3099524E0A6EFB1E0D6
:1008000001C01D92A731B207E1F711E0A0E0B1E00D
:10081000ECE0FEE502C005900D92A63FB107D9F7C6
:100820000E94D60A0C94042F0C940000A9E0B0E0BA
:10083000ECE1F4E00C945A2DFC018081918123813C
:100840003481232B31F09F3F31F491E08F3F19F435
:1008500003C091E001C090E090FDA4C67F0185E057
:10086000DE01119601900D928A95E1F7F701228140
:1008700089819A81222349F00E94BA23182F682F78
:1008800089819A810E94D12503C00E949D25182F3D
:1008900069817A81812F0E94BE218C01F7018281BA
:1008A000882309F4F5C0980122513F4520313105D4
:1008B00008F00AC18FEF93E00E94EC2D8111F2C085
:1008C000025137EA832E32E0932E002379F081140F
:1008D000F4E09F0609F4E6C0C4010E94EC2D8111EA
:1008E00001C001502FEF821A920AEFCF1E821F82A1
:1008F00018861986442443942AE0322E84010F5F1F
:100900001F4FC4010E94EC2D8E831F82882309F49F
:10091000C9C09FEF980F933060F48F834E8232E00E
:10092000830E911CC8010E94EC2D8887811102C0A2
:10093000B9C048018E010A5F1F4FF80120812223B0
:10094000E9F2213009F04CC08181813049F468011D
:10095000F2E0CF0ED11CF80182810E94A0260AC0CD
:10096000823051F46801F2E0CF0ED11CF80182818F
:100970000E94BE2A860189C0833049F46801F2E0F2
:10098000CF0ED11CF80182810E94922AF3CF8430CD
:1009900019F00F5F1F4F79C0F80122810E5F1F4FC2
:1009A00080E090E030E0205331092A30310568F4CE
:1009B000389EA001399E500D1124C901840F951F46
:1009C0000F5F1F4FF8012081EDCF009709F45DC044
:1009D000EFE9FFE03197F1F700C000000197F5CF94
:1009E000E22FF0E0E25DFE4F5490822F86958695CF
:1009F000869590E0FC01E25EFE4F64902770712CBA
:100A0000022E02C0759467940A94E2F7F1E06F2217
:100A10007724FC01E25FFE4FA490B12C022E02C0AD
:100A2000B594A7940A94E2F731E0A322BB24FC0119
:100A3000E250FF4FC490D12C02C0D594C7942A95A0
:100A4000E2F781E0C822DD246114710419F081EE1F
:100A50000E94BE2AA114B10419F086EE0E94BE2A9B
:100A6000852D0E94A026A114B10419F086EE0E94E3
:100A7000922A6114710419F081EE0E94922AC11425
:100A8000D10419F08CE20E94A0260F5F1F4F55CFB2
:100A900000313FE5130709F0A6C481E00E940D264E
:100AA0000E9418178091DA03877009F47BC5F7015B
:100AB0008281882309F476C58091600382FF72C524
:100AC00082E00E941A266EC50031FFE51F0711F46F
:100AD00081E005C001312FE5120721F482E00E9478
:100AE0005326DECF9091F901992329F198012450E2
:100AF00031092A313105F8F4882349F19091F80140
:100B000081E089278093F801811111C01260C8012A
:100B10000E94322A182F0E948526802F0E94BE2A0A
:100B2000802F0E94922A812F0E947A26BBCF802F8D
:100B30000E94A026B7CF0038EFE51E0741F48823B6
:100B400009F4B0CF81E089278093F901ABCF033F4F
:100B5000FCE51F0749F406E221EE40EE63EF7CE579
:100B6000C7010E94BB209ECF043F2CE5120708F06E
:100B700069C1083D3CE5130731F407E225EE45EE77
:100B800068ED7CE5EDCF093D9CE5190731F408E2FD
:100B900021E045EE69ED7CE5E3CF073DECE51E077E
:100BA00031F406E221EE41EE67ED7CE5D9CF8823F2
:100BB00009F47DC1109253030330FDE51F0758F47B
:100BC0000A3F2CE5120780F4C80182509C454497E7
:100BD00008F057C109C001363DE5130729F0053A71
:100BE0008DE5180709F04DC10E94751490936003BC
:100BF00080935F0301319CE5190709F4C9C008F02F
:100C000043C00930FCE51F0709F49EC008F5053014
:100C10003CE5130709F488C080F403309CE519070C
:100C200009F47BC008F07DC00230FCE51F0709F025
:100C3000F9C080915F038160F3C007302CE5120793
:100C400009F47AC008F07CC080915F038061E8C03D
:100C50000D308CE5180709F489C058F40B30ECE529
:100C60001E0709F47BC008F07DC080915F03886097
:100C700071C00F302CE5120709F482C008F084C05F
:100C800080915F03877FCCC00D3F8CE5180709F486
:100C900073C008F50531ECE51E0709F487C068F458
:100CA00003312CE5120709F477C008F097C00E94C1
:100CB000642680915F038F77B3C00B3F8CE51807E4
:100CC000B9F108F056C00A3FECE51E0709F0AAC0CA
:100CD0008091600341C00130FDE51F0709F48AC01F
:100CE00058F40F3F3CE5130709F45BC008F06AC0F5
:100CF00080916003826030C001369DE5190709F4D8
:100D00007FC0053AEDE51E0709F484C00230FDE519
:100D10001F0709F087C060E06EC080915F038260AA
:100D20007FC080915F0316C080915F03886078C0A8
:100D30008091600382604FC080915F03806270C0C9
:100D400080915F0380646CC00E94642680915F0381
:100D5000806866C0846064C081603DC080915F032C
:100D60008E7F5EC080915F038D7F5AC080915F034C
:100D700016C08091600318C0809160038D7F2BC0E6
:100D800080915F038F7E4CC080915F038F7D48C050
:100D900080915F038F7B44C080915F03877F8B7F4F
:100DA0003FC0809160038D7F8E7F15C080915F036F
:100DB00082FB222720F991E0922790FB82F990FB99
:100DC00083F92EC080916003982F909591708E7F4B
:100DD000892B90FB81F98093600324C00E946426D4
:100DE00080915F0387FB222720F991E0922790FBF7
:100DF00087F916C061E08EE090E00E94002E12C0DC
:100E000080915F0384FB222720F991E0922790FBD9
:100E100084F906C080915F03982F909590FB80F92C
:100E200080935F0360915F031091600384E090E022
:100E30000E94002E612F82E290E00E94002E0E940C
:100E4000642630CE053FFCE51F0731F406E221EEB3
:100E500042EE65EF7CE584CE053F2CE5120730F4C9
:100E600007E225EE44EE64EF7CE57ACE063F3CE5F2
:100E7000130709F09CCE07E225EE46EE66EF7CE50F
:100E80006FCE06318CE5180721F58091FC038A7A34
:100E900091E009F490E09093FA01882311F065E362
:100EA00001C069E284E693E00E9449200FC0063148
:100EB000ECE51E0709F047C08091FA01882309F488
:100EC00099C265E384E693E00E9421200E94E52216
:100ED000E9CD0A359DE5190781F160F40115FCE5BE
:100EE0001F0791F00E3D2CE5120709F049C00E9442
:100EF0006D2218C00C353DE51307B9F000F1073A33
:100F00009DE5190779F03CC00E946426EFEFF4E3F9
:100F10002CE0E150F0402040E1F700C000000E94CA
:100F2000871FC0CD0E941C2ABDCD8091600382FB2B
:100F3000882780F991E0892703C081E001C080E023
:100F40000E9437261DC08091FC0382720C3C2CE568
:100F5000120709F406C308F082C2063C9CE5190793
:100F600009F4EBC208F057C2033CFCE51F0709F483
:100F7000DAC208F041C2023C3CE5130709F4A9C2F9
:100F8000F701828100811181882349F0C8010E9404
:100F9000BA23D82E682FC8010E94D12504C0C801E9
:100FA0000E949D25D82EB8018D2D0E94BE210E9441
:100FB0008F12B82E192F982EF7010281A580A294C6
:100FC0009FE0A9228091DA038770B9F00023A9F08D
:100FD000812F807F803421F080E28B0D883068F093
:100FE0008091600382FF09C082E00E941A268091EE
:100FF000DA038770DD24D3948111D12CC12EC294E1
:101000008FE0C8228C2D90E08C30910508F0CCC187
:10101000FC01EA5AFF4F0C94C52E812F807F1F7070
:10102000882311F01295107F0023B9F0112309F4E1
:10103000A9C180E28B0D883010F0911006C080911C
:10104000FC03182B1093FC0305C08091FB03182BA5
:101050001093FB030E94E52295C18B2D0E94922ADA
:10106000112309F4A1C180E28B0D883080F1992011
:1010700071F110958091FB0318231093FB032AC094
:10108000812F807F1F70803211F01295107F8B2D81
:10109000992021F0F1E09F16D9F149C080916003B9
:1010A00082FD1BC0002369F0112339F08091FC03FD
:1010B000182B1093FC030E94E52280E00E94BE2AB8
:1010C00073C180E00E94922A112309F46DC1812F1F
:1010D0000E94DE220E94E52267C1002381F08091F8
:1010E000FD03AA2051F021E0A21207C0182B181707
:1010F00009F45AC11093FD0357C1812B10C0AA20D7
:1011000021F031E0A31609F44FC10E94D82227C074
:10111000002341F085E08A1508F446C1812F0E9422
:10112000962642C194E09A1508F43EC118C00023E7
:1011300049F0AA2099F3F701858180FF23C18F70C0
:101140008583ECCFAA2059F0893309F02AC1FFEF3B
:1011500027EE33E0F15020403040E1F720C1812FED
:101160000E948F2621C1812F86958695837019F064
:10117000813061F019C1002321F08B2D912F9370E4
:1011800002C080E090E00E94942014C1002321F06E
:101190008B2D912F937002C080E090E00E947E2002
:1011A00009C1812F8370A9F5011102C14B2D429510
:1011B00046954770440F440F8B2D8F7090E09C0133
:1011C000042E01C0220F0A94EAF7B4FE08C08FE093
:1011D00090E001C0880F4A95EAF7809501C080E051
:1011E000169516951370123069F088F49091FE03ED
:1011F000113019F0822B892302C0922B892B0E9477
:101200005F26D6C0822B9091FE038927F8CF822BD0
:10121000F6CF002319F0812F817001C086958823B5
:1012200009F4C6C04B2D429546954770440F440FB4
:101230008B2D8F7090E09C01042E01C0220F0A9428
:10124000EAF7B4FE08C08FE090E001C0880F4A952D
:10125000EAF7809501C080E016951695137012305C
:1012600059F078F490917F02113019F0822B892384
:1012700009C0922B892B06C0822B90917F0289276F
:1012800001C0822B0E94062693C01F70002339F0F4
:10129000812F0E9453268B2D0E94962689C08B2D6C
:1012A0000E948F26812F0E940D2682C08B2D92EFE7
:1012B000991681F1991538F0E0EF9E1659F0F1EF8B
:1012C0009F1619F15BC023EF921659F134EF931674
:1012D000C1F054C0002381F084E08A1508F464C092
:1012E0001F7181E090E0012E01C0880F0A94EAF797
:1012F00090917F02892720C095E09A1508F454C088
:10130000EFCF8091600382FD1AC0002329F0812F66
:101310008F7127C00023D9F3812F8F710E940D2672
:1013200043C0002341F01F7181E0012E01C0880FEE
:101330000A94EAF701C080E00E94062635C0002327
:1013400099F01F71812F0E9453268091600382FFC4
:1013500007C0E8E01E9FC001112483608093DA0378
:10136000812F0E94532620C081E00E941A26F1E0BE
:10137000FA15D0F482E00E941A2616C0002321F04C
:10138000AA2029F28B2D9ACEAA2031F2893349F472
:101390002FEF37EE83E0215030408040E1F700C06E
:1013A00000008B2D0E94922A88EF8C0D843010F45F
:1013B0000E94AA20DD2009F4F5C08091DA0380FDA7
:1013C000F1C0F70112828595859585950E94532677
:1013D000C7010E9416048091DA038595859585954D
:1013E0000E940D26DFC001319FE5190709F07ACB75
:1013F00082E054CB69E266CD043C9CE5190709F410
:1014000097C0053CECE51E0709F0BACD4AEE58E25C
:1014100064EF78E2AAC0093CFCE51F0709F497C015
:1014200078F4073C3CE5130709F48CC0083C9CE5C4
:10143000190709F0A5CD4DED58E260ED78E295C0B1
:101440000A3CECE51E0709F487C00B3CFCE51F07CE
:1014500009F096CD4CE457E26EE577E286C0013D97
:101460002CE5120709F48DC0A0F40E3C8CE518079A
:1014700009F481C008F47CC00F3CECE51E0709F4B8
:101480007DC0003DFCE51F0709F07ACD6EE089E0E4
:1014900086C0043D2CE5120709F479C068F4023DCA
:1014A0008CE5180709F470C0033D9CE5190709F0A5
:1014B00067CD61E088E170C0053DECE51E0709F4E9
:1014C00069C00D35FDE51F0709F05ACD6AE285E2D6
:1014D00066C080914C0380FF20C08E7F80934C03B8
:1014E00060914C0370914D0380914E0390914F0396
:1014F0000E9439270E944B2280918802816080934C
:1015000088022FEF30E782E0215030408040E1F741
:1015100000C000000E94BF26C5CA816080934C03B2
:1015200061E0869539C046E559E260E679E21DC082
:1015300040E659E266E579E218C044EF58E26AEE07
:1015400078E213C040ED58E26DED78E20EC046EB54
:1015500058E263EC78E209C043EC58E266EB78E2CB
:1015600004C04EE557E26CE477E20E9444229ACA36
:1015700061E081E011C065E082E011C068E086E0D2
:101580000EC064E18FE00BC067E185E108C062E254
:1015900089E105C061E083E20E94162983CA0E94A6
:1015A000302280CA2996E1E10C94762DAAE2B0E0BF
:1015B000ECEDFAE00C94592D85B7806885BF85B7AE
:1015C000806885BF84B7877F84BF0FB6F894A895DD
:1015D00080916000886180936000109260000FBE6F
:1015E00090E080E80FB6F8948093610090936100DA
:1015F0000FBE8BE190E19093F7018093F601509834
:10160000589A5198599A859A869A879A0E94331ABD
:101610000E94521A8091E20084608093E2007894E4
:10162000809175028823A1F01091E9001F709091BC
:10163000EC00892F817090FD80E8182B1092E90052
:101640008091E80083FD0E9424171F701093E90029
:1016500082E084BD93E095BD9AEF97BD80936E00C4
:101660001092FB011092FC011092FD011092FE01FC
:101670000E941722811102C00E9407220E94EE11CF
:101680008093110180911101882321F0109267014C
:101690008CE003C08CE080936701809368010E9416
:1016A000EE1181110E942D2B80911101811128C012
:1016B00085E0ECE6F1E0DE01919601900D928A95CD
:1016C000E1F7FE01B196ACE0B1E0CE018696219142
:1016D0002D938E179F07D9F788E0E1E7F1E0DE014F
:1016E000119601900D928A95E1F7FE013196A4E0E2
:1016F000B1E0CE01099621912D938E179F07D9F75E
:1017000080911101882311F090E001C095E0909341
:101710000A0285E0891B809309020CE011E081E157
:10172000E82E81E0F82ED8018D918D018F3F11F0C8
:101730000E947812E016F106B1F704E011E0F8011A
:1017400081918F018F3F11F00E947812F1E00C30EF
:101750001F07A9F78AE0E5E2F2E0DF01282F1D92DA
:101760002A95E9F7EFEFF1E0DF011D928A95E9F79D
:101770000E948614811102C00E946D2282E090E0D6
:101780000E94EC2D80930E020E94751490936003CA
:1017900080935F030E949D14EFE3FCE93197F1F71A
:1017A00000C000000E949D148091250280FF08C0A7
:1017B0006FEF7FEF80E090E00E941E2E0E94871F57
:1017C00083E090E00E94EC2D0E945F2680917F02D2
:1017D0000E945F2A80910B02811138C00E948614FA
:1017E000811104C00E946D220E94702788E090E061
:1017F0000E94F42D60934C0370934D0380934E032D
:1018000090934F03809188028360809388026E7F5B
:1018100071F40E94702788E090E00E94F42D60939C
:101820004C0370934D0380934E0390934F030E949B
:1018300026270E944B2280914C0380FF04C060E069
:1018400086950E94162981E080930B0290911101E8
:1018500081E0982790932002F82FF91BF0930D0256
:1018600090911101809321029091110180930C02BB
:1018700088E080931F0184988C9A8198899A8FE8D8
:1018800091E00197F1F700C0000030912102E2E2FF
:10189000F2E020E0231761F08FB182958170799B8F
:1018A00002C092E001C090E0892B81932F5FF2CFBC
:1018B0000E94EE11811103C082E30E948F2C82E10D
:1018C00091E09093570380935603B8E14B2E512C2F
:1018D00010E1312EDE0111966D013E01BDE06B0E6F
:1018E000711C80917502853009F041C012E1809130
:1018F0007502853009F037C080917502843011F18E
:1019000010925A03E0E40FB6F894A8954092600054
:101910000FBEE093600083B7817F846083BF83B78D
:10192000816083BF7894889583B78E7F83BF0FB61D
:10193000F894A8958091600088618093600010926F
:1019400060000FBE80917402882309F4D0CF0E94FA
:101950009D14E5E2F2E0819181114DC322E0EF3266
:10196000F207C9F7C4CF0E9464260E94AA200E94F1
:101970009D1481110E94E01FA5E2AA2EA2E0BA2EBA
:10198000AFE0B2E0F50100E010E0802E91908D9183
:10199000892549F1E12CFF24F3949F2D9823F1F040
:1019A0000E94EE11882399F0E9A28AA29F2081E08B
:1019B00009F480E08BA30E94EC1F8160782F9DA327
:1019C0008CA349A15AA16BA18DA10E947F29F80186
:1019D000E15FFD4F8081F826F0821AC0E394FF0C8E
:1019E00048E0E412DACF0F5F1F4F0A30110569F6A5
:1019F0008FEF8EA38FA318A60E94EC1F8160782F13
:101A00009AA789A74EA15FA168A58AA50E947F29F0
:101A10000E94EE1180918702882309F4CFC0809143
:101A20008602E0914C03E695E81BE0938202823047
:101A300059F4F0E0E154FE4FE4910E2F10E0F9E488
:101A4000EF2EFFE1FF2E6BC0863059F4F0E0E45436
:101A5000FE4FE4910E2F10E0E9E3EE2EEFE1FE2EB3
:101A60005EC0893061F4E695F0E0E754FE4FE49102
:101A70000E2F10E075ECE72E7EE1F72E50C08F3070
:101A800061F4E695F0E0EA54FE4FE4910E2F10E089
:101A900069E3E62E6EE1F62E42C0853159F4F0E09E
:101AA000ED54FE4FE4910E2F10E053EBE52E5DE177
:101AB000F52E35C08831F9F0833249F4E1EBF1E0DD
:101AC000059114914FEFE42E4EE1F42E28C084329C
:101AD000C9F08532F1F48E2F63E00E94972EE92F32
:101AE000F0E0E255FE4FE4910E2F10E037E2E32ED6
:101AF0003CE1F32E14C008E210E02EE2E22E2DE1CC
:101B0000F22E0DC004EF11E09FEEE92E9CE1F92EBC
:101B100006C000ED17E081EEE82E8BE1F82E8091F3
:101B20008302882361F0109283020E9492149093A2
:101B300081028093800210928502109284020E949A
:101B40009214E0918002F09181029C012E1B3F0BC8
:101B50002F3F3F4798F520911B022223B1F01092AE
:101B60001B022091190230911A02821B930B8F3FA6
:101B70009F4758F4205D3A4830931A022093190287
:101B8000809188028860809388028090840290907F
:101B900085020E0F1F1F109381020093800280E8C0
:101BA00092E0F70109958091840290918502892B3A
:101BB00029F4892819F081E080931B02812C212CC3
:101BC00080912102881608F06BC0082D10E0EFB15B
:101BD000E295E170799B02C082E001C080E04E2F67
:101BE000482BD801AE5DBD4FEC918E2F837090E0F5
:101BF000242F042E000C330B8217930709F44EC0D8
:101C0000EE0FEE0FE42BEC93D801A25EBE4FEC90EA
:101C100090902002980CEF70F0E0E758FE4F025EC3
:101C20001D4F9081D8018C91890F8C93F12C082E37
:101C3000000C990B8E159F056CF0E92DF0E0E45E29
:101C4000FD4F80818F5F808360E0892D0E947F2A15
:101C500021E001C020E0F8018081082E000C990BE2
:101C6000442755274E195F094817590764F0E92D95
:101C7000F0E0E45EFD4F80818150808361E0892D3A
:101C80000E947F2A21E0D8018C91082E000C990B2C
:101C9000B7010E94B12EF8018083222A839490CF4D
:101CA00021100E9418140E94AA20909124028913E6
:101CB0008093240280917502843009F012CE83E073
:101CC0008093E9008091E80082FF0BCE8091E800CC
:101CD00085FF21C00E94841B81111BC000E210E01F
:101CE000CE0101967C0108C08091F100D7018D934F
:101CF0007D010150110969F08091E80085FDF4CF64
:101D00008091E8008B778093E8000E94841B8823F1
:101D100099F391E001C090E08091E8008B77809387
:101D2000E800992309F4DDCDE9818E2F90E0FC01D4
:101D30003197E331F10508F036C1EE59FF4F0C94AD
:101D4000C52E1A8289E090C08A81823009F46AC166
:101D5000833051F0813009F026C10E94E01F9B833F
:101D60008C837D836E8321C1FE013396D5018D91D5
:101D70005D0181936E167F06C9F717C18A81823093
:101D800009F011C16B817C818D819E810E94CB2ED7
:101D90000E94E3210AC14C816B818A810E949021BB
:101DA0009D8347C12D813E813227232732274C81D5
:101DB0006B818A810E943421F8C00E945B21F5C0AA
:101DC0008A818138B1F050F4803809F0EEC020E00B
:101DD0004B8160914E0380914D0323C08238E9F01E
:101DE000833809F0E2C020E040914F036C818B8181
:101DF00018C060E08B810E9416298B81811103C07D
:101E00000E94FE28D2C080914C03816080934C03D5
:101E100060E086950E941629C8C08B81809350038C
:101E2000C4C00E942C28C1C08A81813899F030F446
:101E3000803809F0BAC080914F0316C0823891F003
:101E4000833809F0B2C080914D038B8380914E039B
:101E50008C83ABC080914C0380FF02C0869504C088
:101E600080E002C0809150038B839FC060914C033F
:101E700070914D0380914E0390914F030E9439273A
:101E800094C03A8292C081E08A8389E5EDCF0A81CD
:101E90001B81102701271027AC80B12C7601C801C7
:101EA00089559D4F97012C193D092A153B0508F0CE
:101EB0007CC00935B1E01B0728F40E94EC2DF70126
:101EC000848303C0D70114961C920F5F1F4FBFEF8E
:101ED000EB1AFB0AE4CF0A811B8110270127102788
:101EE000AC80B12C7601C80189559D4F97012C1902
:101EF0003D092A153B0508F058C00935E1E01E07E9
:101F000028F4D70114966C910E94002E0F5F1F4F8A
:101F1000BFEFEB1AFB0AE7CF0E94242146C084E002
:101F20008A8343C00A811B81102701271027AC80B8
:101F3000B12C7601C801879697012C193D092A1505
:101F40003B0598F50038E2E01E0730F40E94EC2DC6
:101F5000D70114968C9302C0F70114820F5F1F4FB4
:101F6000FFEFEF1AFF0AE6CF0A811B811027012736
:101F70001027AC80B12C7601C801879697012C19E7
:101F80003D092A153B0588F4003822E0120728F4A1
:101F9000D70114966C910E94002E0F5F1F4FBFEF68
:101FA000EB1AFB0AE9CF8FEF8983809175028430A9
:101FB00009F097CC1091E9001F709091EC00892FE7
:101FC000817090FD80E8182B82E08093E900809179
:101FD000E80080FF0CC040E050E060E270E0C60125
:101FE0000E94B71B8091E8008E778093E8001F70F5
:101FF0001093E90076CCE0E1E9BD19BD09B400FE1B
:10200000FDCF8091D8008F7D8093D8008091E00033
:1020100082608093E0008091E00081FDFCCF0E940F
:10202000642665CC86E290E00E94EC2D1B821C8227
:102030001D828E83BACF80E0089590915F0392FF56
:102040000DC0282F2871283019F4877F846006C0BE
:10205000282F2471243011F48B7F886093FF0DC0EA
:10206000282F2871283119F4877E846106C0282F13
:102070002471243111F48B7E88612091600320FF4C
:102080000DC0382F3871383019F4877F816006C051
:10209000382F3171313011F48E7F886021FF0DC0EF
:1020A000282F2871283119F4877E816106C0282FD6
:1020B0002171213111F48E7E886194FD877E08950F
:1020C000A0E0B0E0E6E6F0E10C94612D7C015B015C
:1020D0006A0180914F028A3018F001E010E002C0DE
:1020E0000AE010E0C1E0D0E0B501C701F6010995B2
:1020F000811115C021960C171D0794F0CC9F9001FB
:10210000CD9F300D300D112480E090E045E34A95DD
:10211000F1F70000019682179307C1F7E5CF81E040
:10212000CDB7DEB7EAE00C947D2DA0E0B0E0EBE99E
:10213000F0E10C945C2D582E6901580198E0890259
:10214000E00111244115510541F4FE01E05EFE4F0E
:1021500086819781892B11F534C0FE01E05EFE4F28
:10216000E080F12C4E155F0508F47A01FE01E05E77
:10217000FE4F81809280C4018E5F9B4F3C01A7017E
:102180000E94FB2E04E610E09701A301682D82E374
:102190000E94222C97FFD9CF80E037C050920204D2
:1021A00060912101709122012091200130E0AB016A
:1021B0004E5F5B4F04E610E082E30E94222C97FD05
:1021C000EBCFA114B10401F1FE01E05EFE4FE3800C
:1021D000F12CAE14BF0408F47501C05EDE4F6C81B3
:1021E0007D81AB014E5F5B4F04E610E0970182E317
:1021F0000E94492C97FDD0CF6C817D816E5F7B4F13
:10220000A701C6010E94FB2E81E0CDB7DEB7EFE04B
:102210000C94782DA8E0B0E0E0E1F1E10C94672D9A
:1022200085E0ECE4F3E0DE01119601900D928A95D1
:10223000E1F78091860290918702A09188028E83B7
:102240009F83A887288540914B0250914C02609152
:102250004D0270914E023FB7F89480915B039091CC
:102260005C03A0915D03B0915E033FBF841B950B9F
:10227000A60BB70B84369105A105B10510F42223F6
:10228000D9F000E010E020E030E048E050E0BE018E
:102290006F5F7F4F86E00E949510882359F00E945F
:1022A000E01F60934B0270934C0280934D02909319
:1022B0004E0202C080E003C01092880281E028969E
:1022C000E4E00C94832DA1E0B0E0E9E6F1E10C94A8
:1022D0005E2D762E4A015901680101E010E09E0151
:1022E0002F5F3F4F40E050E060E070E00E949510AB
:1022F000182F882309F43CC0F40140815181628188
:1023000073812FB7F89480915B0390915C03A09147
:102310005D03B0915E032FBF841B950BA60BB70B1B
:1023200084369105A105B10538F4B701C6010E94B4
:10233000CC2199818917E1F08701950140E050E0B7
:1023400060E070E0872D0E949510182FB701C6013C
:102350000E94CC2191E02981281390E0192369F093
:102360000E94E01FF401608371838283938305C020
:10237000A701B601C5010E94FB2E812F2196EDE039
:102380000C947A2DA5E0B0E0E8ECF1E10C94632D1B
:102390006B0185E0E82EF12C04E014E09E012F5F34
:1023A0003F4F4FE352E062E081E00E9463118823D7
:1023B00049F095E0FE013196AAE3B2E001900D925A
:1023C0009A95E1F795E0EAE3F2E0D60101900D92EB
:1023D0009A95E1F72596E8E00C947F2D80913902DB
:1023E000811118C088EC9091E30097FD0AC0EFE3DB
:1023F000FCE93197F1F700C000008150A1F782E0BD
:1024000001C081E080933902823021F40E94331AA6
:102410001092750281E090913902913009F080E0CC
:1024200008950F931F930E94EE11882319F00E94C4
:10243000E01F0EC00E94E01F0091FB011091FC0103
:102440002091FD013091FE01600F711F821F931FCB
:102450001F910F910895A4E0B0E0E1E3F2E10C9444
:10246000672D409147025091480260914902709156
:102470004A022FB7F89480915B0390915C03A0917E
:102480005D03B0915E032FBF841B950BA60BB70BAA
:1024900084369105A105B10528F10E941112DC01D5
:1024A000CB010296A11DB11D89839A83AB83BC83A6
:1024B00000E010E020E030E044E050E0BE016F5F5B
:1024C0007F4F85E00E949510182F882361F00E94AD
:1024D000E01F6093470270934802809349029093F3
:1024E0004A0201C011E0812F2496E4E00C94832D70
:1024F000F894E82FE295EF70F0E031A1282F2F70CB
:1025000081E090E001C0880F2A95EAF7982F909516
:10251000932391A392A1892B82A378940895CF93BA
:10252000DF938238910569F1B0F48133910509F4A4
:102530006FC048F48932910509F465C08A3291056B
:1025400009F46BC08AC08533910509F457C08933FB
:102550009105B9F082C0833E910571F138F4803E57
:102560009105B1F0823E910511F177C0863E91054B
:10257000B9F1873E9105C9F1843E910509F06DC01E
:1025800024C020915F0320FD53C021FD51C065C0D0
:1025900080915F0380FD46C08091600380FF48C04A
:1025A00080915F0384FD3FC183EE90E03EC1809146
:1025B0005F0382FF3AC0F4CF80915F0382FD35C094
:1025C0008091600380FD34C0EBCF8091600381FF78
:1025D00035C080915F0384FD26C187EE90E025C160
:1025E00080915F0383FF27C0F4CF80915F0383FD59
:1025F00022C08091600381FD21C0EBCF80915F03F9
:1026000085FD1FC021C080915F0385FD1DC019C0DD
:1026100080915F0386FD1BC01DC080915F0386FD16
:1026200019C015C089E390E000C182EE90E0FDC0C2
:1026300080EE90E0FAC086EE90E0F7C084EE90E085
:10264000F4C089E290E0F1C085E390E0EEC08AE258
:1026500090E0EBC081E390E0E8C0811532E593079C
:1026600008F069C0811541E5940728F0982F882764
:10267000816F906ADAC0883E910568F5803E9105C9
:1026800008F0D3C0883A9105B8F4853A910548F02E
:10269000855AE82FF0E0E757FE4F808190E0906484
:1026A000C4C08130910509F4BBC008F4BCC08430BB
:1026B000910508F4B8C0B9C08F3B910508F0B3C0CC
:1026C000885AE82FF0E0EE0FFF1FE457FE4F80819D
:1026D00091819464AAC0811520E59207F0F09C01D5
:1026E00074E0369527957A95E1F7922F9370482FED
:1026F000437021E030E002C0220F331F4A95E2F719
:102700003C68392B8F70982F9695969540E2949F50
:10271000C0011124822B932B88C0811530E49307CC
:1027200018F09F70906A81C09C013A9521153F4135
:1027300008F47BC078C0EC01C11586E5D807E8F540
:10274000C11525E5D20748F08C2F0E941D108F710E
:1027500090E0982F8827906268C0C11534E5D307B0
:1027600028F09C2F8827846F906A5FC0AE01437069
:1027700055272C2F26952695C115D34578F481E051
:1027800090E002C0880F991F4A95E2F740E2249F2B
:1027900090011124822B932B9C6847C081E090E02C
:1027A00002C0880F991F4A95E2F740E2249F9001EA
:1027B0001124822B932B9A6838C0C1152AE5D207C1
:1027C000F8F4C11539E5D30790F08C2F8F700E9473
:1027D0001D1094E0D695C7959A95E1F7CF70D0E09B
:1027E000DC2FCC27D0699E01282BC9011EC0C11542
:1027F00048E5D407C0F09C2F8827806F906A15C0E9
:10280000CE0190568115904270F48D2F8F710E94E9
:102810001D10282F2F71CE0199279062922B05C091
:1028200081E090E002C080E090E0DF91CF910895D8
:102830000E94E01F0895A1E0B0E0E1E2F4E10C9411
:10284000622DEE24E394F12C0AE014E09E012F5F48
:102850003F4F43E452E064E083E00E946311B82EEE
:10286000882309F43DC000E080E090910C02091734
:10287000A0F5D0900D02D00E2D2D30E0A901445EC0
:102880005D4F7A01E1E0F0E0EC0FFD1FE00FF11D7C
:102890001081FA019081191BC12E1C145CF4CA949A
:1028A000F70180818F5F808360E08D2D0E947F2AF9
:1028B00081E0F3CF912F17FD90E0191B112359F000
:1028C0001F5FF70180818150808361E08D2D0E9420
:1028D0007F2A81E0F3CF0F5FC8CF81110E941814C7
:1028E0008B2D2196E9E00C947E2DCF9384E090E02F
:1028F0000E94EC2DC82F82E290E00E94EC2D2C2F3C
:1029000030E0A901582BCA01CF91089580E090E0F2
:102910000E94FA2D883E9E4F19F40E9417220895B6
:1029200080E008950E94EE11882319F00E94EC1FA8
:1029300008950E941112CB010895AFE0B0E0E3EAE0
:10294000F4E10C94602D9E012F5F3F4F79018AE0E6
:10295000D9011D928A95E9F70CE011E06901AA24DA
:10296000A394B12CF80180818F3F09F441C0F89401
:10297000E82FE295EF70F0E021A18F70A50102C071
:10298000440F551F8A95E2F7CA01922F982B91A305
:1029900092A18095892382A3789400C0E4E0F1E0BD
:1029A000912C31E021912F3F89F0A22FA295AF7099
:1029B000B0E090968C9190E02F7002C0959587952D
:1029C0002A95E2F780FD02C0832F01C080E0982A9B
:1029D000330F51E0EC30F50729F7D8018C918F3F88
:1029E00011F00E947812B0EABA95F1F7F6019082E0
:1029F0000F5F1F4FFFEFCF1ADF0A21E001311207EF
:102A000009F0B0CF4AE050E0B7018FEF91E00E94AB
:102A1000EE2E8C01892B41F08AE0F701AFEFB1E097
:102A200001900D928A95E1F7F0900A0201151105C7
:102A300049F081E0809331020E94EC1F90933002B4
:102A400080932F02809131028823B9F080912F0268
:102A5000909130020E94D11F059778F0AFEFB1E05E
:102A6000EF2DF0E0EB5DFD4F84E092E02D9121939E
:102A70008A179B07D9F7109231020115110509F049
:102A800013C10E94EE11E0910A02AE01455F5F4F53
:102A90007A01882309F476C085E0DA011D928A95CF
:102AA000E9F70E2F10E00B5D1D4F80914F028A3029
:102AB00048F442EC51E1B701C8010E94601088233C
:102AC000B1F10AC080913202909133020E94D11F6D
:102AD000843F914070F73CC04BE154E1B701C8011D
:102AE0000E946010882319F14BE252E1B701C8013E
:102AF0000E9460108823D9F04AE051E1B701C80173
:102B00000E946010882399F010924F028091090270
:102B100090E045E050E0B7018B5D9D4F0E94EE2EA6
:102B200021E020933802892BF1F400E029C0809144
:102B30004F028F3F19F08F5F80934F0280914F02B9
:102B40008A3020F30E94EC1F90933302809332026C
:102B500080913802882349F385E0F70111928A9524
:102B6000E9F710923802A0910902B0E0AB5DBD4FC9
:102B700085E0FE013B9601900D928A95E1F701E018
:102B800010E094C0F0E0EB5DFD4F85E0A4E0B4E020
:102B900001900D928A95E1F765E070E084E094E0A1
:102BA0000E94CC21809303044091210250E0609167
:102BB000200270E0645E7D4FC7010E94FB2E8B8572
:102BC00080930A0461E070E0C7010E94CC218093E9
:102BD0000904C0900B04D0900C04E0900D04F09018
:102BE0000E048091340290913502A0913602B0918A
:102BF0003702C816D906EA06FB06D1F0C0923402A5
:102C0000D0923502E0923602F09237020E94EE1125
:102C100081110EC00E94E01FC61AD70AE80AF90AFD
:102C2000C092FB01D092FC01E092FD01F092FE0106
:102C3000809116048823D1F180FF12C080910F0487
:102C400080FF0CC080914C03816080934C03809185
:102C50000F0460E086950E94162902C00E94FE289B
:102C60008091160481FF09C020E040911204609118
:102C70001104809110040E942C288091160482FF78
:102C800009C080911504882319F00E94522202C0C5
:102C90000E944B228091160483FF03C081E0809341
:102CA00083021092160402C001E010E0802F2F96DC
:102CB000EBE00C947C2D8091770287FF11C080910E
:102CC000E80082FD05C0809175028111F8CF11C026
:102CD0008091E8008B770BC080917502882349F0C2
:102CE0008091E80080FFF8CF8091E8008E77809394
:102CF000E8000895982F973068F59093E9009817A9
:102D000039F07091EC002091ED005091F00003C07B
:102D1000242F762F50E021FD02C09F5FECCF309131
:102D2000EB003E7F3093EB003091ED003D7F309320
:102D3000ED003091EB0031603093EB007093EC00CC
:102D40002093ED005093F0002091EE0027FDE5CF99
:102D500080E008958F708093E90081E008952091CC
:102D60007D0230917E022617370748F06115710504
:102D700039F42091E8002E772093E80001C0B901D2
:102D8000FC0120E06115710579F1809175028823BD
:102D9000F1F18530F1F18091E80083FD3CC0809134
:102DA000E80082FD2EC08091E80080FFEBCF2091EB
:102DB000F3008091F20090E0922B6115710551F0C3
:102DC0008830910538F421912093F1006150710908
:102DD0000196F3CF21E0089709F020E08091E80008
:102DE0008E778093E800CECF2111CFCF0AC080919B
:102DF0007502882361F0853061F08091E80083FDE1
:102E00000AC08091E80082FFF2CF80E0089582E05E
:102E1000089583E0089581E008950895BC0184E059
:102E20000E945D1F0895BC0183E00E945D1F08950C
:102E300080917F02982F9670963011F4886001C0BF
:102E4000877F0E9406260895AAE2B0E0EAE2F7E151
:102E50000C94682DE7E7F2E08FE792E02091F10013
:102E600021938E179F07D1F780917802833009F460
:102E700063C030F4813071F0823009F49DC0B4C079
:102E80008A3009F489C08B3009F46EC0893009F0AA
:102E9000ABC020C080917702813A09F0A5C0809133
:102EA000E800877F8093E80080917B0290917C020C
:102EB000892B21F460E283E592E003C060E080E0CA
:102EC00090E070E00E94AF168091E8008B778093CD
:102ED000E8008AC080917702813209F085C0809134
:102EE0007B0290917C02009719F0029709F07CC058
:102EF0008091E800877F8093E8008091E80082FD60
:102F000005C0809175028111F8CF6EC02091F30049
:102F10008091F20090E0922B029731F48091F100C1
:102F2000813011F0863021F48091F10080935202BB
:102F30008091E8008B7754C080917702813A09F044
:102F400053C080917B0290917C02892B09F04CC088
:102F50008091E800877F8093E8008091E80080FFFF
:102F6000FCCF8091580137C0809177028132E1F522
:102F700080917B0290917C02892BB1F58091E800D1
:102F8000877F8093E8000E945B168091790280938E
:102F900058010E94642628C080917702813221F571
:102FA0008091E800877F8093E8000E945B16809103
:102FB0007A028093510218C080917702813AA1F47D
:102FC0008091E800877F8093E8008091E80080FF8F
:102FD000FCCF809151028093F1008091E8008E77C0
:102FE0008093E8000E945B168091E80083FFDFC1B8
:102FF0008091770290917802492F50E04A30510534
:1030000008F0D5C1FA01EB58FF4F0C94C52E80385B
:1030100021F0823809F0CBC108C0809173029091F1
:103020007402992389F082600FC080917B028F70B7
:10303000873008F0BCC18093E9008091EB0085FBEC
:10304000882780F91092E9009091E800977F90938B
:10305000E8008093F1001092F10070C1282F2D7FBD
:1030600009F0A5C1882319F0823061F0A0C18091D8
:103070007902813009F09BC1933009F080E08093A0
:1030800074022EC08091790281112AC080917B0246
:103090008F702FEF280F263008F089C18093E90048
:1030A0002091EB0020FF1CC0933021F48091EB00B5
:1030B000806214C09091EB0090619093EB0021E04E
:1030C00030E0A90102C0440F551F8A95E2F74093F2
:1030D000EA001092EA008091EB0088608093EB0098
:1030E0001092E9008091E800877F8093E8000E94B9
:1030F0005B165DC181115BC1109179021F778091D0
:10310000E3008078812B8093E3008091E800877F43
:103110008093E8000E945B168091E80080FFFCCF5E
:103120008091E30080688093E300111102C082E087
:1031300001C083E0809375023AC18058823008F064
:1031400036C12091790230917A022C3D53E0350747
:1031500079F583E08A838AE289834FB7F894DE01A8
:10316000139620E03EE051E2E32FF0E05093570049
:10317000E49120FF03C0E295EF703F5FEF708E2F68
:1031800090E0EA3010F0C79601C0C0968D939D93F1
:103190002F5F243149F74FBF8091E800877F8093EC
:1031A000E8006AE270E0CE0101960E94AF16B4C05A
:1031B00080917B0290917C02432F5527433051052B
:1031C000A9F068F44130510509F400C142305105BD
:1031D00009F0EDC08BE590E0E2E9F2E04BC041324E
:1031E000510529F14232510589F1E1C0C901992700
:1031F00081309105A1F058F0029709F0D8C0EFEFA7
:10320000F2E0E4918E2F90E0EFEFF2E030C0EFE2D9
:10321000F3E0E4918E2F90E0EFE2F3E028C0E1E1EB
:10322000F3E0E4918E2F90E0E1E1F3E020C0833001
:10323000910508F0BCC0880F991FFC01EB53FE4FAD
:103240000190F081E02D89E090E014C08330910579
:1032500008F0ADC0FC01EE0FFF1FE154FE4F0190DE
:10326000F081E02DDC01A454BE4F8C9190E00097DA
:1032700009F49DC02091E800277F2093E800209169
:103280007D0230917E022817390708F4C90140E019
:10329000009789F120917502222309F43DC0253061
:1032A000D9F12091E80023FD37C02091E80022FDEC
:1032B0002FC02091E80020FFEBCF4091F300209138
:1032C000F20030E0342B009759F02830310540F4FB
:1032D00044914093F100319601972F5F3F4FF3CF18
:1032E00041E02830310509F040E02091E8002E77D8
:1032F0002093E800CDCF4111CDCF0AC08091750257
:10330000882351F0853041F08091E80083FD04C0AE
:103310008091E80082FFF2CF8091E8008B77809364
:10332000E80045C0803809F042C08091E800877FFE
:103330008093E800809176028093F1008091E8000C
:103340008E77D3CE811133C08091790290917A0229
:103350009927029764F58091E800877F8093E800C1
:1033600010917902109376020E945B16111106C02B
:103370008091E30087FD02C081E001C084E080937A
:10338000750242E061EC81E00E947A1642E261EC53
:1033900084E00E947A1642E261EC82E00E947A1692
:1033A00042E260EC83E00E947A168091750280917F
:1033B000E80083FF10C08091E800877F8093E800D9
:1033C0008091EB0080628093EB0005C082E190E089
:1033D000EDEEF2E04FCFAA96E3E00C94842D1F921D
:1033E0000F920FB60F9211242F933F934F935F9339
:1033F0006F937F938F939F93AF93BF93CF93DF93FD
:10340000EF93FF93C091E900CF708091EC00D82F2B
:10341000D17080FDD0E81092E9008091F000877FA4
:103420008093F00078940E9424171092E900809114
:10343000F00088608093F000CD2BCF70C093E9003E
:10344000FF91EF91DF91CF91BF91AF919F918F91BC
:103450007F916F915F914F913F912F910F900FBE90
:103460000F901F901895E8EDF0E080818E7F8083AB
:103470001092E2001092DA001092E100A0EEB0E0AB
:103480008C9181608C9380818F77808319BCA7EDAC
:10349000B0E08C918E7F8C9380818F7E80831092A0
:1034A00050020895A0E0B0E0E8E5FAE10C94632D45
:1034B000C8EDD0E088818F7E8883E7EDF0E08081E1
:1034C0008160808384E082BF81E0809350028881A4
:1034D0008E7F888302EE10E0F80110821092DA00ED
:1034E00081EEC82ED12CF601108288818F778883D7
:1034F00088818068888388818F7D888319BC109239
:10350000750210927602109274021092730290EE7D
:10351000E92EF12CF70180818B7F80838881816087
:10352000888342E060E080E00E947A16F6018081A4
:103530008E7F8083F80180818160808380818860B4
:103540008083F70180818E7F80838881806188837A
:10355000CDB7DEB7E8E00C947F2D1F920F920FB627
:103560000F9211242F933F934F935F936F937F9309
:103570008F939F93AF93BF93EF93FF938091E1005D
:1035800082FF09C08091E20082FF05C08091E100C6
:103590008B7F8093E1008091DA0080FF2AC08091C8
:1035A000D80080FF26C08091DA008E7F8093DA00F9
:1035B0008091D90080FF18C080E189BD82E189BD7A
:1035C00009B400FEFDCF81E0809375028091500226
:1035D00081110FC00E94331A0E94521A8091E2009A
:1035E00084608093E20005C019BC109275021092AD
:1035F00050028091E10080FF17C08091E20080FFBF
:1036000013C08091E2008E7F8093E2008091E200FF
:1036100080618093E2008091D80080628093D8001E
:1036200019BC85E0809375028091E10084FF30C071
:103630008091E20084FF2CC080E189BD82E189BDD8
:1036400009B400FEFDCF8091D8008F7D8093D80013
:103650008091E1008F7E8093E1008091E2008F7E77
:103660008093E2008091E20081608093E20080918B
:103670007602882311F084E007C08091E30087FD83
:1036800002C081E001C083E08093750280917502E1
:103690008091E10083FF27C08091E20083FF23C077
:1036A0008091E100877F8093E10082E08093750242
:1036B000109276028091E1008E7F8093E1008091EC
:1036C000E2008E7F8093E2008091E200806180932F
:1036D000E20042E060E080E00E947A168091F00013
:1036E00088608093F000FF91EF91BF91AF919F911F
:1036F0008F917F916F915F914F913F912F910F909B
:103700000FBE0F901F9018952091E4003091E500B6
:1037100095E64091EC00842F817040FF23C080919A
:10372000E80080FD1DC080917502882399F08530E6
:1037300099F08091EB0085FD11C04091E40050911B
:10374000E5002417350729F3915011F09A01E1CFD4
:1037500084E0089582E0089583E0089581E008956B
:1037600080E008954091E80042FFDDCF0895EF9298
:10377000FF920F931F93CF93DF937C018B010E94E5
:10378000841B811119C0E70101151105A1F0809179
:10379000E80085FD0AC08091E8008E778093E800FC
:1037A0000E94841B882381F307C089918093F100D4
:1037B00001501109E9CF80E0CDB7DEB7E6E00C9407
:1037C000812D08950895809152020895CF93DF933B
:1037D00020915801222339F020915F0327FF03C075
:1037E00060E224E002C068E021E02093E9002FEFCE
:1037F0003091E800215035FD06C035ED3A95F1F7DE
:1038000000002111F5CF2091E80025FF1DC0EC013B
:1038100080915801811105C040E050E068E070E0FF
:1038200003C070E040E050E0CE010E94B71B8091E1
:10383000E8008E778093E80080E2FE01A3E5B2E025
:1038400001900D928A95E1F7DF91CF910895A0E064
:10385000B0E0EDE2FCE10C945E2DFC01828074800E
:1038600081E08483E3E3F3E09490E2EBF3E0E4911E
:10387000A12CF5E0BF2ECC24CA94D12CE9190E2F2F
:1038800010E080916B01A81608F0A2C0EA2CF12C80
:1038900022E0281568F0BE9CF001BF9CF00D1124B9
:1038A000EC52FD4F80914D03808380914E038183C4
:1038B00071100AC0BE9CF001BF9CF00D1124EC52A7
:1038C000FD4F138212826AC0BE9CE001BF9CD00DE6
:1038D0001124CC52DD4F8B818823F9F081508B83EA
:1038E0002FEF829FC00111246C8170E00E94452D52
:1038F000FB01FF27ED5CFC4F8491E82FE9192FEFC6
:10390000E29FC0011124B8010E94452D80914F0310
:10391000689FB00111247A8341C00E94DC2D209160
:103920004F032695215830E0A901440F551F322F2F
:103930002227240F351F232F33278217930774F56F
:1039400082E0881588F40E94DC2DB6010E94B12E19
:1039500088830E94DC2D20914E032695622F70E013
:103960000E94B12E280F2983BE9CF001BF9CF00D50
:103970001124EC52FD4F128280914F03843120F0CC
:10398000893C18F088EC01C084E1BE9CF001BF9C2A
:10399000F00D1124EC52FD4F8483838380916901E3
:1039A0009701280F311DC901880F991F280F391F52
:1039B00024573D4FBE9CF001BF9CF00D1124EC52EA
:1039C000FD4F4281618180810E948827A39459CF55
:1039D0000E94BF26CDB7DEB7EDE00C947A2D0F9391
:1039E0001F93CF93DF93EC0100E010E080916B0117
:1039F000282F30E00217130724F5909169019801F0
:103A0000290F311DA901440F551F240F351F2457BD
:103A10003D4F869590E04C81081719071CF444230C
:103A200031F002C0411103C040914F0301C040E09A
:103A300060914E0380914D030E9488270F5F1F4FB6
:103A4000D5CF0E94BF268C8190E001968170992786
:103A50008C83DF91CF911F910F910895A0E0B0E08A
:103A6000E4E3FDE10C945F2D8C01FC014481C42F43
:103A7000D0E09E01DE010E94882E9B01AC010E94D5
:103A8000532E6B017C01E0E2F0E0EC1BFD0BA5E5A1
:103A9000B0E09B01AC010E94532E4B015C019F01E1
:103AA000DF010E94D22E9B01AC010E945E2E9B0181
:103AB000AC012C0D3D1D4E1D5F1DC501B4010E94C2
:103AC000662EC22FD22F2A3228F4F3E02F9F9001C6
:103AD00011240DC025E530E02C1B3109C901880FE8
:103AE000991F280F391F37FF02C02F5F3F4F3595B1
:103AF0002795C22FC095F12C85E5E82EED1A80910F
:103B00006B01F816C8F4F1FC02C08E2D01C08D2F98
:103B1000909169012F2D30E0290F311DA901440F2B
:103B2000551F240F351F24573D4F4C2F60914E03D6
:103B30000E948827F394E3CF0E94BF26F801848176
:103B4000811102C091E003C0803219F49FEF90937D
:103B5000660190916601890FF8018483CDB7DEB7C5
:103B6000ECE00C947B2D1F93CF93DF93EC018C81C1
:103B7000811109C081E08C8310928A0292E09093B7
:103B80006501809364018091690190916A018917B0
:103B900070F4E82FF0E09F01220F331FE20FF31FB4
:103BA000E457FD4F1182108212828F5FF0CF10E038
:103BB00060916B011617C0F5E12FF0E070E0CF01C6
:103BC0000E94B12E20916901820F20918A02022E5B
:103BD000000C330B90E0E217F307CCF02091650165
:103BE000022E000C330B2E173F078CF09C01220F86
:103BF000331F820F931F9C0124573D4F40914F0369
:103C000060914E0380914D030E9488270BC0FC01F8
:103C1000EE0FFF1F8E0F9F1FFC01E457FD4F118217
:103C2000108212821F5FC4CF0E94BF268091640160
:103C300020918A02280F20938A0290916501980FA3
:103C40009093650119165CF4022E000C330B409121
:103C50006B0150E0415051092417350734F081952C
:103C600080936401813009F41C82DF91CF911F9110
:103C70000895A0E0B0E0EFE3FEE10C945E2DEC01CE
:103C80008A8180FF03C0BB24BA9402C0BB24B394D2
:103C90008C8181110DC081E0B81206C080916B014A
:103CA00081508093890202C01092890281E08C8346
:103CB000A12C48E1842E90906B01A91408F041C01A
:103CC00080916901CA2CD12C8601080F111DC801F1
:103CD000880F991F080F191F04571D4FF8011182F3
:103CE0001082128234E0E32EF12C712C8091890233
:103CF000870D89312CF0682D0E94A32E892F02C0D8
:103D000087FD890D082E000C990BC816D90691F471
:103D100080914F038E9DA0018F9D500D11245595CC
:103D2000479555954795980160914E0380914D03B5
:103D30000E9488277B0CF1E0EF1AF108B9F6A394F2
:103D4000BACF0E94BF268091890291E0B9120EC0BD
:103D5000811107C080916B018150809389021C8280
:103D60000FC0815080938902BC820AC090E0019606
:103D700060916B0170E00E94B12E809389028C8368
:103D8000CDB7DEB7EDE00C947A2DFF920F931F9321
:103D9000CF93DF93EC01F12C0FEF10E060916B01FA
:103DA000F616F0F4809169012F2D30E0280F311DB7
:103DB000C901880F991F280F391F24573D4F70E004
:103DC000C8010E94B12E962F8C8140914F036091C3
:103DD0004E03F99E800D11240E948827F394DECFB4
:103DE0000E94BF269A818C8190FF02C08F5F01C024
:103DF00081508C83CDB7DEB7E5E00C94822DA3E033
:103E0000B0E0E5E0FFE10C94672D8C0180918B021E
:103E100081110AC09E012F5F3F4F4FEF6FEF0E944D
:103E200088278A8180938B02F8018481813051F048
:103E300028F0823061F440918B020AC080918B029D
:103E400040E007C060918B0240E080E003C040E0AA
:103E500080E060E00E940B27F801848190E00196E9
:103E600063E070E00E94B12E84832396E4E00C941A
:103E7000832DCF93DF93EC01ECE4F3E04381628187
:103E80008C810E9414288C818F5F8C83DF91CF916D
:103E90000895CF93DF93EC01EC81F0E0ED5CFC4FF3
:103EA0004491ECE4F3E0628181810E9414288C81CA
:103EB0008F5F8C83DF91CF9108958093610370931E
:103EC000630360936203809175028430F9F48093F8
:103ED000E9008FEF9091E800815095FD06C095EDC7
:103EE0009A95F1F700008111F5CF8091E80085FFE8
:103EF0000DC040E050E063E070E081E693E00E9496
:103F0000B71B8091E8008E778093E800089581E0E8
:103F10008093E00080E28093D8001092C9008FE186
:103F20009EE40197F1F700C0000087E090EBDC0110
:103F30008093170490931804A0931904B0931A0463
:103F40009CE088E10FB6F894A895809360000FBEBE
:103F500090936000FFCF78941F920F920FB60F924C
:103F600011248F939F93AF93BF9380915B039091A4
:103F70005C03A0915D03B0915E030196A11DB11D8C
:103F800080935B0390935C03A0935D03B0935E0307
:103F9000BF91AF919F918F910F900FBE0F901F9087
:103FA00018959C014FB7F89480915B0390915C0346
:103FB000A0915D03B0915E034FBF821B930B0895E8
:103FC0002FB7F89460915B0370915C0380915D035F
:103FD00090915E032FBF08952FB7F89480915B03F3
:103FE00090915C03A0915D03B0915E032FBF089593
:103FF0001F920F920FB60F9211248F939F93AF933E
:10400000BF9380915A03811113C080915B039091FB
:104010005C03A0915D03B0915E034196A11DB11DAB
:1040200080935B0390935C03A0935D03B0935E0366
:10403000BF91AF919F918F910F900FBE0F901F90E6
:104040001895209158012223C9F020915F0327FF82
:1040500015C0262F2695269526952E31C8F4FC01ED
:10406000E20FF11D677081E090E001C0880F6A9552
:10407000EAF780959281892382830895FC01069650
:104080002281621301C012823196E817F907C1F745
:104090000895209158012223C1F020915F0327FF4A
:1040A00014C0262F2695269526952E3130F5FC0135
:1040B000E20FF11D677081E090E001C0880F6A9502
:1040C000EAF79281892B82830895FC0132962FEFC3
:1040D00030E04191641789F02F3F19F4411101C07C
:1040E000232F3F5F3630A9F72F3F39F0FC01E20F55
:1040F000F11D27FDFA9562830895089520915803D4
:10410000309159032817390771F090935903809320
:104110005803E0915603F0915703309721F0008443
:10412000F185E02D099508952091540330915503B0
:104130002817390771F09093550380935403E09149
:104140005603F0915703309721F00680F781E02D58
:10415000099508950E94EE11882359F0E0915603C5
:10416000F0915703309729F00190F081E02D0995E7
:10417000089580E008950F931F93CF93DF93C42F8A
:10418000D22FFC0182818823B1F0409353030E9417
:10419000EC1F909352038093510380E28C0F883080
:1041A00008F04DC0C77081E001C0880FCA95EAF7DA
:1041B0000E94962644C080915303481330C08091DA
:1041C0005103909152030E94D11F883C910538F50C
:1041D00010E21D0FCD17B9F080E28C0F883040F44B
:1041E000C77081E001C0880FCA95EAF70E948F2648
:1041F000183010F581E09D2F977001C0880F9A95B7
:10420000EAF70E949626802F0E94A0261830B8F464
:10421000D77081E001C0880FDA95EAF70AC080E222
:104220008C0F883060F4C77081E001C0880FCA9598
:10423000EAF70E948F2603C0802F0E94A026DF91FC
:10424000CF911F910F910895CF93DF93C7EAD2E0EA
:1042500060E0CE010E94002E2196C11584E0D807AF
:10426000B9F7DF91CF9108951F93CF93DF93962FE6
:104270008430E8F46A30D8F44830C8F4632F122F41
:10428000C42FD0E0CC0FDD1F20E1929FC00DD11DC7
:10429000112490EA899FC00DD11D1124CE0187966B
:1042A0000E94002E612FCE0188960E94002EDF9181
:1042B000CF911F910895A0E0B0E0E1E6F1E20C9407
:1042C000612DA12CE12CF12CB12C00E010E0C0E01C
:1042D000D0E06701C00ED11EF601EC0FFD1FEE0FFE
:1042E000FF1FED5CFB4F259134914C2F6B2D8A2DD8
:1042F0000E9434212196C830D10571F7085F1F4F05
:10430000B3948AE0B812E3CF80E5E80EF11CA394E1
:1043100084E0A812D9CFCDB7DEB7EAE00C947D2DAA
:104320000F931F93CF93DF93843008F56A30F8F42E
:104330004830E8F4C42FD0E0CC0FDD1F20E1629FAD
:10434000C00DD11D112430EA839FC00DD11D112451
:10435000CE0187960E94EC2D90E0182F0027CE0109
:1043600088960E94EC2D9801282BC90102C080E09C
:1043700090E0DF91CF911F910F910895843048F420
:104380007A3038F4683028F4462F672F0E94902145
:10439000089580E090E00895FC01680F791F8FEF89
:1043A00091E3E617F70771F02191822728E030E0CA
:1043B00087FF03C0880F892701C0880F215031096A
:1043C000B9F7EFCF089586E290E00E94002E08959D
:1043D000CF93C82F811102C06FEF01C062E283E268
:1043E00090E00E94002EC11102C06FEF01C067E093
:1043F00084E290E00E94002EC11102C06FEF01C064
:1044000064E185E290E00E94002ECF91089580E063
:104410000E94E82160E070E0CB010E94E3210E944D
:104420005B210E94242181E00E94E821089583E21B
:1044300090E00E94EC2D823281F484E290E00E94B0
:10444000EC2D873051F485E290E00E94EC2D91E054
:10445000843109F090E0892F01C080E081700895D7
:1044600090914C0390FF04C09695981748F003C0B4
:10447000811106C090E0961718F40E9460290895F3
:1044800061E00E9416290895882311F0FA0101C005
:10449000FB0109950895E6E8F2E0118282818460CB
:1044A0008283089560914C03669570E04BE050E084
:1044B00089E591E00E94E12E892B19F481E0809337
:1044C00087020E94921490938102809380028091CF
:1044D0008802846080938802089568EE7EEF80E011
:1044E00090E00E941E2E60E082E090E00E94002E8C
:1044F00060E083E090E00E94002E1092FE0360E0F6
:1045000084E090E00E94002E64E082E290E00E944D
:10451000002E60E085E090E00E94002E60E086E0E2
:1045200090E00E94002E6FEF87E090E00E94002E46
:1045300040E050E0BA0188E090E00E94122E60E076
:104540008DE090E00E94002E40E050E0BA0188E14A
:1045500090E00E94122E60E087E190E00E94002E21
:1045600040E050E0BA018CE190E00E94122E60E041
:1045700070E080E290E00E941E2E40E050E0BA0120
:1045800088E190E00E94122E80E00E94E8210E94C3
:10459000072240E050E0BA018FE090E00E94122E26
:1045A00040E050E0BA0183E190E00E94122E0895AD
:1045B0008091FD0381111092FD03089580959091E3
:1045C000FC0389238093FC0308959091FC03809160
:1045D000FB03982B909364038091FD038823D9F00B
:1045E000892B8093640380915801882331F0809156
:1045F0005F0387FF02C08EE101C086E0E6E6F3E0DC
:1046000090E0815028F021912223D9F39F5FF9CFC8
:1046100091110E94D82240E250E06BED73E084E6F5
:1046200093E00E94EE2E892B21F180E2E4E6F3E094
:10463000ABEDB3E001900D928A95E1F7E09156035E
:10464000F09157033097A9F080915801882359F0D1
:1046500080915F0387FF07C08091640380936503A7
:1046600086E0809364030280F381E02D84E693E08A
:104670000995089580E090E00E94942080E090E009
:104680000E947E201092FB030E94E52208958091F3
:10469000D9039091A803891719F08F5F8770FBCF1A
:1046A00008950F931F93CF93DF938091A703829573
:1046B0008F7009F05AC08091A403882309F455C073
:1046C0008091D9031091A8036091A2037091A30374
:1046D000C091A503D091A60391E06F3F09F090E04F
:1046E000292F06E0811709F440C0209721F07F3F71
:1046F00021F030E003C031E001C0322F90E030FD06
:1047000031C0089FF001099FF00D1124DF01A7556A
:10471000BC4F11963C911197371324C03C9136132E
:1047200021C012963C91129731111CC013964D91E5
:104730005C9114974C1B5D0B483C510598F480919B
:10474000A7038F7080618093A703E255FC4F80819F
:104750008F708061808382EA93E00E9416040E9439
:10476000472303C001968770BDCFDF91CF911F9182
:104770000F910895CF92DF92FF920F931F93CF93E3
:10478000DF936C0100917F028091FE03082BC7E04C
:10479000D0E010E0C8010C2E02C0959587950A94D0
:1047A000E2F780FD04C02197A8F7F12C09C0FC2E88
:1047B000B6018C2F0E94BE210E948F12019799F39F
:1047C0008F2DDF91CF911F910F91FF90DF90CF90B0
:1047D0000895CF93DF93EC010E94BA23BE010E949B
:1047E000BE210E948F12DF91CF910895FC0180813C
:1047F00091810E94E92392959F70963079F010F490
:10480000925001C09A50923068F4803F69F018F4D9
:10481000883E40F409C0843F29F406C0883E20F059
:10482000813F11F080E0089581E00895A1E1B0E0BA
:10483000ECE1F4E20C94602D8C0185E0F801DE01DE
:104840001D9601900D928A95E1F7F801E280909112
:10485000A2036091A3034091A5035091A6034115C3
:10486000510531F06F3F31F481E09F3F19F403C0EF
:1048700081E001C080E0F82FF1709F2E80FD1BC108
:10488000F80130812181C380D48082EAA82E83E0A0
:10489000B82EF090A403F601E41BF50BFF2009F4F9
:1048A000C7C08091A703E83CF10508F092C0482FEB
:1048B000407F09F051C0621311C093130FC0FE2C4A
:1048C000E1100CC08F7080618093A703C5010E9426
:1048D00016048091A703F80185832AC1C114D1046D
:1048E00031F02F3F31F481E03F3F19F403C081E004
:1048F00001C080E080FD03C081E08E2502C080E021
:1049000090E0F82FF170FF2E80FF1CC08091D9033A
:104910004091A80356E0841709F4E8C090E0589F3E
:10492000F001599FF00D1124E755FC4F61812613CA
:1049300006C06081631303C06281E61203C0019662
:104940008770E9CFFE2CEE2009F4F2C08091A70316
:1049500081608093A70349C0621306C0931304C00B
:10496000E11002C0F80186C0C8010E94F623882326
:1049700051F1EE2041F12091A703822F82958F7093
:1049800090E0029774F08091A2039091A30398871E
:104990008F831986DB86CA862C87CE0107960E94F4
:1049A000160486E0F801A2EAB3E001900D928A9520
:1049B000E1F70E9451230AC06217C9F0C8010E94A2
:1049C000F62381111EC0C8010E941604FF24F3942F
:1049D000AFC0482F407F81F782EA93E00E9416041F
:1049E00086E0F50111928A95E9F7F12CA1C09313A5
:1049F000E5CFE110E3CFF8018583C8010E941604DA
:104A000054C0EE2001F32091A703822F82958F706E
:104A100090E0029734F28091A2039091A3039A83CD
:104A200089831B82DD82CC822E83CE010196B7CF93
:104A3000E83CF105D0F5FE2CEE2029F2621327C0E8
:104A4000931325C02091A70320FD18C0822F8295C3
:104A50008F70482F50E04115510581F0F8012583F2
:104A60004F30510541F08F5F982F9295907F822FA4
:104A70008F70892B8583C8010E94160486E0F80197
:104A8000A2EAB3E001900D928A95E1F751C0C80106
:104A90000E94F623811185CF8091A70381608093C6
:104AA000A703C8010E94160443C086E0F5011192D5
:104AB0008A95E9F73DC0EE2009F485CFC8010E9430
:104AC000F623F82E882309F47ECF86E0F801A2EAC7
:104AD000B3E001900D928A95E1F78091A203909145
:104AE000A3030E94E9230E94512322C03D872E8701
:104AF0008D859E850E94E923292F22952F702230D3
:104B000028F49F7039F0811105C00BC0243028F4BF
:104B10009F7049F4805E883020F0C8010E9416041E
:104B20009F2CF92C05C0F8019581907F99F7F9CF5A
:104B30008F2D6196EBE00C947C2D292F9A3078F51F
:104B4000883068F590E038E0239F800D911D112496
:104B5000682F677023E0969587952A95E1F7FC0109
:104B6000EE0FFF1FE80FF91FEC57FC4F40E050E03D
:104B700080E0219130E0062E02C0369527950A94F8
:104B8000E2F721703327042E01C0220F0A94EAF7BE
:104B9000822B4F5F5F4F4330510559F7089580E0F6
:104BA0000895292F9A3088F5883078F590E038E01C
:104BB000239F800D911D1124282F277051E001C0E3
:104BC000550F2A95EAF723E0969587952A95E1F700
:104BD000FC01EE0FFF1FE80FF91FEC57FC4F20E020
:104BE00030E070E04081CB01022E02C0969587959F
:104BF0000A94E2F781708195842785238427819325
:104C00002F5F3F4F2330310569F708950E945F2AD7
:104C100080937F020E943A23089521E030E001C092
:104C2000220F8A95EAF7209580917F0282230E94C5
:104C3000062608952091DA03809582238093DA0373
:104C4000982F977099F430E0482F082E000C550BE0
:104C50002417350759F09091600392FF07C085959E
:104C6000859585950E940D261092DA030895CF93BD
:104C7000C0916003C2FB992790F9981791F080FBCF
:104C8000C2F9C093600360915F0384E090E00E94EA
:104C9000002E6C2F82E290E00E94002E82E00E94A3
:104CA0001A26CF91089521E030E001C0220F8A95A5
:104CB000EAF780917F02822B0E9406260895809356
:104CC000FE030E943A2308951092FC03809158013C
:104CD000882331F080915F0387FF02C08EE101C01D
:104CE00086E0E6E6F3E0DF011D928A95E9F70E948F
:104CF0003A230895882341F080959091FB038923FE
:104D00008093FB030E94E5220895882339F0909157
:104D1000FB03892B8093FB030E94E52208958823DF
:104D200021F00E94DE220E94E5220895882339F0B6
:104D30009091FC03892B8093FC030E94E522089547
:104D40001F93CF93DF93182F893319F0C0E0D0E081
:104D500002C0C0E5D0E0812F0E94BE2A209741F01A
:104D60008FE99FE00197F1F700C000002197F6CF8F
:104D7000812F0E94922ADF91CF911F910895309147
:104D8000680180914C0380FF16C0E091670163E0E9
:104D9000E69FF0011124E457FD4F6E9A8EB18F7B90
:104DA0009EB190642FB7F894AF0163E0369F400D39
:104DB000511D112414C08091690190916A018917D5
:104DC00020F7E82FF0E0AF01440F551FE40FF51F67
:104DD000E457FD4F1182108212828F5FF0CFE417EB
:104DE000F50789F0319168E09EB9000000C037FFF7
:104DF0008EB9330F000000C000C000C08EB900C0E3
:104E00006A9591F7ECCF2FBF8FE594E00197F1F70A
:104E100000C00000089590914C0390FF16C090913F
:104E2000690120916A01921770F4E92FF0E0DF0127
:104E3000AA0FBB1FEA0FFB1FE457FD4F818360835E
:104E400042839F5FF0CF0E94BF26089580914C035C
:104E5000282F269530E02115310519F481708260E4
:104E600005C02B32310524F08170846580934C039A
:104E70000895CF92DF92EF92FF926B017C010E9426
:104E80002627B701A60188E090E00E94122EFF902D
:104E9000EF90DF90CF90089580915003882319F010
:104EA00081508093500360914C0370914D03809129
:104EB0004E0390914F030E9439270895809150032B
:104EC000833018F48F5F8093500360914C0370918E
:104ED0004D0380914E0390914F030E94392708950E
:104EE000ECE4F3E083E0808311828FEF828383839D
:104EF0001482A6E8B2E012968C9112978360129603
:104F00008C9360817181828193810E9439270895F9
:104F1000A0E0B0E0EEE8F7E20C94612DE82EF62E6A
:104F2000E901E42FF0E0611106C0ED54F94FE4917E
:104F30004E2F2E2F71C0062F10E0ED54F94F4491E3
:104F4000F42FC42ED12C26E0829FC00111242FEF14
:104F500030E0B9010E94452D5BEA5603C001579F1E
:104F6000900D11248E0D911D8E0D911D582F550FF2
:104F7000580FD901A01BB10BAC9DC001AD9D900D88
:104F8000BC9D900D1124E92FF59ED0011124AB2F6B
:104F9000BB277901EA1AFB0AEC9CD001ED9CB00D0D
:104FA000FC9CB00D11245901A51AB108A09E7001F6
:104FB000A19EF00CB09EF00C1124EF2CFF242E19B2
:104FC0003F092C9D80012D9D100D3C9D100D11243D
:104FD000212F6230710591F048F461157105E1F0FF
:104FE00061307105B9F4242F4B2F16C06430710560
:104FF00069F040F06630710579F00CC0242F492F1C
:10500000E12F0AC0492FEF2F2B2F06C0292FE42FA5
:10501000412F02C0292FEB2F49832883EA83CDB784
:10502000DEB7EAE00C947D2DA3E0B0E0EAE1F8E21F
:105030000C94692D90914C0390FF0AC09E012F5F44
:105040003F4F0E9488274B8169818A810E940B27EC
:105050002396E2E00C94852DA3E0B0E0E2E3F8E2D1
:105060000C94622D082FE62EF42ED22E90914C0334
:1050700090FF78C0E92FE695AE2FB0E0A553BE4F64
:105080008C91809386029E7F923061F49E012F5F07
:105090003F4F802F0E9488274B8169818A810E941F
:1050A0000B273DC0823019F4F0904F0338C0863092
:1050B00019F400914D0333C08930D9F3893179F562
:1050C000E9518E2F8170C82EE695F0E0ED54F84F2F
:1050D0001491B12C60916B01B616F8F4B19EC00129
:1050E000112470E00E94452D802FC11002C0860F50
:1050F00001C0861B909169012B2D30E0290F311DD5
:10510000A901440F551F240F351F24573D4F4F2D24
:105110006E2D0E948827B394DDCF0E94BF26809118
:105120004D03081308C080914E03E81204C080911B
:105130004F03F81629F080918802826080938802DC
:1051400000934D03E0924E03F0924F03DD2051F0A7
:1051500060914C0370914D0380914E0390914F03E9
:105160000E9439272396E9E00C947E2DECE4F3E0CD
:10517000438121E1421B08F440E021E0628181810A
:105180000E942C280895ECE4F3E0438121E1420FD2
:1051900008F44FEF21E0628181810E942C2808955C
:1051A000ECE4F3E0628121E1621B08F460E021E0BD
:1051B000438181810E942C280895ECE4F3E0628110
:1051C00021E1620F08F46FEF21E0438181810E94A9
:1051D0002C280895ECE4F3E0818121E04381628191
:1051E00088500E942C280895ECE4F3E0818121E0AE
:1051F00043816281885F0E942C280895ECE4F3E0EB
:1052000080818E7F80830E944B22E6E8F2E08281DB
:10521000816082832FEF80E792E0215080409040B0
:10522000E1F700C000000E94BF26089590914C0352
:1052300090FF3BC09170811102C0926006C08B321A
:1052400010F0946502C0880F982B90934C038091C6
:105250008802816080938802662351F060914C033C
:1052600070914D0380914E0390914F030E94392716
:1052700060914C03669570E04BE050E089E591E069
:105280000E94E12E892B19F00E944B2202C00E943D
:10529000522281E08093830220E040914F0360918D
:1052A0004E0380914D030E942C28089580914C0359
:1052B0008695815009F48AE261E00E9416290895DA
:1052C00080914C0386958F5F8B3208F081E061E01E
:1052D0000E9416290895982F92959F7019F0892F92
:1052E00024E001C020E0982F9695969511F02E5F4E
:1052F000892F982F969509F02F5F822F0895A7E1A7
:10530000B0E0E5E8F9E20C94682D4B8B5C8B6D8B7B
:105310007E8B8F8B61111092FB0386E09E01235FD1
:105320003F4FD901E82F1D92EA95E9F795E0FE017C
:105330007396D90101900D929A95E1F79C894E8957
:105340005F897B897D879E876F87598B488BF901A1
:10535000DE01179601900D928A95E1F7CE0107962E
:105360000E94162481113EC086E0FE013796DE01C0
:10537000119601900D928A95E1F7FF81E8856A8583
:105380007B856115710531F0EF3F31F481E0FF3F1E
:1053900019F403C081E001C080E080FD23C02091AA
:1053A000A80330E0C9010196877099274091D9037D
:1053B00050E08417950779F1F983EA837D836C8344
:1053C00096E0929FD001939FB00D1124A755BC4F3A
:1053D000FE01319601900D929A95E1F78093A80312
:1053E0000E94472316E08091D9039091A803891762
:1053F000F9F0189FC001112487559C4F0E94162474
:105400008823B1F08091D90390E0019687709927A5
:105410008093D903E8CF0E9464261092A8031092CB
:10542000D903E2EAF3E086E0DF011D928A95E9F70D
:105430006796E3E00C94842D0E9464262FEF84E3AA
:105440009CE0215080409040E1F700C000009CE0CB
:1054500088E10FB6F894A895809360000FBE9093F2
:105460006000FFCF9C013A9521153F4130F5BC010A
:1054700066277270AC01442754709C012227387053
:1054800094FF0FC090FF02C080E101C080E0672B55
:1054900009F08062452B09F08064232B79F0806845
:1054A0000895892F8170672B09F08260452B09F0E0
:1054B0008460232B19F08860089580E00895CF93CD
:1054C000C82F0E946B29823069F020F4813089F462
:1054D0008D9A10C0833049F0833759F48F9A8D9A92
:1054E0008E9A0AC08E9A8D9806C08F9A8D988E9843
:1054F00003C08D988E988F988C2FCF91089581112D
:1055000006C0662311F08EE409C08BE407C0813029
:1055100039F4662311F089EA01C08AEA0E94A026C4
:1055200081E00895882349F1682F8CEF860F813A36
:1055300028F484E693E00E9421200CC080E2860FCC
:10554000883058F4677081E001C0880F6A95EAF7E7
:105550000E94DE220E94E52208958BE5860F8330AB
:1055600028F480E090E00E9494200895685A673102
:1055700020F480E090E00E947E200895CF9388235D
:1055800009F469C0C82F8CEF8C0F813AC0F5809167
:1055900058018823E1F080915F0387FF18C0EC2F4A
:1055A000E695E695E695F0E0EC59FC4F8281282FD0
:1055B00030E04C2F477081E090E002C0880F991FC7
:1055C0004A95E2F782239323892B61F412C0E6E621
:1055D000F3E08CE693E02191C21721F08E179F072C
:1055E000D1F707C06C2F84E693E00E9421200E942F
:1055F000E5226C2F84E693E00E94492010C080E2EF
:105600008C0F883078F4C77081E090E001C0880F7B
:10561000CA95EAF79091FC03892B8093FC030E94C2
:10562000E52219C0EBE5EC0FE33040F4F0E0E7577A
:10563000FE4F808190E00E9494200DC0C85AC7316F
:1056400050F4EC2FF0E0EE0FFF1FE457FE4F808187
:1056500091810E947E20CF9108951092B90088E434
:105660008093B8000895A0E0B0E0E9E3FBE20C9479
:10567000602DB82EEB010E94EC1F6C01C431D105E6
:1056800058F0CF3F8FEFD80759F0CE0164E170E0BA
:105690000E94452D7B0107C0EE24E394F12C03C04A
:1056A00025E0E22EF12C84E8A82E94EA992E10929F
:1056B000BC009092BC000E94EC1F8C018091BC0049
:1056C00087FD08C00E94EC1F801B910B8E159F0563
:1056D000A8F32AC08091B900887F883041F080917A
:1056E000B900887F803119F00FEF1FEF1FC0B09213
:1056F000BB00A092BC000E94EC1F8C018091BC00FA
:1057000087FD08C00E94EC1F801B910B8E159F0522
:10571000A8F30AC08091B900887F883111F08034E5
:1057200019F700E010E00EC00EEF1FEFCF3F8FEF34
:10573000D80709F4BCCFC6010E94D11F8C179D0762
:1057400008F4B5CFC801CDB7DEB7EBE00C947C2DE3
:105750000F931F93CF93DF93EB018093BB0084E8FB
:105760008093BC000E94EC1F8C018091BC0087FDDF
:105770000EC0CF3F8FEFD807C1F30E94EC1F801BF4
:10578000910B8C179D0788F38EEF9FEF0CC0209133
:10579000B900287F81E090E0283211F480E090E0A9
:1057A000919581959109DF91CF911F910F91089566
:1057B0000F931F93CF93DF93EC0184EC8093BC0095
:1057C0000E94EC1F8C018091BC0087FD0EC0CF3F72
:1057D0008FEFD807C1F30E94EC1F801B910B8C1731
:1057E0009D0788F38EEF9FEF03C08091BB0090E090
:1057F000DF91CF911F910F9108950F931F93CF9336
:10580000DF93EC0184E88093BC000E94EC1F8C01C4
:105810008091BC0087FD0EC0CF3F8FEFD807C1F34A
:105820000E94EC1F801B910B8C179D0788F38EEF55
:105830009FEF03C08091BB0090E0DF91CF911F915B
:105840000F910895A0E0B0E0E8E2FCE20C94632D33
:10585000C62F6A017901B8010E94332B97FD11C050
:10586000B8018C2F0E94A82BE601EC0CFD1CCE1574
:10587000DF0539F097FD05C0B80189910E94A82B7A
:10588000F6CF24E92093BC00CDB7DEB7E8E00C9456
:105890007F2DA0E0B0E0EFE4FCE20C94632DD82E65
:1058A000C62E7A01E901B8010E94332B97FD2AC068
:1058B000B8018C2D0E94A82B97FD24C0B8018D2D16
:1058C00081600E94332B6701219796012E193F09B1
:1058D0002C173D0768F497FD15C0C8010E94D82B0E
:1058E00097FD02C0F6018083FFEFCF1ADF0AEDCFEC
:1058F00097FD08C0C8010E94FD2B97FD03C0CE0D87
:10590000DF1D888324E92093BC001816190614F4BF
:1059100080E090E0CDB7DEB7E8E00C947F2D809377
:10592000BA0085EC8093BC0008951F920F920FB6C9
:105930000F9211242F933F934F935F936F937F9315
:105940008F939F93AF93BF93CF93DF93EF93FF9387
:105950008091B900887F803899F058F4882309F441
:1059600074C0803609F073C01092FF0310920104D6
:105970006EC0883A09F45BC0883B09F458C067C020
:105980008091FF0381111EC08091BB0080930004B1
:1059900080910004853120F01092000480E001C065
:1059A00081E091E09093FF032091000430E040916A
:1059B0002101509122014217530709F090E0909382
:1059C000010446C0E0910004F0E08091BB00EE5F6E
:1059D000FB4F8083809100048F5F8093000480914F
:1059E00001048823A1F1C091BA01D091BB01A88123
:1059F00088E0A802D0011124A05EBE4F1696ED915A
:105A0000FC911797309719F114962D913C911597A9
:105A10002C0F3D1F11968D919C911297BE01680F1E
:105A2000791F13964C9113978C91099510C0E091B2
:105A30000004F0E0EE5FFB4F80818093BB0080911B
:105A400000048F5F8093000402C01092BC0081E0CC
:105A50009091BC008295880F880F807C9568892B77
:105A60008093BC00FF91EF91DF91CF91BF91AF91F7
:105A70009F918F917F916F915F914F913F912F9166
:105A80000F900FBE0F901F901895AA1BBB1B51E1E2
:105A900007C0AA1FBB1FA617B70710F0A61BB70B9E
:105AA000881F991F5A95A9F780959095BC01CD0143
:105AB00008952F923F924F925F926F927F928F92B2
:105AC0009F92AF92BF92CF92DF92EF92FF920F938D
:105AD0001F93CF93DF93CDB7DEB7CA1BDB0B0FB697
