:100000000C942E030C9466030C9466030C94660304
:100010000C9466030C9466030C9466030C946603BC
:100020000C9466030C9466030C94EB1F0C94BD2097
:100030000C94321A0C9466030C9466030C946603B9
:100040000C9466030C9466030C9466030C9466038C
:100050000C9466030C94BB1A0C9466030C94660310
:100060000C9466030C9466030C9466030C9466036C
:100070000C9466030C9466030C9466030C9466035C
:100080000C9466030C9466030C9466030C9466034C
:100090000C9466030C9466030C9466030C9466033C
:1000A0000C9466030C9466030C946603050705071D
:1000B000310731079907930893089308B7071F087A
:1000C0003008300880148314A414B514BD14C81467
:1000D0000E150E150E150E150E15CB14CE14D314C9
:1000E000E014ED14F014F414011525214C214422E0
:1000F0004C2144229821BB21442212222122290092
:100100003A003B003C003D003E003F004000410003
:1001100042004300440045000000460047004800FC
:1001200035001E001F0020002100220023002400B3
:100130002500260027002D002E002A0049004A0035
:100140004B002B0014001A000800150017001C00BB
:1001500018000C00120013002F00300031004C007A
:100160004D004E00390004001600070009000A0087
:100170000B000D000E000F003300340028002A0091
:10018000000000000000E10000001D001B00060050
:100190001900050011001000360037003800E50096
:1001A000E500000052000000E000E300E200000073
:1001B000000000002C00000000000000E600E70046
:1001C0006500E400500051004F00010001000100F3
:1001D0000100010001000100010001000100010017
:1001E0000100010000000100010001000100010008
:1001F00001000100010001000100010001000100F7
:1002000001000100010001000100010001000100E6
:1002100001000100010001000100010001000100D6
:1002200001000100010001000100010001000100C6
:1002300001000100010001000100010001000100B6
:1002400001000100010001000100010000000000A8
:100250000000010001000100010001000100010097
:100260000100010001000100010001000100000087
:10027000010000000100010001000000000000007A
:100280000100000000000000010001000100010069
:100290000100010001000100010001000100010056
:1002A0000100010001000100010001000100010046
:1002B0000000010001000100010001000100010037
:1002C0000100010001000100010001000100010026
:1002D0000100010001000100010001000100010016
:1002E0000100010001000100010001000100010006
:1002F00001000100010001000100010001000100F6
:1003000001000100010001000100010001000100E5
:1003100001000100010001000000000000000100D8
:1003200001000100010001000100010001000100C5
:1003300001000100010001000100000001000000B7
:1003400001000100010000000000000001000000A9
:100350000000000001000100010001000100010097
:100360000100010001000100010001000100010085
:100370000100010001000100010001000000010076
:100380000100010001000100010001000100010065
:100390000100010001000100010001000100010055
:1003A0000100010001000100010001000100010045
:1003B0000100010001000100010001000100010035
:1003C0000100010001000100010001000100010025
:1003D0000100010001000100010001000100010015
:1003E0000100010000000000000001000100010008
:1003F00001000100010001000100010001000100F5
:1004000001000100010000000100000001000100E6
:1004100001000000000000000100000000000000DA
:1004200001000100010001000100010001000000C5
:100430000000000000002A2B28000000000000003F
:1004400000000000000000000029000000002C1E39
:100450003420212224342627252E362D3738271EF6
:100460001F202122232425263333362E37381F041C
:1004700005060708090A0B0C0D0E0F1011121314B4
:1004800015161718191A1B1C1D2F3130232D350472
:1004900005060708090A0B0C0D0E0F101112131494
:1004A00015161718191A1B1C1D2F3130354C00005A
:1004B000000000000000000000000000000000003C
:1004C000000000000000000000000000000000002C
:1004D00000007E0F00D4FFFFFFC700000078240358
:1004E000770069006C00620061002E0074006500F6
:1004F00063006800200057005400380030002D00D1
:10050000470000001603770069006C00620061007C
:100510002E007400650063006800000004030904F5
:1005200009025B00030100A0FA09040000010301B5
:100530000100092111010001224000070581030883
:10054000000109040100020300000009211101005B
:100550000122220007058203200001070503032072
:10056000000109040200010300000009211101003B
:1005700001226D0007058403200001120100020022
:10058000000008826523000100010200010660FFEF
:100590000961A1010962150026FF009520750881F7
:1005A000020963150026FF00952075089102C00519
:1005B000010980A101850319012AB700150126B799
:1005C00000950175108100C0050C0901A101850489
:1005D00019012AA002150126A002950175108100BB
:1005E000C005010906A1018506050719E029E715DF
:1005F0000025019508750181020507190029EF15ED
:1006000000250195F075018102050819012905955C
:100610000575019102950175039101C00501090657
:10062000A101050719E029E71500250195087501C5
:1006300081029501750881010507190029FF150040
:1006400026FF009506750881000508190129059502
:100650000575019102950175039101C011241FBE1A
:10066000CFEFDAE0DEBFCDBF04B603FE18C0809145
:10067000D9029091DA02A091DB02B091DC028730BE
:10068000904BA740B04B59F41092D9021092DA0265
:100690001092DB021092DC02E0E0F8E3099511E031
:1006A000A0E0B1E0EEE0F6E402C005900D92A839BA
:1006B000B107D9F722E0A8E9B1E001C01D92A93D38
:1006C000B207E1F70E94B7130C9405230C940000C5
:1006D00081E0089581E008950E946A0308950895D5
:1006E0000E946F030895A5E0B0E0E9E7F3E00C9401
:1006F0008E2249835A8330919B0189819A813111DD
:1007000014C0662359F0222349F00E943A0A182F98
:10071000682F89819A810E94160A03C00E94280AC4
:10072000182F69817A81812F04C00E943A0A698159
:100730007A810E9427172596E3E00C94AA22FC01F7
:10074000262F408151816281738184810E947303CD
:10075000089581E00895CF93DF93EC0160E00E945B
:100760009F03BE010E947003DF91CF910895E1E0E5
:10077000F0E0DF0102C0AA0FBB1F6A95E2F7BD01DE
:10078000DF0102C0AA0FBB1F4A95E2F7AD01462B5D
:1007900001C0EE0F2A95EAF7942F9823491302C05F
:1007A0008E2B0895E0958E230895242F462F682FD1
:1007B0008091C3010E94B7030E94750908950E94A9
:1007C000561208950E945012089508950E94120929
:1007D0000E94E5032FEF84E39CE02150804090408D
:1007E000E1F700C0000008950E94E6030E94E11AAC
:1007F00008950E94E6030E94051B08950F931F931E
:10080000CF93DF938C0161E00E949F03EC01B8015C
:100810000E942F14882309F447C0B801CE010E941A
:100820006C03882309F440C0B801CE010E947118FE
:100830008823D1F1B801CE010E9419158823A1F1B6
:10084000B801CE010E94D717882371F1F801828187
:10085000882331F1CA358DE5D807E9F050F4C11588
:10086000FCE5DF0779F0CE3DDC45D1F40E942F0F87
:100870000CC0CC35EDE5DE0759F080F0C73ADD4518
:1008800021F00EC00E94F4030FC00E94F9030CC0B7
:100890000E94660E05C00E94700E02C00E94740E77
:1008A000C8010E94680301C080E0DF91CF911F91D1
:1008B0000F9108950E94081A0E943F0508950E9412
:1008C00043050E94111A0895A0E0B0E0EAE6F4E0C2
:1008D0000C948A22E82FF0E0E25DFB4FD490282FA1
:1008E00026952695269530E0F901E253FB4F0491B9
:1008F000877010E0082E02C0159507950A94E2F75C
:1009000001701127F901E254FB4FE490F12C082EFD
:1009100002C0F594E7940A94E2F791E0E922FF24FB
:10092000F901E255FB4FC491D0E002C0D595C795BF
:100930008A95E2F7C170DD270115110519F081EEE6
:100940000E949A05E114F10419F086EE0E949A05BE
:100950008D2D0E94B406E114F10419F086EE0E9478
:100960003B060115110519F081EE0E943B06CD2BC7
:1009700019F08CE20E94B406CDB7DEB7E7E00C9424
:10098000A622EF92FF920F931F93CF93DF93EC0178
:10099000162F0AE08881882309F455C0813009F0B8
:1009A00043C08981813041F47E0182E0E80EF11C70
:1009B0008A810E94B40609C0823049F47E01E2E0D7
:1009C000EE0EF11C8A810E949A05E7012FC0833048
:1009D00041F47E01F2E0EF0EF11C8A810E943B0699
:1009E000F4CF843011F0219621C02A81229680E034
:1009F00090E030E0205331092A30310558F4089F47
:100A0000A001099F500D1124C901840F951F219643
:100A10002881EFCF009751F0EFE9FFE03197F1F730
:100A200000C000000197F6CF0E9464042196812F38
:100A3000882309F4AFCFEFE9FFE03197F1F700C069
:100A400000008150F5CFCDB7DEB7E6E00C94A722C9
:100A500060E00E94C104089508950E942C05089545
:100A600081E008950E94300508950895CF93C82F1E
:100A70000E942D058C2F0E943205CF91089580E0B1
:100A80000E94360508950E94CD180E9436050895EB
:100A90000E94CD1890919A01891721F080939A01B4
:100AA0000E9436050895ABE0B0E0E9E5F5E00C946E
:100AB0008F224F83588769877A878B8761110E94BD
:100AC000AE0D9E012F5F3F4F86E0F90111928A958E
:100AD000E9F785E0FE013796D90101900D928A95DC
:100AE000E1F789819A814C815D81452B31F09F3FEF
:100AF00031F491E08F3F19F403C091E001C090E020
:100B000090FF09C049815A816B817C818D819E81D2
:100B10000E94DA0C05C0C9010E94A9038111F2CF1D
:100B20002B96E2E00C94AB22FC01808191810E9423
:100B3000670A0895CF93882309F49BC0C82F823891
:100B4000C1F40E94CD1881FD94C069E38091000139
:100B5000909101010E94B6190E94D20D2FEF81EEF3
:100B600094E0215080409040E1F700C0000069E32C
:100B700019C0833801F50E94CD1880FD7AC063E565
:100B800080910001909101010E94B6190E94D20D3E
:100B90002FEF81EE94E0215080409040E1F700C0BB
:100BA000000063E580910001909101010E94C41949
:100BB0000E94D20D5EC08438C1F40E94CD1882FD1F
:100BC00058C067E480910001909101010E94B6191C
:100BD0000E94D20D2FEF81EE94E021508040904092
:100BE000E1F700C0000067E4DDCF8CEF8C0F813AA5
:100BF000D0F46C2F80910001909101010E94361970
:100C0000882349F06C2F80910001909101010E948E
:100C1000C4190E94D20D6C2F8091000190910101A6
:100C20000E94B619C5CF80E28C0F883048F4C77097
:100C300081E001C0880FCA95EAF70E94910DB8CFF4
:100C4000EBE5EC0FE33040F4F0E0E35CFE4F808135
:100C500090E00E94F4180DC0C85AC73150F4EC2F30
:100C6000F0E0EE0FFF1FE15FFE4F808191810E9457
:100C70000A19CF910895882309F45DC0682F82383E
:100C800079F40E94CD1881FF56C069E3809100017C
:100C9000909101010E94B6190E94D20D69E310C023
:100CA0008338B9F40E94CD1880FF45C063E5809178
:100CB0000001909101010E94B6190E94D20D63E5D6
:100CC00080910001909101010E94C4190E94D20DEF
:100CD0000895843879F40E94CD1882FF2CC067E40F
:100CE00080910001909101010E94B6190E94D20DDD
:100CF00067E4E6CF8CEF860F813A10F380E2860F2F
:100D0000883048F4677081E001C0880F6A95EAF77F
:100D10000E94970DDBCF8BE5860F833028F480E0AF
:100D200090E00E94F4180895685A673120F480E03A
:100D300090E00E940A1908951F93CF93DF93182F14
:100D4000EB010E949A05209741F08FE99FE00197FF
:100D5000F1F700C000002197F6CF812F0E943B06DB
:100D6000DF91CF911F910895893319F060E070E011
:100D700002C060E570E00E949C060895882321F07F
:100D80000E94910D0E94D20D0895882321F00E94A7
:100D9000970D0E94D20D0895A0E0B0E0E2EDF6E0DC
:100DA0000C9489227C01162FC72FFC01D28105816A
:100DB00002950F700E94870D8823B9F0DD23A9F0FA
:100DC0008C2F807F803421F080E2810F883068F0A2
:100DD0008091970282FF09C082E00E94340E0E9437
:100DE000870D91E0D82ED92601C0D12CCC2EC294EB
:100DF0008FE0C8228C2D90E08C30910508F093C1D3
:100E0000FC01EA5AFF4F0C9472228C2F807FCF7026
:100E1000882311F0C295C07FDD2399F0CC2309F41B
:100E20006EC180E2810F883010F0111104C08C2F48
:100E30000E94910D03C08C2F0E94A10D0E94D20D23
:100E40005EC1812F0E943B06CC2309F46CC180E275
:100E5000810F883038F1112329F18C2F0E94A70DC2
:100E600024C08C2F807FCF70803211F0C295C07F5C
:100E7000112319F01130A1F13DC08091970282FD3C
:100E800017C0DD2349F0CC2329F08C2F0E94910D4F
:100E90000E94D20D80E034C180E00E943B06CC234A
:100EA00009F441C18C2F0E94970D0E94D20D3BC1C5
:100EB000DD2371F0002341F0013031F40E94B10DC7
:100EC0008C2B0E94BB0D2FC10E94B10D8C2B1DC01D
:100ED000002319F0013009F426C10E94C80D25C075
:100EE000DD2321F0063008F01EC10EC0053008F0E9
:100EF0001AC11BC0DD2361F0002331F0F7018581A9
:100F000080FFFDC08F7085838C2F0E94BE060BC1B1
:100F1000002359F0193309F003C1FFEF27EE83E0F6
:100F2000F15020408040E1F7F9C08C2F0E94C506A7
:100F3000FAC08C2F86958695837019F0813061F008
:100F4000F2C0DD2321F0812F9C2F937002C080E03E
:100F500090E00E94F418EFC0DD2321F0812F9C2F38
:100F6000937002C080E090E00E940A19E4C08C2FC8
:100F7000837079F5D111DBC0412F429546954770BA
:100F8000440F440F212F2F70042E01C0220F0A940A
:100F9000EAF714FF08C08FE090E001C0880F4A957F
:100FA000EAF7809501C080E0C695C695C370822B94
:100FB000C23049F058F4C13019F00E946609B7C038
:100FC0000E946009B4C00E946C09B1C00E945D0912
:100FD000AEC0DD2319F08C2F817001C08695882367
:100FE00009F4A5C0412F429546954770440F440F20
:100FF000212F2F70042E01C0220F0A94EAF714FF4C
:1010000008C08FE090E001C0880F4A95EAF780950C
:1010100001C080E0C695C695C370822BC23049F0EE
:1010200058F4C13019F00E94B40981C00E94AE0981
:101030007EC00E94BA097BC00E94750978C0CF703B
:10104000DD2339F08C2F0E948909812F0E94BE0672
:101050006EC0812F0E94C5068C2F0E94950967C023
:10106000123F21F128F4103F41F0113FC1F043C07D
:10107000133F19F1143F79F03EC0DD2341F00530F4
:1010800008F051C08C2F8F710E94A2094CC006300D
:1010900008F049C0F7CF8091970282FD18C0DD2388
:1010A00039F08C2F8F710E9489093DC0DD23C9F36F
:1010B0008C2F8F710E94950936C0DD2329F08C2F6B
:1010C0008F710E9480092FC00E947C092CC0DD23F3
:1010D00049F0CF718C2F0E94890963E08C2F0E9408
:1010E000160E21C081E00E94340E0230E0F082E052
:1010F0000E94340E18C0DD2331F0002391F2812FBD
:101100000E949A0510C0002399F2193349F49FEF09
:10111000E7EEF3E09150E040F040E1F700C000005E
:10112000812F0E943B0688EF8C0D843020F40E94B2
:10113000CD180E943605DD2089F00E94830D80FDC8
:101140000DC0F70112820E947D0D0E948909C7011E
:101150000E94CB080E947D0D0E949509CDB7DEB795
:10116000E8E00C94A5220F931F93CF93DF93EC013B
:10117000688179818A810E94720A8C010E94C0096B
:101180000E944E09B801CE010E94CC06DF91CF919A
:101190001F910F910895CF93DF93EC01988189817E
:1011A0002B813C81232B31F08F3F31F481E09F3F35
:1011B00019F403C081E001C080E080FD1AC0CE01B7
:1011C0000E94FE0381110FC00E94870D882389F0C1
:1011D0008A81882371F08091970282FF0AC082E0A1
:1011E0000E94340E06C0CE010E94B308CE010E94B8
:1011F000AB03DF91CF91089580E090E00E94F41856
:1012000080E090E00E940A190E94AE0D0E94D20D6B
:10121000089580910001909101010E94D2190E94CD
:10122000FC0808950E949E0D0E9409090895929558
:101230009F70963079F010F4925001C09A5092301D
:1012400068F4803F69F018F4883E40F409C0843F98
:1012500029F406C0883E20F0813F11F080E0089517
:1012600081E00895FC01808191810E94670A0E94BB
:1012700017090895A5E0B0E0E0E4F9E00C948F22AE
:101280002596E2E00C94AB22A6E0B0E0EAE4F9E0B7
:101290000C948F222696E2E00C94AB2208950895D8
:1012A0000E944F0908950E94500908950E94530911
:1012B0008093C4010E94FC0808950E945609089575
:1012C0009091C401892B0E94560908959091C40100
:1012D00089230E94560908959091C40189270E948C
:1012E000560908950E944F0908950E94720980933B
:1012F000C3010E94FC08089580E00E9475090895CA
:1013000091E001C0990F8A95EAF7892F0E9475092B
:10131000089521E030E001C0220F8A95EAF780911C
:10132000C301822B0E947509089521E030E001C0BD
:10133000220F8A95EAF720958091C30182230E94AB
:101340007509089521E030E001C0220F8A95EAF77F
:101350008091C30182270E94750908959091C3016D
:10136000892B0E94750908959091C30189230E94D9
:10137000750908959091C30189270E947509089500
:101380000895962F9770A1E001C0AA0F9A95EAF7E9
:1013900093E0769567959A95E1F7FB01EE0FFF1FB5
:1013A0006E0F7F1FFA01E60FF71F40E050E0682F35
:1013B00070E090819B01042E02C0369527950A9417
:1013C000E2F72170219529272A23292721934F5FAE
:1013D0005F4F4330510569F708959B01782F77706F
:1013E00043E0969587954A95E1F7FC01EE0FFF1FC4
:1013F0008E0F9F1FF901E80FF91F40E050E080E0D9
:10140000219130E0072E02C0369527950A94E2F725
:1014100021703327042E01C0220F0A94EAF7822B91
:101420004F5F5F4F4330510559F70895282F96308D
:1014300070F4813160F4862F622F70E021E1929F79
:10144000600D711D11244CE951E00E94C1090895FD
:10145000963070F4813160F4292F90E06CE971E0EE
:1014600031E1239F800D911D11240E94ED09089503
:1014700080E00895CF92DF92FF920F931F93CF9356
:10148000DF936C010091C3018091C401082BC7E078
:10149000D0E010E0C8010C2E02C0959587950A9403
:1014A000E2F780FD04C02197A8F7F12C07C0FC2EBD
:1014B000B6018C2F0E9423110197A9F38F2DDF9184
:1014C000CF911F910F91FF90DF90CF900895CF9310
:1014D000DF93EC010E943A0ABE010E942311DF91C2
:1014E000CF9108951F93CF93DF93EB0190919B01D0
:1014F000992321F0CB010E94670A13C0882349F089
:10150000CB010E943A0A182F682FCE010E94160ABA
:1015100004C0CB010E94280A182FBE01812F0E940F
:101520002311DF91CF911F9108951F93CF93DF93E4
:10153000C091C50116E08091C601C81799F0D0E0AE
:101540001C9FF0011D9FF00D1124E953FE4F4081B7
:10155000518162817381848195810E944409219621
:10156000C770E9CFDF91CF911F9108954091F701A6
:101570005091F8016091F9017091FA018091FB019D
:101580009091FC010E94440908950F931F93CF93FB
:10159000DF938091FC0182958F7009F05AC0809191
:1015A000F901882309F455C08091C5011091C60145
:1015B0006091F7017091F801C091FA01D091FB019F
:1015C00091E06F3F09F090E0292F06E0811709F4C0
:1015D00040C0209721F07F3F21F030E003C031E090
:1015E00001C0322F90E030FD31C0089FF001099F0B
:1015F000F00D1124DF01A953BE4F11963C911197B4
:10160000371324C03C91361321C012963C91129797
:1016100031111CC013964D915C9114974C1B5D0BBE
:10162000483C510598F48091FC018F708061809353
:10163000FC01E453FE4F80818F708061808387EFCF
:1016400091E00E94CB080E94950A03C00196877022
:10165000BDCFDF91CF911F910F910895A1E1B0E02F
:10166000E4E3FBE00C9486228C0185E0F801DE01C6
:101670001D9601900D928A95E1F7F801E280909114
:10168000F7016091F8012091FA013091FB012115D9
:10169000310531F06F3F31F481E09F3F19F403C011
:1016A00081E001C080E0F82FF1709F2E80FD40C1E5
:1016B000F80140815181A380B48087EFC82E81E07A
:1016C000D82EF090F901F501E21BF30BFF2009F48D
:1016D000DAC08091FC01E83CF10508F096C0282FA3
:1016E000207F09F053C0561313C0491311C0FE2CBC
:1016F000E1100EC08F7080618093FC010E94B60AD9
:10170000C6010E94CB088091FC01F80185834DC180
:10171000A114B10431F05F3F31F481E04F3F19F47F
:1017200003C081E001C080E080FD03C081E08E2520
:1017300002C080E090E0F82FF170FF2E80FF1CC007
:101740008091C5012091C60136E0821709F40BC1D2
:1017500090E0389FF001399FF00D1124E953FE4FBE
:101760006181561306C06081461303C06281E61290
:1017700003C001968770E9CFFE2CEE2009F415C155
:101780008091FC0181608093FC0154C0561306C017
:10179000491304C0E11002C0F80199C0C8010E94B9
:1017A0003209882361F1EE2051F12091FC01822F52
:1017B00082958F7090E0029774F08091F70190917C
:1017C000F80198878F831986BB86AA862C87CE015D
:1017D00007960E94CB0886E0F801A7EFB1E00190E0
:1017E0000D928A95E1F70E94C50A0E94B60A0AC0C6
:1017F000561711F1C8010E94320981112CC0C8018D
:101800000E94CB08FF24F394D0C0282F207F81F7BB
:101810007A2DB98AA88A6E2D89890E943A0987EFA4
:1018200091E00E94CB0886E0F60111928A95E9F7D3
:101830000E94B60AF12CB9C04913DCCFE110DACF0F
:10184000F8018583C8010E94CB0886E0F601119259
:101850008A95E9F7AAC0EE2091F22091FC01822F2F
:1018600082958F7090E002970CF4B5CF8091F701CC
:101870009091F8019A8389831B82BD82AC822E836A
:10188000CE010196A6CFE83CF10508F044C0FE2C3D
:10189000EE2009F4B4CF561330C049132EC0209166
:1018A000FC0120FD21C0822F82958F70482F50E0CF
:1018B00041155105C9F0F80125834F30510541F01C
:1018C0008F5F982F9295907F822F8F70892B8583C1
:1018D000C8010E94CB0886E0F801A7EFB1E00190B3
:1018E0000D928A95E1F73CC086E0F801A7EFB1E0E0
:1018F00001900D928A95E1F758C0C8010E94320903
:10190000811169CF8091FC0181608093FC01C80145
:101910000E94CB084AC07A2DB98AA88A6E2D89897F
:101920000E943A0986E0F60111928A95E9F718C0FB
:10193000EE2009F464CFC8010E943209F82E8823F2
:1019400009F45DCF86E0F801A7EFB1E001900D92B8
:101950008A95E1F787EF91E00E9494050E94C50AFD
:101960000E94B60A22C04D875E878D859E850E94A3
:10197000670A292F22952F70223028F49F7039F0A2
:10198000811105C00BC0243028F49F7049F4805E9B
:10199000883020F0C8010E94CB089F2CF92C05C08C
:1019A000F8019581907F99F7F9CF8F2D6196EBE043
:1019B0000C94A222ACE0B0E0E0EEFCE00C948E22AD
:1019C0004F83588769877A878B879C87CE010796D4
:1019D0000E942E0B8823D1F09F8188852A853B8524
:1019E000232B31F08F3F31F481E09F3F19F403C086
:1019F00081E001C080E080FD47C04F815885698546
:101A00007A858B859C850E9444093EC086E0FE0154
:101A10003796DE01119601900D928A95E1F7FF81CC
:101A2000E8856A857B856115710531F0EF3F31F4FA
:101A300081E0FF3F19F403C081E001C080E080FD38
:101A400023C02091C60130E0C90101968770992713
:101A50004091C50150E084179507F1F1F983EA83BD
:101A60007D836C8396E0929FD001939FB00D1124EB
:101A7000A953BE4FFE01319601900D929A95E1F760
:101A80008093C6010E94950A16E08091C50190914D
:101A9000C601891771F1189FC001112489539E4F07
:101AA0000E942E0B882329F1E091C5011E9FF001B1
:101AB0001124E953FE4F40815181628173818481F9
:101AC00095810E9444098091C50190E0019687703C
:101AD00099278093C501D9CF0E9412091092C6019F
:101AE0001092C501E7EFF1E086E0DF011D928A95D3
:101AF000E9F72C96E3E00C94AA2280911D028595CB
:101B000085958595089580911D028770089590911F
:101B10001D02977081E009F480E0089580914002F1
:101B2000089590914002892B8093400208958095FA
:101B300090914002892380934002089510924002C0
:101B4000089590913F02892B80933F0208958095DC
:101B500090913F02892380933F02089510923F02A3
:101B6000089580911E02089508950E94B40D08956D
:101B70000E94B50D08959091970292FF08C0909130
:101B80001E02981721F080931E020E94B80D08953E
:101B900080911E02882329F010921E0280E00E948C
:101BA000B80D0895CF93DF93E0910001F09101010A
:101BB000809140028083E0910001F09101019081C9
:101BC00080913F02892B808380911E02882381F0BF
:101BD000E0910001F09101019081892B8083809137
:101BE0000001909101010E94201981110E94C80DED
:101BF000C0910001D091010140E250E06DEF71E031
:101C0000CE010E94B622892B59F080E2FE01ADEF91
:101C1000B1E001900D928A95E1F7CE010E94DA18A9
:101C2000DF91CF9108950E94B40D0895909197028D
:101C300092FF11C098E0899F90011124262B2093D8
:101C40001D020E94890980911D02859585958595C3
:101C50000E94130E08950E948909089510921D0292
:101C600080E00E94130E089520911D02809582232A
:101C700080931D02982F977099F430E0482F082E1A
:101C8000000C550B2417350759F09091970292FFDD
:101C900007C08595859585950E9495090E942E0E11
:101CA00008959091970292FB222720F9281769F056
:101CB00080FB92F9909397028091960290919702FF
:101CC0000E94A60E82E00E94340E08958091970231
:101CD00082FB882780F991E089270E94510E0895A0
:101CE00081E00E94510E089580E00E94510E0895F7
:101CF0006FEF7FEF80E090E00E94EF22089580E098
:101D000090E00E94CB22883E9E4F19F40E94C4139B
:101D1000089580E0089582E090E00E94C322089533
:101D200083E090E00E94C3220895CF9384E090E086
:101D30000E94C322C82F82E290E00E94C3222C2F6F
:101D400030E0A901582BCA01CF910895CF93C92F34
:101D5000682F84E090E00E94D1226C2F82E290E014
:101D60000E94D122CF910895AB01BC018FE090E099
:101D70000E94E3220895AB01BC0183E190E00E9440
:101D8000E322089560E070E0CB010E94BB0E08954D
:101D900060E070E0CB010E94B40E0E94C20E089574
:101DA00068EE7EEF80E090E00E94EF2260E082E04B
:101DB00090E00E94D12260E083E090E00E94D12276
:101DC0001092C40160E084E090E00E94D12264E0BF
:101DD00082E290E00E94D12260E085E090E00E94E3
:101DE000D12260E086E090E00E94D1226FEF87E090
:101DF00090E00E94D12240E050E0BA0188E090E0FB
:101E00000E94E32260E08DE090E00E94D12240E059
:101E100050E0BA0188E190E00E94E32260E087E1AF
:101E200090E00E94D12240E050E0BA018CE190E0C5
:101E30000E94E32260E070E080E290E00E94EF22E6
:101E400040E050E0BA0188E190E00E94E32280E0A7
:101E50000E94DD130E9412140E94C80E08950E9471
:101E6000D00E0895682F8EE090E00E94D122089550
:101E70000E94A01A60935D0270935E0280935F02DD
:101E8000909360026093590270935A0280935B02B0
:101E900090935C02089581E008950E944B0F08958D
:101EA00008950E94500F08950E94500F08950E94B7
:101EB000540F08950E94500F08950E945A0F0895DC
:101EC0000E94500F08958FEF91E10E94C3180E9465
:101ED000600F0E945D0F08950E94510F0E94500FE5
:101EE00008950E941B120E94350508950E948B1AC6
:101EF0000E9422140E941B130E94710F0E94570F10
:101F00000895ADE0B0E0E7E8FFE00C947F220E9486
:101F10003113282E81110E94380F81E492E09D87B1
:101F20008C8700E010E0302E802F0E9436122B01AB
:101F30003C01EC85FD8581919191A191B191FD8745
:101F4000EC875301420188269926AA26BB268114D4
:101F50009104A104B104B1F40F5F1F4F06301105C5
:101F600011F78FEF89838A831B820E94941A816004
:101F7000782F9D838C8349815A816B818D810E944A
:101F8000530552C08091610281FD0E9442121B865E
:101F9000C12CD12C7601C394D501C4018C219D2183
:101FA000AE21BF21892B8A2B8B2B99F10E944D0FDB
:101FB0008823D9F0FB85FE833F824C205D206E2074
:101FC0007F2081E0411451046104710409F480E030
:101FD00088870E94941A8160782F9A8789874E811A
:101FE0005F8168858A850E945305000F111F000FCD
:101FF000111FF801EF5BFD4F80819181A281B381B8
:10200000C826D926EA26FB26C082D182E282F38244
:102010000BC08B858F5F8B87CC0CDD1CEE1CFF1CEF
:10202000813109F0B9CF98CF81E0211001C080E063
:102030002D96E2E10C949B220E94810F0E9448059C
:102040000895CF93DF930E942811EC01811522E5BA
:102050009207E8F5811531E5930708F0B6C0883E90
:10206000910528F5803E910508F0E9C0883A910570
:1020700070F4853A910508F07AC08130910509F431
:1020800073C008F4D9C0049708F0D9C0D5C08F3BFD
:10209000910508F0D1C0C85AD0E0CC0FDD1FC05C5C
:1020A000DE4F0990D881C02DCE019464C9C081153E
:1020B00040E5940708F069C0811550E4950708F0E1
:1020C00060C09A9581159F4108F4B9C0B5C08115CB
:1020D00036E5930728F5811545E5940708F092C089
:1020E000811554E5950708F087C0AC01437055276A
:1020F000282F26952695C115D34508F06CC081E0A0
:1021000090E002C0880F991F4A95E2F740E2249FB1
:1021100090011124EC01C22BD32BCE019C6890C0FE
:1021200081152AE5920780F4811539E5930708F0B7
:1021300072C0811548E5940708F47EC0D82FCC27DB
:10214000CE01806F906A7CC090568115904208F055
:1021500073C08D2F8F710E94BC11DD27D0628F71EB
:10216000AE01582BCA016CC081E090E069C0C55A2D
:10217000D0E0C259DE4F8881C82FD0E0CE019064F4
:102180005FC0DF70CE01906A5BC074E09695879562
:102190007A95E1F7282F23703C2F337081E090E08F
:1021A00002C0880F991F3A95E2F79C68AC01522B48
:1021B0009A019C2F9F709695969550E2959FE0010D
:1021C0001124C9018C2B9D2B3BC0D82FCC27CE01CD
:1021D000816F906A35C081E090E002C0880F991F3E
:1021E0004A95E2F750E2259F90011124EC01C22BA1
:1021F000D32BCE019A6824C0D82FCC27CE01846F70
:10220000906A1EC00E94BC118F7190E0D82FCC271D
:10221000CE01906215C08F700E94BC1194E0D695DB
:10222000C7959A95E1F7CF70D0E0DC2FCC27D06925
:102230009E01282BC90104C080E090E001C0CE01BE
:10224000DF91CF9108950E9427170E9421100895D1
:102250008238910569F1B0F48133910509F46DC0BC
:1022600048F48932910509F463C08A32910509F472
:1022700069C008958533910509F455C089339105E6
:10228000B9F00895833E910569F138F4803E9105D7
:10229000B1F0823E910509F10895863E9105A9F1BC
:1022A000873E9105B9F1843E910509F064C023C0D1
:1022B0002091960220FD4FC021FD4DC008958091D0
:1022C000960280FD44C08091970280FF44C08091B7
:1022D000960284FD42C083EE4DC08091960282FF3B
:1022E00038C0F5CF8091960282FD33C0809197026D
:1022F00080FD31C0ECCF8091970281FF32C0809188
:10230000960284FD2AC087EE35C08091960283FF35
:1023100026C0F5CF8091960283FD21C0809197025F
:1023200081FD1FC0ECCF8091960285FD1CC01DC0B1
:102330008091960285FD19C016C08091960286FD97
:1023400016C017C08091960286FD13C010C089E3A5
:1023500011C082EE0FC080EE0DC080E00BC086EE93
:1023600009C084EE07C089E205C085E303C08AE2A4
:1023700001C081E390E008959091960292FF0DC014
:10238000282F2871283019F4877F846006C0282FF1
:102390002471243011F48B7F886093FF0DC0282FA7
:1023A0002871283119F4877E846106C0282F247192
:1023B000243111F48B7E88612091970220FF0DC09B
:1023C000382F3871383019F4877F816006C0382F74
:1023D0003171313011F48E7F886021FF0DC0282FBC
:1023E0002871283119F4877E816106C0282F217158
:1023F000213111F48E7E886194FD877E089580E0FE
:1024000008950E94780E08950E9431138FE39CE98D
:102410000197F1F700C000000E94311380E00E9494
:10242000361260FF04C00E9401120E94E11A089552
:102430000E94041208950E947F0E811102C00E9422
:102440002F0F0E948B0E809361020E94950E909335
:102450009702809396020E9418120E94900E0E948A
:102460005D098091C3010E947209089524E0829F52
:10247000C0011124FC01E055FD4F60817181828112
:1024800093810895089580EA8A95F1F7089500C030
:1024900008950E944312089508950E944C120895D1
:1024A0000E944D1208950E944C1208950E945312EA
:1024B0000895F894E82FE295EF70F0E031A1282F0D
:1024C0002F7081E090E001C0880F2A95EAF7982FDD
:1024D0009095932391A392A1892B82A37894089538
:1024E0000F931F93CF93DF93C2E8D1E089918F3F81
:1024F00011F00E94591281E0C838D807B9F7C1E736
:10250000D1E002E811E089918F3F11F00E94591249
:102510000C171D07C1F7DF91CF911F910F910895FF
:102520004F925F926F927F928F929F92AF92BF92E3
:10253000DF92EF92FF920F931F93CF93DF938C0163
:10254000C62FD0E0CE018E579E4F7C01FC019081BA
:102550009F3F09F460C0D62EF894E92FE295EF7002
:10256000F0E081A19F7021E030E001C0220F9A9538
:10257000EAF7822B81A382A12095282322A37894B5
:102580000E944712E1E7F1E022E831E0412C512CB2
:1025900032014394812C912C540181918F3F99F009
:1025A000A82FA295AF70B0E090964C9150E08F703C
:1025B000BA0102C0759567958A95E2F760FD03C080
:1025C000D301C20103C080E090E0DC01882A992A8F
:1025D000AA2ABB2A440C551C661C771C2E173F07E1
:1025E000E1F6F70180818F3F11F00E94591261E0FE
:1025F00081149104A104B10409F460E08D2D0E94BE
:102600004912CC0FDD1FCC0FDD1FC00FD11F8882F8
:102610009982AA82BB82DF91CF911F910F91FF9087
:10262000EF90DF90BF90AF909F908F907F906F90D2
:102630005F904F9008950E94701288E1E0EBF2E005
:10264000DF01982F1D929A95E9F7E8E9F2E0DF01A2
:102650001D928A95E9F786E00E946D130E94DF03C0
:102660000895A8E1B0E0E7E3F3E10C948C228E0139
:102670000F5F1F4F88E1F80111928A95E9F7F12C5D
:102680006F2DC8010E949012F394F6E0FF12F8CF6C
:1026900048E150E0B80188E992E00E94B622FF24A8
:1026A000F394009709F4F12C892B41F088E1F801AB
:1026B000A8E9B2E001900D928A95E1F72F2D46E04E
:1026C00060EB72E088E992E00E946E130E94E203E0
:1026D0008F2D6896E5E00C94A8220895FF920F9341
:1026E0001F93CF93DF93F82ED92F8B01C42F222372
:1026F00049F081E0809364020E94941A90936302EF
:1027000080936202809164028823F1F080916202DA
:10271000909163020E94AC1A0597B0F0EF2DFD2F47
:10272000D80180E090E04C2F50E08417950754F4D6
:1027300001911191219131910D931D932D933D9311
:102740000196F3CF10926402CDB7DEB7E5E00C94AA
:10275000A8220E94D41C0E94760F0E94E11C0895BA
:102760000E94E61C0E941C100E94001D08950E94F9
:102770002B1A0E94BA1C0E94630F0E94A9130E9488
:10278000B0130E946C0FFBCF83E290E00E94C32243
:10279000823281F484E290E00E94C322873051F4B7
:1027A00085E290E00E94C32291E0843109F090E03C
:1027B000892F01C080E081700895CF93C82F8111C7
:1027C00002C06FEF01C062E283E290E00E94D1227A
:1027D000C11102C06FEF01C067E084E290E00E9487
:1027E000D122C11102C06FEF01C064E185E290E027
:1027F0000E94D122CF910895089586E290E00E9430
:10280000C322682F70E080E090E008950895CF9390
:10281000C62F0E9406146C2F86E290E00E94D122FF
:10282000CF91089580E00E94DD1360E070E0CB015D
:102830000E9407140E94B0160E947C1781E00E943B
:10284000DD1308950E94FC130E94FD130E940614DC
:102850000E94C413811102C00E9412140895CF93E4
:10286000FB01C281CC23E9F09C0122513F4520317C
:10287000310520F482510E948C170CC08031FFE595
:102880009F0751F481E00E94890943E062E081E002
:102890000E94D503C0E018C081319F45A9F482E0B1
:1028A000F2CF8031EFE59E0711F481E004C0813161
:1028B0009F4549F482E00E94950943E062E081E08F
:1028C0000E94D50301C0C1E08C2FCF9108952FEF56
:1028D000FC0120830895EF92FF920F931F93CF93F3
:1028E000DF93EC01E62EE8818E2F90E0FC0131971A
:1028F000E331F10508F092C0EE59FF4F0C947222BB
:10290000198289E04EC08981823039F0833061F0CC
:10291000813031F50E94A01A02C00E94FD139A83F3
:102920008B837C836D837CC08E01F12C8F2D0E9464
:102930003612F801828373836483F3940D5F1F4F13
:10294000F6E0FF12F3CF6CC08981823049F46A81CE
:102950007B818C819D810E9478220E94071460C037
:102960006E2DCE010E9467145BC04B816A81898104
:102970000E9474169C838D8353C02C813D81322725
:10298000232732274B816A8189810E94951648C08E
:102990000E94B01645C00E94351724C00E94371708
:1029A00099838A833DC06B8170E089819A81AE01F1
:1029B0004C5F5F4F9827892798270E943A1730C0AD
:1029C0006B8170E089819A81AE014C5F5F4F9827DF
:1029D000892798270E945C1723C00E947C1720C07B
:1029E0000E94611689831CC06B8170E089819A8185
:1029F000AE014C5F5F4F9827892798270E94E51604
:102A00000FC06B8170E089819A81AE014C5F5F4F8E
:102A10009827892798270E94071702C08FEF88837D
:102A20006E2DCE010E948A1BCDB7DEB7E6E00C9476
:102A3000A722CF93DF93EC01FB018281882309F465
:102A40003CC1C330FDE5DF0760F4CA3F9CE5D90710
:102A500088F49E0122503C452431310508F02EC1F6
:102A600009C0C136EDE5DE0729F0C53AFDE5DF070F
:102A700009F024C10E94950E9093970280939602CC
:102A8000C1318CE5D80709F4C6C008F042C0C9308E
:102A9000ECE5DE0709F49BC000F5C5308CE5D807EE
:102AA00009F485C078F4C330ECE5DE0709F478C09A
:102AB00008F07AC0C230DC4509F0F5C0809196027A
:102AC0008160EFC0C7309CE5D90709F478C008F0F1
:102AD0007AC0809196028061E4C0CD30FCE5DF07CA
:102AE00009F487C058F4CB309CE5D90709F479C0C4
:102AF00008F07BC08091960288606FC0CF30FCE503
:102B0000DF0709F480C008F082C080919602877FB9
:102B1000C8C0CD3F9CE5D90709F471C000F5C531A7
:102B2000FCE5DF0709F485C068F4C3319CE5D907EB
:102B300009F475C008F095C00E94120980919602B0
:102B40008F77AFC0CB3FFCE5DF07A9F108F054C099
:102B5000CA3FDC4509F0A7C08091970240C0C13050
:102B6000EDE5DE0709F489C058F4CF3F8CE5D807BE
:102B700009F45AC008F069C08091970282602FC0A2
:102B8000C136EDE5DE0709F47CC0C53AFDE5DF0797
:102B900009F481C0C230DD4509F085C080E06EC017
:102BA0008091960282607DC08091960216C08091CD
:102BB0009602886076C08091970282604FC08091B3
:102BC000960280626EC08091960280646AC00E9404
:102BD000120980919602806864C0846062C081603E
:102BE0003DC0809196028E7F5CC0809196028D7F61
:102BF00058C08091960216C08091970218C08091AB
:102C000097028D7F2BC0809196028F7E4AC0809163
:102C100096028F7D46C0809196028F7B42C0809144
:102C20009602877F8B7F3DC0809197028D7F8E7F3C
:102C300015C08091960282FB222720F991E092270D
:102C400090FB82F990FB83F92CC080919702982F1A
:102C5000909591708E7F892B90FB81F980939702DC
:102C600022C00E9412098091960287FB222720F938
:102C700091E0922790FB87F914C081E00E94320F07
:102C800012C08091960284FB222720F991E09227BE
:102C900090FB84F906C080919602982F909590FB46
:102CA00080F98093960280919602909197020E94FB
:102CB000A60E0E94120980E001C081E0DF91CF9151
:102CC000089584E0089550E0440F551F22E2629F6A
:102CD000400D511D11249A016CEC869F200D311D71
:102CE0001124C901879608950F931F93CF93DF9303
:102CF0008430A0F4663090F4413180F40E94631671
:102D00008C010E94C32290E0D82FCC27C8010196E5
:102D10000E94C3229E01282BC90102C080E090E0DE
:102D2000DF91CF911F910F9108950F931F93CF9330
:102D3000DF93843080F4663070F4413160F4E9014F
:102D40000E9463168C016D2F0E94D1226C2FC80146
:102D500001960E94D122DF91CF911F910F9108958A
:102D6000A0E0B0E0E6EBF6E10C948722A12CE12C88
:102D7000F12CB12C00E010E0C0E0D0E06701C00E03
:102D8000D11EFE01EE0FFF1FEC0DFD1DE250FF4FA7
:102D9000259134914C2F6B2D8A2D0E9495162196EA
:102DA000C131D10571F70E5D1F4FB39486E0B812A3
:102DB000E3CF8CECE80EF11CA39484E0A812D9CFE9
:102DC000CDB7DEB7EAE00C94A322EF92FF920F9307
:102DD0001F93CF93DF93EA017A01E60EF71E8C0171
:102DE000C8018796CE15DF0569F0003323E012078E
:102DF00020F40E94C322888301C0188221960F5FAD
:102E00001F4FEECFCDB7DEB7E6E00C94A722EF92CE
:102E1000FF920F931F93CF93DF93EA017A01E60E9F
:102E2000F71E8C01C8018796CE15DF0559F00033D7
:102E300023E0120718F468810E94D12221960F5FC7
:102E40001F4FF0CFCDB7DEB7E6E00C94A722843059
:102E500048F4763038F4613128F4462F672F0E9409
:102E60007416089580E090E0089580E1089589EA5D
:102E700090E00895EF92FF920F931F93CF93DF930B
:102E8000EA017A01E60EF71E8C01C801895A9C4FAF
:102E9000CE15DF0561F0093A110520F40E94C32226
:102EA000888301C0188221960F5F1F4FEECFCDB7E8
:102EB000DEB7E6E00C94A722EF92FF920F931F93E8
:102EC000CF93DF93EA017A01E60EF71E8C01C80169
:102ED000895A9C4FCE15DF0551F0093A110518F4B7
:102EE00068810E94D12221960F5F1F4FF0CFCDB78E
:102EF000DEB7E6E00C94A722CF93DF93C7E5D3E0DB
:102F000060E0CE010E94D1222196C11584E0D8074D
:102F1000B9F7DF91CF910895A4E0B0E0E2E9F7E1DD
:102F20000C948A22F82E8FE08F15E8F18FEF93E052
:102F30000E94C322811137C007E513E0FF2069F02A
:102F4000011584E0180779F1C8010E94C32281119C
:102F500001C0FA940F5F1F4FF1CF19821A821B82B2
:102F60001C82DD24D39478018FEFE81AF80AC80197
:102F70000E94C32289831A828823A9F09FEF980FA9
:102F8000933058F48A83D9820E5F1F4FC7010E9485
:102F9000C3228B83882339F07801CE0101960E94E9
:102FA00028058701E0CF2496E7E00C94A622CF9372
:102FB000DF9386319C4541F5EB010E948E0D982FE1
:102FC0008A812091000130910101882379F09A7A59
:102FD00081E009F480E080936502911102C069E20A
:102FE00001C065E3C9010E94B6190AC0809165025B
:102FF000811102C069E201C065E3C9010E94C419E0
:103000000E94D20D80E001C081E0DF91CF91089550
:103010000F931F93CF93DF93C42FD22FFC01828194
:103020008823B1F0409368020E94941A909367023B
:103030008093660280E28C0F883008F04DC0C77024
:1030400081E001C0880FCA95EAF70E94BE0644C01D
:1030500080916802481330C08091660290916702A7
:103060000E94AC1A883C910538F510E21D0FCD176F
:10307000B9F080E28C0F883040F4C77081E001C065
:10308000880FCA95EAF70E94C506183010F581E04E
:103090009D2F977001C0880F9A95EAF70E94BE068F
:1030A000802F0E94B4061830B8F4D77081E001C0B8
:1030B000880FDA95EAF70AC080E28C0F883060F456
:1030C000C77081E001C0880FCA95EAF70E94C50663
:1030D00003C0802F0E94B406DF91CF911F910F9102
:1030E00008950F939C01CB01233F4CE5340731F148
:1030F00088F4283DFCE53F07D9F0293D4CE534072D
:1031000079F1273D3C45A9F506E221EE41EE67ED58
:103110007CE52BC0253FFCE53F07E1F0A8F0263F0A
:103120003C4539F507E225EE46EE66EF7CE51DC02D
:1031300007E225EE45EE68ED7CE517C006E221EEDC
:1031400040EE63EF7CE511C007E225EE44EE64EF4C
:103150007CE50BC006E221EE42EE65EF7CE505C0A2
:1031600008E221E045EE69ED7CE50E94081880E068
:1031700008C0FC018281882319F01092680201C006
:1031800081E00F910895909399018093980108959B
:1031900090936E0280936D020895E0916D02F0911C
:1031A0006E02309729F00190F081E02D0995089585
:1031B00080E00895FC01A0916D02B0916E0210971D
:1031C00091F080910E01882341F08091960287FF53
:1031D00004C08081818386E08083CF011296ED91C7
:1031E000FC9113970995089520916B0230916C0220
:1031F0002817390771F090936C0280936B02E0916D
:103200006D02F0916E02309721F00680F781E02D7B
:10321000099508952091690230916A0228173907AB
:1032200071F090936A0280936902E0916D02F091CF
:103230006E02309721F00084F185E02D0995089504
:10324000FC01329680910E01882331F08091960224
:1032500087FF02C09EE101C096E080E0915028F017
:1032600021912223D9F38F5FF9CF0895662351F17D
:1032700020910E012223E9F02091960227FF19C028
:10328000462F4695469546954E31E0F4677021E00D
:1032900030E002C0220F331F6A95E2F7FC01E40F11
:1032A000F11D828190E02823392381E0232B69F4EA
:1032B00009C0FC01329608962191621729F0E8179F
:1032C000F907D1F780E0089581E008959C01FC01A1
:1032D00032969FEF80E04191461789F09F3F19F4A5
:1032E000411101C0982F8F5F8630A9F79F3F39F0B9
:1032F000F901E90FF11D97FDFA956283089508958C
:103300009C012A5F3F4FFC014281461301C012829B
:10331000019682179307B9F70895262F26952695CB
:1033200026952E3168F4FC01E20FF11D677021E053
:1033300030E001C0220F6A95EAF78281282B2283B0
:103340000895262F2695269526952E3170F4FC019A
:10335000E20FF11D677021E030E001C0220F6A9595
:10336000EAF72095828128232283089520910E0177
:10337000222339F02091960227FF03C00E948D1965
:1033800008950E946619089520910E01222339F0B4
:103390002091960227FF03C00E94A11908950E9460
:1033A0008019089520910E01FC013296222331F0FC
:1033B0008091960287FF02C08EE101C086E0DF01A6
:1033C0001D928A95E9F7089508950E94E4190895D9
:1033D00083E080936F020E94E5190895811102C075
:1033E00081E001C082E080936F020E94E519089598
:1033F0000E94EE19089581E080936F020E94E51902
:1034000008950E94FB19089508950E94041A0895D2
:103410000E94051A08950E94041A08950E94041A31
:1034200008950E94041A0895CF930E940E1A0E94D4
:1034300031130E940B1AC0E08C2F0E943612672BAA
:10344000682B692B29F4CF5FC630B1F780E001C04B
:1034500081E0CF91089585B7806885BF85B7806882
:1034600085BF08951F920F920FB60F9211248F936C
:103470009F93AF93BF9380917002811113C080918D
:10348000C8029091C902A091CA02B091CB024196A4
:10349000A11DB11D8093C8029093C902A093CA02D6
:1034A000B093CB02BF91AF919F918F910F900FBEC0
:1034B0000F901F9018958091D002843031F10E94B6
:1034C0005A041092700220E488E190E00FB6F8945C
:1034D000A895809360000FBE2093600083B7817F22
:1034E000846083BF83B7816083BF7894889583B7F6
:1034F0008E7F83BF0FB6F894A89580916000886195
:1035000080936000109260000FBE08950E9412091F
:103510000E945F04089582E084BD93E095BD9AEF18
:1035200097BD80936E0008952FB7F8948091C802DC
:103530009091C902A091CA02B091CB022FBF089509
:103540002FB7F8946091C8027091C9028091CA02A5
:103550009091CB022FBF08959C014FB7F8948091B2
:10356000C8029091C902A091CA02B091CB024FBF8C
:10357000821B930B089578941F920F920FB60F92AF
:1035800011248F939F93AF93BF938091C802909122
:10359000C902A091CA02B091CB020196A11DB11D32
:1035A0008093C8029093C902A093CA02B093CB0241
:1035B000BF91AF919F918F910F900FBE0F901F9071
:1035C000189581E08093E00080E28093D80010920B
:1035D000C9008FE19EE40197F1F700C0000087E089
:1035E00090EBDC018093D9029093DA02A093DB0286
:1035F000B093DC029CE088E10FB6F894A895809324
:1036000060000FBE90936000FFCF9CE088E10FB692
:10361000F894A895809360000FBE90936000FFCF50
:103620008091940208950895CF93DF9320910E0125
:10363000222339F02091960227FF03C060E224E0A4
:1036400002C068E021E02093E9002FEF3091E8000C
:10365000215035FD06C035ED3A95F1F700002111F6
:10366000F5CF2091E80025FF1DC0EC0180910E01EF
:10367000811105C040E050E068E070E003C070E0F8
:1036800040E050E0CE010E949F1D8091E8008E77BF
:103690008093E80080E2FE01A4E7B2E001900D9281
:1036A0008A95E1F7DF91CF9108958093710270932D
:1036B0007302609372028091D0028430F9F4809397
:1036C000E9008FEF9091E800815095FD06C095EDDF
:1036D0009A95F1F700008111F5CF8091E80085FF00
:1036E0000DC040E050E063E070E081E792E00E94AE
:1036F0009F1D8091E8008E778093E8000895BC01BB
:1037000084E00E94551B0895BC0183E00E94551B74
:1037100008950895CF93603219F52091D002243096
:10372000F9F4C091E900CF703091EC00232F2170A3
:1037300030FD20E8C22B22E02093E9002091E80030
:1037400020FF0BC040E050E060E270E00E949F1D4F
:103750008091E8008E778093E800CF70C093E900F5
:10376000CF9108958091CF02811109C00E946F1FEF
:103770000E94CC1F8091E20084608093E200089553
:103780001092CF0208950E94011A08956091CC0210
:1037900081E0611101C080E00E94E81908959091D4
:1037A000D00281E0943009F080E06091CC020E9468
:1037B000EE19089542E061EC81E00E94E81E42E2C9
:1037C00061EC84E00E94E81E42E261EC82E00E942B
:1037D000E81E42E260EC83E00E94E81E9091D00275
:1037E00081E0943009F080E06091CC020E94F819E9
:1037F00008958091D202833009F463C030F481309F
:1038000071F0823009F49DC008958A3009F489C0AE
:103810008B3009F46EC0893009F0ABC020C08091B4
:10382000D102813A09F0A5C08091E800877F80939A
:10383000E8008091D5029091D602892B21F460E2B4
:1038400084E792E003C060E080E090E070E00E94D6
:10385000291E8091E8008B778093E800089580917D
:10386000D102813209F085C08091D5029091D602B3
:10387000009719F0029709F07CC08091E800877FDB
:103880008093E8008091E80082FD05C08091D0021D
:103890008111F8CF6EC02091F3008091F20090E08A
:1038A000922B029731F48091F100813011F0863033
:1038B00021F48091F100809394028091E8008B774D
:1038C00054C08091D102813A09F053C08091D50251
:1038D0009091D602892B09F04CC08091E800877F37
:1038E0008093E8008091E80080FFFCCF80910E017A
:1038F00037C08091D1028132E1F58091D50290915B
:10390000D602892BB1F58091E800877F8093E8008B
:103910000E941D1F8091D30280930E010E94120904
:1039200008958091D102813221F58091E800877F4E
:103930008093E8000E941D1F8091D402809395021D
:1039400008958091D102813AA1F48091E800877FA7
:103950008093E8008091E80080FFFCCF8091950281
:103960008093F1008091E8008E778093E8000E94B8
:103970001D1F089584B7877F84BF0FB6F894A8955C
:1039800080916000886180936000109260000FBE9B
:1039900090E080E80FB6F894809361009093610006
:1039A0000FBE0E94FB1908950E946F1F0E94CC1F3A
:1039B000E2EEF0E080818460808378940E94572258
:1039C000089582E091E00E94C81808958091D00285
:1039D0008530A9F48091D002853079F40E945B1A79
:1039E0008091CE028823B1F30E94141A882391F3A8
:1039F0000E94891D0E941209EDCF0E94861A089527
:103A0000A0E2B0E0E6E0FDE10C948F228091D002CC
:103A1000843011F583E08093E9008091E80082FF13
:103A20001BC08091E80085FF0AC040E050E060E2E2
:103A300070E0CE0101960E94E41D91E001C090E08B
:103A40008091E8008B778093E800992329F060E269
:103A5000CE0101960E946B14A096E2E00C94AB227A
:103A60000E94331D0895292F332723303105C9F0D3
:103A700060F42130310581F02230310509F041C078
:103A80008BE590E020E235E040C021323105E1F0E5
:103A90002232310531F135C082E190E02BE735E08B
:103AA00034C099278130910549F028F0029749F5F3
:103AB000EEEDF4E005C0ECE1F5E002C0E4E0F5E095
:103AC000849190E09F0121C063307105D0F4660FAE
:103AD000771FFB01EF56FE4F2081318189E090E096
:103AE00014C06330710568F4FB01EE0FFF1FE5574A
:103AF000FE4F20813181FB01E857FE4F808190E02D
:103B000004C080E090E020E030E0FA0131832083BF
:103B1000089580E189BD82E189BD09B400FEFDCF31
:103B20008091D8008F7D8093D8008091E0008260E2
:103B30008093E0008091E00081FDFCCF0895A0E03B
:103B4000B0E0E5EAFDE10C948922EC018B017A01F9
:103B50000E943C1F811133C0E114F10439F0F701D8
:103B600080819181081B190BC80FD91FC12CD12C42
:103B70000115110519F18091E80085FD16C08091AD
:103B8000E8008E778093E800E114F10449F0F70132
:103B900080819181C80ED91ED182C08285E00FC07C
:103BA0000E943C1F882321F30AC089918093F10071
:103BB00001501109FFEFCF1ADF0ADACF80E0CDB74D
:103BC000DEB7E8E00C94A522A0E0B0E0EAEEFDE16B
:103BD0000C948922EC018B017A010E943C1F811117
:103BE00033C0E114F10439F0F70180819181081BA1
:103BF000190BC80FD91FC12CD12C0115110519F1B2
:103C00008091E80085FD16C08091E8008B77809355
:103C1000E800E114F10449F0F70180819181C80EB8
:103C2000D91ED182C08285E00FC00E943C1F88232C
:103C300021F30AC08091F100899301501109FFEF2F
:103C4000CF1ADF0ADACF80E0CDB7DEB7E8E00C9418
:103C5000A5222091D7023091D8022617370748F0C5
:103C60006115710539F42091E8002E772093E80062
:103C700001C0B901FC0120E06115710579F1809165
:103C8000D0028823F1F18530F1F18091E80083FDC5
:103C90003CC08091E80082FD2EC08091E80080FF4A
:103CA000EBCF2091F3008091F20090E0922B611510
:103CB000710551F08830910538F421912093F1007D
:103CC000615071090196F3CF21E0089709F020E0D7
:103CD0008091E8008E778093E800CECF2111CFCF7E
:103CE0000AC08091D002882361F0853061F0809114
:103CF000E80083FD0AC08091E80082FFF2CF80E0F7
:103D0000089582E0089583E0089581E00895209168
:103D1000D7023091D8022617370748F06115710590
:103D200039F42091E8002E772093E80001C0B90112
:103D3000FC0120E06115710591F18091D00288238A
:103D400009F440C0853009F43FC08091E80083FD4C
:103D50003DC08091E80082FD2FC08091E80080FF87
:103D6000E9CF2091F3008091F20090E0922B611551
:103D7000710559F08830910540F424912093F100A9
:103D80003196615071090196F2CF21E0089709F050
:103D900020E08091E8008E778093E800CBCF21115E
:103DA000CCCF0AC08091D002882361F0853061F0C9
:103DB0008091E80083FD0AC08091E80082FFF2CF85
:103DC00080E0089582E0089583E0089581E00895F9
:103DD000982F973068F59093E900981739F0709113
:103DE000EC002091ED005091F00003C0242F762FBD
:103DF00050E021FD02C09F5FECCF3091EB003E7F91
:103E00003093EB003091ED003D7F3093ED00309129
:103E1000EB0031603093EB007093EC002093ED00E9
:103E20005093F0002091EE0027FDE5CF80E008954B
:103E30008F708093E90081E008958091D10287FF1F
:103E400011C08091E80082FD05C08091D0028111EF
:103E5000F8CF11C08091E8008B770BC08091D00221
:103E6000882349F08091E80080FFF8CF8091E80036
:103E70008E778093E80008952091E4003091E5006A
:103E800095E64091EC00842F817040FF23C0809123
:103E9000E80080FD1DC08091D002882399F0853014
:103EA00099F08091EB0085FD11C04091E4005091A4
:103EB000E5002417350729F3915011F09A01E1CF5D
:103EC00084E0089582E0089583E0089581E00895F4
:103ED00080E008954091E80042FFDDCF08950E9400
:103EE000DE1F0E94E61FE0EEF0E0808181608083AB
:103EF000E8EDF0E080818F77808319BCA7EDB0E01A
:103F00008C918E7F8C9380818F7E80831092CF02E4
:103F100008950F931F93CF93DF930E94DE1F0E949B
:103F2000E61FC8EDD0E088818F778883888180681C
:103F3000888388818F7D888319BC1092D00210926B
:103F4000CC021092CE021092CD0200EE10E0F801E9
:103F500080818B7F808388818160888342E060E0FC
:103F600080E00E94E81EE1EEF0E080818E7F808399
:103F7000E2EEF0E0808181608083808188608083D0
:103F8000F80180818E7F8083888180618883DF91C2
:103F9000CF911F910F910895E8EDF0E080818F7E21
:103FA0008083E7EDF0E080818160808384E082BFE0
:103FB00081E08093CF020E94891F0895E8EDF0E030
:103FC00080818E7F80831092E20008951092DA0043
:103FD0001092E10008951F920F920FB60F921124D4
:103FE0002F933F934F935F936F937F938F939F9301
:103FF000AF93BF93EF93FF938091E10082FF0BC0DB
:104000008091E20082FF07C08091E1008B7F809366
:10401000E1000E9456228091DA0080FF1FC080914B
:10402000D80080FF1BC08091DA008E7F8093DA0079
:104030008091D90080FF0DC080E189BD82E189BDFA
:1040400009B400FEFDCF81E08093D0020E94B21B34
:1040500005C019BC1092D0020E94C01B8091E100E3
:1040600080FF19C08091E20080FF15C08091E200BE
:104070008E7F8093E2008091E20080618093E20075
:104080008091D80080628093D80019BC85E080932D
:10409000D0020E94C61B8091E10084FF30C0809155
:1040A000E20084FF2CC080E189BD82E189BD09B4B2
:1040B00000FEFDCF8091D8008F7D8093D800809145
:1040C000E1008F7E8093E1008091E2008F7E8093FB
:1040D000E2008091E20081608093E2008091CC0256
:1040E000882311F084E007C08091E30087FD02C0BF
:1040F00081E001C083E08093D0020E94CF1B8091B9
:10410000E10083FF29C08091E20083FF25C08091F8
:10411000E100877F8093E10082E08093D0021092DB
:10412000CC028091E1008E7F8093E1008091E200DB
:104130008E7F8093E2008091E20080618093E200B4
:1041400042E060E080E00E94E81E8091F00088601C
:104150008093F0000E94C31BFF91EF91BF91AF913C
:104160009F918F917F916F915F914F913F912F918F
:104170000F900FBE0F901F9018951F920F920FB6C1
:104180000F9211242F933F934F935F936F937F93DD
:104190008F939F93AF93BF93CF93DF93EF93FF934F
:1041A000C091E900CF708091EC00D82FD17080FDD4
:1041B000D0E81092E9008091F000877F8093F000B2
:1041C00078940E9401211092E9008091F0008860AB
:1041D0008093F000CD2BCF70C093E900FF91EF9159
:1041E000DF91CF91BF91AF919F918F917F916F910F
:1041F0005F914F913F912F910F900FBE0F901F90A5
:104200001895AAE2B0E0E7E0F1E20C948E22E1ED2D
:10421000F2E08091F100819322E0E93DF207C9F7D5
:104220000E94F91B8091E80083FF2EC18091D1028A
:104230009091D202492F50E04A30510508F024C134
:10424000FA01EB58FF4F0C947222803821F082382B
:1042500009F01AC108C08091CD029091CE02992335
:1042600089F082600FC08091D5028F70873008F08E
:104270000BC18093E9008091EB0085FB882780F9D2
:104280001092E9009091E800977F9093E800809366
:10429000F1001092F100D1C0282F2D7F09F0F4C059
:1042A000882319F0823061F0EFC08091D302813011
:1042B00009F0EAC0933009F080E08093CE022EC06E
:1042C0008091D30281112AC08091D5028F702FEF87
:1042D000280F263008F0D8C08093E9002091EB0029
:1042E00020FF1CC0933021F48091EB00806214C049
:1042F0009091EB0090619093EB0021E030E0A901F8
:1043000002C0440F551F8A95E2F74093EA001092CD
:10431000EA008091EB0088608093EB001092E90046
:104320008091E800877F8093E8000E941D1FACC049
:104330008111AAC01091D3021F778091E300807889
:10434000812B8093E3008091E800877F8093E800D1
:104350000E941D1F8091E80080FFFCCF8091E30048
:1043600080688093E300111102C082E001C083E005
:104370008093D00289C08058823008F085C0809137
:10438000D3029091D4028C3D53E0950779F583E0F8
:104390008A838AE289834FB7F894DE01139620E07E
:1043A0003EE051E2E32FF0E050935700E49120FF0C
:1043B00003C0E295EF703F5FEF708E2F90E0EA3020
:1043C00010F0C79601C0C0968D939D932F5F243146
:1043D00049F74FBF8091E800877F8093E8006AE249
:1043E00070E0CE0101960E94291E16C06091D50290
:1043F0007091D602AE014F5F5F4F0E94301DBC012D
:10440000892B09F441C09091E800977F9093E800D0
:1044100089819A810E94871E8091E8008B77809322
:10442000E80032C0803881F58091E800877F809372
:10443000E8008091CC028093F1008091E8008E77B3
:1044400072CF811121C08091D3029091D40299271B
:104450000297D4F48091E800877F8093E8008091F0
:10446000D3028093CC020E941D1F8091CC02811147
:1044700006C08091E30087FD02C081E001C084E0B6
:104480008093D0020E94DA1B8091E80083FF0AC06B
:104490008091E800877F8093E8008091EB00806244
:1044A0008093EB00AA96E3E00C94AA220895CF93A0
:1044B0008091D0028823A1F0C091E900CF70909143
:1044C000EC00892F817090FD80E8C82B1092E900E4
:1044D0008091E80083FD0E940121CF70C093E90024
:1044E000CF910895EE0FFF1F0590F491E02D0994F0
:1044F00069279627692778278727782708952F9295
:104500003F924F925F926F927F928F929F92AF9263
:10451000BF92CF92DF92EF92FF920F931F93CF93B0
:10452000DF93CDB7DEB7CA1BDB0B0FB6F894DEBF47
:104530000FBECDBF09942A88398848885F846E846D
:104540007D848C849B84AA84B984C884DF80EE80B7
:10455000FD800C811B81AA81B981CE0FD11D0FB6C0
:10456000F894DEBF0FBECDBFED010895FB01DC0165
:1045700004C08D910190801921F441505040C8F73A
:10458000881B990B0895F999FECF92BD81BDF89AC9
:10459000992780B50895A8E1B0E042E050E00C947E
:1045A000F722262FF999FECF92BD81BDF89A019787
:1045B00000B4021639F01FBA20BD0FB6F894FA9A6B
:1045C000F99A0FBE08950396272F0E94D2220E94C7
:1045D000D122252F0E94D222242F0C94D222019680
:1045E000272F0E94D2220C94D122DC01CB01FC01A6
:1045F000F999FECF06C0F2BDE1BDF89A319600B43C
:0E4600000D9241505040B8F70895F894FFCF46
:10460E001F02101B141B891B841B7F1B131B01E233
:10461E0000E900EA00B500B600B700CD008301CC7A
:10462E00008A01920194012102230224022502260E
:10463E000227022A02B300B4006F00700081828349
:10464E00E200E900EA00B500B600B700CD00830134
:10465E00CC008A0192019401210223022402250238
:10466E00260227022A02B300B4006F007000818276
:10467E0083F5953132339392676636353497969437
:10468E003730F1F0C6F4F6F740226D1C068D05AFFB
:08469E000532054B056B050018
:00000001FF
