:100000000C942E030C9466030C9466030C94660304
:100010000C9466030C9466030C9466030C946603BC
:100020000C9466030C9466030C9442240C941425DF
:100030000C94891E0C9466030C9466030C9466035E
:100040000C9466030C9466030C9466030C9466038C
:100050000C9466030C94121F0C9466030C946603B4
:100060000C9466030C9466030C9466030C9466036C
:100070000C9466030C9466030C9466030C9466035C
:100080000C9494050C9466030C9466030C9466031C
:100090000C9466030C9466030C9466030C9466033C
:1000A0000C9466030C9466030C9466035E0B5E0B63
:1000B0008A0B8A0BF20BEC0CEC0CEC0C100C780C91
:1000C000890C890CE018E318041910191819231960
:1000D0002619261926196E196E192B192E1933197E
:1000E00040194D195019541961197C25A3259B26D7
:1000F000A3259B26EF2512269B2669267826290014
:100100003A003B003C003D003E003F004000410003
:1001100042004300440045000000460047004800FC
:1001200035001E001F0020002100220023002400B3
:100130002500260027002D002E002A0049004A0035
:100140004B002B0014001A000800150017001C00BB
:1001500018000C00120013002F00300031004C007A
:100160004D004E00390004001600070009000A0087
:100170000B000D000E000F003300340028002A0091
:10018000000000000000E10000001D001B00060050
:100190001900050011001000360037003800E50096
:1001A0000100000052000000E000E300E200000057
:1001B000000000002C00000000000000E600E70046
:1001C0006500E400500051004F00010001000100F3
:1001D0000100010001000100010001000100010017
:1001E0000100010000000100010001000100010008
:1001F00001000100010001000100010001000100F7
:1002000001000100010001000100010001000100E6
:1002100001000100010001000100010001000100D6
:1002200001000100010001000100010001000100C6
:1002300001000100010001000100010001000100B6
:1002400001000100010001000100010000000000A8
:100250000000010000000100010001000100010098
:100260000100010001000100010001000100000087
:10027000010000000100010001000000000000007A
:100280000100000000000000010001000100010069
:100290000100010001000100010001000100010056
:1002A0000100010001000100010001000100010046
:1002B0000000010001000100010001000100010037
:1002C0000100010001000100010001000100010026
:1002D0000100010001000100010001000100010016
:1002E0000100010001000100010001000100010006
:1002F00001000100010001000100010001000100F6
:1003000001000100010001000100010001000100E5
:1003100001000100010001000000000000000100D8
:1003200000000100010001000100010001000100C6
:1003300001000100010001000100000001000000B7
:1003400001000100010000000000000001000000A9
:100350000000000001000100010001000100010097
:100360000100010001000100010001000100010085
:100370000100010001000100010001000000010076
:100380000100010001000100010001000100010065
:100390000100010001000100010001000100010055
:1003A0000100010001000100010001000100010045
:1003B0000100010001000100010001000100010035
:1003C0000100010001000100010001000100010025
:1003D0000100010001000100010001000100010015
:1003E0000100010000000000000001000000010009
:1003F00001000100010001000100010001000100F5
:1004000001000100010000000100000001000100E6
:1004100001000000000000000100000000000000DA
:1004200001000100010001000100010001000000C5
:100430000000000000002A2B28000000000000003F
:1004400000000000000000000029000000002C1E39
:100450003420212224342627252E362D3738271EF6
:100460001F202122232425263333362E37381F041C
:1004700005060708090A0B0C0D0E0F1011121314B4
:1004800015161718191A1B1C1D2F3130232D350472
:1004900005060708090A0B0C0D0E0F101112131494
:1004A00015161718191A1B1C1D2F3130354C00005A
:1004B000000000000000000000000000000000003C
:1004C000000000000000000000000000000000002C
:1004D00000007E0F00D4FFFFFFC700000078240358
:1004E000770069006C00620061002E0074006500F6
:1004F00063006800200057005400380030002D00D1
:10050000410000001603770069006C006200610082
:100510002E007400650063006800000004030904F5
:1005200009025B00030100A0FA09040000010301B5
:100530000100092111010001224000070581030883
:10054000000109040100020300000009211101005B
:100550000122220007058203200001070503032072
:10056000000109040200010300000009211101003B
:1005700001226D0007058403200001120100020022
:1005800000000882650A080100010200010660FF00
:100590000961A1010962150026FF009520750881F7
:1005A000020963150026FF00952075089102C00519
:1005B000010980A101850319012AB700150126B799
:1005C00000950175108100C0050C0901A101850489
:1005D00019012AA002150126A002950175108100BB
:1005E000C005010906A1018506050719E029E715DF
:1005F0000025019508750181020507190029EF15ED
:1006000000250195F075018102050819012905955C
:100610000575019102950175039101C00501090657
:10062000A101050719E029E71500250195087501C5
:1006300081029501750881010507190029FF150040
:1006400026FF009506750881000508190129059502
:100650000575019102950175039101C011241FBE1A
:10066000CFEFDAE0DEBFCDBF04B603FE18C0809145
:10067000B7049091B804A091B904B091BA0487303E
:10068000904BA740B04B59F41092B7041092B804A5
:100690001092B9041092BA04E0E0F8E3099511E071
:1006A000A0E0B1E0EAEAF0E502C005900D92A43ABC
:1006B000B107D9F724E0A4EAB1E001C01D92A73B3D
:1006C000B207E1F70E941C180C9453280C94000008
:1006D000E0E6F4E06083418324E630E042E050E06D
:1006E000BF01880F0E9413050895EF92FF921F9398
:1006F000CF93DF937B01182F110FC0E0D0E0C093A0
:100700006004D701AC0FBD1FE1E6F4E08D91819349
:1007100084E0E137F807D1F724E630E041E150E02A
:1007200060E674E0812F0E9413056096C03CD105FD
:1007300031F7DF91CF911F91FF90EF900895CF9304
:10074000DF93C82F45EC6EEF0E94680340E06DEF29
:100750008C2F0E946803D0E040E06D2F8C2F0E9408
:100760006803DF5FD831C1F745EC6EEF8C2F0E9434
:10077000680341E06DEF8C2F0E946803D0E040E0F9
:100780006D2F8C2F0E946803DF5FD03CC1F745ECD2
:100790006EEF8C2F0E94680343E06DEF8C2F0E9458
:1007A000680340E06FE08C2F0E94680340E060E146
:1007B0008C2F0E9468034FEF61E08C2F0E9468032A
:1007C00041E060E08C2F0E9468038FE39CE9019771
:1007D000F1F700C00000DF91CF91089580369105B8
:1007E00048F4880FE82FF0E0E052FD4F608381E08D
:1007F0008093D70108951F93CF93DF93182FC0E004
:10080000D0E0612FCE010E94EE032196C036D105C3
:10081000C1F7DF91CF911F910895880FE82FE695DA
:10082000E695E695282F2770F0E0E955FE4F81E028
:1008300090E001C0880F2A95EAF7662319F09081AD
:10084000892B03C0809590818923808381E08093E8
:10085000A6010895CF939091D701992379F0C82FDD
:1008600045EC6EEF0E94680341E06DEF8C2F0E9413
:10087000680360EE72E08C2F0E9475031092D7011E
:10088000CF9108950F931F93CF93DF939091A6017B
:100890009923C9F0C82F45EC6EEF0E94680340E031
:1008A0006DEF8C2F0E94680307EA11E0D0E0F80199
:1008B00041918F016D2F8C2F0E946803DF5FD8312B
:1008C000B1F71092A601DF91CF911F910F9108957A
:1008D0001092B9008CE08093B8000895A0E0B0E0D9
:1008E000E4E7F4E00C942727B82EEB010E94EB1EFE
:1008F0006C01C431D10558F0CF3F8FEFD80759F0C4
:10090000CE0164E170E00E94C9267B0107C0EE249D
:10091000E394F12C03C025E0E22EF12C84E8A82E0C
:1009200094EA992E1092BC009092BC000E94EB1E9B
:100930008C018091BC0087FD08C00E94EB1E801BCB
:10094000910B8E159F05A8F32AC08091B900887F6E
:10095000883041F08091B900887F803119F00FEF25
:100960001FEF1FC0B092BB00A092BC000E94EB1E04
:100970008C018091BC0087FD08C00E94EB1E801B8B
:10098000910B8E159F05A8F30AC08091B900887F4E
:10099000883111F0803419F700E010E00EC00EEF3E
:1009A0001FEFCF3F8FEFD80709F4BCCFC6010E94DD
:1009B000031F8C179D0708F4B5CFC801CDB7DEB76C
:1009C000EBE00C9443270F931F93CF93DF93EB013E
:1009D0008093BB0084E88093BC000E94EB1E8C01D6
:1009E0008091BC0087FD0EC0CF3F8FEFD807C1F3C9
:1009F0000E94EB1E801B910B8C179D0788F38EEFD6
:100A00009FEF0CC02091B900287F81E090E0283250
:100A100011F480E090E0919581959109DF91CF915B
:100A20001F910F910895A0E0B0E0E9E1F5E00C948A
:100A30002A276B018A017901B9010E946E04E6013F
:100A40000C0D1D1DC017D10741F424E92093BC00F3
:100A5000CDB7DEB7E8E00C94462797FDF6CFB70197
:100A600089910E94E304EECFCF930E94680480E551
:100A70000E949F03C0E061E08C2F0E940D04CF5FB5
:100A8000C036C9F760E080E50E944204CF91089526
:100A90008091D90181110EC081E08093D9018DE050
:100AA000809391009FB7F89423E02093990080935E
:100AB00098009FBF0895E1E7F0E080818260808325
:100AC00008958093E30108958093E201089580E002
:100AD0000E94FB030895809107010E94FB03089583
:100AE000FF920F931F93CF93DF93F82E0E94A327BB
:100AF00060E670E00E94DD26C0E0D0E08C011127A6
:100B0000F11003C00C171D0731F40E94A327682FB2
:100B1000CE010E94EE032196C036D10589F7CDB7EC
:100B2000DEB7E5E00C9449271F920F920FB60F92A3
:100B300011240F931F932F933F934F935F936F93C2
:100B40007F938F939F93AF93BF93EF93FF93809186
:100B5000D801843120F48F5F8093D80171C08091D7
:100B6000DE019091DF01A091E001B091E1010196D9
:100B7000A11DB11D8093DE019093DF01A093E001E0
:100B8000B093E1018091DA019091DB01A091DC0149
:100B9000B091DD018F3F2FEF9207A207B20759F006
:100BA0000196A11DB11D8093DA019093DB01A09302
:100BB000DC01B093DD018091E301882321F0809175
:100BC000050180FD1EC0809106018823E1F020EB25
:100BD00034E0829FA001839F500D1124052E000C4C
:100BE000660B770B81E00091DA011091DB01209117
:100BF000DC013091DD01401751076207730720F0D7
:100C000002C081E001C080E080FD03C08091080146
:100C100001C080E09091040180930401813021F0B3
:100C200068F0823021F00AC00E946B0509C081E0A3
:100C3000923009F480E00E94700502C00E946705AE
:100C4000FF91EF91BF91AF919F918F917F916F91A4
:100C50005F914F913F912F911F910F910F900FBE78
:100C60000F901F901895FC0180818930E1F028F4E5
:100C7000873049F0883099F008958B30E1F0B8F072
:100C80008C30E9F0089591E08181811101C090E0FC
:100C90008091050190FB80F9809305010895818181
:100CA00080930601089581818093070108958181D1
:100CB00080930801089581818093090108958181BD
:100CC00080930A01828180930B010895FC01808149
:100CD000893099F028F4873049F0883059F0089528
:100CE0008B3089F068F08C3091F008958091050187
:100CF00081700BC08091060108C08091070105C07A
:100D00008091080102C0809109018183089580913A
:100D10000A01818380910B018283089547E050E0AE
:100D200067E270E085E091E00E94C027089547E007
:100D300050E067E270E085E091E00E94DE270895D0
:100D400060E080E50E942A0408958091080190E007
:100D500001968430910514F083E090E080930801BF
:100D60000E94970608958091080190E0019797FFEF
:100D700002C080E090E08430910514F083E090E0C0
:100D8000809308010E94970608958091090190E0E0
:100D900001968430910514F083E090E0809309017E
:100DA0000E94970608958091090190E0019797FFAE
:100DB00002C080E090E08430910514F083E090E080
:100DC000809309010E94970608958091070190E0A1
:100DD00008968F3F910519F014F08FEF90E0809303
:100DE00007010E94970608958091070190E00897F7
:100DF00097FF02C080E090E08F3F910519F014F05A
:100E00008FEF90E0809307010E9497060895FB0101
:100E10002281222341F01092DA011092DB0110921C
:100E2000DC011092DD0182302FE59207F1F040F4F1
:100E300081152FE5920769F081309F4581F02EC022
:100E400084302FE59207E9F0B0F085309F45F9F046
:100E500025C08281882319F10E94E5061DC0828188
:100E60008823E9F00E94F40617C082818823B9F034
:100E70000E94A50611C08281882389F00E94B306D2
:100E80000BC08281882359F00E94C50605C082816B
:100E9000882329F00E94D30680E0089581E0089518
:100EA0000E942918882319F00E948E0602C00E9411
:100EB00097060E9434050E9448050E945B0508952C
:100EC0000E94A91608950E94A0060E94A6160895E1
:100ED0000F931F93CF93DF93EC018B010E940707C1
:100EE000C0318FE5D80741F0C131EFE5DE07D1F41D
:100EF000F801C28182E003C0F801C28181E0CC2305
:100F000049F00E94E20D43E062E081E00E94310876
:100F1000C0E00DC00E94EE0D43E062E081E00E945F
:100F2000310805C0B801CE010E94C907C82F8C2F17
:100F3000DF91CF911F910F910895CF93C82F0E94F9
:100F400064058C2F0E948809CF91089581E00E944A
:100F50006105089580E00E9461050895FC019C01EF
:100F60002F5F3F4F9081983041F0993051F097308A
:100F700059F4C9010E9433060895C9010E9466060A
:100F800008950E94970608958FEF8083089581E069
:100F9000089581E0089508950E94CB070895A5E083
:100FA000B0E0E5EDF7E00C942F2749835A833091A8
:100FB000E50189819A81311114C0662359F02223F9
:100FC00049F00E94930E182F682F89819A810E9400
:100FD0006F0E03C00E94810E182F69817A81812FC4
:100FE00004C00E94930E69817A810E94871B259616
:100FF000E3E00C944B27FC01262F40815181628154
:10100000738184810E94CF07089581E00895CF9372
:10101000DF93EC0160E00E94FB07BE010E94CC0759
:10102000DF91CF910895E1E0F0E0DF0102C0AA0F67
:10103000BB1F6A95E2F7BD01DF0102C0AA0FBB1F0B
:101040004A95E2F7AD01462B01C0EE0F2A95EAF76B
:10105000942F9823491302C08E2B0895E0958E2378
:101060000895242F462F682F80910D020E941308A7
:101070000E94CE0D08950E94600708950E946307A4
:10108000089508950E946B0D0E9441082FEF84E39C
:101090009CE0215080409040E1F700C0000008959E
:1010A0000E9442080E94381F08950E9442080E9430
:1010B0005C1F08950F931F93CF93DF938C0161E022
:1010C0000E94FB07EC01B8010E949318882309F4E1
:1010D00047C0B801CE010E946807882309F440C0C8
:1010E000B801CE010E94D11C8823D1F1B801CE01F4
:1010F0000E9479198823A1F1B801CE010E94371C02
:10110000882371F1F8018281882331F1CA358DE598
:10111000D807E9F050F4C115FCE5DF0779F0CE3DC2
:10112000DC45D1F40E9488130CC0CC35EDE5DE0718
:1011300059F080F0C73ADD4521F00EC00E945008FA
:101140000FC00E9455080CC00E94BF1205C00E942B
:10115000C91202C00E94CD12C8010E94C70701C077
:1011600080E0DF91CF911F910F9108950E94A60713
:101170000E94980908950E949C090E94AA07089558
:10118000A0E0B0E0E6ECF8E00C942B27E82FF0E0CC
:10119000E25DFB4FD490282F26952695269530E0CA
:1011A000F901E253FB4F0491877010E0082E02C052
:1011B000159507950A94E2F701701127F901E25499
:1011C000FB4FE490F12C082E02C0F594E7940A94AA
:1011D000E2F791E0E922FF24F901E255FB4FC491C7
:1011E000D0E002C0D595C7958A95E2F7C170DD279A
:1011F0000115110519F081EE0E94F309E114F104C3
:1012000019F086EE0E94F3098D2D0E940D0BE1145A
:10121000F10419F086EE0E94940A0115110519F0E7
:1012200081EE0E94940ACD2B19F08CE20E940D0BE6
:10123000CDB7DEB7E7E00C944727EF92FF920F930C
:101240001F93CF93DF93EC01162F0AE08881882348
:1012500009F455C0813009F043C08981813041F4DF
:101260007E0182E0E80EF11C8A810E940D0B09C00C
:10127000823049F47E01E2E0EE0EF11C8A810E9488
:10128000F309E7012FC0833041F47E01F2E0EF0E55
:10129000F11C8A810E94940AF4CF843011F02196C7
:1012A00021C02A81229680E090E030E0205331096D
:1012B0002A30310558F4089FA001099F500D1124D0
:1012C000C901840F951F21962881EFCF009751F017
:1012D000EFE9FFE03197F1F700C000000197F6CF8A
:1012E0000E94C0082196812F882309F4AFCFEFE92F
:1012F000FFE03197F1F700C000008150F5CFCDB786
:10130000DEB7E6E00C94482760E00E941D090895CE
:10131000089581E008950E94890908950895CF9362
:10132000C82F0E949D078C2F0E948B09CF91089592
:1013300080E00E948F0908950E942D1D0E948F0950
:1013400008950E942D1D9091E401891721F080934A
:10135000E4010E948F090895ABE0B0E0E2EBF9E010
:101360000C9430274F83588769877A878B87611160
:101370000E9407129E012F5F3F4F86E0F9011192F4
:101380008A95E9F785E0FE013796D90101900D9223
:101390008A95E1F789819A814C815D81452B31F0F5
:1013A0009F3F31F491E08F3F19F403C091E001C0F9
:1013B00090E090FF09C049815A816B817C818D81C9
:1013C0009E810E94331105C0C9010E940508811148
:1013D000F2CF2B96E2E00C944C27FC0180819181A6
:1013E0000E94C00E0895CF93882309F49BC0C82F94
:1013F0008238C1F40E942D1D81FD94C069E3809163
:101400000C0190910D010E94161E0E942B122FEFCD
:1014100081EE94E0215080409040E1F700C0000050
:1014200069E319C0833801F50E942D1D80FD7AC043
:1014300063E580910C0190910D010E94161E0E949F
:101440002B122FEF81EE94E0215080409040E1F785
:1014500000C0000063E580910C0190910D010E9495
:10146000241E0E942B125EC08438C1F40E942D1DE0
:1014700082FD58C067E480910C0190910D010E949B
:10148000161E0E942B122FEF81EE94E02150804017
:101490009040E1F700C0000067E4DDCF8CEF8C0FD7
:1014A000813AD0F46C2F80910C0190910D010E9433
:1014B000961D882349F06C2F80910C0190910D01AD
:1014C0000E94241E0E942B126C2F80910C0190917F
:1014D0000D010E94161EC5CF80E28C0F883048F4A3
:1014E000C77081E001C0880FCA95EAF70E94EA112F
:1014F000B8CFEBE5EC0FE33040F4F0E0E75BFE4FF4
:10150000808190E00E94541D0DC0C85AC73150F42C
:10151000EC2FF0E0EE0FFF1FE55EFE4F8081918122
:101520000E946A1DCF910895882309F45DC0682F39
:10153000823879F40E942D1D81FF56C069E38091A5
:101540000C0190910D010E94161E0E942B1269E35E
:1015500010C08338B9F40E942D1D80FF45C063E59B
:1015600080910C0190910D010E94161E0E942B1279
:1015700063E580910C0190910D010E94241E0E9450
:101580002B120895843879F40E942D1D82FF2CC0FF
:1015900067E480910C0190910D010E94161E0E943B
:1015A0002B1267E4E6CF8CEF860F813A10F380E2CE
:1015B000860F883048F4677081E001C0880F6A9513
:1015C000EAF70E94F011DBCF8BE5860F833028F419
:1015D00080E090E00E94541D0895685A673120F41D
:1015E00080E090E00E946A1D08951F93CF93DF93DF
:1015F000182FEB010E94F309209741F08FE99FE03B
:101600000197F1F700C000002197F6CF812F0E94CB
:10161000940ADF91CF911F910895893319F060E00A
:1016200070E002C060E570E00E94F50A089588232A
:1016300021F00E94EA110E942B120895882321F0C4
:101640000E94F0110E942B120895A0E0B0E0EBE29E
:10165000FBE00C942A277C01162FC72FFC01D281B6
:10166000058102950F700E94E0118823B9F0DD23F7
:10167000A9F08C2F807F803421F080E2810F8830A8
:1016800068F08091750482FF09C082E00E948D128B
:101690000E94E01191E0D82ED92601C0D12CCC2E89
:1016A000C2948FE0C8228C2D90E08C30910508F018
:1016B00093C1FC01EA5AFF4F0C9413278C2F807FB3
:1016C000CF70882311F0C295C07FDD2399F0CC2321
:1016D00009F46EC180E2810F883010F0111104C04E
:1016E0008C2F0E94EA1103C08C2F0E94FA110E94D5
:1016F0002B125EC1812F0E94940ACC2309F46CC185
:1017000080E2810F883038F1112329F18C2F0E945B
:10171000001224C08C2F807FCF70803211F0C295D0
:10172000C07F112319F01130A1F13DC080917504E3
:1017300082FD17C0DD2349F0CC2329F08C2F0E94B5
:10174000EA110E942B1280E034C180E00E94940ACA
:10175000CC2309F441C18C2F0E94F0110E942B125E
:101760003BC1DD2371F0002341F0013031F40E94D0
:101770000A128C2B0E9414122FC10E940A128C2B69
:101780001DC0002319F0013009F426C10E94211266
:1017900025C0DD2321F0063008F01EC10EC0053043
:1017A00008F01AC11BC0DD2361F0002331F0F701FE
:1017B000858180FFFDC08F7085838C2F0E94170B61
:1017C0000BC1002359F0193309F003C1FFEF27EED5
:1017D00083E0F15020408040E1F7F9C08C2F0E9457
:1017E0001E0BFAC08C2F86958695837019F0813078
:1017F00061F0F2C0DD2321F0812F9C2F937002C095
:1018000080E090E00E94541DEFC0DD2321F0812F85
:101810009C2F937002C080E090E00E946A1DE4C09B
:101820008C2F837079F5D111DBC0412F42954695FD
:101830004770440F440F212F2F70042E01C0220F38
:101840000A94EAF714FF08C08FE090E001C0880F07
:101850004A95EAF7809501C080E0C695C695C370A9
:10186000822BC23049F058F4C13019F00E94BF0DEC
:10187000B7C00E94B90DB4C00E94C50DB1C00E948E
:10188000B60DAEC0DD2319F08C2F817001C0869596
:10189000882309F4A5C0412F429546954770440F0F
:1018A000440F212F2F70042E01C0220F0A94EAF753
:1018B00014FF08C08FE090E001C0880F4A95EAF756
:1018C000809501C080E0C695C695C370822BC2305A
:1018D00049F058F4C13019F00E940D0E81C00E94E9
:1018E000070E7EC00E94130E7BC00E94CE0D78C0F2
:1018F000CF70DD2339F08C2F0E94E20D812F0E94E2
:10190000170B6EC0812F0E941E0B8C2F0E94EE0DB4
:1019100067C0123F21F128F4103F41F0113FC1F0A0
:1019200043C0133F19F1143F79F03EC0DD2341F06D
:10193000053008F051C08C2F8F710E94FB0D4CC0F8
:10194000063008F049C0F7CF8091750482FD18C0B9
:10195000DD2339F08C2F8F710E94E20D3DC0DD2315
:10196000C9F38C2F8F710E94EE0D36C0DD2329F054
:101970008C2F8F710E94D90D2FC00E94D50D2CC0C5
:10198000DD2349F0CF718C2F0E94E20D63E08C2F94
:101990000E946F1221C081E00E948D120230E0F09F
:1019A00082E00E948D1218C0DD2331F0002391F2F5
:1019B000812F0E94F30910C0002399F2193349F4D2
:1019C0009FEFE7EEF3E09150E040F040E1F700C018
:1019D0000000812F0E94940A88EF8C0D843020F43F
:1019E0000E942D1D0E948F09DD2089F00E94DC11CC
:1019F00080FD0DC0F70112820E94D6110E94E20DF7
:101A0000C7010E94240D0E94D6110E94EE0DCDB791
:101A1000DEB7E8E00C9446270F931F93CF93DF9334
:101A2000EC01688179818A810E94CB0E8C010E9431
:101A3000190E0E94A70DB801CE010E94250BDF915F
:101A4000CF911F910F910895CF93DF93EC0198816F
:101A500089812B813C81232B31F08F3F31F481E050
:101A60009F3F19F403C081E001C080E080FD1AC0EF
:101A7000CE010E945A0881110FC00E94E0118823F4
:101A800089F08A81882371F08091750482FF0AC0F1
:101A900082E00E948D1206C0CE010E940C0DCE0184
:101AA0000E940708DF91CF91089580E090E00E94A6
:101AB000541D80E090E00E946A1D0E9407120E945F
:101AC0002B12089580910C0190910D010E94321EFD
:101AD0000E94550D08950E94F7110E94620D08950D
:101AE00092959F70963079F010F4925001C09A5000
:101AF000923068F4803F69F018F4883E40F409C0E1
:101B0000843F29F406C0883E20F0813F11F080E038
:101B1000089581E00895FC01808191810E94C00EAA
:101B20000E94700D0895A5E0B0E0E9E9FDE00C9495
:101B300030272596E2E00C944C27A6E0B0E0E3EADB
:101B4000FDE00C9430272696E2E00C944C27089593
:101B500008950E94A80D08950E94A90D08950E945D
:101B6000AC0D80930E020E94550D08950E94AF0D9A
:101B7000089590910E02892B0E94AF0D08959091C7
:101B80000E0289230E94AF0D089590910E028927BD
:101B90000E94AF0D08950E94A80D08950E94CB0DDC
:101BA00080930D020E94550D089580E00E94CE0D95
:101BB000089591E001C0990F8A95EAF7892F0E9454
:101BC000CE0D089521E030E001C0220F8A95EAF79A
:101BD00080910D02822B0E94CE0D089521E030E00D
:101BE00001C0220F8A95EAF7209580910D02822389
:101BF0000E94CE0D089521E030E001C0220F8A95A9
:101C0000EAF780910D0282270E94CE0D08959091EF
:101C10000D02892B0E94CE0D089590910D0289230B
:101C20000E94CE0D089590910D0289270E94CE0D3D
:101C300008950895962F9770A1E001C0AA0F9A9574
:101C4000EAF793E0769567959A95E1F7FB01EE0F39
:101C5000FF1F6E0F7F1FFA01E60FF71F40E050E0F5
:101C6000682F70E090819B01042E02C03695279565
:101C70000A94E2F72170219529272A232927219305
:101C80004F5F5F4F4330510569F708959B01782FEF
:101C9000777043E0969587954A95E1F7FC01EE0F42
:101CA000FF1F8E0F9F1FF901E80FF91F40E050E062
:101CB00080E0219130E0072E02C0369527950A94E6
:101CC000E2F721703327042E01C0220F0A94EAF7AD
:101CD000822B4F5F5F4F4330510559F70895282FEE
:101CE000963070F4813160F4862F622F70E021E12C
:101CF000929F600D711D112446EE51E00E941A0E54
:101D00000895963070F4813160F4292F90E066EEEA
:101D100071E031E1239F800D911D11240E94460E38
:101D2000089580E00895CF92DF92FF920F931F9362
:101D3000CF93DF936C0100910D0280910E02082B6E
:101D4000C7E0D0E010E0C8010C2E02C09595879541
:101D50000A94E2F780FD04C02197A8F7F12C07C090
:101D6000FC2EB6018C2F0E947C150197A9F38F2DB4
:101D7000DF91CF911F910F91FF90DF90CF90089549
:101D8000CF93DF93EC010E94930EBE010E947C155D
:101D9000DF91CF9108951F93CF93DF93EB01909143
:101DA000E501992321F0CB010E94C00E13C08823C6
:101DB00049F0CB010E94930E182F682FCE010E948C
:101DC0006F0E04C0CB010E94810E182FBE01812F1F
:101DD0000E947C15DF91CF911F9108951F93CF939F
:101DE000DF93C0910F0216E080911002C81799F09E
:101DF000D0E01C9FF0011D9FF00D1124EF5EFD4F00
:101E00004081518162817381848195810E949D0D01
:101E10002196C770E9CFDF91CF911F91089540912E
:101E200041025091420260914302709144028091BC
:101E30004502909146020E949D0D08950F931F93B5
:101E4000CF93DF938091460282958F7009F05AC03C
:101E500080914302882309F455C080910F021091AC
:101E600010026091410270914202C0914402D091EF
:101E7000450291E06F3F09F090E0292F06E08117BD
:101E800009F440C0209721F07F3F21F030E003C0EB
:101E900031E001C0322F90E030FD31C0089FF001E9
:101EA000099FF00D1124DF01AF5EBD4F11963C91EB
:101EB0001197371324C03C91361321C012963C91E0
:101EC000129731111CC013964D915C9114974C1BC5
:101ED0005D0B483C510598F4809146028F708061FB
:101EE00080934602EA5EFD4F80818F70806180831F
:101EF00081E492E00E94240D0E94EE0E03C0019640
:101F00008770BDCFDF91CF911F910F910895A1E10F
:101F1000B0E0EDE8FFE00C9427278C0185E0F801A4
:101F2000DE011D9601900D928A95E1F7F801E2809D
:101F30009091410260914202209144023091450209
:101F40002115310531F06F3F31F481E09F3F19F4E5
:101F500003C081E001C080E0F82FF1709F2E80FD6A
:101F600040C1F80140815181A380B48081E4C82E32
:101F700082E0D82EF0904302F501E21BF30BFF2024
:101F800009F4DAC080914602E83CF10508F096C0F9
:101F9000282F207F09F053C0561313C0491311C0D6
:101FA000FE2CE1100EC08F708061809346020E946B
:101FB0000F0FC6010E94240D80914602F80185830F
:101FC0004DC1A114B10431F05F3F31F481E04F3FC6
:101FD00019F403C081E001C080E080FD03C081E00E
:101FE0008E2502C080E090E0F82FF170FF2E80FF78
:101FF0001CC080910F022091100236E0821709F474
:102000000BC190E0389FF001399FF00D1124EF5E75
:10201000FD4F6181561306C06081461303C0628183
:10202000E61203C001968770E9CFFE2CEE2009F47A
:1020300015C18091460281608093460254C05613B8
:1020400006C0491304C0E11002C0F80199C0C801DC
:102050000E948B0D882361F1EE2051F12091460200
:10206000822F82958F7090E0029774F080914102E8
:102070009091420298878F831986BB86AA862C8707
:10208000CE0107960E94240D86E0F801A1E4B2E09B
:1020900001900D928A95E1F70E941E0F0E940F0F8A
:1020A0000AC0561711F1C8010E948B0D81112CC076
:1020B000C8010E94240DFF24F394D0C0282F207F54
:1020C00081F77A2DB98AA88A6E2D89890E94930D8D
:1020D00081E492E00E94240D86E0F60111928A9537
:1020E000E9F70E940F0FF12CB9C04913DCCFE110C2
:1020F000DACFF8018583C8010E94240D86E0F6013D
:1021000011928A95E9F7AAC0EE2091F22091460239
:10211000822F82958F7090E002970CF4B5CF80915A
:102120004102909142029A8389831B82BD82AC82D4
:102130002E83CE010196A6CFE83CF10508F044C0FD
:10214000FE2CEE2009F4B4CF561330C049132EC034
:102150002091460220FD21C0822F82958F70482F4A
:1021600050E041155105C9F0F80125834F30510564
:1021700041F08F5F982F9295907F822F8F70892BDF
:102180008583C8010E94240D86E0F801A1E4B2E035
:1021900001900D928A95E1F73CC086E0F801A1E438
:1021A000B2E001900D928A95E1F758C0C8010E94F3
:1021B0008B0D811169CF8091460281608093460228
:1021C000C8010E94240D4AC07A2DB98AA88A6E2DB2
:1021D00089890E94930D86E0F60111928A95E9F7AC
:1021E00018C0EE2009F464CFC8010E948B0DF82EB0
:1021F000882309F45DCF86E0F801A1E4B2E0019004
:102200000D928A95E1F781E492E00E94ED090E9427
:102210001E0F0E940F0F22C04D875E878D859E8501
:102220000E94C00E292F22952F70223028F49F7013
:1022300039F0811105C00BC0243028F49F7049F497
:10224000805E883020F0C8010E94240D9F2CF92C5C
:1022500005C0F8019581907F99F7F9CF8F2D619690
:10226000EBE00C944327ACE0B0E0E9E3F1E10C943F
:102270002F274F83588769877A878B879C87CE0162
:1022800007960E94870F8823D1F09F8188852A8531
:102290003B85232B31F08F3F31F481E09F3F19F4D0
:1022A00003C081E001C080E080FD47C04F815885B8
:1022B00069857A858B859C850E949D0D3EC086E050
:1022C000FE013796DE01119601900D928A95E1F795
:1022D000FF81E8856A857B856115710531F0EF3FE7
:1022E00031F481E0FF3F19F403C081E001C080E0D8
:1022F00080FD23C02091100230E0C9010196877053
:10230000992740910F0250E084179507F1F1F98366
:10231000EA837D836C8396E0929FD001939FB00DFA
:102320001124AF5EBD4FFE01319601900D929A953A
:10233000E1F7809310020E94EE0E16E080910F02EA
:1023400090911002891771F1189FC00111248F5EBE
:102350009D4F0E94870F882329F1E0910F021E9F55
:10236000F0011124EF5EFD4F408151816281738144
:10237000848195810E949D0D80910F0290E00196CD
:102380008770992780930F02D9CF0E946B0D10920E
:10239000100210920F02E1E4F2E086E0DF011D92EC
:1023A0008A95E9F72C96E3E00C944B27809167021D
:1023B0008595859585950895809167028770089524
:1023C00090916702977081E009F480E00895809110
:1023D0008A02089590918A02892B80938A02089537
:1023E000809590918A02892380938A0208951092A1
:1023F0008A02089590918902892B80938902089519
:102400008095909189028923809389020895109282
:102410008902089580916802089508950E940D121E
:1024200008950E940E1208959091750492FF08C0BD
:1024300090916802981721F0809368020E9411120F
:10244000089580916802882329F01092680280E044
:102450000E9411120895CF93DF93E0910C01F09147
:102460000D0180918A028083E0910C01F0910D01B1
:10247000908180918902892B8083809168028823D2
:1024800081F0E0910C01F0910D019081892B808306
:1024900080910C0190910D010E94801D81110E947C
:1024A0002112C0910C01D0910D0140E250E067E48F
:1024B00072E0CE010E94B327892B59F080E2FE0121
:1024C000A7E4B2E001900D928A95E1F7CE010E9457
:1024D0003A1DDF91CF9108950E940D1208959091B9
:1024E000750492FF11C098E0899F90011124262B5A
:1024F000209367020E94E20D809167028595859581
:1025000085950E946C1208950E94E20D0895109224
:10251000670280E00E946C12089520916702809506
:10252000822380936702982F977099F430E0482FA8
:10253000082E000C550B2417350759F0909175049F
:1025400092FF07C08595859585950E94EE0D0E94A6
:10255000871208959091750492FB222720F928177D
:1025600069F080FB92F990937504809174049091C6
:1025700075040E94FF1282E00E948D1208958091DE
:10258000750482FB882780F991E089270E94AA12AE
:10259000089581E00E94AA12089580E00E94AA1284
:1025A00008956FEF7FEF80E090E00E940C2808957F
:1025B00080E090E00E94D827883E9E4F19F40E9448
:1025C0002918089580E0089582E090E00E94D027C5
:1025D000089583E090E00E94D0270895CF9384E08F
:1025E00090E00E94D027C82F82E290E00E94D0277E
:1025F0002C2F30E0A901582BCA01CF910895CF9319
:10260000C92F682F84E090E00E94EE276C2F82E2B1
:1026100090E00E94EE27CF910895AB01BC018FE0BE
:1026200090E00E9400280895AB01BC0183E190E096
:102630000E940028089560E070E0CB010E9414130E
:10264000089560E070E0CB010E940D130E941B13FF
:10265000089568EE7EEF80E090E00E940C2860E034
:1026600082E090E00E94EE2760E083E090E00E942C
:10267000EE2710920E0260E084E090E00E94EE27C8
:1026800064E082E290E00E94EE2760E085E090E066
:102690000E94EE2760E086E090E00E94EE276FEF58
:1026A00087E090E00E94EE2740E050E0BA0188E029
:1026B00090E00E94002860E08DE090E00E94EE270C
:1026C00040E050E0BA0188E190E00E94002860E01C
:1026D00087E190E00E94EE2740E050E0BA018CE1F3
:1026E00090E00E94002860E070E080E290E00E94AC
:1026F0000C2840E050E0BA0188E190E00E940028F8
:1027000080E00E9442180E9476180E9421130895CA
:102710000E9429130895682F8EE090E00E94EE2712
:1027200008950E94F71E6093A7027093A8028093F9
:10273000A9029093AA026093A3027093A4028093CB
:10274000A5029093A602089581E008950E94A41323
:10275000089508950E94A91308950E94A913089549
:102760000E94AD1308950E94A91308950E94B31307
:1027700008950E94A913089588E596E10E94231DFB
:102780000E94B9130E94B61308950E94AA130E94D2
:10279000A91308950E9474160E948E0908950E943C
:1027A000E21E0E9486180E945F170E94CA130E94B0
:1027B000B0130895ADE0B0E0E0EEF3E10C94202713
:1027C0000E947517282E81110E9491138BE892E0C8
:1027D0009D878C8700E010E0302E802F0E948F169E
:1027E0002B013C01EC85FD8581919191A191B191E5
:1027F000FD87EC875301420188269926AA26BB262D
:1028000081149104A104B104B1F40F5F1F4F06308D
:10281000110511F78FEF89838A831B820E94EB1EBB
:102820008160782F9D838C8349815A816B818D8152
:102830000E94AC0952C08091AB0281FD0E949B16A0
:102840001B86C12CD12C7601C394D501C4018C21E7
:102850009D21AE21BF21892B8A2B8B2B99F10E94C0
:10286000A6138823D9F0FB85FE833F824C205D2090
:102870006E207F2081E0411451046104710409F449
:1028800080E088870E94EB1E8160782F9A87898775
:102890004E815F8168858A850E94AC09000F111FF7
:1028A000000F111FF801E557FD4F80819181A28132
:1028B000B381C826D926EA26FB26C082D182E282CD
:1028C000F3820BC08B858F5F8B87CC0CDD1CEE1CDD
:1028D000FF1C813109F0B9CF98CF81E0211001C0F0
:1028E00080E02D96E2E10C943C270E94DA130E94CE
:1028F000A1090895CF93DF930E948115EC01811502
:1029000022E59207E8F5811531E5930708F0B6C096
:10291000883E910528F5803E910508F0E9C0883A87
:10292000910570F4853A910508F07AC081309105DF
:1029300009F473C008F4D9C0049708F0D9C0D5C011
:102940008F3B910508F0D1C0C85AD0E0CC0FDD1FF5
:10295000C45BDE4F0990D881C02DCE019464C9C0FC
:10296000811540E5940708F069C0811550E495078A
:1029700008F060C09A9581159F4108F4B9C0B5C0B0
:10298000811536E5930728F5811545E5940708F08C
:1029900092C0811554E5950708F087C0AC014370DB
:1029A0005527282F26952695C115D34508F06CC0CC
:1029B00081E090E002C0880F991F4A95E2F740E25B
:1029C000249F90011124EC01C22BD32BCE019C68D3
:1029D00090C081152AE5920780F4811539E59307A7
:1029E00008F072C0811548E5940708F47EC0D82F1E
:1029F000CC27CE01806F906A7CC0905681159042A2
:102A000008F073C08D2F8F710E941516DD27D062DC
:102A10008F71AE01582BCA016CC081E090E069C093
:102A2000C55AD0E0C658DE4F8881C82FD0E0CE010D
:102A300090645FC0DF70CE01906A5BC074E09695D1
:102A400087957A95E1F7282F23703C2F337081E02A
:102A500090E002C0880F991F3A95E2F79C68AC019C
:102A6000522B9A019C2F9F709695969550E2959FB8
:102A7000E0011124C9018C2B9D2B3BC0D82FCC2702
:102A8000CE01816F906A35C081E090E002C0880F6E
:102A9000991F4A95E2F750E2259F90011124EC011D
:102AA000C22BD32BCE019A6824C0D82FCC27CE01BD
:102AB000846F906A1EC00E9415168F7190E0D82F07
:102AC000CC27CE01906215C08F700E94151694E03D
:102AD000D695C7959A95E1F7CF70D0E0DC2FCC273B
:102AE000D0699E01282BC90104C080E090E001C09C
:102AF000CE01DF91CF9108950E94871B0E947A1426
:102B000008958238910569F1B0F48133910509F493
:102B10006DC048F48932910509F463C08A32910589
:102B200009F469C008958533910509F455C08933C6
:102B30009105B9F00895833E910569F138F4803E1E
:102B40009105B1F0823E910509F10895863E910507
:102B5000A9F1873E9105B9F1843E910509F064C061
:102B600023C02091740420FD4FC021FD4DC0089565
:102B70008091740480FD44C08091750480FF44C03E
:102B80008091740484FD42C083EE4DC08091740432
:102B900082FF38C0F5CF8091740482FD33C08091EC
:102BA000750480FD31C0ECCF8091750481FF32C087
:102BB0008091740484FD2AC087EE35C0809174042E
:102BC00083FF26C0F5CF8091740483FD21C08091DE
:102BD000750481FD1FC0ECCF8091740485FD1CC07D
:102BE0001DC08091740485FD19C016C080917404C5
:102BF00086FD16C017C08091740486FD13C010C0F6
:102C000089E311C082EE0FC080EE0DC080E00BC0E2
:102C100086EE09C084EE07C089E205C085E303C0E3
:102C20008AE201C081E390E008959091740492FFDC
:102C30000DC0282F2871283019F4877F846006C0C2
:102C4000282F2471243011F48B7F886093FF0DC0EE
:102C5000282F2871283119F4877E846106C0282F17
:102C60002471243111F48B7E88612091750420FF3A
:102C70000DC0382F3871383019F4877F816006C055
:102C8000382F3171313011F48E7F886021FF0DC0F3
:102C9000282F2871283119F4877E816106C0282FDA
:102CA0002171213111F48E7E886194FD877E089513
:102CB00080E008950E94D11208950E9475178FE355
:102CC0009CE90197F1F700C000000E94751780E0B1
:102CD0000E948F1660FF04C00E945A160E94381F7F
:102CE00008950E945D1608950E94D812811102C0B5
:102CF0000E9488130E94E4128093AB020E94EE129D
:102D000090937504809374040E9471160E94E912D6
:102D10000E94B60D80910D020E94CB0D089524E013
:102D2000829FC0011124FC01E257FB4F6081718139
:102D3000828193810895089580EA8A95F1F7089534
:102D400000C008950E949C16089508950E94A5163B
:102D500008950E94A5160895F894E82FE295EF7063
:102D6000F0E031A1282F2F7081E090E001C0880FA2
:102D70002A95EAF7982F9095932391A392A1892BF6
:102D800082A3789408950F931F93CF93DF93CDE799
:102D9000D1E089918F3F11F00E94AC1681E0CE38CE
:102DA000D807B9F7CEE8D1E004E911E089918F3F67
:102DB00011F00E94AC160C171D07C1F7DF91CF91DF
:102DC0001F910F910895A0E0B0E0E9EEF6E10C94B8
:102DD0002427C62FD0E0C358DE4F78817F3F09F407
:102DE00069C069017A01162F092FB82EF894E72FD0
:102DF000E295EF70F0E081A1372F3F7041E050E0A5
:102E000001C0440F3A95EAF7842B81A382A1409533
:102E1000482342A378940E94A0168EE8682E81E091
:102E2000782EEB2DF02F9F01285E3F4F00E04601EA
:102E3000570180949094A094B094D3018D913D015A
:102E40008F3FF9F0482F42954F7050E0DA0190968D
:102E50004C9150E08F70BA0102C0759567958A95C4
:102E6000E2F760FD0EC040815181628173814C297F
:102E70005D296E297F29408351836283738301E03A
:102E80000CC04081518162817381482159216A219E
:102E90007B2140835183628373833496E217F30767
:102EA00061F688818F3F11F00E94AC16602F812F50
:102EB0000E94A216CDB7DEB7EEE00C9440270E9428
:102EC000C31688E1EEE8F4E0DF01982F1D929A9591
:102ED000E9F7E6E7F4E0DF011D928A95E9F786E07D
:102EE0000E94D2170E943B0808958F929F92AF9242
:102EF000BF92FF920F931F93CF93DF93CDB7DEB7AF
:102F000068970FB6F894DEBF0FBECDBF8E010F5F7E
:102F10001F4F88E1F80111928A95E9F7F12C812C75
:102F2000912C54018394A50194016F2DC8010E9436
:102F3000E316F394880C991CAA1CBB1CF1E1FF1248
:102F4000F2CF48E150E0B80186E794E00E94B32751
:102F5000FF24F394009709F4F12C892B41F088E1C8
:102F6000F801A6E7B4E001900D928A95E1F72F2DC4
:102F700046E06EE874E086E794E00E94D3170E9472
:102F80003E088F2D68960FB6F894DEBF0FBECDBFFA
:102F9000DF91CF911F910F91FF90BF90AF909F90C5
:102FA0008F9008950895FF920F931F93CF93DF930F
:102FB000F82ED92F8B01C42F222349F081E0809372
:102FC000AE020E94EB1E9093AD028093AC02809102
:102FD000AE028823F1F08091AC029091AD020E9484
:102FE000031F0597B0F0EF2DFD2FD80180E090E092
:102FF0004C2F50E08417950754F4019111912191C1
:1030000031910D931D932D933D930196F3CF109223
:10301000AE02CDB7DEB7E5E00C9449270E942B2124
:103020000E94CF130E94382108950E943D210E94E2
:1030300075140E94572108950E94821E0E9411213A
:103040000E94BC130E940E180E9415180E94C513FE
:10305000FBCF83E290E00E94D027823281F484E2A9
:1030600090E00E94D027873051F485E290E00E94E2
:10307000D02791E0843109F090E0892F01C080E0F1
:1030800081700895CF93C82F811102C06FEF01C0E6
:1030900062E283E290E00E94EE27C11102C06FEF6E
:1030A00001C067E084E290E00E94EE27C11102C0F7
:1030B0006FEF01C064E185E290E00E94EE27CF91BE
:1030C000089586E290E00E94D027682F70E080E0AB
:1030D00090E008950895CF93C62F0E946A186C2F30
:1030E00086E290E00E94EE27CF91089580E00E9452
:1030F000421860E070E0CB010E946B180E94101B28
:103100000E94DC1B81E00E94421808950E94500733
:103110000E9461180E946A180E942918811102C039
:103120000E9476180895CF93FB01C281CC23E9F069
:103130009C0122513F452031310520F482510E94EB
:10314000EC1B0CC08031FFE59F0751F481E00E9429
:10315000E20D43E062E081E00E943108C0E018C067
:1031600081319F45A9F482E0F2CF8031EFE59E07DF
:1031700011F481E004C081319F4549F482E00E944E
:10318000EE0D43E062E081E00E94310801C0C1E041
:103190008C2FCF910895EF92FF920F931F93CF93AF
:1031A000DF93EC01162FE8818E2F90E0FC01319720
:1031B000E331F10508F092C0EE59FF4F0C9413274C
:1031C000198289E04EC08981823039F0833061F004
:1031D0008130E1F50E94F71E02C00E9461189A83B7
:1031E0008B837C836D837CC07E0100E0802F0E94F6
:1031F0008F16F7018283738364830F5FF3E0EF0E12
:10320000F11C063099F76CC089818230F9F46A812B
:103210007B818C819D810E9419270E946B1860C060
:103220004B816A8189810E94D41A9C838D8358C006
:103230002C813D813227232732274B816A81898166
:103240000E94F51A4DC00E94101B4AC0612FCE018A
:103250000E94AE0745C00E94951B24C00E94971B88
:1032600099838A833DC06B8170E089819A81AE0128
:103270004C5F5F4F9827892798270E949A1B30C080
:103280006B8170E089819A81AE014C5F5F4F982716
:10329000892798270E94BC1B23C00E94DC1B20C0EA
:1032A0000E94C11A89831CC06B8170E089819A8158
:1032B000AE014C5F5F4F9827892798270E94451BD6
:1032C0000FC06B8170E089819A81AE014C5F5F4FC6
:1032D0009827892798270E94671B02C08FEF888351
:1032E000612FCE010E94E11FCDB7DEB7E6E00C945E
:1032F0004827CF93DF93EC01FB018281882309F4F7
:103300003CC1C330FDE5DF0760F4CA3F9CE5D90747
:1033100088F49E0122503C452431310508F02EC12D
:1033200009C0C136EDE5DE0729F0C53AFDE5DF0746
:1033300009F024C10E94EE129093750480937404E6
:10334000C1318CE5D80709F4C6C008F042C0C930C5
:10335000ECE5DE0709F49BC000F5C5308CE5D80725
:1033600009F485C078F4C330ECE5DE0709F478C0D1
:1033700008F07AC0C230DC4509F0F5C080917404D1
:103380008160EFC0C7309CE5D90709F478C008F028
:103390007AC0809174048061E4C0CD30FCE5DF0721
:1033A00009F487C058F4CB309CE5D90709F479C0FB
:1033B00008F07BC08091740488606FC0CF30FCE55A
:1033C000DF0709F480C008F082C080917404877F11
:1033D000C8C0CD3F9CE5D90709F471C000F5C531DF
:1033E000FCE5DF0709F485C068F4C3319CE5D90723
:1033F00009F475C008F095C00E946B0D80917404AB
:103400008F77AFC0CB3FFCE5DF07A9F108F054C0D0
:10341000CA3FDC4509F0A7C08091750440C0C130A7
:10342000EDE5DE0709F489C058F4CF3F8CE5D807F5
:1034300009F45AC008F069C08091750482602FC0F9
:10344000C136EDE5DE0709F47CC0C53AFDE5DF07CE
:1034500009F481C0C230DD4509F085C080E06EC04E
:103460008091740482607DC08091740416C0809144
:103470007404886076C08091750482604FC080912A
:10348000740480626EC08091740480646AC00E947B
:103490006B0D80917404806864C0846062C0816038
:1034A0003DC0809174048E7F5CC0809174048D7FD8
:1034B00058C08091740416C08091750418C0809122
:1034C00075048D7F2BC0809174048F7E4AC08091DB
:1034D00074048F7D46C0809174048F7B42C08091BC
:1034E0007404877F8B7F3DC0809175048D7F8E7FB4
:1034F00015C08091740482FB222720F991E0922765
:1035000090FB82F990FB83F92CC080917504982F71
:10351000909591708E7F892B90FB81F98093750433
:1035200022C00E946B0D8091740487FB222720F932
:1035300091E0922790FB87F914C081E00E948B13E1
:1035400012C08091740484FB222720F991E0922715
:1035500090FB84F906C080917404982F909590FB9D
:1035600080F98093740480917404909175040E9492
:10357000FF120E946B0D80E001C081E0DF91CF91CE
:10358000089584E0089550E0440F551F22E2629FA1
:10359000400D511D11249A016CEC869F200D311DA8
:1035A0001124C9018E9608950F931F93CF93DF9333
:1035B0008430A0F4663090F4413180F40E94C31A44
:1035C0008C010E94D02790E0D82FCC27C80101960B
:1035D0000E94D0279E01282BC90102C080E090E004
:1035E000DF91CF911F910F9108950F931F93CF9368
:1035F000DF93843080F4663070F4413160F4E90187
:103600000E94C31A8C016D2F0E94EE276C2FC801F7
:1036100001960E94EE27DF91CF911F910F9108959F
:10362000A0E0B0E0E6E1FBE10C942827A12CE12C1E
:10363000F12CB12C00E010E0C0E0D0E06701C00E3A
:10364000D11EFE01EE0FFF1FEC0DFD1DE250FF4FDE
:10365000259134914C2F6B2D8A2D0E94F51A2196BD
:10366000C131D10571F70E5D1F4FB39486E0B812DA
:10367000E3CF8CECE80EF11CA39484E0A812D9CF20
:10368000CDB7DEB7EAE00C944427EF92FF920F9398
:103690001F93CF93DF93EA017A01E60EF71E8C01A8
:1036A000C8018E96CE15DF0569F0003323E01207BE
:1036B00020F40E94D027888301C0188221960F5FD2
:1036C0001F4FEECFCDB7DEB7E6E00C944827EF9260
:1036D000FF920F931F93CF93DF93EA017A01E60ED7
:1036E000F71E8C01C8018E96CE15DF0559F0003308
:1036F00023E0120718F468810E94EE2721960F5FDD
:103700001F4FF0CFCDB7DEB7E6E00C9448278430EA
:1037100048F4763038F4613128F4462F672F0E9440
:10372000D41A089580E090E0089580E1089582EA37
:1037300090E00895EF92FF920F931F93CF93DF9342
:10374000EA017A01E60EF71E8C01C801825A9C4FED
:10375000CE15DF0561F0023A110520F40E94D02752
:10376000888301C0188221960F5F1F4FEECFCDB71F
:10377000DEB7E6E00C944827EF92FF920F931F9379
:10378000CF93DF93EA017A01E60EF71E8C01C801A0
:10379000825A9C4FCE15DF0551F0023A110518F4FC
:1037A00068810E94EE2721960F5F1F4FF0CFCDB7A3
:1037B000DEB7E6E00C944827CF93DF93CEE5D3E065
:1037C00060E0CE010E94EE272196C11584E0D80763
:1037D000B9F7DF91CF910895A4E0B0E0E2EFFBE10B
:1037E0000C942B27F82E8FE08F15E8F18FEF93E0E4
:1037F0000E94D027811137C00EE513E0FF2069F049
:10380000011584E0180779F1C8010E94D0278111C1
:1038100001C0FA940F5F1F4FF1CF19821A821B82E9
:103820001C82DD24D39478018FEFE81AF80AC801CE
:103830000E94D02789831A828823A9F09FEF980FCE
:10384000933058F48A83D9820E5F1F4FC7010E94BC
:10385000D0278B83882339F07801CE0101960E940E
:1038600084098701E0CF2496E7E00C944727CF93A3
:10387000DF9386319C4541F5EB010E94E711982FBB
:103880008A8120910C0130910D01882379F09A7A78
:1038900081E009F480E08093AF02911102C069E2F7
:1038A00001C065E3C9010E94161E0AC08091AF02E3
:1038B000811102C069E201C065E3C9010E94241EB2
:1038C0000E942B1280E001C081E0DF91CF9108952A
:1038D0000F931F93CF93DF93C42FD22FFC018281CC
:1038E0008823B1F04093B2020E94EB1E9093B10284
:1038F0008093B00280E28C0F883008F04DC0C77012
:1039000081E001C0880FCA95EAF70E94170B44C0F6
:103910008091B202481330C08091B0029091B10200
:103920000E94031F883C910538F510E21D0FCD174A
:10393000B9F080E28C0F883040F4C77081E001C09C
:10394000880FCA95EAF70E941E0B183010F581E027
:103950009D2F977001C0880F9A95EAF70E94170B68
:10396000802F0E940D0B1830B8F4D77081E001C091
:10397000880FDA95EAF70AC080E28C0F883060F48D
:10398000C77081E001C0880FCA95EAF70E941E0B3C
:1039900003C0802F0E940D0BDF91CF911F910F91DB
:1039A00008950F939C01CB01233F4CE5340731F17F
:1039B00088F4283DFCE53F07D9F0293D4CE5340764
:1039C00079F1273D3C45A9F506E221EE41EE67ED90
:1039D0007CE52BC0253FFCE53F07E1F0A8F0263F42
:1039E0003C4539F507E225EE46EE66EF7CE51DC065
:1039F00007E225EE45EE68ED7CE517C006E221EE14
:103A000040EE63EF7CE511C007E225EE44EE64EF83
:103A10007CE50BC006E221EE42EE65EF7CE505C0D9
:103A200008E221E045EE69ED7CE50E94681C80E03B
:103A300008C0FC018281882319F01092B20201C0F3
:103A400081E00F9108959093A5018093A4010895BA
:103A50009093B8028093B7020895E091B702F09175
:103A6000B802309729F00190F081E02D0995089572
:103A700080E00895FC01A091B702B091B8021097C0
:103A800091F080911A01882341F08091740487FF9E
:103A900004C08081818386E08083CF011296ED91FE
:103AA000FC911397099508952091B5023091B602C3
:103AB0002817390771F09093B6028093B502E09110
:103AC000B702F091B802309721F00680F781E02D1F
:103AD000099508952091B3023091B402281739074F
:103AE00071F09093B4028093B302E091B702F09129
:103AF000B802309721F00084F185E02D09950895F2
:103B0000FC01329680911A01882331F0809174046F
:103B100087FF02C09EE101C096E080E0915028F04E
:103B200021912223D9F38F5FF9CF0895662351F1B4
:103B300020911A012223E9F02091740427FF19C073
:103B4000462F4695469546954E31E0F4677021E044
:103B500030E002C0220F331F6A95E2F7FC01E40F48
:103B6000F11D828190E02823392381E0232B69F421
:103B700009C0FC01329608962191621729F0E817D6
:103B8000F907D1F780E0089581E008959C01FC01D8
:103B900032969FEF80E04191461789F09F3F19F4DC
:103BA000411101C0982F8F5F8630A9F79F3F39F0F0
:103BB000F901E90FF11D97FDFA95628308950895C3
:103BC0009C012A5F3F4FFC014281461301C01282D3
:103BD000019682179307B9F70895262F2695269503
:103BE00026952E3168F4FC01E20FF11D677021E08B
:103BF00030E001C0220F6A95EAF78281282B2283E8
:103C00000895262F2695269526952E3170F4FC01D1
:103C1000E20FF11D677021E030E001C0220F6A95CC
:103C2000EAF72095828128232283089520911A01A2
:103C3000222339F02091740427FF03C00E94ED1D58
:103C400008950E94C61D089520911A01222339F07B
:103C50002091740427FF03C00E94011E08950E9452
:103C6000E01D089520911A01FC013296222331F0C3
:103C70008091740487FF02C08EE101C086E0DF01FD
:103C80001D928A95E9F7089508950E94441E0895AB
:103C900083E08093B9020E94451E0895811102C0FD
:103CA00081E001C082E08093B9020E94451E089520
:103CB0000E944E1E089581E08093B9020E94451E25
:103CC00008950E945B1E089508950E94641E089541
:103CD0000E94641E0895CF930E94681E0E9475176B
:103CE0000E94651EC0E08C2F0E948F16672B682BE8
:103CF000692B29F4CF5FC630B1F780E001C081E0C5
:103D0000CF91089585B7806885BF85B7806885BFE6
:103D100008951F920F920FB60F9211248F939F93C5
:103D2000AF93BF938091BA02811113C08091A60412
:103D30009091A704A091A804B091A9044196A11D57
:103D4000B11D8093A6049093A704A093A804B093F8
:103D5000A904BF91AF919F918F910F900FBE0F90CB
:103D60001F9018958091AE04843031F10E94B608FE
:103D70001092BA0220E488E190E00FB6F894A8957A
:103D8000809360000FBE2093600083B7817F8460C2
:103D900083BF83B7816083BF7894889583B78E7F14
:103DA00083BF0FB6F894A8958091600088618093D6
:103DB0006000109260000FBE08950E946B0D0E947B
:103DC000BB08089582E084BD93E095BD9AEF97BD4E
:103DD00080936E0008952FB7F8948091A604909177
:103DE000A704A091A804B091A9042FBF08952FB7EC
:103DF000F8946091A6047091A7048091A804909112
:103E0000A9042FBF08959C014FB7F8948091A60490
:103E10009091A704A091A804B091A9044FBF821B60
:103E2000930B089578941F920F920FB60F9211245E
:103E30008F939F93AF93BF938091A6049091A70413
:103E4000A091A804B091A9040196A11DB11D809371
:103E5000A6049093A704A093A804B093A904BF91CB
:103E6000AF919F918F910F900FBE0F901F9018955B
:103E700081E08093E00080E28093D8001092C90036
:103E80008FE19EE40197F1F700C0000087E090EB1E
:103E9000DC018093B7049093B804A093B904B09365
:103EA000BA049CE088E10FB6F894A895809360006E
:103EB0000FBE90936000FFCF9CE088E10FB6F894AE
:103EC000A895809360000FBE90936000FFCF809113
:103ED000DE0208950895CF93DF9320911A012223E3
:103EE00039F02091740427FF03C060E224E002C08F
:103EF00068E021E02093E9002FEF3091E8002150A5
:103F000035FD06C035ED3A95F1F700002111F5CFEA
:103F10002091E80025FF1DC0EC0180911A0181115C
:103F200005C040E050E068E070E003C070E040E0B1
:103F300050E0CE010E94F6218091E8008E778093B8
:103F4000E80080E2FE01AEEBB2E001900D928A95AE
:103F5000E1F7DF91CF9108958093BB027093BD028A
:103F60006093BC028091AE048430F9F48093E90040
:103F70008FEF9091E800815095FD06C095ED9A95E0
:103F8000F1F700008111F5CF8091E80085FF0DC0A9
:103F900040E050E063E070E08BEB92E00E94F6219D
:103FA0008091E8008E778093E8000895BC0184E05A
:103FB0000E94AC1F0895BC0183E00E94AC1F0895CD
:103FC0000895CF93603219F52091AE042430F9F4AE
:103FD000C091E900CF703091EC00232F217030FDAB
:103FE00020E8C22B22E02093E9002091E80020FF86
:103FF0000BC040E050E060E270E00E94F62180914A
:10400000E8008E778093E800CF70C093E900CF91ED
:1040100008958091AD04811109C00E94C6230E94B9
:1040200023248091E20084608093E200089510923E
:10403000AD0408950E94611E08956091AA0481E074
:10404000611101C080E00E94481E08959091AE0465
:1040500081E0943009F080E06091AA040E944E1E35
:10406000089542E061EC81E00E943F2342E261EC6E
:1040700084E00E943F2342E261EC82E00E943F2301
:1040800042E260EC83E00E943F239091AE0481E025
:10409000943009F080E06091AA040E94581E0895AF
:1040A0008091B004833009F463C030F4813071F042
:1040B000823009F49DC008958A3009F489C08B309C
:1040C00009F46EC0893009F0ABC020C08091AF0404
:1040D000813A09F0A5C08091E800877F8093E800CD
:1040E0008091B3049091B404892B21F460E28EEBAB
:1040F00092E003C060E080E090E070E00E948022E7
:104100008091E8008B778093E80008958091AF0458
:10411000813209F085C08091B3049091B404009776
:1041200019F0029709F07CC08091E800877F8093A6
:10413000E8008091E80082FD05C08091AE04811105
:10414000F8CF6EC02091F3008091F20090E0922BA6
:10415000029731F48091F100813011F0863021F422
:104160008091F1008093DE028091E8008B7754C04B
:104170008091AF04813A09F053C08091B3049091CB
:10418000B404892B09F04CC08091E800877F8093AC
:10419000E8008091E80080FFFCCF80911A0137C0D1
:1041A0008091AF048132E1F58091B3049091B40421
:1041B000892BB1F58091E800877F8093E8000E9409
:1041C00074238091B10480931A010E946B0D0895AD
:1041D0008091AF04813221F58091E800877F809340
:1041E000E8000E9474238091B2048093DF02089556
:1041F0008091AF04813AA1F48091E800877F809399
:10420000E8008091E80080FFFCCF8091DF0280937E
:10421000F1008091E8008E778093E8000E9474237B
:10422000089584B7877F84BF0FB6F894A8958091CE
:104230006000886180936000109260000FBE90E083
:1042400080E80FB6F89480936100909361000FBEF0
:104250000E945B1E08950E94C6230E942324E2EE62
:10426000F0E080818460808378940E94AE26089577
:104270008EE091E00E94281D08958091AE04853063
:10428000A9F48091AE04853079F40E94B21E809129
:10429000AC048823B1F30E946B1E882391F30E9423
:1042A000E0210E946B0DEDCF0E94DD1E0895A0E27B
:1042B000B0E0EDE5F1E20C9430278091AE0484305B
:1042C00011F583E08093E9008091E80082FF1BC034
:1042D0008091E80085FF0AC040E050E060E270E0B5
:1042E000CE0101960E943B2291E001C090E08091B6
:1042F000E8008B778093E800992329F060E2CE01F3
:1043000001960E94CB18A096E2E00C944C270E94E4
:104310008A210895292F332723303105C9F060F40D
:104320002130310581F02230310509F041C08BE5A3
:1043300090E020E235E040C021323105E1F0223248
:10434000310531F135C082E190E02BE735E034C032
:1043500099278130910549F028F0029749F5EEED53
:10436000F4E005C0ECE1F5E002C0E4E0F5E08491A2
:1043700090E09F0121C063307105D0F4660F771F74
:10438000FB01E356FE4F2081318189E090E014C0AB
:104390006330710568F4FB01EE0FFF1FE956FE4F15
:1043A00020813181FB01EC56FE4F808190E004C0FA
:1043B00080E090E020E030E0FA013183208308952E
:1043C00080E189BD82E189BD09B400FEFDCF809105
:1043D000D8008F7D8093D8008091E0008260809328
:1043E000E0008091E00081FDFCCF0895A0E0B0E006
:1043F000ECEFF1E20C942A27EC018B017A010E9488
:104400009323811133C0E114F10439F0F701808165
:104410009181081B190BC80FD91FC12CD12C011574
:10442000110519F18091E80085FD16C08091E80022
:104430008E778093E800E114F10449F0F701808160
:104440009181C80ED91ED182C08285E00FC00E9422
:104450009323882321F30AC089918093F1000150AE
:104460001109FFEFCF1ADF0ADACF80E0CDB7DEB750
:10447000E8E00C944627A0E0B0E0E1E4F2E20C941E
:104480002A27EC018B017A010E949323811133C00A
:10449000E114F10439F0F70180819181081B190BB7
:1044A000C80FD91FC12CD12C0115110519F180910C
:1044B000E80085FD16C08091E8008B778093E800C6
:1044C000E114F10449F0F70180819181C80ED91EF1
:1044D000D182C08285E00FC00E949323882321F3FC
:1044E0000AC08091F100899301501109FFEFCF1AA2
:1044F000DF0ADACF80E0CDB7DEB7E8E00C944627DC
:104500002091B5043091B6042617370748F061159D
:10451000710539F42091E8002E772093E80001C05E
:10452000B901FC0120E06115710579F18091AE04BB
:104530008823F1F18530F1F18091E80083FD3CC0E2
:104540008091E80082FD2EC08091E80080FFEBCFD3
:104550002091F3008091F20090E0922B611571059B
:1045600051F08830910538F421912093F100615089
:1045700071090196F3CF21E0089709F020E08091BE
:10458000E8008E778093E800CECF2111CFCF0AC00C
:104590008091AE04882361F0853061F08091E8005D
:1045A00083FD0AC08091E80082FFF2CF80E0089589
:1045B00082E0089583E0089581E008952091B50494
:1045C0003091B6042617370748F06115710539F4A4
:1045D0002091E8002E772093E80001C0B901FC018A
:1045E00020E06115710591F18091AE04882309F4F2
:1045F00040C0853009F43FC08091E80083FD3DC094
:104600008091E80082FD2FC08091E80080FFE9CF13
:104610002091F3008091F20090E0922B61157105DA
:1046200059F08830910540F424912093F10031969F
:10463000615071090196F2CF21E0089709F020E05E
:104640008091E8008E778093E800CBCF2111CCCF0A
:104650000AC08091AE04882361F0853061F08091BA
:10466000E80083FD0AC08091E80082FFF2CF80E07D
:10467000089582E0089583E0089581E00895982FD9
:10468000973068F59093E900981739F07091EC0035
:104690002091ED005091F00003C0242F762F50E0C0
:1046A00021FD02C09F5FECCF3091EB003E7F309345
:1046B000EB003091ED003D7F3093ED003091EB0049
:1046C00031603093EB007093EC002093ED00509339
:1046D000F0002091EE0027FDE5CF80E008958F7077
:1046E0008093E90081E008958091AF0487FF11C0B5
:1046F0008091E80082FD05C08091AE048111F8CF61
:1047000011C08091E8008B770BC08091AE048823A4
:1047100049F08091E80080FFF8CF8091E8008E7723
:104720008093E80008952091E4003091E50095E63B
:104730004091EC00842F817040FF23C08091E800FD
:1047400080FD1DC08091AE04882399F0853099F0DA
:104750008091EB0085FD11C04091E4005091E5008F
:104760002417350729F3915011F09A01E1CF84E025
:10477000089582E0089583E0089581E0089580E03F
:1047800008954091E80042FFDDCF08950E9435244E
:104790000E943D24E0EEF0E0808181608083E8EDBE
:1047A000F0E080818F77808319BCA7EDB0E08C9119
:1047B0008E7F8C9380818F7E80831092AD040895CC
:1047C0000F931F93CF93DF930E9435240E943D24C3
:1047D000C8EDD0E088818F7788838881806888835E
:1047E00088818F7D888319BC1092AE041092AA0430
:1047F0001092AC041092AB0400EE10E0F80180813E
:104800008B7F808388818160888342E060E080E0E4
:104810000E943F23E1EEF0E080818E7F8083E2EE14
:10482000F0E0808181608083808188608083F801EE
:1048300080818E7F8083888180618883DF91CF91A2
:104840001F910F910895E8EDF0E080818F7E8083C5
:10485000E7EDF0E080818160808384E082BF81E0C9
:104860008093AD040E94E0230895E8EDF0E080819C
:104870008E7F80831092E20008951092DA001092E9
:10488000E10008951F920F920FB60F9211242F93FB
:104890003F934F935F936F937F938F939F93AF93C8
:1048A000BF93EF93FF938091E10082FF0BC0809153
:1048B000E20082FF07C08091E1008B7F8093E100DE
:1048C0000E94AD268091DA0080FF1FC08091D80041
:1048D00080FF1BC08091DA008E7F8093DA00809188
:1048E000D90080FF0DC080E189BD82E189BD09B496
:1048F00000FEFDCF81E08093AE040E94092005C038
:1049000019BC1092AE040E9417208091E10080FF34
:1049100019C08091E20080FF15C08091E2008E7F77
:104920008093E2008091E20080618093E2008091B8
:10493000D80080628093D80019BC85E08093AE04D3
:104940000E941D208091E10084FF30C08091E20030
:1049500084FF2CC080E189BD82E189BD09B400FEDD
:10496000FDCF8091D8008F7D8093D8008091E100A9
:104970008F7E8093E1008091E2008F7E8093E20041
:104980008091E20081608093E2008091AA048823F4
:1049900011F084E007C08091E30087FD02C081E050
:1049A00001C083E08093AE040E9426208091E10044
:1049B00083FF29C08091E20083FF25C08091E10040
:1049C000877F8093E10082E08093AE041092AA0476
:1049D0008091E1008E7F8093E1008091E2008E7FE4
:1049E0008093E2008091E20080618093E20042E0E7
:1049F00060E080E00E943F238091F0008860809317
:104A0000F0000E941A20FF91EF91BF91AF919F910A
:104A10008F917F916F915F914F913F912F910F9067
:104A20000FBE0F901F9018951F920F920FB60F9206
:104A300011242F933F934F935F936F937F938F93A3
:104A40009F93AF93BF93CF93DF93EF93FF93C09167
:104A5000E900CF708091EC00D82FD17080FDD0E8B4
:104A60001092E9008091F000877F8093F0007894A5
:104A70000E9458251092E9008091F0008860809390
:104A8000F000CD2BCF70C093E900FF91EF91DF9143
:104A9000CF91BF91AF919F918F917F916F915F91D6
:104AA0004F913F912F910F900FBE0F901F9018952F
:104AB000AAE2B0E0EEE5F5E20C942F27EFEAF4E08D
:104AC0008091F100819324E0E73BF207C9F70E944F
:104AD00050208091E80083FF2EC18091AF04909117
:104AE000B004492F50E04A30510508F024C1FA01C2
:104AF000EB58FF4F0C941327803821F0823809F0CF
:104B00001AC108C08091AB049091AC04992389F03C
:104B100082600FC08091B3048F70873008F00BC1A2
:104B20008093E9008091EB0085FB882780F9109243
:104B3000E9009091E800977F9093E8008093F1005E
:104B40001092F100D1C0282F2D7F09F0F4C08823E6
:104B500019F0823061F0EFC08091B104813009F02A
:104B6000EAC0933009F080E08093AC042EC08091BD
:104B7000B10481112AC08091B3048F702FEF280FE8
:104B8000263008F0D8C08093E9002091EB0020FF88
:104B90001CC0933021F48091EB00806214C090918E
:104BA000EB0090619093EB0021E030E0A90102C09E
:104BB000440F551F8A95E2F74093EA001092EA00ED
:104BC0008091EB0088608093EB001092E900809167
:104BD000E800877F8093E8000E947423ACC08111B5
:104BE000AAC01091B1041F778091E3008078812BD7
:104BF0008093E3008091E800877F8093E8000E9423
:104C000074238091E80080FFFCCF8091E3008068EE
:104C10008093E300111102C082E001C083E0809321
:104C2000AE0489C08058823008F085C08091B104FC
:104C30009091B2048C3D53E0950779F583E08A8327
:104C40008AE289834FB7F894DE01139620E03EE0B4
:104C500051E2E32FF0E050935700E49120FF03C0AE
:104C6000E295EF703F5FEF708E2F90E0EA3010F02A
:104C7000C79601C0C0968D939D932F5F243149F74D
:104C80004FBF8091E800877F8093E8006AE270E080
:104C9000CE0101960E94802216C06091B3047091EB
:104CA000B404AE014F5F5F4F0E948721BC01892B86
:104CB00009F441C09091E800977F9093E8008981C2
:104CC0009A810E94DE228091E8008B778093E80031
:104CD00032C0803881F58091E800877F8093E800BA
:104CE0008091AA048093F1008091E8008E7772CFC2
:104CF000811121C08091B1049091B204992702974B
:104D0000D4F48091E800877F8093E8008091B1041B
:104D10008093AA040E9474238091AA04811106C082
:104D20008091E30087FD02C081E001C084E08093B0
:104D3000AE040E9431208091E80083FF0AC0809178
:104D4000E800877F8093E8008091EB008062809389
:104D5000EB00AA96E3E00C944B270895CF93809143
:104D6000AE048823A1F0C091E900CF709091EC00CF
:104D7000892F817090FD80E8C82B1092E900809106
:104D8000E80083FD0E945825CF70C093E900CF91C1
:104D90000895AA1BBB1B51E107C0AA1FBB1FA61782
:104DA000B70710F0A61BB70B881F991F5A95A9F7D4
:104DB00080959095BC01CD01089597FB072E16F4C0
:104DC000009407D077FD09D00E94C92607FC05D0C2
:104DD0003EF4909581959F4F0895709561957F4F12
:104DE0000895A1E21A2EAA1BBB1BFD010DC0AA1F2C
:104DF000BB1FEE1FFF1FA217B307E407F50720F044
:104E0000A21BB30BE40BF50B661F771F881F991FBE
:104E10001A9469F760957095809590959B01AC0107
:104E2000BD01CF010895EE0FFF1F0590F491E02D15
:104E3000099469279627692778278727782708956F
:104E40002F923F924F925F926F927F928F929F929A
:104E5000AF92BF92CF92DF92EF92FF920F931F9388
:104E6000CF93DF93CDB7DEB7CA1BDB0B0FB6F89439
:104E7000DEBF0FBECDBF09942A88398848885F8479
:104E80006E847D848C849B84AA84B984C884DF80EA
:104E9000EE80FD800C811B81AA81B981CE0FD11DCE
:104EA0000FB6F894DEBF0FBECDBFED0108958F920F
:104EB0009F92AF92BF92CF92DF92EF92FF92CF93E9
:104EC000DF93EC01688179818A819B81611571058D
:104ED0008105910521F464E279ED8BE597E02DE100
:104EE00033EF41E050E00E94122849015A019B0132
:104EF000AC01A7EAB1E40E9431286B017C01ACEE61
:104F0000B4EFA50194010E943F28DC01CB018C0D78
:104F10009D1DAE1DBF1DB7FF03C00197A109B0487D
:104F200088839983AA83BB839F77DF91CF91FF907A
:104F3000EF90DF90CF90BF90AF909F908F900895AB
:104F40000E945727089580E091E00E945727089516
:104F5000A0E0B0E08093000190930101A0930201D2
:104F6000B09303010895FB01DC0104C08D91019011
:104F7000801921F441505040C8F7881B990B0895BF
:104F8000DC01CB01FC01F999FECF06C0F2BDE1BD09
:104F9000F89A319600B40D9241505040B8F70895F8
:104FA000F999FECF92BD81BDF89A992780B50895F1
:104FB000A8E1B0E042E050E00C94C227DC01A40F6D
:104FC000B51F4150504048F0CB01840F951F2E91E2
:104FD0000E94EF2741505040D0F70895262FF999AD
:104FE000FECF92BD81BDF89A019700B4021639F048
:104FF0001FBA20BD0FB6F894FA9AF99A0FBE089519
:105000000396272F0E94EF270E94EE27252F0E944C
:10501000EF27242F0C94EF270196272F0E94EF27CC
:105020000C94EE27052E97FB1EF400940E9429286D
:1050300057FD07D00E94F12607FC03D04EF40C94D4
:10504000292850954095309521953F4F4F4F5F4F00
:10505000089590958095709561957F4F8F4F9F4FE4
:1050600008950E944428A59F900DB49F900DA49F81
:10507000800D911D11240895B7FF0C9431280E94D2
:105080003128821B930B0895A29FB001B39FC001EA
:10509000A39F700D811D1124911DB29F700D811D64
:0A50A0001124911D0895F894FFCF2C
:1050AA0001000000FF0000FF010000FF6902671F06
:1050BA006B1FE01FDB1FD61F6A1F01E200E900EA2F
:1050CA0000B500B600B700CD008301CC008A01927A
:1050DA000194012102230224022502260227022A20
:1050EA0002B300B4006F007000818283E200E9001D
:1050FA00EA00B500B600B700CD008301CC008A01F2
:10510A009201940121022302240225022602270287
:10511A002A02B300B4006F007000818283F59531D2
:10512A003233939267663635349796943730F1F076
:10513A00C6F4F6F740226D1C068D05AF0532054B05
:04514A00056B0500EC
:00000001FF
